{
  "_format": "hh-sol-artifact-1",
  "contractName": "TroveManager",
  "sourceName": "contracts/core/TroveManager.sol",
  "abi": [
    {
      "inputs": [
        {
          "internalType": "address",
          "name": "_vineCore",
          "type": "address"
        },
        {
          "internalType": "address",
          "name": "_gasPoolAddress",
          "type": "address"
        },
        {
          "internalType": "address",
          "name": "_debtTokenAddress",
          "type": "address"
        },
        {
          "internalType": "address",
          "name": "_borrowerOperationsAddress",
          "type": "address"
        },
        {
          "internalType": "address",
          "name": "_vault",
          "type": "address"
        },
        {
          "internalType": "address",
          "name": "_liquidationManager",
          "type": "address"
        },
        {
          "internalType": "uint256",
          "name": "_gasCompensation",
          "type": "uint256"
        }
      ],
      "stateMutability": "nonpayable",
      "type": "constructor"
    },
    {
      "inputs": [
        {
          "internalType": "address",
          "name": "target",
          "type": "address"
        }
      ],
      "name": "AddressEmptyCode",
      "type": "error"
    },
    {
      "inputs": [
        {
          "internalType": "address",
          "name": "account",
          "type": "address"
        }
      ],
      "name": "AddressInsufficientBalance",
      "type": "error"
    },
    {
      "inputs": [],
      "name": "FailedInnerCall",
      "type": "error"
    },
    {
      "inputs": [],
      "name": "MathOverflowedMulDiv",
      "type": "error"
    },
    {
      "inputs": [
        {
          "internalType": "address",
          "name": "token",
          "type": "address"
        }
      ],
      "name": "SafeERC20FailedOperation",
      "type": "error"
    },
    {
      "anonymous": false,
      "inputs": [
        {
          "indexed": false,
          "internalType": "uint256",
          "name": "_baseRate",
          "type": "uint256"
        }
      ],
      "name": "BaseRateUpdated",
      "type": "event"
    },
    {
      "anonymous": false,
      "inputs": [
        {
          "indexed": false,
          "internalType": "address",
          "name": "_to",
          "type": "address"
        },
        {
          "indexed": false,
          "internalType": "uint256",
          "name": "_amount",
          "type": "uint256"
        }
      ],
      "name": "CollateralSent",
      "type": "event"
    },
    {
      "anonymous": false,
      "inputs": [
        {
          "indexed": false,
          "internalType": "uint256",
          "name": "_L_collateral",
          "type": "uint256"
        },
        {
          "indexed": false,
          "internalType": "uint256",
          "name": "_L_debt",
          "type": "uint256"
        }
      ],
      "name": "LTermsUpdated",
      "type": "event"
    },
    {
      "anonymous": false,
      "inputs": [
        {
          "indexed": false,
          "internalType": "uint256",
          "name": "_lastFeeOpTime",
          "type": "uint256"
        }
      ],
      "name": "LastFeeOpTimeUpdated",
      "type": "event"
    },
    {
      "anonymous": false,
      "inputs": [
        {
          "indexed": false,
          "internalType": "uint256",
          "name": "_attemptedDebtAmount",
          "type": "uint256"
        },
        {
          "indexed": false,
          "internalType": "uint256",
          "name": "_actualDebtAmount",
          "type": "uint256"
        },
        {
          "indexed": false,
          "internalType": "uint256",
          "name": "_collateralSent",
          "type": "uint256"
        },
        {
          "indexed": false,
          "internalType": "uint256",
          "name": "_collateralFee",
          "type": "uint256"
        }
      ],
      "name": "Redemption",
      "type": "event"
    },
    {
      "anonymous": false,
      "inputs": [
        {
          "indexed": true,
          "internalType": "address",
          "name": "account",
          "type": "address"
        },
        {
          "indexed": true,
          "internalType": "address",
          "name": "recipient",
          "type": "address"
        },
        {
          "indexed": false,
          "internalType": "uint256",
          "name": "claimed",
          "type": "uint256"
        }
      ],
      "name": "RewardClaimed",
      "type": "event"
    },
    {
      "anonymous": false,
      "inputs": [
        {
          "indexed": false,
          "internalType": "uint256",
          "name": "_totalStakesSnapshot",
          "type": "uint256"
        },
        {
          "indexed": false,
          "internalType": "uint256",
          "name": "_totalCollateralSnapshot",
          "type": "uint256"
        }
      ],
      "name": "SystemSnapshotsUpdated",
      "type": "event"
    },
    {
      "anonymous": false,
      "inputs": [
        {
          "indexed": false,
          "internalType": "uint256",
          "name": "_newTotalStakes",
          "type": "uint256"
        }
      ],
      "name": "TotalStakesUpdated",
      "type": "event"
    },
    {
      "anonymous": false,
      "inputs": [
        {
          "indexed": false,
          "internalType": "address",
          "name": "_borrower",
          "type": "address"
        },
        {
          "indexed": false,
          "internalType": "uint256",
          "name": "_newIndex",
          "type": "uint256"
        }
      ],
      "name": "TroveIndexUpdated",
      "type": "event"
    },
    {
      "anonymous": false,
      "inputs": [
        {
          "indexed": false,
          "internalType": "uint256",
          "name": "_L_collateral",
          "type": "uint256"
        },
        {
          "indexed": false,
          "internalType": "uint256",
          "name": "_L_debt",
          "type": "uint256"
        }
      ],
      "name": "TroveSnapshotsUpdated",
      "type": "event"
    },
    {
      "anonymous": false,
      "inputs": [
        {
          "indexed": true,
          "internalType": "address",
          "name": "_borrower",
          "type": "address"
        },
        {
          "indexed": false,
          "internalType": "uint256",
          "name": "_debt",
          "type": "uint256"
        },
        {
          "indexed": false,
          "internalType": "uint256",
          "name": "_coll",
          "type": "uint256"
        },
        {
          "indexed": false,
          "internalType": "uint256",
          "name": "_stake",
          "type": "uint256"
        },
        {
          "indexed": false,
          "internalType": "enum TroveManager.TroveManagerOperation",
          "name": "_operation",
          "type": "uint8"
        }
      ],
      "name": "TroveUpdated",
      "type": "event"
    },
    {
      "inputs": [],
      "name": "BOOTSTRAP_PERIOD",
      "outputs": [
        {
          "internalType": "uint256",
          "name": "",
          "type": "uint256"
        }
      ],
      "stateMutability": "view",
      "type": "function"
    },
    {
      "inputs": [],
      "name": "CCR",
      "outputs": [
        {
          "internalType": "uint256",
          "name": "",
          "type": "uint256"
        }
      ],
      "stateMutability": "view",
      "type": "function"
    },
    {
      "inputs": [],
      "name": "DEBT_GAS_COMPENSATION",
      "outputs": [
        {
          "internalType": "uint256",
          "name": "",
          "type": "uint256"
        }
      ],
      "stateMutability": "view",
      "type": "function"
    },
    {
      "inputs": [],
      "name": "DECIMAL_PRECISION",
      "outputs": [
        {
          "internalType": "uint256",
          "name": "",
          "type": "uint256"
        }
      ],
      "stateMutability": "view",
      "type": "function"
    },
    {
      "inputs": [],
      "name": "L_collateral",
      "outputs": [
        {
          "internalType": "uint256",
          "name": "",
          "type": "uint256"
        }
      ],
      "stateMutability": "view",
      "type": "function"
    },
    {
      "inputs": [],
      "name": "L_debt",
      "outputs": [
        {
          "internalType": "uint256",
          "name": "",
          "type": "uint256"
        }
      ],
      "stateMutability": "view",
      "type": "function"
    },
    {
      "inputs": [],
      "name": "MAX_INTEREST_RATE_IN_BPS",
      "outputs": [
        {
          "internalType": "uint256",
          "name": "",
          "type": "uint256"
        }
      ],
      "stateMutability": "view",
      "type": "function"
    },
    {
      "inputs": [],
      "name": "MCR",
      "outputs": [
        {
          "internalType": "uint256",
          "name": "",
          "type": "uint256"
        }
      ],
      "stateMutability": "view",
      "type": "function"
    },
    {
      "inputs": [],
      "name": "PERCENT_DIVISOR",
      "outputs": [
        {
          "internalType": "uint256",
          "name": "",
          "type": "uint256"
        }
      ],
      "stateMutability": "view",
      "type": "function"
    },
    {
      "inputs": [],
      "name": "SUNSETTING_INTEREST_RATE",
      "outputs": [
        {
          "internalType": "uint256",
          "name": "",
          "type": "uint256"
        }
      ],
      "stateMutability": "view",
      "type": "function"
    },
    {
      "inputs": [],
      "name": "VINE_CORE",
      "outputs": [
        {
          "internalType": "contract IVineCore",
          "name": "",
          "type": "address"
        }
      ],
      "stateMutability": "view",
      "type": "function"
    },
    {
      "inputs": [
        {
          "internalType": "address",
          "name": "",
          "type": "address"
        }
      ],
      "name": "accountLatestMint",
      "outputs": [
        {
          "internalType": "uint32",
          "name": "amount",
          "type": "uint32"
        },
        {
          "internalType": "uint32",
          "name": "week",
          "type": "uint32"
        },
        {
          "internalType": "uint32",
          "name": "day",
          "type": "uint32"
        }
      ],
      "stateMutability": "view",
      "type": "function"
    },
    {
      "inputs": [],
      "name": "activeInterestIndex",
      "outputs": [
        {
          "internalType": "uint256",
          "name": "",
          "type": "uint256"
        }
      ],
      "stateMutability": "view",
      "type": "function"
    },
    {
      "inputs": [
        {
          "internalType": "address",
          "name": "borrower",
          "type": "address"
        },
        {
          "internalType": "uint256",
          "name": "collSurplus",
          "type": "uint256"
        }
      ],
      "name": "addCollateralSurplus",
      "outputs": [],
      "stateMutability": "nonpayable",
      "type": "function"
    },
    {
      "inputs": [
        {
          "internalType": "address",
          "name": "_borrower",
          "type": "address"
        }
      ],
      "name": "applyPendingRewards",
      "outputs": [
        {
          "internalType": "uint256",
          "name": "coll",
          "type": "uint256"
        },
        {
          "internalType": "uint256",
          "name": "debt",
          "type": "uint256"
        }
      ],
      "stateMutability": "nonpayable",
      "type": "function"
    },
    {
      "inputs": [],
      "name": "baseRate",
      "outputs": [
        {
          "internalType": "uint256",
          "name": "",
          "type": "uint256"
        }
      ],
      "stateMutability": "view",
      "type": "function"
    },
    {
      "inputs": [],
      "name": "borrowerOperationsAddress",
      "outputs": [
        {
          "internalType": "address",
          "name": "",
          "type": "address"
        }
      ],
      "stateMutability": "view",
      "type": "function"
    },
    {
      "inputs": [],
      "name": "borrowingFeeFloor",
      "outputs": [
        {
          "internalType": "uint256",
          "name": "",
          "type": "uint256"
        }
      ],
      "stateMutability": "view",
      "type": "function"
    },
    {
      "inputs": [
        {
          "internalType": "address",
          "name": "_receiver",
          "type": "address"
        }
      ],
      "name": "claimCollateral",
      "outputs": [],
      "stateMutability": "nonpayable",
      "type": "function"
    },
    {
      "inputs": [
        {
          "internalType": "address",
          "name": "receiver",
          "type": "address"
        }
      ],
      "name": "claimReward",
      "outputs": [
        {
          "internalType": "uint256",
          "name": "",
          "type": "uint256"
        }
      ],
      "stateMutability": "nonpayable",
      "type": "function"
    },
    {
      "inputs": [
        {
          "internalType": "address",
          "name": "account",
          "type": "address"
        }
      ],
      "name": "claimableReward",
      "outputs": [
        {
          "internalType": "uint256",
          "name": "",
          "type": "uint256"
        }
      ],
      "stateMutability": "view",
      "type": "function"
    },
    {
      "inputs": [
        {
          "internalType": "address",
          "name": "_borrower",
          "type": "address"
        },
        {
          "internalType": "address",
          "name": "_receiver",
          "type": "address"
        },
        {
          "internalType": "uint256",
          "name": "collAmount",
          "type": "uint256"
        },
        {
          "internalType": "uint256",
          "name": "debtAmount",
          "type": "uint256"
        }
      ],
      "name": "closeTrove",
      "outputs": [],
      "stateMutability": "nonpayable",
      "type": "function"
    },
    {
      "inputs": [
        {
          "internalType": "address",
          "name": "_borrower",
          "type": "address"
        }
      ],
      "name": "closeTroveByLiquidation",
      "outputs": [],
      "stateMutability": "nonpayable",
      "type": "function"
    },
    {
      "inputs": [],
      "name": "collateralToken",
      "outputs": [
        {
          "internalType": "contract IERC20",
          "name": "",
          "type": "address"
        }
      ],
      "stateMutability": "view",
      "type": "function"
    },
    {
      "inputs": [],
      "name": "collectInterests",
      "outputs": [],
      "stateMutability": "nonpayable",
      "type": "function"
    },
    {
      "inputs": [
        {
          "internalType": "uint256",
          "name": "",
          "type": "uint256"
        }
      ],
      "name": "dailyMintReward",
      "outputs": [
        {
          "internalType": "uint256",
          "name": "",
          "type": "uint256"
        }
      ],
      "stateMutability": "view",
      "type": "function"
    },
    {
      "inputs": [],
      "name": "debtToken",
      "outputs": [
        {
          "internalType": "contract IDebtToken",
          "name": "",
          "type": "address"
        }
      ],
      "stateMutability": "view",
      "type": "function"
    },
    {
      "inputs": [
        {
          "internalType": "uint256",
          "name": "_debt",
          "type": "uint256"
        }
      ],
      "name": "decayBaseRateAndGetBorrowingFee",
      "outputs": [
        {
          "internalType": "uint256",
          "name": "",
          "type": "uint256"
        }
      ],
      "stateMutability": "nonpayable",
      "type": "function"
    },
    {
      "inputs": [
        {
          "internalType": "address",
          "name": "account",
          "type": "address"
        },
        {
          "internalType": "uint256",
          "name": "debt",
          "type": "uint256"
        },
        {
          "internalType": "uint256",
          "name": "coll",
          "type": "uint256"
        }
      ],
      "name": "decreaseDebtAndSendCollateral",
      "outputs": [],
      "stateMutability": "nonpayable",
      "type": "function"
    },
    {
      "inputs": [],
      "name": "defaultedCollateral",
      "outputs": [
        {
          "internalType": "uint256",
          "name": "",
          "type": "uint256"
        }
      ],
      "stateMutability": "view",
      "type": "function"
    },
    {
      "inputs": [],
      "name": "defaultedDebt",
      "outputs": [
        {
          "internalType": "uint256",
          "name": "",
          "type": "uint256"
        }
      ],
      "stateMutability": "view",
      "type": "function"
    },
    {
      "inputs": [],
      "name": "emissionId",
      "outputs": [
        {
          "internalType": "uint16",
          "name": "debt",
          "type": "uint16"
        },
        {
          "internalType": "uint16",
          "name": "minting",
          "type": "uint16"
        }
      ],
      "stateMutability": "view",
      "type": "function"
    },
    {
      "inputs": [],
      "name": "fetchPrice",
      "outputs": [
        {
          "internalType": "uint256",
          "name": "",
          "type": "uint256"
        }
      ],
      "stateMutability": "nonpayable",
      "type": "function"
    },
    {
      "inputs": [
        {
          "internalType": "address",
          "name": "_liquidator",
          "type": "address"
        },
        {
          "internalType": "uint256",
          "name": "_debt",
          "type": "uint256"
        },
        {
          "internalType": "uint256",
          "name": "_coll",
          "type": "uint256"
        },
        {
          "internalType": "uint256",
          "name": "_collSurplus",
          "type": "uint256"
        },
        {
          "internalType": "uint256",
          "name": "_debtGasComp",
          "type": "uint256"
        },
        {
          "internalType": "uint256",
          "name": "_collGasComp",
          "type": "uint256"
        }
      ],
      "name": "finalizeLiquidation",
      "outputs": [],
      "stateMutability": "nonpayable",
      "type": "function"
    },
    {
      "inputs": [
        {
          "internalType": "uint256",
          "name": "_debt",
          "type": "uint256"
        }
      ],
      "name": "getBorrowingFee",
      "outputs": [
        {
          "internalType": "uint256",
          "name": "",
          "type": "uint256"
        }
      ],
      "stateMutability": "view",
      "type": "function"
    },
    {
      "inputs": [
        {
          "internalType": "uint256",
          "name": "_debt",
          "type": "uint256"
        }
      ],
      "name": "getBorrowingFeeWithDecay",
      "outputs": [
        {
          "internalType": "uint256",
          "name": "",
          "type": "uint256"
        }
      ],
      "stateMutability": "view",
      "type": "function"
    },
    {
      "inputs": [],
      "name": "getBorrowingRate",
      "outputs": [
        {
          "internalType": "uint256",
          "name": "",
          "type": "uint256"
        }
      ],
      "stateMutability": "view",
      "type": "function"
    },
    {
      "inputs": [],
      "name": "getBorrowingRateWithDecay",
      "outputs": [
        {
          "internalType": "uint256",
          "name": "",
          "type": "uint256"
        }
      ],
      "stateMutability": "view",
      "type": "function"
    },
    {
      "inputs": [
        {
          "internalType": "address",
          "name": "_borrower",
          "type": "address"
        },
        {
          "internalType": "uint256",
          "name": "_price",
          "type": "uint256"
        }
      ],
      "name": "getCurrentICR",
      "outputs": [
        {
          "internalType": "uint256",
          "name": "",
          "type": "uint256"
        }
      ],
      "stateMutability": "view",
      "type": "function"
    },
    {
      "inputs": [
        {
          "internalType": "address",
          "name": "_borrower",
          "type": "address"
        }
      ],
      "name": "getEntireDebtAndColl",
      "outputs": [
        {
          "internalType": "uint256",
          "name": "debt",
          "type": "uint256"
        },
        {
          "internalType": "uint256",
          "name": "coll",
          "type": "uint256"
        },
        {
          "internalType": "uint256",
          "name": "pendingDebtReward",
          "type": "uint256"
        },
        {
          "internalType": "uint256",
          "name": "pendingCollateralReward",
          "type": "uint256"
        }
      ],
      "stateMutability": "view",
      "type": "function"
    },
    {
      "inputs": [],
      "name": "getEntireSystemBalances",
      "outputs": [
        {
          "internalType": "uint256",
          "name": "",
          "type": "uint256"
        },
        {
          "internalType": "uint256",
          "name": "",
          "type": "uint256"
        },
        {
          "internalType": "uint256",
          "name": "",
          "type": "uint256"
        }
      ],
      "stateMutability": "nonpayable",
      "type": "function"
    },
    {
      "inputs": [],
      "name": "getEntireSystemColl",
      "outputs": [
        {
          "internalType": "uint256",
          "name": "",
          "type": "uint256"
        }
      ],
      "stateMutability": "view",
      "type": "function"
    },
    {
      "inputs": [],
      "name": "getEntireSystemDebt",
      "outputs": [
        {
          "internalType": "uint256",
          "name": "",
          "type": "uint256"
        }
      ],
      "stateMutability": "view",
      "type": "function"
    },
    {
      "inputs": [
        {
          "internalType": "address",
          "name": "_borrower",
          "type": "address"
        }
      ],
      "name": "getNominalICR",
      "outputs": [
        {
          "internalType": "uint256",
          "name": "",
          "type": "uint256"
        }
      ],
      "stateMutability": "view",
      "type": "function"
    },
    {
      "inputs": [
        {
          "internalType": "address",
          "name": "_borrower",
          "type": "address"
        }
      ],
      "name": "getPendingCollAndDebtRewards",
      "outputs": [
        {
          "internalType": "uint256",
          "name": "",
          "type": "uint256"
        },
        {
          "internalType": "uint256",
          "name": "",
          "type": "uint256"
        }
      ],
      "stateMutability": "view",
      "type": "function"
    },
    {
      "inputs": [
        {
          "internalType": "uint256",
          "name": "_collateralDrawn",
          "type": "uint256"
        }
      ],
      "name": "getRedemptionFeeWithDecay",
      "outputs": [
        {
          "internalType": "uint256",
          "name": "",
          "type": "uint256"
        }
      ],
      "stateMutability": "view",
      "type": "function"
    },
    {
      "inputs": [],
      "name": "getRedemptionRate",
      "outputs": [
        {
          "internalType": "uint256",
          "name": "",
          "type": "uint256"
        }
      ],
      "stateMutability": "view",
      "type": "function"
    },
    {
      "inputs": [],
      "name": "getRedemptionRateWithDecay",
      "outputs": [
        {
          "internalType": "uint256",
          "name": "",
          "type": "uint256"
        }
      ],
      "stateMutability": "view",
      "type": "function"
    },
    {
      "inputs": [],
      "name": "getTotalActiveCollateral",
      "outputs": [
        {
          "internalType": "uint256",
          "name": "",
          "type": "uint256"
        }
      ],
      "stateMutability": "view",
      "type": "function"
    },
    {
      "inputs": [],
      "name": "getTotalActiveDebt",
      "outputs": [
        {
          "internalType": "uint256",
          "name": "",
          "type": "uint256"
        }
      ],
      "stateMutability": "view",
      "type": "function"
    },
    {
      "inputs": [
        {
          "internalType": "uint256",
          "name": "week",
          "type": "uint256"
        }
      ],
      "name": "getTotalMints",
      "outputs": [
        {
          "internalType": "uint32[7]",
          "name": "",
          "type": "uint32[7]"
        }
      ],
      "stateMutability": "view",
      "type": "function"
    },
    {
      "inputs": [
        {
          "internalType": "address",
          "name": "_borrower",
          "type": "address"
        }
      ],
      "name": "getTrove",
      "outputs": [
        {
          "components": [
            {
              "internalType": "uint256",
              "name": "debt",
              "type": "uint256"
            },
            {
              "internalType": "uint256",
              "name": "coll",
              "type": "uint256"
            },
            {
              "internalType": "uint256",
              "name": "stake",
              "type": "uint256"
            },
            {
              "internalType": "enum TroveManager.Status",
              "name": "status",
              "type": "uint8"
            },
            {
              "internalType": "uint128",
              "name": "arrayIndex",
              "type": "uint128"
            },
            {
              "internalType": "uint256",
              "name": "activeInterestIndex",
              "type": "uint256"
            }
          ],
          "internalType": "struct TroveManager.Trove",
          "name": "",
          "type": "tuple"
        }
      ],
      "stateMutability": "view",
      "type": "function"
    },
    {
      "inputs": [
        {
          "internalType": "address",
          "name": "_borrower",
          "type": "address"
        }
      ],
      "name": "getTroveCollAndDebt",
      "outputs": [
        {
          "internalType": "uint256",
          "name": "coll",
          "type": "uint256"
        },
        {
          "internalType": "uint256",
          "name": "debt",
          "type": "uint256"
        }
      ],
      "stateMutability": "view",
      "type": "function"
    },
    {
      "inputs": [
        {
          "internalType": "uint256",
          "name": "_index",
          "type": "uint256"
        }
      ],
      "name": "getTroveFromTroveOwnersArray",
      "outputs": [
        {
          "internalType": "address",
          "name": "",
          "type": "address"
        }
      ],
      "stateMutability": "view",
      "type": "function"
    },
    {
      "inputs": [],
      "name": "getTroveOwnersCount",
      "outputs": [
        {
          "internalType": "uint256",
          "name": "",
          "type": "uint256"
        }
      ],
      "stateMutability": "view",
      "type": "function"
    },
    {
      "inputs": [
        {
          "internalType": "address",
          "name": "_borrower",
          "type": "address"
        }
      ],
      "name": "getTroveStake",
      "outputs": [
        {
          "internalType": "uint256",
          "name": "",
          "type": "uint256"
        }
      ],
      "stateMutability": "view",
      "type": "function"
    },
    {
      "inputs": [
        {
          "internalType": "address",
          "name": "_borrower",
          "type": "address"
        }
      ],
      "name": "getTroveStatus",
      "outputs": [
        {
          "internalType": "uint256",
          "name": "",
          "type": "uint256"
        }
      ],
      "stateMutability": "view",
      "type": "function"
    },
    {
      "inputs": [],
      "name": "getWeek",
      "outputs": [
        {
          "internalType": "uint256",
          "name": "week",
          "type": "uint256"
        }
      ],
      "stateMutability": "view",
      "type": "function"
    },
    {
      "inputs": [],
      "name": "getWeekAndDay",
      "outputs": [
        {
          "internalType": "uint256",
          "name": "",
          "type": "uint256"
        },
        {
          "internalType": "uint256",
          "name": "",
          "type": "uint256"
        }
      ],
      "stateMutability": "view",
      "type": "function"
    },
    {
      "inputs": [],
      "name": "guardian",
      "outputs": [
        {
          "internalType": "address",
          "name": "",
          "type": "address"
        }
      ],
      "stateMutability": "view",
      "type": "function"
    },
    {
      "inputs": [
        {
          "internalType": "address",
          "name": "_borrower",
          "type": "address"
        }
      ],
      "name": "hasPendingRewards",
      "outputs": [
        {
          "internalType": "bool",
          "name": "",
          "type": "bool"
        }
      ],
      "stateMutability": "view",
      "type": "function"
    },
    {
      "inputs": [],
      "name": "interestPayable",
      "outputs": [
        {
          "internalType": "uint256",
          "name": "",
          "type": "uint256"
        }
      ],
      "stateMutability": "view",
      "type": "function"
    },
    {
      "inputs": [],
      "name": "interestRate",
      "outputs": [
        {
          "internalType": "uint256",
          "name": "",
          "type": "uint256"
        }
      ],
      "stateMutability": "view",
      "type": "function"
    },
    {
      "inputs": [],
      "name": "lastActiveIndexUpdate",
      "outputs": [
        {
          "internalType": "uint256",
          "name": "",
          "type": "uint256"
        }
      ],
      "stateMutability": "view",
      "type": "function"
    },
    {
      "inputs": [],
      "name": "lastCollateralError_Redistribution",
      "outputs": [
        {
          "internalType": "uint256",
          "name": "",
          "type": "uint256"
        }
      ],
      "stateMutability": "view",
      "type": "function"
    },
    {
      "inputs": [],
      "name": "lastDebtError_Redistribution",
      "outputs": [
        {
          "internalType": "uint256",
          "name": "",
          "type": "uint256"
        }
      ],
      "stateMutability": "view",
      "type": "function"
    },
    {
      "inputs": [],
      "name": "lastFeeOperationTime",
      "outputs": [
        {
          "internalType": "uint256",
          "name": "",
          "type": "uint256"
        }
      ],
      "stateMutability": "view",
      "type": "function"
    },
    {
      "inputs": [],
      "name": "lastUpdate",
      "outputs": [
        {
          "internalType": "uint32",
          "name": "",
          "type": "uint32"
        }
      ],
      "stateMutability": "view",
      "type": "function"
    },
    {
      "inputs": [],
      "name": "liquidationManager",
      "outputs": [
        {
          "internalType": "address",
          "name": "",
          "type": "address"
        }
      ],
      "stateMutability": "view",
      "type": "function"
    },
    {
      "inputs": [],
      "name": "loadPrice",
      "outputs": [
        {
          "internalType": "uint256",
          "name": "",
          "type": "uint256"
        }
      ],
      "stateMutability": "view",
      "type": "function"
    },
    {
      "inputs": [
        {
          "internalType": "address",
          "name": "",
          "type": "address"
        }
      ],
      "name": "lookers",
      "outputs": [
        {
          "internalType": "bool",
          "name": "",
          "type": "bool"
        }
      ],
      "stateMutability": "view",
      "type": "function"
    },
    {
      "inputs": [],
      "name": "lpChecker",
      "outputs": [
        {
          "internalType": "contract ILpChecker",
          "name": "",
          "type": "address"
        }
      ],
      "stateMutability": "view",
      "type": "function"
    },
    {
      "inputs": [],
      "name": "maxBorrowingFee",
      "outputs": [
        {
          "internalType": "uint256",
          "name": "",
          "type": "uint256"
        }
      ],
      "stateMutability": "view",
      "type": "function"
    },
    {
      "inputs": [],
      "name": "maxRedemptionFee",
      "outputs": [
        {
          "internalType": "uint256",
          "name": "",
          "type": "uint256"
        }
      ],
      "stateMutability": "view",
      "type": "function"
    },
    {
      "inputs": [],
      "name": "maxSystemDebt",
      "outputs": [
        {
          "internalType": "uint256",
          "name": "",
          "type": "uint256"
        }
      ],
      "stateMutability": "view",
      "type": "function"
    },
    {
      "inputs": [],
      "name": "minuteDecayFactor",
      "outputs": [
        {
          "internalType": "uint256",
          "name": "",
          "type": "uint256"
        }
      ],
      "stateMutability": "view",
      "type": "function"
    },
    {
      "inputs": [
        {
          "internalType": "uint256",
          "name": "_debt",
          "type": "uint256"
        },
        {
          "internalType": "uint256",
          "name": "_collateral",
          "type": "uint256"
        }
      ],
      "name": "movePendingTroveRewardsToActiveBalances",
      "outputs": [],
      "stateMutability": "nonpayable",
      "type": "function"
    },
    {
      "inputs": [
        {
          "internalType": "uint256[]",
          "name": "_assignedIds",
          "type": "uint256[]"
        }
      ],
      "name": "notifyRegisteredId",
      "outputs": [
        {
          "internalType": "bool",
          "name": "",
          "type": "bool"
        }
      ],
      "stateMutability": "nonpayable",
      "type": "function"
    },
    {
      "inputs": [
        {
          "internalType": "address",
          "name": "_borrower",
          "type": "address"
        },
        {
          "internalType": "uint256",
          "name": "_collateralAmount",
          "type": "uint256"
        },
        {
          "internalType": "uint256",
          "name": "_compositeDebt",
          "type": "uint256"
        },
        {
          "internalType": "uint256",
          "name": "NICR",
          "type": "uint256"
        },
        {
          "internalType": "address",
          "name": "_upperHint",
          "type": "address"
        },
        {
          "internalType": "address",
          "name": "_lowerHint",
          "type": "address"
        },
        {
          "internalType": "bool",
          "name": "_isRecoveryMode",
          "type": "bool"
        }
      ],
      "name": "openTrove",
      "outputs": [
        {
          "internalType": "uint256",
          "name": "stake",
          "type": "uint256"
        },
        {
          "internalType": "uint256",
          "name": "arrayIndex",
          "type": "uint256"
        }
      ],
      "stateMutability": "nonpayable",
      "type": "function"
    },
    {
      "inputs": [],
      "name": "owner",
      "outputs": [
        {
          "internalType": "address",
          "name": "",
          "type": "address"
        }
      ],
      "stateMutability": "view",
      "type": "function"
    },
    {
      "inputs": [],
      "name": "paused",
      "outputs": [
        {
          "internalType": "bool",
          "name": "",
          "type": "bool"
        }
      ],
      "stateMutability": "view",
      "type": "function"
    },
    {
      "inputs": [],
      "name": "periodFinish",
      "outputs": [
        {
          "internalType": "uint32",
          "name": "",
          "type": "uint32"
        }
      ],
      "stateMutability": "view",
      "type": "function"
    },
    {
      "inputs": [],
      "name": "priceFeed",
      "outputs": [
        {
          "internalType": "contract IPriceFeed",
          "name": "",
          "type": "address"
        }
      ],
      "stateMutability": "view",
      "type": "function"
    },
    {
      "inputs": [
        {
          "internalType": "uint256",
          "name": "_debtAmount",
          "type": "uint256"
        },
        {
          "internalType": "address",
          "name": "_firstRedemptionHint",
          "type": "address"
        },
        {
          "internalType": "address",
          "name": "_upperPartialRedemptionHint",
          "type": "address"
        },
        {
          "internalType": "address",
          "name": "_lowerPartialRedemptionHint",
          "type": "address"
        },
        {
          "internalType": "uint256",
          "name": "_partialRedemptionHintNICR",
          "type": "uint256"
        },
        {
          "internalType": "uint256",
          "name": "_maxIterations",
          "type": "uint256"
        },
        {
          "internalType": "uint256",
          "name": "_maxFeePercentage",
          "type": "uint256"
        }
      ],
      "name": "redeemCollateral",
      "outputs": [],
      "stateMutability": "nonpayable",
      "type": "function"
    },
    {
      "inputs": [],
      "name": "redemptionFeeFloor",
      "outputs": [
        {
          "internalType": "uint256",
          "name": "",
          "type": "uint256"
        }
      ],
      "stateMutability": "view",
      "type": "function"
    },
    {
      "inputs": [],
      "name": "rewardIntegral",
      "outputs": [
        {
          "internalType": "uint256",
          "name": "",
          "type": "uint256"
        }
      ],
      "stateMutability": "view",
      "type": "function"
    },
    {
      "inputs": [
        {
          "internalType": "address",
          "name": "",
          "type": "address"
        }
      ],
      "name": "rewardIntegralFor",
      "outputs": [
        {
          "internalType": "uint256",
          "name": "",
          "type": "uint256"
        }
      ],
      "stateMutability": "view",
      "type": "function"
    },
    {
      "inputs": [],
      "name": "rewardRate",
      "outputs": [
        {
          "internalType": "uint128",
          "name": "",
          "type": "uint128"
        }
      ],
      "stateMutability": "view",
      "type": "function"
    },
    {
      "inputs": [
        {
          "internalType": "address",
          "name": "",
          "type": "address"
        }
      ],
      "name": "rewardSnapshots",
      "outputs": [
        {
          "internalType": "uint256",
          "name": "collateral",
          "type": "uint256"
        },
        {
          "internalType": "uint256",
          "name": "debt",
          "type": "uint256"
        }
      ],
      "stateMutability": "view",
      "type": "function"
    },
    {
      "inputs": [
        {
          "internalType": "address",
          "name": "_priceFeedAddress",
          "type": "address"
        },
        {
          "internalType": "address",
          "name": "_sortedTrovesAddress",
          "type": "address"
        },
        {
          "internalType": "address",
          "name": "_collateralToken",
          "type": "address"
        }
      ],
      "name": "setAddresses",
      "outputs": [],
      "stateMutability": "nonpayable",
      "type": "function"
    },
    {
      "inputs": [
        {
          "internalType": "address[]",
          "name": "_lookers",
          "type": "address[]"
        },
        {
          "internalType": "bool[]",
          "name": "_bools",
          "type": "bool[]"
        }
      ],
      "name": "setLookers",
      "outputs": [],
      "stateMutability": "nonpayable",
      "type": "function"
    },
    {
      "inputs": [
        {
          "internalType": "uint256",
          "name": "_minuteDecayFactor",
          "type": "uint256"
        },
        {
          "internalType": "uint256",
          "name": "_redemptionFeeFloor",
          "type": "uint256"
        },
        {
          "internalType": "uint256",
          "name": "_maxRedemptionFee",
          "type": "uint256"
        },
        {
          "internalType": "uint256",
          "name": "_borrowingFeeFloor",
          "type": "uint256"
        },
        {
          "internalType": "uint256",
          "name": "_maxBorrowingFee",
          "type": "uint256"
        },
        {
          "internalType": "uint256",
          "name": "_interestRateInBPS",
          "type": "uint256"
        },
        {
          "internalType": "uint256",
          "name": "_maxSystemDebt",
          "type": "uint256"
        },
        {
          "internalType": "uint256",
          "name": "_MCR",
          "type": "uint256"
        }
      ],
      "name": "setParameters",
      "outputs": [],
      "stateMutability": "nonpayable",
      "type": "function"
    },
    {
      "inputs": [
        {
          "internalType": "bool",
          "name": "_paused",
          "type": "bool"
        }
      ],
      "name": "setPaused",
      "outputs": [],
      "stateMutability": "nonpayable",
      "type": "function"
    },
    {
      "inputs": [
        {
          "internalType": "address",
          "name": "_priceFeedAddress",
          "type": "address"
        },
        {
          "internalType": "address",
          "name": "_lpChecker",
          "type": "address"
        }
      ],
      "name": "setPriceFeed",
      "outputs": [],
      "stateMutability": "nonpayable",
      "type": "function"
    },
    {
      "inputs": [],
      "name": "sortedTroves",
      "outputs": [
        {
          "internalType": "contract ISortedTroves",
          "name": "",
          "type": "address"
        }
      ],
      "stateMutability": "view",
      "type": "function"
    },
    {
      "inputs": [],
      "name": "startSunset",
      "outputs": [],
      "stateMutability": "nonpayable",
      "type": "function"
    },
    {
      "inputs": [
        {
          "internalType": "address",
          "name": "account",
          "type": "address"
        }
      ],
      "name": "storePendingReward",
      "outputs": [
        {
          "internalType": "uint256",
          "name": "",
          "type": "uint256"
        }
      ],
      "stateMutability": "nonpayable",
      "type": "function"
    },
    {
      "inputs": [],
      "name": "sunsetting",
      "outputs": [
        {
          "internalType": "bool",
          "name": "",
          "type": "bool"
        }
      ],
      "stateMutability": "view",
      "type": "function"
    },
    {
      "inputs": [
        {
          "internalType": "address",
          "name": "",
          "type": "address"
        }
      ],
      "name": "surplusBalances",
      "outputs": [
        {
          "internalType": "uint256",
          "name": "",
          "type": "uint256"
        }
      ],
      "stateMutability": "view",
      "type": "function"
    },
    {
      "inputs": [],
      "name": "systemDeploymentTime",
      "outputs": [
        {
          "internalType": "uint256",
          "name": "",
          "type": "uint256"
        }
      ],
      "stateMutability": "view",
      "type": "function"
    },
    {
      "inputs": [],
      "name": "totalCollateralSnapshot",
      "outputs": [
        {
          "internalType": "uint256",
          "name": "",
          "type": "uint256"
        }
      ],
      "stateMutability": "view",
      "type": "function"
    },
    {
      "inputs": [],
      "name": "totalStakes",
      "outputs": [
        {
          "internalType": "uint256",
          "name": "",
          "type": "uint256"
        }
      ],
      "stateMutability": "view",
      "type": "function"
    },
    {
      "inputs": [],
      "name": "totalStakesSnapshot",
      "outputs": [
        {
          "internalType": "uint256",
          "name": "",
          "type": "uint256"
        }
      ],
      "stateMutability": "view",
      "type": "function"
    },
    {
      "inputs": [],
      "name": "updateBalances",
      "outputs": [],
      "stateMutability": "nonpayable",
      "type": "function"
    },
    {
      "inputs": [
        {
          "internalType": "bool",
          "name": "_isRecoveryMode",
          "type": "bool"
        },
        {
          "internalType": "bool",
          "name": "_isDebtIncrease",
          "type": "bool"
        },
        {
          "internalType": "uint256",
          "name": "_debtChange",
          "type": "uint256"
        },
        {
          "internalType": "uint256",
          "name": "_netDebtChange",
          "type": "uint256"
        },
        {
          "internalType": "bool",
          "name": "_isCollIncrease",
          "type": "bool"
        },
        {
          "internalType": "uint256",
          "name": "_collChange",
          "type": "uint256"
        },
        {
          "internalType": "address",
          "name": "_upperHint",
          "type": "address"
        },
        {
          "internalType": "address",
          "name": "_lowerHint",
          "type": "address"
        },
        {
          "internalType": "address",
          "name": "_borrower",
          "type": "address"
        },
        {
          "internalType": "address",
          "name": "_receiver",
          "type": "address"
        }
      ],
      "name": "updateTroveFromAdjustment",
      "outputs": [
        {
          "internalType": "uint256",
          "name": "",
          "type": "uint256"
        },
        {
          "internalType": "uint256",
          "name": "",
          "type": "uint256"
        },
        {
          "internalType": "uint256",
          "name": "",
          "type": "uint256"
        }
      ],
      "stateMutability": "nonpayable",
      "type": "function"
    },
    {
      "inputs": [],
      "name": "vault",
      "outputs": [
        {
          "internalType": "contract IVineVault",
          "name": "",
          "type": "address"
        }
      ],
      "stateMutability": "view",
      "type": "function"
    },
    {
      "inputs": [
        {
          "internalType": "address",
          "name": "claimant",
          "type": "address"
        },
        {
          "internalType": "address",
          "name": "",
          "type": "address"
        }
      ],
      "name": "vaultClaimReward",
      "outputs": [
        {
          "internalType": "uint256",
          "name": "",
          "type": "uint256"
        }
      ],
      "stateMutability": "nonpayable",
      "type": "function"
    }
  ],
  "bytecode": "0x6101806040523480156200001257600080fd5b50604051620060ec380380620060ec8339810160408190526200003591620000fd565b60808190526001600160a01b03871660a0819052604080516378e9792560e01b815290518992916378e979259160048083019260209291908290030181865afa15801562000087573d6000803e3d6000fd5b505050506040513d601f19601f82011682018060405250810190620000ad919062000189565b60c05250506001600160a01b03948516610120529284166101405290831660e052821661016052166101005250620001a3565b80516001600160a01b0381168114620000f857600080fd5b919050565b600080600080600080600060e0888a0312156200011957600080fd5b6200012488620000e0565b96506200013460208901620000e0565b95506200014460408901620000e0565b94506200015460608901620000e0565b93506200016460808901620000e0565b92506200017460a08901620000e0565b915060c0880151905092959891949750929550565b6000602082840312156200019c57600080fd5b5051919050565b60805160a05160c05160e05161010051610120516101405161016051615dfc620002f060003960008181610c7c015281816117d501528181612d960152818161328c01528181614fc70152615110015260008181610c5501528181611b82015281816124bf01528181612979015281816131cf01528181613f3201528181613fb80152614dce0152600081816131fc0152614dfb01526000818161057001526134db015260008181610a00015281816123bc0152818161330d0152614387015260008181610cec01528181611e2701528181614f240152614f6c01526000818161086501528181610d6101528181610e61015281816113c7015281816116f6015281816119de01528181611bb101528181611cd001528181611e6c015261286d0152600081816106e50152818161425d015281816142da015281816143190152614ebc0152615dfc6000f3fe608060405234801561001057600080fd5b50600436106104b95760003560e01c806301c799fc146104be5780630b076557146104e65780630f8490df146105075780630fdb11cf1461050f5780631289fefb146105255780631673c79a1461052f57806316c38b3c146105585780631ef3a04c1461056b5780631f68f20a1461059f57806320d17d7b146105a857806321e37801146105b157806325019ee9146105c4578063292527b0146105d75780632b11551a1461060a5780632b2b2bac146106125780632d587e10146106255780632f5c83a81461062e57806331c7a2611461063757806333d53b591461064057806334ba3c7114610649578063363bf9641461065c5780634056d9fc1461066f578063452a9320146106785780634763637114610680578063477d66cf146106b35780634820fe56146106c65780634870dd9a146106ce57806349eefeee146106d65780634ba4a28b146106e05780634cb653b7146107075780635733d58f1461071a5780635a1c03ec146107295780635bbe8aad146107315780635c975abb14610744578063631203b01461075657806364cee2601461076957806366ca4a211461077c5780636f3fe40414610784578063720fbe2c1461078c578063741bef1a1461079557806376e11286146107a8578063789c6b93146107bb578063794e5724146107ce578063795d26c3146107d75780637a83a34e146107df5780637b0a47ee146107e75780637c3a00fd146108125780637e95d6641461081b578063807d138d146108245780638140d0771461082d5780638235b2841461084d57806382d61d161461086057806386d6f8ab14610887578063874d6d811461089a578063887105d3146108a25780638ae10c9e146108aa5780638bbb1de8146108bd5780638da5cb5b146108c65780638e415ea8146108ce57806391245f9f146108e15780639484fb8e146108ea57806396660b18146108f757806396d711ff146109005780639ed7254214610909578063a20baee614610912578063a5713dcd14610921578063ae91875414610941578063b0d8e18114610954578063b2016bd414610967578063b2f29d7b1461097a578063b4997a1f1461098d578063b49c6f8214610996578063b7f8cf9b146109fb578063b91af97c14610a22578063bc006c3814610a45578063bcd3752614610a4e578063bd28c0f414610a61578063be2c377b14610a81578063bf9befb114610a8a578063c046371114610a93578063c35bc55014610abf578063c52861f214610ac9578063c9a4cbf114610ad1578063ce1f332c14610ae4578063d128080c14610aed578063d12ae84114610af5578063d279c19114610b08578063d293c71014610b1b578063d30612e114610b2e578063d380a37c14610b36578063d38b055814610b3f578063d5b3563514610b48578063d9a7244414610b5b578063e0b7a2d814610b6e578063e2ac77b014610b81578063e47cf0c314610b94578063e9186c9414610b9d578063e950342514610bb0578063ea23a27a14610bc3578063eb3007fd14610bd6578063ebe2b12b14610be9578063ec38a05d14610c00578063f058203814610c22578063f36b242514610c35578063f67a17de14610c3d578063f8d8989814610c50578063fbfa77cf14610c77575b600080fd5b6104c6610c9e565b604080519384526020840192909252908201526060015b60405180910390f35b6104f96104f4366004615425565b610cc6565b6040516104dd929190615442565b6104f9610ce3565b610517610d4d565b6040519081526020016104dd565b61052d610e5f565b005b6104f961053d366004615425565b62020025602052600090815260409020805460019091015482565b61052d61056636600461545e565b610f74565b6105927f000000000000000000000000000000000000000000000000000000000000000081565b6040516104dd919061547b565b61051760115481565b610517601e5481565b6105176105bf366004615425565b611011565b61052d6105d2366004615425565b61109b565b6105fa6105e5366004615425565b60236020526000908152604090205460ff1681565b60405190151581526020016104dd565b6105176110e3565b6104f9610620366004615425565b6110f5565b610517600e5481565b610517600b5481565b61051760095481565b61051760165481565b61052d61065736600461548f565b61115d565b61052d61066a3660046154e4565b61134c565b610517600a5481565b6105926113c3565b6004546106989061ffff808216916201000090041682565b6040805161ffff9384168152929091166020830152016104dd565b6105176106c136600461552f565b611447565b601a54610517565b61051760c881565b6202002654610517565b6105177f000000000000000000000000000000000000000000000000000000000000000081565b6104f9610715366004615548565b611460565b6105176718fae27693b4000081565b6105176116e2565b6105fa61073f3660046155c3565b6117c8565b6010546105fa90610100900460ff1681565b61051761076436600461552f565b61193a565b610517610777366004615425565b611947565b6105176119b8565b61052d6119ca565b610517600f5481565b600054610592906001600160a01b031681565b61052d6107b6366004615637565b6119dc565b61052d6107c9366004615670565b611abc565b61051760055481565b610517611af7565b61052d611b4b565b6020546107fa906001600160801b031681565b6040516001600160801b0390911681526020016104dd565b610517600c5481565b61051760075481565b61051760145481565b61051761083b366004615425565b60216020526000908152604090205481565b61052d61085b366004615425565b611c89565b6105927f000000000000000000000000000000000000000000000000000000000000000081565b61052d61089536600461577d565b611cce565b610517611e1c565b610517611e56565b600254610592906001600160a01b031681565b610517600d5481565b610592611e68565b6104c66108dc36600461583e565b611ec8565b61051760085481565b6010546105fa9060ff1681565b610517601c5481565b61051760155481565b61051760195481565b610517670de0b6b3a764000081565b61093461092f36600461552f565b6120bf565b6040516104dd91906158f3565b600354610592906001600160a01b031681565b610517610962366004615425565b61213e565b600154610592906001600160a01b031681565b61051761098836600461552f565b6121b3565b610517601f5481565b6109d46109a4366004615425565b620200226020526000908152604090205463ffffffff80821691600160201b8104821691600160401b9091041683565b6040805163ffffffff948516815292841660208401529216918101919091526060016104dd565b6105927f000000000000000000000000000000000000000000000000000000000000000081565b610a35610a30366004615425565b6121db565b6040516104dd949392919061592a565b61051760065481565b61052d610a5c366004615945565b6122b5565b610a74610a6f366004615425565b612a19565b6040516104dd91906159c9565b610517601d5481565b61051760135481565b602054610aaa90600160801b900463ffffffff1681565b60405163ffffffff90911681526020016104dd565b6105176212750081565b610517612b0f565b61052d610adf366004615a35565b612b21565b61051761019081565b610517612bb7565b6104f9610b03366004615425565b612bfb565b610517610b16366004615425565b612d6b565b610517610b29366004615670565b612e5a565b610517612ee3565b61051760125481565b61051760185481565b610517610b5636600461552f565b612f17565b610592610b6936600461552f565b612f2a565b610517610b7c36600461552f565b612f5c565b6105fa610b8f366004615425565b612f74565b61051760175481565b61052d610bab366004615a7b565b612fdb565b610517610bbe366004615425565b612ff7565b61052d610bd1366004615ab0565b61312f565b61052d610be4366004615afc565b61326d565b602054610aaa90600160a01b900463ffffffff1681565b610517610c0e366004615425565b620200246020526000908152604090205481565b610517610c30366004615637565b61327f565b6105176132c6565b610517610c4b366004615425565b6132d3565b6105927f000000000000000000000000000000000000000000000000000000000000000081565b6105927f000000000000000000000000000000000000000000000000000000000000000081565b6000806000610cab611e56565b610cb3611af7565b610cbb610d4d565b925092509250909192565b600080610cd1613302565b610cda8361335f565b91509150915091565b60008080610d117f000000000000000000000000000000000000000000000000000000000000000042615b34565b90506000610d2262093a8083615b5d565b9050600062015180610d3762093a8085615b71565b610d419190615b5d565b91959194509092505050565b600080546001600160a01b031680610de4577f00000000000000000000000000000000000000000000000000000000000000006001600160a01b031663741bef1a6040518163ffffffff1660e01b8152600401602060405180830381865afa158015610dbd573d6000803e3d6000fd5b505050506040513d601f19601f82011682018060405250810190610de19190615b85565b90505b600154604051635670bcc760e11b81526001600160a01b038381169263ace1798e92610e16929091169060040161547b565b6020604051808303816000875af1158015610e35573d6000803e3d6000fd5b505050506040513d601f19601f82011682018060405250810190610e599190615ba2565b91505090565b7f00000000000000000000000000000000000000000000000000000000000000006001600160a01b0316638da5cb5b6040518163ffffffff1660e01b8152600401602060405180830381865afa158015610ebd573d6000803e3d6000fd5b505050506040513d601f19601f82011682018060405250810190610ee19190615b85565b6001600160a01b0316336001600160a01b031614610f1a5760405162461bcd60e51b8152600401610f1190615bbb565b60405180910390fd5b6010805460ff19166001179055610f2f61346c565b50610f406301e13380612710615bdf565b610f57676765c793fa10079d601b1b611388615bdf565b610f619190615b5d565b600c5542600e5560006007819055600b55565b808015610f995750610f846113c3565b6001600160a01b0316336001600160a01b0316145b80610fbc5750610fa7611e68565b6001600160a01b0316336001600160a01b0316145b610ff75760405162461bcd60e51b815260206004820152600c60248201526b155b985d5d1a1bdc9a5e995960a21b6044820152606401610f11565b601080549115156101000261ff0019909216919091179055565b600081336001600160a01b038216148061103a57503360009081526023602052604090205460ff165b8061104457503330145b6110605760405162461bcd60e51b8152600401610f1190615bf6565b6001600160a01b038316600090815262020023602052604090206003015460ff166004811115611092576110926159b3565b91505b50919050565b6110a36134d0565b6001600160a01b03811660009081526202002360205260409020546110c782613505565b6110d2826003613554565b6110df8282601f54613800565b5050565b60006110f0601154613896565b905090565b60008082336001600160a01b038216148061111f57503360009081526023602052604090205460ff165b8061112957503330145b6111455760405162461bcd60e51b8152600401610f1190615bf6565b61114e846121db565b50909450909250505b50915091565b60105460ff16156111805760405162461bcd60e51b8152600401610f1190615c12565b6718fae27693b4000081111580156111a057506714d1120d7b1600008110155b6111d25760405162461bcd60e51b815260206004820152600360248201526226a1a960e91b6044820152606401610f11565b60065415611227576111e2611e68565b6001600160a01b0316336001600160a01b0316146112275760405162461bcd60e51b81526020600482015260026024820152614f4f60f01b6044820152606401610f11565b670d8f91d067414d8888101580156112475750670de07829b2adec288811155b61125057600080fd5b8587111580156112685750670de0b6b3a76400008611155b61127157600080fd5b8385111580156112895750670de0b6b3a76400008411155b61129257600080fd5b61129a6138b1565b506006889055600787905560088690556009859055600a849055600b8290556101908311156112f05760405162461bcd60e51b8152602060048201526002602482015261494d60f01b6044820152606401610f11565b60006113026301e13380612710615bdf565b61131785676765c793fa10079d601b1b615bdf565b6113219190615b5d565b9050600c54811461133f5761133461346c565b5042600e55600c8190555b5060055550505050505050565b6003546001600160a01b03161561136257600080fd5b600080546001600160a01b039485166001600160a01b03199182161790915560038054938516938216939093179092556001805491909316911617905542600f8190556010805460ff19169055676765c793fa10079d601b1b600d55600e55565b60007f00000000000000000000000000000000000000000000000000000000000000006001600160a01b031663452a93206040518163ffffffff1660e01b8152600401602060405180830381865afa158015611423573d6000803e3d6000fd5b505050506040513d601f19601f820116820180604052508101906110f09190615b85565b600061145a6114546119b8565b836138f2565b92915050565b6010546000908190610100900460ff16156114a25760405162461bcd60e51b8152602060048201526002602482015261043560f41b6044820152606401610f11565b6114aa613302565b60105460ff16156114ba57600080fd5b601b546001600160a01b038a16600090815262020023602052604090206001600382015460ff1660048111156114f2576114f26159b3565b036115245760405162461bcd60e51b8152602060048201526002602482015261544160f01b6044820152606401610f11565b60038101805460ff1916600190811790915581018a9055888155600061154861346c565b60048301819055905061155a8c613911565b6115638261398d565b6003546040516346f7cf8760e01b81529196506001600160a01b0316906346f7cf879061159a908f908d908d908d90600401615c2e565b600060405180830381600087803b1580156115b457600080fd5b505af11580156115c8573d6000803e3d6000fd5b50505050620200268c9080600181540180825580915050600190039060005260206000200160009091909190916101000a8154816001600160a01b0302191690836001600160a01b031602179055506001620200268054905061162b9190615b34565b600383018054610100600160881b0319166101006001600160801b03841602179055935061165b8c6000856139d4565b8561166a5761166a8c8b6139ec565b8a601a546116789190615c59565b601a5560006116878b85615c59565b9050600b54601e548261169a9190615c59565b11156116cd5760405162461bcd60e51b815260206004820152600260248201526121a960f11b6044820152606401610f11565b601b5550929a91995090975050505050505050565b600080546001600160a01b031680611779577f00000000000000000000000000000000000000000000000000000000000000006001600160a01b031663741bef1a6040518163ffffffff1660e01b8152600401602060405180830381865afa158015611752573d6000803e3d6000fd5b505050506040513d601f19601f820116820180604052508101906117769190615b85565b90505b600154604051633445bf3560e21b81526001600160a01b038381169263d116fcd4926117ab929091169060040161547b565b602060405180830381865afa158015610e35573d6000803e3d6000fd5b6000336001600160a01b037f000000000000000000000000000000000000000000000000000000000000000016146117ff57600080fd5b60045461ffff16156118385760405162461bcd60e51b8152602060048201526002602482015261414160f01b6044820152606401610f11565b816002811461186e5760405162461bcd60e51b8152602060048201526002602482015261494360f01b6044820152606401610f11565b60405180604001604052808585600081811061188c5761188c615c6c565b9050602002013561ffff168152602001858560018181106118af576118af615c6c565b61ffff6020918202939093013583169093525082516004805494909301518216620100000263ffffffff199094169116179190911790556118f362093a8042615b5d565b6118fe906001615c59565b61190b9062093a80615bdf565b6020805463ffffffff92909216600160a01b0263ffffffff60a01b199092169190911790555060019392505050565b600061145a6114546132c6565b600081336001600160a01b038216148061197057503360009081526023602052604090205460ff165b8061197a57503330145b6119965760405162461bcd60e51b8152600401610f1190615bf6565b50506001600160a01b0316600090815262020023602052604090206002015490565b60006110f06119c5613c9a565b613cea565b6119d26134d0565b6119da613d05565b565b7f00000000000000000000000000000000000000000000000000000000000000006001600160a01b0316638da5cb5b6040518163ffffffff1660e01b8152600401602060405180830381865afa158015611a3a573d6000803e3d6000fd5b505050506040513d601f19601f82011682018060405250810190611a5e9190615b85565b6001600160a01b0316336001600160a01b031614611a8e5760405162461bcd60e51b8152600401610f1190615bbb565b600080546001600160a01b039384166001600160a01b03199182161790915560028054929093169116179055565b611ac46134d0565b6001600160a01b038216600090815262020024602052604081208054839290611aee908490615c59565b90915550505050565b601b5460009081611b06613d1c565b9150508015611b37576000611b278383676765c793fa10079d601b1b613d89565b9050611b338184615c59565b9250505b601e54611b449083615c59565b9250505090565b601c5480611b805760405162461bcd60e51b81526020600482015260026024820152614e4360f01b6044820152606401610f11565b7f00000000000000000000000000000000000000000000000000000000000000006001600160a01b03166340c10f197f00000000000000000000000000000000000000000000000000000000000000006001600160a01b031663b3f006746040518163ffffffff1660e01b8152600401602060405180830381865afa158015611c0d573d6000803e3d6000fd5b505050506040513d601f19601f82011682018060405250810190611c319190615b85565b836040518363ffffffff1660e01b8152600401611c4f929190615c82565b600060405180830381600087803b158015611c6957600080fd5b505af1158015611c7d573d6000803e3d6000fd5b50506000601c55505050565b33600090815262020024602052604090205480611ca557600080fd5b3360009081526202002460205260408120556001546110df906001600160a01b03168383613e4d565b7f00000000000000000000000000000000000000000000000000000000000000006001600160a01b0316638da5cb5b6040518163ffffffff1660e01b8152600401602060405180830381865afa158015611d2c573d6000803e3d6000fd5b505050506040513d601f19601f82011682018060405250810190611d509190615b85565b6001600160a01b0316336001600160a01b031614611d805760405162461bcd60e51b8152600401610f1190615bbb565b8051825114611d8e57600080fd5b60005b82518160ff161015611e1757818160ff1681518110611db257611db2615c6c565b602002602001015160236000858460ff1681518110611dd357611dd3615c6c565b6020908102919091018101516001600160a01b03168252810191909152604001600020805460ff191691151591909117905580611e0f81615c9b565b915050611d91565b505050565b600062093a80611e4c7f000000000000000000000000000000000000000000000000000000000000000042615b34565b6110f09190615b5d565b6000601d54601a546110f09190615c59565b60007f00000000000000000000000000000000000000000000000000000000000000006001600160a01b0316638da5cb5b6040518163ffffffff1660e01b8152600401602060405180830381865afa158015611423573d6000803e3d6000fd5b6000806000611ed5613302565b8880611ede57508b5b15611f1b57601054610100900460ff1615611ef857600080fd5b60105460ff1615611f1b5760405162461bcd60e51b8152600401610f1190615c12565b6001600160a01b038516600090815262020023602052604090206001600382015460ff166004811115611f5057611f506159b3565b14611f6d5760405162461bcd60e51b8152600401610f1190615cba565b80548c15611fc0578d15611fa657611f858c82615c59565b90508e611f9657611f96878d6139ec565b611fa1868d8f613ea5565b611fbc565b611fb08c82615b34565b9050611fbc868e613fa1565b8082555b60018201548a15612011578b15611ff357611fdb8b82615c59565b90508a601a54611feb9190615c59565b601a55612009565b611ffd8b82615b34565b9050612009878c614036565b600183018190555b600061201d828461409e565b9050600360009054906101000a90046001600160a01b03166001600160a01b0316632be212608a838e8e6040518563ffffffff1660e01b81526004016120669493929190615c2e565b600060405180830381600087803b15801561208057600080fd5b505af1158015612094573d6000803e3d6000fd5b5050505060006120a38561398d565b9297509295509093505050509a509a509a975050505050505050565b6120c76153ab565b620100238261ffff81106120dd576120dd615c6c565b6040805160e0810191829052929190910190600790826000855b82829054906101000a900463ffffffff1663ffffffff16815260200190600401906020826003010492830192600103820291508084116120f7575094979650505050505050565b600081336001600160a01b038216148061216757503360009081526023602052604090205460ff165b8061217157503330145b61218d5760405162461bcd60e51b8152600401610f1190615bf6565b600080612199856110f5565b9150915060006121a9838361409e565b9695505050505050565b60006121bd613302565b60006121c76138b1565b90506110926121d582613cea565b846138f2565b600080808084336001600160a01b038216148061220757503360009081526023602052604090205460ff165b8061221157503330145b61222d5760405162461bcd60e51b8152600401610f1190615bf6565b6001600160a01b0386166000908152620200236020526040902080546001820154909650945061225c87612bfb565b60048301549095509093508015612293576000612277613d1c565b50905081612285828a615bdf565b61228f9190615b5d565b9750505b61229d8588615c59565b96506122a98487615c59565b95505050509193509193565b6000600360009054906101000a90046001600160a01b0316905061231760405180610100016040528060008152602001600081526020016000815260200160008152602001600081526020016000815260200160008152602001600081525090565b600754831015801561232b57506008548311155b61235c5760405162461bcd60e51b815260206004820152600260248201526126a360f11b6044820152606401610f11565b62127500600f5461236d9190615c59565b4210156123a15760405162461bcd60e51b8152602060048201526002602482015261042560f41b6044820152606401610f11565b6123a9610d4d565b8160c001818152505060006005549050807f00000000000000000000000000000000000000000000000000000000000000006001600160a01b031663b620115d6040518163ffffffff1660e01b81526004016020604051808303816000875af115801561241a573d6000803e3d6000fd5b505050506040513d601f19601f8201168201806040525081019061243e9190615ba2565b10156124715760405162461bcd60e51b8152602060048201526002602482015261434d60f01b6044820152606401610f11565b60008a116124a65760405162461bcd60e51b815260206004820152600260248201526120bd60f11b6044820152606401610f11565b6040516370a0823160e01b81528a906001600160a01b037f000000000000000000000000000000000000000000000000000000000000000016906370a08231906124f490339060040161547b565b602060405180830381865afa158015612511573d6000803e3d6000fd5b505050506040513d601f19601f820116820180604052508101906125359190615ba2565b10156125685760405162461bcd60e51b815260206004820152600260248201526124a160f11b6044820152606401610f11565b612570613d05565b612578611af7565b60e083015289825260c08201516000906125969085908c90856140d4565b156125a25750886126a4565b836001600160a01b0316634d6228316040518163ffffffff1660e01b8152600401602060405180830381865afa1580156125e0573d6000803e3d6000fd5b505050506040513d601f19601f820116820180604052508101906126049190615b85565b90505b6001600160a01b0381161580159061262b575081612629828560c00151612e5a565b105b156126a457604051632dc9c0eb60e21b81526001600160a01b0385169063b72703ac9061265c90849060040161547b565b602060405180830381865afa158015612679573d6000803e3d6000fd5b505050506040513d601f19601f8201168201806040525081019061269d9190615b85565b9050612607565b856000036126b25760001995505b6001600160a01b038116158015906126ca5750825115155b80156126d65750600086115b156127d957856126e581615cd6565b9650506000846001600160a01b031663b72703ac836040518263ffffffff1660e01b8152600401612716919061547b565b602060405180830381865afa158015612733573d6000803e3d6000fd5b505050506040513d601f19601f820116820180604052508101906127579190615b85565b90506127628261335f565b5050600061277d868487600001518860c001518f8f8f61420f565b90508060400151156127905750506127d9565b805160208601516127a19190615c59565b60208087019190915281015160408601516127bc9190615c59565b6040860152805185516127cf9190615b34565b85525090506126b2565b60008360400151116128125760405162461bcd60e51b8152602060048201526002602482015261554160f01b6044820152606401610f11565b61282983604001518460c001518560e001516144b2565b5060105460ff1661284e5761284961283f6110e3565b8460400151614534565b612851565b60005b606084018190526040840151612868919087614562565b6128f77f00000000000000000000000000000000000000000000000000000000000000006001600160a01b031663b3f006746040518163ffffffff1660e01b8152600401602060405180830381865afa1580156128c9573d6000803e3d6000fd5b505050506040513d601f19601f820116820180604052508101906128ed9190615b85565b8460600151614036565b8260600151836040015161290b9190615b34565b8360800181815250507f43a3f4082a4dbc33d78e317d2497d3a730bc7fc3574159dcea1056e62e5d9ad88b846020015185604001518660600151604051612955949392919061592a565b60405180910390a16020830151604051632770a7eb60e21b81526001600160a01b037f00000000000000000000000000000000000000000000000000000000000000001691639dc29fac916129ae913391600401615c82565b600060405180830381600087803b1580156129c857600080fd5b505af11580156129dc573d6000803e3d6000fd5b5050506020840151601b546129f19250615b34565b601b556080830151612a04903390614036565b612a0c6145d3565b5050505050505050505050565b612a216153c9565b81336001600160a01b0382161480612a4857503360009081526023602052604090205460ff165b80612a5257503330145b612a6e5760405162461bcd60e51b8152600401610f1190615bf6565b6001600160a01b0383166000908152620200236020908152604091829020825160c081018452815481526001820154928101929092526002810154928201929092526003820154909190606083019060ff166004811115612ad157612ad16159b3565b6004811115612ae257612ae26159b3565b8152600382015461010090046001600160801b031660208201526004909101546040909101529392505050565b60006110f0612b1c613c9a565b613896565b612b29613302565b60016001600160a01b038516600090815262020023602052604090206003015460ff166004811115612b5d57612b5d6159b3565b14612b7a5760405162461bcd60e51b8152600401610f1190615cba565b612b8384613505565b612b8e846002613554565b80601b54612b9c9190615b34565b601b55612ba98383614036565b612bb16145d3565b50505050565b601b5460009081612bc6613d1c565b9150508015611095576000612be78383676765c793fa10079d601b1b613d89565b9050612bf38184615c59565b949350505050565b60008082336001600160a01b0382161480612c2557503360009081526023602052604090205460ff165b80612c2f57503330145b612c4b5760405162461bcd60e51b8152600401610f1190615bf6565b6001600160a01b038416600090815262020025602090815260408083208151808301909252805480835260019091015492820192909252601654909291612c9191615b34565b905060008260200151601754612ca79190615b34565b9050612cb38183615c59565b1580612cf1575060016001600160a01b038816600090815262020023602052604090206003015460ff166004811115612cee57612cee6159b3565b14155b15612d055760008095509550505050611157565b6001600160a01b0387166000908152620200236020526040902060020154670de0b6b3a7640000612d368483615bdf565b612d409190615b5d565b670de0b6b3a7640000612d538484615bdf565b612d5d9190615b5d565b965096505050505050915091565b600080612d773361462b565b90508015612e14576040516335e97f1f60e11b81526001600160a01b037f00000000000000000000000000000000000000000000000000000000000000001690636bd2fe3e90612dcf90339087908690600401615ced565b6020604051808303816000875af1158015612dee573d6000803e3d6000fd5b505050506040513d601f19601f82011682018060405250810190612e129190615d11565b505b6040518181526001600160a01b0384169033907f0aa4d283470c904c551d18bb894d37e17674920f3261a7f854be501e25f421b79060200160405180910390a392915050565b6000806000612e68856110f5565b9092509050336001600160a01b0386161480612e9357503360009081526023602052604090205460ff165b80612e9d57503330145b15612eba576000612eaf838387614819565b935061145a92505050565b6000612ec46116e2565b90506000612ed3848484614819565b90506005548110612eaf57600080fd5b612ef36301e13380612710615bdf565b612f0a676765c793fa10079d601b1b611388615bdf565b612f149190615b5d565b81565b600061145a612f24612b0f565b83614534565b6000620200268281548110612f4157612f41615c6c565b6000918252602090912001546001600160a01b031692915050565b60248161ffff8110612f6d57600080fd5b0154905081565b600060016001600160a01b038316600090815262020023602052604090206003015460ff166004811115612faa57612faa6159b3565b14612fb757506000919050565b506016546001600160a01b0390911660009081526202002560205260409020541090565b612fe36134d0565b612fed8383613fa1565b611e178382614036565b6001600160a01b03811660009081526022602090815260408220549054600160a01b900463ffffffff164281111561302c5750425b60205460009061304990600160801b900463ffffffff1683615b34565b601f5490915081156130a157601b54801561309f576020548190613076906001600160801b031685615bdf565b61308890670de0b6b3a7640000615bdf565b6130929190615b5d565b61309c9083615c59565b91505b505b6001600160a01b0386166000908152602160205260409020548082111561311157670de0b6b3a76400006130d58284615b34565b6001600160a01b03891660009081526202002360205260409020546130fa9190615bdf565b6131049190615b5d565b61310e9086615c59565b94505b61311a8761484a565b6131249086615c59565b979650505050505050565b6131376134d0565b613141858561496c565b601a54831561315c576131548482615b34565b601a81905590505b601354601455601d5461316f8383615b34565b6131799190615c59565b60158190556014546040517f51bf4c63ec3cba9d03d43238abbdd979dd91bd16d9895c74ceea9118c7baaf60926131b09291615442565b60405180910390a1604051631062c15f60e11b81526001600160a01b037f000000000000000000000000000000000000000000000000000000000000000016906320c582be90613228907f0000000000000000000000000000000000000000000000000000000000000000908b908890600401615ced565b600060405180830381600087803b15801561324257600080fd5b505af1158015613256573d6000803e3d6000fd5b505050506132648783614036565b50505050505050565b6132756134d0565b6110df8282614ae6565b6000336001600160a01b037f000000000000000000000000000000000000000000000000000000000000000016146132b657600080fd5b6132bf8361462b565b9392505050565b60006110f0601154613cea565b6000806132df8361462b565b6001600160a01b0390931660009081526022602052604090208390555090919050565b336001600160a01b037f000000000000000000000000000000000000000000000000000000000000000016146119da5760405162461bcd60e51b815260206004820152600260248201526121a160f11b6044820152606401610f11565b6001600160a01b0381166000908152620200236020526040812081906001600382015460ff166004811115613396576133966159b3565b03611157576004810154601b5460006133ad61346c565b8454600186015497509550905084818410156133e257836133ce8388615bdf565b6133d89190615b5d565b6004860183905595505b6016546001600160a01b0389166000908152620200256020526040902054101561344c576000806134128a612bfb565b9092509050613421828a615c59565b6001880181905598506134348189615c59565b975061343f8a613911565b6134498183614ae6565b50505b858114613457578585555b6134628882856139d4565b5050505050915091565b6000806000613479613d1c565b9092509050801561109557601b54600061349f8284676765c793fa10079d601b1b613d89565b90506134ab8183615c59565b601b55601c546134bc908290615c59565b601c555050600d82905542600e5550919050565b336001600160a01b037f000000000000000000000000000000000000000000000000000000000000000016146119da57600080fd5b6001600160a01b0381166000908152620200236020526040902060020154601354613531908290615b34565b601355506001600160a01b03166000908152620200236020526040812060020155565b62020026546001600160a01b0383166000908152620200236020526040902060038101805484919060ff19166001836004811115613594576135946159b3565b021790555060006001808301829055818355600483018290556003546001600160a01b038781168452620200256020526040842084815583019390935591909116908311801561364557506001816001600160a01b031663de8fa4316040518163ffffffff1660e01b8152600401602060405180830381865afa15801561361f573d6000803e3d6000fd5b505050506040513d601f19601f820116820180604052508101906136439190615ba2565b115b1561375357600382015461010090046001600160801b031660006202002661366e600187615b34565b8154811061367e5761367e615c6c565b6000918252602090912001546202002680546001600160a01b03909216925082916001600160801b0385169081106136b8576136b8615c6c565b600091825260208083209190910180546001600160a01b0319166001600160a01b039485161790559183168082526202002383526040918290206003018054610100600160881b0319166101006001600160801b038816908102919091179091558251918252928101929092527f02b04ae5f7be9ca7c103293a2aa15f3c339d15d6eda53b721fef7b0e609c831a910160405180910390a150505b6202002680548061376657613766615d2e565b600082815260209020810160001990810180546001600160a01b0319169055019055604051631484968760e11b81526001600160a01b038216906329092d0e906137b490889060040161547b565b600060405180830381600087803b1580156137ce57600080fd5b505af11580156137e2573d6000803e3d6000fd5b50505060039092018054610100600160881b03191690555050505050565b6001600160a01b03831660009081526021602052604090205480821115612bb157670de0b6b3a76400006138348284615b34565b61383e9085615bdf565b6138489190615b5d565b6001600160a01b03851660009081526022602052604081208054909190613870908490615c59565b90915550506001600160a01b038416600090815260216020526040902082905550505050565b600061145a826007546138a99190615c59565b600854614b43565b6000806138bc613c9a565b6011819055604051818152909150600080516020615da78339815191529060200160405180910390a16138ed614b59565b919050565b6000670de0b6b3a76400006139078385615bdf565b6132bf9190615b5d565b60165460175460408051808201825283815260208082018481526001600160a01b038716600090815262020025909252908390209151825551600190910155517fc437f324d85e369394148dd9d62f98f534b382e01ed3dd2eb98138fb6d3ab49a906139809084908490615442565b60405180910390a1505050565b60008061399d8360010154614baf565b600284018054908290556013549192509060009083906139be908490615b34565b6139c89190615c59565b60135550909392505050565b60006139df82614bf6565b9050612bb1848483613800565b6000613a0168056bc75e2d6310000083615b5d565b9050600080613a0e610ce3565b9150915082620100238361ffff8110613a2957613a29615c6c565b018260078110613a3b57613a3b615c6c565b600891828204019190066004028282829054906101000a900463ffffffff16613a649190615d44565b82546101009290920a63ffffffff8181021990931691831602179091556001600160a01b0387166000908152620200226020908152604091829020825160608101845290548085168252600160201b8104851692820192909252600160401b90910490921690820181905290915082148015613ae9575082816020015163ffffffff16145b15613b32578051613afb908590615d44565b6001600160a01b03871660009081526202002260205260409020805463ffffffff191663ffffffff92909216919091179055613c92565b805163ffffffff1615613c1257600062010023826020015163ffffffff1661ffff8110613b6157613b61615c6c565b01826040015163ffffffff1660078110613b7d57613b7d615c6c565b600891828204019190066004029054906101000a900463ffffffff1663ffffffff16826000015163ffffffff166024846020015163ffffffff1661ffff8110613bc857613bc8615c6c565b0154613bd49190615bdf565b613bde9190615b5d565b6001600160a01b038816600090815260226020526040812080549293508392909190613c0b908490615c59565b9091555050505b6040805160608101825263ffffffff808716825285811660208084019182528683168486019081526001600160a01b038c1660009081526202002290925294902092518354915194518316600160401b0263ffffffff60401b19958416600160201b026001600160401b0319909316919093161717929092169190911790555b505050505050565b600080603c60125442613cad9190615b34565b613cb79190615b5d565b90506000613cc760065483614cb2565b9050670de0b6b3a764000081601154613ce09190615bdf565b611b449190615b5d565b600061145a82600954613cfd9190615c59565b600a54614b43565b613d10601b54614bf6565b50613d1961346c565b50565b600e546000908190428103613d37575050600d549160009150565b600c54600d5493508015613d83576000613d518342615b34565b9050613d5d8282615bdf565b9350613d758585676765c793fa10079d601b1b613d89565b613d7f9086615c59565b9450505b50509091565b6000838302816000198587098281108382030391505080600003613dc057838281613db657613db6615b47565b04925050506132bf565b808411613de05760405163227bc15360e01b815260040160405180910390fd5b6000848688096000868103871696879004966002600389028118808a02820302808a02820302808a02820302808a02820302808a02820302808a02909103029181900381900460010186841190950394909402919094039290920491909117919091029150509392505050565b611e1783846001600160a01b031663a9059cbb8585604051602401613e73929190615c82565b604051602081830303815290604052915060e01b6020820180516001600160e01b038381831617835250505050614d5d565b600082601b54613eb59190615c59565b9050600b54601e5482613ec89190615c59565b1115613f165760405162461bcd60e51b815260206004820152601d60248201527f436f6c6c61746572616c2064656274206c696d697420726561636865640000006044820152606401610f11565b601b8190556040516340c10f1960e01b81526001600160a01b037f000000000000000000000000000000000000000000000000000000000000000016906340c10f1990613f699087908690600401615c82565b600060405180830381600087803b158015613f8357600080fd5b505af1158015613f97573d6000803e3d6000fd5b5050505050505050565b604051632770a7eb60e21b81526001600160a01b037f00000000000000000000000000000000000000000000000000000000000000001690639dc29fac90613fef9085908590600401615c82565b600060405180830381600087803b15801561400957600080fd5b505af115801561401d573d6000803e3d6000fd5b5050505080601b5461402f9190615b34565b601b555050565b80156110df5780601a5461404a9190615b34565b601a556040517f342693d2465f6f44931e41128424a0227e0cbc69d1c3917a839e6de71696d44c9061407f9084908490615c82565b60405180910390a16001546110df906001600160a01b03168383613e4d565b600081156140cb57816140ba68056bc75e2d6310000085615bdf565b6140c49190615b5d565b905061145a565b5060001961145a565b60006001600160a01b03841615806141565750604051630bb7c8fd60e31b81526001600160a01b03861690635dbe47e89061411390879060040161547b565b602060405180830381865afa158015614130573d6000803e3d6000fd5b505050506040513d601f19601f820116820180604052508101906141549190615d11565b155b806141695750816141678585612e5a565b105b1561417657506000612bf3565b60405163765e015960e01b81526000906001600160a01b0387169063765e0159906141a590889060040161547b565b602060405180830381865afa1580156141c2573d6000803e3d6000fd5b505050506040513d601f19601f820116820180604052508101906141e69190615b85565b90506001600160a01b03811615806121a95750826142048286612e5a565b109695505050505050565b614235604051806060016040528060008152602001600081526020016000151581525090565b6001600160a01b038716600090815262020023602052604090208054614287908890614282907f000000000000000000000000000000000000000000000000000000000000000090615b34565b614b43565b808352869061429f90670de0b6b3a764000090615bdf565b6142a99190615b5d565b6020830152815181546000916142be91615b34565b90506000836020015183600101546142d69190615b34565b90507f00000000000000000000000000000000000000000000000000000000000000008203614343576143088a613505565b6143138a6004613554565b61433e8a7f000000000000000000000000000000000000000000000000000000000000000083614db7565b6144a4565b600061434f828461409e565b90506000818711614369576143648783615b34565b614373565b6143738288615b34565b90506601c6bf5263400081118061441257507f00000000000000000000000000000000000000000000000000000000000000006001600160a01b031663969c24526040518163ffffffff1660e01b8152600401602060405180830381865afa1580156143e3573d6000803e3d6000fd5b505050506040513d601f19601f820116820180604052508101906144079190615ba2565b61441085614eb5565b105b156144295750506001604085015250613124915050565b5060405163015f109360e51b81526001600160a01b038d1690632be212609061445c908e9085908d908d90600401615c2e565b600060405180830381600087803b15801561447657600080fd5b505af115801561448a573d6000803e3d6000fd5b50505083855550600184018290556144a18461398d565b50505b505050979650505050505050565b6000806144bd613c9a565b90506000836144cc8688615bdf565b6144d69190615b5d565b905060006144e5600283615b5d565b6144ef9084615c59565b905061450381670de0b6b3a7640000614b43565b6011819055604051818152909150600080516020615da78339815191529060200160405180910390a16121a9614b59565b600080670de0b6b3a764000061454a8486615bdf565b6145549190615b5d565b90508281106132bf57600080fd5b600082614577670de0b6b3a764000086615bdf565b6145819190615b5d565b905081811115612bb15760405162461bcd60e51b815260206004820152601d60248201527f4665652065786365656465642070726f7669646564206d6178696d756d0000006044820152606401610f11565b62020026546000036119da57676765c793fa10079d601b1b600d5542600e5560006013819055601481905560158190556016819055601781905560188190556019819055601a819055601b819055601d819055601e55565b60045460009061ffff166146665760405162461bcd60e51b8152602060048201526002602482015261524160f01b6044820152606401610f11565b60006146718361335f565b6001600160a01b038516600090815260226020526040902054909250905080156146af576001600160a01b0384166000908152602260205260408120555b60006146ba8561484a565b905080156146f7576146cc8183615c59565b6001600160a01b0386166000908152620200226020526040902080546001600160601b031916905591505b60025460405163cba1e33960e01b8152600481018590526001600160a01b0387811660248301529091169063cba1e33990604401602060405180830381865afa158015614748573d6000803e3d6000fd5b505050506040513d601f19601f8201168201806040525081019061476c9190615d11565b1561477957509392505050565b600254604080516325bc73c760e21b815290516103e8926001600160a01b0316916396f1cf1c9160048083019260209291908290030181865afa1580156147c4573d6000803e3d6000fd5b505050506040513d601f19601f820116820180604052508101906147e89190615ba2565b6147f4906103e8615b34565b6147fe9084615bdf565b6148089190615b5d565b95945050505050565b505050919050565b600082156148415760008361482e8487615bdf565b6148389190615b5d565b91506132bf9050565b506000196132bf565b6001600160a01b038116600090815262020022602090815260408083208151606081018352905463ffffffff808216808452600160201b8304821695840195909552600160401b90910416918101919091529015611095576000806148ad610ce3565b9150915080836040015163ffffffff161415806148d4575081836020015163ffffffff1614155b156148115762010023836020015163ffffffff1661ffff81106148f9576148f9615c6c565b01836040015163ffffffff166007811061491557614915615c6c565b600891828204019190066004029054906101000a900463ffffffff1663ffffffff16836000015163ffffffff166024856020015163ffffffff1661ffff811061496057614960615c6c565b01546147fe9190615bdf565b81600003614978575050565b601854600090614990670de0b6b3a764000084615bdf565b61499a9190615c59565b90506000601954670de0b6b3a7640000856149b59190615bdf565b6149bf9190615c59565b60135490915060006149d18285615b5d565b905060006149df8385615b5d565b90506149eb8383615bdf565b6149f59086615b34565b601855614a028382615bdf565b614a0c9085615b34565b601955601654600090614a20908490615c59565b9050600082601754614a329190615c59565b601683905560178190556040519091507f9f8bc8ab0daf5bceef75ecfd2085d1fcc6548c657ea970d9a23a60610d0737e390614a719084908490615442565b60405180910390a188601b6000828254614a8b9190615b34565b9250508190555088601e6000828254614aa49190615c59565b9250508190555087601d6000828254614abd9190615c59565b9250508190555087601a6000828254614ad69190615b34565b9091555050505050505050505050565b81601e6000828254614af89190615b34565b9250508190555081601b6000828254614b119190615c59565b9250508190555080601d6000828254614b2a9190615b34565b9250508190555080601a6000828254611aee9190615c59565b6000818310614b5257816132bf565b5090919050565b600060125442614b699190615b34565b9050603c8110613d19574260128190556040519081527f860f8d2f0c74dd487e89e2883e3b25b8159ce1e1b3433a291cba7b82c508f3bc9060200160405180910390a150565b6015546000908190808203614bc657839150614bef565b60145480614bd657614bd6615d61565b81614be18287615bdf565b614beb9190615b5d565b9250505b5092915050565b602054600090600160a01b900463ffffffff168042811115614c155750425b602054600090614c3290600160801b900463ffffffff1683615b34565b601f54945090508015614ca9576020805463ffffffff60801b1916600160801b63ffffffff8516021790558415614ca9576020548590614c7b906001600160801b031683615bdf565b614c8d90670de0b6b3a7640000615bdf565b614c979190615b5d565b614ca19085615c59565b601f81905593505b61481183614ee1565b6000631f540500821115614cc857631f54050091505b81600003614cdf5750670de0b6b3a764000061145a565b670de0b6b3a764000083835b6001811115614d5357614cff600282615b71565b600003614d2457614d108283615285565b9150614d1d600282615b5d565b9050614ceb565b614d2e8284615285565b9250614d3a8283615285565b91506002614d49600183615b34565b614d1d9190615b5d565b6121a98284615285565b6000614d726001600160a01b038416836152bc565b90508051600014158015614d97575080806020019051810190614d959190615d11565b155b15611e175782604051635274afe760e01b8152600401610f11919061547b565b604051632770a7eb60e21b81526001600160a01b037f00000000000000000000000000000000000000000000000000000000000000001690639dc29fac90614e25907f0000000000000000000000000000000000000000000000000000000000000000908690600401615c82565b600060405180830381600087803b158015614e3f57600080fd5b505af1158015614e53573d6000803e3d6000fd5b5050505081601b54614e659190615b34565b601b556001600160a01b038316600090815262020024602052604081208054839290614e92908490615c59565b9250508190555080601a6000828254614eab9190615b34565b9091555050505050565b600061145a7f000000000000000000000000000000000000000000000000000000000000000083615b34565b6040805180820190915260045461ffff80821680845262010000909204166020830152600003614f0f575050565b6000614f19611e1c565b905062093a80614f497f000000000000000000000000000000000000000000000000000000000000000085615b34565b614f539190615b5d565b811015614f5f57505050565b6000600162093a80614f917f000000000000000000000000000000000000000000000000000000000000000087615b34565b614f9b9190615b5d565b614fa59190615b34565b835160405163378cbf7560e01b815261ffff90911660048201529091506000907f00000000000000000000000000000000000000000000000000000000000000006001600160a01b03169063378cbf75906024016020604051808303816000875af1158015615018573d6000803e3d6000fd5b505050506040513d601f19601f8201168201806040525081019061503c9190615ba2565b9050844210156150795760006150524287615b34565b60205490915061506b906001600160801b031682615bdf565b6150759083615c59565b9150505b61508662093a8082615b5d565b6020805463ffffffff42908116600160801b026001600160a01b03199092166001600160801b0394909416939093171790556150c69062093a8090615c59565b6020805463ffffffff92909216600160a01b0263ffffffff60a01b1990921691909117815584015160405163378cbf7560e01b815261ffff90911660048201526001600160a01b037f0000000000000000000000000000000000000000000000000000000000000000169063378cbf75906024016020604051808303816000875af1158015615159573d6000803e3d6000fd5b505050506040513d601f19601f8201168201806040525081019061517d9190615ba2565b9050600060248361ffff811061519557615195615c6c565b01549050801561525c576000620100238461ffff81106151b7576151b7615c6c565b6040805160e0810191829052929190910190600790826000855b82829054906101000a900463ffffffff1663ffffffff16815260200190600401906020826003010492830192600103820291508084116151d15790505050505050905060005b60078110156152595781816007811061523257615232615c6c565b602002015163ffffffff166000036152515761524e8385615c59565b93505b600101615217565b50505b615267600783615b5d565b60248561ffff811061527b5761527b615c6c565b0155505050505050565b6000806152928385615bdf565b9050670de0b6b3a76400006152a8600282615b5d565b6152b29083615c59565b612bf39190615b5d565b60606132bf8383600084600080856001600160a01b031684866040516152e29190615d77565b60006040518083038185875af1925050503d806000811461531f576040519150601f19603f3d011682016040523d82523d6000602084013e615324565b606091505b50915091506121a98683836060826153445761533f82615382565b6132bf565b815115801561535b57506001600160a01b0384163b155b1561537b5783604051639996b31560e01b8152600401610f11919061547b565b50806132bf565b8051156153925780518082602001fd5b604051630a12f52160e11b815260040160405180910390fd5b6040518060e001604052806007906020820280368337509192915050565b6040518060c00160405280600081526020016000815260200160008152602001600060048111156153fc576153fc6159b3565b815260006020820181905260409091015290565b6001600160a01b0381168114613d1957600080fd5b60006020828403121561543757600080fd5b81356132bf81615410565b918252602082015260400190565b8015158114613d1957600080fd5b60006020828403121561547057600080fd5b81356132bf81615450565b6001600160a01b0391909116815260200190565b600080600080600080600080610100898b0312156154ac57600080fd5b505086359860208801359850604088013597606081013597506080810135965060a0810135955060c0810135945060e0013592509050565b6000806000606084860312156154f957600080fd5b833561550481615410565b9250602084013561551481615410565b9150604084013561552481615410565b809150509250925092565b60006020828403121561554157600080fd5b5035919050565b600080600080600080600060e0888a03121561556357600080fd5b873561556e81615410565b9650602088013595506040880135945060608801359350608088013561559381615410565b925060a08801356155a381615410565b915060c08801356155b381615450565b8091505092959891949750929550565b600080602083850312156155d657600080fd5b82356001600160401b03808211156155ed57600080fd5b818501915085601f83011261560157600080fd5b81358181111561561057600080fd5b8660208260051b850101111561562557600080fd5b60209290920196919550909350505050565b6000806040838503121561564a57600080fd5b823561565581615410565b9150602083013561566581615410565b809150509250929050565b6000806040838503121561568357600080fd5b823561568e81615410565b946020939093013593505050565b634e487b7160e01b600052604160045260246000fd5b604051601f8201601f191681016001600160401b03811182821017156156da576156da61569c565b604052919050565b60006001600160401b038211156156fb576156fb61569c565b5060051b60200190565b600082601f83011261571657600080fd5b8135602061572b615726836156e2565b6156b2565b8083825260208201915060208460051b87010193508684111561574d57600080fd5b602086015b8481101561577257803561576581615450565b8352918301918301615752565b509695505050505050565b6000806040838503121561579057600080fd5b82356001600160401b03808211156157a757600080fd5b818501915085601f8301126157bb57600080fd5b813560206157cb615726836156e2565b82815260059290921b840181019181810190898411156157ea57600080fd5b948201945b8386101561581157853561580281615410565b825294820194908201906157ef565b9650508601359250508082111561582757600080fd5b5061583485828601615705565b9150509250929050565b6000806000806000806000806000806101408b8d03121561585e57600080fd5b8a3561586981615450565b995060208b013561587981615450565b985060408b0135975060608b0135965060808b013561589781615450565b955060a08b0135945060c08b01356158ae81615410565b935060e08b01356158be81615410565b92506101008b01356158cf81615410565b91506101208b01356158e081615410565b809150509295989b9194979a5092959850565b60e08101818360005b600781101561592157815163ffffffff168352602092830192909101906001016158fc565b50505092915050565b93845260208401929092526040830152606082015260800190565b600080600080600080600060e0888a03121561596057600080fd5b87359650602088013561597281615410565b9550604088013561598281615410565b9450606088013561599281615410565b9699959850939660808101359560a0820135955060c0909101359350915050565b634e487b7160e01b600052602160045260246000fd5b600060c082019050825182526020830151602083015260408301516040830152606083015160058110615a0c57634e487b7160e01b600052602160045260246000fd5b60608301526080838101516001600160801b03169083015260a092830151929091019190915290565b60008060008060808587031215615a4b57600080fd5b8435615a5681615410565b93506020850135615a6681615410565b93969395505050506040820135916060013590565b600080600060608486031215615a9057600080fd5b8335615a9b81615410565b95602085013595506040909401359392505050565b60008060008060008060c08789031215615ac957600080fd5b8635615ad481615410565b9860208801359850604088013597606081013597506080810135965060a00135945092505050565b60008060408385031215615b0f57600080fd5b50508035926020909101359150565b634e487b7160e01b600052601160045260246000fd5b8181038181111561145a5761145a615b1e565b634e487b7160e01b600052601260045260246000fd5b600082615b6c57615b6c615b47565b500490565b600082615b8057615b80615b47565b500690565b600060208284031215615b9757600080fd5b81516132bf81615410565b600060208284031215615bb457600080fd5b5051919050565b6020808252600a908201526927b7363c9037bbb732b960b11b604082015260600190565b808202811582820484141761145a5761145a615b1e565b6020808252600290820152614e4160f01b604082015260600190565b602080825260029082015261435360f01b604082015260600190565b6001600160a01b03948516815260208101939093529083166040830152909116606082015260800190565b8082018082111561145a5761145a615b1e565b634e487b7160e01b600052603260045260246000fd5b6001600160a01b03929092168252602082015260400190565b600060ff821660ff8103615cb157615cb1615b1e565b60010192915050565b602080825260029082015261544560f01b604082015260600190565b600081615ce557615ce5615b1e565b506000190190565b6001600160a01b039384168152919092166020820152604081019190915260600190565b600060208284031215615d2357600080fd5b81516132bf81615450565b634e487b7160e01b600052603160045260246000fd5b63ffffffff818116838216019080821115614bef57614bef615b1e565b634e487b7160e01b600052600160045260246000fd5b6000825160005b81811015615d985760208186018101518583015201615d7e565b50600092019182525091905056fec454ee9b76c52f782a256af821b857ca6e125d1e3333bcede402fec2bed9600ca26469706673582212202f0a080498452d66ca4e07254d6fdd8644a0a917dc3cccc8ed8ff2eb333bf9e164736f6c63430008160033",
  "linkReferences": {},
  "deployedLinkReferences": {}
}