{
  "_format": "hh-sol-artifact-1",
  "contractName": "TokenVesting",
  "sourceName": "contracts/dao/TokenVesting.sol",
  "abi": [
    {
      "inputs": [
        {
          "internalType": "address",
          "name": "_vineCore",
          "type": "address"
        },
        {
          "internalType": "address",
          "name": "_vault",
          "type": "address"
        },
        {
          "internalType": "contract IERC20",
          "name": "_VINE",
          "type": "address"
        }
      ],
      "stateMutability": "nonpayable",
      "type": "constructor"
    },
    {
      "anonymous": false,
      "inputs": [
        {
          "indexed": true,
          "internalType": "address",
          "name": "_addr",
          "type": "address"
        },
        {
          "indexed": false,
          "internalType": "uint256",
          "name": "_totalLocked",
          "type": "uint256"
        },
        {
          "indexed": false,
          "internalType": "uint256",
          "name": "_duration",
          "type": "uint256"
        },
        {
          "indexed": false,
          "internalType": "uint256",
          "name": "_unlockingStartTime",
          "type": "uint256"
        },
        {
          "indexed": false,
          "internalType": "uint256",
          "name": "_lastUnlockingTime",
          "type": "uint256"
        }
      ],
      "name": "SetUnlockingRule",
      "type": "event"
    },
    {
      "anonymous": false,
      "inputs": [
        {
          "indexed": true,
          "internalType": "address",
          "name": "_addr",
          "type": "address"
        },
        {
          "indexed": false,
          "internalType": "address",
          "name": "to",
          "type": "address"
        },
        {
          "indexed": false,
          "internalType": "uint256",
          "name": "_amount",
          "type": "uint256"
        }
      ],
      "name": "Vest",
      "type": "event"
    },
    {
      "inputs": [
        {
          "internalType": "address",
          "name": "",
          "type": "address"
        }
      ],
      "name": "UnlockingInfo",
      "outputs": [
        {
          "internalType": "uint256",
          "name": "totalLocked",
          "type": "uint256"
        },
        {
          "internalType": "uint256",
          "name": "duration",
          "type": "uint256"
        },
        {
          "internalType": "uint256",
          "name": "unlockingStartTime",
          "type": "uint256"
        },
        {
          "internalType": "uint256",
          "name": "lastUnlockingTime",
          "type": "uint256"
        }
      ],
      "stateMutability": "view",
      "type": "function"
    },
    {
      "inputs": [],
      "name": "VINE",
      "outputs": [
        {
          "internalType": "contract IERC20",
          "name": "",
          "type": "address"
        }
      ],
      "stateMutability": "view",
      "type": "function"
    },
    {
      "inputs": [],
      "name": "VINE_CORE",
      "outputs": [
        {
          "internalType": "contract IVineCore",
          "name": "",
          "type": "address"
        }
      ],
      "stateMutability": "view",
      "type": "function"
    },
    {
      "inputs": [
        {
          "internalType": "address",
          "name": "addr",
          "type": "address"
        }
      ],
      "name": "getUnlockableAmount",
      "outputs": [
        {
          "internalType": "uint256",
          "name": "",
          "type": "uint256"
        }
      ],
      "stateMutability": "view",
      "type": "function"
    },
    {
      "inputs": [],
      "name": "guardian",
      "outputs": [
        {
          "internalType": "address",
          "name": "",
          "type": "address"
        }
      ],
      "stateMutability": "view",
      "type": "function"
    },
    {
      "inputs": [],
      "name": "owner",
      "outputs": [
        {
          "internalType": "address",
          "name": "",
          "type": "address"
        }
      ],
      "stateMutability": "view",
      "type": "function"
    },
    {
      "inputs": [
        {
          "internalType": "address",
          "name": "_addr",
          "type": "address"
        },
        {
          "internalType": "uint256",
          "name": "_totalLocked",
          "type": "uint256"
        },
        {
          "internalType": "uint256",
          "name": "_duration",
          "type": "uint256"
        },
        {
          "internalType": "uint256",
          "name": "_unlockingStartTime",
          "type": "uint256"
        }
      ],
      "name": "setUnlockingRule",
      "outputs": [],
      "stateMutability": "nonpayable",
      "type": "function"
    },
    {
      "inputs": [],
      "name": "vault",
      "outputs": [
        {
          "internalType": "address",
          "name": "",
          "type": "address"
        }
      ],
      "stateMutability": "view",
      "type": "function"
    },
    {
      "inputs": [
        {
          "internalType": "address",
          "name": "to",
          "type": "address"
        }
      ],
      "name": "vest",
      "outputs": [],
      "stateMutability": "nonpayable",
      "type": "function"
    }
  ],
  "bytecode": "0x60e060405234801561001057600080fd5b50604051610a35380380610a3583398101604081905261002f91610064565b6001600160a01b0392831660805290821660a0521660c0526100b1565b6001600160a01b038116811461006157600080fd5b50565b60008060006060848603121561007957600080fd5b83516100848161004c565b60208501519093506100958161004c565b60408501519092506100a68161004c565b809150509250925092565b60805160a05160c0516109336101026000396000818160fb01526106f901526000818161019a01526106c2015260008181610122015281816101c00152818161024901526102a701526109336000f3fe608060405234801561001057600080fd5b50600436106100835760003560e01c80633efa4be114610088578063452a9320146100d65780634d89024c146100f657806382d61d161461011d5780638da5cb5b14610144578063be32622f1461014c578063e680be4d14610161578063f3c5f51e14610182578063fbfa77cf14610195575b600080fd5b6100bd6100963660046107c9565b60006020819052908152604090208054600182015460028301546003909301549192909184565b6040516100cd94939291906107ed565b60405180910390f35b6100de6101bc565b6040516001600160a01b0390911681526020016100cd565b6100de7f000000000000000000000000000000000000000000000000000000000000000081565b6100de7f000000000000000000000000000000000000000000000000000000000000000081565b6100de610245565b61015f61015a366004610808565b6102a5565b005b61017461016f3660046107c9565b610455565b6040519081526020016100cd565b61015f6101903660046107c9565b6105c7565b6100de7f000000000000000000000000000000000000000000000000000000000000000081565b60007f00000000000000000000000000000000000000000000000000000000000000006001600160a01b031663452a93206040518163ffffffff1660e01b8152600401602060405180830381865afa15801561021c573d6000803e3d6000fd5b505050506040513d601f19601f820116820180604052508101906102409190610843565b905090565b60007f00000000000000000000000000000000000000000000000000000000000000006001600160a01b0316638da5cb5b6040518163ffffffff1660e01b8152600401602060405180830381865afa15801561021c573d6000803e3d6000fd5b7f00000000000000000000000000000000000000000000000000000000000000006001600160a01b0316638da5cb5b6040518163ffffffff1660e01b8152600401602060405180830381865afa158015610303573d6000803e3d6000fd5b505050506040513d601f19601f820116820180604052508101906103279190610843565b6001600160a01b0316336001600160a01b0316146103795760405162461bcd60e51b815260206004820152600a60248201526927b7363c9037bbb732b960b11b60448201526064015b60405180910390fd5b6001600160a01b038416600090815260208190526040902060030154156103e25760405162461bcd60e51b815260206004820152601e60248201527f5468652072756c652068617320616c7265616479206265656e207365742e00006044820152606401610370565b6001600160a01b038416600081815260208190526040908190208581556001810185905560028101849055600301839055517f20f0df51cb7213972cf2250183d30c0fa034d07cea378788a314c5dd8ec141f7906104479086908690869081906107ed565b60405180910390a250505050565b6001600160a01b038116600090815260208190526040812060020154421161047f57506000919050565b6001600160a01b038216600090815260208190526040812060018101546002909101546104ac9190610876565b6001600160a01b03841660009081526020819052604081206003015491925090810361053157814211610504576001600160a01b0384166000908152602081905260409020600201546104ff904261088f565b61052a565b6001600160a01b03841660009081526020819052604090206002015461052a908361088f565b905061058c565b814211610563576001600160a01b03841660009081526020819052604090206003015461055e904261088f565b610589565b6001600160a01b038416600090815260208190526040902060030154610589908361088f565b90505b6001600160a01b0384166000908152602081905260409020600181015490546105b590836108a2565b6105bf91906108b9565b949350505050565b336000908152602081905260409020600201544210156106395760405162461bcd60e51b815260206004820152602760248201527f54686520756e6c6f636b696e672074696d6520686173206e6f7420617272697660448201526632b2103cb2ba1760c91b6064820152608401610370565b600061064433610455565b905080156107ad5733600090815260208190526040812060018101546002909101546106709190610876565b905080421115610694573360009081526020819052604090206003018190556106ab565b336000908152602081905260409020426003909101555b6040516323b872dd60e01b81526001600160a01b037f0000000000000000000000000000000000000000000000000000000000000000811660048301528481166024830152604482018490527f000000000000000000000000000000000000000000000000000000000000000016906323b872dd906064016020604051808303816000875af1158015610742573d6000803e3d6000fd5b505050506040513d601f19601f8201168201806040525081019061076691906108db565b50604080516001600160a01b03851681526020810184905233917fb18d74f095094ce3c4ef79ef7d5f8ffe12910f681abc256212caa06affd87bbc910160405180910390a2505b5050565b6001600160a01b03811681146107c657600080fd5b50565b6000602082840312156107db57600080fd5b81356107e6816107b1565b9392505050565b93845260208401929092526040830152606082015260800190565b6000806000806080858703121561081e57600080fd5b8435610829816107b1565b966020860135965060408601359560600135945092505050565b60006020828403121561085557600080fd5b81516107e6816107b1565b634e487b7160e01b600052601160045260246000fd5b8082018082111561088957610889610860565b92915050565b8181038181111561088957610889610860565b808202811582820484141761088957610889610860565b6000826108d657634e487b7160e01b600052601260045260246000fd5b500490565b6000602082840312156108ed57600080fd5b815180151581146107e657600080fdfea26469706673582212204a2ab1eaf05b80583ffa5b1bac961e7a8c561fe7deca61f56dc26ba1893c6e1464736f6c63430008160033",
  "linkReferences": {},
  "deployedLinkReferences": {}
}