{
  "_format": "hh-sol-artifact-1",
  "contractName": "MultiTroveGetter",
  "sourceName": "contracts/core/helpers/MultiTroveGetter.sol",
  "abi": [
    {
      "inputs": [],
      "stateMutability": "nonpayable",
      "type": "constructor"
    },
    {
      "inputs": [
        {
          "internalType": "contract ITroveManager",
          "name": "troveManager",
          "type": "address"
        },
        {
          "internalType": "int256",
          "name": "_startIdx",
          "type": "int256"
        },
        {
          "internalType": "uint256",
          "name": "_count",
          "type": "uint256"
        }
      ],
      "name": "getMultipleSortedTroves",
      "outputs": [
        {
          "components": [
            {
              "internalType": "address",
              "name": "owner",
              "type": "address"
            },
            {
              "internalType": "uint256",
              "name": "debt",
              "type": "uint256"
            },
            {
              "internalType": "uint256",
              "name": "coll",
              "type": "uint256"
            },
            {
              "internalType": "uint256",
              "name": "stake",
              "type": "uint256"
            },
            {
              "internalType": "uint256",
              "name": "snapshotCollateral",
              "type": "uint256"
            },
            {
              "internalType": "uint256",
              "name": "snapshotDebt",
              "type": "uint256"
            }
          ],
          "internalType": "struct MultiTroveGetter.CombinedTroveData[]",
          "name": "_troves",
          "type": "tuple[]"
        }
      ],
      "stateMutability": "view",
      "type": "function"
    }
  ],
  "bytecode": "0x608060405234801561001057600080fd5b50610b87806100206000396000f3fe608060405234801561001057600080fd5b506004361061002b5760003560e01c806305e533ce14610030575b600080fd5b61004361003e366004610916565b610059565b604051610050919061094b565b60405180910390f35b60606000846001600160a01b031663ae9187546040518163ffffffff1660e01b8152600401602060405180830381865afa15801561009b573d6000803e3d6000fd5b505050506040513d601f19601f820116820180604052508101906100bf91906109cc565b9050600080600086126100d7575084905060016100f2565b6100e2866001610a06565b6100eb90610a2e565b9150600090505b6000836001600160a01b031663de8fa4316040518163ffffffff1660e01b8152600401602060405180830381865afa158015610132573d6000803e3d6000fd5b505050506040513d601f19601f820116820180604052508101906101569190610a4a565b9050808310610198576040805160008082526020820190925290610190565b61017d6108bf565b8152602001906001900390816101755790505b5094506101dc565b60006101a48483610a79565b9050808711156101b2578096505b82156101cb576101c48986868a6101e7565b95506101da565b6101d78986868a610558565b95505b505b505050509392505050565b60606000846001600160a01b0316631e2231436040518163ffffffff1660e01b8152600401602060405180830381865afa158015610229573d6000803e3d6000fd5b505050506040513d601f19601f8201168201806040525081019061024d91906109cc565b905060005b848110156102d15760405163765e015960e01b81526001600160a01b0387169063765e015990610286908590600401610a92565b602060405180830381865afa1580156102a3573d6000803e3d6000fd5b505050506040513d601f19601f820116820180604052508101906102c791906109cc565b9150600101610252565b50826001600160401b038111156102ea576102ea610a63565b60405190808252806020026020018201604052801561032357816020015b6103106108bf565b8152602001906001900390816103085790505b50915060005b8381101561054e578183828151811061034457610344610aa6565b60209081029190910101516001600160a01b039182169052604051632f4a303d60e21b81529088169063bd28c0f490610381908590600401610a92565b60c060405180830381865afa15801561039e573d6000803e3d6000fd5b505050506040513d601f19601f820116820180604052508101906103c29190610abc565b50508651879150859081106103d9576103d9610aa6565b60200260200101516020018685815181106103f6576103f6610aa6565b602002602001015160400187868151811061041357610413610aa6565b60209081029190910101516060019290925291905252604051630b39e3cd60e11b81526001600160a01b03881690631673c79a90610455908590600401610a92565b6040805180830381865afa158015610471573d6000803e3d6000fd5b505050506040513d601f19601f820116820180604052508101906104959190610b2d565b8483815181106104a7576104a7610aa6565b60200260200101516080018584815181106104c4576104c4610aa6565b602090810291909101015160a001919091525260405163765e015960e01b81526001600160a01b0387169063765e015990610503908590600401610a92565b602060405180830381865afa158015610520573d6000803e3d6000fd5b505050506040513d601f19601f8201168201806040525081019061054491906109cc565b9150600101610329565b5050949350505050565b60606000846001600160a01b0316634d6228316040518163ffffffff1660e01b8152600401602060405180830381865afa15801561059a573d6000803e3d6000fd5b505050506040513d601f19601f820116820180604052508101906105be91906109cc565b905060005b8481101561064257604051632dc9c0eb60e21b81526001600160a01b0387169063b72703ac906105f7908590600401610a92565b602060405180830381865afa158015610614573d6000803e3d6000fd5b505050506040513d601f19601f8201168201806040525081019061063891906109cc565b91506001016105c3565b50826001600160401b0381111561065b5761065b610a63565b60405190808252806020026020018201604052801561069457816020015b6106816108bf565b8152602001906001900390816106795790505b50915060005b8381101561054e57818382815181106106b5576106b5610aa6565b60209081029190910101516001600160a01b039182169052604051632f4a303d60e21b81529088169063bd28c0f4906106f2908590600401610a92565b60c060405180830381865afa15801561070f573d6000803e3d6000fd5b505050506040513d601f19601f820116820180604052508101906107339190610abc565b505086518791508590811061074a5761074a610aa6565b602002602001015160200186858151811061076757610767610aa6565b602002602001015160400187868151811061078457610784610aa6565b60209081029190910101516060019290925291905252604051630b39e3cd60e11b81526001600160a01b03881690631673c79a906107c6908590600401610a92565b6040805180830381865afa1580156107e2573d6000803e3d6000fd5b505050506040513d601f19601f820116820180604052508101906108069190610b2d565b84838151811061081857610818610aa6565b602002602001015160800185848151811061083557610835610aa6565b602090810291909101015160a0019190915252604051632dc9c0eb60e21b81526001600160a01b0387169063b72703ac90610874908590600401610a92565b602060405180830381865afa158015610891573d6000803e3d6000fd5b505050506040513d601f19601f820116820180604052508101906108b591906109cc565b915060010161069a565b6040518060c0016040528060006001600160a01b0316815260200160008152602001600081526020016000815260200160008152602001600081525090565b6001600160a01b038116811461091357600080fd5b50565b60008060006060848603121561092b57600080fd5b8335610936816108fe565b95602085013595506040909401359392505050565b602080825282518282018190526000919060409081850190868401855b828110156109bf57815180516001600160a01b0316855286810151878601528581015186860152606080820151908601526080808201519086015260a0908101519085015260c09093019290850190600101610968565b5091979650505050505050565b6000602082840312156109de57600080fd5b81516109e9816108fe565b9392505050565b634e487b7160e01b600052601160045260246000fd5b8082018281126000831280158216821582161715610a2657610a266109f0565b505092915050565b6000600160ff1b8201610a4357610a436109f0565b5060000390565b600060208284031215610a5c57600080fd5b5051919050565b634e487b7160e01b600052604160045260246000fd5b81810381811115610a8c57610a8c6109f0565b92915050565b6001600160a01b0391909116815260200190565b634e487b7160e01b600052603260045260246000fd5b60008060008060008060c08789031215610ad557600080fd5b865195506020870151945060408701519350606087015160ff81168114610afb57600080fd5b60808801519093506001600160801b0381168114610b1857600080fd5b8092505060a087015190509295509295509295565b60008060408385031215610b4057600080fd5b50508051602090910151909290915056fea2646970667358221220fa1acf3acf217f56abd49144ad2c029c264a1448ef9bcaf4b6a64a6b5fd3114a64736f6c63430008160033",
  "linkReferences": {},
  "deployedLinkReferences": {}
}