{
  "_format": "hh-sol-artifact-1",
  "contractName": "DebtToken",
  "sourceName": "contracts/core/DebtToken.sol",
  "abi": [
    {
      "inputs": [
        {
          "internalType": "string",
          "name": "_name",
          "type": "string"
        },
        {
          "internalType": "string",
          "name": "_symbol",
          "type": "string"
        },
        {
          "internalType": "contract IVineCore",
          "name": "vineCore_",
          "type": "address"
        },
        {
          "internalType": "uint256",
          "name": "_gasCompensation",
          "type": "uint256"
        }
      ],
      "stateMutability": "nonpayable",
      "type": "constructor"
    },
    {
      "inputs": [
        {
          "internalType": "address",
          "name": "spender",
          "type": "address"
        },
        {
          "internalType": "uint256",
          "name": "allowance",
          "type": "uint256"
        },
        {
          "internalType": "uint256",
          "name": "needed",
          "type": "uint256"
        }
      ],
      "name": "ERC20InsufficientAllowance",
      "type": "error"
    },
    {
      "inputs": [
        {
          "internalType": "address",
          "name": "sender",
          "type": "address"
        },
        {
          "internalType": "uint256",
          "name": "balance",
          "type": "uint256"
        },
        {
          "internalType": "uint256",
          "name": "needed",
          "type": "uint256"
        }
      ],
      "name": "ERC20InsufficientBalance",
      "type": "error"
    },
    {
      "inputs": [
        {
          "internalType": "address",
          "name": "approver",
          "type": "address"
        }
      ],
      "name": "ERC20InvalidApprover",
      "type": "error"
    },
    {
      "inputs": [
        {
          "internalType": "address",
          "name": "receiver",
          "type": "address"
        }
      ],
      "name": "ERC20InvalidReceiver",
      "type": "error"
    },
    {
      "inputs": [
        {
          "internalType": "address",
          "name": "sender",
          "type": "address"
        }
      ],
      "name": "ERC20InvalidSender",
      "type": "error"
    },
    {
      "inputs": [
        {
          "internalType": "address",
          "name": "spender",
          "type": "address"
        }
      ],
      "name": "ERC20InvalidSpender",
      "type": "error"
    },
    {
      "inputs": [],
      "name": "DEBT_GAS_COMPENSATION",
      "outputs": [
        {
          "internalType": "uint256",
          "name": "",
          "type": "uint256"
        }
      ],
      "stateMutability": "view",
      "type": "function"
    },
    {
      "inputs": [],
      "name": "DOMAIN_SEPARATOR",
      "outputs": [
        {
          "internalType": "bytes32",
          "name": "",
          "type": "bytes32"
        }
      ],
      "stateMutability": "view",
      "type": "function"
    },
    {
      "inputs": [],
      "name": "EIP712_DOMAIN_TYPEHASH",
      "outputs": [
        {
          "internalType": "bytes32",
          "name": "",
          "type": "bytes32"
        }
      ],
      "stateMutability": "view",
      "type": "function"
    },
    {
      "inputs": [],
      "name": "FLASH_LOAN_FEE",
      "outputs": [
        {
          "internalType": "uint256",
          "name": "",
          "type": "uint256"
        }
      ],
      "stateMutability": "view",
      "type": "function"
    },
    {
      "inputs": [],
      "name": "SIGNIN_TYPE",
      "outputs": [
        {
          "internalType": "string",
          "name": "",
          "type": "string"
        }
      ],
      "stateMutability": "view",
      "type": "function"
    },
    {
      "inputs": [],
      "name": "SIGNIN_TYPEHASH",
      "outputs": [
        {
          "internalType": "bytes32",
          "name": "",
          "type": "bytes32"
        }
      ],
      "stateMutability": "view",
      "type": "function"
    },
    {
      "inputs": [],
      "name": "VINE_CORE",
      "outputs": [
        {
          "internalType": "contract IVineCore",
          "name": "",
          "type": "address"
        }
      ],
      "stateMutability": "view",
      "type": "function"
    },
    {
      "inputs": [
        {
          "internalType": "address",
          "name": "owner",
          "type": "address"
        },
        {
          "internalType": "address",
          "name": "spender",
          "type": "address"
        }
      ],
      "name": "allowance",
      "outputs": [
        {
          "internalType": "uint256",
          "name": "",
          "type": "uint256"
        }
      ],
      "stateMutability": "view",
      "type": "function"
    },
    {
      "inputs": [
        {
          "internalType": "address",
          "name": "spender",
          "type": "address"
        },
        {
          "internalType": "uint256",
          "name": "value",
          "type": "uint256"
        }
      ],
      "name": "approve",
      "outputs": [
        {
          "internalType": "bool",
          "name": "",
          "type": "bool"
        }
      ],
      "stateMutability": "nonpayable",
      "type": "function"
    },
    {
      "inputs": [
        {
          "internalType": "address",
          "name": "account",
          "type": "address"
        }
      ],
      "name": "balanceOf",
      "outputs": [
        {
          "internalType": "uint256",
          "name": "",
          "type": "uint256"
        }
      ],
      "stateMutability": "view",
      "type": "function"
    },
    {
      "inputs": [],
      "name": "borrowerOperationsAddress",
      "outputs": [
        {
          "internalType": "address",
          "name": "",
          "type": "address"
        }
      ],
      "stateMutability": "view",
      "type": "function"
    },
    {
      "inputs": [
        {
          "internalType": "address",
          "name": "_account",
          "type": "address"
        },
        {
          "internalType": "uint256",
          "name": "_amount",
          "type": "uint256"
        }
      ],
      "name": "burn",
      "outputs": [],
      "stateMutability": "nonpayable",
      "type": "function"
    },
    {
      "inputs": [
        {
          "internalType": "address",
          "name": "_account",
          "type": "address"
        },
        {
          "internalType": "uint256",
          "name": "_amount",
          "type": "uint256"
        }
      ],
      "name": "burnWithGasCompensation",
      "outputs": [
        {
          "internalType": "bool",
          "name": "",
          "type": "bool"
        }
      ],
      "stateMutability": "nonpayable",
      "type": "function"
    },
    {
      "inputs": [
        {
          "components": [
            {
              "internalType": "address",
              "name": "user",
              "type": "address"
            },
            {
              "internalType": "uint32",
              "name": "time",
              "type": "uint32"
            },
            {
              "components": [
                {
                  "internalType": "bytes32",
                  "name": "r",
                  "type": "bytes32"
                },
                {
                  "internalType": "bytes32",
                  "name": "s",
                  "type": "bytes32"
                },
                {
                  "internalType": "uint256",
                  "name": "v",
                  "type": "uint256"
                }
              ],
              "internalType": "struct SignatureRSV",
              "name": "rsv",
              "type": "tuple"
            }
          ],
          "internalType": "struct VineSignature.SignIn",
          "name": "auth",
          "type": "tuple"
        }
      ],
      "name": "checkBalanceOf",
      "outputs": [
        {
          "internalType": "uint256",
          "name": "",
          "type": "uint256"
        }
      ],
      "stateMutability": "view",
      "type": "function"
    },
    {
      "inputs": [],
      "name": "decimals",
      "outputs": [
        {
          "internalType": "uint8",
          "name": "",
          "type": "uint8"
        }
      ],
      "stateMutability": "view",
      "type": "function"
    },
    {
      "inputs": [
        {
          "internalType": "address",
          "name": "_troveManager",
          "type": "address"
        }
      ],
      "name": "disableTroveManager",
      "outputs": [],
      "stateMutability": "nonpayable",
      "type": "function"
    },
    {
      "inputs": [],
      "name": "domainSeparator",
      "outputs": [
        {
          "internalType": "bytes32",
          "name": "",
          "type": "bytes32"
        }
      ],
      "stateMutability": "view",
      "type": "function"
    },
    {
      "inputs": [
        {
          "internalType": "address",
          "name": "_troveManager",
          "type": "address"
        }
      ],
      "name": "enableTroveManager",
      "outputs": [],
      "stateMutability": "nonpayable",
      "type": "function"
    },
    {
      "inputs": [],
      "name": "factory",
      "outputs": [
        {
          "internalType": "address",
          "name": "",
          "type": "address"
        }
      ],
      "stateMutability": "view",
      "type": "function"
    },
    {
      "inputs": [
        {
          "internalType": "address",
          "name": "token",
          "type": "address"
        },
        {
          "internalType": "uint256",
          "name": "amount",
          "type": "uint256"
        }
      ],
      "name": "flashFee",
      "outputs": [
        {
          "internalType": "uint256",
          "name": "",
          "type": "uint256"
        }
      ],
      "stateMutability": "view",
      "type": "function"
    },
    {
      "inputs": [
        {
          "internalType": "contract IERC3156FlashBorrower",
          "name": "receiver",
          "type": "address"
        },
        {
          "internalType": "address",
          "name": "token",
          "type": "address"
        },
        {
          "internalType": "uint256",
          "name": "amount",
          "type": "uint256"
        },
        {
          "internalType": "bytes",
          "name": "data",
          "type": "bytes"
        }
      ],
      "name": "flashLoan",
      "outputs": [
        {
          "internalType": "bool",
          "name": "",
          "type": "bool"
        }
      ],
      "stateMutability": "nonpayable",
      "type": "function"
    },
    {
      "inputs": [],
      "name": "gasPool",
      "outputs": [
        {
          "internalType": "address",
          "name": "",
          "type": "address"
        }
      ],
      "stateMutability": "view",
      "type": "function"
    },
    {
      "inputs": [],
      "name": "guardian",
      "outputs": [
        {
          "internalType": "address",
          "name": "",
          "type": "address"
        }
      ],
      "stateMutability": "view",
      "type": "function"
    },
    {
      "inputs": [
        {
          "internalType": "address",
          "name": "",
          "type": "address"
        }
      ],
      "name": "lookers",
      "outputs": [
        {
          "internalType": "bool",
          "name": "",
          "type": "bool"
        }
      ],
      "stateMutability": "view",
      "type": "function"
    },
    {
      "inputs": [
        {
          "internalType": "address",
          "name": "token",
          "type": "address"
        }
      ],
      "name": "maxFlashLoan",
      "outputs": [
        {
          "internalType": "uint256",
          "name": "",
          "type": "uint256"
        }
      ],
      "stateMutability": "view",
      "type": "function"
    },
    {
      "inputs": [
        {
          "internalType": "address",
          "name": "_account",
          "type": "address"
        },
        {
          "internalType": "uint256",
          "name": "_amount",
          "type": "uint256"
        }
      ],
      "name": "mint",
      "outputs": [],
      "stateMutability": "nonpayable",
      "type": "function"
    },
    {
      "inputs": [
        {
          "internalType": "address",
          "name": "_account",
          "type": "address"
        },
        {
          "internalType": "uint256",
          "name": "_amount",
          "type": "uint256"
        }
      ],
      "name": "mintWithGasCompensation",
      "outputs": [
        {
          "internalType": "bool",
          "name": "",
          "type": "bool"
        }
      ],
      "stateMutability": "nonpayable",
      "type": "function"
    },
    {
      "inputs": [],
      "name": "name",
      "outputs": [
        {
          "internalType": "string",
          "name": "",
          "type": "string"
        }
      ],
      "stateMutability": "view",
      "type": "function"
    },
    {
      "inputs": [
        {
          "internalType": "address",
          "name": "owner",
          "type": "address"
        }
      ],
      "name": "nonces",
      "outputs": [
        {
          "internalType": "uint256",
          "name": "",
          "type": "uint256"
        }
      ],
      "stateMutability": "view",
      "type": "function"
    },
    {
      "inputs": [],
      "name": "owner",
      "outputs": [
        {
          "internalType": "address",
          "name": "",
          "type": "address"
        }
      ],
      "stateMutability": "view",
      "type": "function"
    },
    {
      "inputs": [
        {
          "internalType": "address",
          "name": "owner",
          "type": "address"
        },
        {
          "internalType": "address",
          "name": "spender",
          "type": "address"
        },
        {
          "internalType": "uint256",
          "name": "amount",
          "type": "uint256"
        },
        {
          "internalType": "uint256",
          "name": "deadline",
          "type": "uint256"
        },
        {
          "internalType": "uint8",
          "name": "v",
          "type": "uint8"
        },
        {
          "internalType": "bytes32",
          "name": "r",
          "type": "bytes32"
        },
        {
          "internalType": "bytes32",
          "name": "s",
          "type": "bytes32"
        }
      ],
      "name": "permit",
      "outputs": [],
      "stateMutability": "nonpayable",
      "type": "function"
    },
    {
      "inputs": [],
      "name": "permitTypeHash",
      "outputs": [
        {
          "internalType": "bytes32",
          "name": "",
          "type": "bytes32"
        }
      ],
      "stateMutability": "view",
      "type": "function"
    },
    {
      "inputs": [
        {
          "internalType": "address",
          "name": "_poolAddress",
          "type": "address"
        },
        {
          "internalType": "address",
          "name": "_receiver",
          "type": "address"
        },
        {
          "internalType": "uint256",
          "name": "_amount",
          "type": "uint256"
        }
      ],
      "name": "returnFromPool",
      "outputs": [],
      "stateMutability": "nonpayable",
      "type": "function"
    },
    {
      "inputs": [],
      "name": "secrecy",
      "outputs": [
        {
          "internalType": "bool",
          "name": "",
          "type": "bool"
        }
      ],
      "stateMutability": "view",
      "type": "function"
    },
    {
      "inputs": [
        {
          "internalType": "address",
          "name": "_sender",
          "type": "address"
        },
        {
          "internalType": "uint256",
          "name": "_amount",
          "type": "uint256"
        }
      ],
      "name": "sendToSP",
      "outputs": [],
      "stateMutability": "nonpayable",
      "type": "function"
    },
    {
      "inputs": [
        {
          "internalType": "address",
          "name": "_factory",
          "type": "address"
        },
        {
          "internalType": "address",
          "name": "_gasPool",
          "type": "address"
        },
        {
          "internalType": "address",
          "name": "_stabilityPoolAddress",
          "type": "address"
        },
        {
          "internalType": "address",
          "name": "_borrowerOperationsAddress",
          "type": "address"
        }
      ],
      "name": "setInitialParameters",
      "outputs": [],
      "stateMutability": "nonpayable",
      "type": "function"
    },
    {
      "inputs": [
        {
          "internalType": "address[]",
          "name": "_lookers",
          "type": "address[]"
        },
        {
          "internalType": "bool[]",
          "name": "_bools",
          "type": "bool[]"
        }
      ],
      "name": "setLookers",
      "outputs": [],
      "stateMutability": "nonpayable",
      "type": "function"
    },
    {
      "inputs": [
        {
          "internalType": "bool",
          "name": "_bool",
          "type": "bool"
        }
      ],
      "name": "setSecrecy",
      "outputs": [],
      "stateMutability": "nonpayable",
      "type": "function"
    },
    {
      "inputs": [],
      "name": "stabilityPoolAddress",
      "outputs": [
        {
          "internalType": "address",
          "name": "",
          "type": "address"
        }
      ],
      "stateMutability": "view",
      "type": "function"
    },
    {
      "inputs": [],
      "name": "symbol",
      "outputs": [
        {
          "internalType": "string",
          "name": "",
          "type": "string"
        }
      ],
      "stateMutability": "view",
      "type": "function"
    },
    {
      "inputs": [],
      "name": "totalSupply",
      "outputs": [
        {
          "internalType": "uint256",
          "name": "",
          "type": "uint256"
        }
      ],
      "stateMutability": "view",
      "type": "function"
    },
    {
      "inputs": [
        {
          "internalType": "address",
          "name": "recipient",
          "type": "address"
        },
        {
          "internalType": "uint256",
          "name": "amount",
          "type": "uint256"
        }
      ],
      "name": "transfer",
      "outputs": [
        {
          "internalType": "bool",
          "name": "",
          "type": "bool"
        }
      ],
      "stateMutability": "nonpayable",
      "type": "function"
    },
    {
      "inputs": [
        {
          "internalType": "address",
          "name": "sender",
          "type": "address"
        },
        {
          "internalType": "address",
          "name": "recipient",
          "type": "address"
        },
        {
          "internalType": "uint256",
          "name": "amount",
          "type": "uint256"
        }
      ],
      "name": "transferFrom",
      "outputs": [
        {
          "internalType": "bool",
          "name": "",
          "type": "bool"
        }
      ],
      "stateMutability": "nonpayable",
      "type": "function"
    },
    {
      "inputs": [
        {
          "internalType": "address",
          "name": "",
          "type": "address"
        }
      ],
      "name": "troveManager",
      "outputs": [
        {
          "internalType": "bool",
          "name": "",
          "type": "bool"
        }
      ],
      "stateMutability": "view",
      "type": "function"
    },
    {
      "inputs": [],
      "name": "version",
      "outputs": [
        {
          "internalType": "string",
          "name": "",
          "type": "string"
        }
      ],
      "stateMutability": "view",
      "type": "function"
    }
  ],
  "bytecode": "0x6101806040523480156200001257600080fd5b506040516200270d3803806200270d833981016040819052620000359162000262565b81848482600080516020620026ed8339815191527f498688c8830a05b5c89af9529f317a3dd9776f38725c568349192562e13e061e600080516020620026cd833981519152463060405160200162000092959493929190620002f5565b60408051601f1981840301815291905280516020909101206080526001600160a01b031660a0526005620000c78382620003b2565b506006620000d68282620003b2565b5050506001600160a01b038316610140525061016081905283516020808601919091206040805180820190915260018152603160f81b920191909152610100819052600080516020620026cd8339815191526101208190524660e0526200014e600080516020620026ed83398151915283836200015e565b60c052506200047e945050505050565b600083838346306040516020016200017b959493929190620002f5565b6040516020818303038152906040528051906020012090509392505050565b634e487b7160e01b600052604160045260246000fd5b600082601f830112620001c257600080fd5b81516001600160401b0380821115620001df57620001df6200019a565b604051601f8301601f19908116603f011681019082821181831017156200020a576200020a6200019a565b81604052838152602092508660208588010111156200022857600080fd5b600091505b838210156200024c57858201830151818301840152908201906200022d565b6000602085830101528094505050505092915050565b600080600080608085870312156200027957600080fd5b84516001600160401b03808211156200029157600080fd5b6200029f88838901620001b0565b95506020870151915080821115620002b657600080fd5b50620002c587828801620001b0565b604087015190945090506001600160a01b0381168114620002e557600080fd5b6060959095015193969295505050565b9485526020850193909352604084019190915260608301526001600160a01b0316608082015260a00190565b600181811c908216806200033657607f821691505b6020821081036200035757634e487b7160e01b600052602260045260246000fd5b50919050565b601f821115620003ad576000816000526020600020601f850160051c81016020861015620003885750805b601f850160051c820191505b81811015620003a95782815560010162000394565b5050505b505050565b81516001600160401b03811115620003ce57620003ce6200019a565b620003e681620003df845462000321565b846200035d565b602080601f8311600181146200041e5760008415620004055750858301515b600019600386901b1c1916600185901b178555620003a9565b600085815260208120601f198616915b828110156200044f578886015182559484019460019091019084016200042e565b50858210156200046e5787850151600019600388901b60f8161c191681555b5050505050600190811b01905550565b60805160a05160c05160e051610100516101205161014051610160516121b8620005156000396000818161036701528181610f5d015261110901526000610d740152600061157e01526000611559015260006114f00152600061151801526000818161044301528181610831015281816108b801528181610f8c015261113101526000818161031201526109d501526121b86000f3fe608060405234801561001057600080fd5b506004361061020f5760003560e01c806306fdde0314610214578063095ea7b3146102325780630b622ab21461025557806310ce43bd1461027557806317dd676d1461029857806318160ddd146102ad57806320c582be146102b557806323b872dd146102c8578063292527b0146102db578063313ce567146102fe5780633644e5151461030d57806340c10f1914610334578063452a932014610347578063486bfb601461034f5780634ba4a28b1461036257806354fd4d5014610389578063594eccb3146103a95780635cffe9de146103bc578063613255ab146103cf57806365801866146103e257806370a08231146103ef5780637b9f7b49146104025780637ecebe001461041557806382d61d161461043e578063851775091461046557806386d6f8ab146104785780638cff5fbe1461048b5780638da5cb5b1461049e5780638ffaacaa146104a657806395d89b41146104ae57806396b86c66146104b65780639dc29fac146104c9578063a49d3993146104dc578063a9059cbb146104ff578063b7f8cf9b14610512578063c45a015514610525578063c7977be714610538578063c7d480fb1461054d578063d505accf14610577578063d9d98ce41461058a578063dd62ed3e1461059d578063e75b3ae7146105b0578063f01593a9146105c3578063f698da25146105f9578063fa08b03814610601575b600080fd5b61021c610614565b60405161022991906119ff565b60405180910390f35b610245610240366004611a63565b6106a6565b6040519015158152602001610229565b600854610268906001600160a01b031681565b6040516102299190611a8f565b61028a60008051602061212383398151915281565b604051908152602001610229565b6102ab6102a6366004611aa3565b6106c0565b005b60045461028a565b6102ab6102c3366004611ac0565b610717565b6102456102d6366004611ac0565b610794565b6102456102e9366004611aa3565b60026020526000908152604090205460ff1681565b60405160128152602001610229565b61028a7f000000000000000000000000000000000000000000000000000000000000000081565b6102ab610342366004611a63565b6107b2565b61026861082d565b6102ab61035d366004611b16565b6108b6565b61028a7f000000000000000000000000000000000000000000000000000000000000000081565b61021c604051806040016040528060018152602001603160f81b81525081565b61028a6103b7366004611b31565b61097b565b6102456103ca366004611b49565b610b81565b61028a6103dd366004611aa3565b610e07565b6003546102459060ff1681565b61028a6103fd366004611aa3565b610e2f565b6102ab610410366004611be7565b610eb0565b61028a610423366004611aa3565b6001600160a01b031660009081526007602052604090205490565b6102687f000000000000000000000000000000000000000000000000000000000000000081565b610245610473366004611a63565b610f27565b6102ab610486366004611d22565b610f8a565b610245610499366004611a63565b6110d3565b61026861112d565b61028a600981565b61021c61118d565b6102ab6104c4366004611aa3565b61119c565b6102ab6104d7366004611a63565b6111e7565b6102456104ea366004611aa3565b600c6020526000908152604090205460ff1681565b61024561050d366004611a63565b611250565b600954610268906001600160a01b031681565b600a54610268906001600160a01b031681565b61028a60008051602061214383398151915281565b61021c60405180604001604052806020815260200160008051602061210383398151915281525081565b6102ab610585366004611de3565b61126c565b61028a610598366004611a63565b61143a565b61028a6105ab366004611e5a565b61145c565b6102ab6105be366004611a63565b611487565b60408051808201909152602080825260008051602061210383398151915291015261028a60008051602061216383398151915281565b61028a6114ec565b600b54610268906001600160a01b031681565b60606005805461062390611e93565b80601f016020809104026020016040519081016040528092919081815260200182805461064f90611e93565b801561069c5780601f106106715761010080835404028352916020019161069c565b820191906000526020600020905b81548152906001019060200180831161067f57829003601f168201915b5050505050905090565b6000336106b48185856115cc565b60019150505b92915050565b600a546001600160a01b031633146106f35760405162461bcd60e51b81526004016106ea90611ec7565b60405180910390fd5b6001600160a01b03166000908152600c60205260409020805460ff19166001179055565b6008546001600160a01b031633148061073f5750336000908152600c602052604090205460ff165b6107845760405162461bcd60e51b81526020600482015260166024820152750446562743a2043616c6c6572206e6f7420544d2f53560541b60448201526064016106ea565b61078f8383836115d9565b505050565b600061079f83611638565b6107aa8484846117aa565b949350505050565b6009546001600160a01b03163314806107da5750336000908152600c602052604090205460ff165b61081f5760405162461bcd60e51b8152602060048201526016602482015275446562743a2043616c6c6572206e6f7420424f2f544d60501b60448201526064016106ea565b61082982826117ce565b5050565b60007f00000000000000000000000000000000000000000000000000000000000000006001600160a01b031663452a93206040518163ffffffff1660e01b8152600401602060405180830381865afa15801561088d573d6000803e3d6000fd5b505050506040513d601f19601f820116820180604052508101906108b19190611ee9565b905090565b7f00000000000000000000000000000000000000000000000000000000000000006001600160a01b0316638da5cb5b6040518163ffffffff1660e01b8152600401602060405180830381865afa158015610914573d6000803e3d6000fd5b505050506040513d601f19601f820116820180604052508101906109389190611ee9565b6001600160a01b0316336001600160a01b0316146109685760405162461bcd60e51b81526004016106ea90611f06565b6003805460ff1916911515919091179055565b60008161098b6201518042611f40565b61099b6040830160208401611f53565b63ffffffff16116109ab57600080fd5b604080518082019091526020808252600080516020612103833981519152918101919091526000907f00000000000000000000000000000000000000000000000000000000000000009060008051602061216383398151915290610a1190850185611aa3565b610a216040860160208701611f53565b604051602001610a53939291909283526001600160a01b0391909116602083015263ffffffff16604082015260600190565b60405160208183030381529060405280519060200120604051602001610a7a929190611f79565b60408051601f198184030181528282528051602091820120600080855293909101808352909350600191610ac09185916080880135919088013590606089013590611f94565b6020604051602081039080840390855afa158015610ae2573d6000803e3d6000fd5b5050604051601f1901519150506001600160a01b038116610b066020850185611aa3565b6001600160a01b031614610b4e5760405162461bcd60e51b815260206004820152600f60248201526e24b73b30b634b21029b4b3b716a4b760891b60448201526064016106ea565b600080610b5e6020880188611aa3565b6001600160a01b0316815260208101919091526040016000205495945050505050565b60006001600160a01b0385163014610bd95760405162461bcd60e51b815260206004820152601b60248201527a22a9219918233630b9b426b4b73a1d103bb937b733903a37b5b2b760291b60448201526064016106ea565b610be285610e07565b841115610c455760405162461bcd60e51b815260206004820152602b60248201527f4552433230466c6173684d696e743a20616d6f756e742065786365656473206d60448201526a30bc233630b9b42637b0b760a91b60648201526084016106ea565b6000610c5085611804565b9050610c5c87866117ce565b6040516323e30c8b60e01b81527f439148f0bbc682ca079e46d6e2c2f0c1e3b820f1a291b069d8882abf8cf18dd9906001600160a01b038916906323e30c8b90610cb49033908b908b9088908c908c90600401611fb2565b6020604051808303816000875af1158015610cd3573d6000803e3d6000fd5b505050506040513d601f19601f82011682018060405250810190610cf7919061200e565b14610d505760405162461bcd60e51b8152602060048201526024808201527f4552433230466c6173684d696e743a20696e76616c69642072657475726e2076604482015263616c756560e01b60648201526084016106ea565b610d648730610d5f8489612027565b61181e565b610d6e8786611871565b610dfa877f00000000000000000000000000000000000000000000000000000000000000006001600160a01b031663b3f006746040518163ffffffff1660e01b8152600401602060405180830381865afa158015610dd0573d6000803e3d6000fd5b505050506040513d601f19601f82011682018060405250810190610df49190611ee9565b836115d9565b5060019695505050505050565b60006001600160a01b0382163014610e205760006106ba565b6004546106ba90600019611f40565b60035460009060ff1615610e94573360009081526002602052604090205460ff1680610e6357506001600160a01b03821633145b610e945760405162461bcd60e51b81526020600482015260026024820152614e4160f01b60448201526064016106ea565b506001600160a01b031660009081526020819052604090205490565b600a546001600160a01b0316158015610ed157506001600160a01b03841615155b610eda57600080fd5b600880546001600160a01b03199081166001600160a01b039485161790915560098054821692841692909217909155600a8054821694831694909417909355600b80549093169116179055565b6009546000906001600160a01b03163314610f4157600080fd5b610f4b8383611871565b600b54610f81906001600160a01b03167f0000000000000000000000000000000000000000000000000000000000000000611871565b50600192915050565b7f00000000000000000000000000000000000000000000000000000000000000006001600160a01b0316638da5cb5b6040518163ffffffff1660e01b8152600401602060405180830381865afa158015610fe8573d6000803e3d6000fd5b505050506040513d601f19601f8201168201806040525081019061100c9190611ee9565b6001600160a01b0316336001600160a01b03161461103c5760405162461bcd60e51b81526004016106ea90611f06565b805182511461104a57600080fd5b60005b82518160ff16101561078f57818160ff168151811061106e5761106e61203a565b602002602001015160026000858460ff168151811061108f5761108f61203a565b6020908102919091018101516001600160a01b03168252810191909152604001600020805460ff1916911515919091179055806110cb81612050565b91505061104d565b6009546000906001600160a01b031633146110ed57600080fd5b6110f783836117ce565b600b54610f81906001600160a01b03167f00000000000000000000000000000000000000000000000000000000000000006117ce565b60007f00000000000000000000000000000000000000000000000000000000000000006001600160a01b0316638da5cb5b6040518163ffffffff1660e01b8152600401602060405180830381865afa15801561088d573d6000803e3d6000fd5b60606006805461062390611e93565b600a546001600160a01b031633146111c65760405162461bcd60e51b81526004016106ea90611ec7565b6001600160a01b03166000908152600c60205260409020805460ff19169055565b336000908152600c602052604090205460ff166112465760405162461bcd60e51b815260206004820152601d60248201527f446562743a2043616c6c6572206e6f742054726f76654d616e6167657200000060448201526064016106ea565b6108298282611871565b600061125b83611638565b61126583836118a7565b9392505050565b428410156112b55760405162461bcd60e51b8152602060048201526016602482015275446562743a206578706972656420646561646c696e6560501b60448201526064016106ea565b60006112bf6114ec565b6001600160a01b03891660009081526007602052604081208054600080516020612123833981519152928c928c928c929091906112fb8361206f565b909155506040805160208101969096526001600160a01b0394851690860152929091166060840152608083015260a082015260c0810187905260e0016040516020818303038152906040528051906020012060405160200161135e929190611f79565b60405160208183030381529060405280519060200120905060006001828686866040516000815260200160405260405161139b9493929190611f94565b6020604051602081039080840390855afa1580156113bd573d6000803e3d6000fd5b505050602060405103519050886001600160a01b0316816001600160a01b0316146114245760405162461bcd60e51b8152602060048201526017602482015276446562743a20696e76616c6964207369676e617475726560481b60448201526064016106ea565b61142f8989896115cc565b505050505050505050565b60006001600160a01b0383163014611453576000611265565b61126582611804565b6001600160a01b03918216600090815260016020908152604080832093909416825291909152205490565b6008546001600160a01b031633146114e15760405162461bcd60e51b815260206004820152601e60248201527f446562743a2043616c6c6572206e6f742053746162696c697479506f6f6c000060448201526064016106ea565b6108298233836115d9565b60007f0000000000000000000000000000000000000000000000000000000000000000460361153a57507f000000000000000000000000000000000000000000000000000000000000000090565b50604080516000805160206121438339815191526020808301919091527f0000000000000000000000000000000000000000000000000000000000000000828401527f000000000000000000000000000000000000000000000000000000000000000060608301524660808301523060a0808401919091528351808403909101815260c0909201909252805191012090565b61078f83838360016118b5565b6001600160a01b038316611603576000604051634b637e8f60e11b81526004016106ea9190611a8f565b6001600160a01b03821661162d57600060405163ec442f0560e01b81526004016106ea9190611a8f565b61078f838383611936565b6001600160a01b0381161580159061165957506001600160a01b0381163014155b6116d65760405162461bcd60e51b815260206004820152605460248201526000805160206120e383398151915260448201527f6563746c7920746f20746865204465627420746f6b656e20636f6e7472616374606482015273206f7220746865207a65726f206164647265737360601b608482015260a4016106ea565b6008546001600160a01b0382811691161480159061170d57506001600160a01b0381166000908152600c602052604090205460ff16155b801561172757506009546001600160a01b03828116911614155b6117a75760405162461bcd60e51b815260206004820152605760248201526000805160206120e383398151915260448201527f6563746c7920746f207468652053746162696c697479506f6f6c2c2054726f76606482015276654d616e61676572206f7220426f72726f7765724f707360481b608482015260a4016106ea565b50565b6000336117b885828561181e565b6117c38585856115d9565b506001949350505050565b6001600160a01b0382166117f857600060405163ec442f0560e01b81526004016106ea9190611a8f565b61082960008383611936565b6000612710611814600984612088565b6106ba919061209f565b600061182a848461145c565b9050600019811461186b578181101561185c57828183604051637dc7a0d960e11b81526004016106ea939291906120c1565b61186b848484840360006118b5565b50505050565b6001600160a01b03821661189b576000604051634b637e8f60e11b81526004016106ea9190611a8f565b61082982600083611936565b6000336106b48185856115d9565b6001600160a01b0384166118df57600060405163e602df0560e01b81526004016106ea9190611a8f565b6001600160a01b038316611909576000604051634a1406b160e11b81526004016106ea9190611a8f565b506001600160a01b0392831660009081526001602090815260408083209490951682529290925291902055565b6001600160a01b0383166119615780600460008282546119569190612027565b909155506119c09050565b6001600160a01b038316600090815260208190526040902054818110156119a15783818360405163391434e360e21b81526004016106ea939291906120c1565b6001600160a01b03841660009081526020819052604090209082900390555b6001600160a01b0382166119dc57600480548290039055505050565b6001600160a01b0382166000908152602081905260409020805482019055505050565b60006020808352835180602085015260005b81811015611a2d57858101830151858201604001528201611a11565b506000604082860101526040601f19601f8301168501019250505092915050565b6001600160a01b03811681146117a757600080fd5b60008060408385031215611a7657600080fd5b8235611a8181611a4e565b946020939093013593505050565b6001600160a01b0391909116815260200190565b600060208284031215611ab557600080fd5b813561126581611a4e565b600080600060608486031215611ad557600080fd5b8335611ae081611a4e565b92506020840135611af081611a4e565b929592945050506040919091013590565b80358015158114611b1157600080fd5b919050565b600060208284031215611b2857600080fd5b61126582611b01565b600060a08284031215611b4357600080fd5b50919050565b600080600080600060808688031215611b6157600080fd5b8535611b6c81611a4e565b94506020860135611b7c81611a4e565b93506040860135925060608601356001600160401b0380821115611b9f57600080fd5b818801915088601f830112611bb357600080fd5b813581811115611bc257600080fd5b896020828501011115611bd457600080fd5b9699959850939650602001949392505050565b60008060008060808587031215611bfd57600080fd5b8435611c0881611a4e565b93506020850135611c1881611a4e565b92506040850135611c2881611a4e565b91506060850135611c3881611a4e565b939692955090935050565b634e487b7160e01b600052604160045260246000fd5b604051601f8201601f191681016001600160401b0381118282101715611c8157611c81611c43565b604052919050565b60006001600160401b03821115611ca257611ca2611c43565b5060051b60200190565b600082601f830112611cbd57600080fd5b81356020611cd2611ccd83611c89565b611c59565b8083825260208201915060208460051b870101935086841115611cf457600080fd5b602086015b84811015611d1757611d0a81611b01565b8352918301918301611cf9565b509695505050505050565b60008060408385031215611d3557600080fd5b82356001600160401b0380821115611d4c57600080fd5b818501915085601f830112611d6057600080fd5b81356020611d70611ccd83611c89565b82815260059290921b84018101918181019089841115611d8f57600080fd5b948201945b83861015611db6578535611da781611a4e565b82529482019490820190611d94565b96505086013592505080821115611dcc57600080fd5b50611dd985828601611cac565b9150509250929050565b600080600080600080600060e0888a031215611dfe57600080fd5b8735611e0981611a4e565b96506020880135611e1981611a4e565b95506040880135945060608801359350608088013560ff81168114611e3d57600080fd5b9699959850939692959460a0840135945060c09093013592915050565b60008060408385031215611e6d57600080fd5b8235611e7881611a4e565b91506020830135611e8881611a4e565b809150509250929050565b600181811c90821680611ea757607f821691505b602082108103611b4357634e487b7160e01b600052602260045260246000fd5b60208082526008908201526721466163746f727960c01b604082015260600190565b600060208284031215611efb57600080fd5b815161126581611a4e565b6020808252600a908201526927b7363c9037bbb732b960b11b604082015260600190565b634e487b7160e01b600052601160045260246000fd5b818103818111156106ba576106ba611f2a565b600060208284031215611f6557600080fd5b813563ffffffff8116811461126557600080fd5b61190160f01b81526002810192909252602282015260420190565b93845260ff9290921660208401526040830152606082015260800190565b6001600160a01b03878116825286166020820152604081018590526060810184905260a06080820181905281018290526000828460c0840137600060c0848401015260c0601f19601f8501168301019050979650505050505050565b60006020828403121561202057600080fd5b5051919050565b808201808211156106ba576106ba611f2a565b634e487b7160e01b600052603260045260246000fd5b600060ff821660ff810361206657612066611f2a565b60010192915050565b60006001820161208157612081611f2a565b5060010190565b80820281158282048414176106ba576106ba611f2a565b6000826120bc57634e487b7160e01b600052601260045260246000fd5b500490565b6001600160a01b03939093168352602083019190915260408201526060019056fe446562743a2043616e6e6f74207472616e7366657220746f6b656e73206469725369676e496e286164647265737320757365722c75696e7433322074696d65296e71edae12b1b97f4d1f60370fef10105fa2faae0126114a169c64845d6126c98b73c3c69bb8fe3d512ecc4cf759cc79239f7b179b0ffacaa9a75d522b39400f9657dff2c7dcf78271f0cea8adb51884cbbe5b03e28f5cd0a029d26b995149d1a2646970667358221220a4c7ec8106825768aa37aae7d5dcbe8f2a51f7d7718deac2dfc5ef559a59f35264736f6c63430008160033c89efdaa54c0f20c7adf612882df0950f5a951637e0307cdcb4c672f298b8bc68b73c3c69bb8fe3d512ecc4cf759cc79239f7b179b0ffacaa9a75d522b39400f",
  "linkReferences": {},
  "deployedLinkReferences": {}
}