{
  "_format": "hh-sol-artifact-1",
  "contractName": "StabilityPool",
  "sourceName": "contracts/core/StabilityPool.sol",
  "abi": [
    {
      "inputs": [
        {
          "internalType": "address",
          "name": "_vineCore",
          "type": "address"
        },
        {
          "internalType": "contract IDebtToken",
          "name": "_debtTokenAddress",
          "type": "address"
        },
        {
          "internalType": "address",
          "name": "_factory",
          "type": "address"
        }
      ],
      "stateMutability": "nonpayable",
      "type": "constructor"
    },
    {
      "inputs": [
        {
          "internalType": "address",
          "name": "target",
          "type": "address"
        }
      ],
      "name": "AddressEmptyCode",
      "type": "error"
    },
    {
      "inputs": [
        {
          "internalType": "address",
          "name": "account",
          "type": "address"
        }
      ],
      "name": "AddressInsufficientBalance",
      "type": "error"
    },
    {
      "inputs": [],
      "name": "FailedInnerCall",
      "type": "error"
    },
    {
      "inputs": [
        {
          "internalType": "address",
          "name": "token",
          "type": "address"
        }
      ],
      "name": "SafeERC20FailedOperation",
      "type": "error"
    },
    {
      "anonymous": false,
      "inputs": [
        {
          "indexed": true,
          "internalType": "address",
          "name": "_depositor",
          "type": "address"
        },
        {
          "indexed": false,
          "internalType": "uint256[]",
          "name": "_collateral",
          "type": "uint256[]"
        }
      ],
      "name": "CollateralGainWithdrawn",
      "type": "event"
    },
    {
      "anonymous": false,
      "inputs": [
        {
          "indexed": false,
          "internalType": "contract IERC20",
          "name": "oldCollateral",
          "type": "address"
        },
        {
          "indexed": false,
          "internalType": "contract IERC20",
          "name": "newCollateral",
          "type": "address"
        }
      ],
      "name": "CollateralOverwritten",
      "type": "event"
    },
    {
      "anonymous": false,
      "inputs": [
        {
          "indexed": true,
          "internalType": "address",
          "name": "_depositor",
          "type": "address"
        },
        {
          "indexed": false,
          "internalType": "uint256",
          "name": "_P",
          "type": "uint256"
        },
        {
          "indexed": false,
          "internalType": "uint256",
          "name": "_G",
          "type": "uint256"
        }
      ],
      "name": "DepositSnapshotUpdated",
      "type": "event"
    },
    {
      "anonymous": false,
      "inputs": [
        {
          "indexed": false,
          "internalType": "uint128",
          "name": "_currentEpoch",
          "type": "uint128"
        }
      ],
      "name": "EpochUpdated",
      "type": "event"
    },
    {
      "anonymous": false,
      "inputs": [
        {
          "indexed": false,
          "internalType": "uint256",
          "name": "_G",
          "type": "uint256"
        },
        {
          "indexed": false,
          "internalType": "uint128",
          "name": "_epoch",
          "type": "uint128"
        },
        {
          "indexed": false,
          "internalType": "uint128",
          "name": "_scale",
          "type": "uint128"
        }
      ],
      "name": "G_Updated",
      "type": "event"
    },
    {
      "anonymous": false,
      "inputs": [
        {
          "indexed": false,
          "internalType": "uint256",
          "name": "_P",
          "type": "uint256"
        }
      ],
      "name": "P_Updated",
      "type": "event"
    },
    {
      "anonymous": false,
      "inputs": [
        {
          "indexed": true,
          "internalType": "address",
          "name": "account",
          "type": "address"
        },
        {
          "indexed": true,
          "internalType": "address",
          "name": "recipient",
          "type": "address"
        },
        {
          "indexed": false,
          "internalType": "uint256",
          "name": "claimed",
          "type": "uint256"
        }
      ],
      "name": "RewardClaimed",
      "type": "event"
    },
    {
      "anonymous": false,
      "inputs": [
        {
          "indexed": false,
          "internalType": "uint256",
          "name": "idx",
          "type": "uint256"
        },
        {
          "indexed": false,
          "internalType": "uint256",
          "name": "_S",
          "type": "uint256"
        },
        {
          "indexed": false,
          "internalType": "uint128",
          "name": "_epoch",
          "type": "uint128"
        },
        {
          "indexed": false,
          "internalType": "uint128",
          "name": "_scale",
          "type": "uint128"
        }
      ],
      "name": "S_Updated",
      "type": "event"
    },
    {
      "anonymous": false,
      "inputs": [
        {
          "indexed": false,
          "internalType": "uint128",
          "name": "_currentScale",
          "type": "uint128"
        }
      ],
      "name": "ScaleUpdated",
      "type": "event"
    },
    {
      "anonymous": false,
      "inputs": [
        {
          "indexed": false,
          "internalType": "uint256",
          "name": "_newBalance",
          "type": "uint256"
        }
      ],
      "name": "StabilityPoolDebtBalanceUpdated",
      "type": "event"
    },
    {
      "anonymous": false,
      "inputs": [
        {
          "indexed": true,
          "internalType": "address",
          "name": "_depositor",
          "type": "address"
        },
        {
          "indexed": false,
          "internalType": "uint256",
          "name": "_newDeposit",
          "type": "uint256"
        }
      ],
      "name": "UserDepositChanged",
      "type": "event"
    },
    {
      "inputs": [],
      "name": "DECIMAL_PRECISION",
      "outputs": [
        {
          "internalType": "uint256",
          "name": "",
          "type": "uint256"
        }
      ],
      "stateMutability": "view",
      "type": "function"
    },
    {
      "inputs": [],
      "name": "P",
      "outputs": [
        {
          "internalType": "uint256",
          "name": "",
          "type": "uint256"
        }
      ],
      "stateMutability": "view",
      "type": "function"
    },
    {
      "inputs": [],
      "name": "SCALE_FACTOR",
      "outputs": [
        {
          "internalType": "uint256",
          "name": "",
          "type": "uint256"
        }
      ],
      "stateMutability": "view",
      "type": "function"
    },
    {
      "inputs": [],
      "name": "SUNSET_DURATION",
      "outputs": [
        {
          "internalType": "uint128",
          "name": "",
          "type": "uint128"
        }
      ],
      "stateMutability": "view",
      "type": "function"
    },
    {
      "inputs": [],
      "name": "VINE_CORE",
      "outputs": [
        {
          "internalType": "contract IVineCore",
          "name": "",
          "type": "address"
        }
      ],
      "stateMutability": "view",
      "type": "function"
    },
    {
      "inputs": [
        {
          "internalType": "address",
          "name": "",
          "type": "address"
        }
      ],
      "name": "accountDeposits",
      "outputs": [
        {
          "internalType": "uint128",
          "name": "amount",
          "type": "uint128"
        },
        {
          "internalType": "uint128",
          "name": "timestamp",
          "type": "uint128"
        }
      ],
      "stateMutability": "view",
      "type": "function"
    },
    {
      "inputs": [
        {
          "internalType": "address",
          "name": "recipient",
          "type": "address"
        },
        {
          "internalType": "uint256[]",
          "name": "collateralIndexes",
          "type": "uint256[]"
        }
      ],
      "name": "claimCollateralGains",
      "outputs": [],
      "stateMutability": "nonpayable",
      "type": "function"
    },
    {
      "inputs": [
        {
          "internalType": "address",
          "name": "recipient",
          "type": "address"
        }
      ],
      "name": "claimReward",
      "outputs": [
        {
          "internalType": "uint256",
          "name": "amount",
          "type": "uint256"
        }
      ],
      "stateMutability": "nonpayable",
      "type": "function"
    },
    {
      "inputs": [
        {
          "internalType": "address",
          "name": "_depositor",
          "type": "address"
        }
      ],
      "name": "claimableReward",
      "outputs": [
        {
          "internalType": "uint256",
          "name": "",
          "type": "uint256"
        }
      ],
      "stateMutability": "view",
      "type": "function"
    },
    {
      "inputs": [
        {
          "internalType": "address",
          "name": "depositor",
          "type": "address"
        },
        {
          "internalType": "uint256",
          "name": "",
          "type": "uint256"
        }
      ],
      "name": "collateralGainsByDepositor",
      "outputs": [
        {
          "internalType": "uint80",
          "name": "gains",
          "type": "uint80"
        }
      ],
      "stateMutability": "view",
      "type": "function"
    },
    {
      "inputs": [
        {
          "internalType": "uint256",
          "name": "",
          "type": "uint256"
        }
      ],
      "name": "collateralTokens",
      "outputs": [
        {
          "internalType": "contract IERC20",
          "name": "",
          "type": "address"
        }
      ],
      "stateMutability": "view",
      "type": "function"
    },
    {
      "inputs": [],
      "name": "currentEpoch",
      "outputs": [
        {
          "internalType": "uint128",
          "name": "",
          "type": "uint128"
        }
      ],
      "stateMutability": "view",
      "type": "function"
    },
    {
      "inputs": [],
      "name": "currentScale",
      "outputs": [
        {
          "internalType": "uint128",
          "name": "",
          "type": "uint128"
        }
      ],
      "stateMutability": "view",
      "type": "function"
    },
    {
      "inputs": [],
      "name": "debtToken",
      "outputs": [
        {
          "internalType": "contract IDebtToken",
          "name": "",
          "type": "address"
        }
      ],
      "stateMutability": "view",
      "type": "function"
    },
    {
      "inputs": [
        {
          "internalType": "address",
          "name": "",
          "type": "address"
        }
      ],
      "name": "depositSnapshots",
      "outputs": [
        {
          "internalType": "uint256",
          "name": "P",
          "type": "uint256"
        },
        {
          "internalType": "uint256",
          "name": "G",
          "type": "uint256"
        },
        {
          "internalType": "uint128",
          "name": "scale",
          "type": "uint128"
        },
        {
          "internalType": "uint128",
          "name": "epoch",
          "type": "uint128"
        }
      ],
      "stateMutability": "view",
      "type": "function"
    },
    {
      "inputs": [
        {
          "internalType": "address",
          "name": "",
          "type": "address"
        },
        {
          "internalType": "uint256",
          "name": "",
          "type": "uint256"
        }
      ],
      "name": "depositSums",
      "outputs": [
        {
          "internalType": "uint256",
          "name": "",
          "type": "uint256"
        }
      ],
      "stateMutability": "view",
      "type": "function"
    },
    {
      "inputs": [],
      "name": "emissionId",
      "outputs": [
        {
          "internalType": "uint256",
          "name": "",
          "type": "uint256"
        }
      ],
      "stateMutability": "view",
      "type": "function"
    },
    {
      "inputs": [
        {
          "internalType": "contract IERC20",
          "name": "_collateral",
          "type": "address"
        }
      ],
      "name": "enableCollateral",
      "outputs": [],
      "stateMutability": "nonpayable",
      "type": "function"
    },
    {
      "inputs": [
        {
          "internalType": "uint128",
          "name": "",
          "type": "uint128"
        },
        {
          "internalType": "uint128",
          "name": "",
          "type": "uint128"
        }
      ],
      "name": "epochToScaleToG",
      "outputs": [
        {
          "internalType": "uint256",
          "name": "",
          "type": "uint256"
        }
      ],
      "stateMutability": "view",
      "type": "function"
    },
    {
      "inputs": [
        {
          "internalType": "uint128",
          "name": "",
          "type": "uint128"
        },
        {
          "internalType": "uint128",
          "name": "",
          "type": "uint128"
        },
        {
          "internalType": "uint256",
          "name": "",
          "type": "uint256"
        }
      ],
      "name": "epochToScaleToSums",
      "outputs": [
        {
          "internalType": "uint256",
          "name": "",
          "type": "uint256"
        }
      ],
      "stateMutability": "view",
      "type": "function"
    },
    {
      "inputs": [],
      "name": "factory",
      "outputs": [
        {
          "internalType": "address",
          "name": "",
          "type": "address"
        }
      ],
      "stateMutability": "view",
      "type": "function"
    },
    {
      "inputs": [
        {
          "internalType": "address",
          "name": "_depositor",
          "type": "address"
        }
      ],
      "name": "getCompoundedDebtDeposit",
      "outputs": [
        {
          "internalType": "uint256",
          "name": "",
          "type": "uint256"
        }
      ],
      "stateMutability": "view",
      "type": "function"
    },
    {
      "inputs": [
        {
          "internalType": "address",
          "name": "_depositor",
          "type": "address"
        }
      ],
      "name": "getDepositorCollateralGain",
      "outputs": [
        {
          "internalType": "uint256[]",
          "name": "collateralGains",
          "type": "uint256[]"
        }
      ],
      "stateMutability": "view",
      "type": "function"
    },
    {
      "inputs": [],
      "name": "getTotalDebtTokenDeposits",
      "outputs": [
        {
          "internalType": "uint256",
          "name": "",
          "type": "uint256"
        }
      ],
      "stateMutability": "view",
      "type": "function"
    },
    {
      "inputs": [],
      "name": "getWeek",
      "outputs": [
        {
          "internalType": "uint256",
          "name": "week",
          "type": "uint256"
        }
      ],
      "stateMutability": "view",
      "type": "function"
    },
    {
      "inputs": [],
      "name": "guardian",
      "outputs": [
        {
          "internalType": "address",
          "name": "",
          "type": "address"
        }
      ],
      "stateMutability": "view",
      "type": "function"
    },
    {
      "inputs": [
        {
          "internalType": "contract IERC20",
          "name": "collateral",
          "type": "address"
        }
      ],
      "name": "indexByCollateral",
      "outputs": [
        {
          "internalType": "uint256",
          "name": "index",
          "type": "uint256"
        }
      ],
      "stateMutability": "view",
      "type": "function"
    },
    {
      "inputs": [
        {
          "internalType": "uint256",
          "name": "",
          "type": "uint256"
        }
      ],
      "name": "lastCollateralError_Offset",
      "outputs": [
        {
          "internalType": "uint256",
          "name": "",
          "type": "uint256"
        }
      ],
      "stateMutability": "view",
      "type": "function"
    },
    {
      "inputs": [],
      "name": "lastDebtLossError_Offset",
      "outputs": [
        {
          "internalType": "uint256",
          "name": "",
          "type": "uint256"
        }
      ],
      "stateMutability": "view",
      "type": "function"
    },
    {
      "inputs": [],
      "name": "lastUpdate",
      "outputs": [
        {
          "internalType": "uint32",
          "name": "",
          "type": "uint32"
        }
      ],
      "stateMutability": "view",
      "type": "function"
    },
    {
      "inputs": [],
      "name": "lastVineError",
      "outputs": [
        {
          "internalType": "uint256",
          "name": "",
          "type": "uint256"
        }
      ],
      "stateMutability": "view",
      "type": "function"
    },
    {
      "inputs": [],
      "name": "liquidationManager",
      "outputs": [
        {
          "internalType": "address",
          "name": "",
          "type": "address"
        }
      ],
      "stateMutability": "view",
      "type": "function"
    },
    {
      "inputs": [
        {
          "internalType": "contract IERC20",
          "name": "collateral",
          "type": "address"
        },
        {
          "internalType": "uint256",
          "name": "_debtToOffset",
          "type": "uint256"
        },
        {
          "internalType": "uint256",
          "name": "_collToAdd",
          "type": "uint256"
        }
      ],
      "name": "offset",
      "outputs": [],
      "stateMutability": "nonpayable",
      "type": "function"
    },
    {
      "inputs": [],
      "name": "owner",
      "outputs": [
        {
          "internalType": "address",
          "name": "",
          "type": "address"
        }
      ],
      "stateMutability": "view",
      "type": "function"
    },
    {
      "inputs": [],
      "name": "periodFinish",
      "outputs": [
        {
          "internalType": "uint32",
          "name": "",
          "type": "uint32"
        }
      ],
      "stateMutability": "view",
      "type": "function"
    },
    {
      "inputs": [
        {
          "internalType": "uint256",
          "name": "_amount",
          "type": "uint256"
        }
      ],
      "name": "provideToSP",
      "outputs": [],
      "stateMutability": "nonpayable",
      "type": "function"
    },
    {
      "inputs": [],
      "name": "rewardRate",
      "outputs": [
        {
          "internalType": "uint128",
          "name": "",
          "type": "uint128"
        }
      ],
      "stateMutability": "view",
      "type": "function"
    },
    {
      "inputs": [
        {
          "internalType": "contract IVineVault",
          "name": "_vault",
          "type": "address"
        },
        {
          "internalType": "address",
          "name": "_liquidationManager",
          "type": "address"
        }
      ],
      "name": "setInitialParameters",
      "outputs": [],
      "stateMutability": "nonpayable",
      "type": "function"
    },
    {
      "inputs": [
        {
          "internalType": "contract IERC20",
          "name": "collateral",
          "type": "address"
        }
      ],
      "name": "startCollateralSunset",
      "outputs": [],
      "stateMutability": "nonpayable",
      "type": "function"
    },
    {
      "inputs": [],
      "name": "vault",
      "outputs": [
        {
          "internalType": "contract IVineVault",
          "name": "",
          "type": "address"
        }
      ],
      "stateMutability": "view",
      "type": "function"
    },
    {
      "inputs": [
        {
          "internalType": "address",
          "name": "claimant",
          "type": "address"
        },
        {
          "internalType": "address",
          "name": "",
          "type": "address"
        }
      ],
      "name": "vaultClaimReward",
      "outputs": [
        {
          "internalType": "uint256",
          "name": "amount",
          "type": "uint256"
        }
      ],
      "stateMutability": "nonpayable",
      "type": "function"
    },
    {
      "inputs": [
        {
          "internalType": "uint256",
          "name": "_amount",
          "type": "uint256"
        }
      ],
      "name": "withdrawFromSP",
      "outputs": [],
      "stateMutability": "nonpayable",
      "type": "function"
    },
    {
      "stateMutability": "payable",
      "type": "receive"
    }
  ],
  "bytecode": "0x610100604052670de0b6b3a7640000600b553480156200001e57600080fd5b50604051620037793803806200377983398101604081905262000041916200011a565b6001600160a01b0383166080819052604080516378e9792560e01b815290518592916378e979259160048083019260209291908290030181865afa1580156200008e573d6000803e3d6000fd5b505050506040513d601f19601f82011682018060405250810190620000b491906200016e565b60a052506001600160a01b0380831660c052811660e052620000d860014262000188565b600260146101000a81548163ffffffff021916908363ffffffff160217905550505050620001b0565b6001600160a01b03811681146200011757600080fd5b50565b6000806000606084860312156200013057600080fd5b83516200013d8162000101565b6020850151909350620001508162000101565b6040850151909250620001638162000101565b809150509250925092565b6000602082840312156200018157600080fd5b5051919050565b81810381811115620001aa57634e487b7160e01b600052601160045260246000fd5b92915050565b60805160a05160c05160e051613557620002226000396000818161065a01526108530152600081816107c001528181610e6801526115620152600081816116910152611e4501526000818161046101528181610b1e015281816111cc0152818161140101526116c401526135576000f3fe6080604052600436106101e55760003560e01c806309e2acb0146101f15780630d9a6b351461022457806311be0de5146102395780631500d2c31461025b578063172c48c71461029357806319f27b3b146102c05780631ef3a04c146102e05780632e54bf9514610300578063307d361214610320578063452a93201461034d57806347636371146103625780635383dfcb146103775780635e3078ec146103a457806376671808146103c457806378c77a24146103f85780637b0a47ee1461041857806381bafb311461043857806382d61d161461044f57806382e0a57414610483578063835dada0146104bb57806386da08241461051c578063874d6d811461057c5780638b8fbd92146105915780638da5cb5b146105a7578063a20baee6146105bc578063a4e59ac8146105d8578063a7528a03146105f8578063c04637111461060f578063c45a015514610648578063ce4b5bbe1461067c578063d03ef8ce14610694578063d279c191146106aa578063d5f195fe146106ca578063db03fdaa146106ea578063e66667331461070a578063e95034251461072a578063ebe2b12b1461074a578063eeb58d0b1461076e578063f05820381461078e578063f8d89898146107ae578063fa6657e7146107e2578063fbfa77cf1461080257600080fd5b366101ec57005b600080fd5b3480156101fd57600080fd5b5061021161020c36600461303f565b610822565b6040519081526020015b60405180910390f35b34801561023057600080fd5b50600554610211565b34801561024557600080fd5b5061025961025436600461306b565b610848565b005b34801561026757600080fd5b5061027b61027636600461303f565b610aaf565b6040516001600160501b03909116815260200161021b565b34801561029f57600080fd5b506102b36102ae366004613088565b610af2565b60405161021b91906130a1565b3480156102cc57600080fd5b506102596102db36600461306b565b610b1c565b3480156102ec57600080fd5b506001546102b3906001600160a01b031681565b34801561030c57600080fd5b5061025961031b366004613088565b610d33565b34801561032c57600080fd5b5061034061033b36600461306b565b610f61565b60405161021b91906130b5565b34801561035957600080fd5b506102b36111c8565b34801561036e57600080fd5b50610211600081565b34801561038357600080fd5b5061021161039236600461306b565b60036020526000908152604090205481565b3480156103b057600080fd5b506102596103bf3660046130f9565b611251565b3480156103d057600080fd5b50600c546103eb90600160801b90046001600160801b031681565b60405161021b9190613180565b34801561040457600080fd5b50610259610413366004613088565b6113ff565b34801561042457600080fd5b506002546103eb906001600160801b031681565b34801561044457600080fd5b506102116101105481565b34801561045b57600080fd5b506102b37f000000000000000000000000000000000000000000000000000000000000000081565b34801561048f57600080fd5b5061021161049e3660046131b0565b600e60209081526000928352604080842090915290825290205481565b3480156104c757600080fd5b506104fc6104d636600461306b565b6006602052600090815260409020546001600160801b0380821691600160801b90041682565b604080516001600160801b0393841681529290911660208301520161021b565b34801561052857600080fd5b5061056c61053736600461306b565b6007602052600090815260409020805460018201546002909201549091906001600160801b0380821691600160801b90041684565b60405161021b94939291906131e3565b34801561058857600080fd5b50610211611686565b34801561059d57600080fd5b50610211600b5481565b3480156105b357600080fd5b506102b36116c0565b3480156105c857600080fd5b50610211670de0b6b3a764000081565b3480156105e457600080fd5b50600c546103eb906001600160801b031681565b34801561060457600080fd5b506103eb62ed4e0081565b34801561061b57600080fd5b5060025461063390600160801b900463ffffffff1681565b60405163ffffffff909116815260200161021b565b34801561065457600080fd5b506102b37f000000000000000000000000000000000000000000000000000000000000000081565b34801561068857600080fd5b50610211633b9aca0081565b3480156106a057600080fd5b50610211600f5481565b3480156106b657600080fd5b506102116106c536600461306b565b611720565b3480156106d657600080fd5b506102116106e536600461306b565b6117f1565b3480156106f657600080fd5b5061021161070536600461320a565b61188d565b34801561071657600080fd5b50610259610725366004613246565b6118c0565b34801561073657600080fd5b5061021161074536600461306b565b6118cb565b34801561075657600080fd5b5060025461063390600160a01b900463ffffffff1681565b34801561077a57600080fd5b50610211610789366004613088565b611b7c565b34801561079a57600080fd5b506102116107a936600461327b565b611b94565b3480156107ba57600080fd5b506102b37f000000000000000000000000000000000000000000000000000000000000000081565b3480156107ee57600080fd5b506102596107fd36600461327b565b611bbe565b34801561080e57600080fd5b506000546102b3906001600160a01b031681565b600860205281600052604060002081610100811061083f57600080fd5b01549150829050565b336001600160a01b037f000000000000000000000000000000000000000000000000000000000000000016146108b35760405162461bcd60e51b815260206004820152600b60248201526a4e6f7420666163746f727960a81b60448201526064015b60405180910390fd5b6004546000805b8281101561090a57836001600160a01b0316600482815481106108df576108df6132b4565b6000918252602090912001546001600160a01b031603610902576001915061090a565b6001016108ba565b5080610a4a57604080518082019091526101125461ffff80821680845262010000909204166020830181905211156109ea57805161ffff16600090815261011160209081526040918290208251808401909352546001600160801b038082168452600160801b909104169082018190524211156109e85761011280546101119160009161ffff16908261099c836132e0565b82546101009290920a61ffff818102199093169183160217909155168152602081019190915260400160009081205580516109e19086906001600160801b0316611c16565b5050505050565b505b50600480546001810182557f8a35acfbc15ff81a39ae7d344fd709f28e8600b4aa8c65c6b64bfe7fe36bd19b0180546001600160a01b0319166001600160a01b038616908117909155905460009182526003602052604090912055505050565b6001600160a01b038316600090815260036020526040902054610aaa5760405162461bcd60e51b8152602060048201526018602482015277436f6c6c61746572616c2069732073756e73657474696e6760401b60448201526064016108aa565b505050565b6009602052816000526040600020816101008110610acc57600080fd5b60039182820401919006600a02915091509054906101000a90046001600160501b031681565b60048181548110610b0257600080fd5b6000918252602090912001546001600160a01b0316905081565b7f00000000000000000000000000000000000000000000000000000000000000006001600160a01b0316638da5cb5b6040518163ffffffff1660e01b8152600401602060405180830381865afa158015610b7a573d6000803e3d6000fd5b505050506040513d601f19601f82011682018060405250810190610b9e9190613301565b6001600160a01b0316336001600160a01b031614610beb5760405162461bcd60e51b815260206004820152600a60248201526927b7363c9037bbb732b960b11b60448201526064016108aa565b6001600160a01b038116600090815260036020526040902054610c505760405162461bcd60e51b815260206004820152601d60248201527f436f6c6c61746572616c20616c72656164792073756e73657474696e6700000060448201526064016108aa565b6040805180820182526001600160a01b0383166000908152600360205291909120548190610c809060019061331e565b6001600160801b03168152602001610c9b62ed4e0042613331565b6001600160801b0316905261011280546101119160009162010000900461ffff16906002610cc8836132e0565b825461ffff9182166101009390930a928302928202191691909117909155168152602080820192909252604090810160009081208451948401516001600160801b03908116600160801b029516949094179093556001600160a01b0390931682526003905290812055565b336000908152600660205260409020546001600160801b0380821691600160801b90041681610dbd5760405162461bcd60e51b815260206004820152603060248201527f53746162696c697479506f6f6c3a2055736572206d757374206861766520612060448201526f1b9bdb8b5e995c9bc819195c1bdcda5d60821b60648201526084016108aa565b42816001600160801b031610610e155760405162461bcd60e51b815260206004820181905260248201527f214465706f73697420616e642077697468647261772073616d6520626c6f636b60448201526064016108aa565b610e1d611e1a565b610e2633611fb6565b506000610e32336117f1565b90506000610e4085836121c8565b9050610e4b336121de565b8015610edc57604051631062c15f60e11b81526001600160a01b037f000000000000000000000000000000000000000000000000000000000000000016906320c582be90610ea190309033908690600401613344565b600060405180830381600087803b158015610ebb57600080fd5b505af1158015610ecf573d6000803e3d6000fd5b50505050610edc81612230565b6000610ee8828461331e565b6040805180820182526001600160801b03808416825287811660208084019182523360008181526006909252949020925190518216600160801b029116179055909150610f35908261226d565b60405181815233906000805160206134a2833981519152906020015b60405180910390a2505050505050565b6004546060906001600160401b03811115610f7e57610f7e613368565b604051908082528060200260200182016040528015610fa7578160200160208202803683370190505b506001600160a01b038316600090815260076020526040812054919250819003610fd15750919050565b6001600160a01b0383166000908152600960209081526040808320600683528184205460078452828520600201546001600160801b03600160801b82048116808852600d808852868920938316808a52848952968920828a529752939692169492939291908161104285600161337e565b6001600160801b03168152602080820192909252604090810160009081206001600160a01b038d16825260089093529081209192505b89518110156111ba5787816101008110611094576110946132b4565b60039182820401919006600a029054906101000a90046001600160501b03166001600160501b03168a82815181106110ce576110ce6132b4565b602002602001018181525050838161010081106110ed576110ed6132b4565b0154156111b257600082826101008110611109576111096132b4565b01548583610100811061111e5761111e6132b4565b015461112a919061331e565b90506000633b9aca0085846101008110611146576111466132b4565b015461115291906133a5565b9050670de0b6b3a76400008b6111688385613331565b611172908c6133c7565b61117c91906133a5565b61118691906133a5565b8c8481518110611198576111986132b4565b602002602001018181516111ac9190613331565b90525050505b600101611078565b505050505050505050919050565b60007f00000000000000000000000000000000000000000000000000000000000000006001600160a01b031663452a93206040518163ffffffff1660e01b8152600401602060405180830381865afa158015611228573d6000803e3d6000fd5b505050506040513d601f19601f8201168201806040525081019061124c9190613301565b905090565b61125a33611fb6565b5060045481906000906001600160401b0381111561127a5761127a613368565b6040519080825280602002602001820160405280156112a3578160200160208202803683370190505b503360009081526009602052604081209192505b838110156113c55760008686838181106112d3576112d36132b4565b9050602002013590506000838261010081106112f1576112f16132b4565b60039182820401919006600a029054906101000a90046001600160501b03166001600160501b0316905060008111156113bb5780858381518110611337576113376132b4565b602002602001018181525050600084836101008110611358576113586132b4565b60039182820401919006600a026101000a8154816001600160501b0302191690836001600160501b031602179055506113bb89826004858154811061139f5761139f6132b4565b6000918252602090912001546001600160a01b03169190612429565b50506001016112b7565b50336001600160a01b03167faecf5c2e84838a7ed87234d73965fc51f96b87b4c957f03bf22cfeb618c9aae183604051610f5191906130b5565b7f00000000000000000000000000000000000000000000000000000000000000006001600160a01b0316635c975abb6040518163ffffffff1660e01b8152600401602060405180830381865afa15801561145d573d6000803e3d6000fd5b505050506040513d601f19601f8201168201806040525081019061148191906133de565b156114c45760405162461bcd60e51b815260206004820152601360248201527211195c1bdcda5d1cc8185c99481c185d5cd959606a1b60448201526064016108aa565b600081116115235760405162461bcd60e51b815260206004820152602660248201527f53746162696c697479506f6f6c3a20416d6f756e74206d757374206265206e6f6044820152656e2d7a65726f60d01b60648201526084016108aa565b61152b611e1a565b61153433611fb6565b506000611540336117f1565b905061154b336121de565b60405163e75b3ae760e01b81526001600160a01b037f0000000000000000000000000000000000000000000000000000000000000000169063e75b3ae7906115999033908690600401613400565b600060405180830381600087803b1580156115b357600080fd5b505af11580156115c7573d6000803e3d6000fd5b505050506000826005546115db9190613331565b60058190556040518181529091506000805160206134e28339815191529060200160405180910390a160006116108484613331565b6040805180820182526001600160801b03808416825242811660208084019182523360008181526006909252949020925190518216600160801b02911617905590915061165d908261226d565b60405181815233906000805160206134a28339815191529060200160405180910390a250505050565b600062093a806116b67f00000000000000000000000000000000000000000000000000000000000000004261331e565b61124c91906133a5565b60007f00000000000000000000000000000000000000000000000000000000000000006001600160a01b0316638da5cb5b6040518163ffffffff1660e01b8152600401602060405180830381865afa158015611228573d6000803e3d6000fd5b600061172b33612481565b905080156117ac576000546040516335e97f1f60e11b81526001600160a01b0390911690636bd2fe3e9061176790339086908690600401613344565b6020604051808303816000875af1158015611786573d6000803e3d6000fd5b505050506040513d601f19601f820116820180604052508101906117aa91906133de565b505b6040518181526001600160a01b0383169033907f0aa4d283470c904c551d18bb894d37e17674920f3261a7f854be501e25f421b79060200160405180910390a3919050565b6001600160a01b0381166000908152600660205260408120546001600160801b03168082036118235750600092915050565b6001600160a01b0383166000908152600760209081526040808320815160808101835281548152600182015493810193909352600201546001600160801b0380821692840192909252600160801b90041660608201529061188483836125d4565b95945050505050565b600d6020528260005260406000206020528160005260406000208161010081106118b657600080fd5b0154925083915050565b610aaa8383836126c1565b6005546001600160a01b0382166000908152600660205260408120549091906001600160801b03168115806118fe575080155b15611921575050506001600160a01b03166000908152600a602052604090205490565b6000600f54670de0b6b3a76400006119376127ad565b61194191906133c7565b61194b9190613331565b9050600061195984836133a5565b90506000600b548261196b91906133c7565b6001600160a01b0388166000908152600760209081526040808320815160808101835281548152600182015493810193909352600201546001600160801b03808216928401839052600160801b909104811660608401819052600c549596509294929391928291168303611a79576020808601516001600160801b038087166000908152600e84526040808220928816825291909352909120548791611a109161331e565b611a1a9190613331565b6001600160801b0385166000908152600e60205260408120919350633b9aca009190611a4786600161337e565b6001600160801b03166001600160801b0316815260200190815260200160002054611a7291906133a5565b9050611b15565b6020808601516001600160801b038087166000908152600e8452604080822092881682529190935290912054611aaf919061331e565b6001600160801b0385166000908152600e60205260408120919350633b9aca00918891611add87600161337e565b6001600160801b03166001600160801b0316815260200190815260200160002054611b089190613331565b611b1291906133a5565b90505b8451670de0b6b3a764000090611b2b8385613331565b611b35908c6133c7565b611b3f91906133a5565b611b4991906133a5565b6001600160a01b038d166000908152600a6020526040902054611b6c9190613331565b9c9b505050505050505050505050565b6010816101008110611b8d57600080fd5b0154905081565b600080546001600160a01b03163314611bac57600080fd5b611bb583612481565b90505b92915050565b6001546001600160a01b0316158015611bdf57506001600160a01b03811615155b611be857600080fd5b600080546001600160a01b039384166001600160a01b03199182161790915560018054929093169116179055565b6001600160a01b03821660009081526003602052604090205415611c785760405162461bcd60e51b815260206004820152601960248201527810dbdb1b185d195c985b081b5d5cdd081899481cdd5b9cd95d603a1b60448201526064016108aa565b600454808210611cbc5760405162461bcd60e51b815260206004820152600f60248201526e496e64657820746f6f206c6172676560881b60448201526064016108aa565b600c546001600160801b03600160801b82048116911660005b82816001600160801b031611611d445760005b82816001600160801b031611611d3b576001600160801b038083166000908152600d602090815260408083209385168352929052908120876101008110611d3157611d316132b4565b0155600101611ce8565b50600101611cd5565b50611d50846001613331565b6001600160a01b038616600090815260036020526040902055600480547f9e147d339c63698deb55c3d0d44ed3eba29bac2a068a88c4bc5bde17d6331e19919086908110611da057611da06132b4565b60009182526020918290200154604080516001600160a01b039283168152918916928201929092520160405180910390a18460048581548110611de557611de56132b4565b9060005260206000200160006101000a8154816001600160a01b0302191690836001600160a01b031602179055505050505050565b611e2a611e256127ad565b612818565b600254600160a01b900463ffffffff16600062093a80611e6a7f00000000000000000000000000000000000000000000000000000000000000008461331e565b611e7491906133a5565b905080611e7f611686565b10611f94576000805460405163378cbf7560e01b8152600481018390526001600160a01b039091169063378cbf75906024016020604051808303816000875af1158015611ed0573d6000803e3d6000fd5b505050506040513d601f19601f82011682018060405250810190611ef49190613419565b90508015611f925782421015611f37576000611f10428561331e565b600254909150611f29906001600160801b0316826133c7565b611f339083613331565b9150505b611f4462093a80826133a5565b600280546001600160801b0319166001600160801b0392909216919091179055611f7162093a8042613331565b600260146101000a81548163ffffffff021916908363ffffffff1602179055505b505b50506002805463ffffffff60801b1916600160801b4263ffffffff1602179055565b6001600160a01b03811660009081526009602090815260408083206004546006909352908320549091906001600160801b0316808403611ff857505050919050565b6001600160a01b0385166000908152600760209081526040808320600281015490546001600160801b03600160801b83048116808752600d8087528588209290941680885282875294872081885293909552939492939092908161205d86600161337e565b6001600160801b03168152602080820192909252604090810160009081206001600160a01b038e16825260089093529081209192505b888110156121b957838161010081106120ae576120ae6132b4565b0154156121b15760019a506000828261010081106120ce576120ce6132b4565b0154858361010081106120e3576120e36132b4565b01546120ef919061331e565b90506000633b9aca008584610100811061210b5761210b6132b4565b015461211791906133a5565b9050670de0b6b3a76400008761212d8385613331565b612137908d6133c7565b61214191906133a5565b61214b91906133a5565b8c84610100811061215e5761215e6132b4565b60039182820401919006600a028282829054906101000a90046001600160501b031661218a9190613432565b92506101000a8154816001600160501b0302191690836001600160501b0316021790555050505b600101612093565b50505050505050505050919050565b60008183106121d75781611bb5565b5090919050565b60006121e982612914565b6001600160a01b0383166000908152600a6020526040902054909150612210908290613331565b6001600160a01b039092166000908152600a602052604090209190915550565b600081600554612240919061331e565b60058190556040518181529091506000805160206134e28339815191529060200160405180910390a15050565b60008160000361231957506001600160a01b038216600090815260076020526040812081815560018101829055600201819055600454905b818110156122e1576001600160a01b03841660009081526008602052604081208261010081106122d7576122d76132b4565b01556001016122a5565b5060408051600080825260208201526001600160a01b038516916000805160206134c2833981519152910160405180910390a2505050565b50600c54600b546001600160801b03600160801b80840482166000818152600d6020908152604080832095909716808352948152868220838352600e82528783208684528252878320546001600160a01b038b168452600790925296822086815560018101829055938302851760029094019390935560045495939491939192905b868110156123ec57828161010081106123b6576123b66132b4565b01546001600160a01b038a1660009081526008602052604090208261010081106123e2576123e26132b4565b015560010161239b565b5060408051848152602081018390526001600160a01b038a16916000805160206134c2833981519152910160405180910390a25050505050505050565b610aaa83846001600160a01b031663a9059cbb858560405160240161244f929190613400565b604051602081830303815290604052915060e01b6020820180516001600160e01b0383818316178352505050506129b1565b6001600160a01b0381166000908152600660205260408120546001600160801b03168015612588576001600160a01b038316600090815260066020526040902054600160801b90046001600160801b03166124da611e1a565b60006124e585611fb6565b905060006124f2866117f1565b90506000612500828661331e565b905061250b87612914565b955060008111806125195750825b806125245750600086115b15612583576040805180820182526001600160801b03808516825286811660208084019182526001600160a01b038c166000908152600690915293909320915192518116600160801b02921691909117905581612581888261226d565b505b505050505b6001600160a01b0383166000908152600a602052604090205480156125cd576125b18184613331565b6001600160a01b0385166000908152600a602052604081205592505b5050919050565b805160408201516060830151600c546000939291906001600160801b03600160801b909104811690821610156126105760009350505050611bb8565b600c54600090819061262c9085906001600160801b0316613452565b9050806001600160801b031660000361265f5784600b548961264e91906133c7565b61265891906133a5565b9150612693565b806001600160801b031660010361268e57633b9aca0085600b548a61268491906133c7565b61264e91906133a5565b600091505b6126a1633b9aca00896133a5565b8210156126b657600095505050505050611bb8565b509695505050505050565b6001546001600160a01b031633146127345760405162461bcd60e51b815260206004820152603060248201527f53746162696c697479506f6f6c3a2043616c6c6572206973206e6f74204c697160448201526f3ab4b230ba34b7b71026b0b730b3b2b960811b60648201526084016108aa565b6001600160a01b03831660009081526003602052604090205461275860018261331e565b600554909150801580612769575083155b15612775575050505050565b61277d611e1a565b60008061278c85878587612a0b565b9150915061279b828286612af8565b6127a486612230565b50505050505050565b600254600090600160a01b900463ffffffff16428111156127cb5750425b600254600160801b900463ffffffff168181106127eb5760009250505090565b60006127f7828461331e565b600254909150612810906001600160801b0316826133c7565b935050505090565b600554801580612826575081155b1561282f575050565b600061283b8383612df0565b600c54600b549192506001600160801b03600160801b820481169291169060009061286690856133c7565b6001600160801b038085166000908152600e602090815260408083209387168352929052908120549192509061289d908390613331565b6001600160801b038581166000818152600e60209081526040808320948916808452948252918290208590558151858152908101929092528101919091529091507f2d6127771b164a9cc8827d24b5955db2a77e7a81dac389107ebb8bce9fb649689060600160405180910390a150505050505050565b6001600160a01b0381166000908152600660205260408120546001600160801b03168082036129465750600092915050565b6001600160a01b038316600090815260076020908152604091829020825160808101845281548152600182015492810192909252600201546001600160801b0380821693830193909352600160801b900490911660608201526129a98282612e43565b949350505050565b60006129c66001600160a01b03841683612f27565b905080516000141580156129eb5750808060200190518101906129e991906133de565b155b15610aaa5782604051635274afe760e01b81526004016108aa91906130a1565b60008060006010846101008110612a2457612a246132b4565b0154612a38670de0b6b3a7640000896133c7565b612a429190613331565b9050848603612a6157600061011055670de0b6b3a76400009150612ab8565b61011054600090612a7a670de0b6b3a7640000896133c7565b612a84919061331e565b9050612a9086826133a5565b612a9b906001613331565b925080612aa887856133c7565b612ab2919061331e565b61011055505b612ac285826133a5565b9250612ace85846133c7565b612ad8908261331e565b6010856101008110612aec57612aec6132b4565b01555094509492505050565b600b54600080612b1085670de0b6b3a764000061331e565b600c546001600160801b03600160801b820481166000818152600d60209081526040808320949095168083529390529283209394509092909190876101008110612b5c57612b5c6132b4565b015490506000612b6c878b6133c7565b90506000612b7a8284613331565b6001600160801b038086166000908152600d60209081526040808320938a1683529290522090915081908a6101008110612bb657612bb66132b4565b01556040517fe150473acddd94d1c6add794bd840c8d3e297dc3e50d863b56c0fba04d0d024790612bee908b90849088908a906131e3565b60405180910390a185600003612ca957612c0984600161337e565b600c80546001600160801b03908116600160801b938216840217918290556040517fb50f0f59e7cb5b421dc77581c3a9919e3806e076e5fa78a874c3f120cb7d874d93612c5a930490911690613180565b60405180910390a1600c80546001600160801b031916905560405160008051602061350283398151915290612c9190600090613180565b60405180910390a1670de0b6b3a76400009650612d72565b633b9aca00670de0b6b3a7640000612cc1888b6133c7565b612ccb91906133a5565b1015612d5257670de0b6b3a7640000633b9aca00612ce9888b6133c7565b612cf391906133c7565b612cfd91906133a5565b9650612d0a85600161337e565b600c80546001600160801b0319166001600160801b0392909216918217905560405160008051602061350283398151915291612d4591613180565b60405180910390a1612d72565b670de0b6b3a7640000612d65878a6133c7565b612d6f91906133a5565b96505b60008711612dab5760405162461bcd60e51b81526004016108aa9060208082526004908201526304e6577560e41b604082015260600190565b600b8790556040518781527fc1a9618cb59ebca77cbdbc2949f126823c407ff13edb285fd0262519a9c18e8c9060200160405180910390a15050505050505050505050565b600080600f54670de0b6b3a764000085612e0a91906133c7565b612e149190613331565b90506000612e2284836133a5565b9050612e2e84826133c7565b612e38908361331e565b600f55949350505050565b606081015160408083015160208085015185516001600160801b038087166000908152600e8552868120918616815293529382205491949390918590612e8a90849061331e565b6001600160801b0386166000908152600e6020526040812091925090633b9aca009082612eb888600161337e565b6001600160801b03166001600160801b0316815260200190815260200160002054612ee391906133a5565b90506000670de0b6b3a764000084612efb8486613331565b612f05908d6133c7565b612f0f91906133a5565b612f1991906133a5565b9a9950505050505050505050565b6060611bb58383600084600080856001600160a01b03168486604051612f4d9190613472565b60006040518083038185875af1925050503d8060008114612f8a576040519150601f19603f3d011682016040523d82523d6000602084013e612f8f565b606091505b5091509150612f9f868383612fab565b925050505b9392505050565b606082612fc057612fbb82612ffe565b612fa4565b8151158015612fd757506001600160a01b0384163b155b15612ff75783604051639996b31560e01b81526004016108aa91906130a1565b5080612fa4565b80511561300e5780518082602001fd5b604051630a12f52160e11b815260040160405180910390fd5b50565b6001600160a01b038116811461302757600080fd5b6000806040838503121561305257600080fd5b823561305d8161302a565b946020939093013593505050565b60006020828403121561307d57600080fd5b8135612fa48161302a565b60006020828403121561309a57600080fd5b5035919050565b6001600160a01b0391909116815260200190565b6020808252825182820181905260009190848201906040850190845b818110156130ed578351835292840192918401916001016130d1565b50909695505050505050565b60008060006040848603121561310e57600080fd5b83356131198161302a565b925060208401356001600160401b038082111561313557600080fd5b818601915086601f83011261314957600080fd5b81358181111561315857600080fd5b8760208260051b850101111561316d57600080fd5b6020830194508093505050509250925092565b6001600160801b0391909116815260200190565b80356001600160801b03811681146131ab57600080fd5b919050565b600080604083850312156131c357600080fd5b6131cc83613194565b91506131da60208401613194565b90509250929050565b93845260208401929092526001600160801b03908116604084015216606082015260800190565b60008060006060848603121561321f57600080fd5b61322884613194565b925061323660208501613194565b9150604084013590509250925092565b60008060006060848603121561325b57600080fd5b83356132668161302a565b95602085013595506040909401359392505050565b6000806040838503121561328e57600080fd5b82356132998161302a565b915060208301356132a98161302a565b809150509250929050565b634e487b7160e01b600052603260045260246000fd5b634e487b7160e01b600052601160045260246000fd5b600061ffff8083168181036132f7576132f76132ca565b6001019392505050565b60006020828403121561331357600080fd5b8151612fa48161302a565b81810381811115611bb857611bb86132ca565b80820180821115611bb857611bb86132ca565b6001600160a01b039384168152919092166020820152604081019190915260600190565b634e487b7160e01b600052604160045260246000fd5b6001600160801b0381811683821601908082111561339e5761339e6132ca565b5092915050565b6000826133c257634e487b7160e01b600052601260045260246000fd5b500490565b8082028115828204841417611bb857611bb86132ca565b6000602082840312156133f057600080fd5b81518015158114612fa457600080fd5b6001600160a01b03929092168252602082015260400190565b60006020828403121561342b57600080fd5b5051919050565b6001600160501b0381811683821601908082111561339e5761339e6132ca565b6001600160801b0382811682821603908082111561339e5761339e6132ca565b6000825160005b818110156134935760208186018101518583015201613479565b50600092019182525091905056febce78369dccab09eec1986f4d409ab09ffbb47d65423e5148fcf98411c5111c9c48943df4095f4f20d171fd2872eafdc0eed4d9014ac3672f3bde7fd425449d55c1eb83edfbe7709b9a63e8c7e294df8731e15bc212a85bf6e95cb906600bcbb1f9dfc70cd666adb18a39d60a797518f7b4febf4b6e24ef37d44f6e1e7219fbea2646970667358221220b439bb122ac25ea74379558e4ebb84e4561cb14412e4256786797e3fb17b386764736f6c63430008160033",
  "linkReferences": {},
  "deployedLinkReferences": {}
}