{
  "_format": "hh-sol-artifact-1",
  "contractName": "PriceFeed",
  "sourceName": "contracts/core/PriceFeed.sol",
  "abi": [
    {
      "inputs": [
        {
          "internalType": "address",
          "name": "_vineCore",
          "type": "address"
        },
        {
          "components": [
            {
              "internalType": "address",
              "name": "token",
              "type": "address"
            },
            {
              "internalType": "address",
              "name": "band",
              "type": "address"
            },
            {
              "internalType": "string",
              "name": "base",
              "type": "string"
            },
            {
              "internalType": "string",
              "name": "quote",
              "type": "string"
            },
            {
              "internalType": "uint32",
              "name": "heartbeat",
              "type": "uint32"
            }
          ],
          "internalType": "struct PriceFeed.OracleSetup[]",
          "name": "oracles",
          "type": "tuple[]"
        }
      ],
      "stateMutability": "nonpayable",
      "type": "constructor"
    },
    {
      "inputs": [
        {
          "internalType": "address",
          "name": "token",
          "type": "address"
        }
      ],
      "name": "PriceFeed__FeedFrozenError",
      "type": "error"
    },
    {
      "inputs": [],
      "name": "PriceFeed__HeartbeatOutOfBoundsError",
      "type": "error"
    },
    {
      "inputs": [
        {
          "internalType": "address",
          "name": "token",
          "type": "address"
        }
      ],
      "name": "PriceFeed__InvalidFeedResponseError",
      "type": "error"
    },
    {
      "inputs": [
        {
          "internalType": "address",
          "name": "token",
          "type": "address"
        }
      ],
      "name": "PriceFeed__UnknownFeedError",
      "type": "error"
    },
    {
      "anonymous": false,
      "inputs": [
        {
          "indexed": false,
          "internalType": "address",
          "name": "token",
          "type": "address"
        },
        {
          "indexed": false,
          "internalType": "address",
          "name": "bandAggregator",
          "type": "address"
        }
      ],
      "name": "NewOracleRegistered",
      "type": "event"
    },
    {
      "anonymous": false,
      "inputs": [
        {
          "indexed": false,
          "internalType": "address",
          "name": "token",
          "type": "address"
        },
        {
          "indexed": false,
          "internalType": "address",
          "name": "oracle",
          "type": "address"
        },
        {
          "indexed": false,
          "internalType": "bool",
          "name": "isWorking",
          "type": "bool"
        }
      ],
      "name": "PriceFeedStatusUpdated",
      "type": "event"
    },
    {
      "anonymous": false,
      "inputs": [
        {
          "indexed": true,
          "internalType": "address",
          "name": "token",
          "type": "address"
        },
        {
          "indexed": false,
          "internalType": "uint256",
          "name": "_price",
          "type": "uint256"
        }
      ],
      "name": "PriceRecordUpdated",
      "type": "event"
    },
    {
      "inputs": [],
      "name": "MAX_PRICE_DEVIATION_FROM_PREVIOUS_ROUND",
      "outputs": [
        {
          "internalType": "uint256",
          "name": "",
          "type": "uint256"
        }
      ],
      "stateMutability": "view",
      "type": "function"
    },
    {
      "inputs": [],
      "name": "RESPONSE_TIMEOUT_BUFFER",
      "outputs": [
        {
          "internalType": "uint256",
          "name": "",
          "type": "uint256"
        }
      ],
      "stateMutability": "view",
      "type": "function"
    },
    {
      "inputs": [],
      "name": "VINE_CORE",
      "outputs": [
        {
          "internalType": "contract IVineCore",
          "name": "",
          "type": "address"
        }
      ],
      "stateMutability": "view",
      "type": "function"
    },
    {
      "inputs": [
        {
          "internalType": "address",
          "name": "_token",
          "type": "address"
        }
      ],
      "name": "fetchPrice",
      "outputs": [
        {
          "internalType": "uint256",
          "name": "",
          "type": "uint256"
        }
      ],
      "stateMutability": "nonpayable",
      "type": "function"
    },
    {
      "inputs": [],
      "name": "guardian",
      "outputs": [
        {
          "internalType": "address",
          "name": "",
          "type": "address"
        }
      ],
      "stateMutability": "view",
      "type": "function"
    },
    {
      "inputs": [
        {
          "internalType": "address",
          "name": "_token",
          "type": "address"
        }
      ],
      "name": "loadPrice",
      "outputs": [
        {
          "internalType": "uint256",
          "name": "",
          "type": "uint256"
        }
      ],
      "stateMutability": "view",
      "type": "function"
    },
    {
      "inputs": [
        {
          "internalType": "address",
          "name": "",
          "type": "address"
        }
      ],
      "name": "oracleRecords",
      "outputs": [
        {
          "internalType": "contract IStdReference",
          "name": "bandOracle",
          "type": "address"
        },
        {
          "internalType": "string",
          "name": "base",
          "type": "string"
        },
        {
          "internalType": "string",
          "name": "quote",
          "type": "string"
        },
        {
          "internalType": "uint32",
          "name": "heartbeat",
          "type": "uint32"
        },
        {
          "internalType": "bool",
          "name": "isFeedWorking",
          "type": "bool"
        }
      ],
      "stateMutability": "view",
      "type": "function"
    },
    {
      "inputs": [],
      "name": "owner",
      "outputs": [
        {
          "internalType": "address",
          "name": "",
          "type": "address"
        }
      ],
      "stateMutability": "view",
      "type": "function"
    },
    {
      "inputs": [
        {
          "internalType": "address",
          "name": "",
          "type": "address"
        }
      ],
      "name": "priceRecords",
      "outputs": [
        {
          "internalType": "uint96",
          "name": "price",
          "type": "uint96"
        },
        {
          "internalType": "uint32",
          "name": "timestamp",
          "type": "uint32"
        },
        {
          "internalType": "uint32",
          "name": "lastUpdated",
          "type": "uint32"
        }
      ],
      "stateMutability": "view",
      "type": "function"
    },
    {
      "inputs": [
        {
          "internalType": "address",
          "name": "_token",
          "type": "address"
        },
        {
          "internalType": "address",
          "name": "_bandOracle",
          "type": "address"
        },
        {
          "internalType": "string",
          "name": "_base",
          "type": "string"
        },
        {
          "internalType": "string",
          "name": "_quote",
          "type": "string"
        },
        {
          "internalType": "uint32",
          "name": "_heartbeat",
          "type": "uint32"
        }
      ],
      "name": "setOracle",
      "outputs": [],
      "stateMutability": "nonpayable",
      "type": "function"
    }
  ],
  "bytecode": "0x60a06040523480156200001157600080fd5b5060405162001e1038038062001e108339810160408190526200003491620005fc565b6001600160a01b03821660805260005b8151811015620000a257600082828151811062000065576200006562000789565b602002602001015190506200009881600001518260200151836040015184606001518560800151620000ab60201b60201c565b5060010162000044565b505050620009f7565b620151808163ffffffff161115620000d657604051632280d48b60e21b815260040160405180910390fd5b6040805160a0810182526001600160a01b03861681526020810185905290810183905263ffffffff8216606082015260016080820152849060006200011b8262000253565b90506200012f8163ffffffff861662000326565b6200015c576040516312b2728d60e21b81526001600160a01b038916600482015260240160405180910390fd5b6001600160a01b03888116600090815260208181526040909120845181546001600160a01b03191693169290921782558301518391906001820190620001a390826200082a565b5060408201516002820190620001ba90826200082a565b5060608201516003909101805460809093015115156401000000000264ffffffffff1990931663ffffffff909216919091179190911790558051602082015162000206918a9162000386565b604080516001600160a01b03808b168252891660208201527fd47c7275e633726e4e34f435fd883a2c6bbc8b65a35278390d2ee37075651400910160405180910390a15050505050505050565b6200028160405180608001604052806000815260200160008152602001600081526020016000151581525090565b81516020830151604080850151905163195556f360e21b81526001600160a01b038416926365555bcc92620002b99260040162000924565b606060405180830381865afa925050508015620002f5575060408051601f3d908101601f19168201909252620002f29181019062000956565b60015b620003005750919050565b805183526020808201519084015260409081015190830152600160608301525b50919050565b60008260600151151560011515148015620003475750620003478362000457565b80156200036257506020830151620003609083620004a2565b155b80156200037d575060408301516200037b9083620004a2565b155b90505b92915050565b604080516060810182526001600160601b03808516825263ffffffff80851660208085019182524283168587019081526001600160a01b038a16600081815260019093529187902095518654935191518516600160801b0263ffffffff60801b19929095166c01000000000000000000000000026001600160801b031990941695169490941791909117929092161790915590517f07529ee41a2aab62dbd5cc22c9f45bd6db300404e0a697d2e80349b69ca3087e906200044a9085815260200190565b60405180910390a2505050565b8051600090158015906200046e5750602082015115155b80156200047f575042826020015111155b80156200048f5750604082015115155b8015620003805750506040015142101590565b600080831180156200037d5750620004bd610e1083620009cb565b620004c98442620009e1565b119392505050565b80516001600160a01b0381168114620004e957600080fd5b919050565b634e487b7160e01b600052604160045260246000fd5b60405160a081016001600160401b0381118282101715620005295762000529620004ee565b60405290565b604051601f8201601f191681016001600160401b03811182821017156200055a576200055a620004ee565b604052919050565b60005b838110156200057f57818101518382015260200162000565565b50506000910152565b600082601f8301126200059a57600080fd5b81516001600160401b03811115620005b657620005b6620004ee565b620005cb601f8201601f19166020016200052f565b818152846020838601011115620005e157600080fd5b620005f482602083016020870162000562565b949350505050565b600080604083850312156200061057600080fd5b6200061b83620004d1565b602084810151919350906001600160401b03808211156200063b57600080fd5b818601915086601f8301126200065057600080fd5b815181811115620006655762000665620004ee565b8060051b620006768582016200052f565b918252838101850191858101908a8411156200069157600080fd5b86860192505b838310156200077857825185811115620006b057600080fd5b860160a0818d03601f19011215620006c757600080fd5b620006d162000504565b620006de898301620004d1565b8152620006ee60408301620004d1565b89820152606082015187811115620007065760008081fd5b620007168e8b8386010162000588565b60408301525060808083015188811115620007315760008081fd5b620007418f8c8387010162000588565b60608401525060a0830151925063ffffffff83168314620007625760008081fd5b8101919091528252918601919086019062000697565b809750505050505050509250929050565b634e487b7160e01b600052603260045260246000fd5b600181811c90821680620007b457607f821691505b6020821081036200032057634e487b7160e01b600052602260045260246000fd5b601f82111562000825576000816000526020600020601f850160051c81016020861015620008005750805b601f850160051c820191505b8181101562000821578281556001016200080c565b5050505b505050565b81516001600160401b03811115620008465762000846620004ee565b6200085e816200085784546200079f565b84620007d5565b602080601f8311600181146200089657600084156200087d5750858301515b600019600386901b1c1916600185901b17855562000821565b600085815260208120601f198616915b82811015620008c757888601518255948401946001909101908401620008a6565b5085821015620008e65787850151600019600388901b60f8161c191681555b5050505050600190811b01905550565b600081518084526200091081602086016020860162000562565b601f01601f19169290920160200192915050565b604081526000620009396040830185620008f6565b82810360208401526200094d8185620008f6565b95945050505050565b6000606082840312156200096957600080fd5b604051606081016001600160401b03811182821017156200098e576200098e620004ee565b80604052508251815260208301516020820152604083015160408201528091505092915050565b634e487b7160e01b600052601160045260246000fd5b80820180821115620003805762000380620009b5565b81810381811115620003805762000380620009b5565b6080516113e962000a276000396000818160fc015281816101d3015281816103b201526106eb01526113e96000f3fe608060405234801561001057600080fd5b506004361061008e5760003560e01c806325838f2314610093578063452a9320146100af57806358a6aa88146100c45780637cdde506146100d357806382d61d16146100f75780638da5cb5b1461011e578063a2a870a914610126578063ace1798e14610194578063b32bcd1c146101a7578063d116fcd4146101bc575b600080fd5b61009c610e1081565b6040519081526020015b60405180910390f35b6100b76101cf565b6040516100a69190610f20565b61009c6706f05b59d3b2000081565b6100e66100e1366004610f4c565b610258565b6040516100a6959493929190610fb6565b6100b77f000000000000000000000000000000000000000000000000000000000000000081565b6100b76103ae565b610168610134366004610f4c565b6001602052600090815260409020546001600160601b0381169063ffffffff600160601b8204811691600160801b90041683565b604080516001600160601b03909416845263ffffffff92831660208501529116908201526060016100a6565b61009c6101a2366004610f4c565b61040e565b6101ba6101b53660046110ae565b6106e9565b005b61009c6101ca366004610f4c565b6107cc565b60007f00000000000000000000000000000000000000000000000000000000000000006001600160a01b031663452a93206040518163ffffffff1660e01b8152600401602060405180830381865afa15801561022f573d6000803e3d6000fd5b505050506040513d601f19601f820116820180604052508101906102539190611154565b905090565b600060208190529081526040902080546001820180546001600160a01b03909216929161028490611171565b80601f01602080910402602001604051908101604052809291908181526020018280546102b090611171565b80156102fd5780601f106102d2576101008083540402835291602001916102fd565b820191906000526020600020905b8154815290600101906020018083116102e057829003601f168201915b50505050509080600201805461031290611171565b80601f016020809104026020016040519081016040528092919081815260200182805461033e90611171565b801561038b5780601f106103605761010080835404028352916020019161038b565b820191906000526020600020905b81548152906001019060200180831161036e57829003601f168201915b5050506003909301549192505063ffffffff81169060ff600160201b9091041685565b60007f00000000000000000000000000000000000000000000000000000000000000006001600160a01b0316638da5cb5b6040518163ffffffff1660e01b8152600401602060405180830381865afa15801561022f573d6000803e3d6000fd5b6001600160a01b038082166000818152600160208181526040808420815160608101835290546001600160601b038116825263ffffffff600160601b8204811683860152600160801b9091041681830152948452838252808420815160a081019092528054909616815291850180549395869490928401919061049090611171565b80601f01602080910402602001604051908101604052809291908181526020018280546104bc90611171565b80156105095780601f106104de57610100808354040283529160200191610509565b820191906000526020600020905b8154815290600101906020018083116104ec57829003601f168201915b5050505050815260200160028201805461052290611171565b80601f016020809104026020016040519081016040528092919081815260200182805461054e90611171565b801561059b5780601f106105705761010080835404028352916020019161059b565b820191906000526020600020905b81548152906001019060200180831161057e57829003601f168201915b50505091835250506003919091015463ffffffff8082166020840152600160201b90910460ff1615156040928301528451918501519293506001600160601b0390911691429116146106e157826040015163ffffffff1660000361061d5784604051638e7a3d6d60e01b81526004016106149190610f20565b60405180910390fd5b600061062883610960565b905061063e81846060015163ffffffff16610a2c565b61065d57856040516312b2728d60e21b81526004016106149190610f20565b61066986848387610a81565b63ffffffff42811660408088019182526001600160a01b038a1660009081526001602090815291902088518154928a015193518516600160801b0263ffffffff60801b1994909516600160601b026001600160801b03199093166001600160601b039091161791909117919091169190911790559150505b949350505050565b7f00000000000000000000000000000000000000000000000000000000000000006001600160a01b0316638da5cb5b6040518163ffffffff1660e01b8152600401602060405180830381865afa158015610747573d6000803e3d6000fd5b505050506040513d601f19601f8201168201806040525081019061076b9190611154565b6001600160a01b0316336001600160a01b0316146107b85760405162461bcd60e51b815260206004820152600a60248201526927b7363c9037bbb732b960b11b6044820152606401610614565b6107c58585858585610b49565b5050505050565b6001600160a01b03808216600090815260208181526040808320815160a08101909252805490941681526001840180549394859492939092908401919061081290611171565b80601f016020809104026020016040519081016040528092919081815260200182805461083e90611171565b801561088b5780601f106108605761010080835404028352916020019161088b565b820191906000526020600020905b81548152906001019060200180831161086e57829003601f168201915b505050505081526020016002820180546108a490611171565b80601f01602080910402602001604051908101604052809291908181526020018280546108d090611171565b801561091d5780601f106108f25761010080835404028352916020019161091d565b820191906000526020600020905b81548152906001019060200180831161090057829003601f168201915b50505091835250506003919091015463ffffffff81166020830152600160201b900460ff1615156040909101529050600061095782610960565b51949350505050565b61098d60405180608001604052806000815260200160008152602001600081526020016000151581525090565b81516020830151604080850151905163195556f360e21b81526001600160a01b038416926365555bcc926109c3926004016111a5565b606060405180830381865afa9250505080156109fc575060408051601f3d908101601f191682019092526109f9918101906111d3565b60015b610a065750919050565b805183526020808201519084015260409081015190830152600160608301525b50919050565b60008260600151151560011515148015610a4a5750610a4a83610cd7565b8015610a615750610a5f836020015183610d1e565b155b8015610a785750610a76836040015183610d1e565b155b90505b92915050565b600080610a9884866060015163ffffffff16610a2c565b8015610aab5750610aa98484610d48565b155b90508015610ae25783516080860151610aca57610aca87876001610db4565b610ad987828760200151610e33565b91506106e19050565b846080015115610af857610af886866000610db4565b610b16836020015163ffffffff16866060015163ffffffff16610d1e565b15610b365785604051633beb416d60e11b81526004016106149190610f20565b5050516001600160601b03169392505050565b620151808163ffffffff161115610b7357604051632280d48b60e21b815260040160405180910390fd5b6040805160a0810182526001600160a01b03861681526020810185905290810183905263ffffffff821660608201526001608082015284906000610bb682610960565b9050610bc8818563ffffffff16610a2c565b610be757876040516312b2728d60e21b81526004016106149190610f20565b6001600160a01b03888116600090815260208181526040909120845181546001600160a01b03191693169290921782558301518391906001820190610c2c908261127f565b5060408201516002820190610c41908261127f565b506060820151600390910180546080909301511515600160201b0264ffffffffff1990931663ffffffff9092169190911791909117905580516020820151610c8a918a91610e33565b604080516001600160a01b03808b168252891660208201527fd47c7275e633726e4e34f435fd883a2c6bbc8b65a35278390d2ee37075651400910160405180910390a15050505050505050565b805160009015801590610ced5750602082015115155b8015610cfd575042826020015111155b8015610d0c5750604082015115155b8015610a7b5750506040015142101590565b60008083118015610a785750610d36610e1083611354565b610d408442611367565b119392505050565b81518151600091906001600160601b031682610d648383610efa565b90506000610d728484610f10565b9050600081670de0b6b3a7640000610d8a8583611367565b610d94919061137a565b610d9e9190611391565b6706f05b59d3b200001098975050505050505050565b6001600160a01b0383811660008181526020818152604091829020600301805460ff60201b1916600160201b8715159081029190911790915586518351948552909416908301528101919091527f027ca86d0a5e661ac88cfa6260082c9353c57cb9e7c95f72fb6cb28033432bd39060600160405180910390a1505050565b604080516060810182526001600160601b03808516825263ffffffff80851660208085019182524283168587019081526001600160a01b038a16600081815260019093529187902095518654935191518516600160801b0263ffffffff60801b1992909516600160601b026001600160801b031990941695169490941791909117929092161790915590517f07529ee41a2aab62dbd5cc22c9f45bd6db300404e0a697d2e80349b69ca3087e90610eed9085815260200190565b60405180910390a2505050565b6000818310610f095781610a78565b5090919050565b600081831015610f095781610a78565b6001600160a01b0391909116815260200190565b6001600160a01b0381168114610f4957600080fd5b50565b600060208284031215610f5e57600080fd5b8135610f6981610f34565b9392505050565b6000815180845260005b81811015610f9657602081850181015186830182015201610f7a565b506000602082860101526020601f19601f83011685010191505092915050565b6001600160a01b038616815260a060208201819052600090610fda90830187610f70565b8281036040840152610fec8187610f70565b63ffffffff95909516606084015250509015156080909101529392505050565b634e487b7160e01b600052604160045260246000fd5b600082601f83011261103357600080fd5b81356001600160401b038082111561104d5761104d61100c565b604051601f8301601f19908116603f011681019082821181831017156110755761107561100c565b8160405283815286602085880101111561108e57600080fd5b836020870160208301376000602085830101528094505050505092915050565b600080600080600060a086880312156110c657600080fd5b85356110d181610f34565b945060208601356110e181610f34565b935060408601356001600160401b03808211156110fd57600080fd5b61110989838a01611022565b9450606088013591508082111561111f57600080fd5b5061112c88828901611022565b925050608086013563ffffffff8116811461114657600080fd5b809150509295509295909350565b60006020828403121561116657600080fd5b8151610f6981610f34565b600181811c9082168061118557607f821691505b602082108103610a2657634e487b7160e01b600052602260045260246000fd5b6040815260006111b86040830185610f70565b82810360208401526111ca8185610f70565b95945050505050565b6000606082840312156111e557600080fd5b604051606081016001600160401b03811182821017156112075761120761100c565b80604052508251815260208301516020820152604083015160408201528091505092915050565b601f82111561127a576000816000526020600020601f850160051c810160208610156112575750805b601f850160051c820191505b8181101561127657828155600101611263565b5050505b505050565b81516001600160401b038111156112985761129861100c565b6112ac816112a68454611171565b8461122e565b602080601f8311600181146112e157600084156112c95750858301515b600019600386901b1c1916600185901b178555611276565b600085815260208120601f198616915b82811015611310578886015182559484019460019091019084016112f1565b508582101561132e5787850151600019600388901b60f8161c191681555b5050505050600190811b01905550565b634e487b7160e01b600052601160045260246000fd5b80820180821115610a7b57610a7b61133e565b81810381811115610a7b57610a7b61133e565b8082028115828204841417610a7b57610a7b61133e565b6000826113ae57634e487b7160e01b600052601260045260246000fd5b50049056fea2646970667358221220db6c13a2ed6f60ee3f9b38b48465ce14f4ff3c5ed651352b82734f2b1c1e151f64736f6c63430008160033",
  "linkReferences": {},
  "deployedLinkReferences": {}
}