{
  "_format": "hh-sol-artifact-1",
  "contractName": "LPPriceOracle",
  "sourceName": "contracts/mock/MockBand.sol",
  "abi": [
    {
      "inputs": [
        {
          "internalType": "uint256",
          "name": "_price",
          "type": "uint256"
        }
      ],
      "stateMutability": "nonpayable",
      "type": "constructor"
    },
    {
      "inputs": [
        {
          "internalType": "string",
          "name": "",
          "type": "string"
        },
        {
          "internalType": "string",
          "name": "",
          "type": "string"
        }
      ],
      "name": "getReferenceData",
      "outputs": [
        {
          "components": [
            {
              "internalType": "uint256",
              "name": "rate",
              "type": "uint256"
            },
            {
              "internalType": "uint256",
              "name": "lastUpdatedBase",
              "type": "uint256"
            },
            {
              "internalType": "uint256",
              "name": "lastUpdatedQuote",
              "type": "uint256"
            }
          ],
          "internalType": "struct LPPriceOracle.ReferenceData",
          "name": "data",
          "type": "tuple"
        }
      ],
      "stateMutability": "view",
      "type": "function"
    },
    {
      "inputs": [
        {
          "internalType": "uint256",
          "name": "_price",
          "type": "uint256"
        }
      ],
      "name": "setPrice",
      "outputs": [],
      "stateMutability": "nonpayable",
      "type": "function"
    }
  ],
  "bytecode": "0x608060405234801561001057600080fd5b506040516102b23803806102b283398101604081905261002f91610037565b600055610050565b60006020828403121561004957600080fd5b5051919050565b6102538061005f6000396000f3fe608060405234801561001057600080fd5b50600436106100365760003560e01c806365555bcc1461003b57806391b7f5ed14610074575b600080fd5b61004e61004936600461017a565b610089565b604080518251815260208084015190820152918101519082015260600160405180910390f35b6100876100823660046101dd565b600055565b005b6100ad60405180606001604052806000815260200160008152602001600081525090565b60005481526100bd6001426101f6565b60208201526100cd6001426101f6565b604082015292915050565b634e487b7160e01b600052604160045260246000fd5b600082601f8301126100ff57600080fd5b81356001600160401b0380821115610119576101196100d8565b604051601f8301601f19908116603f01168101908282118183101715610141576101416100d8565b8160405283815286602085880101111561015a57600080fd5b836020870160208301376000602085830101528094505050505092915050565b6000806040838503121561018d57600080fd5b82356001600160401b03808211156101a457600080fd5b6101b0868387016100ee565b935060208501359150808211156101c657600080fd5b506101d3858286016100ee565b9150509250929050565b6000602082840312156101ef57600080fd5b5035919050565b8181038181111561021757634e487b7160e01b600052601160045260246000fd5b9291505056fea264697066735822122044b47236f89410bcff21972a094981c8a110378e7c3a5d00e1098b0dc2efd71d64736f6c63430008160033",
  "linkReferences": {},
  "deployedLinkReferences": {}
}