{
  "_format": "hh-sol-artifact-1",
  "contractName": "SortedTroves",
  "sourceName": "contracts/core/SortedTroves.sol",
  "abi": [
    {
      "anonymous": false,
      "inputs": [
        {
          "indexed": false,
          "internalType": "address",
          "name": "_id",
          "type": "address"
        },
        {
          "indexed": false,
          "internalType": "uint256",
          "name": "_NICR",
          "type": "uint256"
        }
      ],
      "name": "NodeAdded",
      "type": "event"
    },
    {
      "anonymous": false,
      "inputs": [
        {
          "indexed": false,
          "internalType": "address",
          "name": "_id",
          "type": "address"
        }
      ],
      "name": "NodeRemoved",
      "type": "event"
    },
    {
      "inputs": [
        {
          "internalType": "address",
          "name": "_id",
          "type": "address"
        }
      ],
      "name": "contains",
      "outputs": [
        {
          "internalType": "bool",
          "name": "",
          "type": "bool"
        }
      ],
      "stateMutability": "view",
      "type": "function"
    },
    {
      "inputs": [],
      "name": "data",
      "outputs": [
        {
          "internalType": "address",
          "name": "head",
          "type": "address"
        },
        {
          "internalType": "address",
          "name": "tail",
          "type": "address"
        },
        {
          "internalType": "uint256",
          "name": "size",
          "type": "uint256"
        }
      ],
      "stateMutability": "view",
      "type": "function"
    },
    {
      "inputs": [
        {
          "internalType": "uint256",
          "name": "_NICR",
          "type": "uint256"
        },
        {
          "internalType": "address",
          "name": "_prevId",
          "type": "address"
        },
        {
          "internalType": "address",
          "name": "_nextId",
          "type": "address"
        }
      ],
      "name": "findInsertPosition",
      "outputs": [
        {
          "internalType": "address",
          "name": "",
          "type": "address"
        },
        {
          "internalType": "address",
          "name": "",
          "type": "address"
        }
      ],
      "stateMutability": "view",
      "type": "function"
    },
    {
      "inputs": [],
      "name": "getFirst",
      "outputs": [
        {
          "internalType": "address",
          "name": "",
          "type": "address"
        }
      ],
      "stateMutability": "view",
      "type": "function"
    },
    {
      "inputs": [],
      "name": "getLast",
      "outputs": [
        {
          "internalType": "address",
          "name": "",
          "type": "address"
        }
      ],
      "stateMutability": "view",
      "type": "function"
    },
    {
      "inputs": [
        {
          "internalType": "address",
          "name": "_id",
          "type": "address"
        }
      ],
      "name": "getNext",
      "outputs": [
        {
          "internalType": "address",
          "name": "",
          "type": "address"
        }
      ],
      "stateMutability": "view",
      "type": "function"
    },
    {
      "inputs": [
        {
          "internalType": "address",
          "name": "_id",
          "type": "address"
        }
      ],
      "name": "getPrev",
      "outputs": [
        {
          "internalType": "address",
          "name": "",
          "type": "address"
        }
      ],
      "stateMutability": "view",
      "type": "function"
    },
    {
      "inputs": [],
      "name": "getSize",
      "outputs": [
        {
          "internalType": "uint256",
          "name": "",
          "type": "uint256"
        }
      ],
      "stateMutability": "view",
      "type": "function"
    },
    {
      "inputs": [
        {
          "internalType": "address",
          "name": "_id",
          "type": "address"
        },
        {
          "internalType": "uint256",
          "name": "_NICR",
          "type": "uint256"
        },
        {
          "internalType": "address",
          "name": "_prevId",
          "type": "address"
        },
        {
          "internalType": "address",
          "name": "_nextId",
          "type": "address"
        }
      ],
      "name": "insert",
      "outputs": [],
      "stateMutability": "nonpayable",
      "type": "function"
    },
    {
      "inputs": [],
      "name": "isEmpty",
      "outputs": [
        {
          "internalType": "bool",
          "name": "",
          "type": "bool"
        }
      ],
      "stateMutability": "view",
      "type": "function"
    },
    {
      "inputs": [
        {
          "internalType": "address",
          "name": "_id",
          "type": "address"
        },
        {
          "internalType": "uint256",
          "name": "_newNICR",
          "type": "uint256"
        },
        {
          "internalType": "address",
          "name": "_prevId",
          "type": "address"
        },
        {
          "internalType": "address",
          "name": "_nextId",
          "type": "address"
        }
      ],
      "name": "reInsert",
      "outputs": [],
      "stateMutability": "nonpayable",
      "type": "function"
    },
    {
      "inputs": [
        {
          "internalType": "address",
          "name": "_id",
          "type": "address"
        }
      ],
      "name": "remove",
      "outputs": [],
      "stateMutability": "nonpayable",
      "type": "function"
    },
    {
      "inputs": [
        {
          "internalType": "address",
          "name": "_troveManagerAddress",
          "type": "address"
        }
      ],
      "name": "setAddresses",
      "outputs": [],
      "stateMutability": "nonpayable",
      "type": "function"
    },
    {
      "inputs": [],
      "name": "troveManager",
      "outputs": [
        {
          "internalType": "contract ITroveManager",
          "name": "",
          "type": "address"
        }
      ],
      "stateMutability": "view",
      "type": "function"
    },
    {
      "inputs": [
        {
          "internalType": "uint256",
          "name": "_NICR",
          "type": "uint256"
        },
        {
          "internalType": "address",
          "name": "_prevId",
          "type": "address"
        },
        {
          "internalType": "address",
          "name": "_nextId",
          "type": "address"
        }
      ],
      "name": "validInsertPosition",
      "outputs": [
        {
          "internalType": "bool",
          "name": "",
          "type": "bool"
        }
      ],
      "stateMutability": "view",
      "type": "function"
    }
  ],
  "bytecode": "0x608060405234801561001057600080fd5b50611197806100206000396000f3fe608060405234801561001057600080fd5b50600436106100c55760003560e01c80631e223143146100ca57806329092d0e146100ed5780632be21260146101025780633d83908a146101155780633fce12d514610128578063416980dc1461014b57806346f7cf871461017e5780634d622831146101915780635dbe47e8146101a2578063681fe70c146101b557806373d4a13a146101be578063765e01591461020257806381d3c43514610233578063b72703ac14610246578063de8fa43114610275575b600080fd5b6001546001600160a01b03165b6040516100e4919061102b565b60405180910390f35b6101006100fb36600461105b565b610286565b005b61010061011036600461107d565b6102c0565b6000546100d7906001600160a01b031681565b61013b6101363660046110ca565b61030d565b60405190151581526020016100e4565b61015e6101593660046110ca565b61032e565b604080516001600160a01b039384168152929091166020830152016100e4565b61010061018c36600461107d565b610356565b6002546001600160a01b03166100d7565b61013b6101b036600461105b565b610445565b6003541561013b565b6001546002546003546101dc926001600160a01b0390811692169083565b604080516001600160a01b039485168152939092166020840152908201526060016100e4565b6100d761021036600461105b565b6001600160a01b0390811660009081526004602052604090205461010090041690565b61010061024136600461105b565b610463565b6100d761025436600461105b565b6001600160a01b039081166000908152600460205260409020600101541690565b6003546040519081526020016100e4565b60005461029b906001600160a01b03166104cc565b6001600160a01b03811660009081526004602052604090206102bd9082610539565b50565b6000546001600160a01b03166102d5816104cc565b6001600160a01b03851660009081526004602052604090206102f78187610539565b61030581838888888861075d565b505050505050565b60008054610326906001600160a01b03168585856109da565b949350505050565b600080548190610349906001600160a01b0316868686610c16565b915091505b935093915050565b6000546001600160a01b031661036b816104cc565b6001600160a01b0385166000908152600460205260409020805460ff16156103ef5760405162461bcd60e51b815260206004820152602c60248201527f536f7274656454726f7665733a204c69737420616c726561647920636f6e746160448201526b696e7320746865206e6f646560a01b60648201526084015b60405180910390fd5b6001600160a01b0386166102f75760405162461bcd60e51b815260206004820152601f60248201527f536f7274656454726f7665733a2049642063616e6e6f74206265207a65726f0060448201526064016103e6565b6001600160a01b031660009081526004602052604090205460ff1690565b6000546001600160a01b0316156104aa5760405162461bcd60e51b815260206004820152600b60248201526a105b1c9958591e481cd95d60aa1b60448201526064016103e6565b600080546001600160a01b0319166001600160a01b0392909216919091179055565b336001600160a01b038216146102bd5760405162461bcd60e51b815260206004820152602c60248201527f536f7274656454726f7665733a2043616c6c6572206973206e6f74207468652060448201526b2a3937bb32a6b0b730b3b2b960a11b60648201526084016103e6565b815460ff1661059d5760405162461bcd60e51b815260206004820152602a60248201527f536f7274656454726f7665733a204c69737420646f6573206e6f7420636f6e74604482015269185a5b881d1a19481a5960b21b60648201526084016103e6565b600354600110156106bb576001546001600160a01b03908116908216036105fe578154600180546101009092046001600160a01b03166001600160a01b031992831681178255600090815260046020526040902001805490911690556106d8565b6002546001600160a01b0390811690821603610659576001820154600280546001600160a01b0319166001600160a01b03909216918217905560009081526004602052604090208054610100600160a81b03191690556106d8565b60018281015483546001600160a01b039182166000818152600460205260408082208054610100600160a81b031916610100958690049096169485029590951790945591825291902090910180546001600160a01b03191690911790556106d8565b600180546001600160a01b03199081169091556002805490911690555b6001600160a01b038116600090815260046020526040902080546001600160a81b0319168155600190810180546001600160a01b031916905560035461071e919061111c565b6003556040517fcfc24166db4bb677e857cacabd1541fb2b30645021b27c5130419589b84db52b9061075190839061102b565b60405180910390a15050565b600083116107b95760405162461bcd60e51b815260206004820152602360248201527f536f7274656454726f7665733a204e494352206d75737420626520706f73697460448201526269766560e81b60648201526084016103e6565b81816107c7878684846109da565b6107dd576107d787868484610c16565b90925090505b875460ff191660011788556001600160a01b03821615801561080657506001600160a01b038116155b1561083b57600180546001600160a01b0388166001600160a01b0319918216811790925560028054909116909117905561097d565b6001600160a01b0382166108a357600180548954610100600160a81b0319166101006001600160a01b03928316908102919091178b556000908152600460205260409020820180546001600160a01b0319908116928a1692831790915582541617905561097d565b6001600160a01b03811661090a576002805460018a0180546001600160a01b039283166001600160a01b031991821681179092556000918252600460205260409091208054610100600160a81b031916610100938b1693840217905582541617905561097d565b87546001600160a01b03808316610100818102610100600160a81b0319948516178c556001808d0180548886166001600160a01b031991821681179092556000918252600460205260408083208054978f1695860297909816969096179096559283529290912090910180549092161790555b60035461098b906001611135565b600355604080516001600160a01b0388168152602081018790527fe02b43adbee0c123de070a04554a71877a0007e2fc161466299cae3c094fe82f910160405180910390a15050505050505050565b60006001600160a01b0383161580156109fa57506001600160a01b038216155b15610a0b57600354155b9050610326565b6001600160a01b038316610aa8576001546001600160a01b038381169116148015610a04575060405163b0d8e18160e01b81526001600160a01b0386169063b0d8e18190610a5d90859060040161102b565b602060405180830381865afa158015610a7a573d6000803e3d6000fd5b505050506040513d601f19601f82011682018060405250810190610a9e9190611148565b8410159050610326565b6001600160a01b038216610b45576002546001600160a01b038481169116148015610a04575060405163b0d8e18160e01b81526001600160a01b0386169063b0d8e18190610afa90869060040161102b565b602060405180830381865afa158015610b17573d6000803e3d6000fd5b505050506040513d601f19601f82011682018060405250810190610b3b9190611148565b8411159050610326565b6001600160a01b0383811660009081526004602052604090205461010090048116908316148015610be3575060405163b0d8e18160e01b815284906001600160a01b0387169063b0d8e18190610b9f90879060040161102b565b602060405180830381865afa158015610bbc573d6000803e3d6000fd5b505050506040513d601f19601f82011682018060405250810190610be09190611148565b10155b8015610a04575060405163b0d8e18160e01b81526001600160a01b0386169063b0d8e18190610a5d90859060040161102b565b60008083836001600160a01b03821615610cb457610c3382610445565b1580610caa575060405163b0d8e18160e01b81526001600160a01b0389169063b0d8e18190610c6690859060040161102b565b602060405180830381865afa158015610c83573d6000803e3d6000fd5b505050506040513d601f19601f82011682018060405250810190610ca79190611148565b87115b15610cb457600091505b6001600160a01b03811615610d4c57610ccc81610445565b1580610d43575060405163b0d8e18160e01b81526001600160a01b0389169063b0d8e18190610cff90849060040161102b565b602060405180830381865afa158015610d1c573d6000803e3d6000fd5b505050506040513d601f19601f82011682018060405250810190610d409190611148565b87105b15610d4c575060005b6001600160a01b038216158015610d6a57506001600160a01b038116155b15610d9357600154610d8890899089906001600160a01b0316610dd9565b935093505050610dd0565b6001600160a01b038216610dac57610d88888883610f05565b6001600160a01b038116610dc557610d88888884610dd9565b610d88888884610dd9565b94509492505050565b60015460009081906001600160a01b038481169116148015610e67575060405163b0d8e18160e01b81526001600160a01b0386169063b0d8e18190610e2290869060040161102b565b602060405180830381865afa158015610e3f573d6000803e3d6000fd5b505050506040513d601f19601f82011682018060405250810190610e639190611148565b8410155b15610e775750600090508161034e565b6001600160a01b038084166000908152600460205260409020548491610100909104165b6001600160a01b03821615801590610ebc5750610eba878784846109da565b155b15610ef957506001600160a01b03908116600090815260046020526040808220546101009081900484168084529190922054909291900416610e9b565b90969095509350505050565b60025460009081906001600160a01b038481169116148015610f93575060405163b0d8e18160e01b81526001600160a01b0386169063b0d8e18190610f4e90869060040161102b565b602060405180830381865afa158015610f6b573d6000803e3d6000fd5b505050506040513d601f19601f82011682018060405250810190610f8f9190611148565b8411155b15610fa35750819050600061034e565b6001600160a01b038084166000908152600460205260409020600101548491165b6001600160a01b03821615801590610fe55750610fe3878783856109da565b155b1561102057506001600160a01b0390811660009081526004602052604080822060019081015484168084529190922090910154909116610fc4565b969095509350505050565b6001600160a01b0391909116815260200190565b80356001600160a01b038116811461105657600080fd5b919050565b60006020828403121561106d57600080fd5b6110768261103f565b9392505050565b6000806000806080858703121561109357600080fd5b61109c8561103f565b9350602085013592506110b16040860161103f565b91506110bf6060860161103f565b905092959194509250565b6000806000606084860312156110df57600080fd5b833592506110ef6020850161103f565b91506110fd6040850161103f565b90509250925092565b634e487b7160e01b600052601160045260246000fd5b8181038181111561112f5761112f611106565b92915050565b8082018082111561112f5761112f611106565b60006020828403121561115a57600080fd5b505191905056fea2646970667358221220f7eeb6e29aaa8010d5331bef82a87be4599bfd8b73ef9e8f256daae539a29e4864736f6c63430008160033",
  "linkReferences": {},
  "deployedLinkReferences": {}
}