{
  "_format": "hh-sol-artifact-1",
  "contractName": "VineToken",
  "sourceName": "contracts/dao/VineToken.sol",
  "abi": [
    {
      "inputs": [
        {
          "internalType": "address",
          "name": "_vineCore",
          "type": "address"
        }
      ],
      "stateMutability": "nonpayable",
      "type": "constructor"
    },
    {
      "inputs": [
        {
          "internalType": "address",
          "name": "spender",
          "type": "address"
        },
        {
          "internalType": "uint256",
          "name": "allowance",
          "type": "uint256"
        },
        {
          "internalType": "uint256",
          "name": "needed",
          "type": "uint256"
        }
      ],
      "name": "ERC20InsufficientAllowance",
      "type": "error"
    },
    {
      "inputs": [
        {
          "internalType": "address",
          "name": "sender",
          "type": "address"
        },
        {
          "internalType": "uint256",
          "name": "balance",
          "type": "uint256"
        },
        {
          "internalType": "uint256",
          "name": "needed",
          "type": "uint256"
        }
      ],
      "name": "ERC20InsufficientBalance",
      "type": "error"
    },
    {
      "inputs": [
        {
          "internalType": "address",
          "name": "approver",
          "type": "address"
        }
      ],
      "name": "ERC20InvalidApprover",
      "type": "error"
    },
    {
      "inputs": [
        {
          "internalType": "address",
          "name": "receiver",
          "type": "address"
        }
      ],
      "name": "ERC20InvalidReceiver",
      "type": "error"
    },
    {
      "inputs": [
        {
          "internalType": "address",
          "name": "sender",
          "type": "address"
        }
      ],
      "name": "ERC20InvalidSender",
      "type": "error"
    },
    {
      "inputs": [
        {
          "internalType": "address",
          "name": "spender",
          "type": "address"
        }
      ],
      "name": "ERC20InvalidSpender",
      "type": "error"
    },
    {
      "anonymous": false,
      "inputs": [
        {
          "indexed": true,
          "internalType": "address",
          "name": "owner",
          "type": "address"
        },
        {
          "indexed": true,
          "internalType": "address",
          "name": "spender",
          "type": "address"
        },
        {
          "indexed": false,
          "internalType": "uint256",
          "name": "value",
          "type": "uint256"
        }
      ],
      "name": "Approval",
      "type": "event"
    },
    {
      "anonymous": false,
      "inputs": [
        {
          "indexed": true,
          "internalType": "uint16",
          "name": "_srcChainId",
          "type": "uint16"
        },
        {
          "indexed": true,
          "internalType": "address",
          "name": "_to",
          "type": "address"
        },
        {
          "indexed": false,
          "internalType": "uint256",
          "name": "_amount",
          "type": "uint256"
        }
      ],
      "name": "ReceiveFromChain",
      "type": "event"
    },
    {
      "anonymous": false,
      "inputs": [
        {
          "indexed": true,
          "internalType": "uint16",
          "name": "_dstChainId",
          "type": "uint16"
        },
        {
          "indexed": true,
          "internalType": "address",
          "name": "_from",
          "type": "address"
        },
        {
          "indexed": false,
          "internalType": "bytes",
          "name": "_toAddress",
          "type": "bytes"
        },
        {
          "indexed": false,
          "internalType": "uint256",
          "name": "_amount",
          "type": "uint256"
        }
      ],
      "name": "SendToChain",
      "type": "event"
    },
    {
      "anonymous": false,
      "inputs": [
        {
          "indexed": true,
          "internalType": "address",
          "name": "from",
          "type": "address"
        },
        {
          "indexed": true,
          "internalType": "address",
          "name": "to",
          "type": "address"
        },
        {
          "indexed": false,
          "internalType": "uint256",
          "name": "value",
          "type": "uint256"
        }
      ],
      "name": "Transfer",
      "type": "event"
    },
    {
      "inputs": [],
      "name": "VINE_CORE",
      "outputs": [
        {
          "internalType": "contract IVineCore",
          "name": "",
          "type": "address"
        }
      ],
      "stateMutability": "view",
      "type": "function"
    },
    {
      "inputs": [
        {
          "internalType": "address",
          "name": "owner",
          "type": "address"
        },
        {
          "internalType": "address",
          "name": "spender",
          "type": "address"
        }
      ],
      "name": "allowance",
      "outputs": [
        {
          "internalType": "uint256",
          "name": "",
          "type": "uint256"
        }
      ],
      "stateMutability": "view",
      "type": "function"
    },
    {
      "inputs": [
        {
          "internalType": "address",
          "name": "spender",
          "type": "address"
        },
        {
          "internalType": "uint256",
          "name": "value",
          "type": "uint256"
        }
      ],
      "name": "approve",
      "outputs": [
        {
          "internalType": "bool",
          "name": "",
          "type": "bool"
        }
      ],
      "stateMutability": "nonpayable",
      "type": "function"
    },
    {
      "inputs": [
        {
          "internalType": "address",
          "name": "account",
          "type": "address"
        }
      ],
      "name": "balanceOf",
      "outputs": [
        {
          "internalType": "uint256",
          "name": "",
          "type": "uint256"
        }
      ],
      "stateMutability": "view",
      "type": "function"
    },
    {
      "inputs": [
        {
          "internalType": "uint16",
          "name": "dstChainId",
          "type": "uint16"
        },
        {
          "internalType": "address",
          "name": "from",
          "type": "address"
        },
        {
          "internalType": "bytes",
          "name": "to",
          "type": "bytes"
        },
        {
          "internalType": "uint256",
          "name": "amount",
          "type": "uint256"
        }
      ],
      "name": "burn",
      "outputs": [],
      "stateMutability": "nonpayable",
      "type": "function"
    },
    {
      "inputs": [
        {
          "internalType": "address",
          "name": "",
          "type": "address"
        }
      ],
      "name": "buyFrom",
      "outputs": [
        {
          "internalType": "bool",
          "name": "",
          "type": "bool"
        }
      ],
      "stateMutability": "view",
      "type": "function"
    },
    {
      "inputs": [],
      "name": "celerEndPoint",
      "outputs": [
        {
          "internalType": "address",
          "name": "",
          "type": "address"
        }
      ],
      "stateMutability": "view",
      "type": "function"
    },
    {
      "inputs": [],
      "name": "decimals",
      "outputs": [
        {
          "internalType": "uint8",
          "name": "",
          "type": "uint8"
        }
      ],
      "stateMutability": "view",
      "type": "function"
    },
    {
      "inputs": [],
      "name": "domainSeparator",
      "outputs": [
        {
          "internalType": "bytes32",
          "name": "",
          "type": "bytes32"
        }
      ],
      "stateMutability": "view",
      "type": "function"
    },
    {
      "inputs": [],
      "name": "guardian",
      "outputs": [
        {
          "internalType": "address",
          "name": "",
          "type": "address"
        }
      ],
      "stateMutability": "view",
      "type": "function"
    },
    {
      "inputs": [],
      "name": "locker",
      "outputs": [
        {
          "internalType": "address",
          "name": "",
          "type": "address"
        }
      ],
      "stateMutability": "view",
      "type": "function"
    },
    {
      "inputs": [],
      "name": "maxTotalSupply",
      "outputs": [
        {
          "internalType": "uint256",
          "name": "",
          "type": "uint256"
        }
      ],
      "stateMutability": "view",
      "type": "function"
    },
    {
      "inputs": [
        {
          "internalType": "uint256",
          "name": "_totalSupply",
          "type": "uint256"
        }
      ],
      "name": "mintToVault",
      "outputs": [
        {
          "internalType": "bool",
          "name": "",
          "type": "bool"
        }
      ],
      "stateMutability": "nonpayable",
      "type": "function"
    },
    {
      "inputs": [],
      "name": "name",
      "outputs": [
        {
          "internalType": "string",
          "name": "",
          "type": "string"
        }
      ],
      "stateMutability": "view",
      "type": "function"
    },
    {
      "inputs": [
        {
          "internalType": "address",
          "name": "owner",
          "type": "address"
        }
      ],
      "name": "nonces",
      "outputs": [
        {
          "internalType": "uint256",
          "name": "",
          "type": "uint256"
        }
      ],
      "stateMutability": "view",
      "type": "function"
    },
    {
      "inputs": [],
      "name": "owner",
      "outputs": [
        {
          "internalType": "address",
          "name": "",
          "type": "address"
        }
      ],
      "stateMutability": "view",
      "type": "function"
    },
    {
      "inputs": [
        {
          "internalType": "address",
          "name": "owner",
          "type": "address"
        },
        {
          "internalType": "address",
          "name": "spender",
          "type": "address"
        },
        {
          "internalType": "uint256",
          "name": "amount",
          "type": "uint256"
        },
        {
          "internalType": "uint256",
          "name": "deadline",
          "type": "uint256"
        },
        {
          "internalType": "uint8",
          "name": "v",
          "type": "uint8"
        },
        {
          "internalType": "bytes32",
          "name": "r",
          "type": "bytes32"
        },
        {
          "internalType": "bytes32",
          "name": "s",
          "type": "bytes32"
        }
      ],
      "name": "permit",
      "outputs": [],
      "stateMutability": "nonpayable",
      "type": "function"
    },
    {
      "inputs": [],
      "name": "permitTypeHash",
      "outputs": [
        {
          "internalType": "bytes32",
          "name": "",
          "type": "bytes32"
        }
      ],
      "stateMutability": "view",
      "type": "function"
    },
    {
      "inputs": [
        {
          "internalType": "uint16",
          "name": "srcChainId",
          "type": "uint16"
        },
        {
          "internalType": "address",
          "name": "account",
          "type": "address"
        },
        {
          "internalType": "uint256",
          "name": "amount",
          "type": "uint256"
        }
      ],
      "name": "receiveFromChain",
      "outputs": [],
      "stateMutability": "nonpayable",
      "type": "function"
    },
    {
      "inputs": [
        {
          "internalType": "address",
          "name": "_celer",
          "type": "address"
        }
      ],
      "name": "setCelerEndPoint",
      "outputs": [],
      "stateMutability": "nonpayable",
      "type": "function"
    },
    {
      "inputs": [
        {
          "internalType": "address",
          "name": "_vault",
          "type": "address"
        },
        {
          "internalType": "address",
          "name": "_locker",
          "type": "address"
        }
      ],
      "name": "setInitialParameters",
      "outputs": [],
      "stateMutability": "nonpayable",
      "type": "function"
    },
    {
      "inputs": [
        {
          "internalType": "address",
          "name": "_pairs",
          "type": "address"
        },
        {
          "internalType": "bool",
          "name": "_bol",
          "type": "bool"
        }
      ],
      "name": "setSwapTo",
      "outputs": [],
      "stateMutability": "nonpayable",
      "type": "function"
    },
    {
      "inputs": [
        {
          "internalType": "address",
          "name": "_pairs",
          "type": "address"
        },
        {
          "internalType": "bool",
          "name": "_bol",
          "type": "bool"
        }
      ],
      "name": "setTradeFrom",
      "outputs": [],
      "stateMutability": "nonpayable",
      "type": "function"
    },
    {
      "inputs": [
        {
          "internalType": "uint256",
          "name": "_time",
          "type": "uint256"
        }
      ],
      "name": "setTradeTime",
      "outputs": [],
      "stateMutability": "nonpayable",
      "type": "function"
    },
    {
      "inputs": [
        {
          "internalType": "address",
          "name": "",
          "type": "address"
        }
      ],
      "name": "swapTo",
      "outputs": [
        {
          "internalType": "bool",
          "name": "",
          "type": "bool"
        }
      ],
      "stateMutability": "view",
      "type": "function"
    },
    {
      "inputs": [],
      "name": "symbol",
      "outputs": [
        {
          "internalType": "string",
          "name": "",
          "type": "string"
        }
      ],
      "stateMutability": "view",
      "type": "function"
    },
    {
      "inputs": [],
      "name": "totalSupply",
      "outputs": [
        {
          "internalType": "uint256",
          "name": "",
          "type": "uint256"
        }
      ],
      "stateMutability": "view",
      "type": "function"
    },
    {
      "inputs": [
        {
          "internalType": "address",
          "name": "to",
          "type": "address"
        },
        {
          "internalType": "uint256",
          "name": "value",
          "type": "uint256"
        }
      ],
      "name": "transfer",
      "outputs": [
        {
          "internalType": "bool",
          "name": "",
          "type": "bool"
        }
      ],
      "stateMutability": "nonpayable",
      "type": "function"
    },
    {
      "inputs": [
        {
          "internalType": "address",
          "name": "from",
          "type": "address"
        },
        {
          "internalType": "address",
          "name": "to",
          "type": "address"
        },
        {
          "internalType": "uint256",
          "name": "value",
          "type": "uint256"
        }
      ],
      "name": "transferFrom",
      "outputs": [
        {
          "internalType": "bool",
          "name": "",
          "type": "bool"
        }
      ],
      "stateMutability": "nonpayable",
      "type": "function"
    },
    {
      "inputs": [
        {
          "internalType": "address",
          "name": "sender",
          "type": "address"
        },
        {
          "internalType": "uint256",
          "name": "amount",
          "type": "uint256"
        }
      ],
      "name": "transferToLocker",
      "outputs": [
        {
          "internalType": "bool",
          "name": "",
          "type": "bool"
        }
      ],
      "stateMutability": "nonpayable",
      "type": "function"
    },
    {
      "inputs": [],
      "name": "vault",
      "outputs": [
        {
          "internalType": "address",
          "name": "",
          "type": "address"
        }
      ],
      "stateMutability": "view",
      "type": "function"
    },
    {
      "inputs": [],
      "name": "version",
      "outputs": [
        {
          "internalType": "string",
          "name": "",
          "type": "string"
        }
      ],
      "stateMutability": "view",
      "type": "function"
    }
  ],
  "bytecode": "0x6101206040523480156200001257600080fd5b5060405162001c7338038062001c738339810160408190526200003591620001d0565b806040518060400160405280601481526020017f42697420476f7665726e616e636520546f6b656e000000000000000000000000815250604051806040016040528060068152602001653134ba23a7ab60d11b81525081600390816200009c9190620002a9565b506004620000ab8282620002a9565b5050506001600160a01b0316608052604080518082018252601481527f42697420476f7665726e616e636520546f6b656e000000000000000000000000602091820152815180830190925260018252603160f81b9101527f7956daab71c3bbf5b453bd7a99271edf9c669d7f04efc7bb0dc0e520e74ed8a760e08190527fc89efdaa54c0f20c7adf612882df0950f5a951637e0307cdcb4c672f298b8bc66101008190524660c052620001c37f8b73c3c69bb8fe3d512ecc4cf759cc79239f7b179b0ffacaa9a75d522b39400f83836040805160208101859052908101839052606081018290524660808201523060a082015260009060c0016040516020818303038152906040528051906020012090509392505050565b60a0525062000375915050565b600060208284031215620001e357600080fd5b81516001600160a01b0381168114620001fb57600080fd5b9392505050565b634e487b7160e01b600052604160045260246000fd5b600181811c908216806200022d57607f821691505b6020821081036200024e57634e487b7160e01b600052602260045260246000fd5b50919050565b601f821115620002a4576000816000526020600020601f850160051c810160208610156200027f5750805b601f850160051c820191505b81811015620002a0578281556001016200028b565b5050505b505050565b81516001600160401b03811115620002c557620002c562000202565b620002dd81620002d6845462000218565b8462000254565b602080601f831160018114620003155760008415620002fc5750858301515b600019600386901b1c1916600185901b178555620002a0565b600085815260208120601f198616915b82811015620003465788860151825594840194600190910190840162000325565b5085821015620003655787850151600019600388901b60f8161c191681555b5050505050600190811b01905550565b60805160a05160c05160e0516101005161188f620003e46000396000610dde01526000610db901526000610d3e01526000610d6601526000818161034f0152818161057f015281816106c60152818161079c01528181610890015281816108ee0152610c03015261188f6000f3fe608060405234801561001057600080fd5b50600436106101805760003560e01c806306fdde0314610185578063095ea7b3146101a357806310ce43bd146101c657806318160ddd146101e95780631a674411146101f15780631cfa3ca8146102145780632159421e1461022957806323b872dd1461023c57806324c938371461024f5780632ab4d05214610262578063313ce5671461026b57806344cdd6411461027a578063452a93201461028d57806354fd4d50146102a2578063691a3f64146102c257806370a08231146102e55780637426df5b1461030e5780637ecebe001461032157806382d61d161461034a5780638da5cb5b14610371578063956cb72a1461037957806395d89b411461038c578063999773da14610394578063a9059cbb146103a7578063d505accf146103ba578063d7b96d4e146103cd578063dd62ed3e146103e0578063e0f9c8a6146103f3578063e815a5b514610406578063f698da2514610419578063fa6657e714610421578063fbfa77cf14610434575b600080fd5b61018d610447565b60405161019a91906113ce565b60405180910390f35b6101b66101b1366004611400565b6104d9565b604051901515815260200161019a565b6101db60008051602061183a83398151915281565b60405190815260200161019a565b6002546101db565b6101b66101ff36600461142c565b600b6020526000908152604090205460ff1681565b610227610222366004611460565b6104f3565b005b61022761023736600461149f565b61057d565b6101b661024a3660046114dd565b61065a565b6101b661025d3660046114fd565b61067e565b6101db60085481565b6040516012815260200161019a565b61022761028836600461142c565b6106c4565b610295610798565b60405161019a9190611516565b61018d604051806040016040528060018152602001603160f81b81525081565b6101b66102d036600461142c565b600a6020526000908152604090205460ff1681565b6101db6102f336600461142c565b6001600160a01b031660009081526020819052604090205490565b6101b661031c366004611400565b610821565b6101db61032f36600461142c565b6001600160a01b03166000908152600c602052604090205490565b6102957f000000000000000000000000000000000000000000000000000000000000000081565b61029561088c565b61022761038736600461149f565b6108ec565b61018d6109c9565b600754610295906001600160a01b031681565b6101b66103b5366004611400565b6109d8565b6102276103c836600461152a565b6109e6565b600554610295906001600160a01b031681565b6101db6103ee3660046115a1565b610bd6565b6102276104013660046114fd565b610c01565b6102276104143660046115e5565b610cb8565b6101db610d3a565b61022761042f3660046115a1565b610e2c565b600654610295906001600160a01b031681565b606060038054610456906116c0565b80601f0160208091040260200160405190810160405280929190818152602001828054610482906116c0565b80156104cf5780601f106104a4576101008083540402835291602001916104cf565b820191906000526020600020905b8154815290600101906020018083116104b257829003601f168201915b5050505050905090565b6000336104e7818585610e84565b60019150505b92915050565b6007546001600160a01b031633146105265760405162461bcd60e51b815260040161051d906116fa565b60405180910390fd5b6105308282610e96565b816001600160a01b03168361ffff167fbf551ec93859b170f9b2141bd9298bf3f64322c6f7beb2543a0cb669834118bf8360405161057091815260200190565b60405180910390a3505050565b7f00000000000000000000000000000000000000000000000000000000000000006001600160a01b0316638da5cb5b6040518163ffffffff1660e01b8152600401602060405180830381865afa1580156105db573d6000803e3d6000fd5b505050506040513d601f19601f820116820180604052508101906105ff9190611727565b6001600160a01b0316336001600160a01b03161461062f5760405162461bcd60e51b815260040161051d90611744565b6001600160a01b03919091166000908152600b60205260409020805460ff1916911515919091179055565b600033610668858285610ed0565b610673858585610f23565b506001949350505050565b6006546000906001600160a01b0316331461069857600080fd5b600854156106a557600080fd5b6006546106bb906001600160a01b031683610e96565b50600855600190565b7f00000000000000000000000000000000000000000000000000000000000000006001600160a01b0316638da5cb5b6040518163ffffffff1660e01b8152600401602060405180830381865afa158015610722573d6000803e3d6000fd5b505050506040513d601f19601f820116820180604052508101906107469190611727565b6001600160a01b0316336001600160a01b0316146107765760405162461bcd60e51b815260040161051d90611744565b600780546001600160a01b0319166001600160a01b0392909216919091179055565b60007f00000000000000000000000000000000000000000000000000000000000000006001600160a01b031663452a93206040518163ffffffff1660e01b8152600401602060405180830381865afa1580156107f8573d6000803e3d6000fd5b505050506040513d601f19601f8201168201806040525081019061081c9190611727565b905090565b6005546000906001600160a01b0316331461086b5760405162461bcd60e51b815260206004820152600a6024820152692737ba103637b1b5b2b960b11b604482015260640161051d565b6005546108839084906001600160a01b031684610f23565b50600192915050565b60007f00000000000000000000000000000000000000000000000000000000000000006001600160a01b0316638da5cb5b6040518163ffffffff1660e01b8152600401602060405180830381865afa1580156107f8573d6000803e3d6000fd5b7f00000000000000000000000000000000000000000000000000000000000000006001600160a01b0316638da5cb5b6040518163ffffffff1660e01b8152600401602060405180830381865afa15801561094a573d6000803e3d6000fd5b505050506040513d601f19601f8201168201806040525081019061096e9190611727565b6001600160a01b0316336001600160a01b03161461099e5760405162461bcd60e51b815260040161051d90611744565b6001600160a01b03919091166000908152600a60205260409020805460ff1916911515919091179055565b606060048054610456906116c0565b6000336104e7818585610f23565b42841015610a2f5760405162461bcd60e51b815260206004820152601660248201527556494e453a206578706972656420646561646c696e6560501b604482015260640161051d565b6000610a39610d3a565b6001600160a01b0389166000908152600c60205260408120805460008051602061183a833981519152928c928c928c92909190610a758361177e565b909155506040805160208101969096526001600160a01b0394851690860152929091166060840152608083015260a082015260c0810187905260e00160405160208183030381529060405280519060200120604051602001610aee92919061190160f01b81526002810192909252602282015260420190565b60408051601f198184030181528282528051602091820120600080855291840180845281905260ff88169284019290925260608301869052608083018590529092509060019060a0016020604051602081039080840390855afa158015610b59573d6000803e3d6000fd5b505050602060405103519050886001600160a01b0316816001600160a01b031614610bc05760405162461bcd60e51b815260206004820152601760248201527656494e453a20696e76616c6964207369676e617475726560481b604482015260640161051d565b610bcb898989610e84565b505050505050505050565b6001600160a01b03918216600090815260016020908152604080832093909416825291909152205490565b7f00000000000000000000000000000000000000000000000000000000000000006001600160a01b0316638da5cb5b6040518163ffffffff1660e01b8152600401602060405180830381865afa158015610c5f573d6000803e3d6000fd5b505050506040513d601f19601f82011682018060405250810190610c839190611727565b6001600160a01b0316336001600160a01b031614610cb35760405162461bcd60e51b815260040161051d90611744565b600955565b6007546001600160a01b03163314610ce25760405162461bcd60e51b815260040161051d906116fa565b610cec8382610f82565b826001600160a01b03168461ffff167f39a4c66499bcf4b56d79f0dde8ed7a9d4925a0df55825206b2b8531e202be0d08484604051610d2c929190611797565b60405180910390a350505050565b60007f00000000000000000000000000000000000000000000000000000000000000004603610d8857507f000000000000000000000000000000000000000000000000000000000000000090565b50604080517f8b73c3c69bb8fe3d512ecc4cf759cc79239f7b179b0ffacaa9a75d522b39400f6020808301919091527f0000000000000000000000000000000000000000000000000000000000000000828401527f000000000000000000000000000000000000000000000000000000000000000060608301524660808301523060a0808401919091528351808403909101815260c0909201909252805191012090565b6006546001600160a01b0316158015610e4d57506001600160a01b03821615155b610e5657600080fd5b600680546001600160a01b039384166001600160a01b03199182161790915560058054929093169116179055565b610e918383836001610fb8565b505050565b6001600160a01b038216610ec057600060405163ec442f0560e01b815260040161051d9190611516565b610ecc6000838361107f565b5050565b6000610edc8484610bd6565b90506000198114610f1d5781811015610f0e57828183604051637dc7a0d960e11b815260040161051d939291906117b9565b610f1d84848484036000610fb8565b50505050565b6001600160a01b038316610f4d576000604051634b637e8f60e11b815260040161051d9190611516565b6001600160a01b038216610f7757600060405163ec442f0560e01b815260040161051d9190611516565b610e9183838361107f565b6001600160a01b038216610fac576000604051634b637e8f60e11b815260040161051d9190611516565b610ecc8260008361107f565b6001600160a01b038416610fe257600060405163e602df0560e01b815260040161051d9190611516565b6001600160a01b03831661100c576000604051634a1406b160e11b815260040161051d9190611516565b6001600160a01b0380851660009081526001602090815260408083209387168352929052208290558015610f1d57826001600160a01b0316846001600160a01b03167f8c5be1e5ebec7d5bd14f71427d1e84f3dd0314c0f7b2291e5b200ac8c7c3b92584604051610d2c91815260200190565b60095461108e90610e106117da565b421061109f57610e9183838361127e565b806000036110ac57505050565b60095442101561118d576110be61088c565b6001600160a01b0316836001600160a01b031614806110f557506110e061088c565b6001600160a01b0316826001600160a01b0316145b8061113d57506001600160a01b0383166000908152600a602052604090205460ff1615801561113d57506001600160a01b0382166000908152600b602052604090205460ff16155b6111825760405162461bcd60e51b81526020600482015260166024820152752a3930b234b7339034b9903737ba1030b1ba34bb329760511b604482015260640161051d565b610e9183838361127e565b61119883838361127e565b6001600160a01b0383166000908152600a602052604090205460ff161561120e5760006101a4600954426111cc91906117ed565b116111ed5760146111de836007611800565b6111e89190611817565b6111f8565b6111f8600a83611817565b9050801561120c5761120c8360008361127e565b505b6001600160a01b0382166000908152600b602052604090205460ff1615610e915760006101a46009544261124291906117ed565b11611263576014611254836007611800565b61125e9190611817565b61126e565b61126e600a83611817565b90508015610f1d57610f1d846000835b6001600160a01b0383166112a957806002600082825461129e91906117da565b909155506113089050565b6001600160a01b038316600090815260208190526040902054818110156112e95783818360405163391434e360e21b815260040161051d939291906117b9565b6001600160a01b03841660009081526020819052604090209082900390555b6001600160a01b03821661132457600280548290039055611343565b6001600160a01b03821660009081526020819052604090208054820190555b816001600160a01b0316836001600160a01b03167fddf252ad1be2c89b69c2b068fc378daa952ba7f163c4a11628f55a4df523b3ef8360405161057091815260200190565b6000815180845260005b818110156113ae57602081850181015186830182015201611392565b506000602082860101526020601f19601f83011685010191505092915050565b6020815260006113e16020830184611388565b9392505050565b6001600160a01b03811681146113fd57600080fd5b50565b6000806040838503121561141357600080fd5b823561141e816113e8565b946020939093013593505050565b60006020828403121561143e57600080fd5b81356113e1816113e8565b803561ffff8116811461145b57600080fd5b919050565b60008060006060848603121561147557600080fd5b61147e84611449565b9250602084013561148e816113e8565b929592945050506040919091013590565b600080604083850312156114b257600080fd5b82356114bd816113e8565b9150602083013580151581146114d257600080fd5b809150509250929050565b6000806000606084860312156114f257600080fd5b833561147e816113e8565b60006020828403121561150f57600080fd5b5035919050565b6001600160a01b0391909116815260200190565b600080600080600080600060e0888a03121561154557600080fd5b8735611550816113e8565b96506020880135611560816113e8565b95506040880135945060608801359350608088013560ff8116811461158457600080fd5b9699959850939692959460a0840135945060c09093013592915050565b600080604083850312156115b457600080fd5b82356115bf816113e8565b915060208301356114d2816113e8565b634e487b7160e01b600052604160045260246000fd5b600080600080608085870312156115fb57600080fd5b61160485611449565b93506020850135611614816113e8565b925060408501356001600160401b038082111561163057600080fd5b818701915087601f83011261164457600080fd5b813581811115611656576116566115cf565b604051601f8201601f19908116603f0116810190838211818310171561167e5761167e6115cf565b816040528281528a602084870101111561169757600080fd5b826020860160208301376000928101602001929092525095989497509495606001359450505050565b600181811c908216806116d457607f821691505b6020821081036116f457634e487b7160e01b600052602260045260246000fd5b50919050565b60208082526013908201527256696e653a2043616c6c6572206e6f7420434560681b604082015260600190565b60006020828403121561173957600080fd5b81516113e1816113e8565b6020808252600a908201526927b7363c9037bbb732b960b11b604082015260600190565b634e487b7160e01b600052601160045260246000fd5b60006001820161179057611790611768565b5060010190565b6040815260006117aa6040830185611388565b90508260208301529392505050565b6001600160a01b039390931683526020830191909152604082015260600190565b808201808211156104ed576104ed611768565b818103818111156104ed576104ed611768565b80820281158282048414176104ed576104ed611768565b60008261183457634e487b7160e01b600052601260045260246000fd5b50049056fe6e71edae12b1b97f4d1f60370fef10105fa2faae0126114a169c64845d6126c9a2646970667358221220ec2da5c81d0ed213cf0b74f2d7b4b53fbac609dad08367a5602e911271b8273d64736f6c63430008160033",
  "linkReferences": {},
  "deployedLinkReferences": {}
}