{
  "contracts/mock/MockLpChecker.sol": {
    "LpChecker": {
      "abi": [
        {
          "inputs": [],
          "stateMutability": "nonpayable",
          "type": "constructor"
        },
        {
          "inputs": [
            {
              "internalType": "uint256",
              "name": "debt",
              "type": "uint256"
            },
            {
              "internalType": "address",
              "name": "account",
              "type": "address"
            }
          ],
          "name": "checkDlpStatus",
          "outputs": [
            {
              "internalType": "bool",
              "name": "",
              "type": "bool"
            }
          ],
          "stateMutability": "view",
          "type": "function"
        },
        {
          "inputs": [],
          "name": "dlpBonus",
          "outputs": [
            {
              "internalType": "uint256",
              "name": "",
              "type": "uint256"
            }
          ],
          "stateMutability": "view",
          "type": "function"
        },
        {
          "inputs": [],
          "name": "dlpThresold",
          "outputs": [
            {
              "internalType": "uint256",
              "name": "",
              "type": "uint256"
            }
          ],
          "stateMutability": "view",
          "type": "function"
        },
        {
          "inputs": [
            {
              "internalType": "address",
              "name": "account",
              "type": "address"
            }
          ],
          "name": "getLpVault",
          "outputs": [
            {
              "internalType": "uint256",
              "name": "",
              "type": "uint256"
            }
          ],
          "stateMutability": "view",
          "type": "function"
        },
        {
          "inputs": [
            {
              "internalType": "uint256",
              "name": "_dlpThresold",
              "type": "uint256"
            },
            {
              "internalType": "uint256",
              "name": "_dlpBonus",
              "type": "uint256"
            }
          ],
          "name": "setDlpParams",
          "outputs": [],
          "stateMutability": "nonpayable",
          "type": "function"
        }
      ],
      "evm": {
        "bytecode": {
          "linkReferences": {},
          "object": "608060405234801561001057600080fd5b50610267806100206000396000f3fe608060405234801561001057600080fd5b50600436106100575760003560e01c806392ef4eb71461005c57806396f1cf1c14610078578063a824328c14610081578063cba1e33914610095578063f1a0ca93146100b8575b600080fd5b61006560005481565b6040519081526020015b60405180910390f35b61006560015481565b61006561008f36600461017a565b50600090565b6100a86100a336600461019c565b6100cd565b604051901515815260200161006f565b6100cb6100c63660046101c8565b610119565b005b6000826000036100df57506000610113565b600054836100eb600090565b6100f7906103e86101ea565b610101919061020f565b111561010f57506001610113565b5060005b92915050565b6103e881106101535760405162461bcd60e51b815260206004820152600260248201526127a960f11b604482015260640160405180910390fd5b600091909155600155565b80356001600160a01b038116811461017557600080fd5b919050565b60006020828403121561018c57600080fd5b6101958261015e565b9392505050565b600080604083850312156101af57600080fd5b823591506101bf6020840161015e565b90509250929050565b600080604083850312156101db57600080fd5b50508035926020909101359150565b808202811582820484141761011357634e487b7160e01b600052601160045260246000fd5b60008261022c57634e487b7160e01b600052601260045260246000fd5b50049056fea264697066735822122019e83ea29f7cd4682554c53e61a6a6c1f6f819675bece3093943d7cb398c883664736f6c63430008160033",
          "opcodes": "PUSH1 0x80 PUSH1 0x40 MSTORE CALLVALUE DUP1 ISZERO PUSH2 0x10 JUMPI PUSH1 0x0 DUP1 REVERT JUMPDEST POP PUSH2 0x267 DUP1 PUSH2 0x20 PUSH1 0x0 CODECOPY PUSH1 0x0 RETURN INVALID PUSH1 0x80 PUSH1 0x40 MSTORE CALLVALUE DUP1 ISZERO PUSH2 0x10 JUMPI PUSH1 0x0 DUP1 REVERT JUMPDEST POP PUSH1 0x4 CALLDATASIZE LT PUSH2 0x57 JUMPI PUSH1 0x0 CALLDATALOAD PUSH1 0xE0 SHR DUP1 PUSH4 0x92EF4EB7 EQ PUSH2 0x5C JUMPI DUP1 PUSH4 0x96F1CF1C EQ PUSH2 0x78 JUMPI DUP1 PUSH4 0xA824328C EQ PUSH2 0x81 JUMPI DUP1 PUSH4 0xCBA1E339 EQ PUSH2 0x95 JUMPI DUP1 PUSH4 0xF1A0CA93 EQ PUSH2 0xB8 JUMPI JUMPDEST PUSH1 0x0 DUP1 REVERT JUMPDEST PUSH2 0x65 PUSH1 0x0 SLOAD DUP2 JUMP JUMPDEST PUSH1 0x40 MLOAD SWAP1 DUP2 MSTORE PUSH1 0x20 ADD JUMPDEST PUSH1 0x40 MLOAD DUP1 SWAP2 SUB SWAP1 RETURN JUMPDEST PUSH2 0x65 PUSH1 0x1 SLOAD DUP2 JUMP JUMPDEST PUSH2 0x65 PUSH2 0x8F CALLDATASIZE PUSH1 0x4 PUSH2 0x17A JUMP JUMPDEST POP PUSH1 0x0 SWAP1 JUMP JUMPDEST PUSH2 0xA8 PUSH2 0xA3 CALLDATASIZE PUSH1 0x4 PUSH2 0x19C JUMP JUMPDEST PUSH2 0xCD JUMP JUMPDEST PUSH1 0x40 MLOAD SWAP1 ISZERO ISZERO DUP2 MSTORE PUSH1 0x20 ADD PUSH2 0x6F JUMP JUMPDEST PUSH2 0xCB PUSH2 0xC6 CALLDATASIZE PUSH1 0x4 PUSH2 0x1C8 JUMP JUMPDEST PUSH2 0x119 JUMP JUMPDEST STOP JUMPDEST PUSH1 0x0 DUP3 PUSH1 0x0 SUB PUSH2 0xDF JUMPI POP PUSH1 0x0 PUSH2 0x113 JUMP JUMPDEST PUSH1 0x0 SLOAD DUP4 PUSH2 0xEB PUSH1 0x0 SWAP1 JUMP JUMPDEST PUSH2 0xF7 SWAP1 PUSH2 0x3E8 PUSH2 0x1EA JUMP JUMPDEST PUSH2 0x101 SWAP2 SWAP1 PUSH2 0x20F JUMP JUMPDEST GT ISZERO PUSH2 0x10F JUMPI POP PUSH1 0x1 PUSH2 0x113 JUMP JUMPDEST POP PUSH1 0x0 JUMPDEST SWAP3 SWAP2 POP POP JUMP JUMPDEST PUSH2 0x3E8 DUP2 LT PUSH2 0x153 JUMPI PUSH1 0x40 MLOAD PUSH3 0x461BCD PUSH1 0xE5 SHL DUP2 MSTORE PUSH1 0x20 PUSH1 0x4 DUP3 ADD MSTORE PUSH1 0x2 PUSH1 0x24 DUP3 ADD MSTORE PUSH2 0x27A9 PUSH1 0xF1 SHL PUSH1 0x44 DUP3 ADD MSTORE PUSH1 0x64 ADD PUSH1 0x40 MLOAD DUP1 SWAP2 SUB SWAP1 REVERT JUMPDEST PUSH1 0x0 SWAP2 SWAP1 SWAP2 SSTORE PUSH1 0x1 SSTORE JUMP JUMPDEST DUP1 CALLDATALOAD PUSH1 0x1 PUSH1 0x1 PUSH1 0xA0 SHL SUB DUP2 AND DUP2 EQ PUSH2 0x175 JUMPI PUSH1 0x0 DUP1 REVERT JUMPDEST SWAP2 SWAP1 POP JUMP JUMPDEST PUSH1 0x0 PUSH1 0x20 DUP3 DUP5 SUB SLT ISZERO PUSH2 0x18C JUMPI PUSH1 0x0 DUP1 REVERT JUMPDEST PUSH2 0x195 DUP3 PUSH2 0x15E JUMP JUMPDEST SWAP4 SWAP3 POP POP POP JUMP JUMPDEST PUSH1 0x0 DUP1 PUSH1 0x40 DUP4 DUP6 SUB SLT ISZERO PUSH2 0x1AF JUMPI PUSH1 0x0 DUP1 REVERT JUMPDEST DUP3 CALLDATALOAD SWAP2 POP PUSH2 0x1BF PUSH1 0x20 DUP5 ADD PUSH2 0x15E JUMP JUMPDEST SWAP1 POP SWAP3 POP SWAP3 SWAP1 POP JUMP JUMPDEST PUSH1 0x0 DUP1 PUSH1 0x40 DUP4 DUP6 SUB SLT ISZERO PUSH2 0x1DB JUMPI PUSH1 0x0 DUP1 REVERT JUMPDEST POP POP DUP1 CALLDATALOAD SWAP3 PUSH1 0x20 SWAP1 SWAP2 ADD CALLDATALOAD SWAP2 POP JUMP JUMPDEST DUP1 DUP3 MUL DUP2 ISZERO DUP3 DUP3 DIV DUP5 EQ OR PUSH2 0x113 JUMPI PUSH4 0x4E487B71 PUSH1 0xE0 SHL PUSH1 0x0 MSTORE PUSH1 0x11 PUSH1 0x4 MSTORE PUSH1 0x24 PUSH1 0x0 REVERT JUMPDEST PUSH1 0x0 DUP3 PUSH2 0x22C JUMPI PUSH4 0x4E487B71 PUSH1 0xE0 SHL PUSH1 0x0 MSTORE PUSH1 0x12 PUSH1 0x4 MSTORE PUSH1 0x24 PUSH1 0x0 REVERT JUMPDEST POP DIV SWAP1 JUMP INVALID LOG2 PUSH5 0x6970667358 0x22 SLT KECCAK256 NOT 0xE8 RETURNDATACOPY LOG2 SWAP16 PUSH29 0xD4682554C53E61A6A6C1F6F819675BECE3093943D7CB398C883664736F PUSH13 0x63430008160033000000000000 "
        },
        "methodIdentifiers": {
          "checkDlpStatus(uint256,address)": "cba1e339",
          "dlpBonus()": "96f1cf1c",
          "dlpThresold()": "92ef4eb7",
          "getLpVault(address)": "a824328c",
          "setDlpParams(uint256,uint256)": "f1a0ca93"
        }
      }
    }
  }
}