{
  "_format": "hh-sol-artifact-1",
  "contractName": "FeeReceiver",
  "sourceName": "contracts/dao/FeeReceiver.sol",
  "abi": [
    {
      "inputs": [
        {
          "internalType": "address",
          "name": "_vineCore",
          "type": "address"
        }
      ],
      "stateMutability": "nonpayable",
      "type": "constructor"
    },
    {
      "inputs": [
        {
          "internalType": "address",
          "name": "target",
          "type": "address"
        }
      ],
      "name": "AddressEmptyCode",
      "type": "error"
    },
    {
      "inputs": [
        {
          "internalType": "address",
          "name": "account",
          "type": "address"
        }
      ],
      "name": "AddressInsufficientBalance",
      "type": "error"
    },
    {
      "inputs": [],
      "name": "FailedInnerCall",
      "type": "error"
    },
    {
      "inputs": [
        {
          "internalType": "address",
          "name": "token",
          "type": "address"
        }
      ],
      "name": "SafeERC20FailedOperation",
      "type": "error"
    },
    {
      "inputs": [],
      "name": "VINE_CORE",
      "outputs": [
        {
          "internalType": "contract IVineCore",
          "name": "",
          "type": "address"
        }
      ],
      "stateMutability": "view",
      "type": "function"
    },
    {
      "inputs": [],
      "name": "guardian",
      "outputs": [
        {
          "internalType": "address",
          "name": "",
          "type": "address"
        }
      ],
      "stateMutability": "view",
      "type": "function"
    },
    {
      "inputs": [],
      "name": "owner",
      "outputs": [
        {
          "internalType": "address",
          "name": "",
          "type": "address"
        }
      ],
      "stateMutability": "view",
      "type": "function"
    },
    {
      "inputs": [
        {
          "internalType": "contract IERC20",
          "name": "token",
          "type": "address"
        },
        {
          "internalType": "address",
          "name": "spender",
          "type": "address"
        },
        {
          "internalType": "uint256",
          "name": "amount",
          "type": "uint256"
        }
      ],
      "name": "setTokenApproval",
      "outputs": [],
      "stateMutability": "nonpayable",
      "type": "function"
    },
    {
      "inputs": [
        {
          "internalType": "address",
          "name": "receiver",
          "type": "address"
        },
        {
          "internalType": "uint256",
          "name": "amount",
          "type": "uint256"
        }
      ],
      "name": "transferRose",
      "outputs": [],
      "stateMutability": "nonpayable",
      "type": "function"
    },
    {
      "inputs": [
        {
          "internalType": "contract IERC20",
          "name": "token",
          "type": "address"
        },
        {
          "internalType": "address",
          "name": "receiver",
          "type": "address"
        },
        {
          "internalType": "uint256",
          "name": "amount",
          "type": "uint256"
        }
      ],
      "name": "transferToken",
      "outputs": [],
      "stateMutability": "nonpayable",
      "type": "function"
    },
    {
      "stateMutability": "payable",
      "type": "receive"
    }
  ],
  "bytecode": "0x60a060405234801561001057600080fd5b506040516109ed3803806109ed83398101604081905261002f91610040565b6001600160a01b0316608052610070565b60006020828403121561005257600080fd5b81516001600160a01b038116811461006957600080fd5b9392505050565b6080516109406100ad6000396000818160c40152818161013d015281816102130152818161029c015281816102fa01526103e201526109406000f3fe6080604052600436106100595760003560e01c8063175fadbe14610065578063452a93201461008757806382d61d16146100b25780638da5cb5b146100e6578063c12aba03146100fb578063f5537ede1461011b57600080fd5b3661006057005b600080fd5b34801561007157600080fd5b506100856100803660046107de565b61013b565b005b34801561009357600080fd5b5061009c61020f565b6040516100a9919061081f565b60405180910390f35b3480156100be57600080fd5b5061009c7f000000000000000000000000000000000000000000000000000000000000000081565b3480156100f257600080fd5b5061009c610298565b34801561010757600080fd5b50610085610116366004610833565b6102f8565b34801561012757600080fd5b506100856101363660046107de565b6103e0565b7f00000000000000000000000000000000000000000000000000000000000000006001600160a01b0316638da5cb5b6040518163ffffffff1660e01b8152600401602060405180830381865afa158015610199573d6000803e3d6000fd5b505050506040513d601f19601f820116820180604052508101906101bd919061085f565b6001600160a01b0316336001600160a01b0316146101f65760405162461bcd60e51b81526004016101ed9061087c565b60405180910390fd5b61020a6001600160a01b03841683836104a6565b505050565b60007f00000000000000000000000000000000000000000000000000000000000000006001600160a01b031663452a93206040518163ffffffff1660e01b8152600401602060405180830381865afa15801561026f573d6000803e3d6000fd5b505050506040513d601f19601f82011682018060405250810190610293919061085f565b905090565b60007f00000000000000000000000000000000000000000000000000000000000000006001600160a01b0316638da5cb5b6040518163ffffffff1660e01b8152600401602060405180830381865afa15801561026f573d6000803e3d6000fd5b7f00000000000000000000000000000000000000000000000000000000000000006001600160a01b0316638da5cb5b6040518163ffffffff1660e01b8152600401602060405180830381865afa158015610356573d6000803e3d6000fd5b505050506040513d601f19601f8201168201806040525081019061037a919061085f565b6001600160a01b0316336001600160a01b0316146103aa5760405162461bcd60e51b81526004016101ed9061087c565b6040516001600160a01b0383169082156108fc029083906000818181858888f1935050505015801561020a573d6000803e3d6000fd5b7f00000000000000000000000000000000000000000000000000000000000000006001600160a01b0316638da5cb5b6040518163ffffffff1660e01b8152600401602060405180830381865afa15801561043e573d6000803e3d6000fd5b505050506040513d601f19601f82011682018060405250810190610462919061085f565b6001600160a01b0316336001600160a01b0316146104925760405162461bcd60e51b81526004016101ed9061087c565b61020a6001600160a01b0384168383610570565b6000836001600160a01b031663095ea7b384846040516024016104ca9291906108a0565b604051602081830303815290604052915060e01b6020820180516001600160e01b03838183161783525050505090506105038482610596565b61056a5761056084856001600160a01b031663095ea7b386600060405160240161052e9291906108a0565b604051602081830303815290604052915060e01b6020820180516001600160e01b03838183161783525050505061063e565b61056a848261063e565b50505050565b61020a83846001600160a01b031663a9059cbb858560405160240161052e9291906108a0565b6000806000846001600160a01b0316846040516105b391906108b9565b6000604051808303816000865af19150503d80600081146105f0576040519150601f19603f3d011682016040523d82523d6000602084013e6105f5565b606091505b509150915081801561061f57508051158061061f57508080602001905181019061061f91906108e8565b801561063557506000856001600160a01b03163b115b95945050505050565b60006106536001600160a01b03841683610698565b9050805160001415801561067857508080602001905181019061067691906108e8565b155b1561020a5782604051635274afe760e01b81526004016101ed919061081f565b60606106a6838360006106ad565b9392505050565b6060814710156106d2573060405163cd78605960e01b81526004016101ed919061081f565b600080856001600160a01b031684866040516106ee91906108b9565b60006040518083038185875af1925050503d806000811461072b576040519150601f19603f3d011682016040523d82523d6000602084013e610730565b606091505b509150915061074086838361074a565b9695505050505050565b60608261075f5761075a8261079d565b6106a6565b815115801561077657506001600160a01b0384163b155b156107965783604051639996b31560e01b81526004016101ed919061081f565b50806106a6565b8051156107ad5780518082602001fd5b604051630a12f52160e11b815260040160405180910390fd5b50565b6001600160a01b03811681146107c657600080fd5b6000806000606084860312156107f357600080fd5b83356107fe816107c9565b9250602084013561080e816107c9565b929592945050506040919091013590565b6001600160a01b0391909116815260200190565b6000806040838503121561084657600080fd5b8235610851816107c9565b946020939093013593505050565b60006020828403121561087157600080fd5b81516106a6816107c9565b6020808252600a908201526927b7363c9037bbb732b960b11b604082015260600190565b6001600160a01b03929092168252602082015260400190565b6000825160005b818110156108da57602081860181015185830152016108c0565b506000920191825250919050565b6000602082840312156108fa57600080fd5b815180151581146106a657600080fdfea2646970667358221220315ee617012c1200b30fbb7a7b9af991be03ea6d591bbcc59be4d00f653cd23364736f6c63430008160033",
  "linkReferences": {},
  "deployedLinkReferences": {}
}