{
  "_format": "hh-sol-artifact-1",
  "contractName": "TroveManagerGetters",
  "sourceName": "contracts/core/helpers/TroveManagerGetters.sol",
  "abi": [
    {
      "inputs": [
        {
          "internalType": "contract IFactory",
          "name": "_factory",
          "type": "address"
        }
      ],
      "stateMutability": "nonpayable",
      "type": "constructor"
    },
    {
      "inputs": [],
      "name": "DOMAIN_SEPARATOR",
      "outputs": [
        {
          "internalType": "bytes32",
          "name": "",
          "type": "bytes32"
        }
      ],
      "stateMutability": "view",
      "type": "function"
    },
    {
      "inputs": [],
      "name": "EIP712_DOMAIN_TYPEHASH",
      "outputs": [
        {
          "internalType": "bytes32",
          "name": "",
          "type": "bytes32"
        }
      ],
      "stateMutability": "view",
      "type": "function"
    },
    {
      "inputs": [],
      "name": "SIGNIN_TYPE",
      "outputs": [
        {
          "internalType": "string",
          "name": "",
          "type": "string"
        }
      ],
      "stateMutability": "view",
      "type": "function"
    },
    {
      "inputs": [],
      "name": "SIGNIN_TYPEHASH",
      "outputs": [
        {
          "internalType": "bytes32",
          "name": "",
          "type": "bytes32"
        }
      ],
      "stateMutability": "view",
      "type": "function"
    },
    {
      "inputs": [],
      "name": "factory",
      "outputs": [
        {
          "internalType": "contract IFactory",
          "name": "",
          "type": "address"
        }
      ],
      "stateMutability": "view",
      "type": "function"
    },
    {
      "inputs": [
        {
          "internalType": "address",
          "name": "account",
          "type": "address"
        }
      ],
      "name": "getActiveTroveManagersForAccount",
      "outputs": [
        {
          "internalType": "address[]",
          "name": "",
          "type": "address[]"
        }
      ],
      "stateMutability": "view",
      "type": "function"
    },
    {
      "inputs": [],
      "name": "getAllCollateralsAndTroveManagers",
      "outputs": [
        {
          "components": [
            {
              "internalType": "address",
              "name": "collateral",
              "type": "address"
            },
            {
              "internalType": "address[]",
              "name": "troveManagers",
              "type": "address[]"
            }
          ],
          "internalType": "struct TroveManagerGetters.Collateral[]",
          "name": "",
          "type": "tuple[]"
        }
      ],
      "stateMutability": "view",
      "type": "function"
    },
    {
      "inputs": [
        {
          "components": [
            {
              "internalType": "address",
              "name": "user",
              "type": "address"
            },
            {
              "internalType": "uint32",
              "name": "time",
              "type": "uint32"
            },
            {
              "components": [
                {
                  "internalType": "bytes32",
                  "name": "r",
                  "type": "bytes32"
                },
                {
                  "internalType": "bytes32",
                  "name": "s",
                  "type": "bytes32"
                },
                {
                  "internalType": "uint256",
                  "name": "v",
                  "type": "uint256"
                }
              ],
              "internalType": "struct SignatureRSV",
              "name": "rsv",
              "type": "tuple"
            }
          ],
          "internalType": "struct VineSignature.SignIn",
          "name": "auth",
          "type": "tuple"
        },
        {
          "internalType": "address",
          "name": "_troveManager",
          "type": "address"
        }
      ],
      "name": "getEntireDebtAndColl",
      "outputs": [
        {
          "internalType": "uint256",
          "name": "debt",
          "type": "uint256"
        },
        {
          "internalType": "uint256",
          "name": "coll",
          "type": "uint256"
        },
        {
          "internalType": "uint256",
          "name": "pendingDebtReward",
          "type": "uint256"
        },
        {
          "internalType": "uint256",
          "name": "pendingCollateralReward",
          "type": "uint256"
        }
      ],
      "stateMutability": "view",
      "type": "function"
    },
    {
      "inputs": [
        {
          "components": [
            {
              "internalType": "address",
              "name": "user",
              "type": "address"
            },
            {
              "internalType": "uint32",
              "name": "time",
              "type": "uint32"
            },
            {
              "components": [
                {
                  "internalType": "bytes32",
                  "name": "r",
                  "type": "bytes32"
                },
                {
                  "internalType": "bytes32",
                  "name": "s",
                  "type": "bytes32"
                },
                {
                  "internalType": "uint256",
                  "name": "v",
                  "type": "uint256"
                }
              ],
              "internalType": "struct SignatureRSV",
              "name": "rsv",
              "type": "tuple"
            }
          ],
          "internalType": "struct VineSignature.SignIn",
          "name": "auth",
          "type": "tuple"
        },
        {
          "internalType": "address",
          "name": "_troveManager",
          "type": "address"
        }
      ],
      "name": "getNominalICR",
      "outputs": [
        {
          "internalType": "uint256",
          "name": "",
          "type": "uint256"
        }
      ],
      "stateMutability": "view",
      "type": "function"
    },
    {
      "inputs": [
        {
          "components": [
            {
              "internalType": "address",
              "name": "user",
              "type": "address"
            },
            {
              "internalType": "uint32",
              "name": "time",
              "type": "uint32"
            },
            {
              "components": [
                {
                  "internalType": "bytes32",
                  "name": "r",
                  "type": "bytes32"
                },
                {
                  "internalType": "bytes32",
                  "name": "s",
                  "type": "bytes32"
                },
                {
                  "internalType": "uint256",
                  "name": "v",
                  "type": "uint256"
                }
              ],
              "internalType": "struct SignatureRSV",
              "name": "rsv",
              "type": "tuple"
            }
          ],
          "internalType": "struct VineSignature.SignIn",
          "name": "auth",
          "type": "tuple"
        },
        {
          "internalType": "address",
          "name": "_troveManager",
          "type": "address"
        }
      ],
      "name": "getPendingCollAndDebtRewards",
      "outputs": [
        {
          "internalType": "uint256",
          "name": "",
          "type": "uint256"
        },
        {
          "internalType": "uint256",
          "name": "",
          "type": "uint256"
        }
      ],
      "stateMutability": "view",
      "type": "function"
    },
    {
      "inputs": [
        {
          "components": [
            {
              "internalType": "address",
              "name": "user",
              "type": "address"
            },
            {
              "internalType": "uint32",
              "name": "time",
              "type": "uint32"
            },
            {
              "components": [
                {
                  "internalType": "bytes32",
                  "name": "r",
                  "type": "bytes32"
                },
                {
                  "internalType": "bytes32",
                  "name": "s",
                  "type": "bytes32"
                },
                {
                  "internalType": "uint256",
                  "name": "v",
                  "type": "uint256"
                }
              ],
              "internalType": "struct SignatureRSV",
              "name": "rsv",
              "type": "tuple"
            }
          ],
          "internalType": "struct VineSignature.SignIn",
          "name": "auth",
          "type": "tuple"
        },
        {
          "internalType": "address",
          "name": "_troveManager",
          "type": "address"
        }
      ],
      "name": "getTrove",
      "outputs": [
        {
          "internalType": "uint256",
          "name": "debt",
          "type": "uint256"
        },
        {
          "internalType": "uint256",
          "name": "coll",
          "type": "uint256"
        },
        {
          "internalType": "uint256",
          "name": "stake",
          "type": "uint256"
        },
        {
          "internalType": "uint8",
          "name": "status",
          "type": "uint8"
        },
        {
          "internalType": "uint128",
          "name": "arrayIndex",
          "type": "uint128"
        },
        {
          "internalType": "uint256",
          "name": "activeInterestIndex",
          "type": "uint256"
        }
      ],
      "stateMutability": "view",
      "type": "function"
    },
    {
      "inputs": [
        {
          "components": [
            {
              "internalType": "address",
              "name": "user",
              "type": "address"
            },
            {
              "internalType": "uint32",
              "name": "time",
              "type": "uint32"
            },
            {
              "components": [
                {
                  "internalType": "bytes32",
                  "name": "r",
                  "type": "bytes32"
                },
                {
                  "internalType": "bytes32",
                  "name": "s",
                  "type": "bytes32"
                },
                {
                  "internalType": "uint256",
                  "name": "v",
                  "type": "uint256"
                }
              ],
              "internalType": "struct SignatureRSV",
              "name": "rsv",
              "type": "tuple"
            }
          ],
          "internalType": "struct VineSignature.SignIn",
          "name": "auth",
          "type": "tuple"
        },
        {
          "internalType": "address",
          "name": "_troveManager",
          "type": "address"
        }
      ],
      "name": "getTroveCollAndDebt",
      "outputs": [
        {
          "internalType": "uint256",
          "name": "coll",
          "type": "uint256"
        },
        {
          "internalType": "uint256",
          "name": "debt",
          "type": "uint256"
        }
      ],
      "stateMutability": "view",
      "type": "function"
    },
    {
      "inputs": [
        {
          "components": [
            {
              "internalType": "address",
              "name": "user",
              "type": "address"
            },
            {
              "internalType": "uint32",
              "name": "time",
              "type": "uint32"
            },
            {
              "components": [
                {
                  "internalType": "bytes32",
                  "name": "r",
                  "type": "bytes32"
                },
                {
                  "internalType": "bytes32",
                  "name": "s",
                  "type": "bytes32"
                },
                {
                  "internalType": "uint256",
                  "name": "v",
                  "type": "uint256"
                }
              ],
              "internalType": "struct SignatureRSV",
              "name": "rsv",
              "type": "tuple"
            }
          ],
          "internalType": "struct VineSignature.SignIn",
          "name": "auth",
          "type": "tuple"
        },
        {
          "internalType": "address",
          "name": "_troveManager",
          "type": "address"
        }
      ],
      "name": "getTroveStake",
      "outputs": [
        {
          "internalType": "uint256",
          "name": "",
          "type": "uint256"
        }
      ],
      "stateMutability": "view",
      "type": "function"
    },
    {
      "inputs": [
        {
          "components": [
            {
              "internalType": "address",
              "name": "user",
              "type": "address"
            },
            {
              "internalType": "uint32",
              "name": "time",
              "type": "uint32"
            },
            {
              "components": [
                {
                  "internalType": "bytes32",
                  "name": "r",
                  "type": "bytes32"
                },
                {
                  "internalType": "bytes32",
                  "name": "s",
                  "type": "bytes32"
                },
                {
                  "internalType": "uint256",
                  "name": "v",
                  "type": "uint256"
                }
              ],
              "internalType": "struct SignatureRSV",
              "name": "rsv",
              "type": "tuple"
            }
          ],
          "internalType": "struct VineSignature.SignIn",
          "name": "auth",
          "type": "tuple"
        },
        {
          "internalType": "address",
          "name": "_troveManager",
          "type": "address"
        }
      ],
      "name": "getTroveStatus",
      "outputs": [
        {
          "internalType": "uint256",
          "name": "",
          "type": "uint256"
        }
      ],
      "stateMutability": "view",
      "type": "function"
    }
  ],
  "bytecode": "0x60c060405234801561001057600080fd5b50604051611eac380380611eac83398101604081905261002f916100e2565b604080517f8b73c3c69bb8fe3d512ecc4cf759cc79239f7b179b0ffacaa9a75d522b39400f60208201527f498688c8830a05b5c89af9529f317a3dd9776f38725c568349192562e13e061e918101919091527fc89efdaa54c0f20c7adf612882df0950f5a951637e0307cdcb4c672f298b8bc660608201524660808201523060a082015260c00160408051601f1981840301815291905280516020909101206080526001600160a01b031660a052610112565b6000602082840312156100f457600080fd5b81516001600160a01b038116811461010b57600080fd5b9392505050565b60805160a051611d2961018360003960008181610174015281816108d201528181610a150152818161107f015261116c01526000818160f101528181610344015281816105640152818161077901528181610f26015281816113010152818161152401526116d40152611d296000f3fe608060405234801561001057600080fd5b50600436106100ba5760003560e01c80630e066634146100bf5780633644e515146100ec5780638372c0b914610121578063a75d26d214610134578063a8ea80f714610147578063a936da411461015c578063c45a01551461016f578063c7977be7146101a3578063c7d480fb146101ca578063d5df056e14610201578063e218426914610221578063f01593a91461026d578063f14118e1146102a3578063fe9578a3146102b6575b600080fd5b6100d26100cd3660046118cd565b6102e9565b604080519283526020830191909152015b60405180910390f35b6101137f000000000000000000000000000000000000000000000000000000000000000081565b6040519081526020016100e3565b61011361012f3660046118cd565b61050a565b6100d26101423660046118cd565b61071e565b61014f6108cc565b6040516100e3919061190c565b61011361016a3660046118cd565b610ecc565b6101967f000000000000000000000000000000000000000000000000000000000000000081565b6040516100e391906119bd565b6101137f8b73c3c69bb8fe3d512ecc4cf759cc79239f7b179b0ffacaa9a75d522b39400f81565b6101f4604051806040016040528060208152602001600080516020611cb483398151915281525081565b6040516100e391906119d1565b61021461020f366004611a20565b611079565b6040516100e39190611a44565b61023461022f3660046118cd565b6112a2565b6040805196875260208701959095529385019290925260ff1660608401526001600160801b0316608083015260a082015260c0016100e3565b604080518082019091526020808252600080516020611cb4833981519152910152610113600080516020611cd483398151915281565b6101136102b13660046118cd565b6114ca565b6102c96102c43660046118cd565b611677565b6040805194855260208501939093529183015260608201526080016100e3565b600080836102fa6201518042611aa7565b61030a6040830160208401611ac0565b63ffffffff161161031a57600080fd5b604080518082019091526020808252600080516020611cb4833981519152918101919091526000907f000000000000000000000000000000000000000000000000000000000000000090600080516020611cd48339815191529061038090850185611a20565b6103906040860160208701611ac0565b6040516020016103a293929190611ae6565b604051602081830303815290604052805190602001206040516020016103c9929190611b0b565b60408051601f19818403018152828252805160209182012060008085529390910180835290935060019161040f9185916080880135919088013590606089013590611b26565b6020604051602081039080840390855afa158015610431573d6000803e3d6000fd5b5050604051601f1901519150506001600160a01b0381166104556020850185611a20565b6001600160a01b0316146104845760405162461bcd60e51b815260040161047b90611b44565b60405180910390fd5b6001600160a01b038616632b2b2bac6104a060208a018a611a20565b6040518263ffffffff1660e01b81526004016104bc91906119bd565b6040805180830381865afa1580156104d8573d6000803e3d6000fd5b505050506040513d601f19601f820116820180604052508101906104fc9190611b6d565b945094505050509250929050565b60008261051a6201518042611aa7565b61052a6040830160208401611ac0565b63ffffffff161161053a57600080fd5b604080518082019091526020808252600080516020611cb4833981519152918101919091526000907f000000000000000000000000000000000000000000000000000000000000000090600080516020611cd4833981519152906105a090850185611a20565b6105b06040860160208701611ac0565b6040516020016105c293929190611ae6565b604051602081830303815290604052805190602001206040516020016105e9929190611b0b565b60408051601f19818403018152828252805160209182012060008085529390910180835290935060019161062f9185916080880135919088013590606089013590611b26565b6020604051602081039080840390855afa158015610651573d6000803e3d6000fd5b5050604051601f1901519150506001600160a01b0381166106756020850185611a20565b6001600160a01b03161461069b5760405162461bcd60e51b815260040161047b90611b44565b6001600160a01b0385166364cee2606106b76020890189611a20565b6040518263ffffffff1660e01b81526004016106d391906119bd565b602060405180830381865afa1580156106f0573d6000803e3d6000fd5b505050506040513d601f19601f820116820180604052508101906107149190611b91565b9695505050505050565b6000808361072f6201518042611aa7565b61073f6040830160208401611ac0565b63ffffffff161161074f57600080fd5b604080518082019091526020808252600080516020611cb4833981519152918101919091526000907f000000000000000000000000000000000000000000000000000000000000000090600080516020611cd4833981519152906107b590850185611a20565b6107c56040860160208701611ac0565b6040516020016107d793929190611ae6565b604051602081830303815290604052805190602001206040516020016107fe929190611b0b565b60408051601f1981840301815282825280516020918201206000808552939091018083529093506001916108449185916080880135919088013590606089013590611b26565b6020604051602081039080840390855afa158015610866573d6000803e3d6000fd5b5050604051601f1901519150506001600160a01b03811661088a6020850185611a20565b6001600160a01b0316146108b05760405162461bcd60e51b815260040161047b90611b44565b6001600160a01b03861663d12ae8416104a060208a018a611a20565b606060007f00000000000000000000000000000000000000000000000000000000000000006001600160a01b031663679df0d96040518163ffffffff1660e01b8152600401602060405180830381865afa15801561092e573d6000803e3d6000fd5b505050506040513d601f19601f820116820180604052508101906109529190611b91565b90506000816001600160401b0381111561096e5761096e611baa565b6040519080825280602002602001820160405280156109a757816020015b610994611897565b81526020019060019003908161098c5790505b5090506000826001600160401b038111156109c4576109c4611baa565b6040519080825280602002602001820160405280156109ed578160200160208202803683370190505b5090506000805b84811015610c075760405163076e0e8f60e31b8152600481018290526000907f00000000000000000000000000000000000000000000000000000000000000006001600160a01b031690633b70747890602401602060405180830381865afa158015610a64573d6000803e3d6000fd5b505050506040513d601f19601f82011682018060405250810190610a889190611bc0565b90506000816001600160a01b031663b2016bd46040518163ffffffff1660e01b8152600401602060405180830381865afa158015610aca573d6000803e3d6000fd5b505050506040513d601f19601f82011682018060405250810190610aee9190611bc0565b90506040518060400160405280836001600160a01b03166001600160a01b03168152602001826001600160a01b03166001600160a01b0316815250868481518110610b3b57610b3b611bdd565b602002602001018190525060005b87811015610bfc57816001600160a01b0316868281518110610b6d57610b6d611bdd565b60200260200101516001600160a01b03160315610bfc5760006001600160a01b0316868281518110610ba157610ba1611bdd565b60200260200101516001600160a01b031603610bf45781868281518110610bca57610bca611bdd565b6001600160a01b039092166020928302919091019091015284610bec81611bf3565b955050610bfc565b600101610b49565b5050506001016109f4565b506000816001600160401b03811115610c2257610c22611baa565b604051908082528060200260200182016040528015610c6857816020015b604080518082019091526000815260606020820152815260200190600190039081610c405790505b50905060005b82811015610ec257838181518110610c8857610c88611bdd565b6020026020010151828281518110610ca257610ca2611bdd565b60209081029190910101516001600160a01b039091169052600080876001600160401b03811115610cd557610cd5611baa565b604051908082528060200260200182016040528015610cfe578160200160208202803683370190505b50905060005b88811015610ddf57868481518110610d1e57610d1e611bdd565b60200260200101516001600160a01b0316888281518110610d4157610d41611bdd565b6020026020010151600160028110610d5b57610d5b611bdd565b60200201516001600160a01b031603610dd757878181518110610d8057610d80611bdd565b6020026020010151600060028110610d9a57610d9a611bdd565b6020020151828481518110610db157610db1611bdd565b6001600160a01b039092166020928302919091019091015282610dd381611bf3565b9350505b600101610d04565b50816001600160401b03811115610df857610df8611baa565b604051908082528060200260200182016040528015610e21578160200160208202803683370190505b50848481518110610e3457610e34611bdd565b60200260200101516020018190525060005b82811015610eb757818181518110610e6057610e60611bdd565b6020026020010151858581518110610e7a57610e7a611bdd565b6020026020010151602001518281518110610e9757610e97611bdd565b6001600160a01b0390921660209283029190910190910152600101610e46565b505050600101610c6e565b5095945050505050565b600082610edc6201518042611aa7565b610eec6040830160208401611ac0565b63ffffffff1611610efc57600080fd5b604080518082019091526020808252600080516020611cb4833981519152918101919091526000907f000000000000000000000000000000000000000000000000000000000000000090600080516020611cd483398151915290610f6290850185611a20565b610f726040860160208701611ac0565b604051602001610f8493929190611ae6565b60405160208183030381529060405280519060200120604051602001610fab929190611b0b565b60408051601f198184030181528282528051602091820120600080855293909101808352909350600191610ff19185916080880135919088013590606089013590611b26565b6020604051602081039080840390855afa158015611013573d6000803e3d6000fd5b5050604051601f1901519150506001600160a01b0381166110376020850185611a20565b6001600160a01b03161461105d5760405162461bcd60e51b815260040161047b90611b44565b6001600160a01b03851663b0d8e1816106b76020890189611a20565b606060007f00000000000000000000000000000000000000000000000000000000000000006001600160a01b031663679df0d96040518163ffffffff1660e01b8152600401602060405180830381865afa1580156110db573d6000803e3d6000fd5b505050506040513d601f19601f820116820180604052508101906110ff9190611b91565b90506000816001600160401b0381111561111b5761111b611baa565b604051908082528060200260200182016040528015611144578160200160208202803683370190505b5090506000805b838110156112985760405163076e0e8f60e31b8152600481018290526000907f00000000000000000000000000000000000000000000000000000000000000006001600160a01b031690633b70747890602401602060405180830381865afa1580156111bb573d6000803e3d6000fd5b505050506040513d601f19601f820116820180604052508101906111df9190611bc0565b90506000816001600160a01b03166321e37801896040518263ffffffff1660e01b815260040161120f91906119bd565b602060405180830381865afa15801561122c573d6000803e3d6000fd5b505050506040513d601f19601f820116820180604052508101906112509190611b91565b111561128f578084848151811061126957611269611bdd565b6001600160a01b03909216602092830291909101909101528261128b81611bf3565b9350505b5060010161114b565b5081529392505050565b60008080808080876112b76201518042611aa7565b6112c76040830160208401611ac0565b63ffffffff16116112d757600080fd5b604080518082019091526020808252600080516020611cb4833981519152918101919091526000907f000000000000000000000000000000000000000000000000000000000000000090600080516020611cd48339815191529061133d90850185611a20565b61134d6040860160208701611ac0565b60405160200161135f93929190611ae6565b60405160208183030381529060405280519060200120604051602001611386929190611b0b565b60408051601f1981840301815282825280516020918201206000808552939091018083529093506001916113cc9185916080880135919088013590606089013590611b26565b6020604051602081039080840390855afa1580156113ee573d6000803e3d6000fd5b5050604051601f1901519150506001600160a01b0381166114126020850185611a20565b6001600160a01b0316146114385760405162461bcd60e51b815260040161047b90611b44565b6001600160a01b038a1663bd28c0f461145460208e018e611a20565b6040518263ffffffff1660e01b815260040161147091906119bd565b60c060405180830381865afa15801561148d573d6000803e3d6000fd5b505050506040513d601f19601f820116820180604052508101906114b19190611c0c565b9850985098509850985098505050509295509295509295565b6000826114da6201518042611aa7565b6114ea6040830160208401611ac0565b63ffffffff16116114fa57600080fd5b604080518082019091526020808252600080516020611cb4833981519152918101919091526000907f000000000000000000000000000000000000000000000000000000000000000090600080516020611cd48339815191529061156090850185611a20565b6115706040860160208701611ac0565b60405160200161158293929190611ae6565b604051602081830303815290604052805190602001206040516020016115a9929190611b0b565b60408051601f1981840301815282825280516020918201206000808552939091018083529093506001916115ef9185916080880135919088013590606089013590611b26565b6020604051602081039080840390855afa158015611611573d6000803e3d6000fd5b5050604051601f1901519150506001600160a01b0381166116356020850185611a20565b6001600160a01b03161461165b5760405162461bcd60e51b815260040161047b90611b44565b6001600160a01b0385166321e378016106b76020890189611a20565b60008080808561168a6201518042611aa7565b61169a6040830160208401611ac0565b63ffffffff16116116aa57600080fd5b604080518082019091526020808252600080516020611cb4833981519152918101919091526000907f000000000000000000000000000000000000000000000000000000000000000090600080516020611cd48339815191529061171090850185611a20565b6117206040860160208701611ac0565b60405160200161173293929190611ae6565b60405160208183030381529060405280519060200120604051602001611759929190611b0b565b60408051601f19818403018152828252805160209182012060008085529390910180835290935060019161179f9185916080880135919088013590606089013590611b26565b6020604051602081039080840390855afa1580156117c1573d6000803e3d6000fd5b5050604051601f1901519150506001600160a01b0381166117e56020850185611a20565b6001600160a01b03161461180b5760405162461bcd60e51b815260040161047b90611b44565b6001600160a01b03881663b91af97c61182760208c018c611a20565b6040518263ffffffff1660e01b815260040161184391906119bd565b608060405180830381865afa158015611860573d6000803e3d6000fd5b505050506040513d601f19601f820116820180604052508101906118849190611c7d565b929c919b50995090975095505050505050565b60405180604001604052806002906020820280368337509192915050565b6001600160a01b03811681146118ca57600080fd5b50565b60008082840360c08112156118e157600080fd5b60a08112156118ef57600080fd5b5082915060a0830135611901816118b5565b809150509250929050565b600060208083018184528085518083526040925060408601915060408160051b8701018488016000805b848110156119ae57898403603f19018652825180516001600160a01b039081168652908901518986018990528051898701819052908a0191849160608801905b8084101561199857845183168252938c019360019390930192908c0190611976565b50988b0198965050509288019250600101611936565b50919998505050505050505050565b6001600160a01b0391909116815260200190565b60006020808352835180602085015260005b818110156119ff578581018301518582016040015282016119e3565b506000604082860101526040601f19601f8301168501019250505092915050565b600060208284031215611a3257600080fd5b8135611a3d816118b5565b9392505050565b6020808252825182820181905260009190848201906040850190845b81811015611a855783516001600160a01b031683529284019291840191600101611a60565b50909695505050505050565b634e487b7160e01b600052601160045260246000fd5b81810381811115611aba57611aba611a91565b92915050565b600060208284031215611ad257600080fd5b813563ffffffff81168114611a3d57600080fd5b9283526001600160a01b0391909116602083015263ffffffff16604082015260600190565b61190160f01b81526002810192909252602282015260420190565b93845260ff9290921660208401526040830152606082015260800190565b6020808252600f908201526e24b73b30b634b21029b4b3b716a4b760891b604082015260600190565b60008060408385031215611b8057600080fd5b505080516020909101519092909150565b600060208284031215611ba357600080fd5b5051919050565b634e487b7160e01b600052604160045260246000fd5b600060208284031215611bd257600080fd5b8151611a3d816118b5565b634e487b7160e01b600052603260045260246000fd5b600060018201611c0557611c05611a91565b5060010190565b60008060008060008060c08789031215611c2557600080fd5b865195506020870151945060408701519350606087015160ff81168114611c4b57600080fd5b60808801519093506001600160801b0381168114611c6857600080fd5b8092505060a087015190509295509295509295565b60008060008060808587031215611c9357600080fd5b50508251602084015160408501516060909501519196909550909250905056fe5369676e496e286164647265737320757365722c75696e7433322074696d65299657dff2c7dcf78271f0cea8adb51884cbbe5b03e28f5cd0a029d26b995149d1a264697066735822122055e37ed20ae99697e699c822a6ab3dc244ad3e7b882848eea16ef2c55334780a64736f6c63430008160033",
  "linkReferences": {},
  "deployedLinkReferences": {}
}