{
  "_format": "hh-sol-artifact-1",
  "contractName": "IncentiveVoting",
  "sourceName": "contracts/dao/IncentiveVoting.sol",
  "abi": [
    {
      "inputs": [
        {
          "internalType": "address",
          "name": "_vineCore",
          "type": "address"
        }
      ],
      "stateMutability": "nonpayable",
      "type": "constructor"
    },
    {
      "anonymous": false,
      "inputs": [
        {
          "indexed": true,
          "internalType": "address",
          "name": "account",
          "type": "address"
        },
        {
          "indexed": true,
          "internalType": "uint256",
          "name": "week",
          "type": "uint256"
        },
        {
          "indexed": false,
          "internalType": "uint256",
          "name": "frozenBalance",
          "type": "uint256"
        },
        {
          "components": [
            {
              "internalType": "uint256",
              "name": "amount",
              "type": "uint256"
            },
            {
              "internalType": "uint256",
              "name": "weeksToUnlock",
              "type": "uint256"
            }
          ],
          "indexed": false,
          "internalType": "struct ITokenLocker.LockData[]",
          "name": "registeredLockData",
          "type": "tuple[]"
        }
      ],
      "name": "AccountWeightRegistered",
      "type": "event"
    },
    {
      "anonymous": false,
      "inputs": [
        {
          "indexed": true,
          "internalType": "address",
          "name": "account",
          "type": "address"
        },
        {
          "indexed": true,
          "internalType": "uint256",
          "name": "week",
          "type": "uint256"
        }
      ],
      "name": "ClearedVotes",
      "type": "event"
    },
    {
      "anonymous": false,
      "inputs": [
        {
          "indexed": true,
          "internalType": "address",
          "name": "caller",
          "type": "address"
        },
        {
          "indexed": true,
          "internalType": "address",
          "name": "delegate",
          "type": "address"
        },
        {
          "indexed": false,
          "internalType": "bool",
          "name": "isApproved",
          "type": "bool"
        }
      ],
      "name": "DelegateApprovalSet",
      "type": "event"
    },
    {
      "anonymous": false,
      "inputs": [
        {
          "indexed": true,
          "internalType": "address",
          "name": "account",
          "type": "address"
        },
        {
          "indexed": true,
          "internalType": "uint256",
          "name": "week",
          "type": "uint256"
        },
        {
          "components": [
            {
              "internalType": "uint256",
              "name": "id",
              "type": "uint256"
            },
            {
              "internalType": "uint256",
              "name": "points",
              "type": "uint256"
            }
          ],
          "indexed": false,
          "internalType": "struct IncentiveVoting.Vote[]",
          "name": "newVotes",
          "type": "tuple[]"
        },
        {
          "indexed": false,
          "internalType": "uint256",
          "name": "totalPointsUsed",
          "type": "uint256"
        }
      ],
      "name": "NewVotes",
      "type": "event"
    },
    {
      "inputs": [],
      "name": "MAX_LOCK_WEEKS",
      "outputs": [
        {
          "internalType": "uint256",
          "name": "",
          "type": "uint256"
        }
      ],
      "stateMutability": "view",
      "type": "function"
    },
    {
      "inputs": [],
      "name": "MAX_POINTS",
      "outputs": [
        {
          "internalType": "uint256",
          "name": "",
          "type": "uint256"
        }
      ],
      "stateMutability": "view",
      "type": "function"
    },
    {
      "inputs": [
        {
          "internalType": "address",
          "name": "account",
          "type": "address"
        }
      ],
      "name": "clearRegisteredWeight",
      "outputs": [
        {
          "internalType": "bool",
          "name": "",
          "type": "bool"
        }
      ],
      "stateMutability": "nonpayable",
      "type": "function"
    },
    {
      "inputs": [
        {
          "internalType": "address",
          "name": "account",
          "type": "address"
        }
      ],
      "name": "clearVote",
      "outputs": [],
      "stateMutability": "nonpayable",
      "type": "function"
    },
    {
      "inputs": [
        {
          "internalType": "address",
          "name": "account",
          "type": "address"
        }
      ],
      "name": "getAccountCurrentVotes",
      "outputs": [
        {
          "components": [
            {
              "internalType": "uint256",
              "name": "id",
              "type": "uint256"
            },
            {
              "internalType": "uint256",
              "name": "points",
              "type": "uint256"
            }
          ],
          "internalType": "struct IncentiveVoting.Vote[]",
          "name": "votes",
          "type": "tuple[]"
        }
      ],
      "stateMutability": "view",
      "type": "function"
    },
    {
      "inputs": [
        {
          "internalType": "address",
          "name": "account",
          "type": "address"
        }
      ],
      "name": "getAccountRegisteredLocks",
      "outputs": [
        {
          "internalType": "uint256",
          "name": "frozenWeight",
          "type": "uint256"
        },
        {
          "components": [
            {
              "internalType": "uint256",
              "name": "amount",
              "type": "uint256"
            },
            {
              "internalType": "uint256",
              "name": "weeksToUnlock",
              "type": "uint256"
            }
          ],
          "internalType": "struct IncentiveVoting.LockData[]",
          "name": "lockData",
          "type": "tuple[]"
        }
      ],
      "stateMutability": "view",
      "type": "function"
    },
    {
      "inputs": [
        {
          "internalType": "uint256",
          "name": "id",
          "type": "uint256"
        },
        {
          "internalType": "uint256",
          "name": "week",
          "type": "uint256"
        }
      ],
      "name": "getReceiverVotePct",
      "outputs": [
        {
          "internalType": "uint256",
          "name": "",
          "type": "uint256"
        }
      ],
      "stateMutability": "nonpayable",
      "type": "function"
    },
    {
      "inputs": [
        {
          "internalType": "uint256",
          "name": "idx",
          "type": "uint256"
        }
      ],
      "name": "getReceiverWeight",
      "outputs": [
        {
          "internalType": "uint256",
          "name": "",
          "type": "uint256"
        }
      ],
      "stateMutability": "view",
      "type": "function"
    },
    {
      "inputs": [
        {
          "internalType": "uint256",
          "name": "idx",
          "type": "uint256"
        },
        {
          "internalType": "uint256",
          "name": "week",
          "type": "uint256"
        }
      ],
      "name": "getReceiverWeightAt",
      "outputs": [
        {
          "internalType": "uint256",
          "name": "",
          "type": "uint256"
        }
      ],
      "stateMutability": "view",
      "type": "function"
    },
    {
      "inputs": [
        {
          "internalType": "uint256",
          "name": "idx",
          "type": "uint256"
        }
      ],
      "name": "getReceiverWeightWrite",
      "outputs": [
        {
          "internalType": "uint256",
          "name": "",
          "type": "uint256"
        }
      ],
      "stateMutability": "nonpayable",
      "type": "function"
    },
    {
      "inputs": [],
      "name": "getTotalWeight",
      "outputs": [
        {
          "internalType": "uint256",
          "name": "",
          "type": "uint256"
        }
      ],
      "stateMutability": "view",
      "type": "function"
    },
    {
      "inputs": [
        {
          "internalType": "uint256",
          "name": "week",
          "type": "uint256"
        }
      ],
      "name": "getTotalWeightAt",
      "outputs": [
        {
          "internalType": "uint256",
          "name": "",
          "type": "uint256"
        }
      ],
      "stateMutability": "view",
      "type": "function"
    },
    {
      "inputs": [],
      "name": "getTotalWeightWrite",
      "outputs": [
        {
          "internalType": "uint256",
          "name": "",
          "type": "uint256"
        }
      ],
      "stateMutability": "nonpayable",
      "type": "function"
    },
    {
      "inputs": [],
      "name": "getWeek",
      "outputs": [
        {
          "internalType": "uint256",
          "name": "week",
          "type": "uint256"
        }
      ],
      "stateMutability": "view",
      "type": "function"
    },
    {
      "inputs": [
        {
          "internalType": "address",
          "name": "owner",
          "type": "address"
        },
        {
          "internalType": "address",
          "name": "caller",
          "type": "address"
        }
      ],
      "name": "isApprovedDelegate",
      "outputs": [
        {
          "internalType": "bool",
          "name": "isApproved",
          "type": "bool"
        }
      ],
      "stateMutability": "view",
      "type": "function"
    },
    {
      "inputs": [],
      "name": "receiverCount",
      "outputs": [
        {
          "internalType": "uint256",
          "name": "",
          "type": "uint256"
        }
      ],
      "stateMutability": "view",
      "type": "function"
    },
    {
      "inputs": [
        {
          "internalType": "uint256",
          "name": "",
          "type": "uint256"
        }
      ],
      "name": "receiverDecayRate",
      "outputs": [
        {
          "internalType": "uint32",
          "name": "",
          "type": "uint32"
        }
      ],
      "stateMutability": "view",
      "type": "function"
    },
    {
      "inputs": [
        {
          "internalType": "uint256",
          "name": "",
          "type": "uint256"
        }
      ],
      "name": "receiverUpdatedWeek",
      "outputs": [
        {
          "internalType": "uint16",
          "name": "",
          "type": "uint16"
        }
      ],
      "stateMutability": "view",
      "type": "function"
    },
    {
      "inputs": [
        {
          "internalType": "uint256",
          "name": "",
          "type": "uint256"
        },
        {
          "internalType": "uint256",
          "name": "",
          "type": "uint256"
        }
      ],
      "name": "receiverWeeklyUnlocks",
      "outputs": [
        {
          "internalType": "uint32",
          "name": "",
          "type": "uint32"
        }
      ],
      "stateMutability": "view",
      "type": "function"
    },
    {
      "inputs": [
        {
          "internalType": "address",
          "name": "account",
          "type": "address"
        },
        {
          "internalType": "uint256",
          "name": "minWeeks",
          "type": "uint256"
        }
      ],
      "name": "registerAccountWeight",
      "outputs": [],
      "stateMutability": "nonpayable",
      "type": "function"
    },
    {
      "inputs": [
        {
          "internalType": "address",
          "name": "account",
          "type": "address"
        },
        {
          "internalType": "uint256",
          "name": "minWeeks",
          "type": "uint256"
        },
        {
          "components": [
            {
              "internalType": "uint256",
              "name": "id",
              "type": "uint256"
            },
            {
              "internalType": "uint256",
              "name": "points",
              "type": "uint256"
            }
          ],
          "internalType": "struct IncentiveVoting.Vote[]",
          "name": "votes",
          "type": "tuple[]"
        }
      ],
      "name": "registerAccountWeightAndVote",
      "outputs": [],
      "stateMutability": "nonpayable",
      "type": "function"
    },
    {
      "inputs": [],
      "name": "registerNewReceiver",
      "outputs": [
        {
          "internalType": "uint256",
          "name": "",
          "type": "uint256"
        }
      ],
      "stateMutability": "nonpayable",
      "type": "function"
    },
    {
      "inputs": [
        {
          "internalType": "address",
          "name": "_delegate",
          "type": "address"
        },
        {
          "internalType": "bool",
          "name": "_isApproved",
          "type": "bool"
        }
      ],
      "name": "setDelegateApproval",
      "outputs": [],
      "stateMutability": "nonpayable",
      "type": "function"
    },
    {
      "inputs": [
        {
          "internalType": "contract ITokenLocker",
          "name": "_tokenLocker",
          "type": "address"
        },
        {
          "internalType": "address",
          "name": "_vault",
          "type": "address"
        }
      ],
      "name": "setInitialParameters",
      "outputs": [],
      "stateMutability": "nonpayable",
      "type": "function"
    },
    {
      "inputs": [],
      "name": "tokenLocker",
      "outputs": [
        {
          "internalType": "contract ITokenLocker",
          "name": "",
          "type": "address"
        }
      ],
      "stateMutability": "view",
      "type": "function"
    },
    {
      "inputs": [],
      "name": "totalDecayRate",
      "outputs": [
        {
          "internalType": "uint32",
          "name": "",
          "type": "uint32"
        }
      ],
      "stateMutability": "view",
      "type": "function"
    },
    {
      "inputs": [],
      "name": "totalUpdatedWeek",
      "outputs": [
        {
          "internalType": "uint16",
          "name": "",
          "type": "uint16"
        }
      ],
      "stateMutability": "view",
      "type": "function"
    },
    {
      "inputs": [
        {
          "internalType": "uint256",
          "name": "",
          "type": "uint256"
        }
      ],
      "name": "totalWeeklyUnlocks",
      "outputs": [
        {
          "internalType": "uint32",
          "name": "",
          "type": "uint32"
        }
      ],
      "stateMutability": "view",
      "type": "function"
    },
    {
      "inputs": [
        {
          "internalType": "uint256",
          "name": "",
          "type": "uint256"
        }
      ],
      "name": "totalWeeklyWeights",
      "outputs": [
        {
          "internalType": "uint40",
          "name": "",
          "type": "uint40"
        }
      ],
      "stateMutability": "view",
      "type": "function"
    },
    {
      "inputs": [
        {
          "internalType": "address",
          "name": "account",
          "type": "address"
        },
        {
          "internalType": "bool",
          "name": "keepVote",
          "type": "bool"
        }
      ],
      "name": "unfreeze",
      "outputs": [
        {
          "internalType": "bool",
          "name": "",
          "type": "bool"
        }
      ],
      "stateMutability": "nonpayable",
      "type": "function"
    },
    {
      "inputs": [],
      "name": "vault",
      "outputs": [
        {
          "internalType": "address",
          "name": "",
          "type": "address"
        }
      ],
      "stateMutability": "view",
      "type": "function"
    },
    {
      "inputs": [
        {
          "internalType": "address",
          "name": "account",
          "type": "address"
        },
        {
          "components": [
            {
              "internalType": "uint256",
              "name": "id",
              "type": "uint256"
            },
            {
              "internalType": "uint256",
              "name": "points",
              "type": "uint256"
            }
          ],
          "internalType": "struct IncentiveVoting.Vote[]",
          "name": "votes",
          "type": "tuple[]"
        },
        {
          "internalType": "bool",
          "name": "clearPrevious",
          "type": "bool"
        }
      ],
      "name": "vote",
      "outputs": [],
      "stateMutability": "nonpayable",
      "type": "function"
    }
  ],
  "bytecode": "0x60a06040523480156200001157600080fd5b50604051620031e1380380620031e18339810160408190526200003491620000a6565b80806001600160a01b03166378e979256040518163ffffffff1660e01b8152600401602060405180830381865afa15801562000074573d6000803e3d6000fd5b505050506040513d601f19601f820116820180604052508101906200009a9190620000d8565b60805250620000f29050565b600060208284031215620000b957600080fd5b81516001600160a01b0381168114620000d157600080fd5b9392505050565b600060208284031215620000eb57600080fd5b5051919050565b6080516130d36200010e6000396000610f0701526130d36000f3fe608060405234801561001057600080fd5b50600436106101805760003560e01c806306aba0e11461018557806313d7e392146101a05780631930e825146101b357806325f87d23146101ee5780632d402f2c146101f75780633149ca241461020a57806334e2ad8a1461021d5780634566a2681461023057806350735f6f146102385780635ae61f921461024b578063664f0ea9146102605780636eff5fc714610273578063874d6d8114610286578063879483ad1461028e57806393101b41146102b6578063983ef3ed146102c95780639a86107f146102d25780639d160698146102e55780639e30c3ec14610305578063a6de87161461030d578063a80bf3e614610320578063b52bbe481461034b578063bafacab914610371578063c373cb4014610379578063c3c854b614610391578063cd0ff58a146103a4578063de43f4c4146103b7578063ee10e19a146103e0578063fa6657e7146103f3578063fbfa77cf14610406578063fef90a2b14610419578063ff4819e11461043a575b600080fd5b61018d61044d565b6040519081526020015b60405180910390f35b61018d6101ae366004612a33565b61045f565b6101de6101c1366004612a6d565b600060208181529281526040808220909352908152205460ff1681565b6040519015158152602001610197565b61018d61271081565b6101de610205366004612aa6565b61063a565b61018d610218366004612aca565b6107f0565b61018d61022b366004612a33565b610ab2565b61018d610b93565b61018d610246366004612aca565b610c39565b61025e610259366004612aa6565b610d5f565b005b61025e61026e366004612ae3565b610e27565b61018d610281366004612aca565b610ef2565b61018d610efc565b6102a161029c366004612aca565b610f36565b60405163ffffffff9091168152602001610197565b6101de6102c4366004612b24565b610f6a565b61018d60045481565b6102a16102e0366004612a33565b611141565b6102f86102f3366004612aa6565b61118c565b6040516101979190612b59565b61018d6112b4565b61025e61031b366004612bfb565b61143c565b600154610333906001600160a01b031681565b6040516001600160a01b039091168152602001610197565b61035e610359366004612aca565b6115ee565b60405161ffff9091168152602001610197565b61018d603481565b634aaae55a5461035e90600160201b900461ffff1681565b61025e61039f366004612b24565b61161e565b61025e6103b2366004612c61565b611688565b6103ca6103c5366004612aca565b6117d6565b60405164ffffffffff9091168152602001610197565b6102a16103ee366004612aca565b61180b565b61025e610401366004612a6d565b61181c565b600254610333906001600160a01b031681565b61042c610427366004612aa6565b611877565b604051610197929190612cbc565b634aaae55a546102a19063ffffffff1681565b600061045a610246610efc565b905090565b6000600454831061047257506000610634565b600060058461ffff811061048857610488612d1f565b600891828204019190066004029054906101000a900463ffffffff1663ffffffff16905060006120058561ffff81106104c3576104c3612d1f565b601091828204019190066002029054906101000a900461ffff1661ffff169050808411610543576130058561ffff81106104ff576104ff612d1f565b612aab02018461ffff811061051657610516612d1f565b600691828204019190066005029054906101000a900464ffffffffff1664ffffffffff1692505050610634565b60006130058661ffff811061055a5761055a612d1f565b612aab02018261ffff811061057157610571612d1f565b600691828204019190066005029054906101000a900464ffffffffff1664ffffffffff169050806000036105ab5760009350505050610634565b8482101561062f57816105bd81612d4b565b92506105cb90508382612d64565b9050632aab055a8661ffff81106105e4576105e4612d1f565b61200002018261ffff81106105fb576105fb612d1f565b600891828204019190066004029054906101000a900463ffffffff1663ffffffff16836106289190612d64565b92506105ab565b925050505b92915050565b6000336001600160a01b038316148061065d57506001546001600160a01b031633145b8061068957506001600160a01b03821660009081526020818152604080832033845290915290205460ff165b6106ae5760405162461bcd60e51b81526004016106a590612d77565b60405180910390fd5b6001600160a01b0382166000908152600360205260408120906106cf610efc565b8254909150600160481b810460ff169062010000900464ffffffffff16811515806106fa5750600081115b156107e4578354600160501b900461ffff1615610758576107248661071e8861118c565b836118bb565b835464ffff00ffff60381b1916845560405183906001600160a01b0388169060008051602061305e83398151915290600090a35b811561076e57835460ff60481b1916845561077d565b835466ffffffffff0000191684555b6040805160008082526020820190925284916001600160a01b0389169160008051602061307e8339815191529190816107cc565b6107b961294f565b8152602001906001900390816107b15790505b506040516107db929190612e0c565b60405180910390a35b50600195945050505050565b600060045482106108305760405162461bcd60e51b815260206004820152600a602482015269125b9d985b1a5908125160b21b60448201526064016106a5565b600061083a610efc565b905060006120058461ffff811061085357610853612d1f565b601091828204019190066002029054906101000a900461ffff1661ffff16905060006130058561ffff811061088a5761088a612d1f565b612aab02018261ffff81106108a1576108a1612d1f565b600691828204019190066005029054906101000a900464ffffffffff1664ffffffffff1690508060000361091657826120058661ffff81106108e5576108e5612d1f565b601091828204019190066002026101000a81548161ffff021916908361ffff16021790555060009350505050919050565b600060058661ffff811061092c5761092c612d1f565b600891828204019190066004029054906101000a900463ffffffff1663ffffffff1690505b83831015610a2d578261096381612d4b565b935061097190508183612d64565b9150816130058761ffff811061098957610989612d1f565b612aab02018461ffff81106109a0576109a0612d1f565b600691828204019190066005026101000a81548164ffffffffff021916908364ffffffffff160217905550632aab055a8661ffff81106109e2576109e2612d1f565b61200002018361ffff81106109f9576109f9612d1f565b600891828204019190066004029054906101000a900463ffffffff1663ffffffff1681610a269190612d64565b9050610951565b8060058761ffff8110610a4257610a42612d1f565b600891828204019190066004026101000a81548163ffffffff021916908363ffffffff160217905550836120058761ffff8110610a8157610a81612d1f565b601091828204019190066002026101000a81548161ffff021916908361ffff16021790555081945050505050919050565b6000610abf600183612d64565b9150610aca836107f0565b50610ad36112b4565b506000634aaae55b8361ffff8110610aed57610aed612d1f565b600691828204019190066005029054906101000a900464ffffffffff1664ffffffffff16905080600003610b25576000915050610634565b806130058561ffff8110610b3b57610b3b612d1f565b612aab02018461ffff8110610b5257610b52612d1f565b600680820490920154610b819264ffffffffff600591909306026101000a900416670de0b6b3a7640000612e25565b610b8b9190612e3c565b949350505050565b6002546000906001600160a01b03163314610bdf5760405162461bcd60e51b815260206004820152600c60248201526b4e6f7420547265617375727960a01b60448201526064016106a5565b600454610bea610efc565b6120058261ffff8110610bff57610bff612d1f565b601091828204019190066002026101000a81548161ffff021916908361ffff160217905550806001610c319190612e5e565b600455919050565b634aaae55a5460009063ffffffff811690600160201b900461ffff16808411610ca057634aaae55b8461ffff8110610c7357610c73612d1f565b600691828204019190066005029054906101000a900464ffffffffff1664ffffffffff1692505050919050565b6000634aaae55b8261ffff8110610cb957610cb9612d1f565b600691828204019190066005029054906101000a900464ffffffffff1664ffffffffff16905080600003610cf257506000949350505050565b84821015610b8b5781610d0481612d4b565b9250610d1290508382612d64565b9050634aab10068261ffff8110610d2b57610d2b612d1f565b600891828204019190066004029054906101000a900463ffffffff1663ffffffff1683610d589190612d64565b9250610cf2565b80336001600160a01b0382161480610d9857506001600160a01b03811660009081526020818152604080832033845290915290205460ff165b610db45760405162461bcd60e51b81526004016106a590612d77565b6001600160a01b0382166000908152600360205260409020805462010000900464ffffffffff16610de88461071e8161118c565b815464ffff00ffff60381b19168255610dff610efc565b6040516001600160a01b0386169060008051602061305e83398151915290600090a350505050565b81336001600160a01b0382161480610e6057506001600160a01b03811660009081526020818152604080832033845290915290205460ff165b610e7c5760405162461bcd60e51b81526004016106a590612d77565b6001600160a01b03831660009081526003602052604090208054606090600160501b900461ffff1615610ed157610eb28561118c565b8254909150610ed1908690839062010000900464ffffffffff166118bb565b6000610edd86866118e1565b9050610eea868383611b37565b505050505050565b6000610634826101ae5b600062093a80610f2c7f000000000000000000000000000000000000000000000000000000000000000042612d64565b61045a9190612e3c565b634aab10068161ffff8110610f4a57600080fd5b60089182820401919006600402915054906101000a900463ffffffff1681565b6001546000906001600160a01b03163314610f8457600080fd5b6001600160a01b0383166000908152600360205260409020805462010000900464ffffffffff168015611136578154606090600160501b900461ffff1615610fdb57610fcf8661118c565b9050610fdb8183611b58565b6000610fe5610efc565b845466ffffffffffffff191661ffff821617855590506000611008603485612e3c565b6127118601805463ffffffff191663ffffffff831617905561271886018054603460ff19909116179055855460ff60481b1916600160481b1786558351909150156110965786156110625761105d8884611cb9565b611096565b845464ffff00ffff60381b1916855560405182906001600160a01b038a169060008051602061305e83398151915290600090a35b604080516001808252818301909252600091816020015b6110b561294f565b8152602001906001900390816110ad57905050905060405180604001604052808381526020016034815250816000815181106110f3576110f3612d1f565b602002602001018190525082896001600160a01b031660008051602061307e833981519152600084604051611129929190612e0c565b60405180910390a3505050505b506001949350505050565b632aab055a8261ffff811061115557600080fd5b61200002018161ffff811061116957600080fd5b60089182820401919006600402915091509054906101000a900463ffffffff1681565b6001600160a01b038116600090815260036020526040902054606090600160501b900461ffff166001600160401b038111156111ca576111ca612da6565b60405190808252806020026020018201604052801561120f57816020015b60408051808201909152600080825260208201528152602001906001900390816111e85790505b506001600160a01b0383166000908152600360205260408120825192935060010191905b818110156112ac5760405180604001604052808483612710811061125957611259612d1f565b015461ffff1681526020018483612710811061127757611277612d1f565b015462010000900461ffff169052845185908390811061129957611299612d1f565b6020908102919091010152600101611233565b505050919050565b6000806112bf610efc565b634aaae55a5490915061ffff600160201b909104811690600090634aaae55b90839081106112ef576112ef612d1f565b600691828204019190066005029054906101000a900464ffffffffff1664ffffffffff16905080600003611348575050634aaae55a805461ffff909216600160201b0261ffff60201b1990921691909117905550600090565b634aaae55a5463ffffffff165b83831015611405578261136781612d4b565b935061137590508183612d64565b915081634aaae55b8461ffff811061138f5761138f612d1f565b600691828204019190066005026101000a81548164ffffffffff021916908364ffffffffff160217905550634aab10068361ffff81106113d1576113d1612d1f565b600891828204019190066004029054906101000a900463ffffffff1663ffffffff16816113fe9190612d64565b9050611355565b634aaae55a805461ffff909516600160201b0265ffffffffffff1990951663ffffffff909216919091179390931790925550919050565b83336001600160a01b038216148061147557506001600160a01b03811660009081526020818152604080832033845290915290205460ff165b6114915760405162461bcd60e51b81526004016106a590612d77565b6001600160a01b0385166000908152600360205260409020805462010000900464ffffffffff16801515806114d057508154600160481b900460ff1615155b6115135760405162461bcd60e51b8152602060048201526014602482015273139bc81c9959da5cdd195c9959081dd95a59da1d60621b60448201526064016106a5565b600080851561155e5761152f896115298b61118c565b856118bb565b611537610efc565b6040516001600160a01b038b169060008051602061305e83398151915290600090a3611578565b5050815461ffff600160381b8204811691600160501b9004165b6115d5898989808060200260200160405190810160405280939291908181526020016000905b828210156115ca576115bb60408302860136819003810190612ec9565b8152602001906001019061159e565b505050505085611b37565b6115e389858a8a868661210d565b505050505050505050565b6120058161ffff811061160057600080fd5b60109182820401919006600202915054906101000a900461ffff1681565b336000818152602081815260408083206001600160a01b03871680855290835292819020805460ff191686151590811790915590519081529192917f92d241afb0a1a9b3441bf1bd6bea0f9164cf5a2562cbe4bcc34ab943b2465608910160405180910390a35050565b83336001600160a01b03821614806116c157506001600160a01b03811660009081526020818152604080832033845290915290205460ff165b6116dd5760405162461bcd60e51b81526004016106a590612d77565b6001600160a01b03851660009081526003602052604090208054600160501b900461ffff161561175357611728866117148861118c565b835462010000900464ffffffffff166118bb565b611730610efc565b6040516001600160a01b0388169060008051602061305e83398151915290600090a35b600061175f87876118e1565b90506117be878686808060200260200160405190810160405280939291908181526020016000905b828210156117b3576117a460408302860136819003810190612ec9565b81526020019060010190611787565b505050505083611b37565b6117cd8783878760008061210d565b50505050505050565b634aaae55b8161ffff81106117ea57600080fd5b60069182820401919006600502915054906101000a900464ffffffffff1681565b60058161ffff8110610f4a57600080fd5b6002546001600160a01b031615801561183d57506001600160a01b03811615155b61184657600080fd5b600280546001600160a01b039283166001600160a01b03199182161790915560018054939092169216919091179055565b6001600160a01b03811660009081526003602052604081205460609062010000900464ffffffffff166118a9846122b6565b64ffffffffff90911694909350915050565b8151156118d25780156118d7576118d28282611b58565b505050565b6118d28383612459565b6001600160a01b0382811660008181526003602052604080822060015491516305ed16ed60e21b8152600481019490945260248401869052919391928492839216906317b45bb490604401600060405180830381865afa158015611949573d6000803e3d6000fd5b505050506040513d6000823e601f3d908101601f191682016040526119719190810190612efb565b8151919350915081156119ac57611989603483612e25565b845466ffffffffff000019166201000064ffffffffff8316021785559150611ac7565b8015611a8d5760005b81811015611a875760008482815181106119d1576119d1612d1f565b602002602001015160000151905060008583815181106119f3576119f3612d1f565b60200260200101516020015190508187612711018460348110611a1857611a18612d1f565b600891828204019190066004026101000a81548163ffffffff021916908363ffffffff1602179055508087612718018460348110611a5857611a58612d1f565b602091828204019190066101000a81548160ff021916908360ff160217905550505080806001019150506119b5565b50611ac7565b60405162461bcd60e51b815260206004820152600f60248201526e4e6f20616374697665206c6f636b7360881b60448201526064016106a5565b6000611ad1610efc565b855460ff8416600160481b0261ffff60ff60481b011990911661ffff83161717865560405190915081906001600160a01b038a169060008051602061307e83398151915290611b239087908990612e0c565b60405180910390a350909695505050505050565b8151156118d2578015611b4e576118d28282612836565b6118d28383611cb9565b6000611b62610efc565b8351909150600090815b81811015611c5c57600080878381518110611b8957611b89612d1f565b602002602001015160000151888481518110611ba757611ba7612d1f565b6020026020010151602001519150915060006127108289611bc89190612e25565b611bd29190612e3c565b905080611bde846107f0565b611be89190612d64565b6130058461ffff8110611bfd57611bfd612d1f565b612aab02018861ffff8110611c1457611c14612d1f565b600691828204019190066005026101000a81548164ffffffffff021916908364ffffffffff1602179055508086611c4b9190612e5e565b95505060019092019150611b6c9050565b5081611c666112b4565b611c709190612d64565b634aaae55b8461ffff8110611c8757611c87612d1f565b600691828204019190066005026101000a81548164ffffffffff021916908364ffffffffff1602179055505050505050565b6000611cc4836122b6565b805190915080611d165760405162461bcd60e51b815260206004820152601d60248201527f526567697374657265642077656967687420686173206578706972656400000060448201526064016106a5565b6000806000611d23610efc565b9050611d2d612969565b60005b8751811015611fb1576000888281518110611d4d57611d4d612d1f565b60200260200101516000015190506000898381518110611d6f57611d6f612d1f565b602002602001015160200151905060008060005b8a811015611ebf5760008c8281518110611d9f57611d9f612d1f565b60200260200101516020015190506000612710868f8581518110611dc557611dc5612d1f565b602002602001015160000151611ddb9190612e25565b611de59190612e3c565b905080632aab055a8861ffff8110611dff57611dff612d1f565b6120000201611e0e848d612e5e565b61ffff8110611e1f57611e1f612d1f565b600891828204019190066004028282829054906101000a900463ffffffff16611e489190612fcc565b92506101000a81548163ffffffff021916908363ffffffff1602179055508063ffffffff16898360358110611e7f57611e7f612d1f565b60200201818151611e909190612e5e565b905250611e9d8282612e25565b611ea79086612e5e565b9450611eb38185612e5e565b93505050600101611d83565b5081611eca856107f0565b611ed49190612e5e565b6130058561ffff8110611ee957611ee9612d1f565b612aab02018861ffff8110611f0057611f00612d1f565b600691828204019190066005026101000a81548164ffffffffff021916908364ffffffffff1602179055508060058561ffff8110611f4057611f40612d1f565b600891828204019190066004028282829054906101000a900463ffffffff16611f699190612fcc565b92506101000a81548163ffffffff021916908363ffffffff1602179055508189611f939190612e5e565b9850611f9f8189612e5e565b97505060019093019250611d30915050565b5060005b8581101561206b576000878281518110611fd157611fd1612d1f565b6020026020010151602001519050828160358110611ff157611ff1612d1f565b6020020151634aab10066120058387612e5e565b61ffff811061201657612016612d1f565b600891828204019190066004028282829054906101000a900463ffffffff1661203f9190612fcc565b92506101000a81548163ffffffff021916908363ffffffff160217905550508080600101915050611fb5565b50836120756112b4565b61207f9190612e5e565b634aaae55b8361ffff811061209657612096612d1f565b600691828204019190066005026101000a81548164ffffffffff021916908364ffffffffff16021790555082634aaae55a60008282829054906101000a900463ffffffff166120e59190612fcc565b92506101000a81548163ffffffff021916908363ffffffff1602179055505050505050505050565b600185018360005b818110156121d657604051806040016040528088888481811061213a5761213a612d1f565b9050604002016000013561ffff1661ffff16815260200188888481811061216357612163612d1f565b9050604002016020013561ffff1661ffff168152508382866121859190612e5e565b612710811061219657612196612d1f565b6121a4929101906002612988565b508686828181106121b7576121b7612d1f565b90506040020160200135856121cc9190612e5e565b9450600101612115565b506127108411156122245760405162461bcd60e51b81526020600482015260186024820152774578636565646564206d617820766f746520706f696e747360401b60448201526064016106a5565b61222e8184612e5e565b875464ffff00ffff60381b1916600160501b61ffff9283160261ffff60381b191617600160381b91861691909102178755612267610efc565b886001600160a01b03167f027b95150a840915102d246f135fa783478df804caae0b9a4de2bdf1798b92478888886040516122a493929190612ff0565b60405180910390a35050505050505050565b6001600160a01b03811660009081526003602052604081208054606092600160481b90910460ff16906122e7610efc565b835490915060009062010000900464ffffffffff1661230b57835461ffff1661230d565b815b905061271884016127118501846001600160401b0381111561233157612331612da6565b60405190808252806020026020018201604052801561237657816020015b604080518082019091526000808252602082015281526020019060019003908161234f5790505b50965060005b8581101561244d5760008484836034811061239957612399612d1f565b6020810491909101546123b89291601f166101000a900460ff16612e5e565b90508581116123ca578189525061244d565b60006123d68783612d64565b905060008484603481106123ec576123ec612d1f565b600891828204019190066004029054906101000a900463ffffffff1663ffffffff1690506040518060400160405280828152602001838152508b858151811061243757612437612d1f565b602090810291909101015250505060010161237c565b50505050505050919050565b6000612464836122b6565b805190915060008080612475610efc565b905061247f612969565b60005b8751811015612702576000808983815181106124a0576124a0612d1f565b6020026020010151600001518a84815181106124be576124be612d1f565b6020026020010151602001519150915060008060005b8a8110156126105760008c82815181106124f0576124f0612d1f565b60200260200101516020015190506000612710868f858151811061251657612516612d1f565b60200260200101516000015161252c9190612e25565b6125369190612e3c565b905080632aab055a8861ffff811061255057612550612d1f565b612000020161255f848d612e5e565b61ffff811061257057612570612d1f565b600891828204019190066004028282829054906101000a900463ffffffff166125999190613040565b92506101000a81548163ffffffff021916908363ffffffff1602179055508063ffffffff168983603581106125d0576125d0612d1f565b602002018181516125e19190612e5e565b9052506125ee8282612e25565b6125f89086612e5e565b94506126048185612e5e565b935050506001016124d4565b508161261b856107f0565b6126259190612d64565b6130058561ffff811061263a5761263a612d1f565b612aab02018861ffff811061265157612651612d1f565b600691828204019190066005026101000a81548164ffffffffff021916908364ffffffffff1602179055508060058561ffff811061269157612691612d1f565b600891828204019190066004028282829054906101000a900463ffffffff166126ba9190613040565b92506101000a81548163ffffffff021916908363ffffffff16021790555081896126e49190612e5e565b98506126f08189612e5e565b97505060019093019250612482915050565b5060005b858110156127bc57600087828151811061272257612722612d1f565b602002602001015160200151905082816035811061274257612742612d1f565b6020020151634aab10066127568387612e5e565b61ffff811061276757612767612d1f565b600891828204019190066004028282829054906101000a900463ffffffff166127909190613040565b92506101000a81548163ffffffff021916908363ffffffff160217905550508080600101915050612706565b50836127c66112b4565b6127d09190612d64565b634aaae55b8361ffff81106127e7576127e7612d1f565b600691828204019190066005026101000a81548164ffffffffff021916908364ffffffffff16021790555082634aaae55a60008282829054906101000a900463ffffffff166120e59190613040565b6000612840610efc565b8351909150600090815b8181101561293b57600086828151811061286657612866612d1f565b6020026020010151600001519050600087838151811061288857612888612d1f565b6020026020010151602001519050600061271082896128a79190612e25565b6128b19190612e3c565b9050806128bd846107f0565b6128c79190612e5e565b6130058461ffff81106128dc576128dc612d1f565b612aab02018861ffff81106128f3576128f3612d1f565b600691828204019190066005026101000a81548164ffffffffff021916908364ffffffffff160217905550808661292a9190612e5e565b9550506001909201915061284a9050565b50816129456112b4565b611c709190612e5e565b604051806040016040528060008152602001600081525090565b604051806106a001604052806035906020820280368337509192915050565b600183019183908215612a0e5791602002820160005b838211156129de57835183826101000a81548161ffff021916908361ffff160217905550926020019260020160208160010104928301926001030261299e565b8015612a0c5782816101000a81549061ffff02191690556002016020816001010492830192600103026129de565b505b50612a1a929150612a1e565b5090565b5b80821115612a1a5760008155600101612a1f565b60008060408385031215612a4657600080fd5b50508035926020909101359150565b6001600160a01b0381168114612a6a57600080fd5b50565b60008060408385031215612a8057600080fd5b8235612a8b81612a55565b91506020830135612a9b81612a55565b809150509250929050565b600060208284031215612ab857600080fd5b8135612ac381612a55565b9392505050565b600060208284031215612adc57600080fd5b5035919050565b60008060408385031215612af657600080fd5b8235612b0181612a55565b946020939093013593505050565b80358015158114612b1f57600080fd5b919050565b60008060408385031215612b3757600080fd5b8235612b4281612a55565b9150612b5060208401612b0f565b90509250929050565b602080825282518282018190526000919060409081850190868401855b82811015612ba357612b9384835180518252602090810151910152565b9284019290850190600101612b76565b5091979650505050505050565b60008083601f840112612bc257600080fd5b5081356001600160401b03811115612bd957600080fd5b6020830191508360208260061b8501011115612bf457600080fd5b9250929050565b60008060008060608587031215612c1157600080fd5b8435612c1c81612a55565b935060208501356001600160401b03811115612c3757600080fd5b612c4387828801612bb0565b9094509250612c56905060408601612b0f565b905092959194509250565b60008060008060608587031215612c7757600080fd5b8435612c8281612a55565b93506020850135925060408501356001600160401b03811115612ca457600080fd5b612cb087828801612bb0565b95989497509550505050565b6000604080830185845260206040602086015281865180845260608701915060208801935060005b81811015612d1157612d0183865180518252602090810151910152565b9383019391850191600101612ce4565b509098975050505050505050565b634e487b7160e01b600052603260045260246000fd5b634e487b7160e01b600052601160045260246000fd5b600060018201612d5d57612d5d612d35565b5060010190565b8181038181111561063457610634612d35565b60208082526015908201527411195b1959d85d19481b9bdd08185c1c1c9bdd9959605a1b604082015260600190565b634e487b7160e01b600052604160045260246000fd5b60008151808452602080850194506020840160005b83811015612e0157612dee87835180518252602090810151910152565b6040969096019590820190600101612dd1565b509495945050505050565b828152604060208201526000610b8b6040830184612dbc565b808202811582820484141761063457610634612d35565b600082612e5957634e487b7160e01b600052601260045260246000fd5b500490565b8082018082111561063457610634612d35565b604080519081016001600160401b0381118282101715612e9357612e93612da6565b60405290565b604051601f8201601f191681016001600160401b0381118282101715612ec157612ec1612da6565b604052919050565b600060408284031215612edb57600080fd5b612ee3612e71565b82358152602083013560208201528091505092915050565b6000806040808486031215612f0f57600080fd5b83516001600160401b0380821115612f2657600080fd5b818601915086601f830112612f3a57600080fd5b8151602082821115612f4e57612f4e612da6565b612f5c818360051b01612e99565b828152818101935060069290921b840181019189831115612f7c57600080fd5b938101935b82851015612fbc5785858b031215612f995760008081fd5b612fa1612e71565b85518152828601518382015284529385019392810192612f81565b9701519698969750505050505050565b63ffffffff818116838216019080821115612fe957612fe9612d35565b5092915050565b60408082528181018490526000908560608401835b8781101561302b5782358252602080840135908301529183019190830190600101613005565b50809350505050826020830152949350505050565b63ffffffff828116828216039080821115612fe957612fe9612d3556fe04c7eb7e6d81de1f92d1790dec661c82610b206ba7e8efbe4b9e3e1c3573350bc373662f5a11e3110db3b0ffb1dfe92f9654cd3e0ff75d9b7d89e128eb442bb8a26469706673582212205585037a7b4e435aedaf86d4ceffb4cd3411cfa60e952626c09a6e97a2d364f864736f6c63430008160033",
  "linkReferences": {},
  "deployedLinkReferences": {}
}