{
  "_format": "hh-sol-artifact-1",
  "contractName": "EmissionSchedule",
  "sourceName": "contracts/dao/EmissionSchedule.sol",
  "abi": [
    {
      "inputs": [
        {
          "internalType": "address",
          "name": "_vineCore",
          "type": "address"
        },
        {
          "internalType": "contract IIncentiveVoting",
          "name": "_voter",
          "type": "address"
        },
        {
          "internalType": "contract IVineVault",
          "name": "_vault",
          "type": "address"
        },
        {
          "internalType": "uint64",
          "name": "_initialLockWeeks",
          "type": "uint64"
        },
        {
          "internalType": "uint64",
          "name": "_lockDecayWeeks",
          "type": "uint64"
        },
        {
          "internalType": "uint64",
          "name": "_weeklyPct",
          "type": "uint64"
        },
        {
          "internalType": "uint64[2][]",
          "name": "_scheduledWeeklyPct",
          "type": "uint64[2][]"
        }
      ],
      "stateMutability": "nonpayable",
      "type": "constructor"
    },
    {
      "anonymous": false,
      "inputs": [
        {
          "indexed": false,
          "internalType": "uint256",
          "name": "lockWeeks",
          "type": "uint256"
        },
        {
          "indexed": false,
          "internalType": "uint256",
          "name": "lockDecayWeeks",
          "type": "uint256"
        }
      ],
      "name": "LockParametersSet",
      "type": "event"
    },
    {
      "anonymous": false,
      "inputs": [
        {
          "indexed": false,
          "internalType": "uint64[2][]",
          "name": "schedule",
          "type": "uint64[2][]"
        }
      ],
      "name": "WeeklyPctScheduleSet",
      "type": "event"
    },
    {
      "inputs": [],
      "name": "MAX_LOCK_WEEKS",
      "outputs": [
        {
          "internalType": "uint256",
          "name": "",
          "type": "uint256"
        }
      ],
      "stateMutability": "view",
      "type": "function"
    },
    {
      "inputs": [],
      "name": "VINE_CORE",
      "outputs": [
        {
          "internalType": "contract IVineCore",
          "name": "",
          "type": "address"
        }
      ],
      "stateMutability": "view",
      "type": "function"
    },
    {
      "inputs": [
        {
          "internalType": "uint256",
          "name": "id",
          "type": "uint256"
        },
        {
          "internalType": "uint256",
          "name": "week",
          "type": "uint256"
        },
        {
          "internalType": "uint256",
          "name": "totalWeeklyEmissions",
          "type": "uint256"
        }
      ],
      "name": "getReceiverWeeklyEmissions",
      "outputs": [
        {
          "internalType": "uint256",
          "name": "",
          "type": "uint256"
        }
      ],
      "stateMutability": "nonpayable",
      "type": "function"
    },
    {
      "inputs": [
        {
          "internalType": "uint256",
          "name": "week",
          "type": "uint256"
        },
        {
          "internalType": "uint256",
          "name": "unallocatedTotal",
          "type": "uint256"
        }
      ],
      "name": "getTotalWeeklyEmissions",
      "outputs": [
        {
          "internalType": "uint256",
          "name": "amount",
          "type": "uint256"
        },
        {
          "internalType": "uint256",
          "name": "lock",
          "type": "uint256"
        }
      ],
      "stateMutability": "nonpayable",
      "type": "function"
    },
    {
      "inputs": [],
      "name": "getWeek",
      "outputs": [
        {
          "internalType": "uint256",
          "name": "week",
          "type": "uint256"
        }
      ],
      "stateMutability": "view",
      "type": "function"
    },
    {
      "inputs": [],
      "name": "getWeeklyPctSchedule",
      "outputs": [
        {
          "internalType": "uint64[2][]",
          "name": "",
          "type": "uint64[2][]"
        }
      ],
      "stateMutability": "view",
      "type": "function"
    },
    {
      "inputs": [],
      "name": "guardian",
      "outputs": [
        {
          "internalType": "address",
          "name": "",
          "type": "address"
        }
      ],
      "stateMutability": "view",
      "type": "function"
    },
    {
      "inputs": [],
      "name": "lockDecayWeeks",
      "outputs": [
        {
          "internalType": "uint64",
          "name": "",
          "type": "uint64"
        }
      ],
      "stateMutability": "view",
      "type": "function"
    },
    {
      "inputs": [],
      "name": "lockWeeks",
      "outputs": [
        {
          "internalType": "uint64",
          "name": "",
          "type": "uint64"
        }
      ],
      "stateMutability": "view",
      "type": "function"
    },
    {
      "inputs": [],
      "name": "owner",
      "outputs": [
        {
          "internalType": "address",
          "name": "",
          "type": "address"
        }
      ],
      "stateMutability": "view",
      "type": "function"
    },
    {
      "inputs": [
        {
          "internalType": "uint64",
          "name": "_lockWeeks",
          "type": "uint64"
        },
        {
          "internalType": "uint64",
          "name": "_lockDecayWeeks",
          "type": "uint64"
        }
      ],
      "name": "setLockParameters",
      "outputs": [
        {
          "internalType": "bool",
          "name": "",
          "type": "bool"
        }
      ],
      "stateMutability": "nonpayable",
      "type": "function"
    },
    {
      "inputs": [
        {
          "internalType": "uint64[2][]",
          "name": "_schedule",
          "type": "uint64[2][]"
        }
      ],
      "name": "setWeeklyPctSchedule",
      "outputs": [
        {
          "internalType": "bool",
          "name": "",
          "type": "bool"
        }
      ],
      "stateMutability": "nonpayable",
      "type": "function"
    },
    {
      "inputs": [],
      "name": "vault",
      "outputs": [
        {
          "internalType": "contract IVineVault",
          "name": "",
          "type": "address"
        }
      ],
      "stateMutability": "view",
      "type": "function"
    },
    {
      "inputs": [],
      "name": "voter",
      "outputs": [
        {
          "internalType": "contract IIncentiveVoting",
          "name": "",
          "type": "address"
        }
      ],
      "stateMutability": "view",
      "type": "function"
    },
    {
      "inputs": [],
      "name": "weeklyPct",
      "outputs": [
        {
          "internalType": "uint64",
          "name": "",
          "type": "uint64"
        }
      ],
      "stateMutability": "view",
      "type": "function"
    }
  ],
  "bytecode": "0x6101006040523480156200001257600080fd5b5060405162001a6138038062001a6183398101604081905262000035916200064d565b6001600160a01b0387166080819052604080516378e9792560e01b815290518992916378e979259160048083019260209291908290030181865afa15801562000082573d6000803e3d6000fd5b505050506040513d601f19601f82011682018060405250810190620000a89190620007d7565b60a052506001600160a01b0380871660c052851660e052600080546001600160401b03848116600160801b02600160801b600160c01b031987831668010000000000000000026001600160801b0319909416928916929092179290921716179055620001148162000164565b604080516001600160401b038087168252851660208201527f06cdbc630456a3f754110f351061f062e99d86cffcf38b34334a09330bdaabb8910160405180910390a150505050505050620008e8565b80518015620003f757600082600081518110620001855762000185620007f1565b6020026020010151600060028110620001a257620001a2620007f1565b60200201516001600160401b031690506000620001be6200044a565b905060005b83811015620003a1578015620002aa5782858281518110620001e957620001e9620007f1565b6020026020010151600060028110620002065762000206620007f1565b60200201516001600160401b031610620002675760405162461bcd60e51b815260206004820152601c60248201527f4d75737420736f7274206279207765656b2064657363656e64696e670000000060448201526064015b60405180910390fd5b8481815181106200027c576200027c620007f1565b6020026020010151600060028110620002995762000299620007f1565b60200201516001600160401b031692505b620002b682846200081d565b858281518110620002cb57620002cb620007f1565b6020026020010151600060028110620002e857620002e8620007f1565b60200201906001600160401b031690816001600160401b0316815250506127108582815181106200031d576200031d620007f1565b60200260200101516001600281106200033a576200033a620007f1565b60200201516001600160401b03161115620003985760405162461bcd60e51b815260206004820152601560248201527f43616e6e6f7420657863656564204d41585f504354000000000000000000000060448201526064016200025e565b600101620001c3565b5060008211620003f45760405162461bcd60e51b815260206004820152601a60248201527f43616e6e6f74207363686564756c652070617374207765656b7300000000000060448201526064016200025e565b50505b81516200040c90600190602085019062000471565b507fb0894d730b99145ce6304cd4e14ae8de052398ce596f71fcd48eb9f33adecf92826040516200043e919062000839565b60405180910390a15050565b600062093a8060a05142620004609190620008af565b6200046c9190620008c5565b905090565b828054828255906000526020600020908101928215620004bd579160200282015b82811115620004bd578251620004ac9083906002620004cf565b509160200191906001019062000492565b50620004cb92915062000577565b5090565b600183019183908215620005695791602002820160005b838211156200053257835183826101000a8154816001600160401b0302191690836001600160401b031602179055509260200192600801602081600701049283019260010302620004e6565b8015620005675782816101000a8154906001600160401b03021916905560080160208160070104928301926001030262000532565b505b50620004cb9291506200058d565b80821115620004cb576000815560010162000577565b80821115620004cb576000815560010162000577565b6001600160a01b0381168114620005b957600080fd5b50565b80516001600160401b0381168114620005d457600080fd5b919050565b634e487b7160e01b600052604160045260246000fd5b604080519081016001600160401b0381118282101715620006145762000614620005d9565b60405290565b604051601f8201601f191681016001600160401b0381118282101715620006455762000645620005d9565b604052919050565b600080600080600080600060e0888a0312156200066957600080fd5b87516200067681620005a3565b60208901519097506200068981620005a3565b60408901519096506200069c81620005a3565b9450620006ac60608901620005bc565b9350620006bc60808901620005bc565b9250620006cc60a08901620005bc565b60c08901519092506001600160401b0380821115620006ea57600080fd5b818a0191508a601f830112620006ff57600080fd5b815181811115620007145762000714620005d9565b6200072560208260051b016200061a565b91508181835260208301925060208260061b85010191508c8211156200074a57600080fd5b6020840193505b81841015620007c4578c601f8501126200076a57600080fd5b62000774620005ef565b80604086018f8111156200078757600080fd5b865b81811015620007ac576200079d81620005bc565b84526020938401930162000789565b50508452506040939093019260209092019162000751565b8094505050505092959891949750929550565b600060208284031215620007ea57600080fd5b5051919050565b634e487b7160e01b600052603260045260246000fd5b634e487b7160e01b600052601160045260246000fd5b8082018082111562000833576200083362000807565b92915050565b60208082528251828201819052600091906040908185019086840185805b83811015620008a157825185835b60028110156200088d5782516001600160401b03168252918901919089019060010162000865565b505050938501939186019160010162000857565b509298975050505050505050565b8181038181111562000833576200083362000807565b600082620008e357634e487b7160e01b600052601260045260246000fd5b500490565b60805160a05160c05160e0516111156200094c6000396000818161024d01526107aa015260008181610149015261065b015260006105a20152600081816101b0015281816102730152818161044c015281816104d501526105d501526111156000f3fe608060405234801561001057600080fd5b50600436106100c55760003560e01c80633869d9b6146100ca578063446d233414610101578063452a93201461012457806346c96aac14610144578063593c1cca1461016b5780637201fb0e1461018557806375b54b3c1461019857806382d61d16146101ab578063874d6d81146101d25780638da5cb5b146101e8578063a3af6b9b146101f0578063bafacab914610203578063d0d8e1551461020b578063e8643de914610220578063fbfa77cf14610248575b600080fd5b6000546100e490600160401b90046001600160401b031681565b6040516001600160401b0390911681526020015b60405180910390f35b61011461010f366004610d5c565b61026f565b60405190151581526020016100f8565b61012c610448565b6040516001600160a01b0390911681526020016100f8565b61012c7f000000000000000000000000000000000000000000000000000000000000000081565b6000546100e490600160801b90046001600160401b031681565b6000546100e4906001600160401b031681565b6101146101a6366004610dfd565b6104d1565b61012c7f000000000000000000000000000000000000000000000000000000000000000081565b6101da610597565b6040519081526020016100f8565b61012c6105d1565b6101da6101fe366004610ef5565b610631565b6101da603481565b6102136106f0565b6040516100f89190610f21565b61023361022e366004610f93565b61079c565b604080519283526020830191909152016100f8565b61012c7f000000000000000000000000000000000000000000000000000000000000000081565b60007f00000000000000000000000000000000000000000000000000000000000000006001600160a01b0316638da5cb5b6040518163ffffffff1660e01b8152600401602060405180830381865afa1580156102cf573d6000803e3d6000fd5b505050506040513d601f19601f820116820180604052508101906102f39190610fb5565b6001600160a01b0316336001600160a01b03161461032c5760405162461bcd60e51b815260040161032390610fe5565b60405180910390fd5b6034836001600160401b031611156103855760405162461bcd60e51b815260206004820152601c60248201527b43616e6e6f7420657863656564204d41585f4c4f434b5f5745454b5360201b6044820152606401610323565b6000826001600160401b0316116103d85760405162461bcd60e51b815260206004820152601760248201527604465636179207765656b732063616e6e6f74206265203604c1b6044820152606401610323565b600080546001600160401b038581166001600160801b03199092168217600160401b918616918202179092556040805191825260208201929092527f06cdbc630456a3f754110f351061f062e99d86cffcf38b34334a09330bdaabb8910160405180910390a15060015b92915050565b60007f00000000000000000000000000000000000000000000000000000000000000006001600160a01b031663452a93206040518163ffffffff1660e01b8152600401602060405180830381865afa1580156104a8573d6000803e3d6000fd5b505050506040513d601f19601f820116820180604052508101906104cc9190610fb5565b905090565b60007f00000000000000000000000000000000000000000000000000000000000000006001600160a01b0316638da5cb5b6040518163ffffffff1660e01b8152600401602060405180830381865afa158015610531573d6000803e3d6000fd5b505050506040513d601f19601f820116820180604052508101906105559190610fb5565b6001600160a01b0316336001600160a01b0316146105855760405162461bcd60e51b815260040161032390610fe5565b61058e8261097f565b5060015b919050565b600062093a806105c77f00000000000000000000000000000000000000000000000000000000000000004261101f565b6104cc9190611048565b60007f00000000000000000000000000000000000000000000000000000000000000006001600160a01b0316638da5cb5b6040518163ffffffff1660e01b8152600401602060405180830381865afa1580156104a8573d6000803e3d6000fd5b604051631a7156c560e11b8152600481018490526024810183905260009081906001600160a01b037f000000000000000000000000000000000000000000000000000000000000000016906334e2ad8a906044016020604051808303816000875af11580156106a4573d6000803e3d6000fd5b505050506040513d601f19601f820116820180604052508101906106c8919061105c565b9050670de0b6b3a76400006106dd8285611075565b6106e79190611048565b95945050505050565b60606001805480602002602001604051908101604052809291908181526020016000905b828210156107935760008481526020812060408051808201918290529291850191600291908390855b82829054906101000a90046001600160401b03166001600160401b03168152602001906008019060208260070104928301926001038202915080841161073d579050505050505081526020019060010190610714565b50505050905090565b600080336001600160a01b037f000000000000000000000000000000000000000000000000000000000000000016146107d457600080fd5b506000546001600160401b0316801580159061080a575060005461080890600160401b90046001600160401b03168561108c565b155b156108385761081a60018261101f565b600080546001600160401b0319166001600160401b03831617905590505b600154600054600160801b90046001600160401b0316811561095d5760006001610862818561101f565b81548110610872576108726110a0565b60009182526020822060408051808201918290529391909201916002918390855b82829054906101000a90046001600160401b03166001600160401b0316815260200190600801906020826007010492830192600103820291508084116108935790505050505050905086816000600281106108f0576108f06110a0565b60200201516001600160401b03160361095b576001805480610914576109146110b6565b6000828152602080822060001990840181018390559092019092558201518154600160801b600160c01b031916600160801b6001600160401b039092169182021790915591505b505b61271061096a8287611075565b6109749190611048565b935050509250929050565b80518015610bd65760008260008151811061099c5761099c6110a0565b60200260200101516000600281106109b6576109b66110a0565b60200201516001600160401b0316905060006109d0610597565b905060005b83811015610b85578015610aa757828582815181106109f6576109f66110a0565b6020026020010151600060028110610a1057610a106110a0565b60200201516001600160401b031610610a6a5760405162461bcd60e51b815260206004820152601c60248201527b4d75737420736f7274206279207765656b2064657363656e64696e6760201b6044820152606401610323565b848181518110610a7c57610a7c6110a0565b6020026020010151600060028110610a9657610a966110a0565b60200201516001600160401b031692505b610ab182846110cc565b858281518110610ac357610ac36110a0565b6020026020010151600060028110610add57610add6110a0565b60200201906001600160401b031690816001600160401b031681525050612710858281518110610b0f57610b0f6110a0565b6020026020010151600160028110610b2957610b296110a0565b60200201516001600160401b03161115610b7d5760405162461bcd60e51b815260206004820152601560248201527410d85b9b9bdd08195e18d959590813505617d410d5605a1b6044820152606401610323565b6001016109d5565b5060008211610bd35760405162461bcd60e51b815260206004820152601a60248201527943616e6e6f74207363686564756c652070617374207765656b7360301b6044820152606401610323565b50505b8151610be9906001906020850190610c25565b507fb0894d730b99145ce6304cd4e14ae8de052398ce596f71fcd48eb9f33adecf9282604051610c199190610f21565b60405180910390a15050565b828054828255906000526020600020908101928215610c6c579160200282015b82811115610c6c578251610c5c9083906002610c7c565b5091602001919060010190610c45565b50610c78929150610d1d565b5090565b600183019183908215610d115791602002820160005b83821115610cdc57835183826101000a8154816001600160401b0302191690836001600160401b031602179055509260200192600801602081600701049283019260010302610c92565b8015610d0f5782816101000a8154906001600160401b030219169055600801602081600701049283019260010302610cdc565b505b50610c78929150610d31565b80821115610c785760008155600101610d1d565b80821115610c785760008155600101610d1d565b80356001600160401b038116811461059257600080fd5b60008060408385031215610d6f57600080fd5b610d7883610d45565b9150610d8660208401610d45565b90509250929050565b634e487b7160e01b600052604160045260246000fd5b604080519081016001600160401b0381118282101715610dc757610dc7610d8f565b60405290565b604051601f8201601f191681016001600160401b0381118282101715610df557610df5610d8f565b604052919050565b60006020808385031215610e1057600080fd5b82356001600160401b0380821115610e2757600080fd5b8185019150601f86601f840112610e3d57600080fd5b823582811115610e4f57610e4f610d8f565b610e5d858260051b01610dcd565b818152858101935060069190911b840185019088821115610e7d57600080fd5b938501935b81851015610ee9578883860112610e995760008081fd5b610ea1610da5565b80604087018b811115610eb45760008081fd5b875b81811015610ed457610ec781610d45565b8452928901928901610eb6565b50508552506040949094019392850192610e82565b98975050505050505050565b600080600060608486031215610f0a57600080fd5b505081359360208301359350604090920135919050565b60208082528251828201819052600091906040908185019086840185805b83811015610f8557825185835b6002811015610f725782516001600160401b031682529189019190890190600101610f4c565b5050509385019391860191600101610f3f565b509298975050505050505050565b60008060408385031215610fa657600080fd5b50508035926020909101359150565b600060208284031215610fc757600080fd5b81516001600160a01b0381168114610fde57600080fd5b9392505050565b6020808252600a908201526927b7363c9037bbb732b960b11b604082015260600190565b634e487b7160e01b600052601160045260246000fd5b8181038181111561044257610442611009565b634e487b7160e01b600052601260045260246000fd5b60008261105757611057611032565b500490565b60006020828403121561106e57600080fd5b5051919050565b808202811582820484141761044257610442611009565b60008261109b5761109b611032565b500690565b634e487b7160e01b600052603260045260246000fd5b634e487b7160e01b600052603160045260246000fd5b808201808211156104425761044261100956fea264697066735822122068944633dd40f8204ed0cc53d97e5ac9ee1384ec4c8579a737a889d9a063de7a64736f6c63430008160033",
  "linkReferences": {},
  "deployedLinkReferences": {}
}