{
  "_format": "hh-sol-artifact-1",
  "contractName": "StabilityPool",
  "sourceName": "contracts/core/StabilityPool.sol",
  "abi": [
    {
      "inputs": [
        {
          "internalType": "address",
          "name": "_vineCore",
          "type": "address"
        },
        {
          "internalType": "contract IDebtToken",
          "name": "_debtTokenAddress",
          "type": "address"
        },
        {
          "internalType": "address",
          "name": "_factory",
          "type": "address"
        }
      ],
      "stateMutability": "nonpayable",
      "type": "constructor"
    },
    {
      "inputs": [
        {
          "internalType": "address",
          "name": "target",
          "type": "address"
        }
      ],
      "name": "AddressEmptyCode",
      "type": "error"
    },
    {
      "inputs": [
        {
          "internalType": "address",
          "name": "account",
          "type": "address"
        }
      ],
      "name": "AddressInsufficientBalance",
      "type": "error"
    },
    {
      "inputs": [],
      "name": "FailedInnerCall",
      "type": "error"
    },
    {
      "inputs": [
        {
          "internalType": "address",
          "name": "token",
          "type": "address"
        }
      ],
      "name": "SafeERC20FailedOperation",
      "type": "error"
    },
    {
      "anonymous": false,
      "inputs": [
        {
          "indexed": true,
          "internalType": "address",
          "name": "_depositor",
          "type": "address"
        },
        {
          "indexed": false,
          "internalType": "uint256[]",
          "name": "_collateral",
          "type": "uint256[]"
        }
      ],
      "name": "CollateralGainWithdrawn",
      "type": "event"
    },
    {
      "anonymous": false,
      "inputs": [
        {
          "indexed": false,
          "internalType": "contract IERC20",
          "name": "oldCollateral",
          "type": "address"
        },
        {
          "indexed": false,
          "internalType": "contract IERC20",
          "name": "newCollateral",
          "type": "address"
        }
      ],
      "name": "CollateralOverwritten",
      "type": "event"
    },
    {
      "anonymous": false,
      "inputs": [
        {
          "indexed": true,
          "internalType": "address",
          "name": "_depositor",
          "type": "address"
        },
        {
          "indexed": false,
          "internalType": "uint256",
          "name": "_P",
          "type": "uint256"
        },
        {
          "indexed": false,
          "internalType": "uint256",
          "name": "_G",
          "type": "uint256"
        }
      ],
      "name": "DepositSnapshotUpdated",
      "type": "event"
    },
    {
      "anonymous": false,
      "inputs": [
        {
          "indexed": false,
          "internalType": "uint128",
          "name": "_currentEpoch",
          "type": "uint128"
        }
      ],
      "name": "EpochUpdated",
      "type": "event"
    },
    {
      "anonymous": false,
      "inputs": [
        {
          "indexed": false,
          "internalType": "uint256",
          "name": "_G",
          "type": "uint256"
        },
        {
          "indexed": false,
          "internalType": "uint128",
          "name": "_epoch",
          "type": "uint128"
        },
        {
          "indexed": false,
          "internalType": "uint128",
          "name": "_scale",
          "type": "uint128"
        }
      ],
      "name": "G_Updated",
      "type": "event"
    },
    {
      "anonymous": false,
      "inputs": [
        {
          "indexed": false,
          "internalType": "uint256",
          "name": "_P",
          "type": "uint256"
        }
      ],
      "name": "P_Updated",
      "type": "event"
    },
    {
      "anonymous": false,
      "inputs": [
        {
          "indexed": true,
          "internalType": "address",
          "name": "account",
          "type": "address"
        },
        {
          "indexed": true,
          "internalType": "address",
          "name": "recipient",
          "type": "address"
        },
        {
          "indexed": false,
          "internalType": "uint256",
          "name": "claimed",
          "type": "uint256"
        }
      ],
      "name": "RewardClaimed",
      "type": "event"
    },
    {
      "anonymous": false,
      "inputs": [
        {
          "indexed": false,
          "internalType": "uint256",
          "name": "idx",
          "type": "uint256"
        },
        {
          "indexed": false,
          "internalType": "uint256",
          "name": "_S",
          "type": "uint256"
        },
        {
          "indexed": false,
          "internalType": "uint128",
          "name": "_epoch",
          "type": "uint128"
        },
        {
          "indexed": false,
          "internalType": "uint128",
          "name": "_scale",
          "type": "uint128"
        }
      ],
      "name": "S_Updated",
      "type": "event"
    },
    {
      "anonymous": false,
      "inputs": [
        {
          "indexed": false,
          "internalType": "uint128",
          "name": "_currentScale",
          "type": "uint128"
        }
      ],
      "name": "ScaleUpdated",
      "type": "event"
    },
    {
      "anonymous": false,
      "inputs": [
        {
          "indexed": false,
          "internalType": "uint256",
          "name": "_newBalance",
          "type": "uint256"
        }
      ],
      "name": "StabilityPoolDebtBalanceUpdated",
      "type": "event"
    },
    {
      "anonymous": false,
      "inputs": [
        {
          "indexed": true,
          "internalType": "address",
          "name": "_depositor",
          "type": "address"
        },
        {
          "indexed": false,
          "internalType": "uint256",
          "name": "_newDeposit",
          "type": "uint256"
        }
      ],
      "name": "UserDepositChanged",
      "type": "event"
    },
    {
      "inputs": [],
      "name": "DECIMAL_PRECISION",
      "outputs": [
        {
          "internalType": "uint256",
          "name": "",
          "type": "uint256"
        }
      ],
      "stateMutability": "view",
      "type": "function"
    },
    {
      "inputs": [],
      "name": "P",
      "outputs": [
        {
          "internalType": "uint256",
          "name": "",
          "type": "uint256"
        }
      ],
      "stateMutability": "view",
      "type": "function"
    },
    {
      "inputs": [],
      "name": "SCALE_FACTOR",
      "outputs": [
        {
          "internalType": "uint256",
          "name": "",
          "type": "uint256"
        }
      ],
      "stateMutability": "view",
      "type": "function"
    },
    {
      "inputs": [],
      "name": "SUNSET_DURATION",
      "outputs": [
        {
          "internalType": "uint128",
          "name": "",
          "type": "uint128"
        }
      ],
      "stateMutability": "view",
      "type": "function"
    },
    {
      "inputs": [],
      "name": "VINE_CORE",
      "outputs": [
        {
          "internalType": "contract IVineCore",
          "name": "",
          "type": "address"
        }
      ],
      "stateMutability": "view",
      "type": "function"
    },
    {
      "inputs": [
        {
          "internalType": "address",
          "name": "",
          "type": "address"
        }
      ],
      "name": "accountDeposits",
      "outputs": [
        {
          "internalType": "uint128",
          "name": "amount",
          "type": "uint128"
        },
        {
          "internalType": "uint128",
          "name": "timestamp",
          "type": "uint128"
        }
      ],
      "stateMutability": "view",
      "type": "function"
    },
    {
      "inputs": [
        {
          "internalType": "address",
          "name": "recipient",
          "type": "address"
        },
        {
          "internalType": "uint256[]",
          "name": "collateralIndexes",
          "type": "uint256[]"
        }
      ],
      "name": "claimCollateralGains",
      "outputs": [],
      "stateMutability": "nonpayable",
      "type": "function"
    },
    {
      "inputs": [
        {
          "internalType": "address",
          "name": "recipient",
          "type": "address"
        }
      ],
      "name": "claimReward",
      "outputs": [
        {
          "internalType": "uint256",
          "name": "amount",
          "type": "uint256"
        }
      ],
      "stateMutability": "nonpayable",
      "type": "function"
    },
    {
      "inputs": [
        {
          "internalType": "address",
          "name": "_depositor",
          "type": "address"
        }
      ],
      "name": "claimableReward",
      "outputs": [
        {
          "internalType": "uint256",
          "name": "",
          "type": "uint256"
        }
      ],
      "stateMutability": "view",
      "type": "function"
    },
    {
      "inputs": [
        {
          "internalType": "address",
          "name": "depositor",
          "type": "address"
        },
        {
          "internalType": "uint256",
          "name": "",
          "type": "uint256"
        }
      ],
      "name": "collateralGainsByDepositor",
      "outputs": [
        {
          "internalType": "uint80",
          "name": "gains",
          "type": "uint80"
        }
      ],
      "stateMutability": "view",
      "type": "function"
    },
    {
      "inputs": [
        {
          "internalType": "uint256",
          "name": "",
          "type": "uint256"
        }
      ],
      "name": "collateralTokens",
      "outputs": [
        {
          "internalType": "contract IERC20",
          "name": "",
          "type": "address"
        }
      ],
      "stateMutability": "view",
      "type": "function"
    },
    {
      "inputs": [],
      "name": "currentEpoch",
      "outputs": [
        {
          "internalType": "uint128",
          "name": "",
          "type": "uint128"
        }
      ],
      "stateMutability": "view",
      "type": "function"
    },
    {
      "inputs": [],
      "name": "currentScale",
      "outputs": [
        {
          "internalType": "uint128",
          "name": "",
          "type": "uint128"
        }
      ],
      "stateMutability": "view",
      "type": "function"
    },
    {
      "inputs": [],
      "name": "debtToken",
      "outputs": [
        {
          "internalType": "contract IDebtToken",
          "name": "",
          "type": "address"
        }
      ],
      "stateMutability": "view",
      "type": "function"
    },
    {
      "inputs": [
        {
          "internalType": "address",
          "name": "",
          "type": "address"
        }
      ],
      "name": "depositSnapshots",
      "outputs": [
        {
          "internalType": "uint256",
          "name": "P",
          "type": "uint256"
        },
        {
          "internalType": "uint256",
          "name": "G",
          "type": "uint256"
        },
        {
          "internalType": "uint128",
          "name": "scale",
          "type": "uint128"
        },
        {
          "internalType": "uint128",
          "name": "epoch",
          "type": "uint128"
        }
      ],
      "stateMutability": "view",
      "type": "function"
    },
    {
      "inputs": [
        {
          "internalType": "address",
          "name": "",
          "type": "address"
        },
        {
          "internalType": "uint256",
          "name": "",
          "type": "uint256"
        }
      ],
      "name": "depositSums",
      "outputs": [
        {
          "internalType": "uint256",
          "name": "",
          "type": "uint256"
        }
      ],
      "stateMutability": "view",
      "type": "function"
    },
    {
      "inputs": [],
      "name": "emissionId",
      "outputs": [
        {
          "internalType": "uint256",
          "name": "",
          "type": "uint256"
        }
      ],
      "stateMutability": "view",
      "type": "function"
    },
    {
      "inputs": [
        {
          "internalType": "contract IERC20",
          "name": "_collateral",
          "type": "address"
        }
      ],
      "name": "enableCollateral",
      "outputs": [],
      "stateMutability": "nonpayable",
      "type": "function"
    },
    {
      "inputs": [
        {
          "internalType": "uint128",
          "name": "",
          "type": "uint128"
        },
        {
          "internalType": "uint128",
          "name": "",
          "type": "uint128"
        }
      ],
      "name": "epochToScaleToG",
      "outputs": [
        {
          "internalType": "uint256",
          "name": "",
          "type": "uint256"
        }
      ],
      "stateMutability": "view",
      "type": "function"
    },
    {
      "inputs": [
        {
          "internalType": "uint128",
          "name": "",
          "type": "uint128"
        },
        {
          "internalType": "uint128",
          "name": "",
          "type": "uint128"
        },
        {
          "internalType": "uint256",
          "name": "",
          "type": "uint256"
        }
      ],
      "name": "epochToScaleToSums",
      "outputs": [
        {
          "internalType": "uint256",
          "name": "",
          "type": "uint256"
        }
      ],
      "stateMutability": "view",
      "type": "function"
    },
    {
      "inputs": [],
      "name": "factory",
      "outputs": [
        {
          "internalType": "address",
          "name": "",
          "type": "address"
        }
      ],
      "stateMutability": "view",
      "type": "function"
    },
    {
      "inputs": [
        {
          "internalType": "address",
          "name": "_depositor",
          "type": "address"
        }
      ],
      "name": "getCompoundedDebtDeposit",
      "outputs": [
        {
          "internalType": "uint256",
          "name": "",
          "type": "uint256"
        }
      ],
      "stateMutability": "view",
      "type": "function"
    },
    {
      "inputs": [
        {
          "internalType": "address",
          "name": "_depositor",
          "type": "address"
        }
      ],
      "name": "getDepositorCollateralGain",
      "outputs": [
        {
          "internalType": "uint256[]",
          "name": "collateralGains",
          "type": "uint256[]"
        }
      ],
      "stateMutability": "view",
      "type": "function"
    },
    {
      "inputs": [],
      "name": "getTotalDebtTokenDeposits",
      "outputs": [
        {
          "internalType": "uint256",
          "name": "",
          "type": "uint256"
        }
      ],
      "stateMutability": "view",
      "type": "function"
    },
    {
      "inputs": [],
      "name": "getWeek",
      "outputs": [
        {
          "internalType": "uint256",
          "name": "week",
          "type": "uint256"
        }
      ],
      "stateMutability": "view",
      "type": "function"
    },
    {
      "inputs": [],
      "name": "guardian",
      "outputs": [
        {
          "internalType": "address",
          "name": "",
          "type": "address"
        }
      ],
      "stateMutability": "view",
      "type": "function"
    },
    {
      "inputs": [
        {
          "internalType": "contract IERC20",
          "name": "collateral",
          "type": "address"
        }
      ],
      "name": "indexByCollateral",
      "outputs": [
        {
          "internalType": "uint256",
          "name": "index",
          "type": "uint256"
        }
      ],
      "stateMutability": "view",
      "type": "function"
    },
    {
      "inputs": [
        {
          "internalType": "uint256",
          "name": "",
          "type": "uint256"
        }
      ],
      "name": "lastCollateralError_Offset",
      "outputs": [
        {
          "internalType": "uint256",
          "name": "",
          "type": "uint256"
        }
      ],
      "stateMutability": "view",
      "type": "function"
    },
    {
      "inputs": [],
      "name": "lastDebtLossError_Offset",
      "outputs": [
        {
          "internalType": "uint256",
          "name": "",
          "type": "uint256"
        }
      ],
      "stateMutability": "view",
      "type": "function"
    },
    {
      "inputs": [],
      "name": "lastUpdate",
      "outputs": [
        {
          "internalType": "uint32",
          "name": "",
          "type": "uint32"
        }
      ],
      "stateMutability": "view",
      "type": "function"
    },
    {
      "inputs": [],
      "name": "lastVineError",
      "outputs": [
        {
          "internalType": "uint256",
          "name": "",
          "type": "uint256"
        }
      ],
      "stateMutability": "view",
      "type": "function"
    },
    {
      "inputs": [],
      "name": "liquidationManager",
      "outputs": [
        {
          "internalType": "address",
          "name": "",
          "type": "address"
        }
      ],
      "stateMutability": "view",
      "type": "function"
    },
    {
      "inputs": [
        {
          "internalType": "contract IERC20",
          "name": "collateral",
          "type": "address"
        },
        {
          "internalType": "uint256",
          "name": "_debtToOffset",
          "type": "uint256"
        },
        {
          "internalType": "uint256",
          "name": "_collToAdd",
          "type": "uint256"
        }
      ],
      "name": "offset",
      "outputs": [],
      "stateMutability": "nonpayable",
      "type": "function"
    },
    {
      "inputs": [],
      "name": "owner",
      "outputs": [
        {
          "internalType": "address",
          "name": "",
          "type": "address"
        }
      ],
      "stateMutability": "view",
      "type": "function"
    },
    {
      "inputs": [],
      "name": "periodFinish",
      "outputs": [
        {
          "internalType": "uint32",
          "name": "",
          "type": "uint32"
        }
      ],
      "stateMutability": "view",
      "type": "function"
    },
    {
      "inputs": [
        {
          "internalType": "uint256",
          "name": "_amount",
          "type": "uint256"
        }
      ],
      "name": "provideToSP",
      "outputs": [],
      "stateMutability": "nonpayable",
      "type": "function"
    },
    {
      "inputs": [],
      "name": "rewardRate",
      "outputs": [
        {
          "internalType": "uint128",
          "name": "",
          "type": "uint128"
        }
      ],
      "stateMutability": "view",
      "type": "function"
    },
    {
      "inputs": [
        {
          "internalType": "contract IVineVault",
          "name": "_vault",
          "type": "address"
        },
        {
          "internalType": "address",
          "name": "_liquidationManager",
          "type": "address"
        }
      ],
      "name": "setInitialParameters",
      "outputs": [],
      "stateMutability": "nonpayable",
      "type": "function"
    },
    {
      "inputs": [
        {
          "internalType": "contract IERC20",
          "name": "collateral",
          "type": "address"
        }
      ],
      "name": "startCollateralSunset",
      "outputs": [],
      "stateMutability": "nonpayable",
      "type": "function"
    },
    {
      "inputs": [],
      "name": "vault",
      "outputs": [
        {
          "internalType": "contract IVineVault",
          "name": "",
          "type": "address"
        }
      ],
      "stateMutability": "view",
      "type": "function"
    },
    {
      "inputs": [
        {
          "internalType": "address",
          "name": "claimant",
          "type": "address"
        },
        {
          "internalType": "address",
          "name": "",
          "type": "address"
        }
      ],
      "name": "vaultClaimReward",
      "outputs": [
        {
          "internalType": "uint256",
          "name": "amount",
          "type": "uint256"
        }
      ],
      "stateMutability": "nonpayable",
      "type": "function"
    },
    {
      "inputs": [
        {
          "internalType": "uint256",
          "name": "_amount",
          "type": "uint256"
        }
      ],
      "name": "withdrawFromSP",
      "outputs": [],
      "stateMutability": "nonpayable",
      "type": "function"
    },
    {
      "stateMutability": "payable",
      "type": "receive"
    }
  ],
  "bytecode": "0x610100604052670de0b6b3a7640000600b553480156200001e57600080fd5b50604051620037f7380380620037f783398101604081905262000041916200011a565b6001600160a01b0383166080819052604080516378e9792560e01b815290518592916378e979259160048083019260209291908290030181865afa1580156200008e573d6000803e3d6000fd5b505050506040513d601f19601f82011682018060405250810190620000b491906200016e565b60a052506001600160a01b0380831660c052811660e052620000d860014262000188565b600260146101000a81548163ffffffff021916908363ffffffff160217905550505050620001b0565b6001600160a01b03811681146200011757600080fd5b50565b6000806000606084860312156200013057600080fd5b83516200013d8162000101565b6020850151909350620001508162000101565b6040850151909250620001638162000101565b809150509250925092565b6000602082840312156200018157600080fd5b5051919050565b81810381811115620001aa57634e487b7160e01b600052601160045260246000fd5b92915050565b60805160a05160c05160e0516135d5620002226000396000818161065a01526108530152600081816107c001528181610e6801526115e001526000818161170f0152611ec301526000818161046101528181610b1e015281816111cc0152818161147f015261174201526135d56000f3fe6080604052600436106101e55760003560e01c806309e2acb0146101f15780630d9a6b351461022457806311be0de5146102395780631500d2c31461025b578063172c48c71461029357806319f27b3b146102c05780631ef3a04c146102e05780632e54bf9514610300578063307d361214610320578063452a93201461034d57806347636371146103625780635383dfcb146103775780635e3078ec146103a457806376671808146103c457806378c77a24146103f85780637b0a47ee1461041857806381bafb311461043857806382d61d161461044f57806382e0a57414610483578063835dada0146104bb57806386da08241461051c578063874d6d811461057c5780638b8fbd92146105915780638da5cb5b146105a7578063a20baee6146105bc578063a4e59ac8146105d8578063a7528a03146105f8578063c04637111461060f578063c45a015514610648578063ce4b5bbe1461067c578063d03ef8ce14610694578063d279c191146106aa578063d5f195fe146106ca578063db03fdaa146106ea578063e66667331461070a578063e95034251461072a578063ebe2b12b1461074a578063eeb58d0b1461076e578063f05820381461078e578063f8d89898146107ae578063fa6657e7146107e2578063fbfa77cf1461080257600080fd5b366101ec57005b600080fd5b3480156101fd57600080fd5b5061021161020c3660046130bd565b610822565b6040519081526020015b60405180910390f35b34801561023057600080fd5b50600554610211565b34801561024557600080fd5b506102596102543660046130e9565b610848565b005b34801561026757600080fd5b5061027b6102763660046130bd565b610aaf565b6040516001600160501b03909116815260200161021b565b34801561029f57600080fd5b506102b36102ae366004613106565b610af2565b60405161021b919061311f565b3480156102cc57600080fd5b506102596102db3660046130e9565b610b1c565b3480156102ec57600080fd5b506001546102b3906001600160a01b031681565b34801561030c57600080fd5b5061025961031b366004613106565b610d33565b34801561032c57600080fd5b5061034061033b3660046130e9565b610f61565b60405161021b9190613133565b34801561035957600080fd5b506102b36111c8565b34801561036e57600080fd5b50610211600081565b34801561038357600080fd5b506102116103923660046130e9565b60036020526000908152604090205481565b3480156103b057600080fd5b506102596103bf366004613177565b611251565b3480156103d057600080fd5b50600c546103eb90600160801b90046001600160801b031681565b60405161021b91906131fe565b34801561040457600080fd5b50610259610413366004613106565b61147d565b34801561042457600080fd5b506002546103eb906001600160801b031681565b34801561044457600080fd5b506102116101105481565b34801561045b57600080fd5b506102b37f000000000000000000000000000000000000000000000000000000000000000081565b34801561048f57600080fd5b5061021161049e36600461322e565b600e60209081526000928352604080842090915290825290205481565b3480156104c757600080fd5b506104fc6104d63660046130e9565b6006602052600090815260409020546001600160801b0380821691600160801b90041682565b604080516001600160801b0393841681529290911660208301520161021b565b34801561052857600080fd5b5061056c6105373660046130e9565b6007602052600090815260409020805460018201546002909201549091906001600160801b0380821691600160801b90041684565b60405161021b9493929190613261565b34801561058857600080fd5b50610211611704565b34801561059d57600080fd5b50610211600b5481565b3480156105b357600080fd5b506102b361173e565b3480156105c857600080fd5b50610211670de0b6b3a764000081565b3480156105e457600080fd5b50600c546103eb906001600160801b031681565b34801561060457600080fd5b506103eb62ed4e0081565b34801561061b57600080fd5b5060025461063390600160801b900463ffffffff1681565b60405163ffffffff909116815260200161021b565b34801561065457600080fd5b506102b37f000000000000000000000000000000000000000000000000000000000000000081565b34801561068857600080fd5b50610211633b9aca0081565b3480156106a057600080fd5b50610211600f5481565b3480156106b657600080fd5b506102116106c53660046130e9565b61179e565b3480156106d657600080fd5b506102116106e53660046130e9565b61186f565b3480156106f657600080fd5b50610211610705366004613288565b61190b565b34801561071657600080fd5b506102596107253660046132c4565b61193e565b34801561073657600080fd5b506102116107453660046130e9565b611949565b34801561075657600080fd5b5060025461063390600160a01b900463ffffffff1681565b34801561077a57600080fd5b50610211610789366004613106565b611bfa565b34801561079a57600080fd5b506102116107a93660046132f9565b611c12565b3480156107ba57600080fd5b506102b37f000000000000000000000000000000000000000000000000000000000000000081565b3480156107ee57600080fd5b506102596107fd3660046132f9565b611c3c565b34801561080e57600080fd5b506000546102b3906001600160a01b031681565b600860205281600052604060002081610100811061083f57600080fd5b01549150829050565b336001600160a01b037f000000000000000000000000000000000000000000000000000000000000000016146108b35760405162461bcd60e51b815260206004820152600b60248201526a4e6f7420666163746f727960a81b60448201526064015b60405180910390fd5b6004546000805b8281101561090a57836001600160a01b0316600482815481106108df576108df613332565b6000918252602090912001546001600160a01b031603610902576001915061090a565b6001016108ba565b5080610a4a57604080518082019091526101125461ffff80821680845262010000909204166020830181905211156109ea57805161ffff16600090815261011160209081526040918290208251808401909352546001600160801b038082168452600160801b909104169082018190524211156109e85761011280546101119160009161ffff16908261099c8361335e565b82546101009290920a61ffff818102199093169183160217909155168152602081019190915260400160009081205580516109e19086906001600160801b0316611c94565b5050505050565b505b50600480546001810182557f8a35acfbc15ff81a39ae7d344fd709f28e8600b4aa8c65c6b64bfe7fe36bd19b0180546001600160a01b0319166001600160a01b038616908117909155905460009182526003602052604090912055505050565b6001600160a01b038316600090815260036020526040902054610aaa5760405162461bcd60e51b8152602060048201526018602482015277436f6c6c61746572616c2069732073756e73657474696e6760401b60448201526064016108aa565b505050565b6009602052816000526040600020816101008110610acc57600080fd5b60039182820401919006600a02915091509054906101000a90046001600160501b031681565b60048181548110610b0257600080fd5b6000918252602090912001546001600160a01b0316905081565b7f00000000000000000000000000000000000000000000000000000000000000006001600160a01b0316638da5cb5b6040518163ffffffff1660e01b8152600401602060405180830381865afa158015610b7a573d6000803e3d6000fd5b505050506040513d601f19601f82011682018060405250810190610b9e919061337f565b6001600160a01b0316336001600160a01b031614610beb5760405162461bcd60e51b815260206004820152600a60248201526927b7363c9037bbb732b960b11b60448201526064016108aa565b6001600160a01b038116600090815260036020526040902054610c505760405162461bcd60e51b815260206004820152601d60248201527f436f6c6c61746572616c20616c72656164792073756e73657474696e6700000060448201526064016108aa565b6040805180820182526001600160a01b0383166000908152600360205291909120548190610c809060019061339c565b6001600160801b03168152602001610c9b62ed4e00426133af565b6001600160801b0316905261011280546101119160009162010000900461ffff16906002610cc88361335e565b825461ffff9182166101009390930a928302928202191691909117909155168152602080820192909252604090810160009081208451948401516001600160801b03908116600160801b029516949094179093556001600160a01b0390931682526003905290812055565b336000908152600660205260409020546001600160801b0380821691600160801b90041681610dbd5760405162461bcd60e51b815260206004820152603060248201527f53746162696c697479506f6f6c3a2055736572206d757374206861766520612060448201526f1b9bdb8b5e995c9bc819195c1bdcda5d60821b60648201526084016108aa565b42816001600160801b031610610e155760405162461bcd60e51b815260206004820181905260248201527f214465706f73697420616e642077697468647261772073616d6520626c6f636b60448201526064016108aa565b610e1d611e98565b610e2633612034565b506000610e323361186f565b90506000610e408583612246565b9050610e4b3361225c565b8015610edc57604051631062c15f60e11b81526001600160a01b037f000000000000000000000000000000000000000000000000000000000000000016906320c582be90610ea1903090339086906004016133c2565b600060405180830381600087803b158015610ebb57600080fd5b505af1158015610ecf573d6000803e3d6000fd5b50505050610edc816122ae565b6000610ee8828461339c565b6040805180820182526001600160801b03808416825287811660208084019182523360008181526006909252949020925190518216600160801b029116179055909150610f3590826122eb565b6040518181523390600080516020613520833981519152906020015b60405180910390a2505050505050565b6004546060906001600160401b03811115610f7e57610f7e6133e6565b604051908082528060200260200182016040528015610fa7578160200160208202803683370190505b506001600160a01b038316600090815260076020526040812054919250819003610fd15750919050565b6001600160a01b0383166000908152600960209081526040808320600683528184205460078452828520600201546001600160801b03600160801b82048116808852600d808852868920938316808a52848952968920828a52975293969216949293929190816110428560016133fc565b6001600160801b03168152602080820192909252604090810160009081206001600160a01b038d16825260089093529081209192505b89518110156111ba578781610100811061109457611094613332565b60039182820401919006600a029054906101000a90046001600160501b03166001600160501b03168a82815181106110ce576110ce613332565b602002602001018181525050838161010081106110ed576110ed613332565b0154156111b25760008282610100811061110957611109613332565b01548583610100811061111e5761111e613332565b015461112a919061339c565b90506000633b9aca008584610100811061114657611146613332565b01546111529190613423565b9050670de0b6b3a76400008b61116883856133af565b611172908c613445565b61117c9190613423565b6111869190613423565b8c848151811061119857611198613332565b602002602001018181516111ac91906133af565b90525050505b600101611078565b505050505050505050919050565b60007f00000000000000000000000000000000000000000000000000000000000000006001600160a01b031663452a93206040518163ffffffff1660e01b8152600401602060405180830381865afa158015611228573d6000803e3d6000fd5b505050506040513d601f19601f8201168201806040525081019061124c919061337f565b905090565b61125a33612034565b5060045481906000906001600160401b0381111561127a5761127a6133e6565b6040519080825280602002602001820160405280156112a3578160200160208202803683370190505b503360009081526009602052604081209192505b838110156114435760008686838181106112d3576112d3613332565b9050602002013590506000838261010081106112f1576112f1613332565b60039182820401919006600a029054906101000a90046001600160501b03166001600160501b031690506000811115611439578085838151811061133757611337613332565b60200260200101818152505060008483610100811061135857611358613332565b60039182820401919006600a026101000a8154816001600160501b0302191690836001600160501b031602179055506004828154811061139a5761139a613332565b6000918252602090912001546001600160a01b031673eeeeeeeeeeeeeeeeeeeeeeeeeeeeeeeeeeeeeeee03611405576040516001600160a01b038a169082156108fc029083906000818181858888f193505050501580156113ff573d6000803e3d6000fd5b50611439565b61143989826004858154811061141d5761141d613332565b6000918252602090912001546001600160a01b031691906124a7565b50506001016112b7565b50336001600160a01b03167faecf5c2e84838a7ed87234d73965fc51f96b87b4c957f03bf22cfeb618c9aae183604051610f519190613133565b7f00000000000000000000000000000000000000000000000000000000000000006001600160a01b0316635c975abb6040518163ffffffff1660e01b8152600401602060405180830381865afa1580156114db573d6000803e3d6000fd5b505050506040513d601f19601f820116820180604052508101906114ff919061345c565b156115425760405162461bcd60e51b815260206004820152601360248201527211195c1bdcda5d1cc8185c99481c185d5cd959606a1b60448201526064016108aa565b600081116115a15760405162461bcd60e51b815260206004820152602660248201527f53746162696c697479506f6f6c3a20416d6f756e74206d757374206265206e6f6044820152656e2d7a65726f60d01b60648201526084016108aa565b6115a9611e98565b6115b233612034565b5060006115be3361186f565b90506115c93361225c565b60405163e75b3ae760e01b81526001600160a01b037f0000000000000000000000000000000000000000000000000000000000000000169063e75b3ae790611617903390869060040161347e565b600060405180830381600087803b15801561163157600080fd5b505af1158015611645573d6000803e3d6000fd5b5050505060008260055461165991906133af565b60058190556040518181529091506000805160206135608339815191529060200160405180910390a1600061168e84846133af565b6040805180820182526001600160801b03808416825242811660208084019182523360008181526006909252949020925190518216600160801b0291161790559091506116db90826122eb565b60405181815233906000805160206135208339815191529060200160405180910390a250505050565b600062093a806117347f00000000000000000000000000000000000000000000000000000000000000004261339c565b61124c9190613423565b60007f00000000000000000000000000000000000000000000000000000000000000006001600160a01b0316638da5cb5b6040518163ffffffff1660e01b8152600401602060405180830381865afa158015611228573d6000803e3d6000fd5b60006117a9336124ff565b9050801561182a576000546040516335e97f1f60e11b81526001600160a01b0390911690636bd2fe3e906117e5903390869086906004016133c2565b6020604051808303816000875af1158015611804573d6000803e3d6000fd5b505050506040513d601f19601f82011682018060405250810190611828919061345c565b505b6040518181526001600160a01b0383169033907f0aa4d283470c904c551d18bb894d37e17674920f3261a7f854be501e25f421b79060200160405180910390a3919050565b6001600160a01b0381166000908152600660205260408120546001600160801b03168082036118a15750600092915050565b6001600160a01b0383166000908152600760209081526040808320815160808101835281548152600182015493810193909352600201546001600160801b0380821692840192909252600160801b9004166060820152906119028383612652565b95945050505050565b600d60205282600052604060002060205281600052604060002081610100811061193457600080fd5b0154925083915050565b610aaa83838361273f565b6005546001600160a01b0382166000908152600660205260408120549091906001600160801b031681158061197c575080155b1561199f575050506001600160a01b03166000908152600a602052604090205490565b6000600f54670de0b6b3a76400006119b561282b565b6119bf9190613445565b6119c991906133af565b905060006119d78483613423565b90506000600b54826119e99190613445565b6001600160a01b0388166000908152600760209081526040808320815160808101835281548152600182015493810193909352600201546001600160801b03808216928401839052600160801b909104811660608401819052600c549596509294929391928291168303611af7576020808601516001600160801b038087166000908152600e84526040808220928816825291909352909120548791611a8e9161339c565b611a9891906133af565b6001600160801b0385166000908152600e60205260408120919350633b9aca009190611ac58660016133fc565b6001600160801b03166001600160801b0316815260200190815260200160002054611af09190613423565b9050611b93565b6020808601516001600160801b038087166000908152600e8452604080822092881682529190935290912054611b2d919061339c565b6001600160801b0385166000908152600e60205260408120919350633b9aca00918891611b5b8760016133fc565b6001600160801b03166001600160801b0316815260200190815260200160002054611b8691906133af565b611b909190613423565b90505b8451670de0b6b3a764000090611ba983856133af565b611bb3908c613445565b611bbd9190613423565b611bc79190613423565b6001600160a01b038d166000908152600a6020526040902054611bea91906133af565b9c9b505050505050505050505050565b6010816101008110611c0b57600080fd5b0154905081565b600080546001600160a01b03163314611c2a57600080fd5b611c33836124ff565b90505b92915050565b6001546001600160a01b0316158015611c5d57506001600160a01b03811615155b611c6657600080fd5b600080546001600160a01b039384166001600160a01b03199182161790915560018054929093169116179055565b6001600160a01b03821660009081526003602052604090205415611cf65760405162461bcd60e51b815260206004820152601960248201527810dbdb1b185d195c985b081b5d5cdd081899481cdd5b9cd95d603a1b60448201526064016108aa565b600454808210611d3a5760405162461bcd60e51b815260206004820152600f60248201526e496e64657820746f6f206c6172676560881b60448201526064016108aa565b600c546001600160801b03600160801b82048116911660005b82816001600160801b031611611dc25760005b82816001600160801b031611611db9576001600160801b038083166000908152600d602090815260408083209385168352929052908120876101008110611daf57611daf613332565b0155600101611d66565b50600101611d53565b50611dce8460016133af565b6001600160a01b038616600090815260036020526040902055600480547f9e147d339c63698deb55c3d0d44ed3eba29bac2a068a88c4bc5bde17d6331e19919086908110611e1e57611e1e613332565b60009182526020918290200154604080516001600160a01b039283168152918916928201929092520160405180910390a18460048581548110611e6357611e63613332565b9060005260206000200160006101000a8154816001600160a01b0302191690836001600160a01b031602179055505050505050565b611ea8611ea361282b565b612896565b600254600160a01b900463ffffffff16600062093a80611ee87f00000000000000000000000000000000000000000000000000000000000000008461339c565b611ef29190613423565b905080611efd611704565b10612012576000805460405163378cbf7560e01b8152600481018390526001600160a01b039091169063378cbf75906024016020604051808303816000875af1158015611f4e573d6000803e3d6000fd5b505050506040513d601f19601f82011682018060405250810190611f729190613497565b905080156120105782421015611fb5576000611f8e428561339c565b600254909150611fa7906001600160801b031682613445565b611fb190836133af565b9150505b611fc262093a8082613423565b600280546001600160801b0319166001600160801b0392909216919091179055611fef62093a80426133af565b600260146101000a81548163ffffffff021916908363ffffffff1602179055505b505b50506002805463ffffffff60801b1916600160801b4263ffffffff1602179055565b6001600160a01b03811660009081526009602090815260408083206004546006909352908320549091906001600160801b031680840361207657505050919050565b6001600160a01b0385166000908152600760209081526040808320600281015490546001600160801b03600160801b83048116808752600d808752858820929094168088528287529487208188529390955293949293909290816120db8660016133fc565b6001600160801b03168152602080820192909252604090810160009081206001600160a01b038e16825260089093529081209192505b88811015612237578381610100811061212c5761212c613332565b01541561222f5760019a5060008282610100811061214c5761214c613332565b01548583610100811061216157612161613332565b015461216d919061339c565b90506000633b9aca008584610100811061218957612189613332565b01546121959190613423565b9050670de0b6b3a7640000876121ab83856133af565b6121b5908d613445565b6121bf9190613423565b6121c99190613423565b8c8461010081106121dc576121dc613332565b60039182820401919006600a028282829054906101000a90046001600160501b031661220891906134b0565b92506101000a8154816001600160501b0302191690836001600160501b0316021790555050505b600101612111565b50505050505050505050919050565b60008183106122555781611c33565b5090919050565b600061226782612992565b6001600160a01b0383166000908152600a602052604090205490915061228e9082906133af565b6001600160a01b039092166000908152600a602052604090209190915550565b6000816005546122be919061339c565b60058190556040518181529091506000805160206135608339815191529060200160405180910390a15050565b60008160000361239757506001600160a01b038216600090815260076020526040812081815560018101829055600201819055600454905b8181101561235f576001600160a01b038416600090815260086020526040812082610100811061235557612355613332565b0155600101612323565b5060408051600080825260208201526001600160a01b03851691600080516020613540833981519152910160405180910390a2505050565b50600c54600b546001600160801b03600160801b80840482166000818152600d6020908152604080832095909716808352948152868220838352600e82528783208684528252878320546001600160a01b038b168452600790925296822086815560018101829055938302851760029094019390935560045495939491939192905b8681101561246a578281610100811061243457612434613332565b01546001600160a01b038a16600090815260086020526040902082610100811061246057612460613332565b0155600101612419565b5060408051848152602081018390526001600160a01b038a1691600080516020613540833981519152910160405180910390a25050505050505050565b610aaa83846001600160a01b031663a9059cbb85856040516024016124cd92919061347e565b604051602081830303815290604052915060e01b6020820180516001600160e01b038381831617835250505050612a2f565b6001600160a01b0381166000908152600660205260408120546001600160801b03168015612606576001600160a01b038316600090815260066020526040902054600160801b90046001600160801b0316612558611e98565b600061256385612034565b905060006125708661186f565b9050600061257e828661339c565b905061258987612992565b955060008111806125975750825b806125a25750600086115b15612601576040805180820182526001600160801b03808516825286811660208084019182526001600160a01b038c166000908152600690915293909320915192518116600160801b029216919091179055816125ff88826122eb565b505b505050505b6001600160a01b0383166000908152600a6020526040902054801561264b5761262f81846133af565b6001600160a01b0385166000908152600a602052604081205592505b5050919050565b805160408201516060830151600c546000939291906001600160801b03600160801b9091048116908216101561268e5760009350505050611c36565b600c5460009081906126aa9085906001600160801b03166134d0565b9050806001600160801b03166000036126dd5784600b54896126cc9190613445565b6126d69190613423565b9150612711565b806001600160801b031660010361270c57633b9aca0085600b548a6127029190613445565b6126cc9190613423565b600091505b61271f633b9aca0089613423565b82101561273457600095505050505050611c36565b509695505050505050565b6001546001600160a01b031633146127b25760405162461bcd60e51b815260206004820152603060248201527f53746162696c697479506f6f6c3a2043616c6c6572206973206e6f74204c697160448201526f3ab4b230ba34b7b71026b0b730b3b2b960811b60648201526084016108aa565b6001600160a01b0383166000908152600360205260409020546127d660018261339c565b6005549091508015806127e7575083155b156127f3575050505050565b6127fb611e98565b60008061280a85878587612a89565b91509150612819828286612b76565b612822866122ae565b50505050505050565b600254600090600160a01b900463ffffffff16428111156128495750425b600254600160801b900463ffffffff168181106128695760009250505090565b6000612875828461339c565b60025490915061288e906001600160801b031682613445565b935050505090565b6005548015806128a4575081155b156128ad575050565b60006128b98383612e6e565b600c54600b549192506001600160801b03600160801b82048116929116906000906128e49085613445565b6001600160801b038085166000908152600e602090815260408083209387168352929052908120549192509061291b9083906133af565b6001600160801b038581166000818152600e60209081526040808320948916808452948252918290208590558151858152908101929092528101919091529091507f2d6127771b164a9cc8827d24b5955db2a77e7a81dac389107ebb8bce9fb649689060600160405180910390a150505050505050565b6001600160a01b0381166000908152600660205260408120546001600160801b03168082036129c45750600092915050565b6001600160a01b038316600090815260076020908152604091829020825160808101845281548152600182015492810192909252600201546001600160801b0380821693830193909352600160801b90049091166060820152612a278282612ec1565b949350505050565b6000612a446001600160a01b03841683612fa5565b90508051600014158015612a69575080806020019051810190612a67919061345c565b155b15610aaa5782604051635274afe760e01b81526004016108aa919061311f565b60008060006010846101008110612aa257612aa2613332565b0154612ab6670de0b6b3a764000089613445565b612ac091906133af565b9050848603612adf57600061011055670de0b6b3a76400009150612b36565b61011054600090612af8670de0b6b3a764000089613445565b612b02919061339c565b9050612b0e8682613423565b612b199060016133af565b925080612b268785613445565b612b30919061339c565b61011055505b612b408582613423565b9250612b4c8584613445565b612b56908261339c565b6010856101008110612b6a57612b6a613332565b01555094509492505050565b600b54600080612b8e85670de0b6b3a764000061339c565b600c546001600160801b03600160801b820481166000818152600d60209081526040808320949095168083529390529283209394509092909190876101008110612bda57612bda613332565b015490506000612bea878b613445565b90506000612bf882846133af565b6001600160801b038086166000908152600d60209081526040808320938a1683529290522090915081908a6101008110612c3457612c34613332565b01556040517fe150473acddd94d1c6add794bd840c8d3e297dc3e50d863b56c0fba04d0d024790612c6c908b90849088908a90613261565b60405180910390a185600003612d2757612c878460016133fc565b600c80546001600160801b03908116600160801b938216840217918290556040517fb50f0f59e7cb5b421dc77581c3a9919e3806e076e5fa78a874c3f120cb7d874d93612cd89304909116906131fe565b60405180910390a1600c80546001600160801b031916905560405160008051602061358083398151915290612d0f906000906131fe565b60405180910390a1670de0b6b3a76400009650612df0565b633b9aca00670de0b6b3a7640000612d3f888b613445565b612d499190613423565b1015612dd057670de0b6b3a7640000633b9aca00612d67888b613445565b612d719190613445565b612d7b9190613423565b9650612d888560016133fc565b600c80546001600160801b0319166001600160801b0392909216918217905560405160008051602061358083398151915291612dc3916131fe565b60405180910390a1612df0565b670de0b6b3a7640000612de3878a613445565b612ded9190613423565b96505b60008711612e295760405162461bcd60e51b81526004016108aa9060208082526004908201526304e6577560e41b604082015260600190565b600b8790556040518781527fc1a9618cb59ebca77cbdbc2949f126823c407ff13edb285fd0262519a9c18e8c9060200160405180910390a15050505050505050505050565b600080600f54670de0b6b3a764000085612e889190613445565b612e9291906133af565b90506000612ea08483613423565b9050612eac8482613445565b612eb6908361339c565b600f55949350505050565b606081015160408083015160208085015185516001600160801b038087166000908152600e8552868120918616815293529382205491949390918590612f0890849061339c565b6001600160801b0386166000908152600e6020526040812091925090633b9aca009082612f368860016133fc565b6001600160801b03166001600160801b0316815260200190815260200160002054612f619190613423565b90506000670de0b6b3a764000084612f7984866133af565b612f83908d613445565b612f8d9190613423565b612f979190613423565b9a9950505050505050505050565b6060611c338383600084600080856001600160a01b03168486604051612fcb91906134f0565b60006040518083038185875af1925050503d8060008114613008576040519150601f19603f3d011682016040523d82523d6000602084013e61300d565b606091505b509150915061301d868383613029565b925050505b9392505050565b60608261303e576130398261307c565b613022565b815115801561305557506001600160a01b0384163b155b156130755783604051639996b31560e01b81526004016108aa919061311f565b5080613022565b80511561308c5780518082602001fd5b604051630a12f52160e11b815260040160405180910390fd5b50565b6001600160a01b03811681146130a557600080fd5b600080604083850312156130d057600080fd5b82356130db816130a8565b946020939093013593505050565b6000602082840312156130fb57600080fd5b8135613022816130a8565b60006020828403121561311857600080fd5b5035919050565b6001600160a01b0391909116815260200190565b6020808252825182820181905260009190848201906040850190845b8181101561316b5783518352928401929184019160010161314f565b50909695505050505050565b60008060006040848603121561318c57600080fd5b8335613197816130a8565b925060208401356001600160401b03808211156131b357600080fd5b818601915086601f8301126131c757600080fd5b8135818111156131d657600080fd5b8760208260051b85010111156131eb57600080fd5b6020830194508093505050509250925092565b6001600160801b0391909116815260200190565b80356001600160801b038116811461322957600080fd5b919050565b6000806040838503121561324157600080fd5b61324a83613212565b915061325860208401613212565b90509250929050565b93845260208401929092526001600160801b03908116604084015216606082015260800190565b60008060006060848603121561329d57600080fd5b6132a684613212565b92506132b460208501613212565b9150604084013590509250925092565b6000806000606084860312156132d957600080fd5b83356132e4816130a8565b95602085013595506040909401359392505050565b6000806040838503121561330c57600080fd5b8235613317816130a8565b91506020830135613327816130a8565b809150509250929050565b634e487b7160e01b600052603260045260246000fd5b634e487b7160e01b600052601160045260246000fd5b600061ffff80831681810361337557613375613348565b6001019392505050565b60006020828403121561339157600080fd5b8151613022816130a8565b81810381811115611c3657611c36613348565b80820180821115611c3657611c36613348565b6001600160a01b039384168152919092166020820152604081019190915260600190565b634e487b7160e01b600052604160045260246000fd5b6001600160801b0381811683821601908082111561341c5761341c613348565b5092915050565b60008261344057634e487b7160e01b600052601260045260246000fd5b500490565b8082028115828204841417611c3657611c36613348565b60006020828403121561346e57600080fd5b8151801515811461302257600080fd5b6001600160a01b03929092168252602082015260400190565b6000602082840312156134a957600080fd5b5051919050565b6001600160501b0381811683821601908082111561341c5761341c613348565b6001600160801b0382811682821603908082111561341c5761341c613348565b6000825160005b8181101561351157602081860181015185830152016134f7565b50600092019182525091905056febce78369dccab09eec1986f4d409ab09ffbb47d65423e5148fcf98411c5111c9c48943df4095f4f20d171fd2872eafdc0eed4d9014ac3672f3bde7fd425449d55c1eb83edfbe7709b9a63e8c7e294df8731e15bc212a85bf6e95cb906600bcbb1f9dfc70cd666adb18a39d60a797518f7b4febf4b6e24ef37d44f6e1e7219fbea26469706673582212200ccd1ceb876713e62c5af9432035461d851a07d892901f18453a4b423c917a0a64736f6c63430008160033",
  "linkReferences": {},
  "deployedLinkReferences": {}
}