{
  "_format": "hh-sol-artifact-1",
  "contractName": "TokenLocker",
  "sourceName": "contracts/dao/TokenLocker.sol",
  "abi": [
    {
      "inputs": [
        {
          "internalType": "address",
          "name": "_vineCore",
          "type": "address"
        },
        {
          "internalType": "contract IVineToken",
          "name": "_token",
          "type": "address"
        },
        {
          "internalType": "contract IIncentiveVoting",
          "name": "_voter",
          "type": "address"
        },
        {
          "internalType": "address",
          "name": "_manager",
          "type": "address"
        },
        {
          "internalType": "uint256",
          "name": "_lockToTokenRatio",
          "type": "uint256"
        }
      ],
      "stateMutability": "nonpayable",
      "type": "constructor"
    },
    {
      "anonymous": false,
      "inputs": [
        {
          "indexed": true,
          "internalType": "address",
          "name": "account",
          "type": "address"
        },
        {
          "indexed": false,
          "internalType": "uint256",
          "name": "amount",
          "type": "uint256"
        },
        {
          "indexed": false,
          "internalType": "uint256",
          "name": "_weeks",
          "type": "uint256"
        }
      ],
      "name": "LockCreated",
      "type": "event"
    },
    {
      "anonymous": false,
      "inputs": [
        {
          "indexed": true,
          "internalType": "address",
          "name": "account",
          "type": "address"
        },
        {
          "indexed": false,
          "internalType": "uint256",
          "name": "amount",
          "type": "uint256"
        },
        {
          "indexed": false,
          "internalType": "uint256",
          "name": "_weeks",
          "type": "uint256"
        },
        {
          "indexed": false,
          "internalType": "uint256",
          "name": "newWeeks",
          "type": "uint256"
        }
      ],
      "name": "LockExtended",
      "type": "event"
    },
    {
      "anonymous": false,
      "inputs": [
        {
          "indexed": true,
          "internalType": "address",
          "name": "account",
          "type": "address"
        },
        {
          "components": [
            {
              "internalType": "uint256",
              "name": "amount",
              "type": "uint256"
            },
            {
              "internalType": "uint256",
              "name": "weeksToUnlock",
              "type": "uint256"
            }
          ],
          "indexed": false,
          "internalType": "struct TokenLocker.LockData[]",
          "name": "newLocks",
          "type": "tuple[]"
        }
      ],
      "name": "LocksCreated",
      "type": "event"
    },
    {
      "anonymous": false,
      "inputs": [
        {
          "indexed": true,
          "internalType": "address",
          "name": "account",
          "type": "address"
        },
        {
          "components": [
            {
              "internalType": "uint256",
              "name": "amount",
              "type": "uint256"
            },
            {
              "internalType": "uint256",
              "name": "currentWeeks",
              "type": "uint256"
            },
            {
              "internalType": "uint256",
              "name": "newWeeks",
              "type": "uint256"
            }
          ],
          "indexed": false,
          "internalType": "struct TokenLocker.ExtendLockData[]",
          "name": "locks",
          "type": "tuple[]"
        }
      ],
      "name": "LocksExtended",
      "type": "event"
    },
    {
      "anonymous": false,
      "inputs": [
        {
          "indexed": true,
          "internalType": "address",
          "name": "account",
          "type": "address"
        },
        {
          "indexed": false,
          "internalType": "uint256",
          "name": "amount",
          "type": "uint256"
        }
      ],
      "name": "LocksFrozen",
      "type": "event"
    },
    {
      "anonymous": false,
      "inputs": [
        {
          "indexed": true,
          "internalType": "address",
          "name": "account",
          "type": "address"
        },
        {
          "indexed": false,
          "internalType": "uint256",
          "name": "amount",
          "type": "uint256"
        }
      ],
      "name": "LocksUnfrozen",
      "type": "event"
    },
    {
      "anonymous": false,
      "inputs": [
        {
          "indexed": true,
          "internalType": "address",
          "name": "account",
          "type": "address"
        },
        {
          "indexed": false,
          "internalType": "uint256",
          "name": "withdrawn",
          "type": "uint256"
        },
        {
          "indexed": false,
          "internalType": "uint256",
          "name": "penalty",
          "type": "uint256"
        }
      ],
      "name": "LocksWithdrawn",
      "type": "event"
    },
    {
      "inputs": [],
      "name": "MAX_LOCK_WEEKS",
      "outputs": [
        {
          "internalType": "uint256",
          "name": "",
          "type": "uint256"
        }
      ],
      "stateMutability": "view",
      "type": "function"
    },
    {
      "inputs": [],
      "name": "VINE_CORE",
      "outputs": [
        {
          "internalType": "contract IVineCore",
          "name": "",
          "type": "address"
        }
      ],
      "stateMutability": "view",
      "type": "function"
    },
    {
      "inputs": [],
      "name": "allowPenaltyWithdrawAfter",
      "outputs": [
        {
          "internalType": "uint256",
          "name": "",
          "type": "uint256"
        }
      ],
      "stateMutability": "view",
      "type": "function"
    },
    {
      "inputs": [],
      "name": "deploymentManager",
      "outputs": [
        {
          "internalType": "address",
          "name": "",
          "type": "address"
        }
      ],
      "stateMutability": "view",
      "type": "function"
    },
    {
      "inputs": [
        {
          "internalType": "uint256",
          "name": "_amount",
          "type": "uint256"
        },
        {
          "internalType": "uint256",
          "name": "_weeks",
          "type": "uint256"
        },
        {
          "internalType": "uint256",
          "name": "_newWeeks",
          "type": "uint256"
        }
      ],
      "name": "extendLock",
      "outputs": [
        {
          "internalType": "bool",
          "name": "",
          "type": "bool"
        }
      ],
      "stateMutability": "nonpayable",
      "type": "function"
    },
    {
      "inputs": [
        {
          "components": [
            {
              "internalType": "uint256",
              "name": "amount",
              "type": "uint256"
            },
            {
              "internalType": "uint256",
              "name": "currentWeeks",
              "type": "uint256"
            },
            {
              "internalType": "uint256",
              "name": "newWeeks",
              "type": "uint256"
            }
          ],
          "internalType": "struct TokenLocker.ExtendLockData[]",
          "name": "newExtendLocks",
          "type": "tuple[]"
        }
      ],
      "name": "extendMany",
      "outputs": [
        {
          "internalType": "bool",
          "name": "",
          "type": "bool"
        }
      ],
      "stateMutability": "nonpayable",
      "type": "function"
    },
    {
      "inputs": [],
      "name": "freeze",
      "outputs": [],
      "stateMutability": "nonpayable",
      "type": "function"
    },
    {
      "inputs": [
        {
          "internalType": "address",
          "name": "account",
          "type": "address"
        },
        {
          "internalType": "uint256",
          "name": "minWeeks",
          "type": "uint256"
        }
      ],
      "name": "getAccountActiveLocks",
      "outputs": [
        {
          "components": [
            {
              "internalType": "uint256",
              "name": "amount",
              "type": "uint256"
            },
            {
              "internalType": "uint256",
              "name": "weeksToUnlock",
              "type": "uint256"
            }
          ],
          "internalType": "struct TokenLocker.LockData[]",
          "name": "lockData",
          "type": "tuple[]"
        },
        {
          "internalType": "uint256",
          "name": "frozenAmount",
          "type": "uint256"
        }
      ],
      "stateMutability": "view",
      "type": "function"
    },
    {
      "inputs": [
        {
          "internalType": "address",
          "name": "account",
          "type": "address"
        }
      ],
      "name": "getAccountBalances",
      "outputs": [
        {
          "internalType": "uint256",
          "name": "locked",
          "type": "uint256"
        },
        {
          "internalType": "uint256",
          "name": "unlocked",
          "type": "uint256"
        }
      ],
      "stateMutability": "view",
      "type": "function"
    },
    {
      "inputs": [
        {
          "internalType": "address",
          "name": "account",
          "type": "address"
        }
      ],
      "name": "getAccountWeight",
      "outputs": [
        {
          "internalType": "uint256",
          "name": "",
          "type": "uint256"
        }
      ],
      "stateMutability": "view",
      "type": "function"
    },
    {
      "inputs": [
        {
          "internalType": "address",
          "name": "account",
          "type": "address"
        },
        {
          "internalType": "uint256",
          "name": "week",
          "type": "uint256"
        }
      ],
      "name": "getAccountWeightAt",
      "outputs": [
        {
          "internalType": "uint256",
          "name": "",
          "type": "uint256"
        }
      ],
      "stateMutability": "view",
      "type": "function"
    },
    {
      "inputs": [
        {
          "internalType": "address",
          "name": "account",
          "type": "address"
        }
      ],
      "name": "getAccountWeightWrite",
      "outputs": [
        {
          "internalType": "uint256",
          "name": "",
          "type": "uint256"
        }
      ],
      "stateMutability": "nonpayable",
      "type": "function"
    },
    {
      "inputs": [],
      "name": "getTotalWeight",
      "outputs": [
        {
          "internalType": "uint256",
          "name": "",
          "type": "uint256"
        }
      ],
      "stateMutability": "view",
      "type": "function"
    },
    {
      "inputs": [
        {
          "internalType": "uint256",
          "name": "week",
          "type": "uint256"
        }
      ],
      "name": "getTotalWeightAt",
      "outputs": [
        {
          "internalType": "uint256",
          "name": "",
          "type": "uint256"
        }
      ],
      "stateMutability": "view",
      "type": "function"
    },
    {
      "inputs": [],
      "name": "getTotalWeightWrite",
      "outputs": [
        {
          "internalType": "uint256",
          "name": "",
          "type": "uint256"
        }
      ],
      "stateMutability": "nonpayable",
      "type": "function"
    },
    {
      "inputs": [],
      "name": "getWeek",
      "outputs": [
        {
          "internalType": "uint256",
          "name": "week",
          "type": "uint256"
        }
      ],
      "stateMutability": "view",
      "type": "function"
    },
    {
      "inputs": [
        {
          "internalType": "address",
          "name": "account",
          "type": "address"
        },
        {
          "internalType": "uint256",
          "name": "amountToWithdraw",
          "type": "uint256"
        }
      ],
      "name": "getWithdrawWithPenaltyAmounts",
      "outputs": [
        {
          "internalType": "uint256",
          "name": "amountWithdrawn",
          "type": "uint256"
        },
        {
          "internalType": "uint256",
          "name": "penaltyAmountPaid",
          "type": "uint256"
        }
      ],
      "stateMutability": "view",
      "type": "function"
    },
    {
      "inputs": [],
      "name": "guardian",
      "outputs": [
        {
          "internalType": "address",
          "name": "",
          "type": "address"
        }
      ],
      "stateMutability": "view",
      "type": "function"
    },
    {
      "inputs": [],
      "name": "incentiveVoter",
      "outputs": [
        {
          "internalType": "contract IIncentiveVoting",
          "name": "",
          "type": "address"
        }
      ],
      "stateMutability": "view",
      "type": "function"
    },
    {
      "inputs": [
        {
          "internalType": "address",
          "name": "_account",
          "type": "address"
        },
        {
          "internalType": "uint256",
          "name": "_amount",
          "type": "uint256"
        },
        {
          "internalType": "uint256",
          "name": "_weeks",
          "type": "uint256"
        }
      ],
      "name": "lock",
      "outputs": [
        {
          "internalType": "bool",
          "name": "",
          "type": "bool"
        }
      ],
      "stateMutability": "nonpayable",
      "type": "function"
    },
    {
      "inputs": [
        {
          "internalType": "address",
          "name": "_account",
          "type": "address"
        },
        {
          "components": [
            {
              "internalType": "uint256",
              "name": "amount",
              "type": "uint256"
            },
            {
              "internalType": "uint256",
              "name": "weeksToUnlock",
              "type": "uint256"
            }
          ],
          "internalType": "struct TokenLocker.LockData[]",
          "name": "newLocks",
          "type": "tuple[]"
        }
      ],
      "name": "lockMany",
      "outputs": [
        {
          "internalType": "bool",
          "name": "",
          "type": "bool"
        }
      ],
      "stateMutability": "nonpayable",
      "type": "function"
    },
    {
      "inputs": [],
      "name": "lockToTokenRatio",
      "outputs": [
        {
          "internalType": "uint256",
          "name": "",
          "type": "uint256"
        }
      ],
      "stateMutability": "view",
      "type": "function"
    },
    {
      "inputs": [],
      "name": "lockToken",
      "outputs": [
        {
          "internalType": "contract IVineToken",
          "name": "",
          "type": "address"
        }
      ],
      "stateMutability": "view",
      "type": "function"
    },
    {
      "inputs": [],
      "name": "owner",
      "outputs": [
        {
          "internalType": "address",
          "name": "",
          "type": "address"
        }
      ],
      "stateMutability": "view",
      "type": "function"
    },
    {
      "inputs": [],
      "name": "penaltyWithdrawalsEnabled",
      "outputs": [
        {
          "internalType": "bool",
          "name": "",
          "type": "bool"
        }
      ],
      "stateMutability": "view",
      "type": "function"
    },
    {
      "inputs": [
        {
          "internalType": "uint256",
          "name": "_timestamp",
          "type": "uint256"
        }
      ],
      "name": "setAllowPenaltyWithdrawAfter",
      "outputs": [
        {
          "internalType": "bool",
          "name": "",
          "type": "bool"
        }
      ],
      "stateMutability": "nonpayable",
      "type": "function"
    },
    {
      "inputs": [
        {
          "internalType": "bool",
          "name": "_enabled",
          "type": "bool"
        }
      ],
      "name": "setPenaltyWithdrawalsEnabled",
      "outputs": [
        {
          "internalType": "bool",
          "name": "",
          "type": "bool"
        }
      ],
      "stateMutability": "nonpayable",
      "type": "function"
    },
    {
      "inputs": [],
      "name": "totalDecayRate",
      "outputs": [
        {
          "internalType": "uint32",
          "name": "",
          "type": "uint32"
        }
      ],
      "stateMutability": "view",
      "type": "function"
    },
    {
      "inputs": [],
      "name": "totalUpdatedWeek",
      "outputs": [
        {
          "internalType": "uint16",
          "name": "",
          "type": "uint16"
        }
      ],
      "stateMutability": "view",
      "type": "function"
    },
    {
      "inputs": [
        {
          "internalType": "bool",
          "name": "keepIncentivesVote",
          "type": "bool"
        }
      ],
      "name": "unfreeze",
      "outputs": [],
      "stateMutability": "nonpayable",
      "type": "function"
    },
    {
      "inputs": [],
      "name": "vineCore",
      "outputs": [
        {
          "internalType": "contract IVineCore",
          "name": "",
          "type": "address"
        }
      ],
      "stateMutability": "view",
      "type": "function"
    },
    {
      "inputs": [
        {
          "internalType": "uint256",
          "name": "_weeks",
          "type": "uint256"
        }
      ],
      "name": "withdrawExpiredLocks",
      "outputs": [
        {
          "internalType": "bool",
          "name": "",
          "type": "bool"
        }
      ],
      "stateMutability": "nonpayable",
      "type": "function"
    },
    {
      "inputs": [
        {
          "internalType": "uint256",
          "name": "amountToWithdraw",
          "type": "uint256"
        }
      ],
      "name": "withdrawWithPenalty",
      "outputs": [
        {
          "internalType": "uint256",
          "name": "",
          "type": "uint256"
        }
      ],
      "stateMutability": "nonpayable",
      "type": "function"
    }
  ],
  "bytecode": "0x6101606040523480156200001257600080fd5b506040516200490e3803806200490e8339810160408190526200003591620000f0565b6001600160a01b0385166080819052604080516378e9792560e01b815290518792916378e979259160048083019260209291908290030181865afa15801562000082573d6000803e3d6000fd5b505050506040513d601f19601f82011682018060405250810190620000a8919062000164565b60a052506001600160a01b0393841660e052918316610100529282166101205291166101405260c0526200017e565b6001600160a01b0381168114620000ed57600080fd5b50565b600080600080600060a086880312156200010957600080fd5b85516200011681620000d7565b60208701519095506200012981620000d7565b60408701519094506200013c81620000d7565b60608701519093506200014f81620000d7565b80925050608086015190509295509295909350565b6000602082840312156200017757600080fd5b5051919050565b60805160a05160c05160e051610100516101205161014051614655620002b9600039600081816102a60152610fa20152600081816102cd015261262b0152600081816103fd01528181610b890152611e2201526000818161037401528181610762015281816119bf01528181611d840152818161256a015281816125fc015261343e0152600081816103d60152818161078d015281816119ea01528181611caa01528181611cdd01528181611d1a01528181611f940152818161205001528181612091015281816120d2015281816121f201528181612282015281816123c90152818161243f01528181612faf01528181612fe2015281816130fb015281816131d40152818161321501526134690152600061275c01526000818161030701528181610da60152818161278f01526132bb01526146556000f3fe608060405234801561001057600080fd5b506004361061018b5760003560e01c806306aba0e11461019057806307f93a38146101ab57806312d02a98146101be57806317b45bb4146101e15780633ea01b3414610202578063446d530414610215578063452a93201461022a57806350735f6f1461023f578063508f28e51461025257806362a5af3b1461026557806367a5b10b1461026d5780636917e7fd1461028e5780636ca32a9e146102a15780637d733b2b146102c85780638064d268146102ef57806382d61d1614610302578063874d6d81146103295780638da5cb5b146103315780639e30c3ec14610339578063aac3751c14610341578063b3655bc314610354578063bafacab914610367578063bca7a9e21461036f578063bd06aadf14610396578063c373cb40146103a9578063c5438b1b146103d1578063c6cb63a2146103f8578063d922150b1461041f578063e2ab691d14610432578063e8db55d014610445578063fb390a4f14610452578063ff4819e11461045b578063ffe60d2a14610480575b600080fd5b610198610493565b6040519081526020015b60405180910390f35b6101986101b936600461405f565b6104a5565b6101d16101cc36600461408b565b6106b9565b60405190151581526020016101a2565b6101f46101ef36600461405f565b610850565b6040516101a29291906140a4565b6101986102103660046140fd565b610aed565b61022861022336600461412f565b610afb565b005b610232610da2565b6040516101a2919061414c565b61019861024d36600461408b565b610e26565b6101d161026036600461408b565b610f95565b6102286110a5565b61028061027b3660046140fd565b611488565b6040516101a2929190614160565b6101d161029c36600461416e565b611614565b6102327f000000000000000000000000000000000000000000000000000000000000000081565b6102327f000000000000000000000000000000000000000000000000000000000000000081565b6101986102fd36600461408b565b611be1565b6102327f000000000000000000000000000000000000000000000000000000000000000081565b610198612751565b61023261278b565b6101986127eb565b61019861034f3660046140fd565b612979565b6101d16103623660046141f5565b612984565b610198603481565b6102327f000000000000000000000000000000000000000000000000000000000000000081565b6102806103a436600461405f565b612f7a565b6002546103be90600160201b900461ffff1681565b60405161ffff90911681526020016101a2565b6101987f000000000000000000000000000000000000000000000000000000000000000081565b6102327f000000000000000000000000000000000000000000000000000000000000000081565b6101d161042d36600461412f565b6132b7565b6101d1610440366004614269565b6133e8565b6000546101d19060ff1681565b61019860015481565b60025461046b9063ffffffff1681565b60405163ffffffff90911681526020016101a2565b6101d161048e36600461429e565b6134f9565b60006104a061024d612751565b905090565b60006104af612751565b8211156104be575060006106b3565b6001600160a01b0383166000908152614aaf60209081526040808320614aae8352818420614ab090935292208054600160601b900461ffff1685811061054057828661ffff8110610511576105116142ca565b600691828204019190066005029054906101000a900464ffffffffff1664ffffffffff169450505050506106b3565b815463ffffffff166000848361ffff811061055d5761055d6142ca565b600691828204019190066005029054906101000a900464ffffffffff1664ffffffffff169050816000148061059f57508354600160401b900463ffffffff1615155b156105b15795506106b3945050505050565b60006105bf610100856142f6565b600186016105cf61010087614320565b61010081106105e0576105e06142ca565b0154901c90505b888410156106aa57836105f981614334565b94506106079050838361434d565b9150610615610100856142f6565b600003610646576001850161062c61010086614320565b610100811061063d5761063d6142ca565b0154905061064a565b60011c5b600181166001036106a5576000878561ffff811061066a5761066a6142ca565b60088104919091015460079091166004026101000a900463ffffffff169050610693818561434d565b9350836000036106a357506106aa565b505b6105e7565b50955050505050505b92915050565b60006106c4336139a3565b506106cd6127eb565b50336000908152614ab0602052604090208054600160201b900463ffffffff16806107345760405162461bcd60e51b81526020600482015260126024820152714e6f20756e6c6f636b656420746f6b656e7360701b60448201526064015b60405180910390fd5b815463ffffffff60201b19168255831561075857610753338286613ccc565b610846565b6001600160a01b037f00000000000000000000000000000000000000000000000000000000000000001663a9059cbb336107b27f000000000000000000000000000000000000000000000000000000000000000085614360565b6040518363ffffffff1660e01b81526004016107cf929190614377565b6020604051808303816000875af11580156107ee573d6000803e3d6000fd5b505050506040513d601f19601f820116820180604052508101906108129190614390565b50336001600160a01b031660008051602061460083398151915282600060405161083d929190614160565b60405180910390a25b5060019392505050565b6001600160a01b0382166000908152614ab0602052604081208054606092600160401b90910463ffffffff169190829003610ae4578360000361089257600193505b6001600160a01b0385166000908152614aaf60205260408120906108b4612751565b905060006108c287836143ad565b905060006108d16034846143ad565b6040805160348082526106a082019092529192506000919060208201610680803683370190505090506000610908610100856142f6565b6001880161091861010087614320565b6101008110610929576109296142ca565b0154901c905060005b8385116109c757600182166001036109705784838281518110610957576109576142ca565b60209081029190910101528061096c81614334565b9150505b8461097a81614334565b955061098a9050610100866142f6565b6000036109bb57600188016109a161010087614320565b61010081106109b2576109b26142ca565b01549150610932565b600182901c9150610932565b806001600160401b038111156109df576109df6143c0565b604051908082528060200260200182016040528015610a2457816020015b60408051808201909152600080825260208201528152602001906001900390816109fd5790505b5099508060005b8115610ada5781610a3b816143d6565b9250506000858381518110610a5257610a526142ca565b6020026020010151905060405180604001604052808b8361ffff8110610a7a57610a7a6142ca565b60088104919091015460079091166004026101000a900463ffffffff168152602001610aa68b8461434d565b8152508d8381518110610abb57610abb6142ca565b6020026020010181905250508080610ad290614334565b915050610a2b565b5050505050505050505b505b9250929050565b60006106b3826101b9612751565b336000908152614ab060209081526040808320614aaf9092529091208154600160401b900463ffffffff1680610b6c5760405162461bcd60e51b81526020600482015260166024820152752637b1b5b99030b63932b0b23c903ab7333937bd32b760511b604482015260640161072b565b6040516393101b4160e01b815233600482015284151560248201527f00000000000000000000000000000000000000000000000000000000000000006001600160a01b0316906393101b41906044016020604051808303816000875af1158015610bda573d6000803e3d6000fd5b505050506040513d601f19601f82011682018060405250810190610bfe9190614390565b50610c08336139a3565b50610c116127eb565b50600254610c2690829063ffffffff166143ad565b6002805463ffffffff92831663ffffffff1990911617905583546bffffffff00000000ffffffff19169082161783556000610c5f612751565b90506000610c6e6034836143ad565b905082848261ffff8110610c8457610c846142ca565b600891828204019190066004026101000a81548163ffffffff021916908363ffffffff16021790555082612aae8261ffff8110610cc357610cc36142ca565b600891828204019190066004028282829054906101000a900463ffffffff16610cec91906143ed565b92506101000a81548163ffffffff021916908363ffffffff160217905550600061010082610d1a9190614320565b90506000610d2a610100846142f6565b6001901b87600101836101008110610d4457610d446142ca565b01541790508087600101836101008110610d6057610d606142ca565b015560405185815233907f891e32b677b13f3c41e0facb731a92c347d3803878526d8c2dc27c7e1b1bb0e0906020015b60405180910390a25050505050505050565b60007f00000000000000000000000000000000000000000000000000000000000000006001600160a01b031663452a93206040518163ffffffff1660e01b8152600401602060405180830381865afa158015610e02573d6000803e3d6000fd5b505050506040513d601f19601f820116820180604052508101906104a0919061440a565b600080610e31612751565b905080831115610e445750600092915050565b600254600160201b900461ffff16808411610e9a5760038461ffff8110610e6d57610e6d6142ca565b600691828204019190066005029054906101000a900464ffffffffff1664ffffffffff1692505050919050565b60025463ffffffff90811690600090600390841661ffff8110610ebf57610ebf6142ca565b600691828204019190066005029054906101000a900464ffffffffff1690508163ffffffff1660001480610ef95750838363ffffffff1610155b15610f0e5764ffffffffff1695945050505050565b858363ffffffff161015610f855782610f2681614427565b9350610f3a905063ffffffff83168261444a565b9050612aae8363ffffffff1661ffff8110610f5757610f576142ca565b600891828204019190066004029054906101000a900463ffffffff1682610f7e9190614468565b9150610f0e565b64ffffffffff1695945050505050565b6000336001600160a01b037f000000000000000000000000000000000000000000000000000000000000000016146110045760405162461bcd60e51b815260206004820152601260248201527110b232b83637bcb6b2b73a26b0b730b3b2b960711b604482015260640161072b565b600154156110425760405162461bcd60e51b815260206004820152600b60248201526a105b1c9958591e481cd95d60aa1b604482015260640161072b565b428211801561105c5750611059426277f8806143ad565b82105b61109c5760405162461bcd60e51b81526020600482015260116024820152700496e76616c69642074696d657374616d7607c1b604482015260640161072b565b50600190815590565b336000818152614ab06020526040902054600160401b900463ffffffff16156110e05760405162461bcd60e51b815260040161072b90614485565b336000818152614ab060209081526040808320614aaf90925282209092909190611109906139a3565b905060006111156127eb565b845490915063ffffffff16806111615760405162461bcd60e51b81526020600482015260116024820152704e6f206c6f636b65642062616c616e636560781b604482015260640161072b565b60405181815233907fe73bbcb7cad3f5322631cb969cde59a71bf4c70aa914cf02f7f64b6a428e63269060200160405180910390a26002546111aa90829063ffffffff1661434d565b6002805463ffffffff92831663ffffffff19918216179091558654918316600160401b02166bffffffff00000000ffffffff1990911617855560006111ed612751565b90506111fa603483614360565b336000908152614aae602052604090208261ffff811061121c5761121c6142ca565b600691828204019190066005026101000a81548164ffffffffff021916908364ffffffffff1602179055506034826112549190614360565b61125e858561434d565b61126891906143ad565b60038261ffff811061127c5761127c6142ca565b600691828204019190066005026101000a81548164ffffffffff021916908364ffffffffff1602179055506000610100826112b791906142f6565b600188016112c761010085614320565b61010081106112d8576112d86142ca565b0154901c90505b821561145957816112ef81614334565b92506112ff9050610100836142f6565b600003611361576001870161131661010084614320565b6101008110611327576113276142ca565b01549050600060018089019061133f61010086614320565b611349919061434d565b610100811061135a5761135a6142ca565b0155611365565b60011c5b60018116600103611454576000868361ffff8110611385576113856142ca565b600891828204019190066004029054906101000a900463ffffffff1690506000878461ffff81106113b8576113b86142ca565b600891828204019190066004026101000a81548163ffffffff021916908363ffffffff16021790555080612aae8461ffff81106113f7576113f76142ca565b600891828204019190066004028282829054906101000a900463ffffffff166114209190614468565b92506101000a81548163ffffffff021916908363ffffffff1602179055508063ffffffff1684611450919061434d565b9350505b6112df565b60006001880161146b61010085614320565b610100811061147c5761147c6142ca565b01555050505050505050565b6001600160a01b0381166000908152614ab060205260408120805463ffffffff600160201b820481169291600160401b90041680156114cb578093505050915091565b815463ffffffff169350831561160d576001600160a01b0385166000908152614aaf6020526040812083549091600160601b90910461ffff169061150d612751565b9050600061151d610100846142f6565b6001870161152d61010086614320565b610100811061153e5761153e6142ca565b0154901c90505b81831015611608578261155781614334565b93506115679050610100846142f6565b600003611598576001860161157e61010085614320565b610100811061158f5761158f6142ca565b0154905061159c565b60011c5b60018116600103611603576000848461ffff81106115bc576115bc6142ca565b60088104919091015460079091166004026101000a900463ffffffff1690506115e5818a61434d565b98506115f181896143ad565b9750886000036116015750611608565b505b611545565b505050505b5050915091565b6001600160a01b0383166000908152614ab060205260408120548490600160401b900463ffffffff161561165a5760405162461bcd60e51b815260040161072b90614485565b6001600160a01b0385166000908152614ab060209081526040808320614aaf90925282209091611689886139a3565b90506000611695612751565b90506000604051806040016040528086600101610100856116b69190614320565b61010081106116c7576116c76142ca565b01548152602001600187016116de61010086614320565b6116e99060016143ad565b61010081106116fa576116fa6142ca565b01549052905060008089815b8181101561195c5760008d8d83818110611722576117226142ca565b90506040020160000135905060008e8e84818110611742576117426142ca565b9050604002016020013590506000821161176e5760405162461bcd60e51b815260040161072b906144ad565b6000811161178e5760405162461bcd60e51b815260040161072b906144dd565b60348111156117af5760405162461bcd60e51b815260040161072b90614501565b8060011480156117cd5750620546006117cb62093a80426142f6565b115b156117d6575060025b6117e082876143ad565b95506117ec8183614360565b6117f690866143ad565b94506000611804828a6143ad565b905060008b8261ffff811061181b5761181b6142ca565b60088104919091015460079091166004026101000a900463ffffffff16905061184484826143ad565b8c8361ffff8110611857576118576142ca565b600891828204019190066004026101000a81548163ffffffff021916908363ffffffff16021790555083612aae8361ffff8110611896576118966142ca565b600891828204019190066004028282829054906101000a900463ffffffff166118bf91906143ed565b92506101000a81548163ffffffff021916908363ffffffff1602179055508060000361194c5760006118f36101008c614320565b6118ff61010085614320565b611909919061434d565b9050611917610100846142f6565b6001901b8a826002811061192d5761192d6142ca565b6020020151178a8260028110611945576119456142ca565b6020020152505b5050600190920191506117069050565b5083516001890161196f61010088614320565b6101008110611980576119806142ca565b015560208401516001890161199761010088614320565b6119a29060016143ad565b61010081106119b3576119b36142ca565b01556001600160a01b037f000000000000000000000000000000000000000000000000000000000000000016637426df5b33611a0f7f000000000000000000000000000000000000000000000000000000000000000087614360565b6040518363ffffffff1660e01b8152600401611a2c929190614377565b6020604051808303816000875af1158015611a4b573d6000803e3d6000fd5b505050506040513d601f19601f82011682018060405250810190611a6f9190614390565b50611a7a82876143ad565b6001600160a01b038e166000908152614aae602052604090208661ffff8110611aa557611aa56142ca565b600691828204019190066005026101000a81548164ffffffffff021916908364ffffffffff16021790555081611ad96127eb565b611ae391906143ad565b60038661ffff8110611af757611af76142ca565b600691828204019190066005026101000a81548164ffffffffff021916908364ffffffffff160217905550828860000160009054906101000a900463ffffffff1663ffffffff16611b4891906143ad565b885463ffffffff191663ffffffff918216178955600254611b6b918591166143ad565b600260006101000a81548163ffffffff021916908363ffffffff1602179055508c6001600160a01b03167f07a2b70451dc196475e467c8fe427b0e097afcf8fd17b87ad483b4de622ebdf68d8d604051611bc6929190614531565b60405180910390a25060019c9b505050505050505050505050565b336000818152614ab06020526040812054909190600160401b900463ffffffff1615611c1f5760405162461bcd60e51b815260040161072b90614485565b60005460ff16611c715760405162461bcd60e51b815260206004820181905260248201527f50656e616c7479207769746864726177616c73206172652064697361626c6564604482015260640161072b565b336000818152614ab060209081526040808320614aaf90925282209092909190611c9a906139a3565b90506000198614611cd257611ccf7f000000000000000000000000000000000000000000000000000000000000000087614360565b95505b8254600090611d0f907f000000000000000000000000000000000000000000000000000000000000000090600160201b900463ffffffff16614360565b9050868110611e0b577f0000000000000000000000000000000000000000000000000000000000000000611d43888361434d565b611d4d9190614320565b845463ffffffff91909116600160201b0263ffffffff60201b1990911617845560405163a9059cbb60e01b81526001600160a01b037f0000000000000000000000000000000000000000000000000000000000000000169063a9059cbb90611dbb9033908b90600401614377565b6020604051808303816000875af1158015611dda573d6000803e3d6000fd5b505050506040513d601f19601f82011682018060405250810190611dfe9190614390565b508695505050505061274b565b604051630b500bcb60e21b81526001600160a01b037f00000000000000000000000000000000000000000000000000000000000000001690632d402f2c90611e5790339060040161414c565b6020604051808303816000875af1158015611e76573d6000803e3d6000fd5b505050506040513d601f19601f82011682018060405250810190611e9a9190614390565b50868115611ebd57611eac828261434d565b855463ffffffff60201b1916865590505b6000611ec7612751565b9050600060018701611edb61010084614320565b6101008110611eec57611eec6142ca565b0154905060008060015b603481101561233b5784611f0981614334565b9550611f199050610100866142f6565b600003611f775760006001808c0190611f3461010089614320565b611f3e919061434d565b6101008110611f4f57611f4f6142ca565b015560018a01611f6161010087614320565b6101008110611f7257611f726142ca565b015493505b6001611f85610100876142f6565b85901c166001036123335760007f00000000000000000000000000000000000000000000000000000000000000008a8761ffff8110611fc657611fc66142ca565b600891828204019190066004029054906101000a900463ffffffff1663ffffffff16611ff29190614360565b9050600060346120028484614360565b61200c9190614320565b905087612019828461434d565b11156121e0578761202b84603461434d565b61203660348b614360565b6120409190614320565b61204a919061434d565b905060007f00000000000000000000000000000000000000000000000000000000000000006120798a846143ad565b61208391906142f6565b905080156120c2576120b5817f000000000000000000000000000000000000000000000000000000000000000061434d565b6120bf90836143ad565b91505b6120cc82876143ad565b955060007f00000000000000000000000000000000000000000000000000000000000000006120fb8b856143ad565b6121059190614320565b90506121118582614360565b61211b90876143ad565b9550808d8a61ffff8110612131576121316142ca565b600891828204019190066004028282829054906101000a900463ffffffff1661215a9190614468565b92506101000a81548163ffffffff021916908363ffffffff16021790555080612aae8a61ffff811061218e5761218e6142ca565b600891828204019190066004028282829054906101000a900463ffffffff166121b79190614468565b92506101000a81548163ffffffff021916908363ffffffff160217905550600099505050612321565b6121ea81866143ad565b9450826122177f000000000000000000000000000000000000000000000000000000000000000084614320565b6122219190614360565b61222b90856143ad565b9350612239610100886142f6565b6001901b198616955060008b8861ffff8110612257576122576142ca565b600891828204019190066004026101000a81548163ffffffff021916908363ffffffff1602179055507f0000000000000000000000000000000000000000000000000000000000000000826122ac9190614320565b612aae8861ffff81106122c1576122c16142ca565b600891828204019190066004028282829054906101000a900463ffffffff166122ea9190614468565b92506101000a81548163ffffffff021916908363ffffffff1602179055508082612314919061434d565b61231e908961434d565b97505b8760000361233057505061233b565b50505b600101611ef6565b508260018a0161234d61010087614320565b610100811061235e5761235e6142ca565b015560018c0161237957612372858d61434d565b9b506123c7565b84156123c75760405162461bcd60e51b815260206004820152601f60248201527f496e73756666696369656e742062616c616e6365206166746572206665657300604482015260640161072b565b7f0000000000000000000000000000000000000000000000000000000000000000866123f3848f6143ad565b6123fd919061434d565b6124079190614320565b89548a9060009061241f90849063ffffffff16614468565b92506101000a81548163ffffffff021916908363ffffffff1602179055507f000000000000000000000000000000000000000000000000000000000000000086838e61246b91906143ad565b612475919061434d565b61247f9190614320565b6002805460009061249790849063ffffffff16614468565b92506101000a81548163ffffffff021916908363ffffffff1602179055506124bd612751565b93506124c9818861434d565b336000908152614aae602052604090208561ffff81106124eb576124eb6142ca565b600691828204019190066005026101000a81548164ffffffffff021916908364ffffffffff1602179055508061251f6127eb565b612529919061434d565b60038561ffff811061253d5761253d6142ca565b600691828204019190066005026101000a81548164ffffffffff021916908364ffffffffff1602179055507f00000000000000000000000000000000000000000000000000000000000000006001600160a01b031663a9059cbb338e6040518363ffffffff1660e01b81526004016125b6929190614377565b6020604051808303816000875af11580156125d5573d6000803e3d6000fd5b505050506040513d601f19601f820116820180604052508101906125f99190614390565b507f00000000000000000000000000000000000000000000000000000000000000006001600160a01b031663a9059cbb7f00000000000000000000000000000000000000000000000000000000000000006001600160a01b031663b3f006746040518163ffffffff1660e01b8152600401602060405180830381865afa158015612687573d6000803e3d6000fd5b505050506040513d601f19601f820116820180604052508101906126ab919061440a565b846040518363ffffffff1660e01b81526004016126c9929190614377565b6020604051808303816000875af11580156126e8573d6000803e3d6000fd5b505050506040513d601f19601f8201168201806040525081019061270c9190614390565b50336001600160a01b03166000805160206146008339815191528d84604051612736929190614160565b60405180910390a28b9a505050505050505050505b50919050565b600062093a806127817f00000000000000000000000000000000000000000000000000000000000000004261434d565b6104a09190614320565b60007f00000000000000000000000000000000000000000000000000000000000000006001600160a01b0316638da5cb5b6040518163ffffffff1660e01b8152600401602060405180830381865afa158015610e02573d6000803e3d6000fd5b6000806127f6612751565b60025490915063ffffffff81169061ffff600160201b90910481169060009060039083908110612828576128286142ca565b600691828204019190066005029054906101000a900464ffffffffff1690508064ffffffffff166000036128815750506002805461ffff909316600160201b0261ffff60201b1990931692909217909155506000919050565b838263ffffffff16101561293e578161289981614427565b92506128ad905063ffffffff84168261444a565b90508060038363ffffffff1661ffff81106128ca576128ca6142ca565b600691828204019190066005026101000a81548164ffffffffff021916908364ffffffffff160217905550612aae8263ffffffff1661ffff8110612910576129106142ca565b600891828204019190066004029054906101000a900463ffffffff16836129379190614468565b9250612881565b6002805461ffff909516600160201b0265ffffffffffff1990951663ffffffff90941693909317939093179091555064ffffffffff16919050565b60006106b3826139a3565b336000818152614ab06020526040812054909190600160401b900463ffffffff16156129c25760405162461bcd60e51b815260040161072b90614485565b336000818152614ab060209081526040808320614aaf909252822090929091906129eb906139a3565b905060006129f7612751565b9050600060405180604001604052808660010161010085612a189190614320565b6101008110612a2957612a296142ca565b0154815260200160018701612a4061010086614320565b612a4b9060016143ad565b6101008110612a5c57612a5c6142ca565b015490529050600088815b81811015612e225760008c8c83818110612a8357612a836142ca565b90506060020160000135905060008d8d84818110612aa357612aa36142ca565b90506060020160200135905060008e8e85818110612ac357612ac36142ca565b90506060020160400135905060008211612aef5760405162461bcd60e51b815260040161072b906144dd565b6034811115612b105760405162461bcd60e51b815260040161072b90614501565b808210612b2f5760405162461bcd60e51b815260040161072b90614578565b60008311612b4f5760405162461bcd60e51b815260040161072b906144ad565b82612b5a838361434d565b612b649190614360565b612b6e90876143ad565b9550612b7a88836143ad565b915060008a8361ffff8110612b9157612b916142ca565b60088104919091015460079091166004026101000a900463ffffffff169050612bba848261434d565b8b8461ffff8110612bcd57612bcd6142ca565b600891828204019190066004026101000a81548163ffffffff021916908363ffffffff16021790555083612aae8461ffff8110612c0c57612c0c6142ca565b600891828204019190066004028282829054906101000a900463ffffffff16612c359190614468565b92506101000a81548163ffffffff021916908363ffffffff160217905550838103612cc2576000612c686101008b614320565b612c7461010086614320565b612c7e919061434d565b9050612c8c610100856142f6565b6001901b19898260028110612ca357612ca36142ca565b602002015116898260028110612cbb57612cbb6142ca565b6020020152505b612ccc89836143ad565b91508a8261ffff8110612ce157612ce16142ca565b60088104919091015460079091166004026101000a900463ffffffff169050612d0a84826143ad565b8b8361ffff8110612d1d57612d1d6142ca565b600891828204019190066004026101000a81548163ffffffff021916908363ffffffff16021790555083612aae8361ffff8110612d5c57612d5c6142ca565b600891828204019190066004028282829054906101000a900463ffffffff16612d8591906143ed565b92506101000a81548163ffffffff021916908363ffffffff16021790555080600003612e12576000612db96101008b614320565b612dc561010085614320565b612dcf919061434d565b9050612ddd610100846142f6565b6001901b898260028110612df357612df36142ca565b602002015117898260028110612e0b57612e0b6142ca565b6020020152505b505060019092019150612a679050565b50825160018801612e3561010087614320565b6101008110612e4657612e466142ca565b0155602083015160018801612e5d61010087614320565b612e689060016143ad565b6101008110612e7957612e796142ca565b0155612e8582866143ad565b336000908152614aae602052604090208561ffff8110612ea757612ea76142ca565b600691828204019190066005026101000a81548164ffffffffff021916908364ffffffffff16021790555081612edb6127eb565b612ee591906143ad565b60038561ffff8110612ef957612ef96142ca565b600691828204019190066005026101000a81548164ffffffffff021916908364ffffffffff160217905550336001600160a01b03167fd3213c37a39d2b2bd91dc0e8c0a14448e5bf1169a66211502a814b2268653b7e8c8c604051612f5f9291906145bb565b60405180910390a260019850505050505050505b5092915050565b6001600160a01b0382166000908152614ab060209081526040808320614aaf90925282208291906000198514612fd757612fd47f000000000000000000000000000000000000000000000000000000000000000086614360565b94505b8154600090613014907f000000000000000000000000000000000000000000000000000000000000000090600160201b900463ffffffff16614360565b905085811061302c5785600094509450505050610ae6565b6000613038828861434d565b8454909150600090600160601b900461ffff1681613054612751565b90506000613062838361434d565b905060006001890161307661010086614320565b6101008110613087576130876142ca565b0154905060015b603481101561329957846130a181614334565b95506130b19050610100866142f6565b6000036130de5760018a016130c861010087614320565b61010081106130d9576130d96142ca565b015491505b60016130ec610100876142f6565b83901c166001036132915760007f00000000000000000000000000000000000000000000000000000000000000008a8761ffff811061312d5761312d6142ca565b600891828204019190066004029054906101000a900463ffffffff1663ffffffff166131599190614360565b9050600085871115613188576034613171868561434d565b61317b9084614360565b6131859190614320565b90505b88613193828461434d565b111561325c57886131a4868561434d565b6131af90603461434d565b6131ba60348c614360565b6131c49190614320565b6131ce919061434d565b905060007f00000000000000000000000000000000000000000000000000000000000000006131fd8b846143ad565b61320791906142f6565b9050801561324657613239817f000000000000000000000000000000000000000000000000000000000000000061434d565b61324390836143ad565b91505b613250828a6143ad565b9850600099505061327f565b61326681896143ad565b9750613272818361434d565b61327c908a61434d565b98505b8860000361328e575050613299565b50505b60010161308e565b506132a4868d61434d565b9d949c50939a5050505050505050505050565b60007f00000000000000000000000000000000000000000000000000000000000000006001600160a01b0316638da5cb5b6040518163ffffffff1660e01b8152600401602060405180830381865afa158015613317573d6000803e3d6000fd5b505050506040513d601f19601f8201168201806040525081019061333b919061440a565b6001600160a01b0316336001600160a01b0316146133885760405162461bcd60e51b815260206004820152600a60248201526927b7363c9037bbb732b960b11b604482015260640161072b565b600154801580159061339957508042115b6133d05760405162461bcd60e51b81526020600482015260086024820152674e6f74207965742160c01b604482015260640161072b565b50506000805460ff1916911515919091179055600190565b60008082116134095760405162461bcd60e51b815260040161072b906144dd565b600083116134295760405162461bcd60e51b815260040161072b906144ad565b613434848484613ccc565b6001600160a01b037f000000000000000000000000000000000000000000000000000000000000000016637426df5b3361348e7f000000000000000000000000000000000000000000000000000000000000000087614360565b6040518363ffffffff1660e01b81526004016134ab929190614377565b6020604051808303816000875af11580156134ca573d6000803e3d6000fd5b505050506040513d601f19601f820116820180604052508101906134ee9190614390565b506001949350505050565b336000818152614ab06020526040812054909190600160401b900463ffffffff16156135375760405162461bcd60e51b815260040161072b90614485565b600084116135575760405162461bcd60e51b815260040161072b906144dd565b60348311156135785760405162461bcd60e51b815260040161072b90614501565b8284106135975760405162461bcd60e51b815260040161072b90614578565b600085116135b75760405162461bcd60e51b815260040161072b906144ad565b336000908152614ab060205260408120906135d0612751565b90506000876135df888861434d565b6135e99190614360565b336000818152614aaf6020526040812092935090613606906139a3565b905061361283826143ad565b336000908152614aae602052604090208561ffff8110613634576136346142ca565b600691828204019190066005026101000a81548164ffffffffff021916908364ffffffffff1602179055506000898561366d91906143ad565b90506000838261ffff8110613684576136846142ca565b60088104919091015460079091166004026101000a900463ffffffff1690506136ad8c8261434d565b848361ffff81106136c0576136c06142ca565b600891828204019190066004026101000a81548163ffffffff021916908363ffffffff1602179055508b612aae8361ffff81106136ff576136ff6142ca565b600891828204019190066004028282829054906101000a900463ffffffff166137289190614468565b92506101000a81548163ffffffff021916908363ffffffff1602179055508b81036137a757600061375b61010084614320565b9050600061376b610100856142f6565b6001901b1989600101836101008110613786576137866142ca565b015416905080896001018361010081106137a2576137a26142ca565b015550505b6137b18a876143ad565b9150838261ffff81106137c6576137c66142ca565b60088104919091015460079091166004026101000a900463ffffffff1690506137ef8c826143ad565b848361ffff8110613802576138026142ca565b600891828204019190066004026101000a81548163ffffffff021916908363ffffffff1602179055508b612aae8361ffff8110613841576138416142ca565b600891828204019190066004028282829054906101000a900463ffffffff1661386a91906143ed565b92506101000a81548163ffffffff021916908363ffffffff160217905550806000036138e957600061389e61010084614320565b905060006138ae610100856142f6565b6001901b896001018361010081106138c8576138c86142ca565b015417905080896001018361010081106138e4576138e46142ca565b015550505b846138f26127eb565b6138fc91906143ad565b60038761ffff8110613910576139106142ca565b600691828204019190066005026101000a81548164ffffffffff021916908364ffffffffff160217905550336001600160a01b03167f2880f4fc08dec6bc3c61687b882e88598cb950c1dbff72d4a2d20223174215b48d8d8d604051613989939291909283526020830191909152604082015260600190565b60405180910390a25060019b9a5050505050505050505050565b6001600160a01b0381166000908152614ab060209081526040808320614aaf8352818420614aae909352908320909190836139dc612751565b845490915061ffff600160601b909104811690839082908110613a0157613a016142ca565b600691828204019190066005029054906101000a900464ffffffffff1664ffffffffff169550818103613a38575050505050919050565b8454600160401b900463ffffffff1615613acb575b80821115613aa65780613a5f81614334565b91505085838261ffff8110613a7657613a766142ca565b600691828204019190066005026101000a81548164ffffffffff021916908364ffffffffff160217905550613a4d565b50835461ffff909116600160601b0261ffff60601b1990911617909255509092915050565b845463ffffffff166000819003613b0b5782821015613afd57855461ffff60601b1916600160601b61ffff8516021786555b506000979650505050505050565b600080613b1a610100856142f6565b60018901613b2a61010087614320565b6101008110613b3b57613b3b6142ca565b0154901c90505b84841015613c5b5783613b5481614334565b9450613b629050838a61434d565b985088868561ffff8110613b7857613b786142ca565b600691828204019190066005026101000a81548164ffffffffff021916908364ffffffffff16021790555061010084613bb191906142f6565b600003613be25760018801613bc861010086614320565b6101008110613bd957613bd96142ca565b01549050613be6565b60011c5b60018116600103613c56576000878561ffff8110613c0657613c066142ca565b60088104919091015460079091166004026101000a900463ffffffff169050613c2f818561434d565b9350613c4163ffffffff8216846143ad565b925083600003613c545785945050613c5b565b505b613b42565b8754613c75908390600160201b900463ffffffff166143ad565b885461ffff909516600160601b0263ffffffff61ffff60601b011963ffffffff928316600160201b0216600165ffff0000000160401b03199096169590951793169290921792909217909555509395945050505050565b6034811115613ced5760405162461bcd60e51b815260040161072b90614501565b6001600160a01b0383166000908152614ab06020526040812090613d10856139a3565b90506000613d1c6127eb565b90506000613d28612751565b8454909150600160401b900463ffffffff168015613d7357613d4a87826143ad565b855463ffffffff91909116600160401b0263ffffffff60401b1990911617855560349550613f4d565b856001148015613d91575062054600613d8f62093a80426142f6565b115b15613d9b57600295505b8454613dae90889063ffffffff166143ad565b855463ffffffff191663ffffffff918216178655600254613dd1918991166143ad565b6002805463ffffffff191663ffffffff929092169190911790556001600160a01b0388166000908152614aaf6020526040812090613e0f88856143ad565b90506000828261ffff8110613e2657613e266142ca565b60088104919091015460079091166004026101000a900463ffffffff169050613e4f8a826143ad565b838361ffff8110613e6257613e626142ca565b600891828204019190066004026101000a81548163ffffffff021916908363ffffffff16021790555089612aae8361ffff8110613ea157613ea16142ca565b600891828204019190066004028282829054906101000a900463ffffffff16613eca91906143ed565b92506101000a81548163ffffffff021916908363ffffffff16021790555080600003613f49576000613efe61010084614320565b90506000613f0e610100856142f6565b6001901b8a600101836101008110613f2857613f286142ca565b0154179050808a600101836101008110613f4457613f446142ca565b015550505b5050505b613f578688614360565b613f6190856143ad565b6001600160a01b0389166000908152614aae602052604090208361ffff8110613f8c57613f8c6142ca565b600691828204019190066005026101000a81548164ffffffffff021916908364ffffffffff1602179055508587613fc39190614360565b613fcd90846143ad565b60038361ffff8110613fe157613fe16142ca565b600691828204019190066005026101000a81548164ffffffffff021916908364ffffffffff160217905550876001600160a01b03167f167357c41e38a45e1950f61b1f5accf902c878d83f1685f7f72fb666203ce0478888604051610d90929190614160565b6001600160a01b038116811461405c57600080fd5b50565b6000806040838503121561407257600080fd5b823561407d81614047565b946020939093013593505050565b60006020828403121561409d57600080fd5b5035919050565b60408082528351828201819052600091906020906060850190828801855b828110156140e7578151805185528501518585015292850192908401906001016140c2565b5050508093505050508260208301529392505050565b60006020828403121561410f57600080fd5b813561411a81614047565b9392505050565b801515811461405c57600080fd5b60006020828403121561414157600080fd5b813561411a81614121565b6001600160a01b0391909116815260200190565b918252602082015260400190565b60008060006040848603121561418357600080fd5b833561418e81614047565b925060208401356001600160401b03808211156141aa57600080fd5b818601915086601f8301126141be57600080fd5b8135818111156141cd57600080fd5b8760208260061b85010111156141e257600080fd5b6020830194508093505050509250925092565b6000806020838503121561420857600080fd5b82356001600160401b038082111561421f57600080fd5b818501915085601f83011261423357600080fd5b81358181111561424257600080fd5b86602060608302850101111561425757600080fd5b60209290920196919550909350505050565b60008060006060848603121561427e57600080fd5b833561428981614047565b95602085013595506040909401359392505050565b6000806000606084860312156142b357600080fd5b505081359360208301359350604090920135919050565b634e487b7160e01b600052603260045260246000fd5b634e487b7160e01b600052601260045260246000fd5b600082614305576143056142e0565b500690565b634e487b7160e01b600052601160045260246000fd5b60008261432f5761432f6142e0565b500490565b6000600182016143465761434661430a565b5060010190565b818103818111156106b3576106b361430a565b80820281158282048414176106b3576106b361430a565b6001600160a01b03929092168252602082015260400190565b6000602082840312156143a257600080fd5b815161411a81614121565b808201808211156106b3576106b361430a565b634e487b7160e01b600052604160045260246000fd5b6000816143e5576143e561430a565b506000190190565b63ffffffff818116838216019080821115612f7357612f7361430a565b60006020828403121561441c57600080fd5b815161411a81614047565b600063ffffffff8083168181036144405761444061430a565b6001019392505050565b64ffffffffff828116828216039080821115612f7357612f7361430a565b63ffffffff828116828216039080821115612f7357612f7361430a565b6020808252600e908201526d2637b1b59034b990333937bd32b760911b604082015260600190565b602080825260169082015275416d6f756e74206d757374206265206e6f6e7a65726f60501b604082015260600190565b6020808252600a90820152694d696e2031207765656b60b01b604082015260600190565b60208082526016908201527545786365656473204d41585f4c4f434b5f5745454b5360501b604082015260600190565b6020808252818101839052600090604080840186845b8781101561456b578135835284820135858401529183019190830190600101614547565b5090979650505050505050565b60208082526023908201527f6e65775765656b73206d7573742062652067726561746572207468616e207765604082015262656b7360e81b606082015260800190565b6020808252818101839052600090604080840186845b8781101561456b578135835284820135858401528382013584840152606092830192909101906001016145d156fe3dee403330631fb457dbb611d44e5abc933635841e5e65a403b794d26268ee78a26469706673582212207651559891053b882056d610024889e179ff4015d66ad0d62e9b8e092fc9f9b164736f6c63430008160033",
  "linkReferences": {},
  "deployedLinkReferences": {}
}