{
  "_format": "hh-sol-artifact-1",
  "contractName": "Factory",
  "sourceName": "contracts/core/Factory.sol",
  "abi": [
    {
      "inputs": [
        {
          "internalType": "address",
          "name": "_vineCore",
          "type": "address"
        },
        {
          "internalType": "contract IDebtToken",
          "name": "_debtToken",
          "type": "address"
        }
      ],
      "stateMutability": "nonpayable",
      "type": "constructor"
    },
    {
      "inputs": [],
      "name": "ERC1167FailedCreateClone",
      "type": "error"
    },
    {
      "anonymous": false,
      "inputs": [
        {
          "indexed": false,
          "internalType": "address",
          "name": "collateral",
          "type": "address"
        },
        {
          "indexed": false,
          "internalType": "address",
          "name": "priceFeed",
          "type": "address"
        },
        {
          "indexed": false,
          "internalType": "address",
          "name": "troveManager",
          "type": "address"
        },
        {
          "indexed": false,
          "internalType": "address",
          "name": "sortedTroves",
          "type": "address"
        }
      ],
      "name": "NewDeployment",
      "type": "event"
    },
    {
      "inputs": [],
      "name": "VINE_CORE",
      "outputs": [
        {
          "internalType": "contract IVineCore",
          "name": "",
          "type": "address"
        }
      ],
      "stateMutability": "view",
      "type": "function"
    },
    {
      "inputs": [],
      "name": "borrowerOperations",
      "outputs": [
        {
          "internalType": "contract IBorrowerOperations",
          "name": "",
          "type": "address"
        }
      ],
      "stateMutability": "view",
      "type": "function"
    },
    {
      "inputs": [],
      "name": "debtToken",
      "outputs": [
        {
          "internalType": "contract IDebtToken",
          "name": "",
          "type": "address"
        }
      ],
      "stateMutability": "view",
      "type": "function"
    },
    {
      "inputs": [
        {
          "internalType": "address",
          "name": "collateral",
          "type": "address"
        },
        {
          "internalType": "address",
          "name": "priceFeed",
          "type": "address"
        },
        {
          "internalType": "address",
          "name": "customTroveManagerImpl",
          "type": "address"
        },
        {
          "internalType": "address",
          "name": "customSortedTrovesImpl",
          "type": "address"
        },
        {
          "components": [
            {
              "internalType": "uint256",
              "name": "minuteDecayFactor",
              "type": "uint256"
            },
            {
              "internalType": "uint256",
              "name": "redemptionFeeFloor",
              "type": "uint256"
            },
            {
              "internalType": "uint256",
              "name": "maxRedemptionFee",
              "type": "uint256"
            },
            {
              "internalType": "uint256",
              "name": "borrowingFeeFloor",
              "type": "uint256"
            },
            {
              "internalType": "uint256",
              "name": "maxBorrowingFee",
              "type": "uint256"
            },
            {
              "internalType": "uint256",
              "name": "interestRateInBps",
              "type": "uint256"
            },
            {
              "internalType": "uint256",
              "name": "maxDebt",
              "type": "uint256"
            },
            {
              "internalType": "uint256",
              "name": "MCR",
              "type": "uint256"
            }
          ],
          "internalType": "struct Factory.DeploymentParams",
          "name": "params",
          "type": "tuple"
        }
      ],
      "name": "deployNewInstance",
      "outputs": [],
      "stateMutability": "nonpayable",
      "type": "function"
    },
    {
      "inputs": [],
      "name": "guardian",
      "outputs": [
        {
          "internalType": "address",
          "name": "",
          "type": "address"
        }
      ],
      "stateMutability": "view",
      "type": "function"
    },
    {
      "inputs": [],
      "name": "liquidationManager",
      "outputs": [
        {
          "internalType": "contract ILiquidationManager",
          "name": "",
          "type": "address"
        }
      ],
      "stateMutability": "view",
      "type": "function"
    },
    {
      "inputs": [],
      "name": "owner",
      "outputs": [
        {
          "internalType": "address",
          "name": "",
          "type": "address"
        }
      ],
      "stateMutability": "view",
      "type": "function"
    },
    {
      "inputs": [
        {
          "internalType": "address",
          "name": "_troveManagerImpl",
          "type": "address"
        },
        {
          "internalType": "address",
          "name": "_sortedTrovesImpl",
          "type": "address"
        }
      ],
      "name": "setImplementations",
      "outputs": [],
      "stateMutability": "nonpayable",
      "type": "function"
    },
    {
      "inputs": [
        {
          "internalType": "contract IStabilityPool",
          "name": "_stabilityPool",
          "type": "address"
        },
        {
          "internalType": "contract IBorrowerOperations",
          "name": "_borrowerOperations",
          "type": "address"
        },
        {
          "internalType": "address",
          "name": "_sortedTroves",
          "type": "address"
        },
        {
          "internalType": "address",
          "name": "_troveManager",
          "type": "address"
        },
        {
          "internalType": "contract ILiquidationManager",
          "name": "_liquidationManager",
          "type": "address"
        }
      ],
      "name": "setInitialParameters",
      "outputs": [],
      "stateMutability": "nonpayable",
      "type": "function"
    },
    {
      "inputs": [
        {
          "internalType": "address",
          "name": "_troveManager",
          "type": "address"
        },
        {
          "internalType": "bool",
          "name": "bol",
          "type": "bool"
        }
      ],
      "name": "setTroveManager",
      "outputs": [],
      "stateMutability": "nonpayable",
      "type": "function"
    },
    {
      "inputs": [],
      "name": "sortedTrovesImpl",
      "outputs": [
        {
          "internalType": "address",
          "name": "",
          "type": "address"
        }
      ],
      "stateMutability": "view",
      "type": "function"
    },
    {
      "inputs": [],
      "name": "stabilityPool",
      "outputs": [
        {
          "internalType": "contract IStabilityPool",
          "name": "",
          "type": "address"
        }
      ],
      "stateMutability": "view",
      "type": "function"
    },
    {
      "inputs": [],
      "name": "troveManagerCount",
      "outputs": [
        {
          "internalType": "uint256",
          "name": "",
          "type": "uint256"
        }
      ],
      "stateMutability": "view",
      "type": "function"
    },
    {
      "inputs": [],
      "name": "troveManagerImpl",
      "outputs": [
        {
          "internalType": "address",
          "name": "",
          "type": "address"
        }
      ],
      "stateMutability": "view",
      "type": "function"
    },
    {
      "inputs": [
        {
          "internalType": "uint256",
          "name": "",
          "type": "uint256"
        }
      ],
      "name": "troveManagers",
      "outputs": [
        {
          "internalType": "address",
          "name": "",
          "type": "address"
        }
      ],
      "stateMutability": "view",
      "type": "function"
    }
  ],
  "bytecode": "0x60c060405234801561001057600080fd5b50604051610fb6380380610fb683398101604081905261002f9161005e565b6001600160a01b039182166080521660a052610098565b6001600160a01b038116811461005b57600080fd5b50565b6000806040838503121561007157600080fd5b825161007c81610046565b602084015190925061008d81610046565b809150509250929050565b60805160a051610ec16100f5600039600081816101ed015281816106ec01528181610ade0152610b60015260008181610185015281816102c60152818161034d015281816108d1015281816109b30152610a110152610ec16000f3fe608060405234801561001057600080fd5b50600436106100c55760003560e01c80630277ab60146100ca578063048c661d146100df5780631ef3a04c146101085780633b7074781461011b57806344bb42051461012e578063452a932014610141578063679df0d91461014957806377553ad41461015a5780637891b6a51461016d57806382d61d161461018057806385bff341146101a75780638da5cb5b146101ba578063b0e493da146101c2578063e22136ae146101d5578063f8d89898146101e8575b600080fd5b6100dd6100d8366004610c21565b61020f565b005b6000546100f2906001600160a01b031681565b6040516100ff9190610c92565b60405180910390f35b6001546100f2906001600160a01b031681565b6100f2610129366004610ca6565b610298565b6003546100f2906001600160a01b031681565b6100f26102c2565b6005546040519081526020016100ff565b6002546100f2906001600160a01b031681565b6100dd61017b366004610cbf565b61034b565b6100f27f000000000000000000000000000000000000000000000000000000000000000081565b6100dd6101b5366004610dbe565b6108cf565b6100f26109af565b6100dd6101d0366004610df7565b610a0f565b6004546100f2906001600160a01b031681565b6100f27f000000000000000000000000000000000000000000000000000000000000000081565b6003546001600160a01b031615801561023057506001600160a01b03831615155b61023957600080fd5b600080546001600160a01b03199081166001600160a01b03978816179091556002805482169587169590951790945560038054851693861693909317909255600480548416918516919091179055600180549092169216919091179055565b600581815481106102a857600080fd5b6000918252602090912001546001600160a01b0316905081565b60007f00000000000000000000000000000000000000000000000000000000000000006001600160a01b031663452a93206040518163ffffffff1660e01b8152600401602060405180830381865afa158015610322573d6000803e3d6000fd5b505050506040513d601f19601f820116820180604052508101906103469190610e2a565b905090565b7f00000000000000000000000000000000000000000000000000000000000000006001600160a01b0316638da5cb5b6040518163ffffffff1660e01b8152600401602060405180830381865afa1580156103a9573d6000803e3d6000fd5b505050506040513d601f19601f820116820180604052508101906103cd9190610e2a565b6001600160a01b0316336001600160a01b0316146104065760405162461bcd60e51b81526004016103fd90610e4e565b60405180910390fd5b60006001600160a01b0384161561041d578361042a565b6004546001600160a01b03165b9050600061044f6001600160a01b0383166001600160601b031960608a901b16610b95565b600580546001810182556000919091527f036b6384b5eca791c62761152d0c79bb0604c104a5fb6f4eb0703f3154bb3db00180546001600160a01b0319166001600160a01b03838116919091179091559091508416156104af57836104bc565b6003546001600160a01b03165b915060006104e16001600160a01b0384166001600160601b0319606085901b16610b95565b604051630d8efe5960e21b81526001600160a01b03898116600483015280831660248301528a811660448301529192509083169063363bf96490606401600060405180830381600087803b15801561053857600080fd5b505af115801561054c573d6000803e3d6000fd5b50506040516381d3c43560e01b81526001600160a01b03841692506381d3c435915061057c908590600401610c92565b600060405180830381600087803b15801561059657600080fd5b505af11580156105aa573d6000803e3d6000fd5b50505050816001600160a01b0316630fdb11cf6040518163ffffffff1660e01b81526004016020604051808303816000875af11580156105ee573d6000803e3d6000fd5b505050506040513d601f19601f820116820180604052508101906106129190610e72565b506000546040516311be0de560e01b81526001600160a01b03909116906311be0de590610643908b90600401610c92565b600060405180830381600087803b15801561065d57600080fd5b505af1158015610671573d6000803e3d6000fd5b50506001546040516317dd676d60e01b81526001600160a01b0390911692506317dd676d91506106a5908590600401610c92565b600060405180830381600087803b1580156106bf57600080fd5b505af11580156106d3573d6000803e3d6000fd5b50506040516317dd676d60e01b81526001600160a01b037f00000000000000000000000000000000000000000000000000000000000000001692506317dd676d9150610723908590600401610c92565b600060405180830381600087803b15801561073d57600080fd5b505af1158015610751573d6000803e3d6000fd5b5050600254604051631de3171960e21b81526001600160a01b0386811660048301528c81166024830152909116925063778c5c649150604401600060405180830381600087803b1580156107a457600080fd5b505af11580156107b8573d6000803e3d6000fd5b50508551602087015160408089015160608a015160808b015160a08c015160c08d015160e08e015195516334ba3c7160e01b81526001600160a01b038d169a506334ba3c71995061083f98979690600401978852602088019690965260408701949094526060860192909252608085015260a084015260c083015260e08201526101000190565b600060405180830381600087803b15801561085957600080fd5b505af115801561086d573d6000803e3d6000fd5b5050604080516001600160a01b038c811682528b81166020830152868116828401528516606082015290517f49d89791026fa3ea04294a3105fde8a3c3d62de8ceeb5cf79f78098a1dd711aa9350908190036080019150a15050505050505050565b7f00000000000000000000000000000000000000000000000000000000000000006001600160a01b0316638da5cb5b6040518163ffffffff1660e01b8152600401602060405180830381865afa15801561092d573d6000803e3d6000fd5b505050506040513d601f19601f820116820180604052508101906109519190610e2a565b6001600160a01b0316336001600160a01b0316146109815760405162461bcd60e51b81526004016103fd90610e4e565b600480546001600160a01b039384166001600160a01b03199182161790915560038054929093169116179055565b60007f00000000000000000000000000000000000000000000000000000000000000006001600160a01b0316638da5cb5b6040518163ffffffff1660e01b8152600401602060405180830381865afa158015610322573d6000803e3d6000fd5b7f00000000000000000000000000000000000000000000000000000000000000006001600160a01b0316638da5cb5b6040518163ffffffff1660e01b8152600401602060405180830381865afa158015610a6d573d6000803e3d6000fd5b505050506040513d601f19601f82011682018060405250810190610a919190610e2a565b6001600160a01b0316336001600160a01b031614610ac15760405162461bcd60e51b81526004016103fd90610e4e565b8015610b49576040516317dd676d60e01b81526001600160a01b037f000000000000000000000000000000000000000000000000000000000000000016906317dd676d90610b13908590600401610c92565b600060405180830381600087803b158015610b2d57600080fd5b505af1158015610b41573d6000803e3d6000fd5b505050505050565b604051634b5c363360e11b81526001600160a01b037f000000000000000000000000000000000000000000000000000000000000000016906396b86c6690610b13908590600401610c92565b6000763d602d80600a3d3981f3363d3d373d3d3d363d730000008360601b60e81c176000526e5af43d82803e903d91602b57fd5bf38360781b1760205281603760096000f590506001600160a01b038116610c03576040516330be1a3d60e21b815260040160405180910390fd5b92915050565b6001600160a01b0381168114610c1e57600080fd5b50565b600080600080600060a08688031215610c3957600080fd5b8535610c4481610c09565b94506020860135610c5481610c09565b93506040860135610c6481610c09565b92506060860135610c7481610c09565b91506080860135610c8481610c09565b809150509295509295909350565b6001600160a01b0391909116815260200190565b600060208284031215610cb857600080fd5b5035919050565b6000806000806000858703610180811215610cd957600080fd5b8635610ce481610c09565b95506020870135610cf481610c09565b94506040870135610d0481610c09565b93506060870135610d1481610c09565b9250610100607f198201811315610d2a57600080fd5b60405191508082016001600160401b0381118382101715610d5b57634e487b7160e01b600052604160045260246000fd5b80604052506080880135825260a0880135602083015260c0880135604083015260e088013560608301528088013560808301525061012087013560a082015261014087013560c082015261016087013560e0820152809150509295509295909350565b60008060408385031215610dd157600080fd5b8235610ddc81610c09565b91506020830135610dec81610c09565b809150509250929050565b60008060408385031215610e0a57600080fd5b8235610e1581610c09565b915060208301358015158114610dec57600080fd5b600060208284031215610e3c57600080fd5b8151610e4781610c09565b9392505050565b6020808252600a908201526927b7363c9037bbb732b960b11b604082015260600190565b600060208284031215610e8457600080fd5b505191905056fea264697066735822122016210326384f190e719143fc9f64ade2e43f29f118522975792c1d05d29473ea64736f6c63430008160033",
  "linkReferences": {},
  "deployedLinkReferences": {}
}