{
  "_format": "hh-sol-artifact-1",
  "contractName": "BorrowerOperations",
  "sourceName": "contracts/core/BorrowerOperations.sol",
  "abi": [
    {
      "inputs": [
        {
          "internalType": "address",
          "name": "_vineCore",
          "type": "address"
        },
        {
          "internalType": "address",
          "name": "_debtTokenAddress",
          "type": "address"
        },
        {
          "internalType": "address",
          "name": "_factory",
          "type": "address"
        },
        {
          "internalType": "uint256",
          "name": "_minNetDebt",
          "type": "uint256"
        },
        {
          "internalType": "uint256",
          "name": "_gasCompensation",
          "type": "uint256"
        }
      ],
      "stateMutability": "nonpayable",
      "type": "constructor"
    },
    {
      "inputs": [
        {
          "internalType": "address",
          "name": "target",
          "type": "address"
        }
      ],
      "name": "AddressEmptyCode",
      "type": "error"
    },
    {
      "inputs": [
        {
          "internalType": "address",
          "name": "account",
          "type": "address"
        }
      ],
      "name": "AddressInsufficientBalance",
      "type": "error"
    },
    {
      "inputs": [],
      "name": "FailedInnerCall",
      "type": "error"
    },
    {
      "inputs": [
        {
          "internalType": "address",
          "name": "token",
          "type": "address"
        }
      ],
      "name": "SafeERC20FailedOperation",
      "type": "error"
    },
    {
      "anonymous": false,
      "inputs": [
        {
          "indexed": true,
          "internalType": "address",
          "name": "borrower",
          "type": "address"
        },
        {
          "indexed": false,
          "internalType": "contract IERC20",
          "name": "collateralToken",
          "type": "address"
        },
        {
          "indexed": false,
          "internalType": "uint256",
          "name": "amount",
          "type": "uint256"
        }
      ],
      "name": "BorrowingFeePaid",
      "type": "event"
    },
    {
      "anonymous": false,
      "inputs": [
        {
          "indexed": false,
          "internalType": "contract ITroveManager",
          "name": "troveManager",
          "type": "address"
        },
        {
          "indexed": false,
          "internalType": "contract IERC20",
          "name": "collateralToken",
          "type": "address"
        }
      ],
      "name": "CollateralConfigured",
      "type": "event"
    },
    {
      "anonymous": false,
      "inputs": [
        {
          "indexed": true,
          "internalType": "address",
          "name": "caller",
          "type": "address"
        },
        {
          "indexed": true,
          "internalType": "address",
          "name": "delegate",
          "type": "address"
        },
        {
          "indexed": false,
          "internalType": "bool",
          "name": "isApproved",
          "type": "bool"
        }
      ],
      "name": "DelegateApprovalSet",
      "type": "event"
    },
    {
      "anonymous": false,
      "inputs": [
        {
          "indexed": false,
          "internalType": "contract ITroveManager",
          "name": "troveManager",
          "type": "address"
        }
      ],
      "name": "TroveManagerRemoved",
      "type": "event"
    },
    {
      "inputs": [],
      "name": "CCR",
      "outputs": [
        {
          "internalType": "uint256",
          "name": "",
          "type": "uint256"
        }
      ],
      "stateMutability": "view",
      "type": "function"
    },
    {
      "inputs": [],
      "name": "DEBT_GAS_COMPENSATION",
      "outputs": [
        {
          "internalType": "uint256",
          "name": "",
          "type": "uint256"
        }
      ],
      "stateMutability": "view",
      "type": "function"
    },
    {
      "inputs": [],
      "name": "DECIMAL_PRECISION",
      "outputs": [
        {
          "internalType": "uint256",
          "name": "",
          "type": "uint256"
        }
      ],
      "stateMutability": "view",
      "type": "function"
    },
    {
      "inputs": [],
      "name": "PERCENT_DIVISOR",
      "outputs": [
        {
          "internalType": "uint256",
          "name": "",
          "type": "uint256"
        }
      ],
      "stateMutability": "view",
      "type": "function"
    },
    {
      "inputs": [],
      "name": "ROSE",
      "outputs": [
        {
          "internalType": "address",
          "name": "",
          "type": "address"
        }
      ],
      "stateMutability": "view",
      "type": "function"
    },
    {
      "inputs": [],
      "name": "VINE_CORE",
      "outputs": [
        {
          "internalType": "contract IVineCore",
          "name": "",
          "type": "address"
        }
      ],
      "stateMutability": "view",
      "type": "function"
    },
    {
      "inputs": [
        {
          "internalType": "contract ITroveManager",
          "name": "troveManager",
          "type": "address"
        },
        {
          "internalType": "address",
          "name": "account",
          "type": "address"
        },
        {
          "internalType": "uint256",
          "name": "_collateralAmount",
          "type": "uint256"
        },
        {
          "internalType": "address",
          "name": "_upperHint",
          "type": "address"
        },
        {
          "internalType": "address",
          "name": "_lowerHint",
          "type": "address"
        }
      ],
      "name": "addColl",
      "outputs": [],
      "stateMutability": "payable",
      "type": "function"
    },
    {
      "inputs": [
        {
          "internalType": "contract ITroveManager",
          "name": "troveManager",
          "type": "address"
        },
        {
          "internalType": "address",
          "name": "account",
          "type": "address"
        },
        {
          "internalType": "uint256",
          "name": "_maxFeePercentage",
          "type": "uint256"
        },
        {
          "internalType": "uint256",
          "name": "_collDeposit",
          "type": "uint256"
        },
        {
          "internalType": "uint256",
          "name": "_collWithdrawal",
          "type": "uint256"
        },
        {
          "internalType": "uint256",
          "name": "_debtChange",
          "type": "uint256"
        },
        {
          "internalType": "bool",
          "name": "_isDebtIncrease",
          "type": "bool"
        },
        {
          "internalType": "address",
          "name": "_upperHint",
          "type": "address"
        },
        {
          "internalType": "address",
          "name": "_lowerHint",
          "type": "address"
        }
      ],
      "name": "adjustTrove",
      "outputs": [],
      "stateMutability": "payable",
      "type": "function"
    },
    {
      "inputs": [
        {
          "internalType": "uint256",
          "name": "TCR",
          "type": "uint256"
        }
      ],
      "name": "checkRecoveryMode",
      "outputs": [
        {
          "internalType": "bool",
          "name": "",
          "type": "bool"
        }
      ],
      "stateMutability": "pure",
      "type": "function"
    },
    {
      "inputs": [
        {
          "internalType": "contract ITroveManager",
          "name": "troveManager",
          "type": "address"
        },
        {
          "internalType": "address",
          "name": "account",
          "type": "address"
        }
      ],
      "name": "closeTrove",
      "outputs": [],
      "stateMutability": "nonpayable",
      "type": "function"
    },
    {
      "inputs": [
        {
          "internalType": "contract ITroveManager",
          "name": "troveManager",
          "type": "address"
        },
        {
          "internalType": "contract IERC20",
          "name": "collateralToken",
          "type": "address"
        }
      ],
      "name": "configureCollateral",
      "outputs": [],
      "stateMutability": "nonpayable",
      "type": "function"
    },
    {
      "inputs": [],
      "name": "debtToken",
      "outputs": [
        {
          "internalType": "contract IDebtToken",
          "name": "",
          "type": "address"
        }
      ],
      "stateMutability": "view",
      "type": "function"
    },
    {
      "inputs": [],
      "name": "factory",
      "outputs": [
        {
          "internalType": "address",
          "name": "",
          "type": "address"
        }
      ],
      "stateMutability": "view",
      "type": "function"
    },
    {
      "inputs": [],
      "name": "fetchBalances",
      "outputs": [
        {
          "components": [
            {
              "internalType": "uint256[]",
              "name": "collaterals",
              "type": "uint256[]"
            },
            {
              "internalType": "uint256[]",
              "name": "debts",
              "type": "uint256[]"
            },
            {
              "internalType": "uint256[]",
              "name": "prices",
              "type": "uint256[]"
            }
          ],
          "internalType": "struct BorrowerOperations.SystemBalances",
          "name": "balances",
          "type": "tuple"
        }
      ],
      "stateMutability": "nonpayable",
      "type": "function"
    },
    {
      "inputs": [
        {
          "internalType": "uint256",
          "name": "_debt",
          "type": "uint256"
        }
      ],
      "name": "getCompositeDebt",
      "outputs": [
        {
          "internalType": "uint256",
          "name": "",
          "type": "uint256"
        }
      ],
      "stateMutability": "view",
      "type": "function"
    },
    {
      "inputs": [],
      "name": "getGlobalSystemBalances",
      "outputs": [
        {
          "internalType": "uint256",
          "name": "totalPricedCollateral",
          "type": "uint256"
        },
        {
          "internalType": "uint256",
          "name": "totalDebt",
          "type": "uint256"
        }
      ],
      "stateMutability": "nonpayable",
      "type": "function"
    },
    {
      "inputs": [],
      "name": "getTCR",
      "outputs": [
        {
          "internalType": "uint256",
          "name": "globalTotalCollateralRatio",
          "type": "uint256"
        }
      ],
      "stateMutability": "nonpayable",
      "type": "function"
    },
    {
      "inputs": [],
      "name": "guardian",
      "outputs": [
        {
          "internalType": "address",
          "name": "",
          "type": "address"
        }
      ],
      "stateMutability": "view",
      "type": "function"
    },
    {
      "inputs": [
        {
          "internalType": "address",
          "name": "owner",
          "type": "address"
        },
        {
          "internalType": "address",
          "name": "caller",
          "type": "address"
        }
      ],
      "name": "isApprovedDelegate",
      "outputs": [
        {
          "internalType": "bool",
          "name": "isApproved",
          "type": "bool"
        }
      ],
      "stateMutability": "view",
      "type": "function"
    },
    {
      "inputs": [],
      "name": "minNetDebt",
      "outputs": [
        {
          "internalType": "uint256",
          "name": "",
          "type": "uint256"
        }
      ],
      "stateMutability": "view",
      "type": "function"
    },
    {
      "inputs": [
        {
          "internalType": "contract ITroveManager",
          "name": "troveManager",
          "type": "address"
        },
        {
          "internalType": "address",
          "name": "account",
          "type": "address"
        },
        {
          "internalType": "uint256",
          "name": "_maxFeePercentage",
          "type": "uint256"
        },
        {
          "internalType": "uint256",
          "name": "_collateralAmount",
          "type": "uint256"
        },
        {
          "internalType": "uint256",
          "name": "_debtAmount",
          "type": "uint256"
        },
        {
          "internalType": "address",
          "name": "_upperHint",
          "type": "address"
        },
        {
          "internalType": "address",
          "name": "_lowerHint",
          "type": "address"
        }
      ],
      "name": "openTrove",
      "outputs": [],
      "stateMutability": "payable",
      "type": "function"
    },
    {
      "inputs": [],
      "name": "owner",
      "outputs": [
        {
          "internalType": "address",
          "name": "",
          "type": "address"
        }
      ],
      "stateMutability": "view",
      "type": "function"
    },
    {
      "inputs": [
        {
          "internalType": "contract ITroveManager",
          "name": "troveManager",
          "type": "address"
        }
      ],
      "name": "removeTroveManager",
      "outputs": [],
      "stateMutability": "nonpayable",
      "type": "function"
    },
    {
      "inputs": [
        {
          "internalType": "contract ITroveManager",
          "name": "troveManager",
          "type": "address"
        },
        {
          "internalType": "address",
          "name": "account",
          "type": "address"
        },
        {
          "internalType": "uint256",
          "name": "_debtAmount",
          "type": "uint256"
        },
        {
          "internalType": "address",
          "name": "_upperHint",
          "type": "address"
        },
        {
          "internalType": "address",
          "name": "_lowerHint",
          "type": "address"
        }
      ],
      "name": "repayDebt",
      "outputs": [],
      "stateMutability": "nonpayable",
      "type": "function"
    },
    {
      "inputs": [
        {
          "internalType": "address",
          "name": "to",
          "type": "address"
        },
        {
          "internalType": "uint256",
          "name": "amount",
          "type": "uint256"
        }
      ],
      "name": "sendRose",
      "outputs": [],
      "stateMutability": "nonpayable",
      "type": "function"
    },
    {
      "inputs": [
        {
          "internalType": "address",
          "name": "_delegate",
          "type": "address"
        },
        {
          "internalType": "bool",
          "name": "_isApproved",
          "type": "bool"
        }
      ],
      "name": "setDelegateApproval",
      "outputs": [],
      "stateMutability": "nonpayable",
      "type": "function"
    },
    {
      "inputs": [
        {
          "internalType": "uint256",
          "name": "_minNetDebt",
          "type": "uint256"
        }
      ],
      "name": "setMinNetDebt",
      "outputs": [],
      "stateMutability": "nonpayable",
      "type": "function"
    },
    {
      "inputs": [
        {
          "internalType": "contract ITroveManager",
          "name": "",
          "type": "address"
        }
      ],
      "name": "troveManagersData",
      "outputs": [
        {
          "internalType": "contract IERC20",
          "name": "collateralToken",
          "type": "address"
        },
        {
          "internalType": "uint16",
          "name": "index",
          "type": "uint16"
        }
      ],
      "stateMutability": "view",
      "type": "function"
    },
    {
      "inputs": [
        {
          "internalType": "contract ITroveManager",
          "name": "troveManager",
          "type": "address"
        },
        {
          "internalType": "address",
          "name": "account",
          "type": "address"
        },
        {
          "internalType": "uint256",
          "name": "_collWithdrawal",
          "type": "uint256"
        },
        {
          "internalType": "address",
          "name": "_upperHint",
          "type": "address"
        },
        {
          "internalType": "address",
          "name": "_lowerHint",
          "type": "address"
        }
      ],
      "name": "withdrawColl",
      "outputs": [],
      "stateMutability": "nonpayable",
      "type": "function"
    },
    {
      "inputs": [
        {
          "internalType": "contract ITroveManager",
          "name": "troveManager",
          "type": "address"
        },
        {
          "internalType": "address",
          "name": "account",
          "type": "address"
        },
        {
          "internalType": "uint256",
          "name": "_maxFeePercentage",
          "type": "uint256"
        },
        {
          "internalType": "uint256",
          "name": "_debtAmount",
          "type": "uint256"
        },
        {
          "internalType": "address",
          "name": "_upperHint",
          "type": "address"
        },
        {
          "internalType": "address",
          "name": "_lowerHint",
          "type": "address"
        }
      ],
      "name": "withdrawDebt",
      "outputs": [],
      "stateMutability": "nonpayable",
      "type": "function"
    }
  ],
  "bytecode": "0x61012060405273eeeeeeeeeeeeeeeeeeeeeeeeeeeeeeeeeeeeeeee610100523480156200002b57600080fd5b5060405162003387380380620033878339810160408190526200004e91620000b2565b60808190526001600160a01b0380861660a05284811660c052831660e052620000778262000082565b50505050506200010f565b600081116200009057600080fd5b600155565b80516001600160a01b0381168114620000ad57600080fd5b919050565b600080600080600060a08688031215620000cb57600080fd5b620000d68662000095565b9450620000e66020870162000095565b9350620000f66040870162000095565b6060870151608090970151959894975095949392505050565b60805160a05160c05160e051610100516131a7620001e0600039600081816101890152818161095901528181611664015281816116dc01528181611b1f01526125d701526000818161050c0152610e65015260008181610593015281816109d201528181610dc00152611d430152600081816103da0152818161062801528181610a5c01528181610b3901528181610f9c0152818161137a0152818161152f01528181611a660152611d7201526000818161027301528181610df001528181611f0b015261295b01526131a76000f3fe60806040526004361061015d5760003560e01c806311c61ad31461016257806315b6dd82146101775780631930e825146101c1578063438d641a14610209578063452a9320146102295780634870dd9a1461023e5780634ba4a28b146102615780634e443d9e146102955780634ff81443146102bd578063568d6fe5146102dd5780635733d58f146103425780635f5486141461035e578063716c53c21461037e578063778c5c64146103a857806382d61d16146103c85780638da5cb5b146103fc578063969c245214610411578063a20baee614610427578063a2e8dc0a14610443578063a6b6c8ee14610463578063b51237a914610483578063b620115d146104a5578063c2af1eca146104ba578063c3c854b6146104da578063c45a0155146104fa578063c5a62a991461052e578063c61b9a4414610541578063e19c80c214610561578063f8d8989814610581578063fded3d35146105b5575b600080fd5b610175610170366004612bb9565b6105c8565b005b34801561018357600080fd5b506101ab7f000000000000000000000000000000000000000000000000000000000000000081565b6040516101b89190612c34565b60405180910390f35b3480156101cd57600080fd5b506101f96101dc366004612c48565b600060208181529281526040808220909352908152205460ff1681565b60405190151581526020016101b8565b34801561021557600080fd5b50610175610224366004612c81565b610a5a565b34801561023557600080fd5b506101ab610b35565b34801561024a57600080fd5b5061025360c881565b6040519081526020016101b8565b34801561026d57600080fd5b506102537f000000000000000000000000000000000000000000000000000000000000000081565b3480156102a157600080fd5b506101f96102b0366004612c81565b6718fae27693b400001190565b3480156102c957600080fd5b506102536102d8366004612c81565b610bbe565b3480156102e957600080fd5b506103206102f8366004612c9a565b6002602052600090815260409020546001600160a01b03811690600160a01b900461ffff1682565b604080516001600160a01b03909316835261ffff9091166020830152016101b8565b34801561034e57600080fd5b506102536718fae27693b4000081565b34801561036a57600080fd5b50610175610379366004612c48565b610bcf565b34801561038a57600080fd5b50610393610e37565b604080519283526020830191909152016101b8565b3480156103b457600080fd5b506101756103c3366004612c48565b610e5a565b3480156103d457600080fd5b506101ab7f000000000000000000000000000000000000000000000000000000000000000081565b34801561040857600080fd5b506101ab610f98565b34801561041d57600080fd5b5061025360015481565b34801561043357600080fd5b50610253670de0b6b3a764000081565b34801561044f57600080fd5b5061017561045e366004612cb7565b610ff8565b34801561046f57600080fd5b5061017561047e366004612cb7565b611069565b34801561048f57600080fd5b506104986110d1565b6040516101b89190612d5b565b3480156104b157600080fd5b50610253611304565b3480156104c657600080fd5b506101756104d5366004612dbc565b611323565b3480156104e657600080fd5b506101756104f5366004612e3a565b61145c565b34801561050657600080fd5b506101ab7f000000000000000000000000000000000000000000000000000000000000000081565b61017561053c366004612e68565b6114c6565b34801561054d57600080fd5b5061017561055c366004612f00565b6116ca565b34801561056d57600080fd5b5061017561057c366004612c9a565b61174d565b34801561058d57600080fd5b506101ab7f000000000000000000000000000000000000000000000000000000000000000081565b6101756105c3366004612cb7565b611a0f565b85336001600160a01b038216148061060157506001600160a01b03811660009081526020818152604080832033845290915290205460ff165b6106265760405162461bcd60e51b815260040161061d90612f2c565b60405180910390fd5b7f00000000000000000000000000000000000000000000000000000000000000006001600160a01b0316635c975abb6040518163ffffffff1660e01b8152600401602060405180830381865afa158015610684573d6000803e3d6000fd5b505050506040513d601f19601f820116820180604052508101906106a89190612f5b565b156106eb5760405162461bcd60e51b815260206004820152601360248201527211195c1bdcda5d1cc8185c99481c185d5cd959606a1b604482015260640161061d565b600061073c6040518061012001604052806000815260200160008152602001600081526020016000815260200160008152602001600081526020016000815260200160008152602001600081525090565b60006107478b611b7a565b60408701919091526020860191909152908452909350905061076889611c51565b6060820187905280610796576107818b848c8c8b611cc4565b82606001516107909190612f8e565b60608301525b6107a38260600151611e8f565b6107b08260600151611f04565b6080830181905282516107c4918a91611f30565b60a083015260808201516107d9908990611f64565b60c083015280156107f6576107f18260a00151611f9b565b61089f565b6108658260a001518c6001600160a01b031663794e57246040518163ffffffff1660e01b8152600401602060405180830381865afa15801561083c573d6000803e3d6000fd5b505050506040513d601f19601f820116820180604052508101906108609190612fa1565b612013565b60006108928360200151846040015185600001518c6108849190612fba565b60018760800151600161208d565b905061089d816120e7565b505b608082015160c0830151604051634cb653b760e01b81526001600160a01b038d81166004830152602482018c905260448201939093526064810191909152878216608482015286821660a482015282151560c4820152908c1690634cb653b79060e40160408051808303816000875af1158015610920573d6000803e3d6000fd5b505050506040513d601f19601f820116820180604052508101906109449190612fd1565b61010084015260e08301526001600160a01b037f00000000000000000000000000000000000000000000000000000000000000008116908416036109a6578734146109a15760405162461bcd60e51b815260040161061d90612ff5565b6109bb565b6109bb6001600160a01b038416338d8b612165565b60405163467fafdf60e11b81526001600160a01b037f00000000000000000000000000000000000000000000000000000000000000001690638cff5fbe90610a099033908b90600401613011565b6020604051808303816000875af1158015610a28573d6000803e3d6000fd5b505050506040513d601f19601f82011682018060405250810190610a4c9190612f5b565b505050505050505050505050565b7f00000000000000000000000000000000000000000000000000000000000000006001600160a01b0316638da5cb5b6040518163ffffffff1660e01b8152600401602060405180830381865afa158015610ab8573d6000803e3d6000fd5b505050506040513d601f19601f82011682018060405250810190610adc919061302a565b6001600160a01b0316336001600160a01b031614610b295760405162461bcd60e51b815260206004820152600a60248201526927b7363c9037bbb732b960b11b604482015260640161061d565b610b32816121c5565b50565b60007f00000000000000000000000000000000000000000000000000000000000000006001600160a01b031663452a93206040518163ffffffff1660e01b8152600401602060405180830381865afa158015610b95573d6000803e3d6000fd5b505050506040513d601f19601f82011682018060405250810190610bb9919061302a565b905090565b6000610bc982611f04565b92915050565b80336001600160a01b0382161480610c0857506001600160a01b03811660009081526020818152604080832033845290915290205460ff165b610c245760405162461bcd60e51b815260040161061d90612f2c565b6000806000806000610c3588611b7a565b93985091965091945090925090508215610cb35760405162461bcd60e51b815260206004820152603960248201527f426f72726f7765724f70733a204f7065726174696f6e206e6f74207065726d696044820152787474656420647572696e67205265636f76657279204d6f646560381b606482015260840161061d565b600080896001600160a01b0316630b0765578a6040518263ffffffff1660e01b8152600401610ce29190612c34565b60408051808303816000875af1158015610d00573d6000803e3d6000fd5b505050506040513d601f19601f82011682018060405250810190610d249190612fd1565b90925090506000610d448585610d3a8a87612fba565b600086600061208d565b9050610d4f816120e7565b60405163c9a4cbf160e01b81526001600160a01b038b8116600483015233602483015260448201859052606482018490528c169063c9a4cbf190608401600060405180830381600087803b158015610da657600080fd5b505af1158015610dba573d6000803e3d6000fd5b505050507f00000000000000000000000000000000000000000000000000000000000000006001600160a01b03166385177509337f000000000000000000000000000000000000000000000000000000000000000085610e1a9190613047565b6040518363ffffffff1660e01b8152600401610a09929190613011565b6000806000610e446110d1565b9050610e4f816121d7565b909590945092505050565b336001600160a01b037f00000000000000000000000000000000000000000000000000000000000000001614610ebd5760405162461bcd60e51b815260206004820152600860248201526721666163746f727960c01b604482015260640161061d565b6040805180820182526001600160a01b038381168083526003805461ffff9081166020808701918252898616600081815260028352898120985189549451909516600160a01b026001600160b01b03199094169490971693909317919091179095558154600181018355919093527fc2575a0e9e593c00f959f8c92f12db2869c3395a3b0502d05e2516446f71f85b0180546001600160a01b031916831790558351918252918101919091527ff6e0528dc0c0ef50525339faff44940d57e7897bee18b67dd0aa23bba1749ad2910160405180910390a15050565b60007f00000000000000000000000000000000000000000000000000000000000000006001600160a01b0316638da5cb5b6040518163ffffffff1660e01b8152600401602060405180830381865afa158015610b95573d6000803e3d6000fd5b83336001600160a01b038216148061103157506001600160a01b03811660009081526020818152604080832033845290915290205460ff165b61104d5760405162461bcd60e51b815260040161061d90612f2c565b611061868660008060008960008a8a612285565b505050505050565b83336001600160a01b03821614806110a257506001600160a01b03811660009081526020818152604080832033845290915290205460ff165b6110be5760405162461bcd60e51b815260040161061d90612f2c565b6110618686600080886000808a8a612285565b6110f560405180606001604052806060815260200160608152602001606081525090565b600354604080516060810190915280826001600160401b0381111561111c5761111c61305a565b604051908082528060200260200182016040528015611145578160200160208202803683370190505b508152602001826001600160401b038111156111635761116361305a565b60405190808252806020026020018201604052801561118c578160200160208202803683370190505b508152602001826001600160401b038111156111aa576111aa61305a565b6040519080825280602002602001820160405280156111d3578160200160208202803683370190505b509052915060005b818110156112ff576000600382815481106111f8576111f8613070565b9060005260206000200160009054906101000a90046001600160a01b031690506000806000836001600160a01b03166301c799fc6040518163ffffffff1660e01b81526004016060604051808303816000875af115801561125d573d6000803e3d6000fd5b505050506040513d601f19601f820116820180604052508101906112819190613086565b925092509250828760000151868151811061129e5761129e613070565b60200260200101818152505081876020015186815181106112c1576112c1613070565b60200260200101818152505080876040015186815181106112e4576112e4613070565b602002602001018181525050846001019450505050506111db565b505090565b60008061130f6110d1565b905061131a816121d7565b50909392505050565b84336001600160a01b038216148061135c57506001600160a01b03811660009081526020818152604080832033845290915290205460ff165b6113785760405162461bcd60e51b815260040161061d90612f2c565b7f00000000000000000000000000000000000000000000000000000000000000006001600160a01b0316635c975abb6040518163ffffffff1660e01b8152600401602060405180830381865afa1580156113d6573d6000803e3d6000fd5b505050506040513d601f19601f820116820180604052508101906113fa9190612f5b565b156114405760405162461bcd60e51b815260206004820152601660248201527515da5d1a191c985dd85b1cc8185c99481c185d5cd95960521b604482015260640161061d565b6114538787876000808960018a8a612285565b50505050505050565b336000818152602081815260408083206001600160a01b03871680855290835292819020805460ff191686151590811790915590519081529192917f92d241afb0a1a9b3441bf1bd6bea0f9164cf5a2562cbe4bcc34ab943b2465608910160405180910390a35050565b87336001600160a01b03821614806114ff57506001600160a01b03811660009081526020818152604080832033845290915290205460ff165b61151b5760405162461bcd60e51b815260040161061d90612f2c565b86158015611527575083155b806115b157507f00000000000000000000000000000000000000000000000000000000000000006001600160a01b0316635c975abb6040518163ffffffff1660e01b8152600401602060405180830381865afa15801561158b573d6000803e3d6000fd5b505050506040513d601f19601f820116820180604052508101906115af9190612f5b565b155b6115cd5760405162461bcd60e51b815260040161061d906130b4565b8615806115d8575085155b61163d5760405162461bcd60e51b815260206004820152603060248201527f426f72726f7765724f7065726174696f6e733a2043616e6e6f7420776974686460448201526f1c985dc8185b99081859190818dbdb1b60821b606482015260840161061d565b60008711801561168957506001600160a01b038a81166000908152600260205260409020547f000000000000000000000000000000000000000000000000000000000000000082169116145b156116ad578634146116ad5760405162461bcd60e51b815260040161061d90612ff5565b6116be8a8a8a8a8a8a8a8a8a612285565b50505050505050505050565b336000908152600260205260409020547f00000000000000000000000000000000000000000000000000000000000000006001600160a01b0390811691161461171257600080fd5b6040516001600160a01b0383169082156108fc029083906000818181858888f19350505050158015611748573d6000803e3d6000fd5b505050565b6001600160a01b03818116600090815260026020908152604091829020825180840190935254928316808352600160a01b90930461ffff169082015290158015906117f55750816001600160a01b0316639484fb8e6040518163ffffffff1660e01b8152600401602060405180830381865afa1580156117d1573d6000803e3d6000fd5b505050506040513d601f19601f820116820180604052508101906117f59190612f5b565b80156118605750816001600160a01b031663795d26c36040518163ffffffff1660e01b8152600401602060405180830381865afa15801561183a573d6000803e3d6000fd5b505050506040513d601f19601f8201168201806040525081019061185e9190612fa1565b155b6118ac5760405162461bcd60e51b815260206004820152601f60248201527f54726f7665204d616e616765722063616e6e6f742062652072656d6f76656400604482015260640161061d565b6001600160a01b038216600090815260026020526040812080546001600160b01b03191690556003546118e190600190613047565b905080826020015161ffff16101561199f5760006003828154811061190857611908613070565b9060005260206000200160009054906101000a90046001600160a01b03169050806003846020015161ffff168154811061194457611944613070565b6000918252602080832090910180546001600160a01b039485166001600160a01b031990911617905585810151939092168152600290915260409020805461ffff909216600160a01b0261ffff60a01b199092169190911790555b60038054806119b0576119b06130ea565b600082815260209020810160001990810180546001600160a01b03191690550190556040517fe44bbef3bc872937d7daf489db0badffc044d1813a027aea391838c54651430390611a02908590612c34565b60405180910390a1505050565b83336001600160a01b0382161480611a4857506001600160a01b03811660009081526020818152604080832033845290915290205460ff165b611a645760405162461bcd60e51b815260040161061d90612f2c565b7f00000000000000000000000000000000000000000000000000000000000000006001600160a01b0316635c975abb6040518163ffffffff1660e01b8152600401602060405180830381865afa158015611ac2573d6000803e3d6000fd5b505050506040513d601f19601f82011682018060405250810190611ae69190612f5b565b15611b035760405162461bcd60e51b815260040161061d906130b4565b6001600160a01b038681166000908152600260205260409020547f00000000000000000000000000000000000000000000000000000000000000008216911603611b6657833414611b665760405162461bcd60e51b815260040161061d90612ff5565b611061868660008760008060008a8a612285565b6001600160a01b03818116600090815260026020526040812080549283169282918291829190600160a01b900461ffff1686611bf15760405162461bcd60e51b815260206004820152601660248201527510dbdb1b185d195c985b081b9bdd08195b98589b195960521b604482015260640161061d565b600080611bfc6110d1565b9050611c07816121d7565b90985096509150611c1f826718fae27693b400001190565b94508881604001518481518110611c3857611c38613070565b6020026020010151985098505050505091939590929450565b670de0b6b3a7640000811115610b325760405162461bcd60e51b815260206004820152603260248201527f4d6178206665652070657263656e74616765206d757374206c657373207468616044820152716e206f7220657175616c20746f203130302560701b606482015260840161061d565b60405163b2f29d7b60e01b81526004810182905260009081906001600160a01b0388169063b2f29d7b906024016020604051808303816000875af1158015611d10573d6000803e3d6000fd5b505050506040513d601f19601f82011682018060405250810190611d349190612fa1565b9050611d4181848661271e565b7f00000000000000000000000000000000000000000000000000000000000000006001600160a01b03166340c10f197f00000000000000000000000000000000000000000000000000000000000000006001600160a01b031663b3f006746040518163ffffffff1660e01b8152600401602060405180830381865afa158015611dce573d6000803e3d6000fd5b505050506040513d601f19601f82011682018060405250810190611df2919061302a565b836040518363ffffffff1660e01b8152600401611e10929190613011565b600060405180830381600087803b158015611e2a57600080fd5b505af1158015611e3e573d6000803e3d6000fd5b50505050846001600160a01b03167fd89359f0d8e7f936d0682c5565cc5a16989a91560a80c7b06c46c28e52a5d43a8783604051611e7d929190613011565b60405180910390a29695505050505050565b600154811015610b325760405162461bcd60e51b815260206004820152603a60248201527f426f72726f7765724f70733a2054726f76652773206e65742064656274206d7560448201527973742062652067726561746572207468616e206d696e696d756d60301b606482015260840161061d565b6000610bc97f000000000000000000000000000000000000000000000000000000000000000083612f8e565b60008215611f5857600083611f458487612fba565b611f4f9190613100565b9150611f5d9050565b506000195b9392505050565b60008115611f915781611f8068056bc75e2d6310000085612fba565b611f8a9190613100565b9050610bc9565b5060001992915050565b6718fae27693b40000811015610b325760405162461bcd60e51b815260206004820152603760248201527f426f72726f7765724f70733a204f7065726174696f6e206d757374206c65617660448201527632903a3937bb32903bb4ba341024a1a9101f1e9021a1a960491b606482015260840161061d565b808210156120895760405162461bcd60e51b8152602060048201526049602482015260008051602061315283398151915260448201527f6f756c6420726573756c7420696e20494352203c204d4352206973206e6f74206064820152681c195c9b5a5d1d195960ba1b608482015260a40161061d565b5050565b6000816120a35761209e8387613047565b6120ad565b6120ad8387612f8e565b9550836120c3576120be8588613047565b6120cd565b6120cd8588612f8e565b965060006120db888861278f565b98975050505050505050565b6718fae27693b40000811015610b325760405162461bcd60e51b8152602060048201526049602482015260008051602061315283398151915260448201527f6f756c6420726573756c7420696e20544352203c20434352206973206e6f74206064820152681c195c9b5a5d1d195960ba1b608482015260a40161061d565b604080516001600160a01b0385811660248301528416604482015260648082018490528251808303909101815260849091019091526020810180516001600160e01b03166323b872dd60e01b1790526121bf9085906127ac565b50505050565b600081116121d257600080fd5b600155565b80515160009081908190815b81811015612270578560400151818151811061220157612201613070565b60200260200101518660000151828151811061221f5761221f613070565b60200260200101516122319190612fba565b61223b9085612f8e565b93508560200151818151811061225357612253613070565b6020026020010151836122669190612f8e565b92506001016121e3565b5061227b838361278f565b9350509193909250565b8515158061229257508415155b8061229c57508315155b61231d5760405162461bcd60e51b815260206004820152604660248201527f426f72726f7765724f70733a205468657265206d75737420626520656974686560448201527f72206120636f6c6c61746572616c206368616e6765206f7220612064656274206064820152656368616e676560d01b608482015260a40161061d565b600061239c604051806101c00160405280600081526020016000815260200160008152602001600081526020016000815260200160001515815260200160008152602001600081526020016000815260200160008152602001600081526020016000815260200160006001600160a01b03168152602001600081525090565b60006123a78c611b7a565b60408088019290925260208701929092529185529051630b07655760e01b815291945091506001600160a01b038d1690630b076557906123eb908e90600401612c34565b60408051808303816000875af1158015612409573d6000803e3d6000fd5b505050506040513d601f19601f8201168201806040525081019061242d9190612fd1565b60c084015260e08301526124418989612806565b151560a084015260608301526080820187905261016082018790526001600160a01b03808c1661018084015260408051631e5395c960e21b81529051918e169163794e5724916004808201926020929091908290030181865afa1580156124ac573d6000803e3d6000fd5b505050506040513d601f19601f820116820180604052508101906124d09190612fa1565b6101a0830152851561257c576000871161254c5760405162461bcd60e51b815260206004820152603760248201527f426f72726f7765724f70733a204465627420696e637265617365207265717569604482015276726573206e6f6e2d7a65726f20646562744368616e676560481b606482015260840161061d565b6125558a611c51565b8061257c576125678c84338d8b611cc4565b826080018181516125789190612f8e565b9052505b61259282602001518360400151838b8a87612825565b851580156125a05750600087115b156125c9576125c982608001516125ba8460c00151612954565b6125c49190613047565b611e8f565b8160a00151801561260c57507f00000000000000000000000000000000000000000000000000000000000000006001600160a01b0316836001600160a01b031614155b1561262e57606082015161262e906001600160a01b0385169033908f90612165565b610160820151608083015160a084015160608501516101808601516040516311c82bd560e31b815286151560048201528b1515602482015260448101959095526064850193909352901515608484015260a48301526001600160a01b0387811660c484015286811660e4840152908116610104830152336101248301528d1690638e415ea890610144016060604051808303816000875af11580156126d7573d6000803e3d6000fd5b505050506040513d601f19601f820116820180604052508101906126fb9190613086565b610140850152610100840152610120909201919091525050505050505050505050565b600082612733670de0b6b3a764000086612fba565b61273d9190613100565b9050818111156121bf5760405162461bcd60e51b815260206004820152601d60248201527f4665652065786365656465642070726f7669646564206d6178696d756d000000604482015260640161061d565b60008115611f915760006127a38385613100565b9150610bc99050565b60006127c16001600160a01b03841683612980565b905080516000141580156127e65750808060200190518101906127e49190612f5b565b155b156117485782604051635274afe760e01b815260040161061d9190612c34565b600080831561281a5750829050600161281e565b8291505b9250929050565b600061283e8260e001518360c001518460000151611f30565b905060006128698360e001518460c0015185606001518660a00151876080015189896000015161298e565b905085156129035784156128e55760405162461bcd60e51b815260206004820152603e60248201527f426f72726f7765724f70733a20436f6c6c61746572616c20776974686472617760448201527f616c206e6f74207065726d6974746564205265636f76657279204d6f64650000606482015260840161061d565b83156128fe576128f481611f9b565b6128fe81836129c1565b61294a565b61291281846101a00151612013565b600061293d89898660000151876060015161292d9190612fba565b8760a0015188608001518a61208d565b9050612948816120e7565b505b5050505050505050565b6000610bc97f000000000000000000000000000000000000000000000000000000000000000083613047565b6060611f5d83836000612a37565b60008060006129a18a8a8a8a8a8a612ad4565b9150915060006129b2838387611f30565b9b9a5050505050505050505050565b808210156120895760405162461bcd60e51b815260206004820152603e60248201527f426f72726f7765724f70733a2043616e6e6f7420646563726561736520796f7560448201527f722054726f766527732049435220696e205265636f76657279204d6f64650000606482015260840161061d565b606081471015612a5c573060405163cd78605960e01b815260040161061d9190612c34565b600080856001600160a01b03168486604051612a789190613122565b60006040518083038185875af1925050503d8060008114612ab5576040519150601f19603f3d011682016040523d82523d6000602084013e612aba565b606091505b5091509150612aca868383612b28565b9695505050505050565b600080878786612aed57612ae8888b613047565b612af7565b612af7888b612f8e565b915084612b0d57612b08868a613047565b612b17565b612b17868a612f8e565b919a91995090975050505050505050565b606082612b3d57612b3882612b7b565b611f5d565b8151158015612b5457506001600160a01b0384163b155b15612b745783604051639996b31560e01b815260040161061d9190612c34565b5080611f5d565b805115612b8b5780518082602001fd5b604051630a12f52160e11b815260040160405180910390fd5b6001600160a01b0381168114610b3257600080fd5b600080600080600080600060e0888a031215612bd457600080fd5b8735612bdf81612ba4565b96506020880135612bef81612ba4565b955060408801359450606088013593506080880135925060a0880135612c1481612ba4565b915060c0880135612c2481612ba4565b8091505092959891949750929550565b6001600160a01b0391909116815260200190565b60008060408385031215612c5b57600080fd5b8235612c6681612ba4565b91506020830135612c7681612ba4565b809150509250929050565b600060208284031215612c9357600080fd5b5035919050565b600060208284031215612cac57600080fd5b8135611f5d81612ba4565b600080600080600060a08688031215612ccf57600080fd5b8535612cda81612ba4565b94506020860135612cea81612ba4565b9350604086013592506060860135612d0181612ba4565b91506080860135612d1181612ba4565b809150509295509295909350565b60008151808452602080850194506020840160005b83811015612d5057815187529582019590820190600101612d34565b509495945050505050565b602081526000825160606020840152612d776080840182612d1f565b90506020840151601f1980858403016040860152612d958383612d1f565b9250604086015191508085840301606086015250612db38282612d1f565b95945050505050565b60008060008060008060c08789031215612dd557600080fd5b8635612de081612ba4565b95506020870135612df081612ba4565b945060408701359350606087013592506080870135612e0e81612ba4565b915060a0870135612e1e81612ba4565b809150509295509295509295565b8015158114610b3257600080fd5b60008060408385031215612e4d57600080fd5b8235612e5881612ba4565b91506020830135612c7681612e2c565b60008060008060008060008060006101208a8c031215612e8757600080fd5b8935612e9281612ba4565b985060208a0135612ea281612ba4565b975060408a0135965060608a0135955060808a0135945060a08a0135935060c08a0135612ece81612e2c565b925060e08a0135612ede81612ba4565b91506101008a0135612eef81612ba4565b809150509295985092959850929598565b60008060408385031215612f1357600080fd5b8235612f1e81612ba4565b946020939093013593505050565b60208082526015908201527411195b1959d85d19481b9bdd08185c1c1c9bdd9959605a1b604082015260600190565b600060208284031215612f6d57600080fd5b8151611f5d81612e2c565b634e487b7160e01b600052601160045260246000fd5b80820180821115610bc957610bc9612f78565b600060208284031215612fb357600080fd5b5051919050565b8082028115828204841417610bc957610bc9612f78565b60008060408385031215612fe457600080fd5b505080516020909101519092909150565b6020808252600290820152614e4560f01b604082015260600190565b6001600160a01b03929092168252602082015260400190565b60006020828403121561303c57600080fd5b8151611f5d81612ba4565b81810381811115610bc957610bc9612f78565b634e487b7160e01b600052604160045260246000fd5b634e487b7160e01b600052603260045260246000fd5b60008060006060848603121561309b57600080fd5b8351925060208401519150604084015190509250925092565b6020808252601c908201527b151c9bdd994818591a9d5cdd1b595b9d1cc8185c99481c185d5cd95960221b604082015260600190565b634e487b7160e01b600052603160045260246000fd5b60008261311d57634e487b7160e01b600052601260045260246000fd5b500490565b6000825160005b818110156131435760208186018101518583015201613129565b50600092019182525091905056fe426f72726f7765724f70733a20416e206f7065726174696f6e20746861742077a26469706673582212207d3c16fd43e836eee8b3efa6542a133102bcd75c36ef124e89af5b7ec5c9bfb864736f6c63430008160033",
  "linkReferences": {},
  "deployedLinkReferences": {}
}