{
  "_format": "hh-sol-artifact-1",
  "contractName": "MultiCollateralHintHelpers",
  "sourceName": "contracts/core/helpers/MultiCollateralHintHelpers.sol",
  "abi": [
    {
      "inputs": [
        {
          "internalType": "address",
          "name": "_borrowerOperationsAddress",
          "type": "address"
        },
        {
          "internalType": "uint256",
          "name": "_gasCompensation",
          "type": "uint256"
        }
      ],
      "stateMutability": "nonpayable",
      "type": "constructor"
    },
    {
      "inputs": [],
      "name": "CCR",
      "outputs": [
        {
          "internalType": "uint256",
          "name": "",
          "type": "uint256"
        }
      ],
      "stateMutability": "view",
      "type": "function"
    },
    {
      "inputs": [],
      "name": "DEBT_GAS_COMPENSATION",
      "outputs": [
        {
          "internalType": "uint256",
          "name": "",
          "type": "uint256"
        }
      ],
      "stateMutability": "view",
      "type": "function"
    },
    {
      "inputs": [],
      "name": "DECIMAL_PRECISION",
      "outputs": [
        {
          "internalType": "uint256",
          "name": "",
          "type": "uint256"
        }
      ],
      "stateMutability": "view",
      "type": "function"
    },
    {
      "inputs": [],
      "name": "PERCENT_DIVISOR",
      "outputs": [
        {
          "internalType": "uint256",
          "name": "",
          "type": "uint256"
        }
      ],
      "stateMutability": "view",
      "type": "function"
    },
    {
      "inputs": [],
      "name": "borrowerOperations",
      "outputs": [
        {
          "internalType": "contract IBorrowerOperations",
          "name": "",
          "type": "address"
        }
      ],
      "stateMutability": "view",
      "type": "function"
    },
    {
      "inputs": [
        {
          "internalType": "uint256",
          "name": "_coll",
          "type": "uint256"
        },
        {
          "internalType": "uint256",
          "name": "_debt",
          "type": "uint256"
        },
        {
          "internalType": "uint256",
          "name": "_price",
          "type": "uint256"
        }
      ],
      "name": "computeCR",
      "outputs": [
        {
          "internalType": "uint256",
          "name": "",
          "type": "uint256"
        }
      ],
      "stateMutability": "pure",
      "type": "function"
    },
    {
      "inputs": [
        {
          "internalType": "uint256",
          "name": "_coll",
          "type": "uint256"
        },
        {
          "internalType": "uint256",
          "name": "_debt",
          "type": "uint256"
        }
      ],
      "name": "computeNominalCR",
      "outputs": [
        {
          "internalType": "uint256",
          "name": "",
          "type": "uint256"
        }
      ],
      "stateMutability": "pure",
      "type": "function"
    },
    {
      "inputs": [
        {
          "internalType": "contract ITroveManager",
          "name": "troveManager",
          "type": "address"
        },
        {
          "internalType": "uint256",
          "name": "_CR",
          "type": "uint256"
        },
        {
          "internalType": "uint256",
          "name": "_numTrials",
          "type": "uint256"
        },
        {
          "internalType": "uint256",
          "name": "_inputRandomSeed",
          "type": "uint256"
        }
      ],
      "name": "getApproxHint",
      "outputs": [
        {
          "internalType": "address",
          "name": "hintAddress",
          "type": "address"
        },
        {
          "internalType": "uint256",
          "name": "diff",
          "type": "uint256"
        },
        {
          "internalType": "uint256",
          "name": "latestRandomSeed",
          "type": "uint256"
        }
      ],
      "stateMutability": "view",
      "type": "function"
    },
    {
      "inputs": [
        {
          "internalType": "contract ITroveManager",
          "name": "troveManager",
          "type": "address"
        },
        {
          "internalType": "uint256",
          "name": "_debtAmount",
          "type": "uint256"
        },
        {
          "internalType": "uint256",
          "name": "_price",
          "type": "uint256"
        },
        {
          "internalType": "uint256",
          "name": "_maxIterations",
          "type": "uint256"
        }
      ],
      "name": "getRedemptionHints",
      "outputs": [
        {
          "internalType": "address",
          "name": "firstRedemptionHint",
          "type": "address"
        },
        {
          "internalType": "uint256",
          "name": "partialRedemptionHintNICR",
          "type": "uint256"
        },
        {
          "internalType": "uint256",
          "name": "truncatedDebtAmount",
          "type": "uint256"
        }
      ],
      "stateMutability": "view",
      "type": "function"
    }
  ],
  "bytecode": "0x60c060405234801561001057600080fd5b50604051610d64380380610d6483398101604081905261002f91610043565b6080526001600160a01b031660a05261007d565b6000806040838503121561005657600080fd5b82516001600160a01b038116811461006d57600080fd5b6020939093015192949293505050565b60805160a051610cae6100b66000396000818161013c01526103e001526000818160e0015281816109a501526109e70152610cae6000f3fe608060405234801561001057600080fd5b50600436106100835760003560e01c8063301be459146100885780634870dd9a146100c55780634ba4a28b146100db578063525acdbb146101025780635733d58f14610115578063701526b41461012457806377553ad414610137578063a20baee61461016b578063c394a7fa1461017a575b600080fd5b61009b610096366004610aae565b61018d565b604080516001600160a01b0390941684526020840192909252908201526060015b60405180910390f35b6100cd60c881565b6040519081526020016100bc565b6100cd7f000000000000000000000000000000000000000000000000000000000000000081565b6100cd610110366004610ae9565b61064a565b6100cd6718fae27693b4000081565b61009b610132366004610aae565b610661565b61015e7f000000000000000000000000000000000000000000000000000000000000000081565b6040516100bc9190610b15565b6100cd670de0b6b3a764000081565b6100cd610188366004610b29565b610989565b600080600080876001600160a01b031663ae9187546040518163ffffffff1660e01b8152600401602060405180830381865afa1580156101d1573d6000803e3d6000fd5b505050506040513d601f19601f820116820180604052508101906101f59190610b4b565b905060008790506000826001600160a01b0316634d6228316040518163ffffffff1660e01b8152600401602060405180830381865afa15801561023c573d6000803e3d6000fd5b505050506040513d601f19601f820116820180604052508101906102609190610b4b565b905060008a6001600160a01b031663794e57246040518163ffffffff1660e01b8152600401602060405180830381865afa1580156102a2573d6000803e3d6000fd5b505050506040513d601f19601f820116820180604052508101906102c69190610b68565b90505b6001600160a01b038216158015906103525750604051630d293c7160e41b81526001600160a01b038381166004830152602482018b90528291908d169063d293c71090604401602060405180830381865afa15801561032c573d6000803e3d6000fd5b505050506040513d601f19601f820116820180604052508101906103509190610b68565b105b156103cb57604051632dc9c0eb60e21b81526001600160a01b0385169063b72703ac90610383908590600401610b15565b602060405180830381865afa1580156103a0573d6000803e3d6000fd5b505050506040513d601f19601f820116820180604052508101906103c49190610b4b565b91506102c9565b819650876000036103dc5760001997505b60007f00000000000000000000000000000000000000000000000000000000000000006001600160a01b031663969c24526040518163ffffffff1660e01b8152600401602060405180830381865afa15801561043c573d6000803e3d6000fd5b505050506040513d601f19601f820116820180604052508101906104609190610b68565b90505b6001600160a01b0383161580159061047b5750600084115b8015610492575060008961048e81610b97565b9a50115b1561062f576000808d6001600160a01b031663b91af97c866040518263ffffffff1660e01b81526004016104c69190610b15565b608060405180830381865afa1580156104e3573d6000803e3d6000fd5b505050506040513d601f19601f820116820180604052508101906105079190610bae565b50509150915060006105188361099e565b9050868111156105ac57838111156105a457600061053f8861053a8785610be4565b6109ca565b905060008e610556670de0b6b3a764000084610bf7565b6105609190610c24565b61056a9085610be4565b905060006105788385610be4565b90506000610585826109e0565b90506105918382610a0c565b9d5061059d848c610be4565b9a50505050505b50505061062f565b6105b68188610be4565b9650604051632dc9c0eb60e21b81526001600160a01b0389169063b72703ac906105e4908990600401610b15565b602060405180830381865afa158015610601573d6000803e3d6000fd5b505050506040513d601f19601f820116820180604052508101906106259190610b4b565b9550505050610463565b610639848c610be4565b955050505050509450945094915050565b6000610657848484610a42565b90505b9392505050565b600080600080876001600160a01b031663ae9187546040518163ffffffff1660e01b8152600401602060405180830381865afa1580156106a5573d6000803e3d6000fd5b505050506040513d601f19601f820116820180604052508101906106c99190610b4b565b90506000886001600160a01b03166349eefeee6040518163ffffffff1660e01b8152600401602060405180830381865afa15801561070b573d6000803e3d6000fd5b505050506040513d601f19601f8201168201806040525081019061072f9190610b68565b90508060000361074a5760008087945094509450505061097f565b816001600160a01b0316634d6228316040518163ffffffff1660e01b8152600401602060405180830381865afa158015610788573d6000803e3d6000fd5b505050506040513d601f19601f820116820180604052508101906107ac9190610b4b565b9450610824888a6001600160a01b031663b0d8e181886040518263ffffffff1660e01b81526004016107de9190610b15565b602060405180830381865afa1580156107fb573d6000803e3d6000fd5b505050506040513d601f19601f8201168201806040525081019061081f9190610b68565b610a73565b935085925060015b8781101561097b5760408051602081018690520160408051601f198184030181529190528051602090910120935060006108668386610c38565b604051633669c91160e21b8152600481018290529091506000906001600160a01b038d169063d9a7244490602401602060405180830381865afa1580156108b1573d6000803e3d6000fd5b505050506040513d601f19601f820116820180604052508101906108d59190610b4b565b905060008c6001600160a01b031663b0d8e181836040518263ffffffff1660e01b81526004016109059190610b15565b602060405180830381865afa158015610922573d6000803e3d6000fd5b505050506040513d601f19601f820116820180604052508101906109469190610b68565b90506000610954828e610a73565b905088811015610965578098508299505b8461096f81610c4c565b9550505050505061082c565b5050505b9450945094915050565b60006109958383610a0c565b90505b92915050565b60006109987f000000000000000000000000000000000000000000000000000000000000000083610be4565b60008183106109d95781610995565b5090919050565b60006109987f000000000000000000000000000000000000000000000000000000000000000083610c65565b60008115610a395781610a2868056bc75e2d6310000085610bf7565b610a329190610c24565b9050610998565b50600019610998565b60008215610a6a57600083610a578487610bf7565b610a619190610c24565b915061065a9050565b5060001961065a565b600081831015610a8c57610a878383610be4565b610995565b6109958284610be4565b6001600160a01b0381168114610aab57600080fd5b50565b60008060008060808587031215610ac457600080fd5b8435610acf81610a96565b966020860135965060408601359560600135945092505050565b600080600060608486031215610afe57600080fd5b505081359360208301359350604090920135919050565b6001600160a01b0391909116815260200190565b60008060408385031215610b3c57600080fd5b50508035926020909101359150565b600060208284031215610b5d57600080fd5b815161065a81610a96565b600060208284031215610b7a57600080fd5b5051919050565b634e487b7160e01b600052601160045260246000fd5b600081610ba657610ba6610b81565b506000190190565b60008060008060808587031215610bc457600080fd5b505082516020840151604085015160609095015191969095509092509050565b8181038181111561099857610998610b81565b808202811582820484141761099857610998610b81565b634e487b7160e01b600052601260045260246000fd5b600082610c3357610c33610c0e565b500490565b600082610c4757610c47610c0e565b500690565b600060018201610c5e57610c5e610b81565b5060010190565b8082018082111561099857610998610b8156fea264697066735822122068f04ec97ea14ce5b29a677e2d203ca2ec04343a00972447983dc7845ca944c764736f6c63430008160033",
  "linkReferences": {},
  "deployedLinkReferences": {}
}