{
  "contracts/dependencies/VineBase.sol": {
    "VineBase": {
      "abi": [
        {
          "inputs": [
            {
              "internalType": "uint256",
              "name": "_gasCompensation",
              "type": "uint256"
            }
          ],
          "stateMutability": "nonpayable",
          "type": "constructor"
        },
        {
          "inputs": [],
          "name": "CCR",
          "outputs": [
            {
              "internalType": "uint256",
              "name": "",
              "type": "uint256"
            }
          ],
          "stateMutability": "view",
          "type": "function"
        },
        {
          "inputs": [],
          "name": "DEBT_GAS_COMPENSATION",
          "outputs": [
            {
              "internalType": "uint256",
              "name": "",
              "type": "uint256"
            }
          ],
          "stateMutability": "view",
          "type": "function"
        },
        {
          "inputs": [],
          "name": "DECIMAL_PRECISION",
          "outputs": [
            {
              "internalType": "uint256",
              "name": "",
              "type": "uint256"
            }
          ],
          "stateMutability": "view",
          "type": "function"
        },
        {
          "inputs": [],
          "name": "PERCENT_DIVISOR",
          "outputs": [
            {
              "internalType": "uint256",
              "name": "",
              "type": "uint256"
            }
          ],
          "stateMutability": "view",
          "type": "function"
        }
      ],
      "evm": {
        "bytecode": {
          "linkReferences": {},
          "object": "60a060405234801561001057600080fd5b5060405161014438038061014483398101604081905261002f91610037565b608052610050565b60006020828403121561004957600080fd5b5051919050565b60805160dc61006860003960006068015260dc6000f3fe6080604052348015600f57600080fd5b506004361060465760003560e01c80634870dd9a14604b5780634ba4a28b1460645780635733d58f14608a578063a20baee6146098575b600080fd5b605260c881565b60405190815260200160405180910390f35b60527f000000000000000000000000000000000000000000000000000000000000000081565b60526718fae27693b4000081565b6052670de0b6b3a76400008156fea2646970667358221220c13740dc730fc946a9a5761d29be6b203bc1a260e17f41a1cb7a907422e5d5b464736f6c63430008160033",
          "opcodes": "PUSH1 0xA0 PUSH1 0x40 MSTORE CALLVALUE DUP1 ISZERO PUSH2 0x10 JUMPI PUSH1 0x0 DUP1 REVERT JUMPDEST POP PUSH1 0x40 MLOAD PUSH2 0x144 CODESIZE SUB DUP1 PUSH2 0x144 DUP4 CODECOPY DUP2 ADD PUSH1 0x40 DUP2 SWAP1 MSTORE PUSH2 0x2F SWAP2 PUSH2 0x37 JUMP JUMPDEST PUSH1 0x80 MSTORE PUSH2 0x50 JUMP JUMPDEST PUSH1 0x0 PUSH1 0x20 DUP3 DUP5 SUB SLT ISZERO PUSH2 0x49 JUMPI PUSH1 0x0 DUP1 REVERT JUMPDEST POP MLOAD SWAP2 SWAP1 POP JUMP JUMPDEST PUSH1 0x80 MLOAD PUSH1 0xDC PUSH2 0x68 PUSH1 0x0 CODECOPY PUSH1 0x0 PUSH1 0x68 ADD MSTORE PUSH1 0xDC PUSH1 0x0 RETURN INVALID PUSH1 0x80 PUSH1 0x40 MSTORE CALLVALUE DUP1 ISZERO PUSH1 0xF JUMPI PUSH1 0x0 DUP1 REVERT JUMPDEST POP PUSH1 0x4 CALLDATASIZE LT PUSH1 0x46 JUMPI PUSH1 0x0 CALLDATALOAD PUSH1 0xE0 SHR DUP1 PUSH4 0x4870DD9A EQ PUSH1 0x4B JUMPI DUP1 PUSH4 0x4BA4A28B EQ PUSH1 0x64 JUMPI DUP1 PUSH4 0x5733D58F EQ PUSH1 0x8A JUMPI DUP1 PUSH4 0xA20BAEE6 EQ PUSH1 0x98 JUMPI JUMPDEST PUSH1 0x0 DUP1 REVERT JUMPDEST PUSH1 0x52 PUSH1 0xC8 DUP2 JUMP JUMPDEST PUSH1 0x40 MLOAD SWAP1 DUP2 MSTORE PUSH1 0x20 ADD PUSH1 0x40 MLOAD DUP1 SWAP2 SUB SWAP1 RETURN JUMPDEST PUSH1 0x52 PUSH32 0x0 DUP2 JUMP JUMPDEST PUSH1 0x52 PUSH8 0x18FAE27693B40000 DUP2 JUMP JUMPDEST PUSH1 0x52 PUSH8 0xDE0B6B3A7640000 DUP2 JUMP INVALID LOG2 PUSH5 0x6970667358 0x22 SLT KECCAK256 0xC1 CALLDATACOPY BLOCKHASH 0xDC PUSH20 0xFC946A9A5761D29BE6B203BC1A260E17F41A1CB PUSH27 0x907422E5D5B464736F6C6343000816003300000000000000000000 "
        },
        "methodIdentifiers": {
          "CCR()": "5733d58f",
          "DEBT_GAS_COMPENSATION()": "4ba4a28b",
          "DECIMAL_PRECISION()": "a20baee6",
          "PERCENT_DIVISOR()": "4870dd9a"
        }
      }
    }
  }
}