{
  "contracts/dependencies/DelegatedOps.sol": {
    "DelegatedOps": {
      "abi": [
        {
          "anonymous": false,
          "inputs": [
            {
              "indexed": true,
              "internalType": "address",
              "name": "caller",
              "type": "address"
            },
            {
              "indexed": true,
              "internalType": "address",
              "name": "delegate",
              "type": "address"
            },
            {
              "indexed": false,
              "internalType": "bool",
              "name": "isApproved",
              "type": "bool"
            }
          ],
          "name": "DelegateApprovalSet",
          "type": "event"
        },
        {
          "inputs": [
            {
              "internalType": "address",
              "name": "owner",
              "type": "address"
            },
            {
              "internalType": "address",
              "name": "caller",
              "type": "address"
            }
          ],
          "name": "isApprovedDelegate",
          "outputs": [
            {
              "internalType": "bool",
              "name": "isApproved",
              "type": "bool"
            }
          ],
          "stateMutability": "view",
          "type": "function"
        },
        {
          "inputs": [
            {
              "internalType": "address",
              "name": "_delegate",
              "type": "address"
            },
            {
              "internalType": "bool",
              "name": "_isApproved",
              "type": "bool"
            }
          ],
          "name": "setDelegateApproval",
          "outputs": [],
          "stateMutability": "nonpayable",
          "type": "function"
        }
      ],
      "evm": {
        "bytecode": {
          "linkReferences": {},
          "object": "608060405234801561001057600080fd5b506101ba806100206000396000f3fe608060405234801561001057600080fd5b50600436106100365760003560e01c80631930e8251461003b578063c3c854b61461007a575b600080fd5b610066610049366004610115565b600060208181529281526040808220909352908152205460ff1681565b604051901515815260200160405180910390f35b61008d610088366004610148565b61008f565b005b336000818152602081815260408083206001600160a01b03871680855290835292819020805460ff191686151590811790915590519081529192917f92d241afb0a1a9b3441bf1bd6bea0f9164cf5a2562cbe4bcc34ab943b2465608910160405180910390a35050565b80356001600160a01b038116811461011057600080fd5b919050565b6000806040838503121561012857600080fd5b610131836100f9565b915061013f602084016100f9565b90509250929050565b6000806040838503121561015b57600080fd5b610164836100f9565b91506020830135801515811461017957600080fd5b80915050925092905056fea2646970667358221220100a849674205c090b1527388a939627ed912d2cc9f8344e062a0d3b5d07d28164736f6c63430008160033",
          "opcodes": "PUSH1 0x80 PUSH1 0x40 MSTORE CALLVALUE DUP1 ISZERO PUSH2 0x10 JUMPI PUSH1 0x0 DUP1 REVERT JUMPDEST POP PUSH2 0x1BA DUP1 PUSH2 0x20 PUSH1 0x0 CODECOPY PUSH1 0x0 RETURN INVALID PUSH1 0x80 PUSH1 0x40 MSTORE CALLVALUE DUP1 ISZERO PUSH2 0x10 JUMPI PUSH1 0x0 DUP1 REVERT JUMPDEST POP PUSH1 0x4 CALLDATASIZE LT PUSH2 0x36 JUMPI PUSH1 0x0 CALLDATALOAD PUSH1 0xE0 SHR DUP1 PUSH4 0x1930E825 EQ PUSH2 0x3B JUMPI DUP1 PUSH4 0xC3C854B6 EQ PUSH2 0x7A JUMPI JUMPDEST PUSH1 0x0 DUP1 REVERT JUMPDEST PUSH2 0x66 PUSH2 0x49 CALLDATASIZE PUSH1 0x4 PUSH2 0x115 JUMP JUMPDEST PUSH1 0x0 PUSH1 0x20 DUP2 DUP2 MSTORE SWAP3 DUP2 MSTORE PUSH1 0x40 DUP1 DUP3 KECCAK256 SWAP1 SWAP4 MSTORE SWAP1 DUP2 MSTORE KECCAK256 SLOAD PUSH1 0xFF AND DUP2 JUMP JUMPDEST PUSH1 0x40 MLOAD SWAP1 ISZERO ISZERO DUP2 MSTORE PUSH1 0x20 ADD PUSH1 0x40 MLOAD DUP1 SWAP2 SUB SWAP1 RETURN JUMPDEST PUSH2 0x8D PUSH2 0x88 CALLDATASIZE PUSH1 0x4 PUSH2 0x148 JUMP JUMPDEST PUSH2 0x8F JUMP JUMPDEST STOP JUMPDEST CALLER PUSH1 0x0 DUP2 DUP2 MSTORE PUSH1 0x20 DUP2 DUP2 MSTORE PUSH1 0x40 DUP1 DUP4 KECCAK256 PUSH1 0x1 PUSH1 0x1 PUSH1 0xA0 SHL SUB DUP8 AND DUP1 DUP6 MSTORE SWAP1 DUP4 MSTORE SWAP3 DUP2 SWAP1 KECCAK256 DUP1 SLOAD PUSH1 0xFF NOT AND DUP7 ISZERO ISZERO SWAP1 DUP2 OR SWAP1 SWAP2 SSTORE SWAP1 MLOAD SWAP1 DUP2 MSTORE SWAP2 SWAP3 SWAP2 PUSH32 0x92D241AFB0A1A9B3441BF1BD6BEA0F9164CF5A2562CBE4BCC34AB943B2465608 SWAP2 ADD PUSH1 0x40 MLOAD DUP1 SWAP2 SUB SWAP1 LOG3 POP POP JUMP JUMPDEST DUP1 CALLDATALOAD PUSH1 0x1 PUSH1 0x1 PUSH1 0xA0 SHL SUB DUP2 AND DUP2 EQ PUSH2 0x110 JUMPI PUSH1 0x0 DUP1 REVERT JUMPDEST SWAP2 SWAP1 POP JUMP JUMPDEST PUSH1 0x0 DUP1 PUSH1 0x40 DUP4 DUP6 SUB SLT ISZERO PUSH2 0x128 JUMPI PUSH1 0x0 DUP1 REVERT JUMPDEST PUSH2 0x131 DUP4 PUSH2 0xF9 JUMP JUMPDEST SWAP2 POP PUSH2 0x13F PUSH1 0x20 DUP5 ADD PUSH2 0xF9 JUMP JUMPDEST SWAP1 POP SWAP3 POP SWAP3 SWAP1 POP JUMP JUMPDEST PUSH1 0x0 DUP1 PUSH1 0x40 DUP4 DUP6 SUB SLT ISZERO PUSH2 0x15B JUMPI PUSH1 0x0 DUP1 REVERT JUMPDEST PUSH2 0x164 DUP4 PUSH2 0xF9 JUMP JUMPDEST SWAP2 POP PUSH1 0x20 DUP4 ADD CALLDATALOAD DUP1 ISZERO ISZERO DUP2 EQ PUSH2 0x179 JUMPI PUSH1 0x0 DUP1 REVERT JUMPDEST DUP1 SWAP2 POP POP SWAP3 POP SWAP3 SWAP1 POP JUMP INVALID LOG2 PUSH5 0x6970667358 0x22 SLT KECCAK256 LT EXP DUP5 SWAP7 PUSH21 0x205C090B1527388A939627ED912D2CC9F8344E062A 0xD EXTCODESIZE 0x5D SMOD 0xD2 DUP2 PUSH5 0x736F6C6343 STOP ADDMOD AND STOP CALLER "
        },
        "methodIdentifiers": {
          "isApprovedDelegate(address,address)": "1930e825",
          "setDelegateApproval(address,bool)": "c3c854b6"
        }
      }
    }
  }
}