{
  "contracts/core/BorrowerOperations.sol": {
    "BorrowerOperations": {
      "abi": [
        {
          "inputs": [
            {
              "internalType": "address",
              "name": "_vineCore",
              "type": "address"
            },
            {
              "internalType": "address",
              "name": "_debtTokenAddress",
              "type": "address"
            },
            {
              "internalType": "address",
              "name": "_factory",
              "type": "address"
            },
            {
              "internalType": "uint256",
              "name": "_minNetDebt",
              "type": "uint256"
            },
            {
              "internalType": "uint256",
              "name": "_gasCompensation",
              "type": "uint256"
            }
          ],
          "stateMutability": "nonpayable",
          "type": "constructor"
        },
        {
          "inputs": [
            {
              "internalType": "address",
              "name": "target",
              "type": "address"
            }
          ],
          "name": "AddressEmptyCode",
          "type": "error"
        },
        {
          "inputs": [
            {
              "internalType": "address",
              "name": "account",
              "type": "address"
            }
          ],
          "name": "AddressInsufficientBalance",
          "type": "error"
        },
        {
          "inputs": [],
          "name": "FailedInnerCall",
          "type": "error"
        },
        {
          "inputs": [
            {
              "internalType": "address",
              "name": "token",
              "type": "address"
            }
          ],
          "name": "SafeERC20FailedOperation",
          "type": "error"
        },
        {
          "anonymous": false,
          "inputs": [
            {
              "indexed": true,
              "internalType": "address",
              "name": "borrower",
              "type": "address"
            },
            {
              "indexed": false,
              "internalType": "contract IERC20",
              "name": "collateralToken",
              "type": "address"
            },
            {
              "indexed": false,
              "internalType": "uint256",
              "name": "amount",
              "type": "uint256"
            }
          ],
          "name": "BorrowingFeePaid",
          "type": "event"
        },
        {
          "anonymous": false,
          "inputs": [
            {
              "indexed": false,
              "internalType": "contract ITroveManager",
              "name": "troveManager",
              "type": "address"
            },
            {
              "indexed": false,
              "internalType": "contract IERC20",
              "name": "collateralToken",
              "type": "address"
            }
          ],
          "name": "CollateralConfigured",
          "type": "event"
        },
        {
          "anonymous": false,
          "inputs": [
            {
              "indexed": true,
              "internalType": "address",
              "name": "caller",
              "type": "address"
            },
            {
              "indexed": true,
              "internalType": "address",
              "name": "delegate",
              "type": "address"
            },
            {
              "indexed": false,
              "internalType": "bool",
              "name": "isApproved",
              "type": "bool"
            }
          ],
          "name": "DelegateApprovalSet",
          "type": "event"
        },
        {
          "anonymous": false,
          "inputs": [
            {
              "indexed": false,
              "internalType": "contract ITroveManager",
              "name": "troveManager",
              "type": "address"
            }
          ],
          "name": "TroveManagerRemoved",
          "type": "event"
        },
        {
          "inputs": [],
          "name": "CCR",
          "outputs": [
            {
              "internalType": "uint256",
              "name": "",
              "type": "uint256"
            }
          ],
          "stateMutability": "view",
          "type": "function"
        },
        {
          "inputs": [],
          "name": "DEBT_GAS_COMPENSATION",
          "outputs": [
            {
              "internalType": "uint256",
              "name": "",
              "type": "uint256"
            }
          ],
          "stateMutability": "view",
          "type": "function"
        },
        {
          "inputs": [],
          "name": "DECIMAL_PRECISION",
          "outputs": [
            {
              "internalType": "uint256",
              "name": "",
              "type": "uint256"
            }
          ],
          "stateMutability": "view",
          "type": "function"
        },
        {
          "inputs": [],
          "name": "PERCENT_DIVISOR",
          "outputs": [
            {
              "internalType": "uint256",
              "name": "",
              "type": "uint256"
            }
          ],
          "stateMutability": "view",
          "type": "function"
        },
        {
          "inputs": [],
          "name": "ROSE",
          "outputs": [
            {
              "internalType": "address",
              "name": "",
              "type": "address"
            }
          ],
          "stateMutability": "view",
          "type": "function"
        },
        {
          "inputs": [],
          "name": "VINE_CORE",
          "outputs": [
            {
              "internalType": "contract IVineCore",
              "name": "",
              "type": "address"
            }
          ],
          "stateMutability": "view",
          "type": "function"
        },
        {
          "inputs": [
            {
              "internalType": "contract ITroveManager",
              "name": "troveManager",
              "type": "address"
            },
            {
              "internalType": "address",
              "name": "account",
              "type": "address"
            },
            {
              "internalType": "uint256",
              "name": "_collateralAmount",
              "type": "uint256"
            },
            {
              "internalType": "address",
              "name": "_upperHint",
              "type": "address"
            },
            {
              "internalType": "address",
              "name": "_lowerHint",
              "type": "address"
            }
          ],
          "name": "addColl",
          "outputs": [],
          "stateMutability": "payable",
          "type": "function"
        },
        {
          "inputs": [
            {
              "internalType": "contract ITroveManager",
              "name": "troveManager",
              "type": "address"
            },
            {
              "internalType": "address",
              "name": "account",
              "type": "address"
            },
            {
              "internalType": "uint256",
              "name": "_maxFeePercentage",
              "type": "uint256"
            },
            {
              "internalType": "uint256",
              "name": "_collDeposit",
              "type": "uint256"
            },
            {
              "internalType": "uint256",
              "name": "_collWithdrawal",
              "type": "uint256"
            },
            {
              "internalType": "uint256",
              "name": "_debtChange",
              "type": "uint256"
            },
            {
              "internalType": "bool",
              "name": "_isDebtIncrease",
              "type": "bool"
            },
            {
              "internalType": "address",
              "name": "_upperHint",
              "type": "address"
            },
            {
              "internalType": "address",
              "name": "_lowerHint",
              "type": "address"
            }
          ],
          "name": "adjustTrove",
          "outputs": [],
          "stateMutability": "payable",
          "type": "function"
        },
        {
          "inputs": [
            {
              "internalType": "uint256",
              "name": "TCR",
              "type": "uint256"
            }
          ],
          "name": "checkRecoveryMode",
          "outputs": [
            {
              "internalType": "bool",
              "name": "",
              "type": "bool"
            }
          ],
          "stateMutability": "pure",
          "type": "function"
        },
        {
          "inputs": [
            {
              "internalType": "contract ITroveManager",
              "name": "troveManager",
              "type": "address"
            },
            {
              "internalType": "address",
              "name": "account",
              "type": "address"
            }
          ],
          "name": "closeTrove",
          "outputs": [],
          "stateMutability": "nonpayable",
          "type": "function"
        },
        {
          "inputs": [
            {
              "internalType": "contract ITroveManager",
              "name": "troveManager",
              "type": "address"
            },
            {
              "internalType": "contract IERC20",
              "name": "collateralToken",
              "type": "address"
            }
          ],
          "name": "configureCollateral",
          "outputs": [],
          "stateMutability": "nonpayable",
          "type": "function"
        },
        {
          "inputs": [],
          "name": "debtToken",
          "outputs": [
            {
              "internalType": "contract IDebtToken",
              "name": "",
              "type": "address"
            }
          ],
          "stateMutability": "view",
          "type": "function"
        },
        {
          "inputs": [],
          "name": "factory",
          "outputs": [
            {
              "internalType": "address",
              "name": "",
              "type": "address"
            }
          ],
          "stateMutability": "view",
          "type": "function"
        },
        {
          "inputs": [],
          "name": "fetchBalances",
          "outputs": [
            {
              "components": [
                {
                  "internalType": "uint256[]",
                  "name": "collaterals",
                  "type": "uint256[]"
                },
                {
                  "internalType": "uint256[]",
                  "name": "debts",
                  "type": "uint256[]"
                },
                {
                  "internalType": "uint256[]",
                  "name": "prices",
                  "type": "uint256[]"
                }
              ],
              "internalType": "struct BorrowerOperations.SystemBalances",
              "name": "balances",
              "type": "tuple"
            }
          ],
          "stateMutability": "nonpayable",
          "type": "function"
        },
        {
          "inputs": [
            {
              "internalType": "uint256",
              "name": "_debt",
              "type": "uint256"
            }
          ],
          "name": "getCompositeDebt",
          "outputs": [
            {
              "internalType": "uint256",
              "name": "",
              "type": "uint256"
            }
          ],
          "stateMutability": "view",
          "type": "function"
        },
        {
          "inputs": [],
          "name": "getGlobalSystemBalances",
          "outputs": [
            {
              "internalType": "uint256",
              "name": "totalPricedCollateral",
              "type": "uint256"
            },
            {
              "internalType": "uint256",
              "name": "totalDebt",
              "type": "uint256"
            }
          ],
          "stateMutability": "nonpayable",
          "type": "function"
        },
        {
          "inputs": [],
          "name": "getTCR",
          "outputs": [
            {
              "internalType": "uint256",
              "name": "globalTotalCollateralRatio",
              "type": "uint256"
            }
          ],
          "stateMutability": "nonpayable",
          "type": "function"
        },
        {
          "inputs": [],
          "name": "guardian",
          "outputs": [
            {
              "internalType": "address",
              "name": "",
              "type": "address"
            }
          ],
          "stateMutability": "view",
          "type": "function"
        },
        {
          "inputs": [
            {
              "internalType": "address",
              "name": "owner",
              "type": "address"
            },
            {
              "internalType": "address",
              "name": "caller",
              "type": "address"
            }
          ],
          "name": "isApprovedDelegate",
          "outputs": [
            {
              "internalType": "bool",
              "name": "isApproved",
              "type": "bool"
            }
          ],
          "stateMutability": "view",
          "type": "function"
        },
        {
          "inputs": [],
          "name": "minNetDebt",
          "outputs": [
            {
              "internalType": "uint256",
              "name": "",
              "type": "uint256"
            }
          ],
          "stateMutability": "view",
          "type": "function"
        },
        {
          "inputs": [
            {
              "internalType": "contract ITroveManager",
              "name": "troveManager",
              "type": "address"
            },
            {
              "internalType": "address",
              "name": "account",
              "type": "address"
            },
            {
              "internalType": "uint256",
              "name": "_maxFeePercentage",
              "type": "uint256"
            },
            {
              "internalType": "uint256",
              "name": "_collateralAmount",
              "type": "uint256"
            },
            {
              "internalType": "uint256",
              "name": "_debtAmount",
              "type": "uint256"
            },
            {
              "internalType": "address",
              "name": "_upperHint",
              "type": "address"
            },
            {
              "internalType": "address",
              "name": "_lowerHint",
              "type": "address"
            }
          ],
          "name": "openTrove",
          "outputs": [],
          "stateMutability": "payable",
          "type": "function"
        },
        {
          "inputs": [],
          "name": "owner",
          "outputs": [
            {
              "internalType": "address",
              "name": "",
              "type": "address"
            }
          ],
          "stateMutability": "view",
          "type": "function"
        },
        {
          "inputs": [
            {
              "internalType": "contract ITroveManager",
              "name": "troveManager",
              "type": "address"
            }
          ],
          "name": "removeTroveManager",
          "outputs": [],
          "stateMutability": "nonpayable",
          "type": "function"
        },
        {
          "inputs": [
            {
              "internalType": "contract ITroveManager",
              "name": "troveManager",
              "type": "address"
            },
            {
              "internalType": "address",
              "name": "account",
              "type": "address"
            },
            {
              "internalType": "uint256",
              "name": "_debtAmount",
              "type": "uint256"
            },
            {
              "internalType": "address",
              "name": "_upperHint",
              "type": "address"
            },
            {
              "internalType": "address",
              "name": "_lowerHint",
              "type": "address"
            }
          ],
          "name": "repayDebt",
          "outputs": [],
          "stateMutability": "nonpayable",
          "type": "function"
        },
        {
          "inputs": [
            {
              "internalType": "address",
              "name": "to",
              "type": "address"
            },
            {
              "internalType": "uint256",
              "name": "amount",
              "type": "uint256"
            }
          ],
          "name": "sendRose",
          "outputs": [],
          "stateMutability": "nonpayable",
          "type": "function"
        },
        {
          "inputs": [
            {
              "internalType": "address",
              "name": "_delegate",
              "type": "address"
            },
            {
              "internalType": "bool",
              "name": "_isApproved",
              "type": "bool"
            }
          ],
          "name": "setDelegateApproval",
          "outputs": [],
          "stateMutability": "nonpayable",
          "type": "function"
        },
        {
          "inputs": [
            {
              "internalType": "uint256",
              "name": "_minNetDebt",
              "type": "uint256"
            }
          ],
          "name": "setMinNetDebt",
          "outputs": [],
          "stateMutability": "nonpayable",
          "type": "function"
        },
        {
          "inputs": [
            {
              "internalType": "contract ITroveManager",
              "name": "",
              "type": "address"
            }
          ],
          "name": "troveManagersData",
          "outputs": [
            {
              "internalType": "contract IERC20",
              "name": "collateralToken",
              "type": "address"
            },
            {
              "internalType": "uint16",
              "name": "index",
              "type": "uint16"
            }
          ],
          "stateMutability": "view",
          "type": "function"
        },
        {
          "inputs": [
            {
              "internalType": "contract ITroveManager",
              "name": "troveManager",
              "type": "address"
            },
            {
              "internalType": "address",
              "name": "account",
              "type": "address"
            },
            {
              "internalType": "uint256",
              "name": "_collWithdrawal",
              "type": "uint256"
            },
            {
              "internalType": "address",
              "name": "_upperHint",
              "type": "address"
            },
            {
              "internalType": "address",
              "name": "_lowerHint",
              "type": "address"
            }
          ],
          "name": "withdrawColl",
          "outputs": [],
          "stateMutability": "nonpayable",
          "type": "function"
        },
        {
          "inputs": [
            {
              "internalType": "contract ITroveManager",
              "name": "troveManager",
              "type": "address"
            },
            {
              "internalType": "address",
              "name": "account",
              "type": "address"
            },
            {
              "internalType": "uint256",
              "name": "_maxFeePercentage",
              "type": "uint256"
            },
            {
              "internalType": "uint256",
              "name": "_debtAmount",
              "type": "uint256"
            },
            {
              "internalType": "address",
              "name": "_upperHint",
              "type": "address"
            },
            {
              "internalType": "address",
              "name": "_lowerHint",
              "type": "address"
            }
          ],
          "name": "withdrawDebt",
          "outputs": [],
          "stateMutability": "nonpayable",
          "type": "function"
        }
      ],
      "evm": {
        "bytecode": {
          "linkReferences": {},
          "object": "61012060405273eeeeeeeeeeeeeeeeeeeeeeeeeeeeeeeeeeeeeeee610100523480156200002b57600080fd5b5060405162003387380380620033878339810160408190526200004e91620000b2565b60808190526001600160a01b0380861660a05284811660c052831660e052620000778262000082565b50505050506200010f565b600081116200009057600080fd5b600155565b80516001600160a01b0381168114620000ad57600080fd5b919050565b600080600080600060a08688031215620000cb57600080fd5b620000d68662000095565b9450620000e66020870162000095565b9350620000f66040870162000095565b6060870151608090970151959894975095949392505050565b60805160a05160c05160e051610100516131a7620001e0600039600081816101890152818161095901528181611664015281816116dc01528181611b1f01526125d701526000818161050c0152610e65015260008181610593015281816109d201528181610dc00152611d430152600081816103da0152818161062801528181610a5c01528181610b3901528181610f9c0152818161137a0152818161152f01528181611a660152611d7201526000818161027301528181610df001528181611f0b015261295b01526131a76000f3fe60806040526004361061015d5760003560e01c806311c61ad31461016257806315b6dd82146101775780631930e825146101c1578063438d641a14610209578063452a9320146102295780634870dd9a1461023e5780634ba4a28b146102615780634e443d9e146102955780634ff81443146102bd578063568d6fe5146102dd5780635733d58f146103425780635f5486141461035e578063716c53c21461037e578063778c5c64146103a857806382d61d16146103c85780638da5cb5b146103fc578063969c245214610411578063a20baee614610427578063a2e8dc0a14610443578063a6b6c8ee14610463578063b51237a914610483578063b620115d146104a5578063c2af1eca146104ba578063c3c854b6146104da578063c45a0155146104fa578063c5a62a991461052e578063c61b9a4414610541578063e19c80c214610561578063f8d8989814610581578063fded3d35146105b5575b600080fd5b610175610170366004612bb9565b6105c8565b005b34801561018357600080fd5b506101ab7f000000000000000000000000000000000000000000000000000000000000000081565b6040516101b89190612c34565b60405180910390f35b3480156101cd57600080fd5b506101f96101dc366004612c48565b600060208181529281526040808220909352908152205460ff1681565b60405190151581526020016101b8565b34801561021557600080fd5b50610175610224366004612c81565b610a5a565b34801561023557600080fd5b506101ab610b35565b34801561024a57600080fd5b5061025360c881565b6040519081526020016101b8565b34801561026d57600080fd5b506102537f000000000000000000000000000000000000000000000000000000000000000081565b3480156102a157600080fd5b506101f96102b0366004612c81565b6718fae27693b400001190565b3480156102c957600080fd5b506102536102d8366004612c81565b610bbe565b3480156102e957600080fd5b506103206102f8366004612c9a565b6002602052600090815260409020546001600160a01b03811690600160a01b900461ffff1682565b604080516001600160a01b03909316835261ffff9091166020830152016101b8565b34801561034e57600080fd5b506102536718fae27693b4000081565b34801561036a57600080fd5b50610175610379366004612c48565b610bcf565b34801561038a57600080fd5b50610393610e37565b604080519283526020830191909152016101b8565b3480156103b457600080fd5b506101756103c3366004612c48565b610e5a565b3480156103d457600080fd5b506101ab7f000000000000000000000000000000000000000000000000000000000000000081565b34801561040857600080fd5b506101ab610f98565b34801561041d57600080fd5b5061025360015481565b34801561043357600080fd5b50610253670de0b6b3a764000081565b34801561044f57600080fd5b5061017561045e366004612cb7565b610ff8565b34801561046f57600080fd5b5061017561047e366004612cb7565b611069565b34801561048f57600080fd5b506104986110d1565b6040516101b89190612d5b565b3480156104b157600080fd5b50610253611304565b3480156104c657600080fd5b506101756104d5366004612dbc565b611323565b3480156104e657600080fd5b506101756104f5366004612e3a565b61145c565b34801561050657600080fd5b506101ab7f000000000000000000000000000000000000000000000000000000000000000081565b61017561053c366004612e68565b6114c6565b34801561054d57600080fd5b5061017561055c366004612f00565b6116ca565b34801561056d57600080fd5b5061017561057c366004612c9a565b61174d565b34801561058d57600080fd5b506101ab7f000000000000000000000000000000000000000000000000000000000000000081565b6101756105c3366004612cb7565b611a0f565b85336001600160a01b038216148061060157506001600160a01b03811660009081526020818152604080832033845290915290205460ff165b6106265760405162461bcd60e51b815260040161061d90612f2c565b60405180910390fd5b7f00000000000000000000000000000000000000000000000000000000000000006001600160a01b0316635c975abb6040518163ffffffff1660e01b8152600401602060405180830381865afa158015610684573d6000803e3d6000fd5b505050506040513d601f19601f820116820180604052508101906106a89190612f5b565b156106eb5760405162461bcd60e51b815260206004820152601360248201527211195c1bdcda5d1cc8185c99481c185d5cd959606a1b604482015260640161061d565b600061073c6040518061012001604052806000815260200160008152602001600081526020016000815260200160008152602001600081526020016000815260200160008152602001600081525090565b60006107478b611b7a565b60408701919091526020860191909152908452909350905061076889611c51565b6060820187905280610796576107818b848c8c8b611cc4565b82606001516107909190612f8e565b60608301525b6107a38260600151611e8f565b6107b08260600151611f04565b6080830181905282516107c4918a91611f30565b60a083015260808201516107d9908990611f64565b60c083015280156107f6576107f18260a00151611f9b565b61089f565b6108658260a001518c6001600160a01b031663794e57246040518163ffffffff1660e01b8152600401602060405180830381865afa15801561083c573d6000803e3d6000fd5b505050506040513d601f19601f820116820180604052508101906108609190612fa1565b612013565b60006108928360200151846040015185600001518c6108849190612fba565b60018760800151600161208d565b905061089d816120e7565b505b608082015160c0830151604051634cb653b760e01b81526001600160a01b038d81166004830152602482018c905260448201939093526064810191909152878216608482015286821660a482015282151560c4820152908c1690634cb653b79060e40160408051808303816000875af1158015610920573d6000803e3d6000fd5b505050506040513d601f19601f820116820180604052508101906109449190612fd1565b61010084015260e08301526001600160a01b037f00000000000000000000000000000000000000000000000000000000000000008116908416036109a6578734146109a15760405162461bcd60e51b815260040161061d90612ff5565b6109bb565b6109bb6001600160a01b038416338d8b612165565b60405163467fafdf60e11b81526001600160a01b037f00000000000000000000000000000000000000000000000000000000000000001690638cff5fbe90610a099033908b90600401613011565b6020604051808303816000875af1158015610a28573d6000803e3d6000fd5b505050506040513d601f19601f82011682018060405250810190610a4c9190612f5b565b505050505050505050505050565b7f00000000000000000000000000000000000000000000000000000000000000006001600160a01b0316638da5cb5b6040518163ffffffff1660e01b8152600401602060405180830381865afa158015610ab8573d6000803e3d6000fd5b505050506040513d601f19601f82011682018060405250810190610adc919061302a565b6001600160a01b0316336001600160a01b031614610b295760405162461bcd60e51b815260206004820152600a60248201526927b7363c9037bbb732b960b11b604482015260640161061d565b610b32816121c5565b50565b60007f00000000000000000000000000000000000000000000000000000000000000006001600160a01b031663452a93206040518163ffffffff1660e01b8152600401602060405180830381865afa158015610b95573d6000803e3d6000fd5b505050506040513d601f19601f82011682018060405250810190610bb9919061302a565b905090565b6000610bc982611f04565b92915050565b80336001600160a01b0382161480610c0857506001600160a01b03811660009081526020818152604080832033845290915290205460ff165b610c245760405162461bcd60e51b815260040161061d90612f2c565b6000806000806000610c3588611b7a565b93985091965091945090925090508215610cb35760405162461bcd60e51b815260206004820152603960248201527f426f72726f7765724f70733a204f7065726174696f6e206e6f74207065726d696044820152787474656420647572696e67205265636f76657279204d6f646560381b606482015260840161061d565b600080896001600160a01b0316630b0765578a6040518263ffffffff1660e01b8152600401610ce29190612c34565b60408051808303816000875af1158015610d00573d6000803e3d6000fd5b505050506040513d601f19601f82011682018060405250810190610d249190612fd1565b90925090506000610d448585610d3a8a87612fba565b600086600061208d565b9050610d4f816120e7565b60405163c9a4cbf160e01b81526001600160a01b038b8116600483015233602483015260448201859052606482018490528c169063c9a4cbf190608401600060405180830381600087803b158015610da657600080fd5b505af1158015610dba573d6000803e3d6000fd5b505050507f00000000000000000000000000000000000000000000000000000000000000006001600160a01b03166385177509337f000000000000000000000000000000000000000000000000000000000000000085610e1a9190613047565b6040518363ffffffff1660e01b8152600401610a09929190613011565b6000806000610e446110d1565b9050610e4f816121d7565b909590945092505050565b336001600160a01b037f00000000000000000000000000000000000000000000000000000000000000001614610ebd5760405162461bcd60e51b815260206004820152600860248201526721666163746f727960c01b604482015260640161061d565b6040805180820182526001600160a01b038381168083526003805461ffff9081166020808701918252898616600081815260028352898120985189549451909516600160a01b026001600160b01b03199094169490971693909317919091179095558154600181018355919093527fc2575a0e9e593c00f959f8c92f12db2869c3395a3b0502d05e2516446f71f85b0180546001600160a01b031916831790558351918252918101919091527ff6e0528dc0c0ef50525339faff44940d57e7897bee18b67dd0aa23bba1749ad2910160405180910390a15050565b60007f00000000000000000000000000000000000000000000000000000000000000006001600160a01b0316638da5cb5b6040518163ffffffff1660e01b8152600401602060405180830381865afa158015610b95573d6000803e3d6000fd5b83336001600160a01b038216148061103157506001600160a01b03811660009081526020818152604080832033845290915290205460ff165b61104d5760405162461bcd60e51b815260040161061d90612f2c565b611061868660008060008960008a8a612285565b505050505050565b83336001600160a01b03821614806110a257506001600160a01b03811660009081526020818152604080832033845290915290205460ff165b6110be5760405162461bcd60e51b815260040161061d90612f2c565b6110618686600080886000808a8a612285565b6110f560405180606001604052806060815260200160608152602001606081525090565b600354604080516060810190915280826001600160401b0381111561111c5761111c61305a565b604051908082528060200260200182016040528015611145578160200160208202803683370190505b508152602001826001600160401b038111156111635761116361305a565b60405190808252806020026020018201604052801561118c578160200160208202803683370190505b508152602001826001600160401b038111156111aa576111aa61305a565b6040519080825280602002602001820160405280156111d3578160200160208202803683370190505b509052915060005b818110156112ff576000600382815481106111f8576111f8613070565b9060005260206000200160009054906101000a90046001600160a01b031690506000806000836001600160a01b03166301c799fc6040518163ffffffff1660e01b81526004016060604051808303816000875af115801561125d573d6000803e3d6000fd5b505050506040513d601f19601f820116820180604052508101906112819190613086565b925092509250828760000151868151811061129e5761129e613070565b60200260200101818152505081876020015186815181106112c1576112c1613070565b60200260200101818152505080876040015186815181106112e4576112e4613070565b602002602001018181525050846001019450505050506111db565b505090565b60008061130f6110d1565b905061131a816121d7565b50909392505050565b84336001600160a01b038216148061135c57506001600160a01b03811660009081526020818152604080832033845290915290205460ff165b6113785760405162461bcd60e51b815260040161061d90612f2c565b7f00000000000000000000000000000000000000000000000000000000000000006001600160a01b0316635c975abb6040518163ffffffff1660e01b8152600401602060405180830381865afa1580156113d6573d6000803e3d6000fd5b505050506040513d601f19601f820116820180604052508101906113fa9190612f5b565b156114405760405162461bcd60e51b815260206004820152601660248201527515da5d1a191c985dd85b1cc8185c99481c185d5cd95960521b604482015260640161061d565b6114538787876000808960018a8a612285565b50505050505050565b336000818152602081815260408083206001600160a01b03871680855290835292819020805460ff191686151590811790915590519081529192917f92d241afb0a1a9b3441bf1bd6bea0f9164cf5a2562cbe4bcc34ab943b2465608910160405180910390a35050565b87336001600160a01b03821614806114ff57506001600160a01b03811660009081526020818152604080832033845290915290205460ff165b61151b5760405162461bcd60e51b815260040161061d90612f2c565b86158015611527575083155b806115b157507f00000000000000000000000000000000000000000000000000000000000000006001600160a01b0316635c975abb6040518163ffffffff1660e01b8152600401602060405180830381865afa15801561158b573d6000803e3d6000fd5b505050506040513d601f19601f820116820180604052508101906115af9190612f5b565b155b6115cd5760405162461bcd60e51b815260040161061d906130b4565b8615806115d8575085155b61163d5760405162461bcd60e51b815260206004820152603060248201527f426f72726f7765724f7065726174696f6e733a2043616e6e6f7420776974686460448201526f1c985dc8185b99081859190818dbdb1b60821b606482015260840161061d565b60008711801561168957506001600160a01b038a81166000908152600260205260409020547f000000000000000000000000000000000000000000000000000000000000000082169116145b156116ad578634146116ad5760405162461bcd60e51b815260040161061d90612ff5565b6116be8a8a8a8a8a8a8a8a8a612285565b50505050505050505050565b336000908152600260205260409020547f00000000000000000000000000000000000000000000000000000000000000006001600160a01b0390811691161461171257600080fd5b6040516001600160a01b0383169082156108fc029083906000818181858888f19350505050158015611748573d6000803e3d6000fd5b505050565b6001600160a01b03818116600090815260026020908152604091829020825180840190935254928316808352600160a01b90930461ffff169082015290158015906117f55750816001600160a01b0316639484fb8e6040518163ffffffff1660e01b8152600401602060405180830381865afa1580156117d1573d6000803e3d6000fd5b505050506040513d601f19601f820116820180604052508101906117f59190612f5b565b80156118605750816001600160a01b031663795d26c36040518163ffffffff1660e01b8152600401602060405180830381865afa15801561183a573d6000803e3d6000fd5b505050506040513d601f19601f8201168201806040525081019061185e9190612fa1565b155b6118ac5760405162461bcd60e51b815260206004820152601f60248201527f54726f7665204d616e616765722063616e6e6f742062652072656d6f76656400604482015260640161061d565b6001600160a01b038216600090815260026020526040812080546001600160b01b03191690556003546118e190600190613047565b905080826020015161ffff16101561199f5760006003828154811061190857611908613070565b9060005260206000200160009054906101000a90046001600160a01b03169050806003846020015161ffff168154811061194457611944613070565b6000918252602080832090910180546001600160a01b039485166001600160a01b031990911617905585810151939092168152600290915260409020805461ffff909216600160a01b0261ffff60a01b199092169190911790555b60038054806119b0576119b06130ea565b600082815260209020810160001990810180546001600160a01b03191690550190556040517fe44bbef3bc872937d7daf489db0badffc044d1813a027aea391838c54651430390611a02908590612c34565b60405180910390a1505050565b83336001600160a01b0382161480611a4857506001600160a01b03811660009081526020818152604080832033845290915290205460ff165b611a645760405162461bcd60e51b815260040161061d90612f2c565b7f00000000000000000000000000000000000000000000000000000000000000006001600160a01b0316635c975abb6040518163ffffffff1660e01b8152600401602060405180830381865afa158015611ac2573d6000803e3d6000fd5b505050506040513d601f19601f82011682018060405250810190611ae69190612f5b565b15611b035760405162461bcd60e51b815260040161061d906130b4565b6001600160a01b038681166000908152600260205260409020547f00000000000000000000000000000000000000000000000000000000000000008216911603611b6657833414611b665760405162461bcd60e51b815260040161061d90612ff5565b611061868660008760008060008a8a612285565b6001600160a01b03818116600090815260026020526040812080549283169282918291829190600160a01b900461ffff1686611bf15760405162461bcd60e51b815260206004820152601660248201527510dbdb1b185d195c985b081b9bdd08195b98589b195960521b604482015260640161061d565b600080611bfc6110d1565b9050611c07816121d7565b90985096509150611c1f826718fae27693b400001190565b94508881604001518481518110611c3857611c38613070565b6020026020010151985098505050505091939590929450565b670de0b6b3a7640000811115610b325760405162461bcd60e51b815260206004820152603260248201527f4d6178206665652070657263656e74616765206d757374206c657373207468616044820152716e206f7220657175616c20746f203130302560701b606482015260840161061d565b60405163b2f29d7b60e01b81526004810182905260009081906001600160a01b0388169063b2f29d7b906024016020604051808303816000875af1158015611d10573d6000803e3d6000fd5b505050506040513d601f19601f82011682018060405250810190611d349190612fa1565b9050611d4181848661271e565b7f00000000000000000000000000000000000000000000000000000000000000006001600160a01b03166340c10f197f00000000000000000000000000000000000000000000000000000000000000006001600160a01b031663b3f006746040518163ffffffff1660e01b8152600401602060405180830381865afa158015611dce573d6000803e3d6000fd5b505050506040513d601f19601f82011682018060405250810190611df2919061302a565b836040518363ffffffff1660e01b8152600401611e10929190613011565b600060405180830381600087803b158015611e2a57600080fd5b505af1158015611e3e573d6000803e3d6000fd5b50505050846001600160a01b03167fd89359f0d8e7f936d0682c5565cc5a16989a91560a80c7b06c46c28e52a5d43a8783604051611e7d929190613011565b60405180910390a29695505050505050565b600154811015610b325760405162461bcd60e51b815260206004820152603a60248201527f426f72726f7765724f70733a2054726f76652773206e65742064656274206d7560448201527973742062652067726561746572207468616e206d696e696d756d60301b606482015260840161061d565b6000610bc97f000000000000000000000000000000000000000000000000000000000000000083612f8e565b60008215611f5857600083611f458487612fba565b611f4f9190613100565b9150611f5d9050565b506000195b9392505050565b60008115611f915781611f8068056bc75e2d6310000085612fba565b611f8a9190613100565b9050610bc9565b5060001992915050565b6718fae27693b40000811015610b325760405162461bcd60e51b815260206004820152603760248201527f426f72726f7765724f70733a204f7065726174696f6e206d757374206c65617660448201527632903a3937bb32903bb4ba341024a1a9101f1e9021a1a960491b606482015260840161061d565b808210156120895760405162461bcd60e51b8152602060048201526049602482015260008051602061315283398151915260448201527f6f756c6420726573756c7420696e20494352203c204d4352206973206e6f74206064820152681c195c9b5a5d1d195960ba1b608482015260a40161061d565b5050565b6000816120a35761209e8387613047565b6120ad565b6120ad8387612f8e565b9550836120c3576120be8588613047565b6120cd565b6120cd8588612f8e565b965060006120db888861278f565b98975050505050505050565b6718fae27693b40000811015610b325760405162461bcd60e51b8152602060048201526049602482015260008051602061315283398151915260448201527f6f756c6420726573756c7420696e20544352203c20434352206973206e6f74206064820152681c195c9b5a5d1d195960ba1b608482015260a40161061d565b604080516001600160a01b0385811660248301528416604482015260648082018490528251808303909101815260849091019091526020810180516001600160e01b03166323b872dd60e01b1790526121bf9085906127ac565b50505050565b600081116121d257600080fd5b600155565b80515160009081908190815b81811015612270578560400151818151811061220157612201613070565b60200260200101518660000151828151811061221f5761221f613070565b60200260200101516122319190612fba565b61223b9085612f8e565b93508560200151818151811061225357612253613070565b6020026020010151836122669190612f8e565b92506001016121e3565b5061227b838361278f565b9350509193909250565b8515158061229257508415155b8061229c57508315155b61231d5760405162461bcd60e51b815260206004820152604660248201527f426f72726f7765724f70733a205468657265206d75737420626520656974686560448201527f72206120636f6c6c61746572616c206368616e6765206f7220612064656274206064820152656368616e676560d01b608482015260a40161061d565b600061239c604051806101c00160405280600081526020016000815260200160008152602001600081526020016000815260200160001515815260200160008152602001600081526020016000815260200160008152602001600081526020016000815260200160006001600160a01b03168152602001600081525090565b60006123a78c611b7a565b60408088019290925260208701929092529185529051630b07655760e01b815291945091506001600160a01b038d1690630b076557906123eb908e90600401612c34565b60408051808303816000875af1158015612409573d6000803e3d6000fd5b505050506040513d601f19601f8201168201806040525081019061242d9190612fd1565b60c084015260e08301526124418989612806565b151560a084015260608301526080820187905261016082018790526001600160a01b03808c1661018084015260408051631e5395c960e21b81529051918e169163794e5724916004808201926020929091908290030181865afa1580156124ac573d6000803e3d6000fd5b505050506040513d601f19601f820116820180604052508101906124d09190612fa1565b6101a0830152851561257c576000871161254c5760405162461bcd60e51b815260206004820152603760248201527f426f72726f7765724f70733a204465627420696e637265617365207265717569604482015276726573206e6f6e2d7a65726f20646562744368616e676560481b606482015260840161061d565b6125558a611c51565b8061257c576125678c84338d8b611cc4565b826080018181516125789190612f8e565b9052505b61259282602001518360400151838b8a87612825565b851580156125a05750600087115b156125c9576125c982608001516125ba8460c00151612954565b6125c49190613047565b611e8f565b8160a00151801561260c57507f00000000000000000000000000000000000000000000000000000000000000006001600160a01b0316836001600160a01b031614155b1561262e57606082015161262e906001600160a01b0385169033908f90612165565b610160820151608083015160a084015160608501516101808601516040516311c82bd560e31b815286151560048201528b1515602482015260448101959095526064850193909352901515608484015260a48301526001600160a01b0387811660c484015286811660e4840152908116610104830152336101248301528d1690638e415ea890610144016060604051808303816000875af11580156126d7573d6000803e3d6000fd5b505050506040513d601f19601f820116820180604052508101906126fb9190613086565b610140850152610100840152610120909201919091525050505050505050505050565b600082612733670de0b6b3a764000086612fba565b61273d9190613100565b9050818111156121bf5760405162461bcd60e51b815260206004820152601d60248201527f4665652065786365656465642070726f7669646564206d6178696d756d000000604482015260640161061d565b60008115611f915760006127a38385613100565b9150610bc99050565b60006127c16001600160a01b03841683612980565b905080516000141580156127e65750808060200190518101906127e49190612f5b565b155b156117485782604051635274afe760e01b815260040161061d9190612c34565b600080831561281a5750829050600161281e565b8291505b9250929050565b600061283e8260e001518360c001518460000151611f30565b905060006128698360e001518460c0015185606001518660a00151876080015189896000015161298e565b905085156129035784156128e55760405162461bcd60e51b815260206004820152603e60248201527f426f72726f7765724f70733a20436f6c6c61746572616c20776974686472617760448201527f616c206e6f74207065726d6974746564205265636f76657279204d6f64650000606482015260840161061d565b83156128fe576128f481611f9b565b6128fe81836129c1565b61294a565b61291281846101a00151612013565b600061293d89898660000151876060015161292d9190612fba565b8760a0015188608001518a61208d565b9050612948816120e7565b505b5050505050505050565b6000610bc97f000000000000000000000000000000000000000000000000000000000000000083613047565b6060611f5d83836000612a37565b60008060006129a18a8a8a8a8a8a612ad4565b9150915060006129b2838387611f30565b9b9a5050505050505050505050565b808210156120895760405162461bcd60e51b815260206004820152603e60248201527f426f72726f7765724f70733a2043616e6e6f7420646563726561736520796f7560448201527f722054726f766527732049435220696e205265636f76657279204d6f64650000606482015260840161061d565b606081471015612a5c573060405163cd78605960e01b815260040161061d9190612c34565b600080856001600160a01b03168486604051612a789190613122565b60006040518083038185875af1925050503d8060008114612ab5576040519150601f19603f3d011682016040523d82523d6000602084013e612aba565b606091505b5091509150612aca868383612b28565b9695505050505050565b600080878786612aed57612ae8888b613047565b612af7565b612af7888b612f8e565b915084612b0d57612b08868a613047565b612b17565b612b17868a612f8e565b919a91995090975050505050505050565b606082612b3d57612b3882612b7b565b611f5d565b8151158015612b5457506001600160a01b0384163b155b15612b745783604051639996b31560e01b815260040161061d9190612c34565b5080611f5d565b805115612b8b5780518082602001fd5b604051630a12f52160e11b815260040160405180910390fd5b6001600160a01b0381168114610b3257600080fd5b600080600080600080600060e0888a031215612bd457600080fd5b8735612bdf81612ba4565b96506020880135612bef81612ba4565b955060408801359450606088013593506080880135925060a0880135612c1481612ba4565b915060c0880135612c2481612ba4565b8091505092959891949750929550565b6001600160a01b0391909116815260200190565b60008060408385031215612c5b57600080fd5b8235612c6681612ba4565b91506020830135612c7681612ba4565b809150509250929050565b600060208284031215612c9357600080fd5b5035919050565b600060208284031215612cac57600080fd5b8135611f5d81612ba4565b600080600080600060a08688031215612ccf57600080fd5b8535612cda81612ba4565b94506020860135612cea81612ba4565b9350604086013592506060860135612d0181612ba4565b91506080860135612d1181612ba4565b809150509295509295909350565b60008151808452602080850194506020840160005b83811015612d5057815187529582019590820190600101612d34565b509495945050505050565b602081526000825160606020840152612d776080840182612d1f565b90506020840151601f1980858403016040860152612d958383612d1f565b9250604086015191508085840301606086015250612db38282612d1f565b95945050505050565b60008060008060008060c08789031215612dd557600080fd5b8635612de081612ba4565b95506020870135612df081612ba4565b945060408701359350606087013592506080870135612e0e81612ba4565b915060a0870135612e1e81612ba4565b809150509295509295509295565b8015158114610b3257600080fd5b60008060408385031215612e4d57600080fd5b8235612e5881612ba4565b91506020830135612c7681612e2c565b60008060008060008060008060006101208a8c031215612e8757600080fd5b8935612e9281612ba4565b985060208a0135612ea281612ba4565b975060408a0135965060608a0135955060808a0135945060a08a0135935060c08a0135612ece81612e2c565b925060e08a0135612ede81612ba4565b91506101008a0135612eef81612ba4565b809150509295985092959850929598565b60008060408385031215612f1357600080fd5b8235612f1e81612ba4565b946020939093013593505050565b60208082526015908201527411195b1959d85d19481b9bdd08185c1c1c9bdd9959605a1b604082015260600190565b600060208284031215612f6d57600080fd5b8151611f5d81612e2c565b634e487b7160e01b600052601160045260246000fd5b80820180821115610bc957610bc9612f78565b600060208284031215612fb357600080fd5b5051919050565b8082028115828204841417610bc957610bc9612f78565b60008060408385031215612fe457600080fd5b505080516020909101519092909150565b6020808252600290820152614e4560f01b604082015260600190565b6001600160a01b03929092168252602082015260400190565b60006020828403121561303c57600080fd5b8151611f5d81612ba4565b81810381811115610bc957610bc9612f78565b634e487b7160e01b600052604160045260246000fd5b634e487b7160e01b600052603260045260246000fd5b60008060006060848603121561309b57600080fd5b8351925060208401519150604084015190509250925092565b6020808252601c908201527b151c9bdd994818591a9d5cdd1b595b9d1cc8185c99481c185d5cd95960221b604082015260600190565b634e487b7160e01b600052603160045260246000fd5b60008261311d57634e487b7160e01b600052601260045260246000fd5b500490565b6000825160005b818110156131435760208186018101518583015201613129565b50600092019182525091905056fe426f72726f7765724f70733a20416e206f7065726174696f6e20746861742077a26469706673582212207d3c16fd43e836eee8b3efa6542a133102bcd75c36ef124e89af5b7ec5c9bfb864736f6c63430008160033",
          "opcodes": "PUSH2 0x120 PUSH1 0x40 MSTORE PUSH20 0xEEEEEEEEEEEEEEEEEEEEEEEEEEEEEEEEEEEEEEEE PUSH2 0x100 MSTORE CALLVALUE DUP1 ISZERO PUSH3 0x2B JUMPI PUSH1 0x0 DUP1 REVERT JUMPDEST POP PUSH1 0x40 MLOAD PUSH3 0x3387 CODESIZE SUB DUP1 PUSH3 0x3387 DUP4 CODECOPY DUP2 ADD PUSH1 0x40 DUP2 SWAP1 MSTORE PUSH3 0x4E SWAP2 PUSH3 0xB2 JUMP JUMPDEST PUSH1 0x80 DUP2 SWAP1 MSTORE PUSH1 0x1 PUSH1 0x1 PUSH1 0xA0 SHL SUB DUP1 DUP7 AND PUSH1 0xA0 MSTORE DUP5 DUP2 AND PUSH1 0xC0 MSTORE DUP4 AND PUSH1 0xE0 MSTORE PUSH3 0x77 DUP3 PUSH3 0x82 JUMP JUMPDEST POP POP POP POP POP PUSH3 0x10F JUMP JUMPDEST PUSH1 0x0 DUP2 GT PUSH3 0x90 JUMPI PUSH1 0x0 DUP1 REVERT JUMPDEST PUSH1 0x1 SSTORE JUMP JUMPDEST DUP1 MLOAD PUSH1 0x1 PUSH1 0x1 PUSH1 0xA0 SHL SUB DUP2 AND DUP2 EQ PUSH3 0xAD JUMPI PUSH1 0x0 DUP1 REVERT JUMPDEST SWAP2 SWAP1 POP JUMP JUMPDEST PUSH1 0x0 DUP1 PUSH1 0x0 DUP1 PUSH1 0x0 PUSH1 0xA0 DUP7 DUP9 SUB SLT ISZERO PUSH3 0xCB JUMPI PUSH1 0x0 DUP1 REVERT JUMPDEST PUSH3 0xD6 DUP7 PUSH3 0x95 JUMP JUMPDEST SWAP5 POP PUSH3 0xE6 PUSH1 0x20 DUP8 ADD PUSH3 0x95 JUMP JUMPDEST SWAP4 POP PUSH3 0xF6 PUSH1 0x40 DUP8 ADD PUSH3 0x95 JUMP JUMPDEST PUSH1 0x60 DUP8 ADD MLOAD PUSH1 0x80 SWAP1 SWAP8 ADD MLOAD SWAP6 SWAP9 SWAP5 SWAP8 POP SWAP6 SWAP5 SWAP4 SWAP3 POP POP POP JUMP JUMPDEST PUSH1 0x80 MLOAD PUSH1 0xA0 MLOAD PUSH1 0xC0 MLOAD PUSH1 0xE0 MLOAD PUSH2 0x100 MLOAD PUSH2 0x31A7 PUSH3 0x1E0 PUSH1 0x0 CODECOPY PUSH1 0x0 DUP2 DUP2 PUSH2 0x189 ADD MSTORE DUP2 DUP2 PUSH2 0x959 ADD MSTORE DUP2 DUP2 PUSH2 0x1664 ADD MSTORE DUP2 DUP2 PUSH2 0x16DC ADD MSTORE DUP2 DUP2 PUSH2 0x1B1F ADD MSTORE PUSH2 0x25D7 ADD MSTORE PUSH1 0x0 DUP2 DUP2 PUSH2 0x50C ADD MSTORE PUSH2 0xE65 ADD MSTORE PUSH1 0x0 DUP2 DUP2 PUSH2 0x593 ADD MSTORE DUP2 DUP2 PUSH2 0x9D2 ADD MSTORE DUP2 DUP2 PUSH2 0xDC0 ADD MSTORE PUSH2 0x1D43 ADD MSTORE PUSH1 0x0 DUP2 DUP2 PUSH2 0x3DA ADD MSTORE DUP2 DUP2 PUSH2 0x628 ADD MSTORE DUP2 DUP2 PUSH2 0xA5C ADD MSTORE DUP2 DUP2 PUSH2 0xB39 ADD MSTORE DUP2 DUP2 PUSH2 0xF9C ADD MSTORE DUP2 DUP2 PUSH2 0x137A ADD MSTORE DUP2 DUP2 PUSH2 0x152F ADD MSTORE DUP2 DUP2 PUSH2 0x1A66 ADD MSTORE PUSH2 0x1D72 ADD MSTORE PUSH1 0x0 DUP2 DUP2 PUSH2 0x273 ADD MSTORE DUP2 DUP2 PUSH2 0xDF0 ADD MSTORE DUP2 DUP2 PUSH2 0x1F0B ADD MSTORE PUSH2 0x295B ADD MSTORE PUSH2 0x31A7 PUSH1 0x0 RETURN INVALID PUSH1 0x80 PUSH1 0x40 MSTORE PUSH1 0x4 CALLDATASIZE LT PUSH2 0x15D JUMPI PUSH1 0x0 CALLDATALOAD PUSH1 0xE0 SHR DUP1 PUSH4 0x11C61AD3 EQ PUSH2 0x162 JUMPI DUP1 PUSH4 0x15B6DD82 EQ PUSH2 0x177 JUMPI DUP1 PUSH4 0x1930E825 EQ PUSH2 0x1C1 JUMPI DUP1 PUSH4 0x438D641A EQ PUSH2 0x209 JUMPI DUP1 PUSH4 0x452A9320 EQ PUSH2 0x229 JUMPI DUP1 PUSH4 0x4870DD9A EQ PUSH2 0x23E JUMPI DUP1 PUSH4 0x4BA4A28B EQ PUSH2 0x261 JUMPI DUP1 PUSH4 0x4E443D9E EQ PUSH2 0x295 JUMPI DUP1 PUSH4 0x4FF81443 EQ PUSH2 0x2BD JUMPI DUP1 PUSH4 0x568D6FE5 EQ PUSH2 0x2DD JUMPI DUP1 PUSH4 0x5733D58F EQ PUSH2 0x342 JUMPI DUP1 PUSH4 0x5F548614 EQ PUSH2 0x35E JUMPI DUP1 PUSH4 0x716C53C2 EQ PUSH2 0x37E JUMPI DUP1 PUSH4 0x778C5C64 EQ PUSH2 0x3A8 JUMPI DUP1 PUSH4 0x82D61D16 EQ PUSH2 0x3C8 JUMPI DUP1 PUSH4 0x8DA5CB5B EQ PUSH2 0x3FC JUMPI DUP1 PUSH4 0x969C2452 EQ PUSH2 0x411 JUMPI DUP1 PUSH4 0xA20BAEE6 EQ PUSH2 0x427 JUMPI DUP1 PUSH4 0xA2E8DC0A EQ PUSH2 0x443 JUMPI DUP1 PUSH4 0xA6B6C8EE EQ PUSH2 0x463 JUMPI DUP1 PUSH4 0xB51237A9 EQ PUSH2 0x483 JUMPI DUP1 PUSH4 0xB620115D EQ PUSH2 0x4A5 JUMPI DUP1 PUSH4 0xC2AF1ECA EQ PUSH2 0x4BA JUMPI DUP1 PUSH4 0xC3C854B6 EQ PUSH2 0x4DA JUMPI DUP1 PUSH4 0xC45A0155 EQ PUSH2 0x4FA JUMPI DUP1 PUSH4 0xC5A62A99 EQ PUSH2 0x52E JUMPI DUP1 PUSH4 0xC61B9A44 EQ PUSH2 0x541 JUMPI DUP1 PUSH4 0xE19C80C2 EQ PUSH2 0x561 JUMPI DUP1 PUSH4 0xF8D89898 EQ PUSH2 0x581 JUMPI DUP1 PUSH4 0xFDED3D35 EQ PUSH2 0x5B5 JUMPI JUMPDEST PUSH1 0x0 DUP1 REVERT JUMPDEST PUSH2 0x175 PUSH2 0x170 CALLDATASIZE PUSH1 0x4 PUSH2 0x2BB9 JUMP JUMPDEST PUSH2 0x5C8 JUMP JUMPDEST STOP JUMPDEST CALLVALUE DUP1 ISZERO PUSH2 0x183 JUMPI PUSH1 0x0 DUP1 REVERT JUMPDEST POP PUSH2 0x1AB PUSH32 0x0 DUP2 JUMP JUMPDEST PUSH1 0x40 MLOAD PUSH2 0x1B8 SWAP2 SWAP1 PUSH2 0x2C34 JUMP JUMPDEST PUSH1 0x40 MLOAD DUP1 SWAP2 SUB SWAP1 RETURN JUMPDEST CALLVALUE DUP1 ISZERO PUSH2 0x1CD JUMPI PUSH1 0x0 DUP1 REVERT JUMPDEST POP PUSH2 0x1F9 PUSH2 0x1DC CALLDATASIZE PUSH1 0x4 PUSH2 0x2C48 JUMP JUMPDEST PUSH1 0x0 PUSH1 0x20 DUP2 DUP2 MSTORE SWAP3 DUP2 MSTORE PUSH1 0x40 DUP1 DUP3 KECCAK256 SWAP1 SWAP4 MSTORE SWAP1 DUP2 MSTORE KECCAK256 SLOAD PUSH1 0xFF AND DUP2 JUMP JUMPDEST PUSH1 0x40 MLOAD SWAP1 ISZERO ISZERO DUP2 MSTORE PUSH1 0x20 ADD PUSH2 0x1B8 JUMP JUMPDEST CALLVALUE DUP1 ISZERO PUSH2 0x215 JUMPI PUSH1 0x0 DUP1 REVERT JUMPDEST POP PUSH2 0x175 PUSH2 0x224 CALLDATASIZE PUSH1 0x4 PUSH2 0x2C81 JUMP JUMPDEST PUSH2 0xA5A JUMP JUMPDEST CALLVALUE DUP1 ISZERO PUSH2 0x235 JUMPI PUSH1 0x0 DUP1 REVERT JUMPDEST POP PUSH2 0x1AB PUSH2 0xB35 JUMP JUMPDEST CALLVALUE DUP1 ISZERO PUSH2 0x24A JUMPI PUSH1 0x0 DUP1 REVERT JUMPDEST POP PUSH2 0x253 PUSH1 0xC8 DUP2 JUMP JUMPDEST PUSH1 0x40 MLOAD SWAP1 DUP2 MSTORE PUSH1 0x20 ADD PUSH2 0x1B8 JUMP JUMPDEST CALLVALUE DUP1 ISZERO PUSH2 0x26D JUMPI PUSH1 0x0 DUP1 REVERT JUMPDEST POP PUSH2 0x253 PUSH32 0x0 DUP2 JUMP JUMPDEST CALLVALUE DUP1 ISZERO PUSH2 0x2A1 JUMPI PUSH1 0x0 DUP1 REVERT JUMPDEST POP PUSH2 0x1F9 PUSH2 0x2B0 CALLDATASIZE PUSH1 0x4 PUSH2 0x2C81 JUMP JUMPDEST PUSH8 0x18FAE27693B40000 GT SWAP1 JUMP JUMPDEST CALLVALUE DUP1 ISZERO PUSH2 0x2C9 JUMPI PUSH1 0x0 DUP1 REVERT JUMPDEST POP PUSH2 0x253 PUSH2 0x2D8 CALLDATASIZE PUSH1 0x4 PUSH2 0x2C81 JUMP JUMPDEST PUSH2 0xBBE JUMP JUMPDEST CALLVALUE DUP1 ISZERO PUSH2 0x2E9 JUMPI PUSH1 0x0 DUP1 REVERT JUMPDEST POP PUSH2 0x320 PUSH2 0x2F8 CALLDATASIZE PUSH1 0x4 PUSH2 0x2C9A JUMP JUMPDEST PUSH1 0x2 PUSH1 0x20 MSTORE PUSH1 0x0 SWAP1 DUP2 MSTORE PUSH1 0x40 SWAP1 KECCAK256 SLOAD PUSH1 0x1 PUSH1 0x1 PUSH1 0xA0 SHL SUB DUP2 AND SWAP1 PUSH1 0x1 PUSH1 0xA0 SHL SWAP1 DIV PUSH2 0xFFFF AND DUP3 JUMP JUMPDEST PUSH1 0x40 DUP1 MLOAD PUSH1 0x1 PUSH1 0x1 PUSH1 0xA0 SHL SUB SWAP1 SWAP4 AND DUP4 MSTORE PUSH2 0xFFFF SWAP1 SWAP2 AND PUSH1 0x20 DUP4 ADD MSTORE ADD PUSH2 0x1B8 JUMP JUMPDEST CALLVALUE DUP1 ISZERO PUSH2 0x34E JUMPI PUSH1 0x0 DUP1 REVERT JUMPDEST POP PUSH2 0x253 PUSH8 0x18FAE27693B40000 DUP2 JUMP JUMPDEST CALLVALUE DUP1 ISZERO PUSH2 0x36A JUMPI PUSH1 0x0 DUP1 REVERT JUMPDEST POP PUSH2 0x175 PUSH2 0x379 CALLDATASIZE PUSH1 0x4 PUSH2 0x2C48 JUMP JUMPDEST PUSH2 0xBCF JUMP JUMPDEST CALLVALUE DUP1 ISZERO PUSH2 0x38A JUMPI PUSH1 0x0 DUP1 REVERT JUMPDEST POP PUSH2 0x393 PUSH2 0xE37 JUMP JUMPDEST PUSH1 0x40 DUP1 MLOAD SWAP3 DUP4 MSTORE PUSH1 0x20 DUP4 ADD SWAP2 SWAP1 SWAP2 MSTORE ADD PUSH2 0x1B8 JUMP JUMPDEST CALLVALUE DUP1 ISZERO PUSH2 0x3B4 JUMPI PUSH1 0x0 DUP1 REVERT JUMPDEST POP PUSH2 0x175 PUSH2 0x3C3 CALLDATASIZE PUSH1 0x4 PUSH2 0x2C48 JUMP JUMPDEST PUSH2 0xE5A JUMP JUMPDEST CALLVALUE DUP1 ISZERO PUSH2 0x3D4 JUMPI PUSH1 0x0 DUP1 REVERT JUMPDEST POP PUSH2 0x1AB PUSH32 0x0 DUP2 JUMP JUMPDEST CALLVALUE DUP1 ISZERO PUSH2 0x408 JUMPI PUSH1 0x0 DUP1 REVERT JUMPDEST POP PUSH2 0x1AB PUSH2 0xF98 JUMP JUMPDEST CALLVALUE DUP1 ISZERO PUSH2 0x41D JUMPI PUSH1 0x0 DUP1 REVERT JUMPDEST POP PUSH2 0x253 PUSH1 0x1 SLOAD DUP2 JUMP JUMPDEST CALLVALUE DUP1 ISZERO PUSH2 0x433 JUMPI PUSH1 0x0 DUP1 REVERT JUMPDEST POP PUSH2 0x253 PUSH8 0xDE0B6B3A7640000 DUP2 JUMP JUMPDEST CALLVALUE DUP1 ISZERO PUSH2 0x44F JUMPI PUSH1 0x0 DUP1 REVERT JUMPDEST POP PUSH2 0x175 PUSH2 0x45E CALLDATASIZE PUSH1 0x4 PUSH2 0x2CB7 JUMP JUMPDEST PUSH2 0xFF8 JUMP JUMPDEST CALLVALUE DUP1 ISZERO PUSH2 0x46F JUMPI PUSH1 0x0 DUP1 REVERT JUMPDEST POP PUSH2 0x175 PUSH2 0x47E CALLDATASIZE PUSH1 0x4 PUSH2 0x2CB7 JUMP JUMPDEST PUSH2 0x1069 JUMP JUMPDEST CALLVALUE DUP1 ISZERO PUSH2 0x48F JUMPI PUSH1 0x0 DUP1 REVERT JUMPDEST POP PUSH2 0x498 PUSH2 0x10D1 JUMP JUMPDEST PUSH1 0x40 MLOAD PUSH2 0x1B8 SWAP2 SWAP1 PUSH2 0x2D5B JUMP JUMPDEST CALLVALUE DUP1 ISZERO PUSH2 0x4B1 JUMPI PUSH1 0x0 DUP1 REVERT JUMPDEST POP PUSH2 0x253 PUSH2 0x1304 JUMP JUMPDEST CALLVALUE DUP1 ISZERO PUSH2 0x4C6 JUMPI PUSH1 0x0 DUP1 REVERT JUMPDEST POP PUSH2 0x175 PUSH2 0x4D5 CALLDATASIZE PUSH1 0x4 PUSH2 0x2DBC JUMP JUMPDEST PUSH2 0x1323 JUMP JUMPDEST CALLVALUE DUP1 ISZERO PUSH2 0x4E6 JUMPI PUSH1 0x0 DUP1 REVERT JUMPDEST POP PUSH2 0x175 PUSH2 0x4F5 CALLDATASIZE PUSH1 0x4 PUSH2 0x2E3A JUMP JUMPDEST PUSH2 0x145C JUMP JUMPDEST CALLVALUE DUP1 ISZERO PUSH2 0x506 JUMPI PUSH1 0x0 DUP1 REVERT JUMPDEST POP PUSH2 0x1AB PUSH32 0x0 DUP2 JUMP JUMPDEST PUSH2 0x175 PUSH2 0x53C CALLDATASIZE PUSH1 0x4 PUSH2 0x2E68 JUMP JUMPDEST PUSH2 0x14C6 JUMP JUMPDEST CALLVALUE DUP1 ISZERO PUSH2 0x54D JUMPI PUSH1 0x0 DUP1 REVERT JUMPDEST POP PUSH2 0x175 PUSH2 0x55C CALLDATASIZE PUSH1 0x4 PUSH2 0x2F00 JUMP JUMPDEST PUSH2 0x16CA JUMP JUMPDEST CALLVALUE DUP1 ISZERO PUSH2 0x56D JUMPI PUSH1 0x0 DUP1 REVERT JUMPDEST POP PUSH2 0x175 PUSH2 0x57C CALLDATASIZE PUSH1 0x4 PUSH2 0x2C9A JUMP JUMPDEST PUSH2 0x174D JUMP JUMPDEST CALLVALUE DUP1 ISZERO PUSH2 0x58D JUMPI PUSH1 0x0 DUP1 REVERT JUMPDEST POP PUSH2 0x1AB PUSH32 0x0 DUP2 JUMP JUMPDEST PUSH2 0x175 PUSH2 0x5C3 CALLDATASIZE PUSH1 0x4 PUSH2 0x2CB7 JUMP JUMPDEST PUSH2 0x1A0F JUMP JUMPDEST DUP6 CALLER PUSH1 0x1 PUSH1 0x1 PUSH1 0xA0 SHL SUB DUP3 AND EQ DUP1 PUSH2 0x601 JUMPI POP PUSH1 0x1 PUSH1 0x1 PUSH1 0xA0 SHL SUB DUP2 AND PUSH1 0x0 SWAP1 DUP2 MSTORE PUSH1 0x20 DUP2 DUP2 MSTORE PUSH1 0x40 DUP1 DUP4 KECCAK256 CALLER DUP5 MSTORE SWAP1 SWAP2 MSTORE SWAP1 KECCAK256 SLOAD PUSH1 0xFF AND JUMPDEST PUSH2 0x626 JUMPI PUSH1 0x40 MLOAD PUSH3 0x461BCD PUSH1 0xE5 SHL DUP2 MSTORE PUSH1 0x4 ADD PUSH2 0x61D SWAP1 PUSH2 0x2F2C JUMP JUMPDEST PUSH1 0x40 MLOAD DUP1 SWAP2 SUB SWAP1 REVERT JUMPDEST PUSH32 0x0 PUSH1 0x1 PUSH1 0x1 PUSH1 0xA0 SHL SUB AND PUSH4 0x5C975ABB PUSH1 0x40 MLOAD DUP2 PUSH4 0xFFFFFFFF AND PUSH1 0xE0 SHL DUP2 MSTORE PUSH1 0x4 ADD PUSH1 0x20 PUSH1 0x40 MLOAD DUP1 DUP4 SUB DUP2 DUP7 GAS STATICCALL ISZERO DUP1 ISZERO PUSH2 0x684 JUMPI RETURNDATASIZE PUSH1 0x0 DUP1 RETURNDATACOPY RETURNDATASIZE PUSH1 0x0 REVERT JUMPDEST POP POP POP POP PUSH1 0x40 MLOAD RETURNDATASIZE PUSH1 0x1F NOT PUSH1 0x1F DUP3 ADD AND DUP3 ADD DUP1 PUSH1 0x40 MSTORE POP DUP2 ADD SWAP1 PUSH2 0x6A8 SWAP2 SWAP1 PUSH2 0x2F5B JUMP JUMPDEST ISZERO PUSH2 0x6EB JUMPI PUSH1 0x40 MLOAD PUSH3 0x461BCD PUSH1 0xE5 SHL DUP2 MSTORE PUSH1 0x20 PUSH1 0x4 DUP3 ADD MSTORE PUSH1 0x13 PUSH1 0x24 DUP3 ADD MSTORE PUSH19 0x11195C1BDCDA5D1CC8185C99481C185D5CD959 PUSH1 0x6A SHL PUSH1 0x44 DUP3 ADD MSTORE PUSH1 0x64 ADD PUSH2 0x61D JUMP JUMPDEST PUSH1 0x0 PUSH2 0x73C PUSH1 0x40 MLOAD DUP1 PUSH2 0x120 ADD PUSH1 0x40 MSTORE DUP1 PUSH1 0x0 DUP2 MSTORE PUSH1 0x20 ADD PUSH1 0x0 DUP2 MSTORE PUSH1 0x20 ADD PUSH1 0x0 DUP2 MSTORE PUSH1 0x20 ADD PUSH1 0x0 DUP2 MSTORE PUSH1 0x20 ADD PUSH1 0x0 DUP2 MSTORE PUSH1 0x20 ADD PUSH1 0x0 DUP2 MSTORE PUSH1 0x20 ADD PUSH1 0x0 DUP2 MSTORE PUSH1 0x20 ADD PUSH1 0x0 DUP2 MSTORE PUSH1 0x20 ADD PUSH1 0x0 DUP2 MSTORE POP SWAP1 JUMP JUMPDEST PUSH1 0x0 PUSH2 0x747 DUP12 PUSH2 0x1B7A JUMP JUMPDEST PUSH1 0x40 DUP8 ADD SWAP2 SWAP1 SWAP2 MSTORE PUSH1 0x20 DUP7 ADD SWAP2 SWAP1 SWAP2 MSTORE SWAP1 DUP5 MSTORE SWAP1 SWAP4 POP SWAP1 POP PUSH2 0x768 DUP10 PUSH2 0x1C51 JUMP JUMPDEST PUSH1 0x60 DUP3 ADD DUP8 SWAP1 MSTORE DUP1 PUSH2 0x796 JUMPI PUSH2 0x781 DUP12 DUP5 DUP13 DUP13 DUP12 PUSH2 0x1CC4 JUMP JUMPDEST DUP3 PUSH1 0x60 ADD MLOAD PUSH2 0x790 SWAP2 SWAP1 PUSH2 0x2F8E JUMP JUMPDEST PUSH1 0x60 DUP4 ADD MSTORE JUMPDEST PUSH2 0x7A3 DUP3 PUSH1 0x60 ADD MLOAD PUSH2 0x1E8F JUMP JUMPDEST PUSH2 0x7B0 DUP3 PUSH1 0x60 ADD MLOAD PUSH2 0x1F04 JUMP JUMPDEST PUSH1 0x80 DUP4 ADD DUP2 SWAP1 MSTORE DUP3 MLOAD PUSH2 0x7C4 SWAP2 DUP11 SWAP2 PUSH2 0x1F30 JUMP JUMPDEST PUSH1 0xA0 DUP4 ADD MSTORE PUSH1 0x80 DUP3 ADD MLOAD PUSH2 0x7D9 SWAP1 DUP10 SWAP1 PUSH2 0x1F64 JUMP JUMPDEST PUSH1 0xC0 DUP4 ADD MSTORE DUP1 ISZERO PUSH2 0x7F6 JUMPI PUSH2 0x7F1 DUP3 PUSH1 0xA0 ADD MLOAD PUSH2 0x1F9B JUMP JUMPDEST PUSH2 0x89F JUMP JUMPDEST PUSH2 0x865 DUP3 PUSH1 0xA0 ADD MLOAD DUP13 PUSH1 0x1 PUSH1 0x1 PUSH1 0xA0 SHL SUB AND PUSH4 0x794E5724 PUSH1 0x40 MLOAD DUP2 PUSH4 0xFFFFFFFF AND PUSH1 0xE0 SHL DUP2 MSTORE PUSH1 0x4 ADD PUSH1 0x20 PUSH1 0x40 MLOAD DUP1 DUP4 SUB DUP2 DUP7 GAS STATICCALL ISZERO DUP1 ISZERO PUSH2 0x83C JUMPI RETURNDATASIZE PUSH1 0x0 DUP1 RETURNDATACOPY RETURNDATASIZE PUSH1 0x0 REVERT JUMPDEST POP POP POP POP PUSH1 0x40 MLOAD RETURNDATASIZE PUSH1 0x1F NOT PUSH1 0x1F DUP3 ADD AND DUP3 ADD DUP1 PUSH1 0x40 MSTORE POP DUP2 ADD SWAP1 PUSH2 0x860 SWAP2 SWAP1 PUSH2 0x2FA1 JUMP JUMPDEST PUSH2 0x2013 JUMP JUMPDEST PUSH1 0x0 PUSH2 0x892 DUP4 PUSH1 0x20 ADD MLOAD DUP5 PUSH1 0x40 ADD MLOAD DUP6 PUSH1 0x0 ADD MLOAD DUP13 PUSH2 0x884 SWAP2 SWAP1 PUSH2 0x2FBA JUMP JUMPDEST PUSH1 0x1 DUP8 PUSH1 0x80 ADD MLOAD PUSH1 0x1 PUSH2 0x208D JUMP JUMPDEST SWAP1 POP PUSH2 0x89D DUP2 PUSH2 0x20E7 JUMP JUMPDEST POP JUMPDEST PUSH1 0x80 DUP3 ADD MLOAD PUSH1 0xC0 DUP4 ADD MLOAD PUSH1 0x40 MLOAD PUSH4 0x4CB653B7 PUSH1 0xE0 SHL DUP2 MSTORE PUSH1 0x1 PUSH1 0x1 PUSH1 0xA0 SHL SUB DUP14 DUP2 AND PUSH1 0x4 DUP4 ADD MSTORE PUSH1 0x24 DUP3 ADD DUP13 SWAP1 MSTORE PUSH1 0x44 DUP3 ADD SWAP4 SWAP1 SWAP4 MSTORE PUSH1 0x64 DUP2 ADD SWAP2 SWAP1 SWAP2 MSTORE DUP8 DUP3 AND PUSH1 0x84 DUP3 ADD MSTORE DUP7 DUP3 AND PUSH1 0xA4 DUP3 ADD MSTORE DUP3 ISZERO ISZERO PUSH1 0xC4 DUP3 ADD MSTORE SWAP1 DUP13 AND SWAP1 PUSH4 0x4CB653B7 SWAP1 PUSH1 0xE4 ADD PUSH1 0x40 DUP1 MLOAD DUP1 DUP4 SUB DUP2 PUSH1 0x0 DUP8 GAS CALL ISZERO DUP1 ISZERO PUSH2 0x920 JUMPI RETURNDATASIZE PUSH1 0x0 DUP1 RETURNDATACOPY RETURNDATASIZE PUSH1 0x0 REVERT JUMPDEST POP POP POP POP PUSH1 0x40 MLOAD RETURNDATASIZE PUSH1 0x1F NOT PUSH1 0x1F DUP3 ADD AND DUP3 ADD DUP1 PUSH1 0x40 MSTORE POP DUP2 ADD SWAP1 PUSH2 0x944 SWAP2 SWAP1 PUSH2 0x2FD1 JUMP JUMPDEST PUSH2 0x100 DUP5 ADD MSTORE PUSH1 0xE0 DUP4 ADD MSTORE PUSH1 0x1 PUSH1 0x1 PUSH1 0xA0 SHL SUB PUSH32 0x0 DUP2 AND SWAP1 DUP5 AND SUB PUSH2 0x9A6 JUMPI DUP8 CALLVALUE EQ PUSH2 0x9A1 JUMPI PUSH1 0x40 MLOAD PUSH3 0x461BCD PUSH1 0xE5 SHL DUP2 MSTORE PUSH1 0x4 ADD PUSH2 0x61D SWAP1 PUSH2 0x2FF5 JUMP JUMPDEST PUSH2 0x9BB JUMP JUMPDEST PUSH2 0x9BB PUSH1 0x1 PUSH1 0x1 PUSH1 0xA0 SHL SUB DUP5 AND CALLER DUP14 DUP12 PUSH2 0x2165 JUMP JUMPDEST PUSH1 0x40 MLOAD PUSH4 0x467FAFDF PUSH1 0xE1 SHL DUP2 MSTORE PUSH1 0x1 PUSH1 0x1 PUSH1 0xA0 SHL SUB PUSH32 0x0 AND SWAP1 PUSH4 0x8CFF5FBE SWAP1 PUSH2 0xA09 SWAP1 CALLER SWAP1 DUP12 SWAP1 PUSH1 0x4 ADD PUSH2 0x3011 JUMP JUMPDEST PUSH1 0x20 PUSH1 0x40 MLOAD DUP1 DUP4 SUB DUP2 PUSH1 0x0 DUP8 GAS CALL ISZERO DUP1 ISZERO PUSH2 0xA28 JUMPI RETURNDATASIZE PUSH1 0x0 DUP1 RETURNDATACOPY RETURNDATASIZE PUSH1 0x0 REVERT JUMPDEST POP POP POP POP PUSH1 0x40 MLOAD RETURNDATASIZE PUSH1 0x1F NOT PUSH1 0x1F DUP3 ADD AND DUP3 ADD DUP1 PUSH1 0x40 MSTORE POP DUP2 ADD SWAP1 PUSH2 0xA4C SWAP2 SWAP1 PUSH2 0x2F5B JUMP JUMPDEST POP POP POP POP POP POP POP POP POP POP POP POP JUMP JUMPDEST PUSH32 0x0 PUSH1 0x1 PUSH1 0x1 PUSH1 0xA0 SHL SUB AND PUSH4 0x8DA5CB5B PUSH1 0x40 MLOAD DUP2 PUSH4 0xFFFFFFFF AND PUSH1 0xE0 SHL DUP2 MSTORE PUSH1 0x4 ADD PUSH1 0x20 PUSH1 0x40 MLOAD DUP1 DUP4 SUB DUP2 DUP7 GAS STATICCALL ISZERO DUP1 ISZERO PUSH2 0xAB8 JUMPI RETURNDATASIZE PUSH1 0x0 DUP1 RETURNDATACOPY RETURNDATASIZE PUSH1 0x0 REVERT JUMPDEST POP POP POP POP PUSH1 0x40 MLOAD RETURNDATASIZE PUSH1 0x1F NOT PUSH1 0x1F DUP3 ADD AND DUP3 ADD DUP1 PUSH1 0x40 MSTORE POP DUP2 ADD SWAP1 PUSH2 0xADC SWAP2 SWAP1 PUSH2 0x302A JUMP JUMPDEST PUSH1 0x1 PUSH1 0x1 PUSH1 0xA0 SHL SUB AND CALLER PUSH1 0x1 PUSH1 0x1 PUSH1 0xA0 SHL SUB AND EQ PUSH2 0xB29 JUMPI PUSH1 0x40 MLOAD PUSH3 0x461BCD PUSH1 0xE5 SHL DUP2 MSTORE PUSH1 0x20 PUSH1 0x4 DUP3 ADD MSTORE PUSH1 0xA PUSH1 0x24 DUP3 ADD MSTORE PUSH10 0x27B7363C9037BBB732B9 PUSH1 0xB1 SHL PUSH1 0x44 DUP3 ADD MSTORE PUSH1 0x64 ADD PUSH2 0x61D JUMP JUMPDEST PUSH2 0xB32 DUP2 PUSH2 0x21C5 JUMP JUMPDEST POP JUMP JUMPDEST PUSH1 0x0 PUSH32 0x0 PUSH1 0x1 PUSH1 0x1 PUSH1 0xA0 SHL SUB AND PUSH4 0x452A9320 PUSH1 0x40 MLOAD DUP2 PUSH4 0xFFFFFFFF AND PUSH1 0xE0 SHL DUP2 MSTORE PUSH1 0x4 ADD PUSH1 0x20 PUSH1 0x40 MLOAD DUP1 DUP4 SUB DUP2 DUP7 GAS STATICCALL ISZERO DUP1 ISZERO PUSH2 0xB95 JUMPI RETURNDATASIZE PUSH1 0x0 DUP1 RETURNDATACOPY RETURNDATASIZE PUSH1 0x0 REVERT JUMPDEST POP POP POP POP PUSH1 0x40 MLOAD RETURNDATASIZE PUSH1 0x1F NOT PUSH1 0x1F DUP3 ADD AND DUP3 ADD DUP1 PUSH1 0x40 MSTORE POP DUP2 ADD SWAP1 PUSH2 0xBB9 SWAP2 SWAP1 PUSH2 0x302A JUMP JUMPDEST SWAP1 POP SWAP1 JUMP JUMPDEST PUSH1 0x0 PUSH2 0xBC9 DUP3 PUSH2 0x1F04 JUMP JUMPDEST SWAP3 SWAP2 POP POP JUMP JUMPDEST DUP1 CALLER PUSH1 0x1 PUSH1 0x1 PUSH1 0xA0 SHL SUB DUP3 AND EQ DUP1 PUSH2 0xC08 JUMPI POP PUSH1 0x1 PUSH1 0x1 PUSH1 0xA0 SHL SUB DUP2 AND PUSH1 0x0 SWAP1 DUP2 MSTORE PUSH1 0x20 DUP2 DUP2 MSTORE PUSH1 0x40 DUP1 DUP4 KECCAK256 CALLER DUP5 MSTORE SWAP1 SWAP2 MSTORE SWAP1 KECCAK256 SLOAD PUSH1 0xFF AND JUMPDEST PUSH2 0xC24 JUMPI PUSH1 0x40 MLOAD PUSH3 0x461BCD PUSH1 0xE5 SHL DUP2 MSTORE PUSH1 0x4 ADD PUSH2 0x61D SWAP1 PUSH2 0x2F2C JUMP JUMPDEST PUSH1 0x0 DUP1 PUSH1 0x0 DUP1 PUSH1 0x0 PUSH2 0xC35 DUP9 PUSH2 0x1B7A JUMP JUMPDEST SWAP4 SWAP9 POP SWAP2 SWAP7 POP SWAP2 SWAP5 POP SWAP1 SWAP3 POP SWAP1 POP DUP3 ISZERO PUSH2 0xCB3 JUMPI PUSH1 0x40 MLOAD PUSH3 0x461BCD PUSH1 0xE5 SHL DUP2 MSTORE PUSH1 0x20 PUSH1 0x4 DUP3 ADD MSTORE PUSH1 0x39 PUSH1 0x24 DUP3 ADD MSTORE PUSH32 0x426F72726F7765724F70733A204F7065726174696F6E206E6F74207065726D69 PUSH1 0x44 DUP3 ADD MSTORE PUSH25 0x7474656420647572696E67205265636F76657279204D6F6465 PUSH1 0x38 SHL PUSH1 0x64 DUP3 ADD MSTORE PUSH1 0x84 ADD PUSH2 0x61D JUMP JUMPDEST PUSH1 0x0 DUP1 DUP10 PUSH1 0x1 PUSH1 0x1 PUSH1 0xA0 SHL SUB AND PUSH4 0xB076557 DUP11 PUSH1 0x40 MLOAD DUP3 PUSH4 0xFFFFFFFF AND PUSH1 0xE0 SHL DUP2 MSTORE PUSH1 0x4 ADD PUSH2 0xCE2 SWAP2 SWAP1 PUSH2 0x2C34 JUMP JUMPDEST PUSH1 0x40 DUP1 MLOAD DUP1 DUP4 SUB DUP2 PUSH1 0x0 DUP8 GAS CALL ISZERO DUP1 ISZERO PUSH2 0xD00 JUMPI RETURNDATASIZE PUSH1 0x0 DUP1 RETURNDATACOPY RETURNDATASIZE PUSH1 0x0 REVERT JUMPDEST POP POP POP POP PUSH1 0x40 MLOAD RETURNDATASIZE PUSH1 0x1F NOT PUSH1 0x1F DUP3 ADD AND DUP3 ADD DUP1 PUSH1 0x40 MSTORE POP DUP2 ADD SWAP1 PUSH2 0xD24 SWAP2 SWAP1 PUSH2 0x2FD1 JUMP JUMPDEST SWAP1 SWAP3 POP SWAP1 POP PUSH1 0x0 PUSH2 0xD44 DUP6 DUP6 PUSH2 0xD3A DUP11 DUP8 PUSH2 0x2FBA JUMP JUMPDEST PUSH1 0x0 DUP7 PUSH1 0x0 PUSH2 0x208D JUMP JUMPDEST SWAP1 POP PUSH2 0xD4F DUP2 PUSH2 0x20E7 JUMP JUMPDEST PUSH1 0x40 MLOAD PUSH4 0xC9A4CBF1 PUSH1 0xE0 SHL DUP2 MSTORE PUSH1 0x1 PUSH1 0x1 PUSH1 0xA0 SHL SUB DUP12 DUP2 AND PUSH1 0x4 DUP4 ADD MSTORE CALLER PUSH1 0x24 DUP4 ADD MSTORE PUSH1 0x44 DUP3 ADD DUP6 SWAP1 MSTORE PUSH1 0x64 DUP3 ADD DUP5 SWAP1 MSTORE DUP13 AND SWAP1 PUSH4 0xC9A4CBF1 SWAP1 PUSH1 0x84 ADD PUSH1 0x0 PUSH1 0x40 MLOAD DUP1 DUP4 SUB DUP2 PUSH1 0x0 DUP8 DUP1 EXTCODESIZE ISZERO DUP1 ISZERO PUSH2 0xDA6 JUMPI PUSH1 0x0 DUP1 REVERT JUMPDEST POP GAS CALL ISZERO DUP1 ISZERO PUSH2 0xDBA JUMPI RETURNDATASIZE PUSH1 0x0 DUP1 RETURNDATACOPY RETURNDATASIZE PUSH1 0x0 REVERT JUMPDEST POP POP POP POP PUSH32 0x0 PUSH1 0x1 PUSH1 0x1 PUSH1 0xA0 SHL SUB AND PUSH4 0x85177509 CALLER PUSH32 0x0 DUP6 PUSH2 0xE1A SWAP2 SWAP1 PUSH2 0x3047 JUMP JUMPDEST PUSH1 0x40 MLOAD DUP4 PUSH4 0xFFFFFFFF AND PUSH1 0xE0 SHL DUP2 MSTORE PUSH1 0x4 ADD PUSH2 0xA09 SWAP3 SWAP2 SWAP1 PUSH2 0x3011 JUMP JUMPDEST PUSH1 0x0 DUP1 PUSH1 0x0 PUSH2 0xE44 PUSH2 0x10D1 JUMP JUMPDEST SWAP1 POP PUSH2 0xE4F DUP2 PUSH2 0x21D7 JUMP JUMPDEST SWAP1 SWAP6 SWAP1 SWAP5 POP SWAP3 POP POP POP JUMP JUMPDEST CALLER PUSH1 0x1 PUSH1 0x1 PUSH1 0xA0 SHL SUB PUSH32 0x0 AND EQ PUSH2 0xEBD JUMPI PUSH1 0x40 MLOAD PUSH3 0x461BCD PUSH1 0xE5 SHL DUP2 MSTORE PUSH1 0x20 PUSH1 0x4 DUP3 ADD MSTORE PUSH1 0x8 PUSH1 0x24 DUP3 ADD MSTORE PUSH8 0x21666163746F7279 PUSH1 0xC0 SHL PUSH1 0x44 DUP3 ADD MSTORE PUSH1 0x64 ADD PUSH2 0x61D JUMP JUMPDEST PUSH1 0x40 DUP1 MLOAD DUP1 DUP3 ADD DUP3 MSTORE PUSH1 0x1 PUSH1 0x1 PUSH1 0xA0 SHL SUB DUP4 DUP2 AND DUP1 DUP4 MSTORE PUSH1 0x3 DUP1 SLOAD PUSH2 0xFFFF SWAP1 DUP2 AND PUSH1 0x20 DUP1 DUP8 ADD SWAP2 DUP3 MSTORE DUP10 DUP7 AND PUSH1 0x0 DUP2 DUP2 MSTORE PUSH1 0x2 DUP4 MSTORE DUP10 DUP2 KECCAK256 SWAP9 MLOAD DUP10 SLOAD SWAP5 MLOAD SWAP1 SWAP6 AND PUSH1 0x1 PUSH1 0xA0 SHL MUL PUSH1 0x1 PUSH1 0x1 PUSH1 0xB0 SHL SUB NOT SWAP1 SWAP5 AND SWAP5 SWAP1 SWAP8 AND SWAP4 SWAP1 SWAP4 OR SWAP2 SWAP1 SWAP2 OR SWAP1 SWAP6 SSTORE DUP2 SLOAD PUSH1 0x1 DUP2 ADD DUP4 SSTORE SWAP2 SWAP1 SWAP4 MSTORE PUSH32 0xC2575A0E9E593C00F959F8C92F12DB2869C3395A3B0502D05E2516446F71F85B ADD DUP1 SLOAD PUSH1 0x1 PUSH1 0x1 PUSH1 0xA0 SHL SUB NOT AND DUP4 OR SWAP1 SSTORE DUP4 MLOAD SWAP2 DUP3 MSTORE SWAP2 DUP2 ADD SWAP2 SWAP1 SWAP2 MSTORE PUSH32 0xF6E0528DC0C0EF50525339FAFF44940D57E7897BEE18B67DD0AA23BBA1749AD2 SWAP2 ADD PUSH1 0x40 MLOAD DUP1 SWAP2 SUB SWAP1 LOG1 POP POP JUMP JUMPDEST PUSH1 0x0 PUSH32 0x0 PUSH1 0x1 PUSH1 0x1 PUSH1 0xA0 SHL SUB AND PUSH4 0x8DA5CB5B PUSH1 0x40 MLOAD DUP2 PUSH4 0xFFFFFFFF AND PUSH1 0xE0 SHL DUP2 MSTORE PUSH1 0x4 ADD PUSH1 0x20 PUSH1 0x40 MLOAD DUP1 DUP4 SUB DUP2 DUP7 GAS STATICCALL ISZERO DUP1 ISZERO PUSH2 0xB95 JUMPI RETURNDATASIZE PUSH1 0x0 DUP1 RETURNDATACOPY RETURNDATASIZE PUSH1 0x0 REVERT JUMPDEST DUP4 CALLER PUSH1 0x1 PUSH1 0x1 PUSH1 0xA0 SHL SUB DUP3 AND EQ DUP1 PUSH2 0x1031 JUMPI POP PUSH1 0x1 PUSH1 0x1 PUSH1 0xA0 SHL SUB DUP2 AND PUSH1 0x0 SWAP1 DUP2 MSTORE PUSH1 0x20 DUP2 DUP2 MSTORE PUSH1 0x40 DUP1 DUP4 KECCAK256 CALLER DUP5 MSTORE SWAP1 SWAP2 MSTORE SWAP1 KECCAK256 SLOAD PUSH1 0xFF AND JUMPDEST PUSH2 0x104D JUMPI PUSH1 0x40 MLOAD PUSH3 0x461BCD PUSH1 0xE5 SHL DUP2 MSTORE PUSH1 0x4 ADD PUSH2 0x61D SWAP1 PUSH2 0x2F2C JUMP JUMPDEST PUSH2 0x1061 DUP7 DUP7 PUSH1 0x0 DUP1 PUSH1 0x0 DUP10 PUSH1 0x0 DUP11 DUP11 PUSH2 0x2285 JUMP JUMPDEST POP POP POP POP POP POP JUMP JUMPDEST DUP4 CALLER PUSH1 0x1 PUSH1 0x1 PUSH1 0xA0 SHL SUB DUP3 AND EQ DUP1 PUSH2 0x10A2 JUMPI POP PUSH1 0x1 PUSH1 0x1 PUSH1 0xA0 SHL SUB DUP2 AND PUSH1 0x0 SWAP1 DUP2 MSTORE PUSH1 0x20 DUP2 DUP2 MSTORE PUSH1 0x40 DUP1 DUP4 KECCAK256 CALLER DUP5 MSTORE SWAP1 SWAP2 MSTORE SWAP1 KECCAK256 SLOAD PUSH1 0xFF AND JUMPDEST PUSH2 0x10BE JUMPI PUSH1 0x40 MLOAD PUSH3 0x461BCD PUSH1 0xE5 SHL DUP2 MSTORE PUSH1 0x4 ADD PUSH2 0x61D SWAP1 PUSH2 0x2F2C JUMP JUMPDEST PUSH2 0x1061 DUP7 DUP7 PUSH1 0x0 DUP1 DUP9 PUSH1 0x0 DUP1 DUP11 DUP11 PUSH2 0x2285 JUMP JUMPDEST PUSH2 0x10F5 PUSH1 0x40 MLOAD DUP1 PUSH1 0x60 ADD PUSH1 0x40 MSTORE DUP1 PUSH1 0x60 DUP2 MSTORE PUSH1 0x20 ADD PUSH1 0x60 DUP2 MSTORE PUSH1 0x20 ADD PUSH1 0x60 DUP2 MSTORE POP SWAP1 JUMP JUMPDEST PUSH1 0x3 SLOAD PUSH1 0x40 DUP1 MLOAD PUSH1 0x60 DUP2 ADD SWAP1 SWAP2 MSTORE DUP1 DUP3 PUSH1 0x1 PUSH1 0x1 PUSH1 0x40 SHL SUB DUP2 GT ISZERO PUSH2 0x111C JUMPI PUSH2 0x111C PUSH2 0x305A JUMP JUMPDEST PUSH1 0x40 MLOAD SWAP1 DUP1 DUP3 MSTORE DUP1 PUSH1 0x20 MUL PUSH1 0x20 ADD DUP3 ADD PUSH1 0x40 MSTORE DUP1 ISZERO PUSH2 0x1145 JUMPI DUP2 PUSH1 0x20 ADD PUSH1 0x20 DUP3 MUL DUP1 CALLDATASIZE DUP4 CALLDATACOPY ADD SWAP1 POP JUMPDEST POP DUP2 MSTORE PUSH1 0x20 ADD DUP3 PUSH1 0x1 PUSH1 0x1 PUSH1 0x40 SHL SUB DUP2 GT ISZERO PUSH2 0x1163 JUMPI PUSH2 0x1163 PUSH2 0x305A JUMP JUMPDEST PUSH1 0x40 MLOAD SWAP1 DUP1 DUP3 MSTORE DUP1 PUSH1 0x20 MUL PUSH1 0x20 ADD DUP3 ADD PUSH1 0x40 MSTORE DUP1 ISZERO PUSH2 0x118C JUMPI DUP2 PUSH1 0x20 ADD PUSH1 0x20 DUP3 MUL DUP1 CALLDATASIZE DUP4 CALLDATACOPY ADD SWAP1 POP JUMPDEST POP DUP2 MSTORE PUSH1 0x20 ADD DUP3 PUSH1 0x1 PUSH1 0x1 PUSH1 0x40 SHL SUB DUP2 GT ISZERO PUSH2 0x11AA JUMPI PUSH2 0x11AA PUSH2 0x305A JUMP JUMPDEST PUSH1 0x40 MLOAD SWAP1 DUP1 DUP3 MSTORE DUP1 PUSH1 0x20 MUL PUSH1 0x20 ADD DUP3 ADD PUSH1 0x40 MSTORE DUP1 ISZERO PUSH2 0x11D3 JUMPI DUP2 PUSH1 0x20 ADD PUSH1 0x20 DUP3 MUL DUP1 CALLDATASIZE DUP4 CALLDATACOPY ADD SWAP1 POP JUMPDEST POP SWAP1 MSTORE SWAP2 POP PUSH1 0x0 JUMPDEST DUP2 DUP2 LT ISZERO PUSH2 0x12FF JUMPI PUSH1 0x0 PUSH1 0x3 DUP3 DUP2 SLOAD DUP2 LT PUSH2 0x11F8 JUMPI PUSH2 0x11F8 PUSH2 0x3070 JUMP JUMPDEST SWAP1 PUSH1 0x0 MSTORE PUSH1 0x20 PUSH1 0x0 KECCAK256 ADD PUSH1 0x0 SWAP1 SLOAD SWAP1 PUSH2 0x100 EXP SWAP1 DIV PUSH1 0x1 PUSH1 0x1 PUSH1 0xA0 SHL SUB AND SWAP1 POP PUSH1 0x0 DUP1 PUSH1 0x0 DUP4 PUSH1 0x1 PUSH1 0x1 PUSH1 0xA0 SHL SUB AND PUSH4 0x1C799FC PUSH1 0x40 MLOAD DUP2 PUSH4 0xFFFFFFFF AND PUSH1 0xE0 SHL DUP2 MSTORE PUSH1 0x4 ADD PUSH1 0x60 PUSH1 0x40 MLOAD DUP1 DUP4 SUB DUP2 PUSH1 0x0 DUP8 GAS CALL ISZERO DUP1 ISZERO PUSH2 0x125D JUMPI RETURNDATASIZE PUSH1 0x0 DUP1 RETURNDATACOPY RETURNDATASIZE PUSH1 0x0 REVERT JUMPDEST POP POP POP POP PUSH1 0x40 MLOAD RETURNDATASIZE PUSH1 0x1F NOT PUSH1 0x1F DUP3 ADD AND DUP3 ADD DUP1 PUSH1 0x40 MSTORE POP DUP2 ADD SWAP1 PUSH2 0x1281 SWAP2 SWAP1 PUSH2 0x3086 JUMP JUMPDEST SWAP3 POP SWAP3 POP SWAP3 POP DUP3 DUP8 PUSH1 0x0 ADD MLOAD DUP7 DUP2 MLOAD DUP2 LT PUSH2 0x129E JUMPI PUSH2 0x129E PUSH2 0x3070 JUMP JUMPDEST PUSH1 0x20 MUL PUSH1 0x20 ADD ADD DUP2 DUP2 MSTORE POP POP DUP2 DUP8 PUSH1 0x20 ADD MLOAD DUP7 DUP2 MLOAD DUP2 LT PUSH2 0x12C1 JUMPI PUSH2 0x12C1 PUSH2 0x3070 JUMP JUMPDEST PUSH1 0x20 MUL PUSH1 0x20 ADD ADD DUP2 DUP2 MSTORE POP POP DUP1 DUP8 PUSH1 0x40 ADD MLOAD DUP7 DUP2 MLOAD DUP2 LT PUSH2 0x12E4 JUMPI PUSH2 0x12E4 PUSH2 0x3070 JUMP JUMPDEST PUSH1 0x20 MUL PUSH1 0x20 ADD ADD DUP2 DUP2 MSTORE POP POP DUP5 PUSH1 0x1 ADD SWAP5 POP POP POP POP POP PUSH2 0x11DB JUMP JUMPDEST POP POP SWAP1 JUMP JUMPDEST PUSH1 0x0 DUP1 PUSH2 0x130F PUSH2 0x10D1 JUMP JUMPDEST SWAP1 POP PUSH2 0x131A DUP2 PUSH2 0x21D7 JUMP JUMPDEST POP SWAP1 SWAP4 SWAP3 POP POP POP JUMP JUMPDEST DUP5 CALLER PUSH1 0x1 PUSH1 0x1 PUSH1 0xA0 SHL SUB DUP3 AND EQ DUP1 PUSH2 0x135C JUMPI POP PUSH1 0x1 PUSH1 0x1 PUSH1 0xA0 SHL SUB DUP2 AND PUSH1 0x0 SWAP1 DUP2 MSTORE PUSH1 0x20 DUP2 DUP2 MSTORE PUSH1 0x40 DUP1 DUP4 KECCAK256 CALLER DUP5 MSTORE SWAP1 SWAP2 MSTORE SWAP1 KECCAK256 SLOAD PUSH1 0xFF AND JUMPDEST PUSH2 0x1378 JUMPI PUSH1 0x40 MLOAD PUSH3 0x461BCD PUSH1 0xE5 SHL DUP2 MSTORE PUSH1 0x4 ADD PUSH2 0x61D SWAP1 PUSH2 0x2F2C JUMP JUMPDEST PUSH32 0x0 PUSH1 0x1 PUSH1 0x1 PUSH1 0xA0 SHL SUB AND PUSH4 0x5C975ABB PUSH1 0x40 MLOAD DUP2 PUSH4 0xFFFFFFFF AND PUSH1 0xE0 SHL DUP2 MSTORE PUSH1 0x4 ADD PUSH1 0x20 PUSH1 0x40 MLOAD DUP1 DUP4 SUB DUP2 DUP7 GAS STATICCALL ISZERO DUP1 ISZERO PUSH2 0x13D6 JUMPI RETURNDATASIZE PUSH1 0x0 DUP1 RETURNDATACOPY RETURNDATASIZE PUSH1 0x0 REVERT JUMPDEST POP POP POP POP PUSH1 0x40 MLOAD RETURNDATASIZE PUSH1 0x1F NOT PUSH1 0x1F DUP3 ADD AND DUP3 ADD DUP1 PUSH1 0x40 MSTORE POP DUP2 ADD SWAP1 PUSH2 0x13FA SWAP2 SWAP1 PUSH2 0x2F5B JUMP JUMPDEST ISZERO PUSH2 0x1440 JUMPI PUSH1 0x40 MLOAD PUSH3 0x461BCD PUSH1 0xE5 SHL DUP2 MSTORE PUSH1 0x20 PUSH1 0x4 DUP3 ADD MSTORE PUSH1 0x16 PUSH1 0x24 DUP3 ADD MSTORE PUSH22 0x15DA5D1A191C985DD85B1CC8185C99481C185D5CD959 PUSH1 0x52 SHL PUSH1 0x44 DUP3 ADD MSTORE PUSH1 0x64 ADD PUSH2 0x61D JUMP JUMPDEST PUSH2 0x1453 DUP8 DUP8 DUP8 PUSH1 0x0 DUP1 DUP10 PUSH1 0x1 DUP11 DUP11 PUSH2 0x2285 JUMP JUMPDEST POP POP POP POP POP POP POP JUMP JUMPDEST CALLER PUSH1 0x0 DUP2 DUP2 MSTORE PUSH1 0x20 DUP2 DUP2 MSTORE PUSH1 0x40 DUP1 DUP4 KECCAK256 PUSH1 0x1 PUSH1 0x1 PUSH1 0xA0 SHL SUB DUP8 AND DUP1 DUP6 MSTORE SWAP1 DUP4 MSTORE SWAP3 DUP2 SWAP1 KECCAK256 DUP1 SLOAD PUSH1 0xFF NOT AND DUP7 ISZERO ISZERO SWAP1 DUP2 OR SWAP1 SWAP2 SSTORE SWAP1 MLOAD SWAP1 DUP2 MSTORE SWAP2 SWAP3 SWAP2 PUSH32 0x92D241AFB0A1A9B3441BF1BD6BEA0F9164CF5A2562CBE4BCC34AB943B2465608 SWAP2 ADD PUSH1 0x40 MLOAD DUP1 SWAP2 SUB SWAP1 LOG3 POP POP JUMP JUMPDEST DUP8 CALLER PUSH1 0x1 PUSH1 0x1 PUSH1 0xA0 SHL SUB DUP3 AND EQ DUP1 PUSH2 0x14FF JUMPI POP PUSH1 0x1 PUSH1 0x1 PUSH1 0xA0 SHL SUB DUP2 AND PUSH1 0x0 SWAP1 DUP2 MSTORE PUSH1 0x20 DUP2 DUP2 MSTORE PUSH1 0x40 DUP1 DUP4 KECCAK256 CALLER DUP5 MSTORE SWAP1 SWAP2 MSTORE SWAP1 KECCAK256 SLOAD PUSH1 0xFF AND JUMPDEST PUSH2 0x151B JUMPI PUSH1 0x40 MLOAD PUSH3 0x461BCD PUSH1 0xE5 SHL DUP2 MSTORE PUSH1 0x4 ADD PUSH2 0x61D SWAP1 PUSH2 0x2F2C JUMP JUMPDEST DUP7 ISZERO DUP1 ISZERO PUSH2 0x1527 JUMPI POP DUP4 ISZERO JUMPDEST DUP1 PUSH2 0x15B1 JUMPI POP PUSH32 0x0 PUSH1 0x1 PUSH1 0x1 PUSH1 0xA0 SHL SUB AND PUSH4 0x5C975ABB PUSH1 0x40 MLOAD DUP2 PUSH4 0xFFFFFFFF AND PUSH1 0xE0 SHL DUP2 MSTORE PUSH1 0x4 ADD PUSH1 0x20 PUSH1 0x40 MLOAD DUP1 DUP4 SUB DUP2 DUP7 GAS STATICCALL ISZERO DUP1 ISZERO PUSH2 0x158B JUMPI RETURNDATASIZE PUSH1 0x0 DUP1 RETURNDATACOPY RETURNDATASIZE PUSH1 0x0 REVERT JUMPDEST POP POP POP POP PUSH1 0x40 MLOAD RETURNDATASIZE PUSH1 0x1F NOT PUSH1 0x1F DUP3 ADD AND DUP3 ADD DUP1 PUSH1 0x40 MSTORE POP DUP2 ADD SWAP1 PUSH2 0x15AF SWAP2 SWAP1 PUSH2 0x2F5B JUMP JUMPDEST ISZERO JUMPDEST PUSH2 0x15CD JUMPI PUSH1 0x40 MLOAD PUSH3 0x461BCD PUSH1 0xE5 SHL DUP2 MSTORE PUSH1 0x4 ADD PUSH2 0x61D SWAP1 PUSH2 0x30B4 JUMP JUMPDEST DUP7 ISZERO DUP1 PUSH2 0x15D8 JUMPI POP DUP6 ISZERO JUMPDEST PUSH2 0x163D JUMPI PUSH1 0x40 MLOAD PUSH3 0x461BCD PUSH1 0xE5 SHL DUP2 MSTORE PUSH1 0x20 PUSH1 0x4 DUP3 ADD MSTORE PUSH1 0x30 PUSH1 0x24 DUP3 ADD MSTORE PUSH32 0x426F72726F7765724F7065726174696F6E733A2043616E6E6F74207769746864 PUSH1 0x44 DUP3 ADD MSTORE PUSH16 0x1C985DC8185B99081859190818DBDB1B PUSH1 0x82 SHL PUSH1 0x64 DUP3 ADD MSTORE PUSH1 0x84 ADD PUSH2 0x61D JUMP JUMPDEST PUSH1 0x0 DUP8 GT DUP1 ISZERO PUSH2 0x1689 JUMPI POP PUSH1 0x1 PUSH1 0x1 PUSH1 0xA0 SHL SUB DUP11 DUP2 AND PUSH1 0x0 SWAP1 DUP2 MSTORE PUSH1 0x2 PUSH1 0x20 MSTORE PUSH1 0x40 SWAP1 KECCAK256 SLOAD PUSH32 0x0 DUP3 AND SWAP2 AND EQ JUMPDEST ISZERO PUSH2 0x16AD JUMPI DUP7 CALLVALUE EQ PUSH2 0x16AD JUMPI PUSH1 0x40 MLOAD PUSH3 0x461BCD PUSH1 0xE5 SHL DUP2 MSTORE PUSH1 0x4 ADD PUSH2 0x61D SWAP1 PUSH2 0x2FF5 JUMP JUMPDEST PUSH2 0x16BE DUP11 DUP11 DUP11 DUP11 DUP11 DUP11 DUP11 DUP11 DUP11 PUSH2 0x2285 JUMP JUMPDEST POP POP POP POP POP POP POP POP POP POP JUMP JUMPDEST CALLER PUSH1 0x0 SWAP1 DUP2 MSTORE PUSH1 0x2 PUSH1 0x20 MSTORE PUSH1 0x40 SWAP1 KECCAK256 SLOAD PUSH32 0x0 PUSH1 0x1 PUSH1 0x1 PUSH1 0xA0 SHL SUB SWAP1 DUP2 AND SWAP2 AND EQ PUSH2 0x1712 JUMPI PUSH1 0x0 DUP1 REVERT JUMPDEST PUSH1 0x40 MLOAD PUSH1 0x1 PUSH1 0x1 PUSH1 0xA0 SHL SUB DUP4 AND SWAP1 DUP3 ISZERO PUSH2 0x8FC MUL SWAP1 DUP4 SWAP1 PUSH1 0x0 DUP2 DUP2 DUP2 DUP6 DUP9 DUP9 CALL SWAP4 POP POP POP POP ISZERO DUP1 ISZERO PUSH2 0x1748 JUMPI RETURNDATASIZE PUSH1 0x0 DUP1 RETURNDATACOPY RETURNDATASIZE PUSH1 0x0 REVERT JUMPDEST POP POP POP JUMP JUMPDEST PUSH1 0x1 PUSH1 0x1 PUSH1 0xA0 SHL SUB DUP2 DUP2 AND PUSH1 0x0 SWAP1 DUP2 MSTORE PUSH1 0x2 PUSH1 0x20 SWAP1 DUP2 MSTORE PUSH1 0x40 SWAP2 DUP3 SWAP1 KECCAK256 DUP3 MLOAD DUP1 DUP5 ADD SWAP1 SWAP4 MSTORE SLOAD SWAP3 DUP4 AND DUP1 DUP4 MSTORE PUSH1 0x1 PUSH1 0xA0 SHL SWAP1 SWAP4 DIV PUSH2 0xFFFF AND SWAP1 DUP3 ADD MSTORE SWAP1 ISZERO DUP1 ISZERO SWAP1 PUSH2 0x17F5 JUMPI POP DUP2 PUSH1 0x1 PUSH1 0x1 PUSH1 0xA0 SHL SUB AND PUSH4 0x9484FB8E PUSH1 0x40 MLOAD DUP2 PUSH4 0xFFFFFFFF AND PUSH1 0xE0 SHL DUP2 MSTORE PUSH1 0x4 ADD PUSH1 0x20 PUSH1 0x40 MLOAD DUP1 DUP4 SUB DUP2 DUP7 GAS STATICCALL ISZERO DUP1 ISZERO PUSH2 0x17D1 JUMPI RETURNDATASIZE PUSH1 0x0 DUP1 RETURNDATACOPY RETURNDATASIZE PUSH1 0x0 REVERT JUMPDEST POP POP POP POP PUSH1 0x40 MLOAD RETURNDATASIZE PUSH1 0x1F NOT PUSH1 0x1F DUP3 ADD AND DUP3 ADD DUP1 PUSH1 0x40 MSTORE POP DUP2 ADD SWAP1 PUSH2 0x17F5 SWAP2 SWAP1 PUSH2 0x2F5B JUMP JUMPDEST DUP1 ISZERO PUSH2 0x1860 JUMPI POP DUP2 PUSH1 0x1 PUSH1 0x1 PUSH1 0xA0 SHL SUB AND PUSH4 0x795D26C3 PUSH1 0x40 MLOAD DUP2 PUSH4 0xFFFFFFFF AND PUSH1 0xE0 SHL DUP2 MSTORE PUSH1 0x4 ADD PUSH1 0x20 PUSH1 0x40 MLOAD DUP1 DUP4 SUB DUP2 DUP7 GAS STATICCALL ISZERO DUP1 ISZERO PUSH2 0x183A JUMPI RETURNDATASIZE PUSH1 0x0 DUP1 RETURNDATACOPY RETURNDATASIZE PUSH1 0x0 REVERT JUMPDEST POP POP POP POP PUSH1 0x40 MLOAD RETURNDATASIZE PUSH1 0x1F NOT PUSH1 0x1F DUP3 ADD AND DUP3 ADD DUP1 PUSH1 0x40 MSTORE POP DUP2 ADD SWAP1 PUSH2 0x185E SWAP2 SWAP1 PUSH2 0x2FA1 JUMP JUMPDEST ISZERO JUMPDEST PUSH2 0x18AC JUMPI PUSH1 0x40 MLOAD PUSH3 0x461BCD PUSH1 0xE5 SHL DUP2 MSTORE PUSH1 0x20 PUSH1 0x4 DUP3 ADD MSTORE PUSH1 0x1F PUSH1 0x24 DUP3 ADD MSTORE PUSH32 0x54726F7665204D616E616765722063616E6E6F742062652072656D6F76656400 PUSH1 0x44 DUP3 ADD MSTORE PUSH1 0x64 ADD PUSH2 0x61D JUMP JUMPDEST PUSH1 0x1 PUSH1 0x1 PUSH1 0xA0 SHL SUB DUP3 AND PUSH1 0x0 SWAP1 DUP2 MSTORE PUSH1 0x2 PUSH1 0x20 MSTORE PUSH1 0x40 DUP2 KECCAK256 DUP1 SLOAD PUSH1 0x1 PUSH1 0x1 PUSH1 0xB0 SHL SUB NOT AND SWAP1 SSTORE PUSH1 0x3 SLOAD PUSH2 0x18E1 SWAP1 PUSH1 0x1 SWAP1 PUSH2 0x3047 JUMP JUMPDEST SWAP1 POP DUP1 DUP3 PUSH1 0x20 ADD MLOAD PUSH2 0xFFFF AND LT ISZERO PUSH2 0x199F JUMPI PUSH1 0x0 PUSH1 0x3 DUP3 DUP2 SLOAD DUP2 LT PUSH2 0x1908 JUMPI PUSH2 0x1908 PUSH2 0x3070 JUMP JUMPDEST SWAP1 PUSH1 0x0 MSTORE PUSH1 0x20 PUSH1 0x0 KECCAK256 ADD PUSH1 0x0 SWAP1 SLOAD SWAP1 PUSH2 0x100 EXP SWAP1 DIV PUSH1 0x1 PUSH1 0x1 PUSH1 0xA0 SHL SUB AND SWAP1 POP DUP1 PUSH1 0x3 DUP5 PUSH1 0x20 ADD MLOAD PUSH2 0xFFFF AND DUP2 SLOAD DUP2 LT PUSH2 0x1944 JUMPI PUSH2 0x1944 PUSH2 0x3070 JUMP JUMPDEST PUSH1 0x0 SWAP2 DUP3 MSTORE PUSH1 0x20 DUP1 DUP4 KECCAK256 SWAP1 SWAP2 ADD DUP1 SLOAD PUSH1 0x1 PUSH1 0x1 PUSH1 0xA0 SHL SUB SWAP5 DUP6 AND PUSH1 0x1 PUSH1 0x1 PUSH1 0xA0 SHL SUB NOT SWAP1 SWAP2 AND OR SWAP1 SSTORE DUP6 DUP2 ADD MLOAD SWAP4 SWAP1 SWAP3 AND DUP2 MSTORE PUSH1 0x2 SWAP1 SWAP2 MSTORE PUSH1 0x40 SWAP1 KECCAK256 DUP1 SLOAD PUSH2 0xFFFF SWAP1 SWAP3 AND PUSH1 0x1 PUSH1 0xA0 SHL MUL PUSH2 0xFFFF PUSH1 0xA0 SHL NOT SWAP1 SWAP3 AND SWAP2 SWAP1 SWAP2 OR SWAP1 SSTORE JUMPDEST PUSH1 0x3 DUP1 SLOAD DUP1 PUSH2 0x19B0 JUMPI PUSH2 0x19B0 PUSH2 0x30EA JUMP JUMPDEST PUSH1 0x0 DUP3 DUP2 MSTORE PUSH1 0x20 SWAP1 KECCAK256 DUP2 ADD PUSH1 0x0 NOT SWAP1 DUP2 ADD DUP1 SLOAD PUSH1 0x1 PUSH1 0x1 PUSH1 0xA0 SHL SUB NOT AND SWAP1 SSTORE ADD SWAP1 SSTORE PUSH1 0x40 MLOAD PUSH32 0xE44BBEF3BC872937D7DAF489DB0BADFFC044D1813A027AEA391838C546514303 SWAP1 PUSH2 0x1A02 SWAP1 DUP6 SWAP1 PUSH2 0x2C34 JUMP JUMPDEST PUSH1 0x40 MLOAD DUP1 SWAP2 SUB SWAP1 LOG1 POP POP POP JUMP JUMPDEST DUP4 CALLER PUSH1 0x1 PUSH1 0x1 PUSH1 0xA0 SHL SUB DUP3 AND EQ DUP1 PUSH2 0x1A48 JUMPI POP PUSH1 0x1 PUSH1 0x1 PUSH1 0xA0 SHL SUB DUP2 AND PUSH1 0x0 SWAP1 DUP2 MSTORE PUSH1 0x20 DUP2 DUP2 MSTORE PUSH1 0x40 DUP1 DUP4 KECCAK256 CALLER DUP5 MSTORE SWAP1 SWAP2 MSTORE SWAP1 KECCAK256 SLOAD PUSH1 0xFF AND JUMPDEST PUSH2 0x1A64 JUMPI PUSH1 0x40 MLOAD PUSH3 0x461BCD PUSH1 0xE5 SHL DUP2 MSTORE PUSH1 0x4 ADD PUSH2 0x61D SWAP1 PUSH2 0x2F2C JUMP JUMPDEST PUSH32 0x0 PUSH1 0x1 PUSH1 0x1 PUSH1 0xA0 SHL SUB AND PUSH4 0x5C975ABB PUSH1 0x40 MLOAD DUP2 PUSH4 0xFFFFFFFF AND PUSH1 0xE0 SHL DUP2 MSTORE PUSH1 0x4 ADD PUSH1 0x20 PUSH1 0x40 MLOAD DUP1 DUP4 SUB DUP2 DUP7 GAS STATICCALL ISZERO DUP1 ISZERO PUSH2 0x1AC2 JUMPI RETURNDATASIZE PUSH1 0x0 DUP1 RETURNDATACOPY RETURNDATASIZE PUSH1 0x0 REVERT JUMPDEST POP POP POP POP PUSH1 0x40 MLOAD RETURNDATASIZE PUSH1 0x1F NOT PUSH1 0x1F DUP3 ADD AND DUP3 ADD DUP1 PUSH1 0x40 MSTORE POP DUP2 ADD SWAP1 PUSH2 0x1AE6 SWAP2 SWAP1 PUSH2 0x2F5B JUMP JUMPDEST ISZERO PUSH2 0x1B03 JUMPI PUSH1 0x40 MLOAD PUSH3 0x461BCD PUSH1 0xE5 SHL DUP2 MSTORE PUSH1 0x4 ADD PUSH2 0x61D SWAP1 PUSH2 0x30B4 JUMP JUMPDEST PUSH1 0x1 PUSH1 0x1 PUSH1 0xA0 SHL SUB DUP7 DUP2 AND PUSH1 0x0 SWAP1 DUP2 MSTORE PUSH1 0x2 PUSH1 0x20 MSTORE PUSH1 0x40 SWAP1 KECCAK256 SLOAD PUSH32 0x0 DUP3 AND SWAP2 AND SUB PUSH2 0x1B66 JUMPI DUP4 CALLVALUE EQ PUSH2 0x1B66 JUMPI PUSH1 0x40 MLOAD PUSH3 0x461BCD PUSH1 0xE5 SHL DUP2 MSTORE PUSH1 0x4 ADD PUSH2 0x61D SWAP1 PUSH2 0x2FF5 JUMP JUMPDEST PUSH2 0x1061 DUP7 DUP7 PUSH1 0x0 DUP8 PUSH1 0x0 DUP1 PUSH1 0x0 DUP11 DUP11 PUSH2 0x2285 JUMP JUMPDEST PUSH1 0x1 PUSH1 0x1 PUSH1 0xA0 SHL SUB DUP2 DUP2 AND PUSH1 0x0 SWAP1 DUP2 MSTORE PUSH1 0x2 PUSH1 0x20 MSTORE PUSH1 0x40 DUP2 KECCAK256 DUP1 SLOAD SWAP3 DUP4 AND SWAP3 DUP3 SWAP2 DUP3 SWAP2 DUP3 SWAP2 SWAP1 PUSH1 0x1 PUSH1 0xA0 SHL SWAP1 DIV PUSH2 0xFFFF AND DUP7 PUSH2 0x1BF1 JUMPI PUSH1 0x40 MLOAD PUSH3 0x461BCD PUSH1 0xE5 SHL DUP2 MSTORE PUSH1 0x20 PUSH1 0x4 DUP3 ADD MSTORE PUSH1 0x16 PUSH1 0x24 DUP3 ADD MSTORE PUSH22 0x10DBDB1B185D195C985B081B9BDD08195B98589B1959 PUSH1 0x52 SHL PUSH1 0x44 DUP3 ADD MSTORE PUSH1 0x64 ADD PUSH2 0x61D JUMP JUMPDEST PUSH1 0x0 DUP1 PUSH2 0x1BFC PUSH2 0x10D1 JUMP JUMPDEST SWAP1 POP PUSH2 0x1C07 DUP2 PUSH2 0x21D7 JUMP JUMPDEST SWAP1 SWAP9 POP SWAP7 POP SWAP2 POP PUSH2 0x1C1F DUP3 PUSH8 0x18FAE27693B40000 GT SWAP1 JUMP JUMPDEST SWAP5 POP DUP9 DUP2 PUSH1 0x40 ADD MLOAD DUP5 DUP2 MLOAD DUP2 LT PUSH2 0x1C38 JUMPI PUSH2 0x1C38 PUSH2 0x3070 JUMP JUMPDEST PUSH1 0x20 MUL PUSH1 0x20 ADD ADD MLOAD SWAP9 POP SWAP9 POP POP POP POP POP SWAP2 SWAP4 SWAP6 SWAP1 SWAP3 SWAP5 POP JUMP JUMPDEST PUSH8 0xDE0B6B3A7640000 DUP2 GT ISZERO PUSH2 0xB32 JUMPI PUSH1 0x40 MLOAD PUSH3 0x461BCD PUSH1 0xE5 SHL DUP2 MSTORE PUSH1 0x20 PUSH1 0x4 DUP3 ADD MSTORE PUSH1 0x32 PUSH1 0x24 DUP3 ADD MSTORE PUSH32 0x4D6178206665652070657263656E74616765206D757374206C65737320746861 PUSH1 0x44 DUP3 ADD MSTORE PUSH18 0x6E206F7220657175616C20746F2031303025 PUSH1 0x70 SHL PUSH1 0x64 DUP3 ADD MSTORE PUSH1 0x84 ADD PUSH2 0x61D JUMP JUMPDEST PUSH1 0x40 MLOAD PUSH4 0xB2F29D7B PUSH1 0xE0 SHL DUP2 MSTORE PUSH1 0x4 DUP2 ADD DUP3 SWAP1 MSTORE PUSH1 0x0 SWAP1 DUP2 SWAP1 PUSH1 0x1 PUSH1 0x1 PUSH1 0xA0 SHL SUB DUP9 AND SWAP1 PUSH4 0xB2F29D7B SWAP1 PUSH1 0x24 ADD PUSH1 0x20 PUSH1 0x40 MLOAD DUP1 DUP4 SUB DUP2 PUSH1 0x0 DUP8 GAS CALL ISZERO DUP1 ISZERO PUSH2 0x1D10 JUMPI RETURNDATASIZE PUSH1 0x0 DUP1 RETURNDATACOPY RETURNDATASIZE PUSH1 0x0 REVERT JUMPDEST POP POP POP POP PUSH1 0x40 MLOAD RETURNDATASIZE PUSH1 0x1F NOT PUSH1 0x1F DUP3 ADD AND DUP3 ADD DUP1 PUSH1 0x40 MSTORE POP DUP2 ADD SWAP1 PUSH2 0x1D34 SWAP2 SWAP1 PUSH2 0x2FA1 JUMP JUMPDEST SWAP1 POP PUSH2 0x1D41 DUP2 DUP5 DUP7 PUSH2 0x271E JUMP JUMPDEST PUSH32 0x0 PUSH1 0x1 PUSH1 0x1 PUSH1 0xA0 SHL SUB AND PUSH4 0x40C10F19 PUSH32 0x0 PUSH1 0x1 PUSH1 0x1 PUSH1 0xA0 SHL SUB AND PUSH4 0xB3F00674 PUSH1 0x40 MLOAD DUP2 PUSH4 0xFFFFFFFF AND PUSH1 0xE0 SHL DUP2 MSTORE PUSH1 0x4 ADD PUSH1 0x20 PUSH1 0x40 MLOAD DUP1 DUP4 SUB DUP2 DUP7 GAS STATICCALL ISZERO DUP1 ISZERO PUSH2 0x1DCE JUMPI RETURNDATASIZE PUSH1 0x0 DUP1 RETURNDATACOPY RETURNDATASIZE PUSH1 0x0 REVERT JUMPDEST POP POP POP POP PUSH1 0x40 MLOAD RETURNDATASIZE PUSH1 0x1F NOT PUSH1 0x1F DUP3 ADD AND DUP3 ADD DUP1 PUSH1 0x40 MSTORE POP DUP2 ADD SWAP1 PUSH2 0x1DF2 SWAP2 SWAP1 PUSH2 0x302A JUMP JUMPDEST DUP4 PUSH1 0x40 MLOAD DUP4 PUSH4 0xFFFFFFFF AND PUSH1 0xE0 SHL DUP2 MSTORE PUSH1 0x4 ADD PUSH2 0x1E10 SWAP3 SWAP2 SWAP1 PUSH2 0x3011 JUMP JUMPDEST PUSH1 0x0 PUSH1 0x40 MLOAD DUP1 DUP4 SUB DUP2 PUSH1 0x0 DUP8 DUP1 EXTCODESIZE ISZERO DUP1 ISZERO PUSH2 0x1E2A JUMPI PUSH1 0x0 DUP1 REVERT JUMPDEST POP GAS CALL ISZERO DUP1 ISZERO PUSH2 0x1E3E JUMPI RETURNDATASIZE PUSH1 0x0 DUP1 RETURNDATACOPY RETURNDATASIZE PUSH1 0x0 REVERT JUMPDEST POP POP POP POP DUP5 PUSH1 0x1 PUSH1 0x1 PUSH1 0xA0 SHL SUB AND PUSH32 0xD89359F0D8E7F936D0682C5565CC5A16989A91560A80C7B06C46C28E52A5D43A DUP8 DUP4 PUSH1 0x40 MLOAD PUSH2 0x1E7D SWAP3 SWAP2 SWAP1 PUSH2 0x3011 JUMP JUMPDEST PUSH1 0x40 MLOAD DUP1 SWAP2 SUB SWAP1 LOG2 SWAP7 SWAP6 POP POP POP POP POP POP JUMP JUMPDEST PUSH1 0x1 SLOAD DUP2 LT ISZERO PUSH2 0xB32 JUMPI PUSH1 0x40 MLOAD PUSH3 0x461BCD PUSH1 0xE5 SHL DUP2 MSTORE PUSH1 0x20 PUSH1 0x4 DUP3 ADD MSTORE PUSH1 0x3A PUSH1 0x24 DUP3 ADD MSTORE PUSH32 0x426F72726F7765724F70733A2054726F76652773206E65742064656274206D75 PUSH1 0x44 DUP3 ADD MSTORE PUSH26 0x73742062652067726561746572207468616E206D696E696D756D PUSH1 0x30 SHL PUSH1 0x64 DUP3 ADD MSTORE PUSH1 0x84 ADD PUSH2 0x61D JUMP JUMPDEST PUSH1 0x0 PUSH2 0xBC9 PUSH32 0x0 DUP4 PUSH2 0x2F8E JUMP JUMPDEST PUSH1 0x0 DUP3 ISZERO PUSH2 0x1F58 JUMPI PUSH1 0x0 DUP4 PUSH2 0x1F45 DUP5 DUP8 PUSH2 0x2FBA JUMP JUMPDEST PUSH2 0x1F4F SWAP2 SWAP1 PUSH2 0x3100 JUMP JUMPDEST SWAP2 POP PUSH2 0x1F5D SWAP1 POP JUMP JUMPDEST POP PUSH1 0x0 NOT JUMPDEST SWAP4 SWAP3 POP POP POP JUMP JUMPDEST PUSH1 0x0 DUP2 ISZERO PUSH2 0x1F91 JUMPI DUP2 PUSH2 0x1F80 PUSH9 0x56BC75E2D63100000 DUP6 PUSH2 0x2FBA JUMP JUMPDEST PUSH2 0x1F8A SWAP2 SWAP1 PUSH2 0x3100 JUMP JUMPDEST SWAP1 POP PUSH2 0xBC9 JUMP JUMPDEST POP PUSH1 0x0 NOT SWAP3 SWAP2 POP POP JUMP JUMPDEST PUSH8 0x18FAE27693B40000 DUP2 LT ISZERO PUSH2 0xB32 JUMPI PUSH1 0x40 MLOAD PUSH3 0x461BCD PUSH1 0xE5 SHL DUP2 MSTORE PUSH1 0x20 PUSH1 0x4 DUP3 ADD MSTORE PUSH1 0x37 PUSH1 0x24 DUP3 ADD MSTORE PUSH32 0x426F72726F7765724F70733A204F7065726174696F6E206D757374206C656176 PUSH1 0x44 DUP3 ADD MSTORE PUSH23 0x32903A3937BB32903BB4BA341024A1A9101F1E9021A1A9 PUSH1 0x49 SHL PUSH1 0x64 DUP3 ADD MSTORE PUSH1 0x84 ADD PUSH2 0x61D JUMP JUMPDEST DUP1 DUP3 LT ISZERO PUSH2 0x2089 JUMPI PUSH1 0x40 MLOAD PUSH3 0x461BCD PUSH1 0xE5 SHL DUP2 MSTORE PUSH1 0x20 PUSH1 0x4 DUP3 ADD MSTORE PUSH1 0x49 PUSH1 0x24 DUP3 ADD MSTORE PUSH1 0x0 DUP1 MLOAD PUSH1 0x20 PUSH2 0x3152 DUP4 CODECOPY DUP2 MLOAD SWAP2 MSTORE PUSH1 0x44 DUP3 ADD MSTORE PUSH32 0x6F756C6420726573756C7420696E20494352203C204D4352206973206E6F7420 PUSH1 0x64 DUP3 ADD MSTORE PUSH9 0x1C195C9B5A5D1D1959 PUSH1 0xBA SHL PUSH1 0x84 DUP3 ADD MSTORE PUSH1 0xA4 ADD PUSH2 0x61D JUMP JUMPDEST POP POP JUMP JUMPDEST PUSH1 0x0 DUP2 PUSH2 0x20A3 JUMPI PUSH2 0x209E DUP4 DUP8 PUSH2 0x3047 JUMP JUMPDEST PUSH2 0x20AD JUMP JUMPDEST PUSH2 0x20AD DUP4 DUP8 PUSH2 0x2F8E JUMP JUMPDEST SWAP6 POP DUP4 PUSH2 0x20C3 JUMPI PUSH2 0x20BE DUP6 DUP9 PUSH2 0x3047 JUMP JUMPDEST PUSH2 0x20CD JUMP JUMPDEST PUSH2 0x20CD DUP6 DUP9 PUSH2 0x2F8E JUMP JUMPDEST SWAP7 POP PUSH1 0x0 PUSH2 0x20DB DUP9 DUP9 PUSH2 0x278F JUMP JUMPDEST SWAP9 SWAP8 POP POP POP POP POP POP POP POP JUMP JUMPDEST PUSH8 0x18FAE27693B40000 DUP2 LT ISZERO PUSH2 0xB32 JUMPI PUSH1 0x40 MLOAD PUSH3 0x461BCD PUSH1 0xE5 SHL DUP2 MSTORE PUSH1 0x20 PUSH1 0x4 DUP3 ADD MSTORE PUSH1 0x49 PUSH1 0x24 DUP3 ADD MSTORE PUSH1 0x0 DUP1 MLOAD PUSH1 0x20 PUSH2 0x3152 DUP4 CODECOPY DUP2 MLOAD SWAP2 MSTORE PUSH1 0x44 DUP3 ADD MSTORE PUSH32 0x6F756C6420726573756C7420696E20544352203C20434352206973206E6F7420 PUSH1 0x64 DUP3 ADD MSTORE PUSH9 0x1C195C9B5A5D1D1959 PUSH1 0xBA SHL PUSH1 0x84 DUP3 ADD MSTORE PUSH1 0xA4 ADD PUSH2 0x61D JUMP JUMPDEST PUSH1 0x40 DUP1 MLOAD PUSH1 0x1 PUSH1 0x1 PUSH1 0xA0 SHL SUB DUP6 DUP2 AND PUSH1 0x24 DUP4 ADD MSTORE DUP5 AND PUSH1 0x44 DUP3 ADD MSTORE PUSH1 0x64 DUP1 DUP3 ADD DUP5 SWAP1 MSTORE DUP3 MLOAD DUP1 DUP4 SUB SWAP1 SWAP2 ADD DUP2 MSTORE PUSH1 0x84 SWAP1 SWAP2 ADD SWAP1 SWAP2 MSTORE PUSH1 0x20 DUP2 ADD DUP1 MLOAD PUSH1 0x1 PUSH1 0x1 PUSH1 0xE0 SHL SUB AND PUSH4 0x23B872DD PUSH1 0xE0 SHL OR SWAP1 MSTORE PUSH2 0x21BF SWAP1 DUP6 SWAP1 PUSH2 0x27AC JUMP JUMPDEST POP POP POP POP JUMP JUMPDEST PUSH1 0x0 DUP2 GT PUSH2 0x21D2 JUMPI PUSH1 0x0 DUP1 REVERT JUMPDEST PUSH1 0x1 SSTORE JUMP JUMPDEST DUP1 MLOAD MLOAD PUSH1 0x0 SWAP1 DUP2 SWAP1 DUP2 SWAP1 DUP2 JUMPDEST DUP2 DUP2 LT ISZERO PUSH2 0x2270 JUMPI DUP6 PUSH1 0x40 ADD MLOAD DUP2 DUP2 MLOAD DUP2 LT PUSH2 0x2201 JUMPI PUSH2 0x2201 PUSH2 0x3070 JUMP JUMPDEST PUSH1 0x20 MUL PUSH1 0x20 ADD ADD MLOAD DUP7 PUSH1 0x0 ADD MLOAD DUP3 DUP2 MLOAD DUP2 LT PUSH2 0x221F JUMPI PUSH2 0x221F PUSH2 0x3070 JUMP JUMPDEST PUSH1 0x20 MUL PUSH1 0x20 ADD ADD MLOAD PUSH2 0x2231 SWAP2 SWAP1 PUSH2 0x2FBA JUMP JUMPDEST PUSH2 0x223B SWAP1 DUP6 PUSH2 0x2F8E JUMP JUMPDEST SWAP4 POP DUP6 PUSH1 0x20 ADD MLOAD DUP2 DUP2 MLOAD DUP2 LT PUSH2 0x2253 JUMPI PUSH2 0x2253 PUSH2 0x3070 JUMP JUMPDEST PUSH1 0x20 MUL PUSH1 0x20 ADD ADD MLOAD DUP4 PUSH2 0x2266 SWAP2 SWAP1 PUSH2 0x2F8E JUMP JUMPDEST SWAP3 POP PUSH1 0x1 ADD PUSH2 0x21E3 JUMP JUMPDEST POP PUSH2 0x227B DUP4 DUP4 PUSH2 0x278F JUMP JUMPDEST SWAP4 POP POP SWAP2 SWAP4 SWAP1 SWAP3 POP JUMP JUMPDEST DUP6 ISZERO ISZERO DUP1 PUSH2 0x2292 JUMPI POP DUP5 ISZERO ISZERO JUMPDEST DUP1 PUSH2 0x229C JUMPI POP DUP4 ISZERO ISZERO JUMPDEST PUSH2 0x231D JUMPI PUSH1 0x40 MLOAD PUSH3 0x461BCD PUSH1 0xE5 SHL DUP2 MSTORE PUSH1 0x20 PUSH1 0x4 DUP3 ADD MSTORE PUSH1 0x46 PUSH1 0x24 DUP3 ADD MSTORE PUSH32 0x426F72726F7765724F70733A205468657265206D757374206265206569746865 PUSH1 0x44 DUP3 ADD MSTORE PUSH32 0x72206120636F6C6C61746572616C206368616E6765206F722061206465627420 PUSH1 0x64 DUP3 ADD MSTORE PUSH6 0x6368616E6765 PUSH1 0xD0 SHL PUSH1 0x84 DUP3 ADD MSTORE PUSH1 0xA4 ADD PUSH2 0x61D JUMP JUMPDEST PUSH1 0x0 PUSH2 0x239C PUSH1 0x40 MLOAD DUP1 PUSH2 0x1C0 ADD PUSH1 0x40 MSTORE DUP1 PUSH1 0x0 DUP2 MSTORE PUSH1 0x20 ADD PUSH1 0x0 DUP2 MSTORE PUSH1 0x20 ADD PUSH1 0x0 DUP2 MSTORE PUSH1 0x20 ADD PUSH1 0x0 DUP2 MSTORE PUSH1 0x20 ADD PUSH1 0x0 DUP2 MSTORE PUSH1 0x20 ADD PUSH1 0x0 ISZERO ISZERO DUP2 MSTORE PUSH1 0x20 ADD PUSH1 0x0 DUP2 MSTORE PUSH1 0x20 ADD PUSH1 0x0 DUP2 MSTORE PUSH1 0x20 ADD PUSH1 0x0 DUP2 MSTORE PUSH1 0x20 ADD PUSH1 0x0 DUP2 MSTORE PUSH1 0x20 ADD PUSH1 0x0 DUP2 MSTORE PUSH1 0x20 ADD PUSH1 0x0 DUP2 MSTORE PUSH1 0x20 ADD PUSH1 0x0 PUSH1 0x1 PUSH1 0x1 PUSH1 0xA0 SHL SUB AND DUP2 MSTORE PUSH1 0x20 ADD PUSH1 0x0 DUP2 MSTORE POP SWAP1 JUMP JUMPDEST PUSH1 0x0 PUSH2 0x23A7 DUP13 PUSH2 0x1B7A JUMP JUMPDEST PUSH1 0x40 DUP1 DUP9 ADD SWAP3 SWAP1 SWAP3 MSTORE PUSH1 0x20 DUP8 ADD SWAP3 SWAP1 SWAP3 MSTORE SWAP2 DUP6 MSTORE SWAP1 MLOAD PUSH4 0xB076557 PUSH1 0xE0 SHL DUP2 MSTORE SWAP2 SWAP5 POP SWAP2 POP PUSH1 0x1 PUSH1 0x1 PUSH1 0xA0 SHL SUB DUP14 AND SWAP1 PUSH4 0xB076557 SWAP1 PUSH2 0x23EB SWAP1 DUP15 SWAP1 PUSH1 0x4 ADD PUSH2 0x2C34 JUMP JUMPDEST PUSH1 0x40 DUP1 MLOAD DUP1 DUP4 SUB DUP2 PUSH1 0x0 DUP8 GAS CALL ISZERO DUP1 ISZERO PUSH2 0x2409 JUMPI RETURNDATASIZE PUSH1 0x0 DUP1 RETURNDATACOPY RETURNDATASIZE PUSH1 0x0 REVERT JUMPDEST POP POP POP POP PUSH1 0x40 MLOAD RETURNDATASIZE PUSH1 0x1F NOT PUSH1 0x1F DUP3 ADD AND DUP3 ADD DUP1 PUSH1 0x40 MSTORE POP DUP2 ADD SWAP1 PUSH2 0x242D SWAP2 SWAP1 PUSH2 0x2FD1 JUMP JUMPDEST PUSH1 0xC0 DUP5 ADD MSTORE PUSH1 0xE0 DUP4 ADD MSTORE PUSH2 0x2441 DUP10 DUP10 PUSH2 0x2806 JUMP JUMPDEST ISZERO ISZERO PUSH1 0xA0 DUP5 ADD MSTORE PUSH1 0x60 DUP4 ADD MSTORE PUSH1 0x80 DUP3 ADD DUP8 SWAP1 MSTORE PUSH2 0x160 DUP3 ADD DUP8 SWAP1 MSTORE PUSH1 0x1 PUSH1 0x1 PUSH1 0xA0 SHL SUB DUP1 DUP13 AND PUSH2 0x180 DUP5 ADD MSTORE PUSH1 0x40 DUP1 MLOAD PUSH4 0x1E5395C9 PUSH1 0xE2 SHL DUP2 MSTORE SWAP1 MLOAD SWAP2 DUP15 AND SWAP2 PUSH4 0x794E5724 SWAP2 PUSH1 0x4 DUP1 DUP3 ADD SWAP3 PUSH1 0x20 SWAP3 SWAP1 SWAP2 SWAP1 DUP3 SWAP1 SUB ADD DUP2 DUP7 GAS STATICCALL ISZERO DUP1 ISZERO PUSH2 0x24AC JUMPI RETURNDATASIZE PUSH1 0x0 DUP1 RETURNDATACOPY RETURNDATASIZE PUSH1 0x0 REVERT JUMPDEST POP POP POP POP PUSH1 0x40 MLOAD RETURNDATASIZE PUSH1 0x1F NOT PUSH1 0x1F DUP3 ADD AND DUP3 ADD DUP1 PUSH1 0x40 MSTORE POP DUP2 ADD SWAP1 PUSH2 0x24D0 SWAP2 SWAP1 PUSH2 0x2FA1 JUMP JUMPDEST PUSH2 0x1A0 DUP4 ADD MSTORE DUP6 ISZERO PUSH2 0x257C JUMPI PUSH1 0x0 DUP8 GT PUSH2 0x254C JUMPI PUSH1 0x40 MLOAD PUSH3 0x461BCD PUSH1 0xE5 SHL DUP2 MSTORE PUSH1 0x20 PUSH1 0x4 DUP3 ADD MSTORE PUSH1 0x37 PUSH1 0x24 DUP3 ADD MSTORE PUSH32 0x426F72726F7765724F70733A204465627420696E637265617365207265717569 PUSH1 0x44 DUP3 ADD MSTORE PUSH23 0x726573206E6F6E2D7A65726F20646562744368616E6765 PUSH1 0x48 SHL PUSH1 0x64 DUP3 ADD MSTORE PUSH1 0x84 ADD PUSH2 0x61D JUMP JUMPDEST PUSH2 0x2555 DUP11 PUSH2 0x1C51 JUMP JUMPDEST DUP1 PUSH2 0x257C JUMPI PUSH2 0x2567 DUP13 DUP5 CALLER DUP14 DUP12 PUSH2 0x1CC4 JUMP JUMPDEST DUP3 PUSH1 0x80 ADD DUP2 DUP2 MLOAD PUSH2 0x2578 SWAP2 SWAP1 PUSH2 0x2F8E JUMP JUMPDEST SWAP1 MSTORE POP JUMPDEST PUSH2 0x2592 DUP3 PUSH1 0x20 ADD MLOAD DUP4 PUSH1 0x40 ADD MLOAD DUP4 DUP12 DUP11 DUP8 PUSH2 0x2825 JUMP JUMPDEST DUP6 ISZERO DUP1 ISZERO PUSH2 0x25A0 JUMPI POP PUSH1 0x0 DUP8 GT JUMPDEST ISZERO PUSH2 0x25C9 JUMPI PUSH2 0x25C9 DUP3 PUSH1 0x80 ADD MLOAD PUSH2 0x25BA DUP5 PUSH1 0xC0 ADD MLOAD PUSH2 0x2954 JUMP JUMPDEST PUSH2 0x25C4 SWAP2 SWAP1 PUSH2 0x3047 JUMP JUMPDEST PUSH2 0x1E8F JUMP JUMPDEST DUP2 PUSH1 0xA0 ADD MLOAD DUP1 ISZERO PUSH2 0x260C JUMPI POP PUSH32 0x0 PUSH1 0x1 PUSH1 0x1 PUSH1 0xA0 SHL SUB AND DUP4 PUSH1 0x1 PUSH1 0x1 PUSH1 0xA0 SHL SUB AND EQ ISZERO JUMPDEST ISZERO PUSH2 0x262E JUMPI PUSH1 0x60 DUP3 ADD MLOAD PUSH2 0x262E SWAP1 PUSH1 0x1 PUSH1 0x1 PUSH1 0xA0 SHL SUB DUP6 AND SWAP1 CALLER SWAP1 DUP16 SWAP1 PUSH2 0x2165 JUMP JUMPDEST PUSH2 0x160 DUP3 ADD MLOAD PUSH1 0x80 DUP4 ADD MLOAD PUSH1 0xA0 DUP5 ADD MLOAD PUSH1 0x60 DUP6 ADD MLOAD PUSH2 0x180 DUP7 ADD MLOAD PUSH1 0x40 MLOAD PUSH4 0x11C82BD5 PUSH1 0xE3 SHL DUP2 MSTORE DUP7 ISZERO ISZERO PUSH1 0x4 DUP3 ADD MSTORE DUP12 ISZERO ISZERO PUSH1 0x24 DUP3 ADD MSTORE PUSH1 0x44 DUP2 ADD SWAP6 SWAP1 SWAP6 MSTORE PUSH1 0x64 DUP6 ADD SWAP4 SWAP1 SWAP4 MSTORE SWAP1 ISZERO ISZERO PUSH1 0x84 DUP5 ADD MSTORE PUSH1 0xA4 DUP4 ADD MSTORE PUSH1 0x1 PUSH1 0x1 PUSH1 0xA0 SHL SUB DUP8 DUP2 AND PUSH1 0xC4 DUP5 ADD MSTORE DUP7 DUP2 AND PUSH1 0xE4 DUP5 ADD MSTORE SWAP1 DUP2 AND PUSH2 0x104 DUP4 ADD MSTORE CALLER PUSH2 0x124 DUP4 ADD MSTORE DUP14 AND SWAP1 PUSH4 0x8E415EA8 SWAP1 PUSH2 0x144 ADD PUSH1 0x60 PUSH1 0x40 MLOAD DUP1 DUP4 SUB DUP2 PUSH1 0x0 DUP8 GAS CALL ISZERO DUP1 ISZERO PUSH2 0x26D7 JUMPI RETURNDATASIZE PUSH1 0x0 DUP1 RETURNDATACOPY RETURNDATASIZE PUSH1 0x0 REVERT JUMPDEST POP POP POP POP PUSH1 0x40 MLOAD RETURNDATASIZE PUSH1 0x1F NOT PUSH1 0x1F DUP3 ADD AND DUP3 ADD DUP1 PUSH1 0x40 MSTORE POP DUP2 ADD SWAP1 PUSH2 0x26FB SWAP2 SWAP1 PUSH2 0x3086 JUMP JUMPDEST PUSH2 0x140 DUP6 ADD MSTORE PUSH2 0x100 DUP5 ADD MSTORE PUSH2 0x120 SWAP1 SWAP3 ADD SWAP2 SWAP1 SWAP2 MSTORE POP POP POP POP POP POP POP POP POP POP POP JUMP JUMPDEST PUSH1 0x0 DUP3 PUSH2 0x2733 PUSH8 0xDE0B6B3A7640000 DUP7 PUSH2 0x2FBA JUMP JUMPDEST PUSH2 0x273D SWAP2 SWAP1 PUSH2 0x3100 JUMP JUMPDEST SWAP1 POP DUP2 DUP2 GT ISZERO PUSH2 0x21BF JUMPI PUSH1 0x40 MLOAD PUSH3 0x461BCD PUSH1 0xE5 SHL DUP2 MSTORE PUSH1 0x20 PUSH1 0x4 DUP3 ADD MSTORE PUSH1 0x1D PUSH1 0x24 DUP3 ADD MSTORE PUSH32 0x4665652065786365656465642070726F7669646564206D6178696D756D000000 PUSH1 0x44 DUP3 ADD MSTORE PUSH1 0x64 ADD PUSH2 0x61D JUMP JUMPDEST PUSH1 0x0 DUP2 ISZERO PUSH2 0x1F91 JUMPI PUSH1 0x0 PUSH2 0x27A3 DUP4 DUP6 PUSH2 0x3100 JUMP JUMPDEST SWAP2 POP PUSH2 0xBC9 SWAP1 POP JUMP JUMPDEST PUSH1 0x0 PUSH2 0x27C1 PUSH1 0x1 PUSH1 0x1 PUSH1 0xA0 SHL SUB DUP5 AND DUP4 PUSH2 0x2980 JUMP JUMPDEST SWAP1 POP DUP1 MLOAD PUSH1 0x0 EQ ISZERO DUP1 ISZERO PUSH2 0x27E6 JUMPI POP DUP1 DUP1 PUSH1 0x20 ADD SWAP1 MLOAD DUP2 ADD SWAP1 PUSH2 0x27E4 SWAP2 SWAP1 PUSH2 0x2F5B JUMP JUMPDEST ISZERO JUMPDEST ISZERO PUSH2 0x1748 JUMPI DUP3 PUSH1 0x40 MLOAD PUSH4 0x5274AFE7 PUSH1 0xE0 SHL DUP2 MSTORE PUSH1 0x4 ADD PUSH2 0x61D SWAP2 SWAP1 PUSH2 0x2C34 JUMP JUMPDEST PUSH1 0x0 DUP1 DUP4 ISZERO PUSH2 0x281A JUMPI POP DUP3 SWAP1 POP PUSH1 0x1 PUSH2 0x281E JUMP JUMPDEST DUP3 SWAP2 POP JUMPDEST SWAP3 POP SWAP3 SWAP1 POP JUMP JUMPDEST PUSH1 0x0 PUSH2 0x283E DUP3 PUSH1 0xE0 ADD MLOAD DUP4 PUSH1 0xC0 ADD MLOAD DUP5 PUSH1 0x0 ADD MLOAD PUSH2 0x1F30 JUMP JUMPDEST SWAP1 POP PUSH1 0x0 PUSH2 0x2869 DUP4 PUSH1 0xE0 ADD MLOAD DUP5 PUSH1 0xC0 ADD MLOAD DUP6 PUSH1 0x60 ADD MLOAD DUP7 PUSH1 0xA0 ADD MLOAD DUP8 PUSH1 0x80 ADD MLOAD DUP10 DUP10 PUSH1 0x0 ADD MLOAD PUSH2 0x298E JUMP JUMPDEST SWAP1 POP DUP6 ISZERO PUSH2 0x2903 JUMPI DUP5 ISZERO PUSH2 0x28E5 JUMPI PUSH1 0x40 MLOAD PUSH3 0x461BCD PUSH1 0xE5 SHL DUP2 MSTORE PUSH1 0x20 PUSH1 0x4 DUP3 ADD MSTORE PUSH1 0x3E PUSH1 0x24 DUP3 ADD MSTORE PUSH32 0x426F72726F7765724F70733A20436F6C6C61746572616C207769746864726177 PUSH1 0x44 DUP3 ADD MSTORE PUSH32 0x616C206E6F74207065726D6974746564205265636F76657279204D6F64650000 PUSH1 0x64 DUP3 ADD MSTORE PUSH1 0x84 ADD PUSH2 0x61D JUMP JUMPDEST DUP4 ISZERO PUSH2 0x28FE JUMPI PUSH2 0x28F4 DUP2 PUSH2 0x1F9B JUMP JUMPDEST PUSH2 0x28FE DUP2 DUP4 PUSH2 0x29C1 JUMP JUMPDEST PUSH2 0x294A JUMP JUMPDEST PUSH2 0x2912 DUP2 DUP5 PUSH2 0x1A0 ADD MLOAD PUSH2 0x2013 JUMP JUMPDEST PUSH1 0x0 PUSH2 0x293D DUP10 DUP10 DUP7 PUSH1 0x0 ADD MLOAD DUP8 PUSH1 0x60 ADD MLOAD PUSH2 0x292D SWAP2 SWAP1 PUSH2 0x2FBA JUMP JUMPDEST DUP8 PUSH1 0xA0 ADD MLOAD DUP9 PUSH1 0x80 ADD MLOAD DUP11 PUSH2 0x208D JUMP JUMPDEST SWAP1 POP PUSH2 0x2948 DUP2 PUSH2 0x20E7 JUMP JUMPDEST POP JUMPDEST POP POP POP POP POP POP POP POP JUMP JUMPDEST PUSH1 0x0 PUSH2 0xBC9 PUSH32 0x0 DUP4 PUSH2 0x3047 JUMP JUMPDEST PUSH1 0x60 PUSH2 0x1F5D DUP4 DUP4 PUSH1 0x0 PUSH2 0x2A37 JUMP JUMPDEST PUSH1 0x0 DUP1 PUSH1 0x0 PUSH2 0x29A1 DUP11 DUP11 DUP11 DUP11 DUP11 DUP11 PUSH2 0x2AD4 JUMP JUMPDEST SWAP2 POP SWAP2 POP PUSH1 0x0 PUSH2 0x29B2 DUP4 DUP4 DUP8 PUSH2 0x1F30 JUMP JUMPDEST SWAP12 SWAP11 POP POP POP POP POP POP POP POP POP POP POP JUMP JUMPDEST DUP1 DUP3 LT ISZERO PUSH2 0x2089 JUMPI PUSH1 0x40 MLOAD PUSH3 0x461BCD PUSH1 0xE5 SHL DUP2 MSTORE PUSH1 0x20 PUSH1 0x4 DUP3 ADD MSTORE PUSH1 0x3E PUSH1 0x24 DUP3 ADD MSTORE PUSH32 0x426F72726F7765724F70733A2043616E6E6F7420646563726561736520796F75 PUSH1 0x44 DUP3 ADD MSTORE PUSH32 0x722054726F766527732049435220696E205265636F76657279204D6F64650000 PUSH1 0x64 DUP3 ADD MSTORE PUSH1 0x84 ADD PUSH2 0x61D JUMP JUMPDEST PUSH1 0x60 DUP2 SELFBALANCE LT ISZERO PUSH2 0x2A5C JUMPI ADDRESS PUSH1 0x40 MLOAD PUSH4 0xCD786059 PUSH1 0xE0 SHL DUP2 MSTORE PUSH1 0x4 ADD PUSH2 0x61D SWAP2 SWAP1 PUSH2 0x2C34 JUMP JUMPDEST PUSH1 0x0 DUP1 DUP6 PUSH1 0x1 PUSH1 0x1 PUSH1 0xA0 SHL SUB AND DUP5 DUP7 PUSH1 0x40 MLOAD PUSH2 0x2A78 SWAP2 SWAP1 PUSH2 0x3122 JUMP JUMPDEST PUSH1 0x0 PUSH1 0x40 MLOAD DUP1 DUP4 SUB DUP2 DUP6 DUP8 GAS CALL SWAP3 POP POP POP RETURNDATASIZE DUP1 PUSH1 0x0 DUP2 EQ PUSH2 0x2AB5 JUMPI PUSH1 0x40 MLOAD SWAP2 POP PUSH1 0x1F NOT PUSH1 0x3F RETURNDATASIZE ADD AND DUP3 ADD PUSH1 0x40 MSTORE RETURNDATASIZE DUP3 MSTORE RETURNDATASIZE PUSH1 0x0 PUSH1 0x20 DUP5 ADD RETURNDATACOPY PUSH2 0x2ABA JUMP JUMPDEST PUSH1 0x60 SWAP2 POP JUMPDEST POP SWAP2 POP SWAP2 POP PUSH2 0x2ACA DUP7 DUP4 DUP4 PUSH2 0x2B28 JUMP JUMPDEST SWAP7 SWAP6 POP POP POP POP POP POP JUMP JUMPDEST PUSH1 0x0 DUP1 DUP8 DUP8 DUP7 PUSH2 0x2AED JUMPI PUSH2 0x2AE8 DUP9 DUP12 PUSH2 0x3047 JUMP JUMPDEST PUSH2 0x2AF7 JUMP JUMPDEST PUSH2 0x2AF7 DUP9 DUP12 PUSH2 0x2F8E JUMP JUMPDEST SWAP2 POP DUP5 PUSH2 0x2B0D JUMPI PUSH2 0x2B08 DUP7 DUP11 PUSH2 0x3047 JUMP JUMPDEST PUSH2 0x2B17 JUMP JUMPDEST PUSH2 0x2B17 DUP7 DUP11 PUSH2 0x2F8E JUMP JUMPDEST SWAP2 SWAP11 SWAP2 SWAP10 POP SWAP1 SWAP8 POP POP POP POP POP POP POP POP JUMP JUMPDEST PUSH1 0x60 DUP3 PUSH2 0x2B3D JUMPI PUSH2 0x2B38 DUP3 PUSH2 0x2B7B JUMP JUMPDEST PUSH2 0x1F5D JUMP JUMPDEST DUP2 MLOAD ISZERO DUP1 ISZERO PUSH2 0x2B54 JUMPI POP PUSH1 0x1 PUSH1 0x1 PUSH1 0xA0 SHL SUB DUP5 AND EXTCODESIZE ISZERO JUMPDEST ISZERO PUSH2 0x2B74 JUMPI DUP4 PUSH1 0x40 MLOAD PUSH4 0x9996B315 PUSH1 0xE0 SHL DUP2 MSTORE PUSH1 0x4 ADD PUSH2 0x61D SWAP2 SWAP1 PUSH2 0x2C34 JUMP JUMPDEST POP DUP1 PUSH2 0x1F5D JUMP JUMPDEST DUP1 MLOAD ISZERO PUSH2 0x2B8B JUMPI DUP1 MLOAD DUP1 DUP3 PUSH1 0x20 ADD REVERT JUMPDEST PUSH1 0x40 MLOAD PUSH4 0xA12F521 PUSH1 0xE1 SHL DUP2 MSTORE PUSH1 0x4 ADD PUSH1 0x40 MLOAD DUP1 SWAP2 SUB SWAP1 REVERT JUMPDEST PUSH1 0x1 PUSH1 0x1 PUSH1 0xA0 SHL SUB DUP2 AND DUP2 EQ PUSH2 0xB32 JUMPI PUSH1 0x0 DUP1 REVERT JUMPDEST PUSH1 0x0 DUP1 PUSH1 0x0 DUP1 PUSH1 0x0 DUP1 PUSH1 0x0 PUSH1 0xE0 DUP9 DUP11 SUB SLT ISZERO PUSH2 0x2BD4 JUMPI PUSH1 0x0 DUP1 REVERT JUMPDEST DUP8 CALLDATALOAD PUSH2 0x2BDF DUP2 PUSH2 0x2BA4 JUMP JUMPDEST SWAP7 POP PUSH1 0x20 DUP9 ADD CALLDATALOAD PUSH2 0x2BEF DUP2 PUSH2 0x2BA4 JUMP JUMPDEST SWAP6 POP PUSH1 0x40 DUP9 ADD CALLDATALOAD SWAP5 POP PUSH1 0x60 DUP9 ADD CALLDATALOAD SWAP4 POP PUSH1 0x80 DUP9 ADD CALLDATALOAD SWAP3 POP PUSH1 0xA0 DUP9 ADD CALLDATALOAD PUSH2 0x2C14 DUP2 PUSH2 0x2BA4 JUMP JUMPDEST SWAP2 POP PUSH1 0xC0 DUP9 ADD CALLDATALOAD PUSH2 0x2C24 DUP2 PUSH2 0x2BA4 JUMP JUMPDEST DUP1 SWAP2 POP POP SWAP3 SWAP6 SWAP9 SWAP2 SWAP5 SWAP8 POP SWAP3 SWAP6 POP JUMP JUMPDEST PUSH1 0x1 PUSH1 0x1 PUSH1 0xA0 SHL SUB SWAP2 SWAP1 SWAP2 AND DUP2 MSTORE PUSH1 0x20 ADD SWAP1 JUMP JUMPDEST PUSH1 0x0 DUP1 PUSH1 0x40 DUP4 DUP6 SUB SLT ISZERO PUSH2 0x2C5B JUMPI PUSH1 0x0 DUP1 REVERT JUMPDEST DUP3 CALLDATALOAD PUSH2 0x2C66 DUP2 PUSH2 0x2BA4 JUMP JUMPDEST SWAP2 POP PUSH1 0x20 DUP4 ADD CALLDATALOAD PUSH2 0x2C76 DUP2 PUSH2 0x2BA4 JUMP JUMPDEST DUP1 SWAP2 POP POP SWAP3 POP SWAP3 SWAP1 POP JUMP JUMPDEST PUSH1 0x0 PUSH1 0x20 DUP3 DUP5 SUB SLT ISZERO PUSH2 0x2C93 JUMPI PUSH1 0x0 DUP1 REVERT JUMPDEST POP CALLDATALOAD SWAP2 SWAP1 POP JUMP JUMPDEST PUSH1 0x0 PUSH1 0x20 DUP3 DUP5 SUB SLT ISZERO PUSH2 0x2CAC JUMPI PUSH1 0x0 DUP1 REVERT JUMPDEST DUP2 CALLDATALOAD PUSH2 0x1F5D DUP2 PUSH2 0x2BA4 JUMP JUMPDEST PUSH1 0x0 DUP1 PUSH1 0x0 DUP1 PUSH1 0x0 PUSH1 0xA0 DUP7 DUP9 SUB SLT ISZERO PUSH2 0x2CCF JUMPI PUSH1 0x0 DUP1 REVERT JUMPDEST DUP6 CALLDATALOAD PUSH2 0x2CDA DUP2 PUSH2 0x2BA4 JUMP JUMPDEST SWAP5 POP PUSH1 0x20 DUP7 ADD CALLDATALOAD PUSH2 0x2CEA DUP2 PUSH2 0x2BA4 JUMP JUMPDEST SWAP4 POP PUSH1 0x40 DUP7 ADD CALLDATALOAD SWAP3 POP PUSH1 0x60 DUP7 ADD CALLDATALOAD PUSH2 0x2D01 DUP2 PUSH2 0x2BA4 JUMP JUMPDEST SWAP2 POP PUSH1 0x80 DUP7 ADD CALLDATALOAD PUSH2 0x2D11 DUP2 PUSH2 0x2BA4 JUMP JUMPDEST DUP1 SWAP2 POP POP SWAP3 SWAP6 POP SWAP3 SWAP6 SWAP1 SWAP4 POP JUMP JUMPDEST PUSH1 0x0 DUP2 MLOAD DUP1 DUP5 MSTORE PUSH1 0x20 DUP1 DUP6 ADD SWAP5 POP PUSH1 0x20 DUP5 ADD PUSH1 0x0 JUMPDEST DUP4 DUP2 LT ISZERO PUSH2 0x2D50 JUMPI DUP2 MLOAD DUP8 MSTORE SWAP6 DUP3 ADD SWAP6 SWAP1 DUP3 ADD SWAP1 PUSH1 0x1 ADD PUSH2 0x2D34 JUMP JUMPDEST POP SWAP5 SWAP6 SWAP5 POP POP POP POP POP JUMP JUMPDEST PUSH1 0x20 DUP2 MSTORE PUSH1 0x0 DUP3 MLOAD PUSH1 0x60 PUSH1 0x20 DUP5 ADD MSTORE PUSH2 0x2D77 PUSH1 0x80 DUP5 ADD DUP3 PUSH2 0x2D1F JUMP JUMPDEST SWAP1 POP PUSH1 0x20 DUP5 ADD MLOAD PUSH1 0x1F NOT DUP1 DUP6 DUP5 SUB ADD PUSH1 0x40 DUP7 ADD MSTORE PUSH2 0x2D95 DUP4 DUP4 PUSH2 0x2D1F JUMP JUMPDEST SWAP3 POP PUSH1 0x40 DUP7 ADD MLOAD SWAP2 POP DUP1 DUP6 DUP5 SUB ADD PUSH1 0x60 DUP7 ADD MSTORE POP PUSH2 0x2DB3 DUP3 DUP3 PUSH2 0x2D1F JUMP JUMPDEST SWAP6 SWAP5 POP POP POP POP POP JUMP JUMPDEST PUSH1 0x0 DUP1 PUSH1 0x0 DUP1 PUSH1 0x0 DUP1 PUSH1 0xC0 DUP8 DUP10 SUB SLT ISZERO PUSH2 0x2DD5 JUMPI PUSH1 0x0 DUP1 REVERT JUMPDEST DUP7 CALLDATALOAD PUSH2 0x2DE0 DUP2 PUSH2 0x2BA4 JUMP JUMPDEST SWAP6 POP PUSH1 0x20 DUP8 ADD CALLDATALOAD PUSH2 0x2DF0 DUP2 PUSH2 0x2BA4 JUMP JUMPDEST SWAP5 POP PUSH1 0x40 DUP8 ADD CALLDATALOAD SWAP4 POP PUSH1 0x60 DUP8 ADD CALLDATALOAD SWAP3 POP PUSH1 0x80 DUP8 ADD CALLDATALOAD PUSH2 0x2E0E DUP2 PUSH2 0x2BA4 JUMP JUMPDEST SWAP2 POP PUSH1 0xA0 DUP8 ADD CALLDATALOAD PUSH2 0x2E1E DUP2 PUSH2 0x2BA4 JUMP JUMPDEST DUP1 SWAP2 POP POP SWAP3 SWAP6 POP SWAP3 SWAP6 POP SWAP3 SWAP6 JUMP JUMPDEST DUP1 ISZERO ISZERO DUP2 EQ PUSH2 0xB32 JUMPI PUSH1 0x0 DUP1 REVERT JUMPDEST PUSH1 0x0 DUP1 PUSH1 0x40 DUP4 DUP6 SUB SLT ISZERO PUSH2 0x2E4D JUMPI PUSH1 0x0 DUP1 REVERT JUMPDEST DUP3 CALLDATALOAD PUSH2 0x2E58 DUP2 PUSH2 0x2BA4 JUMP JUMPDEST SWAP2 POP PUSH1 0x20 DUP4 ADD CALLDATALOAD PUSH2 0x2C76 DUP2 PUSH2 0x2E2C JUMP JUMPDEST PUSH1 0x0 DUP1 PUSH1 0x0 DUP1 PUSH1 0x0 DUP1 PUSH1 0x0 DUP1 PUSH1 0x0 PUSH2 0x120 DUP11 DUP13 SUB SLT ISZERO PUSH2 0x2E87 JUMPI PUSH1 0x0 DUP1 REVERT JUMPDEST DUP10 CALLDATALOAD PUSH2 0x2E92 DUP2 PUSH2 0x2BA4 JUMP JUMPDEST SWAP9 POP PUSH1 0x20 DUP11 ADD CALLDATALOAD PUSH2 0x2EA2 DUP2 PUSH2 0x2BA4 JUMP JUMPDEST SWAP8 POP PUSH1 0x40 DUP11 ADD CALLDATALOAD SWAP7 POP PUSH1 0x60 DUP11 ADD CALLDATALOAD SWAP6 POP PUSH1 0x80 DUP11 ADD CALLDATALOAD SWAP5 POP PUSH1 0xA0 DUP11 ADD CALLDATALOAD SWAP4 POP PUSH1 0xC0 DUP11 ADD CALLDATALOAD PUSH2 0x2ECE DUP2 PUSH2 0x2E2C JUMP JUMPDEST SWAP3 POP PUSH1 0xE0 DUP11 ADD CALLDATALOAD PUSH2 0x2EDE DUP2 PUSH2 0x2BA4 JUMP JUMPDEST SWAP2 POP PUSH2 0x100 DUP11 ADD CALLDATALOAD PUSH2 0x2EEF DUP2 PUSH2 0x2BA4 JUMP JUMPDEST DUP1 SWAP2 POP POP SWAP3 SWAP6 SWAP9 POP SWAP3 SWAP6 SWAP9 POP SWAP3 SWAP6 SWAP9 JUMP JUMPDEST PUSH1 0x0 DUP1 PUSH1 0x40 DUP4 DUP6 SUB SLT ISZERO PUSH2 0x2F13 JUMPI PUSH1 0x0 DUP1 REVERT JUMPDEST DUP3 CALLDATALOAD PUSH2 0x2F1E DUP2 PUSH2 0x2BA4 JUMP JUMPDEST SWAP5 PUSH1 0x20 SWAP4 SWAP1 SWAP4 ADD CALLDATALOAD SWAP4 POP POP POP JUMP JUMPDEST PUSH1 0x20 DUP1 DUP3 MSTORE PUSH1 0x15 SWAP1 DUP3 ADD MSTORE PUSH21 0x11195B1959D85D19481B9BDD08185C1C1C9BDD9959 PUSH1 0x5A SHL PUSH1 0x40 DUP3 ADD MSTORE PUSH1 0x60 ADD SWAP1 JUMP JUMPDEST PUSH1 0x0 PUSH1 0x20 DUP3 DUP5 SUB SLT ISZERO PUSH2 0x2F6D JUMPI PUSH1 0x0 DUP1 REVERT JUMPDEST DUP2 MLOAD PUSH2 0x1F5D DUP2 PUSH2 0x2E2C JUMP JUMPDEST PUSH4 0x4E487B71 PUSH1 0xE0 SHL PUSH1 0x0 MSTORE PUSH1 0x11 PUSH1 0x4 MSTORE PUSH1 0x24 PUSH1 0x0 REVERT JUMPDEST DUP1 DUP3 ADD DUP1 DUP3 GT ISZERO PUSH2 0xBC9 JUMPI PUSH2 0xBC9 PUSH2 0x2F78 JUMP JUMPDEST PUSH1 0x0 PUSH1 0x20 DUP3 DUP5 SUB SLT ISZERO PUSH2 0x2FB3 JUMPI PUSH1 0x0 DUP1 REVERT JUMPDEST POP MLOAD SWAP2 SWAP1 POP JUMP JUMPDEST DUP1 DUP3 MUL DUP2 ISZERO DUP3 DUP3 DIV DUP5 EQ OR PUSH2 0xBC9 JUMPI PUSH2 0xBC9 PUSH2 0x2F78 JUMP JUMPDEST PUSH1 0x0 DUP1 PUSH1 0x40 DUP4 DUP6 SUB SLT ISZERO PUSH2 0x2FE4 JUMPI PUSH1 0x0 DUP1 REVERT JUMPDEST POP POP DUP1 MLOAD PUSH1 0x20 SWAP1 SWAP2 ADD MLOAD SWAP1 SWAP3 SWAP1 SWAP2 POP JUMP JUMPDEST PUSH1 0x20 DUP1 DUP3 MSTORE PUSH1 0x2 SWAP1 DUP3 ADD MSTORE PUSH2 0x4E45 PUSH1 0xF0 SHL PUSH1 0x40 DUP3 ADD MSTORE PUSH1 0x60 ADD SWAP1 JUMP JUMPDEST PUSH1 0x1 PUSH1 0x1 PUSH1 0xA0 SHL SUB SWAP3 SWAP1 SWAP3 AND DUP3 MSTORE PUSH1 0x20 DUP3 ADD MSTORE PUSH1 0x40 ADD SWAP1 JUMP JUMPDEST PUSH1 0x0 PUSH1 0x20 DUP3 DUP5 SUB SLT ISZERO PUSH2 0x303C JUMPI PUSH1 0x0 DUP1 REVERT JUMPDEST DUP2 MLOAD PUSH2 0x1F5D DUP2 PUSH2 0x2BA4 JUMP JUMPDEST DUP2 DUP2 SUB DUP2 DUP2 GT ISZERO PUSH2 0xBC9 JUMPI PUSH2 0xBC9 PUSH2 0x2F78 JUMP JUMPDEST PUSH4 0x4E487B71 PUSH1 0xE0 SHL PUSH1 0x0 MSTORE PUSH1 0x41 PUSH1 0x4 MSTORE PUSH1 0x24 PUSH1 0x0 REVERT JUMPDEST PUSH4 0x4E487B71 PUSH1 0xE0 SHL PUSH1 0x0 MSTORE PUSH1 0x32 PUSH1 0x4 MSTORE PUSH1 0x24 PUSH1 0x0 REVERT JUMPDEST PUSH1 0x0 DUP1 PUSH1 0x0 PUSH1 0x60 DUP5 DUP7 SUB SLT ISZERO PUSH2 0x309B JUMPI PUSH1 0x0 DUP1 REVERT JUMPDEST DUP4 MLOAD SWAP3 POP PUSH1 0x20 DUP5 ADD MLOAD SWAP2 POP PUSH1 0x40 DUP5 ADD MLOAD SWAP1 POP SWAP3 POP SWAP3 POP SWAP3 JUMP JUMPDEST PUSH1 0x20 DUP1 DUP3 MSTORE PUSH1 0x1C SWAP1 DUP3 ADD MSTORE PUSH28 0x151C9BDD994818591A9D5CDD1B595B9D1CC8185C99481C185D5CD959 PUSH1 0x22 SHL PUSH1 0x40 DUP3 ADD MSTORE PUSH1 0x60 ADD SWAP1 JUMP JUMPDEST PUSH4 0x4E487B71 PUSH1 0xE0 SHL PUSH1 0x0 MSTORE PUSH1 0x31 PUSH1 0x4 MSTORE PUSH1 0x24 PUSH1 0x0 REVERT JUMPDEST PUSH1 0x0 DUP3 PUSH2 0x311D JUMPI PUSH4 0x4E487B71 PUSH1 0xE0 SHL PUSH1 0x0 MSTORE PUSH1 0x12 PUSH1 0x4 MSTORE PUSH1 0x24 PUSH1 0x0 REVERT JUMPDEST POP DIV SWAP1 JUMP JUMPDEST PUSH1 0x0 DUP3 MLOAD PUSH1 0x0 JUMPDEST DUP2 DUP2 LT ISZERO PUSH2 0x3143 JUMPI PUSH1 0x20 DUP2 DUP7 ADD DUP2 ADD MLOAD DUP6 DUP4 ADD MSTORE ADD PUSH2 0x3129 JUMP JUMPDEST POP PUSH1 0x0 SWAP3 ADD SWAP2 DUP3 MSTORE POP SWAP2 SWAP1 POP JUMP INVALID TIMESTAMP PUSH16 0x72726F7765724F70733A20416E206F70 PUSH6 0x726174696F6E KECCAK256 PUSH21 0x6861742077A26469706673582212207D3C16FD43E8 CALLDATASIZE 0xEE 0xE8 0xB3 0xEF 0xA6 SLOAD 0x2A SGT BALANCE MUL 0xBC 0xD7 0x5C CALLDATASIZE 0xEF SLT 0x4E DUP10 0xAF JUMPDEST PUSH31 0xC5C9BFB864736F6C6343000816003300000000000000000000000000000000 "
        },
        "methodIdentifiers": {
          "CCR()": "5733d58f",
          "DEBT_GAS_COMPENSATION()": "4ba4a28b",
          "DECIMAL_PRECISION()": "a20baee6",
          "PERCENT_DIVISOR()": "4870dd9a",
          "ROSE()": "15b6dd82",
          "VINE_CORE()": "82d61d16",
          "addColl(address,address,uint256,address,address)": "fded3d35",
          "adjustTrove(address,address,uint256,uint256,uint256,uint256,bool,address,address)": "c5a62a99",
          "checkRecoveryMode(uint256)": "4e443d9e",
          "closeTrove(address,address)": "5f548614",
          "configureCollateral(address,address)": "778c5c64",
          "debtToken()": "f8d89898",
          "factory()": "c45a0155",
          "fetchBalances()": "b51237a9",
          "getCompositeDebt(uint256)": "4ff81443",
          "getGlobalSystemBalances()": "716c53c2",
          "getTCR()": "b620115d",
          "guardian()": "452a9320",
          "isApprovedDelegate(address,address)": "1930e825",
          "minNetDebt()": "969c2452",
          "openTrove(address,address,uint256,uint256,uint256,address,address)": "11c61ad3",
          "owner()": "8da5cb5b",
          "removeTroveManager(address)": "e19c80c2",
          "repayDebt(address,address,uint256,address,address)": "a2e8dc0a",
          "sendRose(address,uint256)": "c61b9a44",
          "setDelegateApproval(address,bool)": "c3c854b6",
          "setMinNetDebt(uint256)": "438d641a",
          "troveManagersData(address)": "568d6fe5",
          "withdrawColl(address,address,uint256,address,address)": "a6b6c8ee",
          "withdrawDebt(address,address,uint256,uint256,address,address)": "c2af1eca"
        }
      }
    }
  }
}