{
  "_format": "hh-sol-artifact-1",
  "contractName": "BorrowerOperations",
  "sourceName": "contracts/core/BorrowerOperations.sol",
  "abi": [
    {
      "inputs": [
        {
          "internalType": "address",
          "name": "_vineCore",
          "type": "address"
        },
        {
          "internalType": "address",
          "name": "_debtTokenAddress",
          "type": "address"
        },
        {
          "internalType": "address",
          "name": "_factory",
          "type": "address"
        },
        {
          "internalType": "uint256",
          "name": "_minNetDebt",
          "type": "uint256"
        },
        {
          "internalType": "uint256",
          "name": "_gasCompensation",
          "type": "uint256"
        }
      ],
      "stateMutability": "nonpayable",
      "type": "constructor"
    },
    {
      "inputs": [
        {
          "internalType": "address",
          "name": "target",
          "type": "address"
        }
      ],
      "name": "AddressEmptyCode",
      "type": "error"
    },
    {
      "inputs": [
        {
          "internalType": "address",
          "name": "account",
          "type": "address"
        }
      ],
      "name": "AddressInsufficientBalance",
      "type": "error"
    },
    {
      "inputs": [],
      "name": "FailedInnerCall",
      "type": "error"
    },
    {
      "inputs": [
        {
          "internalType": "address",
          "name": "token",
          "type": "address"
        }
      ],
      "name": "SafeERC20FailedOperation",
      "type": "error"
    },
    {
      "anonymous": false,
      "inputs": [
        {
          "indexed": true,
          "internalType": "address",
          "name": "borrower",
          "type": "address"
        },
        {
          "indexed": false,
          "internalType": "contract IERC20",
          "name": "collateralToken",
          "type": "address"
        },
        {
          "indexed": false,
          "internalType": "uint256",
          "name": "amount",
          "type": "uint256"
        }
      ],
      "name": "BorrowingFeePaid",
      "type": "event"
    },
    {
      "anonymous": false,
      "inputs": [
        {
          "indexed": false,
          "internalType": "contract ITroveManager",
          "name": "troveManager",
          "type": "address"
        },
        {
          "indexed": false,
          "internalType": "contract IERC20",
          "name": "collateralToken",
          "type": "address"
        }
      ],
      "name": "CollateralConfigured",
      "type": "event"
    },
    {
      "anonymous": false,
      "inputs": [
        {
          "indexed": true,
          "internalType": "address",
          "name": "caller",
          "type": "address"
        },
        {
          "indexed": true,
          "internalType": "address",
          "name": "delegate",
          "type": "address"
        },
        {
          "indexed": false,
          "internalType": "bool",
          "name": "isApproved",
          "type": "bool"
        }
      ],
      "name": "DelegateApprovalSet",
      "type": "event"
    },
    {
      "anonymous": false,
      "inputs": [
        {
          "indexed": false,
          "internalType": "contract ITroveManager",
          "name": "troveManager",
          "type": "address"
        }
      ],
      "name": "TroveManagerRemoved",
      "type": "event"
    },
    {
      "inputs": [],
      "name": "CCR",
      "outputs": [
        {
          "internalType": "uint256",
          "name": "",
          "type": "uint256"
        }
      ],
      "stateMutability": "view",
      "type": "function"
    },
    {
      "inputs": [],
      "name": "DEBT_GAS_COMPENSATION",
      "outputs": [
        {
          "internalType": "uint256",
          "name": "",
          "type": "uint256"
        }
      ],
      "stateMutability": "view",
      "type": "function"
    },
    {
      "inputs": [],
      "name": "DECIMAL_PRECISION",
      "outputs": [
        {
          "internalType": "uint256",
          "name": "",
          "type": "uint256"
        }
      ],
      "stateMutability": "view",
      "type": "function"
    },
    {
      "inputs": [],
      "name": "PERCENT_DIVISOR",
      "outputs": [
        {
          "internalType": "uint256",
          "name": "",
          "type": "uint256"
        }
      ],
      "stateMutability": "view",
      "type": "function"
    },
    {
      "inputs": [],
      "name": "ROSE",
      "outputs": [
        {
          "internalType": "address",
          "name": "",
          "type": "address"
        }
      ],
      "stateMutability": "view",
      "type": "function"
    },
    {
      "inputs": [],
      "name": "VINE_CORE",
      "outputs": [
        {
          "internalType": "contract IVineCore",
          "name": "",
          "type": "address"
        }
      ],
      "stateMutability": "view",
      "type": "function"
    },
    {
      "inputs": [
        {
          "internalType": "contract ITroveManager",
          "name": "troveManager",
          "type": "address"
        },
        {
          "internalType": "address",
          "name": "account",
          "type": "address"
        },
        {
          "internalType": "uint256",
          "name": "_collateralAmount",
          "type": "uint256"
        },
        {
          "internalType": "address",
          "name": "_upperHint",
          "type": "address"
        },
        {
          "internalType": "address",
          "name": "_lowerHint",
          "type": "address"
        }
      ],
      "name": "addColl",
      "outputs": [],
      "stateMutability": "payable",
      "type": "function"
    },
    {
      "inputs": [
        {
          "internalType": "contract ITroveManager",
          "name": "troveManager",
          "type": "address"
        },
        {
          "internalType": "address",
          "name": "account",
          "type": "address"
        },
        {
          "internalType": "uint256",
          "name": "_maxFeePercentage",
          "type": "uint256"
        },
        {
          "internalType": "uint256",
          "name": "_collDeposit",
          "type": "uint256"
        },
        {
          "internalType": "uint256",
          "name": "_collWithdrawal",
          "type": "uint256"
        },
        {
          "internalType": "uint256",
          "name": "_debtChange",
          "type": "uint256"
        },
        {
          "internalType": "bool",
          "name": "_isDebtIncrease",
          "type": "bool"
        },
        {
          "internalType": "address",
          "name": "_upperHint",
          "type": "address"
        },
        {
          "internalType": "address",
          "name": "_lowerHint",
          "type": "address"
        }
      ],
      "name": "adjustTrove",
      "outputs": [],
      "stateMutability": "payable",
      "type": "function"
    },
    {
      "inputs": [
        {
          "internalType": "uint256",
          "name": "TCR",
          "type": "uint256"
        }
      ],
      "name": "checkRecoveryMode",
      "outputs": [
        {
          "internalType": "bool",
          "name": "",
          "type": "bool"
        }
      ],
      "stateMutability": "pure",
      "type": "function"
    },
    {
      "inputs": [
        {
          "internalType": "contract ITroveManager",
          "name": "troveManager",
          "type": "address"
        },
        {
          "internalType": "address",
          "name": "account",
          "type": "address"
        }
      ],
      "name": "closeTrove",
      "outputs": [],
      "stateMutability": "nonpayable",
      "type": "function"
    },
    {
      "inputs": [
        {
          "internalType": "contract ITroveManager",
          "name": "troveManager",
          "type": "address"
        },
        {
          "internalType": "contract IERC20",
          "name": "collateralToken",
          "type": "address"
        }
      ],
      "name": "configureCollateral",
      "outputs": [],
      "stateMutability": "nonpayable",
      "type": "function"
    },
    {
      "inputs": [],
      "name": "debtToken",
      "outputs": [
        {
          "internalType": "contract IDebtToken",
          "name": "",
          "type": "address"
        }
      ],
      "stateMutability": "view",
      "type": "function"
    },
    {
      "inputs": [],
      "name": "factory",
      "outputs": [
        {
          "internalType": "address",
          "name": "",
          "type": "address"
        }
      ],
      "stateMutability": "view",
      "type": "function"
    },
    {
      "inputs": [],
      "name": "fetchBalances",
      "outputs": [
        {
          "components": [
            {
              "internalType": "uint256[]",
              "name": "collaterals",
              "type": "uint256[]"
            },
            {
              "internalType": "uint256[]",
              "name": "debts",
              "type": "uint256[]"
            },
            {
              "internalType": "uint256[]",
              "name": "prices",
              "type": "uint256[]"
            }
          ],
          "internalType": "struct BorrowerOperations.SystemBalances",
          "name": "balances",
          "type": "tuple"
        }
      ],
      "stateMutability": "nonpayable",
      "type": "function"
    },
    {
      "inputs": [
        {
          "internalType": "uint256",
          "name": "_debt",
          "type": "uint256"
        }
      ],
      "name": "getCompositeDebt",
      "outputs": [
        {
          "internalType": "uint256",
          "name": "",
          "type": "uint256"
        }
      ],
      "stateMutability": "view",
      "type": "function"
    },
    {
      "inputs": [],
      "name": "getGlobalSystemBalances",
      "outputs": [
        {
          "internalType": "uint256",
          "name": "totalPricedCollateral",
          "type": "uint256"
        },
        {
          "internalType": "uint256",
          "name": "totalDebt",
          "type": "uint256"
        }
      ],
      "stateMutability": "nonpayable",
      "type": "function"
    },
    {
      "inputs": [],
      "name": "getTCR",
      "outputs": [
        {
          "internalType": "uint256",
          "name": "globalTotalCollateralRatio",
          "type": "uint256"
        }
      ],
      "stateMutability": "nonpayable",
      "type": "function"
    },
    {
      "inputs": [
        {
          "internalType": "contract ITroveManager",
          "name": "troveManager",
          "type": "address"
        },
        {
          "internalType": "address",
          "name": "account",
          "type": "address"
        },
        {
          "internalType": "uint256",
          "name": "_maxFeePercentage",
          "type": "uint256"
        },
        {
          "internalType": "uint256",
          "name": "_collateralAmount",
          "type": "uint256"
        },
        {
          "internalType": "uint256",
          "name": "_debtAmount",
          "type": "uint256"
        }
      ],
      "name": "getZICR",
      "outputs": [
        {
          "internalType": "uint256",
          "name": "",
          "type": "uint256"
        }
      ],
      "stateMutability": "nonpayable",
      "type": "function"
    },
    {
      "inputs": [],
      "name": "guardian",
      "outputs": [
        {
          "internalType": "address",
          "name": "",
          "type": "address"
        }
      ],
      "stateMutability": "view",
      "type": "function"
    },
    {
      "inputs": [
        {
          "internalType": "address",
          "name": "owner",
          "type": "address"
        },
        {
          "internalType": "address",
          "name": "caller",
          "type": "address"
        }
      ],
      "name": "isApprovedDelegate",
      "outputs": [
        {
          "internalType": "bool",
          "name": "isApproved",
          "type": "bool"
        }
      ],
      "stateMutability": "view",
      "type": "function"
    },
    {
      "inputs": [],
      "name": "minNetDebt",
      "outputs": [
        {
          "internalType": "uint256",
          "name": "",
          "type": "uint256"
        }
      ],
      "stateMutability": "view",
      "type": "function"
    },
    {
      "inputs": [
        {
          "internalType": "contract ITroveManager",
          "name": "troveManager",
          "type": "address"
        },
        {
          "internalType": "address",
          "name": "account",
          "type": "address"
        },
        {
          "internalType": "uint256",
          "name": "_maxFeePercentage",
          "type": "uint256"
        },
        {
          "internalType": "uint256",
          "name": "_collateralAmount",
          "type": "uint256"
        },
        {
          "internalType": "uint256",
          "name": "_debtAmount",
          "type": "uint256"
        },
        {
          "internalType": "address",
          "name": "_upperHint",
          "type": "address"
        },
        {
          "internalType": "address",
          "name": "_lowerHint",
          "type": "address"
        }
      ],
      "name": "openTrove",
      "outputs": [],
      "stateMutability": "payable",
      "type": "function"
    },
    {
      "inputs": [],
      "name": "owner",
      "outputs": [
        {
          "internalType": "address",
          "name": "",
          "type": "address"
        }
      ],
      "stateMutability": "view",
      "type": "function"
    },
    {
      "inputs": [
        {
          "internalType": "contract ITroveManager",
          "name": "troveManager",
          "type": "address"
        }
      ],
      "name": "removeTroveManager",
      "outputs": [],
      "stateMutability": "nonpayable",
      "type": "function"
    },
    {
      "inputs": [
        {
          "internalType": "contract ITroveManager",
          "name": "troveManager",
          "type": "address"
        },
        {
          "internalType": "address",
          "name": "account",
          "type": "address"
        },
        {
          "internalType": "uint256",
          "name": "_debtAmount",
          "type": "uint256"
        },
        {
          "internalType": "address",
          "name": "_upperHint",
          "type": "address"
        },
        {
          "internalType": "address",
          "name": "_lowerHint",
          "type": "address"
        }
      ],
      "name": "repayDebt",
      "outputs": [],
      "stateMutability": "nonpayable",
      "type": "function"
    },
    {
      "inputs": [
        {
          "internalType": "address",
          "name": "to",
          "type": "address"
        },
        {
          "internalType": "uint256",
          "name": "amount",
          "type": "uint256"
        }
      ],
      "name": "sendRose",
      "outputs": [],
      "stateMutability": "nonpayable",
      "type": "function"
    },
    {
      "inputs": [
        {
          "internalType": "address",
          "name": "_delegate",
          "type": "address"
        },
        {
          "internalType": "bool",
          "name": "_isApproved",
          "type": "bool"
        }
      ],
      "name": "setDelegateApproval",
      "outputs": [],
      "stateMutability": "nonpayable",
      "type": "function"
    },
    {
      "inputs": [
        {
          "internalType": "uint256",
          "name": "_minNetDebt",
          "type": "uint256"
        }
      ],
      "name": "setMinNetDebt",
      "outputs": [],
      "stateMutability": "nonpayable",
      "type": "function"
    },
    {
      "inputs": [
        {
          "internalType": "contract ITroveManager",
          "name": "",
          "type": "address"
        }
      ],
      "name": "troveManagersData",
      "outputs": [
        {
          "internalType": "contract IERC20",
          "name": "collateralToken",
          "type": "address"
        },
        {
          "internalType": "uint16",
          "name": "index",
          "type": "uint16"
        }
      ],
      "stateMutability": "view",
      "type": "function"
    },
    {
      "inputs": [
        {
          "internalType": "contract ITroveManager",
          "name": "troveManager",
          "type": "address"
        },
        {
          "internalType": "address",
          "name": "account",
          "type": "address"
        },
        {
          "internalType": "uint256",
          "name": "_collWithdrawal",
          "type": "uint256"
        },
        {
          "internalType": "address",
          "name": "_upperHint",
          "type": "address"
        },
        {
          "internalType": "address",
          "name": "_lowerHint",
          "type": "address"
        }
      ],
      "name": "withdrawColl",
      "outputs": [],
      "stateMutability": "nonpayable",
      "type": "function"
    },
    {
      "inputs": [
        {
          "internalType": "contract ITroveManager",
          "name": "troveManager",
          "type": "address"
        },
        {
          "internalType": "address",
          "name": "account",
          "type": "address"
        },
        {
          "internalType": "uint256",
          "name": "_maxFeePercentage",
          "type": "uint256"
        },
        {
          "internalType": "uint256",
          "name": "_debtAmount",
          "type": "uint256"
        },
        {
          "internalType": "address",
          "name": "_upperHint",
          "type": "address"
        },
        {
          "internalType": "address",
          "name": "_lowerHint",
          "type": "address"
        }
      ],
      "name": "withdrawDebt",
      "outputs": [],
      "stateMutability": "nonpayable",
      "type": "function"
    }
  ],
  "bytecode": "0x61012060405273eeeeeeeeeeeeeeeeeeeeeeeeeeeeeeeeeeeeeeee610100523480156200002b57600080fd5b50604051620034a5380380620034a58339810160408190526200004e91620000b2565b60808190526001600160a01b0380861660a05284811660c052831660e052620000778262000082565b50505050506200010f565b600081116200009057600080fd5b600155565b80516001600160a01b0381168114620000ad57600080fd5b919050565b600080600080600060a08688031215620000cb57600080fd5b620000d68662000095565b9450620000e66020870162000095565b9350620000f66040870162000095565b6060870151608090970151959894975095949392505050565b60805160a05160c05160e051610100516132c5620001e0600039600081816101940152818161093d01528181611648015281816116c001528181611ba001526126580152600081816105170152610e490152600081816105be015281816109b601528181610da40152611dc40152600081816103e50152818161065301528181610a4001528181610b1d01528181610f800152818161135e0152818161151301528181611ae70152611df301526000818161027e01528181610dd401528181611f8c01526129dc01526132c56000f3fe6080604052600436106101685760003560e01c806311c61ad31461016d57806315b6dd82146101825780631930e825146101cc578063438d641a14610214578063452a9320146102345780634870dd9a146102495780634ba4a28b1461026c5780634e443d9e146102a05780634ff81443146102c8578063568d6fe5146102e85780635733d58f1461034d5780635f54861414610369578063716c53c214610389578063778c5c64146103b357806382d61d16146103d35780638da5cb5b14610407578063969c24521461041c578063a20baee614610432578063a2e8dc0a1461044e578063a6b6c8ee1461046e578063b51237a91461048e578063b620115d146104b0578063c2af1eca146104c5578063c3c854b6146104e5578063c45a015514610505578063c5a62a9914610539578063c61b9a441461054c578063e19c80c21461056c578063ecad4a5c1461058c578063f8d89898146105ac578063fded3d35146105e0575b600080fd5b61018061017b366004612c86565b6105f3565b005b34801561018e57600080fd5b506101b67f000000000000000000000000000000000000000000000000000000000000000081565b6040516101c39190612d01565b60405180910390f35b3480156101d857600080fd5b506102046101e7366004612d15565b600060208181529281526040808220909352908152205460ff1681565b60405190151581526020016101c3565b34801561022057600080fd5b5061018061022f366004612d4e565b610a3e565b34801561024057600080fd5b506101b6610b19565b34801561025557600080fd5b5061025e60c881565b6040519081526020016101c3565b34801561027857600080fd5b5061025e7f000000000000000000000000000000000000000000000000000000000000000081565b3480156102ac57600080fd5b506102046102bb366004612d4e565b6718fae27693b400001190565b3480156102d457600080fd5b5061025e6102e3366004612d4e565b610ba2565b3480156102f457600080fd5b5061032b610303366004612d67565b6002602052600090815260409020546001600160a01b03811690600160a01b900461ffff1682565b604080516001600160a01b03909316835261ffff9091166020830152016101c3565b34801561035957600080fd5b5061025e6718fae27693b4000081565b34801561037557600080fd5b50610180610384366004612d15565b610bb3565b34801561039557600080fd5b5061039e610e1b565b604080519283526020830191909152016101c3565b3480156103bf57600080fd5b506101806103ce366004612d15565b610e3e565b3480156103df57600080fd5b506101b67f000000000000000000000000000000000000000000000000000000000000000081565b34801561041357600080fd5b506101b6610f7c565b34801561042857600080fd5b5061025e60015481565b34801561043e57600080fd5b5061025e670de0b6b3a764000081565b34801561045a57600080fd5b50610180610469366004612d84565b610fdc565b34801561047a57600080fd5b50610180610489366004612d84565b61104d565b34801561049a57600080fd5b506104a36110b5565b6040516101c39190612e28565b3480156104bc57600080fd5b5061025e6112e8565b3480156104d157600080fd5b506101806104e0366004612e89565b611307565b3480156104f157600080fd5b50610180610500366004612f07565b611440565b34801561051157600080fd5b506101b67f000000000000000000000000000000000000000000000000000000000000000081565b610180610547366004612f35565b6114aa565b34801561055857600080fd5b50610180610567366004612fcd565b6116ae565b34801561057857600080fd5b50610180610587366004612d67565b611731565b34801561059857600080fd5b5061025e6105a7366004612ff9565b6119f3565b3480156105b857600080fd5b506101b67f000000000000000000000000000000000000000000000000000000000000000081565b6101806105ee366004612d84565b611a90565b85336001600160a01b038216148061062c57506001600160a01b03811660009081526020818152604080832033845290915290205460ff165b6106515760405162461bcd60e51b81526004016106489061304a565b60405180910390fd5b7f00000000000000000000000000000000000000000000000000000000000000006001600160a01b0316635c975abb6040518163ffffffff1660e01b8152600401602060405180830381865afa1580156106af573d6000803e3d6000fd5b505050506040513d601f19601f820116820180604052508101906106d39190613079565b156107165760405162461bcd60e51b815260206004820152601360248201527211195c1bdcda5d1cc8185c99481c185d5cd959606a1b6044820152606401610648565b6000610720612c25565b600061072b8b611bfb565b60408701919091526020860191909152908452909350905061074c89611cd2565b606082018790528061077a576107658b848c8c8b611d45565b826060015161077491906130ac565b60608301525b6107878260600151611f10565b6107948260600151611f85565b6080830181905282516107a8918a91611fb1565b60a083015260808201516107bd908990611fe5565b60c083015280156107da576107d58260a0015161201c565b610883565b6108498260a001518c6001600160a01b031663794e57246040518163ffffffff1660e01b8152600401602060405180830381865afa158015610820573d6000803e3d6000fd5b505050506040513d601f19601f8201168201806040525081019061084491906130bf565b612094565b60006108768360200151846040015185600001518c61086891906130d8565b60018760800151600161210e565b905061088181612168565b505b608082015160c0830151604051634cb653b760e01b81526001600160a01b038d81166004830152602482018c905260448201939093526064810191909152878216608482015286821660a482015282151560c4820152908c1690634cb653b79060e40160408051808303816000875af1158015610904573d6000803e3d6000fd5b505050506040513d601f19601f8201168201806040525081019061092891906130ef565b61010084015260e08301526001600160a01b037f000000000000000000000000000000000000000000000000000000000000000081169084160361098a578734146109855760405162461bcd60e51b815260040161064890613113565b61099f565b61099f6001600160a01b038416338d8b6121e6565b60405163467fafdf60e11b81526001600160a01b037f00000000000000000000000000000000000000000000000000000000000000001690638cff5fbe906109ed9033908b9060040161312f565b6020604051808303816000875af1158015610a0c573d6000803e3d6000fd5b505050506040513d601f19601f82011682018060405250810190610a309190613079565b505050505050505050505050565b7f00000000000000000000000000000000000000000000000000000000000000006001600160a01b0316638da5cb5b6040518163ffffffff1660e01b8152600401602060405180830381865afa158015610a9c573d6000803e3d6000fd5b505050506040513d601f19601f82011682018060405250810190610ac09190613148565b6001600160a01b0316336001600160a01b031614610b0d5760405162461bcd60e51b815260206004820152600a60248201526927b7363c9037bbb732b960b11b6044820152606401610648565b610b1681612246565b50565b60007f00000000000000000000000000000000000000000000000000000000000000006001600160a01b031663452a93206040518163ffffffff1660e01b8152600401602060405180830381865afa158015610b79573d6000803e3d6000fd5b505050506040513d601f19601f82011682018060405250810190610b9d9190613148565b905090565b6000610bad82611f85565b92915050565b80336001600160a01b0382161480610bec57506001600160a01b03811660009081526020818152604080832033845290915290205460ff165b610c085760405162461bcd60e51b81526004016106489061304a565b6000806000806000610c1988611bfb565b93985091965091945090925090508215610c975760405162461bcd60e51b815260206004820152603960248201527f426f72726f7765724f70733a204f7065726174696f6e206e6f74207065726d696044820152787474656420647572696e67205265636f76657279204d6f646560381b6064820152608401610648565b600080896001600160a01b0316630b0765578a6040518263ffffffff1660e01b8152600401610cc69190612d01565b60408051808303816000875af1158015610ce4573d6000803e3d6000fd5b505050506040513d601f19601f82011682018060405250810190610d0891906130ef565b90925090506000610d288585610d1e8a876130d8565b600086600061210e565b9050610d3381612168565b60405163c9a4cbf160e01b81526001600160a01b038b8116600483015233602483015260448201859052606482018490528c169063c9a4cbf190608401600060405180830381600087803b158015610d8a57600080fd5b505af1158015610d9e573d6000803e3d6000fd5b505050507f00000000000000000000000000000000000000000000000000000000000000006001600160a01b03166385177509337f000000000000000000000000000000000000000000000000000000000000000085610dfe9190613165565b6040518363ffffffff1660e01b81526004016109ed92919061312f565b6000806000610e286110b5565b9050610e3381612258565b909590945092505050565b336001600160a01b037f00000000000000000000000000000000000000000000000000000000000000001614610ea15760405162461bcd60e51b815260206004820152600860248201526721666163746f727960c01b6044820152606401610648565b6040805180820182526001600160a01b038381168083526003805461ffff9081166020808701918252898616600081815260028352898120985189549451909516600160a01b026001600160b01b03199094169490971693909317919091179095558154600181018355919093527fc2575a0e9e593c00f959f8c92f12db2869c3395a3b0502d05e2516446f71f85b0180546001600160a01b031916831790558351918252918101919091527ff6e0528dc0c0ef50525339faff44940d57e7897bee18b67dd0aa23bba1749ad2910160405180910390a15050565b60007f00000000000000000000000000000000000000000000000000000000000000006001600160a01b0316638da5cb5b6040518163ffffffff1660e01b8152600401602060405180830381865afa158015610b79573d6000803e3d6000fd5b83336001600160a01b038216148061101557506001600160a01b03811660009081526020818152604080832033845290915290205460ff165b6110315760405162461bcd60e51b81526004016106489061304a565b611045868660008060008960008a8a612306565b505050505050565b83336001600160a01b038216148061108657506001600160a01b03811660009081526020818152604080832033845290915290205460ff165b6110a25760405162461bcd60e51b81526004016106489061304a565b6110458686600080886000808a8a612306565b6110d960405180606001604052806060815260200160608152602001606081525090565b600354604080516060810190915280826001600160401b0381111561110057611100613178565b604051908082528060200260200182016040528015611129578160200160208202803683370190505b508152602001826001600160401b0381111561114757611147613178565b604051908082528060200260200182016040528015611170578160200160208202803683370190505b508152602001826001600160401b0381111561118e5761118e613178565b6040519080825280602002602001820160405280156111b7578160200160208202803683370190505b509052915060005b818110156112e3576000600382815481106111dc576111dc61318e565b9060005260206000200160009054906101000a90046001600160a01b031690506000806000836001600160a01b03166301c799fc6040518163ffffffff1660e01b81526004016060604051808303816000875af1158015611241573d6000803e3d6000fd5b505050506040513d601f19601f8201168201806040525081019061126591906131a4565b92509250925082876000015186815181106112825761128261318e565b60200260200101818152505081876020015186815181106112a5576112a561318e565b60200260200101818152505080876040015186815181106112c8576112c861318e565b602002602001018181525050846001019450505050506111bf565b505090565b6000806112f36110b5565b90506112fe81612258565b50909392505050565b84336001600160a01b038216148061134057506001600160a01b03811660009081526020818152604080832033845290915290205460ff165b61135c5760405162461bcd60e51b81526004016106489061304a565b7f00000000000000000000000000000000000000000000000000000000000000006001600160a01b0316635c975abb6040518163ffffffff1660e01b8152600401602060405180830381865afa1580156113ba573d6000803e3d6000fd5b505050506040513d601f19601f820116820180604052508101906113de9190613079565b156114245760405162461bcd60e51b815260206004820152601660248201527515da5d1a191c985dd85b1cc8185c99481c185d5cd95960521b6044820152606401610648565b6114378787876000808960018a8a612306565b50505050505050565b336000818152602081815260408083206001600160a01b03871680855290835292819020805460ff191686151590811790915590519081529192917f92d241afb0a1a9b3441bf1bd6bea0f9164cf5a2562cbe4bcc34ab943b2465608910160405180910390a35050565b87336001600160a01b03821614806114e357506001600160a01b03811660009081526020818152604080832033845290915290205460ff165b6114ff5760405162461bcd60e51b81526004016106489061304a565b8615801561150b575083155b8061159557507f00000000000000000000000000000000000000000000000000000000000000006001600160a01b0316635c975abb6040518163ffffffff1660e01b8152600401602060405180830381865afa15801561156f573d6000803e3d6000fd5b505050506040513d601f19601f820116820180604052508101906115939190613079565b155b6115b15760405162461bcd60e51b8152600401610648906131d2565b8615806115bc575085155b6116215760405162461bcd60e51b815260206004820152603060248201527f426f72726f7765724f7065726174696f6e733a2043616e6e6f7420776974686460448201526f1c985dc8185b99081859190818dbdb1b60821b6064820152608401610648565b60008711801561166d57506001600160a01b038a81166000908152600260205260409020547f000000000000000000000000000000000000000000000000000000000000000082169116145b15611691578634146116915760405162461bcd60e51b815260040161064890613113565b6116a28a8a8a8a8a8a8a8a8a612306565b50505050505050505050565b336000908152600260205260409020547f00000000000000000000000000000000000000000000000000000000000000006001600160a01b039081169116146116f657600080fd5b6040516001600160a01b0383169082156108fc029083906000818181858888f1935050505015801561172c573d6000803e3d6000fd5b505050565b6001600160a01b03818116600090815260026020908152604091829020825180840190935254928316808352600160a01b90930461ffff169082015290158015906117d95750816001600160a01b0316639484fb8e6040518163ffffffff1660e01b8152600401602060405180830381865afa1580156117b5573d6000803e3d6000fd5b505050506040513d601f19601f820116820180604052508101906117d99190613079565b80156118445750816001600160a01b031663795d26c36040518163ffffffff1660e01b8152600401602060405180830381865afa15801561181e573d6000803e3d6000fd5b505050506040513d601f19601f8201168201806040525081019061184291906130bf565b155b6118905760405162461bcd60e51b815260206004820152601f60248201527f54726f7665204d616e616765722063616e6e6f742062652072656d6f766564006044820152606401610648565b6001600160a01b038216600090815260026020526040812080546001600160b01b03191690556003546118c590600190613165565b905080826020015161ffff161015611983576000600382815481106118ec576118ec61318e565b9060005260206000200160009054906101000a90046001600160a01b03169050806003846020015161ffff16815481106119285761192861318e565b6000918252602080832090910180546001600160a01b039485166001600160a01b031990911617905585810151939092168152600290915260409020805461ffff909216600160a01b0261ffff60a01b199092169190911790555b600380548061199457611994613208565b600082815260209020810160001990810180546001600160a01b03191690550190556040517fe44bbef3bc872937d7daf489db0badffc044d1813a027aea391838c546514303906119e6908590612d01565b60405180910390a1505050565b6000806119fe612c25565b6000611a0989611bfb565b604087019190915260208601919091529084529093509050611a2a87611cd2565b60608201859052611a3e89848a8a89611d45565b8260600151611a4d91906130ac565b60608301819052611a5d90611f10565b611a6a8260600151611f85565b608083018190528251600091611a8291899190611fb1565b9a9950505050505050505050565b83336001600160a01b0382161480611ac957506001600160a01b03811660009081526020818152604080832033845290915290205460ff165b611ae55760405162461bcd60e51b81526004016106489061304a565b7f00000000000000000000000000000000000000000000000000000000000000006001600160a01b0316635c975abb6040518163ffffffff1660e01b8152600401602060405180830381865afa158015611b43573d6000803e3d6000fd5b505050506040513d601f19601f82011682018060405250810190611b679190613079565b15611b845760405162461bcd60e51b8152600401610648906131d2565b6001600160a01b038681166000908152600260205260409020547f00000000000000000000000000000000000000000000000000000000000000008216911603611be757833414611be75760405162461bcd60e51b815260040161064890613113565b611045868660008760008060008a8a612306565b6001600160a01b03818116600090815260026020526040812080549283169282918291829190600160a01b900461ffff1686611c725760405162461bcd60e51b815260206004820152601660248201527510dbdb1b185d195c985b081b9bdd08195b98589b195960521b6044820152606401610648565b600080611c7d6110b5565b9050611c8881612258565b90985096509150611ca0826718fae27693b400001190565b94508881604001518481518110611cb957611cb961318e565b6020026020010151985098505050505091939590929450565b670de0b6b3a7640000811115610b165760405162461bcd60e51b815260206004820152603260248201527f4d6178206665652070657263656e74616765206d757374206c657373207468616044820152716e206f7220657175616c20746f203130302560701b6064820152608401610648565b60405163b2f29d7b60e01b81526004810182905260009081906001600160a01b0388169063b2f29d7b906024016020604051808303816000875af1158015611d91573d6000803e3d6000fd5b505050506040513d601f19601f82011682018060405250810190611db591906130bf565b9050611dc281848661279f565b7f00000000000000000000000000000000000000000000000000000000000000006001600160a01b03166340c10f197f00000000000000000000000000000000000000000000000000000000000000006001600160a01b031663b3f006746040518163ffffffff1660e01b8152600401602060405180830381865afa158015611e4f573d6000803e3d6000fd5b505050506040513d601f19601f82011682018060405250810190611e739190613148565b836040518363ffffffff1660e01b8152600401611e9192919061312f565b600060405180830381600087803b158015611eab57600080fd5b505af1158015611ebf573d6000803e3d6000fd5b50505050846001600160a01b03167fd89359f0d8e7f936d0682c5565cc5a16989a91560a80c7b06c46c28e52a5d43a8783604051611efe92919061312f565b60405180910390a29695505050505050565b600154811015610b165760405162461bcd60e51b815260206004820152603a60248201527f426f72726f7765724f70733a2054726f76652773206e65742064656274206d7560448201527973742062652067726561746572207468616e206d696e696d756d60301b6064820152608401610648565b6000610bad7f0000000000000000000000000000000000000000000000000000000000000000836130ac565b60008215611fd957600083611fc684876130d8565b611fd0919061321e565b9150611fde9050565b506000195b9392505050565b60008115612012578161200168056bc75e2d63100000856130d8565b61200b919061321e565b9050610bad565b5060001992915050565b6718fae27693b40000811015610b165760405162461bcd60e51b815260206004820152603760248201527f426f72726f7765724f70733a204f7065726174696f6e206d757374206c65617660448201527632903a3937bb32903bb4ba341024a1a9101f1e9021a1a960491b6064820152608401610648565b8082101561210a5760405162461bcd60e51b8152602060048201526049602482015260008051602061327083398151915260448201527f6f756c6420726573756c7420696e20494352203c204d4352206973206e6f74206064820152681c195c9b5a5d1d195960ba1b608482015260a401610648565b5050565b6000816121245761211f8387613165565b61212e565b61212e83876130ac565b9550836121445761213f8588613165565b61214e565b61214e85886130ac565b9650600061215c8888612810565b98975050505050505050565b6718fae27693b40000811015610b165760405162461bcd60e51b8152602060048201526049602482015260008051602061327083398151915260448201527f6f756c6420726573756c7420696e20544352203c20434352206973206e6f74206064820152681c195c9b5a5d1d195960ba1b608482015260a401610648565b604080516001600160a01b0385811660248301528416604482015260648082018490528251808303909101815260849091019091526020810180516001600160e01b03166323b872dd60e01b17905261224090859061282d565b50505050565b6000811161225357600080fd5b600155565b80515160009081908190815b818110156122f157856040015181815181106122825761228261318e565b6020026020010151866000015182815181106122a0576122a061318e565b60200260200101516122b291906130d8565b6122bc90856130ac565b9350856020015181815181106122d4576122d461318e565b6020026020010151836122e791906130ac565b9250600101612264565b506122fc8383612810565b9350509193909250565b8515158061231357508415155b8061231d57508315155b61239e5760405162461bcd60e51b815260206004820152604660248201527f426f72726f7765724f70733a205468657265206d75737420626520656974686560448201527f72206120636f6c6c61746572616c206368616e6765206f7220612064656274206064820152656368616e676560d01b608482015260a401610648565b600061241d604051806101c00160405280600081526020016000815260200160008152602001600081526020016000815260200160001515815260200160008152602001600081526020016000815260200160008152602001600081526020016000815260200160006001600160a01b03168152602001600081525090565b60006124288c611bfb565b60408088019290925260208701929092529185529051630b07655760e01b815291945091506001600160a01b038d1690630b0765579061246c908e90600401612d01565b60408051808303816000875af115801561248a573d6000803e3d6000fd5b505050506040513d601f19601f820116820180604052508101906124ae91906130ef565b60c084015260e08301526124c28989612887565b151560a084015260608301526080820187905261016082018790526001600160a01b03808c1661018084015260408051631e5395c960e21b81529051918e169163794e5724916004808201926020929091908290030181865afa15801561252d573d6000803e3d6000fd5b505050506040513d601f19601f8201168201806040525081019061255191906130bf565b6101a083015285156125fd57600087116125cd5760405162461bcd60e51b815260206004820152603760248201527f426f72726f7765724f70733a204465627420696e637265617365207265717569604482015276726573206e6f6e2d7a65726f20646562744368616e676560481b6064820152608401610648565b6125d68a611cd2565b806125fd576125e88c84338d8b611d45565b826080018181516125f991906130ac565b9052505b61261382602001518360400151838b8a876128a6565b851580156126215750600087115b1561264a5761264a826080015161263b8460c001516129d5565b6126459190613165565b611f10565b8160a00151801561268d57507f00000000000000000000000000000000000000000000000000000000000000006001600160a01b0316836001600160a01b031614155b156126af5760608201516126af906001600160a01b0385169033908f906121e6565b610160820151608083015160a084015160608501516101808601516040516311c82bd560e31b815286151560048201528b1515602482015260448101959095526064850193909352901515608484015260a48301526001600160a01b0387811660c484015286811660e4840152908116610104830152336101248301528d1690638e415ea890610144016060604051808303816000875af1158015612758573d6000803e3d6000fd5b505050506040513d601f19601f8201168201806040525081019061277c91906131a4565b610140850152610100840152610120909201919091525050505050505050505050565b6000826127b4670de0b6b3a7640000866130d8565b6127be919061321e565b9050818111156122405760405162461bcd60e51b815260206004820152601d60248201527f4665652065786365656465642070726f7669646564206d6178696d756d0000006044820152606401610648565b60008115612012576000612824838561321e565b9150610bad9050565b60006128426001600160a01b03841683612a01565b905080516000141580156128675750808060200190518101906128659190613079565b155b1561172c5782604051635274afe760e01b81526004016106489190612d01565b600080831561289b5750829050600161289f565b8291505b9250929050565b60006128bf8260e001518360c001518460000151611fb1565b905060006128ea8360e001518460c0015185606001518660a001518760800151898960000151612a0f565b905085156129845784156129665760405162461bcd60e51b815260206004820152603e60248201527f426f72726f7765724f70733a20436f6c6c61746572616c20776974686472617760448201527f616c206e6f74207065726d6974746564205265636f76657279204d6f646500006064820152608401610648565b831561297f576129758161201c565b61297f8183612a42565b6129cb565b61299381846101a00151612094565b60006129be8989866000015187606001516129ae91906130d8565b8760a0015188608001518a61210e565b90506129c981612168565b505b5050505050505050565b6000610bad7f000000000000000000000000000000000000000000000000000000000000000083613165565b6060611fde83836000612ab8565b6000806000612a228a8a8a8a8a8a612b55565b915091506000612a33838387611fb1565b9b9a5050505050505050505050565b8082101561210a5760405162461bcd60e51b815260206004820152603e60248201527f426f72726f7765724f70733a2043616e6e6f7420646563726561736520796f7560448201527f722054726f766527732049435220696e205265636f76657279204d6f646500006064820152608401610648565b606081471015612add573060405163cd78605960e01b81526004016106489190612d01565b600080856001600160a01b03168486604051612af99190613240565b60006040518083038185875af1925050503d8060008114612b36576040519150601f19603f3d011682016040523d82523d6000602084013e612b3b565b606091505b5091509150612b4b868383612ba9565b9695505050505050565b600080878786612b6e57612b69888b613165565b612b78565b612b78888b6130ac565b915084612b8e57612b89868a613165565b612b98565b612b98868a6130ac565b919a91995090975050505050505050565b606082612bbe57612bb982612bfc565b611fde565b8151158015612bd557506001600160a01b0384163b155b15612bf55783604051639996b31560e01b81526004016106489190612d01565b5080611fde565b805115612c0c5780518082602001fd5b604051630a12f52160e11b815260040160405180910390fd5b6040518061012001604052806000815260200160008152602001600081526020016000815260200160008152602001600081526020016000815260200160008152602001600081525090565b6001600160a01b0381168114610b1657600080fd5b600080600080600080600060e0888a031215612ca157600080fd5b8735612cac81612c71565b96506020880135612cbc81612c71565b955060408801359450606088013593506080880135925060a0880135612ce181612c71565b915060c0880135612cf181612c71565b8091505092959891949750929550565b6001600160a01b0391909116815260200190565b60008060408385031215612d2857600080fd5b8235612d3381612c71565b91506020830135612d4381612c71565b809150509250929050565b600060208284031215612d6057600080fd5b5035919050565b600060208284031215612d7957600080fd5b8135611fde81612c71565b600080600080600060a08688031215612d9c57600080fd5b8535612da781612c71565b94506020860135612db781612c71565b9350604086013592506060860135612dce81612c71565b91506080860135612dde81612c71565b809150509295509295909350565b60008151808452602080850194506020840160005b83811015612e1d57815187529582019590820190600101612e01565b509495945050505050565b602081526000825160606020840152612e446080840182612dec565b90506020840151601f1980858403016040860152612e628383612dec565b9250604086015191508085840301606086015250612e808282612dec565b95945050505050565b60008060008060008060c08789031215612ea257600080fd5b8635612ead81612c71565b95506020870135612ebd81612c71565b945060408701359350606087013592506080870135612edb81612c71565b915060a0870135612eeb81612c71565b809150509295509295509295565b8015158114610b1657600080fd5b60008060408385031215612f1a57600080fd5b8235612f2581612c71565b91506020830135612d4381612ef9565b60008060008060008060008060006101208a8c031215612f5457600080fd5b8935612f5f81612c71565b985060208a0135612f6f81612c71565b975060408a0135965060608a0135955060808a0135945060a08a0135935060c08a0135612f9b81612ef9565b925060e08a0135612fab81612c71565b91506101008a0135612fbc81612c71565b809150509295985092959850929598565b60008060408385031215612fe057600080fd5b8235612feb81612c71565b946020939093013593505050565b600080600080600060a0868803121561301157600080fd5b853561301c81612c71565b9450602086013561302c81612c71565b94979496505050506040830135926060810135926080909101359150565b60208082526015908201527411195b1959d85d19481b9bdd08185c1c1c9bdd9959605a1b604082015260600190565b60006020828403121561308b57600080fd5b8151611fde81612ef9565b634e487b7160e01b600052601160045260246000fd5b80820180821115610bad57610bad613096565b6000602082840312156130d157600080fd5b5051919050565b8082028115828204841417610bad57610bad613096565b6000806040838503121561310257600080fd5b505080516020909101519092909150565b6020808252600290820152614e4560f01b604082015260600190565b6001600160a01b03929092168252602082015260400190565b60006020828403121561315a57600080fd5b8151611fde81612c71565b81810381811115610bad57610bad613096565b634e487b7160e01b600052604160045260246000fd5b634e487b7160e01b600052603260045260246000fd5b6000806000606084860312156131b957600080fd5b8351925060208401519150604084015190509250925092565b6020808252601c908201527b151c9bdd994818591a9d5cdd1b595b9d1cc8185c99481c185d5cd95960221b604082015260600190565b634e487b7160e01b600052603160045260246000fd5b60008261323b57634e487b7160e01b600052601260045260246000fd5b500490565b6000825160005b818110156132615760208186018101518583015201613247565b50600092019182525091905056fe426f72726f7765724f70733a20416e206f7065726174696f6e20746861742077a2646970667358221220ecd56e5787bb76f6f1aa7a26e8373dd84fb4e309f74010cf853acb5355fb52e764736f6c63430008160033",
  "linkReferences": {},
  "deployedLinkReferences": {}
}