{
  "_format": "hh-sol-artifact-1",
  "contractName": "VineVault",
  "sourceName": "contracts/dao/Vault.sol",
  "abi": [
    {
      "inputs": [
        {
          "internalType": "address",
          "name": "_vineCore",
          "type": "address"
        },
        {
          "internalType": "contract IVineToken",
          "name": "_token",
          "type": "address"
        },
        {
          "internalType": "contract ITokenLocker",
          "name": "_locker",
          "type": "address"
        },
        {
          "internalType": "contract IIncentiveVoting",
          "name": "_voter",
          "type": "address"
        },
        {
          "internalType": "address",
          "name": "_stabilityPool",
          "type": "address"
        },
        {
          "internalType": "address",
          "name": "_manager",
          "type": "address"
        }
      ],
      "stateMutability": "nonpayable",
      "type": "constructor"
    },
    {
      "inputs": [
        {
          "internalType": "address",
          "name": "target",
          "type": "address"
        }
      ],
      "name": "AddressEmptyCode",
      "type": "error"
    },
    {
      "inputs": [
        {
          "internalType": "address",
          "name": "account",
          "type": "address"
        }
      ],
      "name": "AddressInsufficientBalance",
      "type": "error"
    },
    {
      "inputs": [],
      "name": "FailedInnerCall",
      "type": "error"
    },
    {
      "inputs": [
        {
          "internalType": "address",
          "name": "token",
          "type": "address"
        }
      ],
      "name": "SafeERC20FailedOperation",
      "type": "error"
    },
    {
      "anonymous": false,
      "inputs": [
        {
          "indexed": false,
          "internalType": "address",
          "name": "boostCalculator",
          "type": "address"
        }
      ],
      "name": "BoostCalculatorSet",
      "type": "event"
    },
    {
      "anonymous": false,
      "inputs": [
        {
          "indexed": true,
          "internalType": "address",
          "name": "boostDelegate",
          "type": "address"
        },
        {
          "indexed": false,
          "internalType": "bool",
          "name": "isEnabled",
          "type": "bool"
        },
        {
          "indexed": false,
          "internalType": "uint256",
          "name": "feePct",
          "type": "uint256"
        },
        {
          "indexed": false,
          "internalType": "address",
          "name": "callback",
          "type": "address"
        }
      ],
      "name": "BoostDelegationSet",
      "type": "event"
    },
    {
      "anonymous": false,
      "inputs": [
        {
          "indexed": false,
          "internalType": "address",
          "name": "emissionScheduler",
          "type": "address"
        }
      ],
      "name": "EmissionScheduleSet",
      "type": "event"
    },
    {
      "anonymous": false,
      "inputs": [
        {
          "indexed": true,
          "internalType": "address",
          "name": "receiver",
          "type": "address"
        },
        {
          "indexed": false,
          "internalType": "uint256",
          "name": "increasedAmount",
          "type": "uint256"
        }
      ],
      "name": "IncreasedAllocation",
      "type": "event"
    },
    {
      "anonymous": false,
      "inputs": [
        {
          "indexed": false,
          "internalType": "address",
          "name": "receiver",
          "type": "address"
        },
        {
          "indexed": false,
          "internalType": "uint256",
          "name": "id",
          "type": "uint256"
        }
      ],
      "name": "NewReceiverRegistered",
      "type": "event"
    },
    {
      "anonymous": false,
      "inputs": [
        {
          "indexed": true,
          "internalType": "uint256",
          "name": "id",
          "type": "uint256"
        },
        {
          "indexed": false,
          "internalType": "bool",
          "name": "isActive",
          "type": "bool"
        }
      ],
      "name": "ReceiverIsActiveStatusModified",
      "type": "event"
    },
    {
      "anonymous": false,
      "inputs": [
        {
          "indexed": false,
          "internalType": "uint256",
          "name": "increasedAmount",
          "type": "uint256"
        },
        {
          "indexed": false,
          "internalType": "uint256",
          "name": "unallocatedTotal",
          "type": "uint256"
        }
      ],
      "name": "UnallocatedSupplyIncreased",
      "type": "event"
    },
    {
      "anonymous": false,
      "inputs": [
        {
          "indexed": false,
          "internalType": "uint256",
          "name": "reducedAmount",
          "type": "uint256"
        },
        {
          "indexed": false,
          "internalType": "uint256",
          "name": "unallocatedTotal",
          "type": "uint256"
        }
      ],
      "name": "UnallocatedSupplyReduced",
      "type": "event"
    },
    {
      "inputs": [],
      "name": "VINE_CORE",
      "outputs": [
        {
          "internalType": "contract IVineCore",
          "name": "",
          "type": "address"
        }
      ],
      "stateMutability": "view",
      "type": "function"
    },
    {
      "inputs": [
        {
          "internalType": "uint256",
          "name": "id",
          "type": "uint256"
        }
      ],
      "name": "allocateNewEmissions",
      "outputs": [
        {
          "internalType": "uint256",
          "name": "",
          "type": "uint256"
        }
      ],
      "stateMutability": "nonpayable",
      "type": "function"
    },
    {
      "inputs": [
        {
          "internalType": "address",
          "name": "",
          "type": "address"
        }
      ],
      "name": "allocated",
      "outputs": [
        {
          "internalType": "uint256",
          "name": "",
          "type": "uint256"
        }
      ],
      "stateMutability": "view",
      "type": "function"
    },
    {
      "inputs": [
        {
          "internalType": "address",
          "name": "receiver",
          "type": "address"
        },
        {
          "internalType": "address",
          "name": "boostDelegate",
          "type": "address"
        },
        {
          "internalType": "contract IRewards[]",
          "name": "rewardContracts",
          "type": "address[]"
        },
        {
          "internalType": "uint256",
          "name": "maxFeePct",
          "type": "uint256"
        }
      ],
      "name": "batchClaimRewards",
      "outputs": [
        {
          "internalType": "bool",
          "name": "",
          "type": "bool"
        }
      ],
      "stateMutability": "nonpayable",
      "type": "function"
    },
    {
      "inputs": [],
      "name": "boostCalculator",
      "outputs": [
        {
          "internalType": "contract IBoostCalculator",
          "name": "",
          "type": "address"
        }
      ],
      "stateMutability": "view",
      "type": "function"
    },
    {
      "inputs": [
        {
          "internalType": "address",
          "name": "",
          "type": "address"
        }
      ],
      "name": "boostDelegation",
      "outputs": [
        {
          "internalType": "bool",
          "name": "isEnabled",
          "type": "bool"
        },
        {
          "internalType": "uint16",
          "name": "feePct",
          "type": "uint16"
        },
        {
          "internalType": "contract IBoostDelegate",
          "name": "callback",
          "type": "address"
        }
      ],
      "stateMutability": "view",
      "type": "function"
    },
    {
      "inputs": [
        {
          "internalType": "address",
          "name": "receiver",
          "type": "address"
        }
      ],
      "name": "claimBoostDelegationFees",
      "outputs": [
        {
          "internalType": "bool",
          "name": "",
          "type": "bool"
        }
      ],
      "stateMutability": "nonpayable",
      "type": "function"
    },
    {
      "inputs": [
        {
          "internalType": "address",
          "name": "claimant",
          "type": "address"
        }
      ],
      "name": "claimableBoostDelegationFees",
      "outputs": [
        {
          "internalType": "uint256",
          "name": "amount",
          "type": "uint256"
        }
      ],
      "stateMutability": "view",
      "type": "function"
    },
    {
      "inputs": [
        {
          "internalType": "address",
          "name": "account",
          "type": "address"
        },
        {
          "internalType": "address",
          "name": "receiver",
          "type": "address"
        },
        {
          "internalType": "address",
          "name": "boostDelegate",
          "type": "address"
        },
        {
          "internalType": "contract IRewards",
          "name": "rewardContract",
          "type": "address"
        }
      ],
      "name": "claimableRewardAfterBoost",
      "outputs": [
        {
          "internalType": "uint256",
          "name": "adjustedAmount",
          "type": "uint256"
        },
        {
          "internalType": "uint256",
          "name": "feeToDelegate",
          "type": "uint256"
        }
      ],
      "stateMutability": "view",
      "type": "function"
    },
    {
      "inputs": [],
      "name": "deploymentManager",
      "outputs": [
        {
          "internalType": "address",
          "name": "",
          "type": "address"
        }
      ],
      "stateMutability": "view",
      "type": "function"
    },
    {
      "inputs": [],
      "name": "emissionSchedule",
      "outputs": [
        {
          "internalType": "contract IEmissionSchedule",
          "name": "",
          "type": "address"
        }
      ],
      "stateMutability": "view",
      "type": "function"
    },
    {
      "inputs": [
        {
          "internalType": "address",
          "name": "claimant",
          "type": "address"
        }
      ],
      "name": "getClaimableWithBoost",
      "outputs": [
        {
          "internalType": "uint256",
          "name": "maxBoosted",
          "type": "uint256"
        },
        {
          "internalType": "uint256",
          "name": "boosted",
          "type": "uint256"
        }
      ],
      "stateMutability": "view",
      "type": "function"
    },
    {
      "inputs": [],
      "name": "getWeek",
      "outputs": [
        {
          "internalType": "uint256",
          "name": "week",
          "type": "uint256"
        }
      ],
      "stateMutability": "view",
      "type": "function"
    },
    {
      "inputs": [],
      "name": "guardian",
      "outputs": [
        {
          "internalType": "address",
          "name": "",
          "type": "address"
        }
      ],
      "stateMutability": "view",
      "type": "function"
    },
    {
      "inputs": [
        {
          "internalType": "uint256",
          "name": "",
          "type": "uint256"
        }
      ],
      "name": "idToReceiver",
      "outputs": [
        {
          "internalType": "address",
          "name": "account",
          "type": "address"
        },
        {
          "internalType": "bool",
          "name": "isActive",
          "type": "bool"
        }
      ],
      "stateMutability": "view",
      "type": "function"
    },
    {
      "inputs": [
        {
          "internalType": "uint256",
          "name": "amount",
          "type": "uint256"
        }
      ],
      "name": "increaseUnallocatedSupply",
      "outputs": [
        {
          "internalType": "bool",
          "name": "",
          "type": "bool"
        }
      ],
      "stateMutability": "nonpayable",
      "type": "function"
    },
    {
      "inputs": [],
      "name": "lockWeeks",
      "outputs": [
        {
          "internalType": "uint64",
          "name": "",
          "type": "uint64"
        }
      ],
      "stateMutability": "view",
      "type": "function"
    },
    {
      "inputs": [],
      "name": "locker",
      "outputs": [
        {
          "internalType": "contract ITokenLocker",
          "name": "",
          "type": "address"
        }
      ],
      "stateMutability": "view",
      "type": "function"
    },
    {
      "inputs": [],
      "name": "owner",
      "outputs": [
        {
          "internalType": "address",
          "name": "",
          "type": "address"
        }
      ],
      "stateMutability": "view",
      "type": "function"
    },
    {
      "inputs": [
        {
          "internalType": "uint256",
          "name": "",
          "type": "uint256"
        }
      ],
      "name": "receiverUpdatedWeek",
      "outputs": [
        {
          "internalType": "uint16",
          "name": "",
          "type": "uint16"
        }
      ],
      "stateMutability": "view",
      "type": "function"
    },
    {
      "inputs": [
        {
          "internalType": "address",
          "name": "receiver",
          "type": "address"
        },
        {
          "internalType": "uint256",
          "name": "count",
          "type": "uint256"
        }
      ],
      "name": "registerReceiver",
      "outputs": [
        {
          "internalType": "bool",
          "name": "",
          "type": "bool"
        }
      ],
      "stateMutability": "nonpayable",
      "type": "function"
    },
    {
      "inputs": [
        {
          "internalType": "contract IBoostCalculator",
          "name": "_boostCalculator",
          "type": "address"
        }
      ],
      "name": "setBoostCalculator",
      "outputs": [
        {
          "internalType": "bool",
          "name": "",
          "type": "bool"
        }
      ],
      "stateMutability": "nonpayable",
      "type": "function"
    },
    {
      "inputs": [
        {
          "internalType": "bool",
          "name": "isEnabled",
          "type": "bool"
        },
        {
          "internalType": "uint256",
          "name": "feePct",
          "type": "uint256"
        },
        {
          "internalType": "address",
          "name": "callback",
          "type": "address"
        }
      ],
      "name": "setBoostDelegationParams",
      "outputs": [
        {
          "internalType": "bool",
          "name": "",
          "type": "bool"
        }
      ],
      "stateMutability": "nonpayable",
      "type": "function"
    },
    {
      "inputs": [
        {
          "internalType": "contract IEmissionSchedule",
          "name": "_emissionSchedule",
          "type": "address"
        }
      ],
      "name": "setEmissionSchedule",
      "outputs": [
        {
          "internalType": "bool",
          "name": "",
          "type": "bool"
        }
      ],
      "stateMutability": "nonpayable",
      "type": "function"
    },
    {
      "inputs": [
        {
          "internalType": "contract IEmissionSchedule",
          "name": "_emissionSchedule",
          "type": "address"
        },
        {
          "internalType": "contract IBoostCalculator",
          "name": "_boostCalculator",
          "type": "address"
        },
        {
          "internalType": "uint256",
          "name": "totalSupply",
          "type": "uint256"
        },
        {
          "internalType": "uint64",
          "name": "initialLockWeeks",
          "type": "uint64"
        },
        {
          "internalType": "uint128[]",
          "name": "_fixedInitialAmounts",
          "type": "uint128[]"
        },
        {
          "components": [
            {
              "internalType": "address",
              "name": "receiver",
              "type": "address"
            },
            {
              "internalType": "uint256",
              "name": "amount",
              "type": "uint256"
            }
          ],
          "internalType": "struct VineVault.InitialAllowance[]",
          "name": "initialAllowances",
          "type": "tuple[]"
        }
      ],
      "name": "setInitialParameters",
      "outputs": [],
      "stateMutability": "nonpayable",
      "type": "function"
    },
    {
      "inputs": [
        {
          "internalType": "uint256",
          "name": "id",
          "type": "uint256"
        },
        {
          "internalType": "bool",
          "name": "isActive",
          "type": "bool"
        }
      ],
      "name": "setReceiverIsActive",
      "outputs": [
        {
          "internalType": "bool",
          "name": "",
          "type": "bool"
        }
      ],
      "stateMutability": "nonpayable",
      "type": "function"
    },
    {
      "inputs": [],
      "name": "totalUpdateWeek",
      "outputs": [
        {
          "internalType": "uint64",
          "name": "",
          "type": "uint64"
        }
      ],
      "stateMutability": "view",
      "type": "function"
    },
    {
      "inputs": [
        {
          "internalType": "address",
          "name": "claimant",
          "type": "address"
        },
        {
          "internalType": "address",
          "name": "receiver",
          "type": "address"
        },
        {
          "internalType": "uint256",
          "name": "amount",
          "type": "uint256"
        }
      ],
      "name": "transferAllocatedTokens",
      "outputs": [
        {
          "internalType": "bool",
          "name": "",
          "type": "bool"
        }
      ],
      "stateMutability": "nonpayable",
      "type": "function"
    },
    {
      "inputs": [
        {
          "internalType": "contract IERC20",
          "name": "token",
          "type": "address"
        },
        {
          "internalType": "address",
          "name": "receiver",
          "type": "address"
        },
        {
          "internalType": "uint256",
          "name": "amount",
          "type": "uint256"
        }
      ],
      "name": "transferTokens",
      "outputs": [
        {
          "internalType": "bool",
          "name": "",
          "type": "bool"
        }
      ],
      "stateMutability": "nonpayable",
      "type": "function"
    },
    {
      "inputs": [],
      "name": "unallocatedTotal",
      "outputs": [
        {
          "internalType": "uint128",
          "name": "",
          "type": "uint128"
        }
      ],
      "stateMutability": "view",
      "type": "function"
    },
    {
      "inputs": [],
      "name": "vineToken",
      "outputs": [
        {
          "internalType": "contract IVineToken",
          "name": "",
          "type": "address"
        }
      ],
      "stateMutability": "view",
      "type": "function"
    },
    {
      "inputs": [],
      "name": "voter",
      "outputs": [
        {
          "internalType": "contract IIncentiveVoting",
          "name": "",
          "type": "address"
        }
      ],
      "stateMutability": "view",
      "type": "function"
    },
    {
      "inputs": [
        {
          "internalType": "uint256",
          "name": "",
          "type": "uint256"
        }
      ],
      "name": "weeklyEmissions",
      "outputs": [
        {
          "internalType": "uint128",
          "name": "",
          "type": "uint128"
        }
      ],
      "stateMutability": "view",
      "type": "function"
    }
  ],
  "bytecode": "0x6101606040523480156200001257600080fd5b506040516200364638038062003646833981016040819052620000359162000216565b6001600160a01b0386166080819052604080516378e9792560e01b815290518892916378e979259160048083019260209291908290030181865afa15801562000082573d6000803e3d6000fd5b505050506040513d601f19601f82011682018060405250810190620000a89190620002aa565b60a052506001600160a01b0380861660c05284811660e0819052908416610100526040805163c5438b1b60e01b8152905163c5438b1b916004808201926020929091908290030181865afa15801562000105573d6000803e3d6000fd5b505050506040513d601f19601f820116820180604052508101906200012b9190620002aa565b610140526001600160a01b0380821661012052604080518082018252848316815260016020828101918252600080805261100390915291517fd20a0949d46f2a3fe8e2b097639cb0509b48cd46f5f5b8e4534ea046b7dbd326805492511515600160a01b026001600160a81b0319909316919095161717909255517f375399aa7a22a9cce4a6b9bf254f18feb160b830a7b95ca9884465b1eb46aedb91620001e9918591906001600160a01b03929092168252602082015260400190565b60405180910390a1505050505050620002c4565b6001600160a01b03811681146200021357600080fd5b50565b60008060008060008060c087890312156200023057600080fd5b86516200023d81620001fd565b60208801519096506200025081620001fd565b60408801519095506200026381620001fd565b60608801519094506200027681620001fd565b60808801519093506200028981620001fd565b60a08801519092506200029c81620001fd565b809150509295509295509295565b600060208284031215620002bd57600080fd5b5051919050565b60805160a05160c05160e0516101005161012051610140516132a2620003a460003960008181610d7701528181611899015281816122d6015261230201526000818161034d0152610f580152600081816102ed0152818161079f0152610ffa0152600081816104e001526123680152600081816104a6015281816105a2015281816110850152818161122901528181611981015261224d0152600061151a0152600081816103a30152818161068501528181610cdf01528181610e3701528181611582015281816118cf01528181611ab00152611f5501526132a26000f3fe608060405234801561001057600080fd5b506004361061018b5760003560e01c80630b2f728a14610190578063226883b7146101c057806327b13b3c1461022957806333dee3601461024c578063351bae3b1461025f578063378cbf75146102915780634225e5bb146102b2578063452a9320146102d357806346c96aac146102e857806363b828931461030f5780636bd2fe3e146103225780636be986ba146103355780636ca32a9e146103485780637201fb0e1461036f578063804cf8561461038957806382d61d161461039e57806384bdd315146103c5578063874d6d81146103d85780638777f4d2146103e05780638d804ee0146103f35780638da5cb5b146104065780639a8634761461040e5780639e27a51b1461042f5780639ef6630014610442578063a64b6e5f14610455578063b52bbe4814610468578063c13d94041461048e578063d3671f8e146104a1578063d4add76a146104c8578063d7b96d4e146104db578063e46c3d4e14610502578063ed51e69c14610557578063fb42714f1461056a575b600080fd5b6002546101a3906001600160801b031681565b6040516001600160801b0390911681526020015b60405180910390f35b6102006101ce366004612b2c565b6190076020526000908152604090205460ff811690610100810461ffff1690630100000090046001600160a01b031683565b60408051931515845261ffff90921660208401526001600160a01b0316908201526060016101b7565b61023c610237366004612b49565b61057d565b60405190151581526020016101b7565b61023c61025a366004612b62565b610681565b60025461027990600160801b90046001600160401b031681565b6040516001600160401b0390911681526020016101b7565b6102a461029f366004612b49565b610996565b6040519081526020016101b7565b6102a46102c0366004612b2c565b6190046020526000908152604090205481565b6102db610cdb565b6040516101b79190612b8e565b6102db7f000000000000000000000000000000000000000000000000000000000000000081565b61023c61031d366004612b2c565b610d64565b61023c610330366004612ba2565b610dec565b61023c610343366004612b2c565b610e33565b6102db7f000000000000000000000000000000000000000000000000000000000000000081565b60025461027990600160c01b90046001600160401b031681565b61039c610397366004612d0c565b610f4d565b005b6102db7f000000000000000000000000000000000000000000000000000000000000000081565b61023c6103d3366004612e31565b6113b6565b6102a461150f565b6101a36103ee366004612b49565b611549565b6001546102db906001600160a01b031681565b6102db61157e565b61042161041c366004612b2c565b6115de565b6040516101b7929190612e73565b61023c61043d366004612e81565b6116f6565b6102a4610450366004612b2c565b61187d565b61023c610463366004612ba2565b6118cb565b61047b610476366004612b49565b611a7d565b60405161ffff90911681526020016101b7565b61023c61049c366004612f1d565b611aac565b6102db7f000000000000000000000000000000000000000000000000000000000000000081565b6104216104d6366004612f4d565b611c53565b6102db7f000000000000000000000000000000000000000000000000000000000000000081565b610538610510366004612b49565b611003602052600090815260409020546001600160a01b03811690600160a01b900460ff1682565b604080516001600160a01b0390931683529015156020830152016101b7565b6000546102db906001600160a01b031681565b61023c610578366004612b2c565b611f51565b6040516323b872dd60e01b8152336004820152306024820152604481018290526000907f00000000000000000000000000000000000000000000000000000000000000006001600160a01b0316906323b872dd906064016020604051808303816000875af11580156105f3573d6000803e3d6000fd5b505050506040513d601f19601f820116820180604052508101906106179190612fa9565b506002546000906106329084906001600160801b0316612fdc565b600280546001600160801b0319166001600160801b03831617905560405190915060008051602061322d833981519152906106709085908490612e73565b60405180910390a150600192915050565b60007f00000000000000000000000000000000000000000000000000000000000000006001600160a01b0316638da5cb5b6040518163ffffffff1660e01b8152600401602060405180830381865afa1580156106e1573d6000803e3d6000fd5b505050506040513d601f19601f820116820180604052508101906107059190612fef565b6001600160a01b0316336001600160a01b03161461073e5760405162461bcd60e51b81526004016107359061300c565b60405180910390fd5b6000826001600160401b0381111561075857610758612be3565b604051908082528060200260200182016040528015610781578160200160208202803683370190505b509050600061078e61150f565b905060005b848110156109185760007f00000000000000000000000000000000000000000000000000000000000000006001600160a01b0316634566a2686040518163ffffffff1660e01b81526004016020604051808303816000875af11580156107fd573d6000803e3d6000fd5b505050506040513d601f19601f820116820180604052508101906108219190613030565b90508084838151811061083657610836613049565b6020026020010181815250508260038261ffff811061085757610857613049565b60108104909101805461ffff9384166002600f909416939093026101000a92830293909202199091169190911790556040805180820182526001600160a01b03808a1682526001602080840191825260008681526110039091528490209251835491511515600160a01b026001600160a81b0319909216921691909117179055517f375399aa7a22a9cce4a6b9bf254f18feb160b830a7b95ca9884465b1eb46aedb90610907908990849061305f565b60405180910390a150600101610793565b50604051635bbe8aad60e01b81526001600160a01b03861690635bbe8aad90610945908590600401613078565b6020604051808303816000875af1158015610964573d6000803e3d6000fd5b505050506040513d601f19601f820116820180604052508101906109889190612fa9565b506001925050505b92915050565b6000818152611003602090815260408083208151808301909252546001600160a01b038116808352600160a01b90910460ff16151592820192909252903314610a1b5760405162461bcd60e51b8152602060048201526017602482015276149958d95a5d995c881b9bdd081c9959da5cdd195c9959604a1b6044820152606401610735565b600060038461ffff8110610a3157610a31613049565b601091828204019190066002029054906101000a900461ffff1661ffff1690506000610a5b61150f565b9050808203610a6f57506000949350505050565b6000546001600160a01b0316610a85818361203e565b6001600160a01b038116610ada578160038761ffff8110610aa857610aa8613049565b601091828204019190066002026101000a81548161ffff021916908361ffff1602179055506000945050505050919050565b60005b82841015610bb457610aee846130bc565b9350816001600160a01b031663a3af6b9b88866110048861ffff8110610b1657610b16613049565b60028104919091015460405160e086901b6001600160e01b0319168152600481019490945260248401929092526001166010026101000a90046001600160801b031660448201526064016020604051808303816000875af1158015610b7f573d6000803e3d6000fd5b505050506040513d601f19601f82011682018060405250810190610ba39190613030565b610bad9082612fdc565b9050610add565b8260038861ffff8110610bc957610bc9613049565b601091828204019190066002026101000a81548161ffff021916908361ffff160217905550846020015115610c6d573360009081526190046020526040902054610c14908290612fdc565b3360008181526190046020526040908190209290925590517fda1c4f2d69a45f565043251bb71522280543796bb865d00e12065191714d470790610c5b9084815260200190565b60405180910390a29695505050505050565b600254600090610c879083906001600160801b0316612fdc565b600280546001600160801b0319166001600160801b03831617905560405190915060008051602061322d83398151915290610cc59084908490612e73565b60405180910390a1506000979650505050505050565b60007f00000000000000000000000000000000000000000000000000000000000000006001600160a01b031663452a93206040518163ffffffff1660e01b8152600401602060405180830381865afa158015610d3b573d6000803e3d6000fd5b505050506040513d601f19601f82011682018060405250810190610d5f9190612fef565b905090565b33600090815261900660205260408120547f0000000000000000000000000000000000000000000000000000000000000000811015610dd85760405162461bcd60e51b815260206004820152601060248201526f4e6f7468696e6720746f20636c61696d60801b6044820152606401610735565b610de3338483612205565b50600192915050565b60008115610e2857336000908152619004602052604081208054849290610e149084906130d5565b90915550610e2890506000858582866123ee565b5060015b9392505050565b60007f00000000000000000000000000000000000000000000000000000000000000006001600160a01b0316638da5cb5b6040518163ffffffff1660e01b8152600401602060405180830381865afa158015610e93573d6000803e3d6000fd5b505050506040513d601f19601f82011682018060405250810190610eb79190612fef565b6001600160a01b0316336001600160a01b031614610ee75760405162461bcd60e51b81526004016107359061300c565b600054610f04906001600160a01b0316610eff61150f565b61203e565b600080546001600160a01b0319166001600160a01b03841617905560405160008051602061324d83398151915290610f3d908490612b8e565b60405180910390a1506001919050565b336001600160a01b037f00000000000000000000000000000000000000000000000000000000000000001614610fba5760405162461bcd60e51b815260206004820152601260248201527110b232b83637bcb6b2b73a26b0b730b3b2b960711b6044820152606401610735565b600080546001600160a01b038089166001600160a01b031992831617835560018054898316931692909217909155604080516308acd44d60e31b815290517f000000000000000000000000000000000000000000000000000000000000000090921692634566a2689260048084019360209390839003909101908290875af115801561104a573d6000803e3d6000fd5b505050506040513d601f19601f8201168201806040525081019061106e9190613030565b506040516324c9383760e01b8152600481018590527f00000000000000000000000000000000000000000000000000000000000000006001600160a01b0316906324c93837906024016020604051808303816000875af11580156110d6573d6000803e3d6000fd5b505050506040513d601f19601f820116820180604052508101906110fa9190612fa9565b5081516000908161110961150f565b611114906001612fdc565b905060005b828110156111af57600086828151811061113557611135613049565b6020026020010151905080611004848461114f9190612fdc565b61ffff811061116057611160613049565b600291828204019190066010026101000a8154816001600160801b0302191690836001600160801b03160217905550806001600160801b0316856111a49190612fdc565b945050600101611119565b508351915060005b828110156112ae5760008582815181106111d3576111d3613049565b602002602001015160200151905060008683815181106111f5576111f5613049565b6020026020010151600001519050818661120f9190612fdc565b60405163095ea7b360e01b81529096506001600160a01b037f0000000000000000000000000000000000000000000000000000000000000000169063095ea7b390611260908490869060040161305f565b6020604051808303816000875af115801561127f573d6000803e3d6000fd5b505050506040513d601f19601f820116820180604052508101906112a39190612fa9565b5050506001016111b7565b506112b983886130d5565b600280546001600160801b0319166001600160801b039290921691909117905584516001906112e9908390612fdc565b6112f391906130d5565b600280546001600160801b0316600160801b6001600160401b03938416026001600160c01b031617600160c01b9289169290920291909117905560405160008051602061324d8339815191529061134b908b90612b8e565b60405180910390a160008051602061320d833981519152886040516113709190612b8e565b60405180910390a1600254604080518581526001600160801b0390921660208301526000805160206131ed833981519152910160405180910390a1505050505050505050565b6000831561149557612710831115806113d0575061ffff83145b61140d5760405162461bcd60e51b815260206004820152600e60248201526d125b9d985b1a59081999595418dd60921b6044820152606401610735565b604080516060810182526001815261ffff85811660208084019182526001600160a01b0387811685870190815233600090815261900790935295909120935184549251955162ffffff1990931690151562ffff001916176101009590931694909402919091176301000000600160b81b031916630100000091909316029190911790556114b4565b3360009081526190076020526040902080546001600160b81b03191690555b604080518515158152602081018590526001600160a01b0384169181019190915233907f4de72252e36ce14be9125843bdbb926e0ad0fb57c1a7255e7d4d05383fc184a3906060015b60405180910390a25060019392505050565b600062093a8061153f7f0000000000000000000000000000000000000000000000000000000000000000426130d5565b610d5f91906130e8565b6110048161ffff811061155b57600080fd5b60029182820401919006601002915054906101000a90046001600160801b031681565b60007f00000000000000000000000000000000000000000000000000000000000000006001600160a01b0316638da5cb5b6040518163ffffffff1660e01b8152600401602060405180830381865afa158015610d3b573d6000803e3d6000fd5b60008060006115eb61150f565b905060006110048261ffff811061160457611604613049565b6002810491909101546001600160a01b03871660009081526190056020526040812060019093166010026101000a9091046001600160801b03169250908361ffff811061165357611653613049565b6002810491909101546001805460405163423b1fe360e01b8152919093166010026101000a9091046001600160801b031692506001600160a01b039091169063423b1fe3906116aa9089908590879060040161310a565b6040805180830381865afa1580156116c6573d6000803e3d6000fd5b505050506040513d601f19601f820116820180604052508101906116ea919061312b565b94509450505050915091565b600061271082111561173e5760405162461bcd60e51b8152602060048201526011602482015270125b9d985b1a59081b585e1199595418dd607a1b6044820152606401610735565b600083815b8181101561186157600087878381811061175f5761175f613049565b90506020020160208101906117749190612b2c565b604051631e0b040760e31b81523360048201526001600160a01b038c81166024830152919091169063f0582038906044016020604051808303816000875af11580156117c4573d6000803e3d6000fd5b505050506040513d601f19601f820116820180604052508101906117e89190613030565b90508061900460008a8a8681811061180257611802613049565b90506020020160208101906118179190612b2c565b6001600160a01b03166001600160a01b03168152602001908152602001600020600082825461184691906130d5565b9091555061185690508185612fdc565b935050600101611743565b5061186f84338a8a866123ee565b506001979650505050505050565b6001600160a01b038116600090815261900660205260409020547f00000000000000000000000000000000000000000000000000000000000000008110156118c6576000610990565b919050565b60007f00000000000000000000000000000000000000000000000000000000000000006001600160a01b0316638da5cb5b6040518163ffffffff1660e01b8152600401602060405180830381865afa15801561192b573d6000803e3d6000fd5b505050506040513d601f19601f8201168201806040525081019061194f9190612fef565b6001600160a01b0316336001600160a01b03161461197f5760405162461bcd60e51b81526004016107359061300c565b7f00000000000000000000000000000000000000000000000000000000000000006001600160a01b0316846001600160a01b031603611a6957306001600160a01b03841603611a075760405162461bcd60e51b815260206004820152601460248201527314d95b19881d1c985b9cd9995c8819195b9a595960621b6044820152606401610735565b600254600090611a219084906001600160801b03166130d5565b600280546001600160801b0319166001600160801b0383161790556040519091506000805160206131ed83398151915290611a5f9085908490612e73565b60405180910390a1505b610e286001600160a01b038516848461295f565b60038161ffff8110611a8e57600080fd5b60109182820401919006600202915054906101000a900461ffff1681565b60007f00000000000000000000000000000000000000000000000000000000000000006001600160a01b0316638da5cb5b6040518163ffffffff1660e01b8152600401602060405180830381865afa158015611b0c573d6000803e3d6000fd5b505050506040513d601f19601f82011682018060405250810190611b309190612fef565b6001600160a01b0316336001600160a01b031614611b605760405162461bcd60e51b81526004016107359061300c565b600083815261100360209081526040918290208251808401909352546001600160a01b038116808452600160a01b90910460ff16151591830191909152611bd65760405162461bcd60e51b815260206004820152600a6024820152691251081b9bdd081cd95d60b21b6044820152606401610735565b821515602080830191825260008681526110039091526040908190208351815493511515600160a01b026001600160a81b03199094166001600160a01b0390911617929092179091555184907f82a4ff8311333266bb50969521800e4bed9369da4894334ef456427e3ad92109906114fd90861515815260200190565b6000806000836001600160a01b031663e9503425886040518263ffffffff1660e01b8152600401611c849190612b8e565b602060405180830381865afa158015611ca1573d6000803e3d6000fd5b505050506040513d601f19601f82011682018060405250810190611cc59190613030565b90506000611cd161150f565b905060006110048261ffff8110611cea57611cea613049565b60028104919091015460019091166010026101000a90046001600160801b0316905060006001600160a01b03881615611d235787611d25565b895b6001600160a01b038116600090815261900560205260408120919250908461ffff8110611d5457611d54613049565b60028104919091015460019091166010026101000a90046001600160801b0316905060006001600160a01b038a1615611eaf576001600160a01b03808b16600090815261900760209081526040918290208251606081018452905460ff8116151580835261ffff610100830416938301939093526301000000900490931691830191909152611df0576000809850985050505050505050611f48565b602081015161ffff16915061fffe198201611e905780604001516001600160a01b0316636a2243a9858e8a878a6040518663ffffffff1660e01b8152600401611e3d95949392919061314f565b602060405180830381865afa925050508015611e76575060408051601f3d908101601f19168201909252611e7391810190613030565b60015b611e8d576000809850985050505050505050611f48565b91505b612710821115611ead576000809850985050505050505050611f48565b505b6001546040516349955f6360e01b81526001600160a01b03909116906349955f6390611ee59086908a9087908a90600401613180565b602060405180830381865afa158015611f02573d6000803e3d6000fd5b505050506040513d601f19601f82011682018060405250810190611f269190613030565b9750612710611f35828a6131a6565b611f3f91906130e8565b96505050505050505b94509492505050565b60007f00000000000000000000000000000000000000000000000000000000000000006001600160a01b0316638da5cb5b6040518163ffffffff1660e01b8152600401602060405180830381865afa158015611fb1573d6000803e3d6000fd5b505050506040513d601f19601f82011682018060405250810190611fd59190612fef565b6001600160a01b0316336001600160a01b0316146120055760405162461bcd60e51b81526004016107359061300c565b600180546001600160a01b0319166001600160a01b03841617905560405160008051602061320d83398151915290610f3d908490612b8e565b600254600160801b90046001600160401b031681811061205d57505050565b6001600160a01b0383166120995750600280546001600160401b03909216600160801b02600160801b600160c01b031990921691909117905550565b60025460009081906001600160801b03165b848410156121b2576120bc846130bc565b60405163e8643de960e01b81529094506001600160a01b0387169063e8643de9906120ed9087908590600401612e73565b60408051808303816000875af115801561210b573d6000803e3d6000fd5b505050506040513d601f19601f8201168201806040525081019061212f919061312b565b93509150816110048561ffff811061214957612149613049565b600291828204019190066010026101000a8154816001600160801b0302191690836001600160801b03160217905550818161218491906130d5565b90506000805160206131ed83398151915282826040516121a5929190612e73565b60405180910390a16120ab565b600280546001600160801b03929092166001600160c01b031990921691909117600160801b6001600160401b0396871602176001600160c01b0316600160c01b9390951692909202939093179055505050565b600254600160c01b90046001600160401b031660008190036122cf576001600160a01b0380851660009081526190066020526040808220919091555163a9059cbb60e01b81527f00000000000000000000000000000000000000000000000000000000000000009091169063a9059cbb90612286908690869060040161305f565b6020604051808303816000875af11580156122a5573d6000803e3d6000fd5b505050506040513d601f19601f820116820180604052508101906122c99190612fa9565b506123e8565b60006122fb7f0000000000000000000000000000000000000000000000000000000000000000846130e8565b90506123277f0000000000000000000000000000000000000000000000000000000000000000826131a6565b61233190846130d5565b6001600160a01b0386166000908152619006602052604090205580156123e65760405163e2ab691d60e01b81526001600160a01b037f0000000000000000000000000000000000000000000000000000000000000000169063e2ab691d906123a19087908590879060040161310a565b6020604051808303816000875af11580156123c0573d6000803e3d6000fd5b505050506040513d601f19601f820116820180604052508101906123e49190612fa9565b505b505b50505050565b80156123e65760006123fe61150f565b905060006110048261ffff811061241757612417613049565b60028104919091015460019091166010026101000a90046001600160801b0316905060006001600160a01b038516156124505784612452565b865b6001600160a01b038116600090815261900560205260408120919250908461ffff811061248157612481613049565b60028104919091015460019091166010026101000a90046001600160801b031690506000806001600160a01b0388161561267757506001600160a01b03808816600090815261900760209081526040918290208251606081018452905460ff8116151580835261ffff61010083041693830193909352630100000090049093169183018290529091906125495760405162461bcd60e51b815260206004820152601060248201526f496e76616c69642064656c656761746560801b6044820152606401610735565b61ffff8016816020015161ffff160361262157604051636a2243a960e01b81526001600160a01b03831690636a2243a990612590908e908e908d908a908d9060040161314f565b602060405180830381865afa1580156125ad573d6000803e3d6000fd5b505050506040513d601f19601f820116820180604052508101906125d19190613030565b925061271083111561261c5760405162461bcd60e51b8152602060048201526014602482015273496e76616c69642064656c65676174652066656560601b6044820152606401610735565b61262d565b806020015161ffff1692505b8b8311156126755760405162461bcd60e51b815260206004820152601560248201527419995948195e18d959591cc81b585e1199595418dd605a1b6044820152606401610735565b505b600154604051630609d12160e41b81526000916001600160a01b03169063609d1210906126ae9088908c9089908c90600401613180565b6020604051808303816000875af11580156126cd573d6000803e3d6000fd5b505050506040513d601f19601f820116820180604052508101906126f19190613030565b905060006126ff828a6130d5565b90508015612769576002546000906127219083906001600160801b0316612fdc565b600280546001600160801b0319166001600160801b03831617905560405190915060008051602061322d8339815191529061275f9084908490612e73565b60405180910390a1505b506127748885612fdc565b6001600160a01b0386166000908152619005602052604090208861ffff811061279f5761279f613049565b600291828204019190066010026101000a8154816001600160801b0302191690836001600160801b03160217905550826000146127fc576127106127e384836131a6565b6127ed91906130e8565b92506127f983826130d5565b90505b6001600160a01b038b16600090815261900660205260409020546128209082612fdc565b905061282d8b8b83612205565b8215612862576001600160a01b038916600090815261900660205260408120805485929061285c908490612fdc565b90915550505b6001600160a01b03821615612951576040516346d1a77560e01b81526001600160a01b038c811660048301528b81166024830152604482018a9052606482018390526084820185905260a4820186905260c482018890528316906346d1a7759060e4016020604051808303816000875af11580156128e4573d6000803e3d6000fd5b505050506040513d601f19601f820116820180604052508101906129089190612fa9565b6129515760405162461bcd60e51b815260206004820152601a60248201527911195b1959d85d194818d85b1b189858dac81c995a9958dd195960321b6044820152606401610735565b505050505050505050505050565b6129b783846001600160a01b031663a9059cbb858560405160240161298592919061305f565b604051602081830303815290604052915060e01b6020820180516001600160e01b0383818316178352505050506129bc565b505050565b60006129d16001600160a01b03841683612a16565b905080516000141580156129f65750808060200190518101906129f49190612fa9565b155b156129b75782604051635274afe760e01b81526004016107359190612b8e565b6060610e2c8383600084600080856001600160a01b03168486604051612a3c91906131bd565b60006040518083038185875af1925050503d8060008114612a79576040519150601f19603f3d011682016040523d82523d6000602084013e612a7e565b606091505b5091509150612a8e868383612a98565b9695505050505050565b606082612aad57612aa882612aeb565b610e2c565b8151158015612ac457506001600160a01b0384163b155b15612ae45783604051639996b31560e01b81526004016107359190612b8e565b5080610e2c565b805115612afb5780518082602001fd5b604051630a12f52160e11b815260040160405180910390fd5b50565b6001600160a01b0381168114612b1457600080fd5b600060208284031215612b3e57600080fd5b8135610e2c81612b17565b600060208284031215612b5b57600080fd5b5035919050565b60008060408385031215612b7557600080fd5b8235612b8081612b17565b946020939093013593505050565b6001600160a01b0391909116815260200190565b600080600060608486031215612bb757600080fd5b8335612bc281612b17565b92506020840135612bd281612b17565b929592945050506040919091013590565b634e487b7160e01b600052604160045260246000fd5b604080519081016001600160401b0381118282101715612c1b57612c1b612be3565b60405290565b604051601f8201601f191681016001600160401b0381118282101715612c4957612c49612be3565b604052919050565b60006001600160401b03821115612c6a57612c6a612be3565b5060051b60200190565b600082601f830112612c8557600080fd5b81356020612c9a612c9583612c51565b612c21565b82815260069290921b84018101918181019086841115612cb957600080fd5b8286015b84811015612d015760408189031215612cd65760008081fd5b612cde612bf9565b8135612ce981612b17565b81528185013585820152835291830191604001612cbd565b509695505050505050565b60008060008060008060c08789031215612d2557600080fd5b8635612d3081612b17565b9550602087810135612d4181612b17565b95506040880135945060608801356001600160401b038082168214612d6557600080fd5b90945060808901359080821115612d7b57600080fd5b818a0191508a601f830112612d8f57600080fd5b8135612d9d612c9582612c51565b81815260059190911b8301840190848101908d831115612dbc57600080fd5b938501935b82851015612df05784356001600160801b0381168114612de15760008081fd5b82529385019390850190612dc1565b9650505060a08a0135925080831115612e0857600080fd5b5050612e1689828a01612c74565b9150509295509295509295565b8015158114612b1457600080fd5b600080600060608486031215612e4657600080fd5b8335612e5181612e23565b9250602084013591506040840135612e6881612b17565b809150509250925092565b918252602082015260400190565b600080600080600060808688031215612e9957600080fd5b8535612ea481612b17565b94506020860135612eb481612b17565b935060408601356001600160401b0380821115612ed057600080fd5b818801915088601f830112612ee457600080fd5b813581811115612ef357600080fd5b8960208260051b8501011115612f0857600080fd5b96999598505060200195606001359392505050565b60008060408385031215612f3057600080fd5b823591506020830135612f4281612e23565b809150509250929050565b60008060008060808587031215612f6357600080fd5b8435612f6e81612b17565b93506020850135612f7e81612b17565b92506040850135612f8e81612b17565b91506060850135612f9e81612b17565b939692955090935050565b600060208284031215612fbb57600080fd5b8151610e2c81612e23565b634e487b7160e01b600052601160045260246000fd5b8082018082111561099057610990612fc6565b60006020828403121561300157600080fd5b8151610e2c81612b17565b6020808252600a908201526927b7363c9037bbb732b960b11b604082015260600190565b60006020828403121561304257600080fd5b5051919050565b634e487b7160e01b600052603260045260246000fd5b6001600160a01b03929092168252602082015260400190565b6020808252825182820181905260009190848201906040850190845b818110156130b057835183529284019291840191600101613094565b50909695505050505050565b6000600182016130ce576130ce612fc6565b5060010190565b8181038181111561099057610990612fc6565b60008261310557634e487b7160e01b600052601260045260246000fd5b500490565b6001600160a01b039390931683526020830191909152604082015260600190565b6000806040838503121561313e57600080fd5b505080516020909101519092909150565b6001600160a01b03958616815293909416602084015260408301919091526060820152608081019190915260a00190565b6001600160a01b0394909416845260208401929092526040830152606082015260800190565b808202811582820484141761099057610990612fc6565b6000825160005b818110156131de57602081860181015185830152016131c4565b50600092019182525091905056fee53029f1371dc130e1277d91cdacc0f9ece4b29159e62598ef1fc911551c6033e1a7ee8754d81e0a44e79c238dfe94867d6af6153c6967474dc7f60e9211d9fa54b8dd835b48a0b306a9a706a47fc0e08468ce12148a3b645c496018f9852ff92c342266e3979163d824140326453c8bf5592ad2f774a58222ea35b5c0bfc774a2646970667358221220bb785f25c1333dc02cd2beea835f10b76007b01f054c0e7b85a96e5bc39b18a664736f6c63430008160033",
  "linkReferences": {},
  "deployedLinkReferences": {}
}