{
  "_format": "hh-sol-artifact-1",
  "contractName": "IDOTokenVesting",
  "sourceName": "contracts/dao/IDOTokenVesting.sol",
  "abi": [
    {
      "inputs": [
        {
          "internalType": "address",
          "name": "_vineCore",
          "type": "address"
        },
        {
          "internalType": "address",
          "name": "_vault",
          "type": "address"
        },
        {
          "internalType": "contract IERC20",
          "name": "_VINE",
          "type": "address"
        },
        {
          "internalType": "uint256",
          "name": "_unlockingStartTime",
          "type": "uint256"
        },
        {
          "internalType": "uint256",
          "name": "_duration",
          "type": "uint256"
        }
      ],
      "stateMutability": "nonpayable",
      "type": "constructor"
    },
    {
      "anonymous": false,
      "inputs": [
        {
          "indexed": true,
          "internalType": "address",
          "name": "_addr",
          "type": "address"
        },
        {
          "indexed": false,
          "internalType": "uint256",
          "name": "_amount",
          "type": "uint256"
        }
      ],
      "name": "ClaimAirdrop",
      "type": "event"
    },
    {
      "anonymous": false,
      "inputs": [
        {
          "indexed": true,
          "internalType": "address",
          "name": "_addr",
          "type": "address"
        },
        {
          "indexed": false,
          "internalType": "address",
          "name": "t0",
          "type": "address"
        },
        {
          "indexed": false,
          "internalType": "uint256",
          "name": "_amount",
          "type": "uint256"
        }
      ],
      "name": "Vest",
      "type": "event"
    },
    {
      "inputs": [
        {
          "internalType": "address",
          "name": "",
          "type": "address"
        }
      ],
      "name": "UnlockingInfo",
      "outputs": [
        {
          "internalType": "uint256",
          "name": "airdrop",
          "type": "uint256"
        },
        {
          "internalType": "bool",
          "name": "isClaimed",
          "type": "bool"
        },
        {
          "internalType": "uint256",
          "name": "totalLocked",
          "type": "uint256"
        },
        {
          "internalType": "uint256",
          "name": "lastUnlockingTime",
          "type": "uint256"
        }
      ],
      "stateMutability": "view",
      "type": "function"
    },
    {
      "inputs": [],
      "name": "VINE",
      "outputs": [
        {
          "internalType": "contract IERC20",
          "name": "",
          "type": "address"
        }
      ],
      "stateMutability": "view",
      "type": "function"
    },
    {
      "inputs": [],
      "name": "VINE_CORE",
      "outputs": [
        {
          "internalType": "contract IVineCore",
          "name": "",
          "type": "address"
        }
      ],
      "stateMutability": "view",
      "type": "function"
    },
    {
      "inputs": [],
      "name": "claimAirdrop",
      "outputs": [],
      "stateMutability": "nonpayable",
      "type": "function"
    },
    {
      "inputs": [],
      "name": "duration",
      "outputs": [
        {
          "internalType": "uint256",
          "name": "",
          "type": "uint256"
        }
      ],
      "stateMutability": "view",
      "type": "function"
    },
    {
      "inputs": [
        {
          "internalType": "address",
          "name": "addr",
          "type": "address"
        }
      ],
      "name": "getUnlockableAmount",
      "outputs": [
        {
          "internalType": "uint256",
          "name": "",
          "type": "uint256"
        }
      ],
      "stateMutability": "view",
      "type": "function"
    },
    {
      "inputs": [],
      "name": "guardian",
      "outputs": [
        {
          "internalType": "address",
          "name": "",
          "type": "address"
        }
      ],
      "stateMutability": "view",
      "type": "function"
    },
    {
      "inputs": [],
      "name": "owner",
      "outputs": [
        {
          "internalType": "address",
          "name": "",
          "type": "address"
        }
      ],
      "stateMutability": "view",
      "type": "function"
    },
    {
      "inputs": [
        {
          "internalType": "address[]",
          "name": "_addrs",
          "type": "address[]"
        },
        {
          "internalType": "uint256[]",
          "name": "_totalLockeds",
          "type": "uint256[]"
        },
        {
          "internalType": "uint256[]",
          "name": "_airdrops",
          "type": "uint256[]"
        }
      ],
      "name": "setUnlockingRule",
      "outputs": [],
      "stateMutability": "nonpayable",
      "type": "function"
    },
    {
      "inputs": [],
      "name": "unlockingStartTime",
      "outputs": [
        {
          "internalType": "uint256",
          "name": "",
          "type": "uint256"
        }
      ],
      "stateMutability": "view",
      "type": "function"
    },
    {
      "inputs": [],
      "name": "vault",
      "outputs": [
        {
          "internalType": "address",
          "name": "",
          "type": "address"
        }
      ],
      "stateMutability": "view",
      "type": "function"
    },
    {
      "inputs": [
        {
          "internalType": "address",
          "name": "to",
          "type": "address"
        }
      ],
      "name": "vest",
      "outputs": [],
      "stateMutability": "nonpayable",
      "type": "function"
    }
  ],
  "bytecode": "0x60e060405234801561001057600080fd5b50604051610da8380380610da883398101604081905261002f9161006e565b6001600160a01b0394851660805292841660a052921660c0526002919091556001556100cc565b6001600160a01b038116811461006b57600080fd5b50565b600080600080600060a0868803121561008657600080fd5b855161009181610056565b60208701519095506100a281610056565b60408701519094506100b381610056565b6060870151608090970151959894975095949392505050565b60805160a05160c051610c7c61012c6000396000818161016101528181610613015261094b0152600081816101e50152818161064001526109780152600081816101900152818161020b0152818161029201526107080152610c7c6000f3fe608060405234801561001057600080fd5b50600436106100a45760003560e01c80630fb5a6b4146100a95780633dec869d146100c55780633efa4be1146100ce578063452a9320146101275780634ca68292146101475780634d89024c1461015c5780635b88349d1461018357806382d61d161461018b5780638da5cb5b146101b2578063e680be4d146101ba578063f3c5f51e146101cd578063fbfa77cf146101e0575b600080fd5b6100b260015481565b6040519081526020015b60405180910390f35b6100b260025481565b6101076100dc366004610a4a565b6000602081905290815260409020805460018201546002830154600390930154919260ff9091169184565b6040805194855292151560208501529183015260608201526080016100bc565b61012f610207565b6040516001600160a01b0390911681526020016100bc565b61015a610155366004610ab9565b610290565b005b61012f7f000000000000000000000000000000000000000000000000000000000000000081565b61015a6104dd565b61012f7f000000000000000000000000000000000000000000000000000000000000000081565b61012f610704565b6100b26101c8366004610a4a565b610764565b61015a6101db366004610a4a565b610872565b61012f7f000000000000000000000000000000000000000000000000000000000000000081565b60007f00000000000000000000000000000000000000000000000000000000000000006001600160a01b031663452a93206040518163ffffffff1660e01b8152600401602060405180830381865afa158015610267573d6000803e3d6000fd5b505050506040513d601f19601f8201168201806040525081019061028b9190610b52565b905090565b7f00000000000000000000000000000000000000000000000000000000000000006001600160a01b0316638da5cb5b6040518163ffffffff1660e01b8152600401602060405180830381865afa1580156102ee573d6000803e3d6000fd5b505050506040513d601f19601f820116820180604052508101906103129190610b52565b6001600160a01b0316336001600160a01b0316146103645760405162461bcd60e51b815260206004820152600a60248201526927b7363c9037bbb732b960b11b60448201526064015b60405180910390fd5b84831461037057600080fd5b60005b858110156104d45760008088888481811061039057610390610b6f565b90506020020160208101906103a59190610a4a565b6001600160a01b031681526020810191909152604001600020600201541561040f5760405162461bcd60e51b815260206004820152601e60248201527f5468652072756c652068617320616c7265616479206265656e207365742e0000604482015260640161035b565b84848281811061042157610421610b6f565b9050602002013560008089898581811061043d5761043d610b6f565b90506020020160208101906104529190610a4a565b6001600160a01b0316815260208101919091526040016000206002015582828281811061048157610481610b6f565b9050602002013560008089898581811061049d5761049d610b6f565b90506020020160208101906104b29190610a4a565b6001600160a01b03168152602081019190915260400160002055600101610373565b50505050505050565b60025442101561052f5760405162461bcd60e51b815260206004820152601d60248201527f5468652074696d6520686173206e6f742061727269766564207965742e000000604482015260640161035b565b3360009081526020819052604090206001015460ff16156105915760405162461bcd60e51b815260206004820152601c60248201527b2cb7ba903430bb329030b63932b0b23c9031b630b4b6b2b21034ba1760211b604482015260640161035b565b33600090815260208190526040902054806105fc5760405162461bcd60e51b815260206004820152602560248201527f596f7520617265206e6f7420656c696769626c6520666f722074686520616972604482015264323937b81760d91b606482015260840161035b565b6040516323b872dd60e01b81526001600160a01b037f000000000000000000000000000000000000000000000000000000000000000016906323b872dd9061066c907f00000000000000000000000000000000000000000000000000000000000000009033908690600401610b85565b6020604051808303816000875af115801561068b573d6000803e3d6000fd5b505050506040513d601f19601f820116820180604052508101906106af9190610ba9565b5033600081815260208181526040918290206001908101805460ff1916909117905590518381527fcebbbce55cb558a80c89a83b5e23dca5186979853be88c28e9e01232c7fdc98b910160405180910390a250565b60007f00000000000000000000000000000000000000000000000000000000000000006001600160a01b0316638da5cb5b6040518163ffffffff1660e01b8152600401602060405180830381865afa158015610267573d6000803e3d6000fd5b6000600254421161077757506000919050565b60006001546002546107899190610be1565b6001600160a01b0384166000908152602081905260408120600301549192509081036107dc578142116107c8576002546107c39042610bfa565b6107d5565b6002546107d59083610bfa565b9050610837565b81421161080e576001600160a01b0384166000908152602081905260409020600301546108099042610bfa565b610834565b6001600160a01b0384166000908152602081905260409020600301546108349083610bfa565b90505b6001546001600160a01b0385166000908152602081905260409020600201546108609083610c0d565b61086a9190610c24565b949350505050565b6002544210156108d45760405162461bcd60e51b815260206004820152602760248201527f54686520756e6c6f636b696e672074696d6520686173206e6f7420617272697660448201526632b2103cb2ba1760c91b606482015260840161035b565b60006108df33610764565b90508015610a2e5760006001546002546108f99190610be1565b90508042111561091d57336000908152602081905260409020600301819055610934565b336000908152602081905260409020426003909101555b6040516323b872dd60e01b81526001600160a01b037f000000000000000000000000000000000000000000000000000000000000000016906323b872dd906109a4907f00000000000000000000000000000000000000000000000000000000000000009087908790600401610b85565b6020604051808303816000875af11580156109c3573d6000803e3d6000fd5b505050506040513d601f19601f820116820180604052508101906109e79190610ba9565b50604080516001600160a01b03851681526020810184905233917fb18d74f095094ce3c4ef79ef7d5f8ffe12910f681abc256212caa06affd87bbc910160405180910390a2505b5050565b6001600160a01b0381168114610a4757600080fd5b50565b600060208284031215610a5c57600080fd5b8135610a6781610a32565b9392505050565b60008083601f840112610a8057600080fd5b5081356001600160401b03811115610a9757600080fd5b6020830191508360208260051b8501011115610ab257600080fd5b9250929050565b60008060008060008060608789031215610ad257600080fd5b86356001600160401b0380821115610ae957600080fd5b610af58a838b01610a6e565b90985096506020890135915080821115610b0e57600080fd5b610b1a8a838b01610a6e565b90965094506040890135915080821115610b3357600080fd5b50610b4089828a01610a6e565b979a9699509497509295939492505050565b600060208284031215610b6457600080fd5b8151610a6781610a32565b634e487b7160e01b600052603260045260246000fd5b6001600160a01b039384168152919092166020820152604081019190915260600190565b600060208284031215610bbb57600080fd5b81518015158114610a6757600080fd5b634e487b7160e01b600052601160045260246000fd5b80820180821115610bf457610bf4610bcb565b92915050565b81810381811115610bf457610bf4610bcb565b8082028115828204841417610bf457610bf4610bcb565b600082610c4157634e487b7160e01b600052601260045260246000fd5b50049056fea2646970667358221220bd4b213a176dcb61fa5bf5a9943a838be0d9fa7252969f2eb61960f77c4a3df264736f6c63430008160033",
  "linkReferences": {},
  "deployedLinkReferences": {}
}