{
  "_format": "hh-sol-artifact-1",
  "contractName": "LiquidationManager",
  "sourceName": "contracts/core/LiquidationManager.sol",
  "abi": [
    {
      "inputs": [
        {
          "internalType": "contract IStabilityPool",
          "name": "_stabilityPoolAddress",
          "type": "address"
        },
        {
          "internalType": "contract IBorrowerOperations",
          "name": "_borrowerOperations",
          "type": "address"
        },
        {
          "internalType": "address",
          "name": "_factory",
          "type": "address"
        },
        {
          "internalType": "uint256",
          "name": "_gasCompensation",
          "type": "uint256"
        }
      ],
      "stateMutability": "nonpayable",
      "type": "constructor"
    },
    {
      "anonymous": false,
      "inputs": [
        {
          "indexed": false,
          "internalType": "uint256",
          "name": "_liquidatedDebt",
          "type": "uint256"
        },
        {
          "indexed": false,
          "internalType": "uint256",
          "name": "_liquidatedColl",
          "type": "uint256"
        },
        {
          "indexed": false,
          "internalType": "uint256",
          "name": "_collGasCompensation",
          "type": "uint256"
        },
        {
          "indexed": false,
          "internalType": "uint256",
          "name": "_debtGasCompensation",
          "type": "uint256"
        }
      ],
      "name": "Liquidation",
      "type": "event"
    },
    {
      "inputs": [],
      "name": "CCR",
      "outputs": [
        {
          "internalType": "uint256",
          "name": "",
          "type": "uint256"
        }
      ],
      "stateMutability": "view",
      "type": "function"
    },
    {
      "inputs": [],
      "name": "DEBT_GAS_COMPENSATION",
      "outputs": [
        {
          "internalType": "uint256",
          "name": "",
          "type": "uint256"
        }
      ],
      "stateMutability": "view",
      "type": "function"
    },
    {
      "inputs": [],
      "name": "DECIMAL_PRECISION",
      "outputs": [
        {
          "internalType": "uint256",
          "name": "",
          "type": "uint256"
        }
      ],
      "stateMutability": "view",
      "type": "function"
    },
    {
      "inputs": [],
      "name": "PERCENT_DIVISOR",
      "outputs": [
        {
          "internalType": "uint256",
          "name": "",
          "type": "uint256"
        }
      ],
      "stateMutability": "view",
      "type": "function"
    },
    {
      "inputs": [
        {
          "internalType": "contract ITroveManager",
          "name": "troveManager",
          "type": "address"
        },
        {
          "internalType": "address[]",
          "name": "_troveArray",
          "type": "address[]"
        }
      ],
      "name": "batchLiquidateTroves",
      "outputs": [],
      "stateMutability": "nonpayable",
      "type": "function"
    },
    {
      "inputs": [],
      "name": "borrowerOperations",
      "outputs": [
        {
          "internalType": "contract IBorrowerOperations",
          "name": "",
          "type": "address"
        }
      ],
      "stateMutability": "view",
      "type": "function"
    },
    {
      "inputs": [
        {
          "internalType": "contract ITroveManager",
          "name": "_troveManager",
          "type": "address"
        }
      ],
      "name": "enableTroveManager",
      "outputs": [],
      "stateMutability": "nonpayable",
      "type": "function"
    },
    {
      "inputs": [],
      "name": "factory",
      "outputs": [
        {
          "internalType": "address",
          "name": "",
          "type": "address"
        }
      ],
      "stateMutability": "view",
      "type": "function"
    },
    {
      "inputs": [
        {
          "internalType": "contract ITroveManager",
          "name": "troveManager",
          "type": "address"
        },
        {
          "internalType": "address",
          "name": "borrower",
          "type": "address"
        }
      ],
      "name": "liquidate",
      "outputs": [],
      "stateMutability": "nonpayable",
      "type": "function"
    },
    {
      "inputs": [
        {
          "internalType": "contract ITroveManager",
          "name": "troveManager",
          "type": "address"
        },
        {
          "internalType": "uint256",
          "name": "maxTrovesToLiquidate",
          "type": "uint256"
        },
        {
          "internalType": "uint256",
          "name": "maxICR",
          "type": "uint256"
        }
      ],
      "name": "liquidateTroves",
      "outputs": [],
      "stateMutability": "nonpayable",
      "type": "function"
    },
    {
      "inputs": [],
      "name": "stabilityPool",
      "outputs": [
        {
          "internalType": "contract IStabilityPool",
          "name": "",
          "type": "address"
        }
      ],
      "stateMutability": "view",
      "type": "function"
    }
  ],
  "bytecode": "0x6101006040523480156200001257600080fd5b50604051620024963803806200249683398101604081905262000035916200006f565b6080526001600160a01b0392831660a05290821660c0521660e052620000c9565b6001600160a01b03811681146200006c57600080fd5b50565b600080600080608085870312156200008657600080fd5b8451620000938162000056565b6020860151909450620000a68162000056565b6040860151909350620000b98162000056565b6060959095015193969295505050565b60805160a05160c05160e05161235c6200013a600039600081816101b001526101dd01526000818161014101528181610753015261113201526000818160a30152818161029d0152610dbd01526000818161010b015281816117da01528181611ad40152611cea015261235c6000f3fe608060405234801561001057600080fd5b50600436106100995760003560e01c8063048c661d1461009e57806317dd676d146100db5780634870dd9a146100f05780634ba4a28b146101065780635733d58f1461012d57806377553ad41461013c5780637b5031b2146101635780637c92590f1461017657806386b9d81f14610189578063a20baee61461019c578063c45a0155146101ab575b600080fd5b6100c57f000000000000000000000000000000000000000000000000000000000000000081565b6040516100d29190611f16565b60405180910390f35b6100ee6100e9366004611f42565b6101d2565b005b6100f860c881565b6040519081526020016100d2565b6100f87f000000000000000000000000000000000000000000000000000000000000000081565b6100f86718fae27693b4000081565b6100c57f000000000000000000000000000000000000000000000000000000000000000081565b6100ee610171366004611f5f565b610261565b6100ee610184366004611fba565b610ca6565b6100ee610197366004612093565b611606565b6100f8670de0b6b3a764000081565b6100c57f000000000000000000000000000000000000000000000000000000000000000081565b336001600160a01b037f0000000000000000000000000000000000000000000000000000000000000000161461023d5760405162461bcd60e51b815260206004820152600b60248201526a4e6f7420666163746f727960a81b60448201526064015b60405180910390fd5b6001600160a01b03166000908152602081905260409020805460ff19166001179055565b6001600160a01b03831660009081526020819052604090205460ff166102995760405162461bcd60e51b8152600401610234906120cc565b60007f00000000000000000000000000000000000000000000000000000000000000009050836001600160a01b0316636f3fe4046040518163ffffffff1660e01b8152600401600060405180830381600087803b1580156102f957600080fd5b505af115801561030d573d6000803e3d6000fd5b505050506000846001600160a01b031663ae9187546040518163ffffffff1660e01b8152600401602060405180830381865afa158015610351573d6000803e3d6000fd5b505050506040513d601f19601f8201168201806040525081019061037591906120ff565b905061037f611ea7565b610387611ea7565b61038f611ef3565b60008790506000896001600160a01b03166349eefeee6040518163ffffffff1660e01b8152600401602060405180830381865afa1580156103d4573d6000803e3d6000fd5b505050506040513d601f19601f820116820180604052508101906103f8919061211c565b9050896001600160a01b0316630fdb11cf6040518163ffffffff1660e01b81526004016020604051808303816000875af115801561043a573d6000803e3d6000fd5b505050506040513d601f19601f8201168201806040525081019061045e919061211c565b836000018181525050896001600160a01b0316639484fb8e6040518163ffffffff1660e01b8152600401602060405180830381865afa1580156104a5573d6000803e3d6000fd5b505050506040513d601f19601f820116820180604052508101906104c99190612135565b836040019015159081151581525050896001600160a01b031663794e57246040518163ffffffff1660e01b8152600401602060405180830381865afa158015610516573d6000803e3d6000fd5b505050506040513d601f19601f8201168201806040525081019061053a919061211c565b8360200181815250506000876001600160a01b0316630d9a6b356040518163ffffffff1660e01b8152600401602060405180830381865afa158015610583573d6000803e3d6000fd5b505050506040513d601f19601f820116820180604052508101906105a7919061211c565b90505b6000831180156105ba5750600182115b1561072b576000876001600160a01b0316634d6228316040518163ffffffff1660e01b8152600401602060405180830381865afa1580156105ff573d6000803e3d6000fd5b505050506040513d601f19601f8201168201806040525081019061062391906120ff565b8551604051630d293c7160e41b81529192506000916001600160a01b038f169163d293c71091610657918691600401612157565b602060405180830381865afa158015610674573d6000803e3d6000fd5b505050506040513d601f19601f82011682018060405250810190610698919061211c565b90508a8111156106ad5760009450505061072b565b670de0b6b3a764000081116106d7576106c68d8361173f565b97506106d287896118f2565b610718565b8560200151811015610711576106f38d838589604001516119d5565b97508760800151836107059190612186565b92506106d287896118f2565b505061072b565b50506000199283019291909101906105aa565b60008311801561073d57508360400151155b80156107495750600182115b15610a50576000807f00000000000000000000000000000000000000000000000000000000000000006001600160a01b031663716c53c26040518163ffffffff1660e01b815260040160408051808303816000875af11580156107b0573d6000803e3d6000fd5b505050506040513d601f19601f820116820180604052508101906107d49190612199565b875160a08a01519294509092506107ea916121bd565b6107f49083612186565b91508660800151816108069190612186565b90506000896001600160a01b0316634d6228316040518163ffffffff1660e01b8152600401602060405180830381865afa158015610848573d6000803e3d6000fd5b505050506040513d601f19601f8201168201806040525081019061086c91906120ff565b90508d5b6000871180156108805750600186115b15610a4b5760008f6001600160a01b031663d293c710848b600001516040518363ffffffff1660e01b81526004016108b9929190612157565b602060405180830381865afa1580156108d6573d6000803e3d6000fd5b505050506040513d601f19601f820116820180604052508101906108fa919061211c565b90508d81111561090a5750610a4b565b604051632dc9c0eb60e21b81526000199098019783906001600160a01b038e169063b72703ac9061093f908490600401611f16565b602060405180830381865afa15801561095c573d6000803e3d6000fd5b505050506040513d601f19601f8201168201806040525081019061098091906120ff565b9350600061098e8787611b98565b90506718fae27693b40000811015806109a75750808310155b156109b457505050610a4b565b6109c984838a8e602001518f60000151611bbe565b9c508c608001516000036109df57505050610870565b60808d01516109ee9089612186565b97508a600001518d61010001518e60a00151610a0a91906121d4565b610a1491906121bd565b610a1e9088612186565b96508c6080015186610a309190612186565b9550610a3c8c8e6118f2565b50506000199096019550610870565b505050505b6000856020015111610a745760405162461bcd60e51b8152600401610234906121e7565b600085608001511180610a8b575060008560a00151115b15610bc457876001600160a01b031663e66667338c6001600160a01b031663b2016bd46040518163ffffffff1660e01b8152600401602060405180830381865afa158015610add573d6000803e3d6000fd5b505050506040513d601f19601f82011682018060405250810190610b0191906120ff565b87608001518860a001516040518463ffffffff1660e01b8152600401610b2993929190612229565b600060405180830381600087803b158015610b4357600080fd5b505af1158015610b57573d6000803e3d6000fd5b505050608086015160a0870151604051633a461b2560e21b81526001600160a01b038f16935063e9186c9492610b91928d92600401612229565b600060405180830381600087803b158015610bab57600080fd5b505af1158015610bbf573d6000803e3d6000fd5b505050505b8a6001600160a01b031663ea23a27a338760c001518860e001518961010001518a606001518b604001516040518763ffffffff1660e01b8152600401610c0f9695949392919061224a565b600060405180830381600087803b158015610c2957600080fd5b505af1158015610c3d573d6000803e3d6000fd5b5050506020860151610100870151604088015188516000805160206123078339815191529450610c6d9190612186565b610c779190612186565b87604001518860600151604051610c91949392919061227d565b60405180910390a15050505050505050505050565b6001600160a01b03821660009081526020819052604090205460ff16610cde5760405162461bcd60e51b8152600401610234906120cc565b8051600003610d4e5760405162461bcd60e51b815260206004820152603660248201527f54726f76654d616e616765723a2043616c6c646174612061646472657373206160448201527572726179206d757374206e6f7420626520656d70747960501b6064820152608401610234565b816001600160a01b0316636f3fe4046040518163ffffffff1660e01b8152600401600060405180830381600087803b158015610d8957600080fd5b505af1158015610d9d573d6000803e3d6000fd5b50505050610da9611ea7565b610db1611ea7565b610db9611ef3565b60007f000000000000000000000000000000000000000000000000000000000000000090506000816001600160a01b0316630d9a6b356040518163ffffffff1660e01b8152600401602060405180830381865afa158015610e1e573d6000803e3d6000fd5b505050506040513d601f19601f82011682018060405250810190610e42919061211c565b9050866001600160a01b0316630fdb11cf6040518163ffffffff1660e01b81526004016020604051808303816000875af1158015610e84573d6000803e3d6000fd5b505050506040513d601f19601f82011682018060405250810190610ea8919061211c565b836000018181525050866001600160a01b0316639484fb8e6040518163ffffffff1660e01b8152600401602060405180830381865afa158015610eef573d6000803e3d6000fd5b505050506040513d601f19601f82011682018060405250810190610f139190612135565b836040019015159081151581525050866001600160a01b031663794e57246040518163ffffffff1660e01b8152600401602060405180830381865afa158015610f60573d6000803e3d6000fd5b505050506040513d601f19601f82011682018060405250810190610f84919061211c565b8360200181815250506000876001600160a01b03166349eefeee6040518163ffffffff1660e01b8152600401602060405180830381865afa158015610fcd573d6000803e3d6000fd5b505050506040513d601f19601f82011682018060405250810190610ff1919061211c565b875190915060005b81811080156110085750600183115b1561111957600089828151811061102157611021612298565b6020026020010151905060008b6001600160a01b031663d293c710838a600001516040518363ffffffff1660e01b815260040161105f929190612157565b602060405180830381865afa15801561107c573d6000803e3d6000fd5b505050506040513d601f19601f820116820180604052508101906110a0919061211c565b9050670de0b6b3a764000081116110c2576110bb8c8361173f565b99506110fe565b87602001518110156110f7576110de8c83888b604001516119d5565b99508960800151866110f09190612186565b95506110fe565b5050611119565b611108898b6118f2565b505060001990920191600101610ff9565b81811080156111285750600183115b156113b1576000807f00000000000000000000000000000000000000000000000000000000000000006001600160a01b031663716c53c26040518163ffffffff1660e01b815260040160408051808303816000875af115801561118f573d6000803e3d6000fd5b505050506040513d601f19601f820116820180604052508101906111b39190612199565b895160a08c01519294509092506111c9916121bd565b6111d39083612186565b91508860800151816111e59190612186565b90505b83831080156111f75750600185115b156113ae5760008b848151811061121057611210612298565b6020026020010151905060008d6001600160a01b031663d293c710838c600001516040518363ffffffff1660e01b815260040161124e929190612157565b602060405180830381865afa15801561126b573d6000803e3d6000fd5b505050506040513d601f19601f8201168201806040525081019061128f919061211c565b9050846001019450670de0b6b3a764000081116112b7576112b08e8361173f565b9b50611343565b89602001518110156112d3576112b08e838a8d604001516119d5565b8960400151156112e45750506111e8565b60006112f08585611b98565b90506718fae27693b40000811015806113095750808210155b15611316575050506111e8565b61132b8f848b8e602001518f60000151611bbe565b9c508c60800151600003611341575050506111e8565b505b60808c01516113529089612186565b975089600001518c61010001518d60a0015161136e91906121d4565b61137891906121bd565b6113829085612186565b93508b60800151836113949190612186565b92506113a08b8d6118f2565b5050600019909401936111e8565b50505b60008760200151116113d55760405162461bcd60e51b8152600401610234906121e7565b6000876080015111806113ec575060008760a00151115b1561152557846001600160a01b031663e66667338b6001600160a01b031663b2016bd46040518163ffffffff1660e01b8152600401602060405180830381865afa15801561143e573d6000803e3d6000fd5b505050506040513d601f19601f8201168201806040525081019061146291906120ff565b89608001518a60a001516040518463ffffffff1660e01b815260040161148a93929190612229565b600060405180830381600087803b1580156114a457600080fd5b505af11580156114b8573d6000803e3d6000fd5b505050608088015160a0890151604051633a461b2560e21b81526001600160a01b038e16935063e9186c94926114f2928a92600401612229565b600060405180830381600087803b15801561150c57600080fd5b505af1158015611520573d6000803e3d6000fd5b505050505b896001600160a01b031663ea23a27a338960c001518a60e001518b61010001518c606001518d604001516040518763ffffffff1660e01b81526004016115709695949392919061224a565b600060405180830381600087803b15801561158a57600080fd5b505af115801561159e573d6000803e3d6000fd5b505050602088015161010089015160408a01518a5160008051602061230783398151915294506115ce9190612186565b6115d89190612186565b89604001518a606001516040516115f2949392919061227d565b60405180910390a150505050505050505050565b6040516321e3780160e01b81526001600160a01b038316906321e3780190611632908490600401611f16565b602060405180830381865afa15801561164f573d6000803e3d6000fd5b505050506040513d601f19601f82011682018060405250810190611673919061211c565b6001146116da5760405162461bcd60e51b815260206004820152602f60248201527f54726f76654d616e616765723a2054726f766520646f6573206e6f742065786960448201526e1cdd081bdc881a5cc818db1bdcd959608a1b6064820152608401610234565b60408051600180825281830190925260009160208083019080368337019050509050818160008151811061171057611710612298565b60200260200101906001600160a01b031690816001600160a01b03168152505061173a8382610ca6565b505050565b611747611ea7565b600080846001600160a01b031663b91af97c856040518263ffffffff1660e01b81526004016117769190611f16565b608060405180830381865afa158015611793573d6000803e3d6000fd5b505050506040513d601f19601f820116820180604052508101906117b791906122ae565b6020870183905292865293509091506117cf90611e11565b6040848101919091527f000000000000000000000000000000000000000000000000000000000000000060608501525163eb3007fd60e01b815260048101839052602481018290526001600160a01b0386169063eb3007fd90604401600060405180830381600087803b15801561184557600080fd5b505af1158015611859573d6000803e3d6000fd5b505060006080860181905260a08601525050825160c0840152604083015160208401516118869190612186565b60e08401526040516325019ee960e01b81526001600160a01b038616906325019ee9906118b7908790600401611f16565b600060405180830381600087803b1580156118d157600080fd5b505af11580156118e5573d6000803e3d6000fd5b5050505050505b92915050565b8060400151826040015161190691906121d4565b60408301526060808201519083015161191f91906121d4565b60608301528051602083015161193591906121d4565b602080840191909152810151825161194d91906121d4565b82526080808201519083015161196391906121d4565b608083015260a0808201519083015161197c91906121d4565b60a083015260c0808201519083015161199591906121d4565b60c083015260e080820151908301516119ae91906121d4565b60e083015261010080820151908301516119c891906121d4565b6101009092019190915250565b6119dd611ea7565b600080866001600160a01b031663b91af97c876040518263ffffffff1660e01b8152600401611a0c9190611f16565b608060405180830381865afa158015611a29573d6000803e3d6000fd5b505050506040513d601f19601f82011682018060405250810190611a4d91906122ae565b602087019290925291855260405163eb3007fd60e01b8152600481018390526024810182905291935091506001600160a01b0388169063eb3007fd90604401600060405180830381600087803b158015611aa657600080fd5b505af1158015611aba573d6000803e3d6000fd5b50505050611acb8360200151611e11565b604084018190527f000000000000000000000000000000000000000000000000000000000000000060608501526020840151600091611b0991612186565b9050611b1b8460000151828888611e1e565b60e088015260c087015260a086015260808501526040516325019ee960e01b81526001600160a01b038916906325019ee990611b5b908a90600401611f16565b600060405180830381600087803b158015611b7557600080fd5b505af1158015611b89573d6000803e3d6000fd5b50505050505050949350505050565b60008115611bb5576000611bac83856122e4565b91506118ec9050565b506000196118ec565b611bc6611ea7565b600080600080896001600160a01b031663b91af97c8a6040518263ffffffff1660e01b8152600401611bf89190611f16565b608060405180830381865afa158015611c15573d6000803e3d6000fd5b505050506040513d601f19601f82011682018060405250810190611c3991906122ae565b9296509094509250905087841115611c545750505050611e08565b60405163eb3007fd60e01b815260048101839052602481018290526001600160a01b038b169063eb3007fd90604401600060405180830381600087803b158015611c9d57600080fd5b505af1158015611cb1573d6000803e3d6000fd5b5050508486525060208501839052600086611ccc89876121bd565b611cd691906122e4565b9050611ce181611e11565b604087018190527f0000000000000000000000000000000000000000000000000000000000000000606088015260808701869052611d1f9082612186565b60a08701526040516325019ee960e01b81526001600160a01b038c16906325019ee990611d50908d90600401611f16565b600060405180830381600087803b158015611d6a57600080fd5b505af1158015611d7e573d6000803e3d6000fd5b5050505060008185611d909190612186565b90508015611e0157610100870181905260405163789c6b9360e01b81526001600160a01b038d169063789c6b9390611dce908e908590600401612157565b600060405180830381600087803b158015611de857600080fd5b505af1158015611dfc573d6000803e3d6000fd5b505050505b5050505050505b95945050505050565b60006118ec60c8836122e4565b600080600080600086118015611e32575084155b15611e7757611e418887611e8f565b935087611e4e85896121bd565b611e5891906122e4565b9250611e648489612186565b9150611e708388612186565b9050611e84565b5060009250829150869050855b945094509450949050565b6000818310611e9e5781611ea0565b825b9392505050565b6040518061012001604052806000815260200160008152602001600081526020016000815260200160008152602001600081526020016000815260200160008152602001600081525090565b604051806060016040528060008152602001600081526020016000151581525090565b6001600160a01b0391909116815260200190565b6001600160a01b0381168114611f3f57600080fd5b50565b600060208284031215611f5457600080fd5b8135611ea081611f2a565b600080600060608486031215611f7457600080fd5b8335611f7f81611f2a565b95602085013595506040909401359392505050565b634e487b7160e01b600052604160045260246000fd5b8035611fb581611f2a565b919050565b60008060408385031215611fcd57600080fd5b8235611fd881611f2a565b91506020838101356001600160401b0380821115611ff557600080fd5b818601915086601f83011261200957600080fd5b81358181111561201b5761201b611f94565b8060051b604051601f19603f8301168101818110858211171561204057612040611f94565b60405291825284820192508381018501918983111561205e57600080fd5b938501935b828510156120835761207485611faa565b84529385019392850192612063565b8096505050505050509250929050565b600080604083850312156120a657600080fd5b82356120b181611f2a565b915060208301356120c181611f2a565b809150509250929050565b602080825260199082015278151c9bdd9953585b9859d95c881b9bdd08185c1c1c9bdd9959603a1b604082015260600190565b60006020828403121561211157600080fd5b8151611ea081611f2a565b60006020828403121561212e57600080fd5b5051919050565b60006020828403121561214757600080fd5b81518015158114611ea057600080fd5b6001600160a01b03929092168252602082015260400190565b634e487b7160e01b600052601160045260246000fd5b818103818111156118ec576118ec612170565b600080604083850312156121ac57600080fd5b505080516020909101519092909150565b80820281158282048414176118ec576118ec612170565b808201808211156118ec576118ec612170565b60208082526022908201527f54726f76654d616e616765723a206e6f7468696e6720746f206c697175696461604082015261746560f01b606082015260800190565b6001600160a01b039390931683526020830191909152604082015260600190565b6001600160a01b03969096168652602086019490945260408501929092526060840152608083015260a082015260c00190565b93845260208401929092526040830152606082015260800190565b634e487b7160e01b600052603260045260246000fd5b600080600080608085870312156122c457600080fd5b505082516020840151604085015160609095015191969095509092509050565b60008261230157634e487b7160e01b600052601260045260246000fd5b50049056fe4152c73dd2614c4f9fc35e8c9cf16013cd588c75b49a4c1673ecffdcbcda9403a26469706673582212203a92011f0d565607763fae7aabe455624ea4d62b010ca340e66120860068fd3464736f6c63430008160033",
  "linkReferences": {},
  "deployedLinkReferences": {}
}