{
  "_format": "hh-sol-artifact-1",
  "contractName": "BoostCalculator",
  "sourceName": "contracts/dao/BoostCalculator.sol",
  "abi": [
    {
      "inputs": [
        {
          "internalType": "address",
          "name": "_vineCore",
          "type": "address"
        },
        {
          "internalType": "contract ITokenLocker",
          "name": "_locker",
          "type": "address"
        },
        {
          "internalType": "uint256",
          "name": "_graceWeeks",
          "type": "uint256"
        }
      ],
      "stateMutability": "nonpayable",
      "type": "constructor"
    },
    {
      "inputs": [],
      "name": "MAX_BOOST_GRACE_WEEKS",
      "outputs": [
        {
          "internalType": "uint256",
          "name": "",
          "type": "uint256"
        }
      ],
      "stateMutability": "view",
      "type": "function"
    },
    {
      "inputs": [
        {
          "internalType": "address",
          "name": "account",
          "type": "address"
        },
        {
          "internalType": "uint256",
          "name": "amount",
          "type": "uint256"
        },
        {
          "internalType": "uint256",
          "name": "previousAmount",
          "type": "uint256"
        },
        {
          "internalType": "uint256",
          "name": "totalWeeklyEmissions",
          "type": "uint256"
        }
      ],
      "name": "getBoostedAmount",
      "outputs": [
        {
          "internalType": "uint256",
          "name": "adjustedAmount",
          "type": "uint256"
        }
      ],
      "stateMutability": "view",
      "type": "function"
    },
    {
      "inputs": [
        {
          "internalType": "address",
          "name": "account",
          "type": "address"
        },
        {
          "internalType": "uint256",
          "name": "amount",
          "type": "uint256"
        },
        {
          "internalType": "uint256",
          "name": "previousAmount",
          "type": "uint256"
        },
        {
          "internalType": "uint256",
          "name": "totalWeeklyEmissions",
          "type": "uint256"
        }
      ],
      "name": "getBoostedAmountWrite",
      "outputs": [
        {
          "internalType": "uint256",
          "name": "adjustedAmount",
          "type": "uint256"
        }
      ],
      "stateMutability": "nonpayable",
      "type": "function"
    },
    {
      "inputs": [
        {
          "internalType": "address",
          "name": "claimant",
          "type": "address"
        },
        {
          "internalType": "uint256",
          "name": "previousAmount",
          "type": "uint256"
        },
        {
          "internalType": "uint256",
          "name": "totalWeeklyEmissions",
          "type": "uint256"
        }
      ],
      "name": "getClaimableWithBoost",
      "outputs": [
        {
          "internalType": "uint256",
          "name": "maxBoosted",
          "type": "uint256"
        },
        {
          "internalType": "uint256",
          "name": "boosted",
          "type": "uint256"
        }
      ],
      "stateMutability": "view",
      "type": "function"
    },
    {
      "inputs": [],
      "name": "getWeek",
      "outputs": [
        {
          "internalType": "uint256",
          "name": "week",
          "type": "uint256"
        }
      ],
      "stateMutability": "view",
      "type": "function"
    },
    {
      "inputs": [],
      "name": "locker",
      "outputs": [
        {
          "internalType": "contract ITokenLocker",
          "name": "",
          "type": "address"
        }
      ],
      "stateMutability": "view",
      "type": "function"
    }
  ],
  "bytecode": "0x60e06040523480156200001157600080fd5b5060405162000e3238038062000e32833981016040819052620000349162000160565b82806001600160a01b03166378e979256040518163ffffffff1660e01b8152600401602060405180830381865afa15801562000074573d6000803e3d6000fd5b505050506040513d601f19601f820116820180604052508101906200009a9190620001a8565b6080525080620000f05760405162461bcd60e51b815260206004820152601760248201527f4772616365207765656b732063616e6e6f742062652030000000000000000000604482015260640160405180910390fd5b6001600160a01b03821660a0526200010762000120565b620001139082620001d8565b60c052506200022d915050565b600062093a8060805142620001369190620001f4565b6200014291906200020a565b905090565b6001600160a01b03811681146200015d57600080fd5b50565b6000806000606084860312156200017657600080fd5b8351620001838162000147565b6020850151909350620001968162000147565b80925050604084015190509250925092565b600060208284031215620001bb57600080fd5b5051919050565b634e487b7160e01b600052601160045260246000fd5b80820180821115620001ee57620001ee620001c2565b92915050565b81810381811115620001ee57620001ee620001c2565b6000826200022857634e487b7160e01b600052601260045260246000fd5b500490565b60805160a05160c051610b986200029a6000396000818160cd0152818161014701528181610378015261053501526000818160fc0152818161019701528181610248015281816103b8015281816104690152818161062301526106fe0152600061081b0152610b986000f3fe608060405234801561001057600080fd5b50600436106100625760003560e01c8063423b1fe31461006757806349955f6314610094578063609d1210146100b55780636254ee21146100c8578063874d6d81146100ef578063d7b96d4e146100f7575b600080fd5b61007a610075366004610a33565b610136565b604080519283526020830191909152015b60405180910390f35b6100a76100a2366004610a66565b610369565b60405190815260200161008b565b6100a76100c3366004610a66565b610526565b6100a77f000000000000000000000000000000000000000000000000000000000000000081565b6100a7610810565b61011e7f000000000000000000000000000000000000000000000000000000000000000081565b6040516001600160a01b03909116815260200161008b565b6000806000610143610810565b90507f00000000000000000000000000000000000000000000000000000000000000008110156101865760006101798686610ab5565b9350839250610361915050565b610191600182610ab5565b905060007f00000000000000000000000000000000000000000000000000000000000000006001600160a01b03166307f93a3888846040518363ffffffff1660e01b81526004016101e3929190610ace565b602060405180830381865afa158015610200573d6000803e3d6000fd5b505050506040513d601f19601f820116820180604052508101906102249190610ae7565b6040516350735f6f60e01b8152600481018490529091506000906001600160a01b037f000000000000000000000000000000000000000000000000000000000000000016906350735f6f90602401602060405180830381865afa15801561028f573d6000803e3d6000fd5b505050506040513d601f19601f820116820180604052508101906102b39190610ae7565b9050806000036102c1575060015b6000816102d284633b9aca00610b00565b6102dc9190610b17565b9050806000036102f6576000809550955050505050610361565b6000633b9aca00610307838a610b00565b6103119190610b17565b90506000610320826002610b00565b9050818a1015610339576103348a83610ab5565b61033c565b60005b818b10156103535761034e8383610ab5565b610356565b60005b975097505050505050505b935093915050565b600080610374610810565b90507f00000000000000000000000000000000000000000000000000000000000000008110156103a7578491505061051e565b6103b2600182610ab5565b905060007f00000000000000000000000000000000000000000000000000000000000000006001600160a01b03166307f93a3888846040518363ffffffff1660e01b8152600401610404929190610ace565b602060405180830381865afa158015610421573d6000803e3d6000fd5b505050506040513d601f19601f820116820180604052508101906104459190610ae7565b6040516350735f6f60e01b8152600481018490529091506000906001600160a01b037f000000000000000000000000000000000000000000000000000000000000000016906350735f6f90602401602060405180830381865afa1580156104b0573d6000803e3d6000fd5b505050506040513d601f19601f820116820180604052508101906104d49190610ae7565b9050806000036104e2575060015b6000816104f384633b9aca00610b00565b6104fd9190610b17565b90508060000361050b575060015b6105178888888461084f565b9450505050505b949350505050565b600080610531610810565b90507f0000000000000000000000000000000000000000000000000000000000000000811015610564578491505061051e565b61056f600182610ab5565b6001600160a01b0387166000908152612aab60205260408120919250908261ffff811061059e5761059e610b39565b600891828204019190066004029054906101000a900463ffffffff1663ffffffff169050806000036107f9576000808361ffff81106105df576105df610b39565b600691828204019190066005029054906101000a900464ffffffffff1664ffffffffff169050806000036106e5576040516350735f6f60e01b8152600481018490527f00000000000000000000000000000000000000000000000000000000000000006001600160a01b0316906350735f6f90602401602060405180830381865afa158015610672573d6000803e3d6000fd5b505050506040513d601f19601f820116820180604052508101906106969190610ae7565b9050806000036106a4575060015b8060008461ffff81106106b9576106b9610b39565b600691828204019190066005026101000a81548164ffffffffff021916908364ffffffffff1602179055505b60405162ff274760e31b81526000906001600160a01b037f000000000000000000000000000000000000000000000000000000000000000016906307f93a3890610735908c908890600401610ace565b602060405180830381865afa158015610752573d6000803e3d6000fd5b505050506040513d601f19601f820116820180604052508101906107769190610ae7565b90508161078782633b9aca00610b00565b6107919190610b17565b9250826000036107a057600192505b6001600160a01b0389166000908152612aab6020526040902083908561ffff81106107cd576107cd610b39565b600891828204019190066004026101000a81548163ffffffff021916908363ffffffff16021790555050505b6108058686868461084f565b979650505050505050565b600062093a806108407f000000000000000000000000000000000000000000000000000000000000000042610ab5565b61084a9190610b17565b905090565b60008160010361086b57610864600286610b17565b905061051e565b60006108778587610b4f565b90506000633b9aca0061088a8587610b00565b6108949190610b17565b905060006108a3826002610b00565b90508282106108b75787935050505061051e565b8681116108d3576108c9600289610b17565b935050505061051e565b818710156108f7576108e58783610ab5565b93506108f18489610ab5565b97508196505b8083111561093857600261090b8285610ab5565b6109159190610b17565b61091f9085610b4f565b935061092b8184610ab5565b6109359089610ab5565b97505b81880361096057600461094c836003610b00565b6109569190610b17565b6108c99085610b4f565b6000600283806109708c8c610b4f565b61097a9190610ab5565b610984908c610b00565b61098e9190610b17565b6109989190610b17565b6109a2908a610ab5565b90506109ae8186610b4f565b945060006002846109bf818c610ab5565b6109c9908d610b00565b6109d39190610b17565b6109dd9190610b17565b6109e7908b610ab5565b905060026109f58383610ab5565b6109ff9190610b17565b610a099087610b4f565b9a9950505050505050505050565b80356001600160a01b0381168114610a2e57600080fd5b919050565b600080600060608486031215610a4857600080fd5b610a5184610a17565b95602085013595506040909401359392505050565b60008060008060808587031215610a7c57600080fd5b610a8585610a17565b966020860135965060408601359560600135945092505050565b634e487b7160e01b600052601160045260246000fd5b81810381811115610ac857610ac8610a9f565b92915050565b6001600160a01b03929092168252602082015260400190565b600060208284031215610af957600080fd5b5051919050565b8082028115828204841417610ac857610ac8610a9f565b600082610b3457634e487b7160e01b600052601260045260246000fd5b500490565b634e487b7160e01b600052603260045260246000fd5b80820180821115610ac857610ac8610a9f56fea26469706673582212201c09312c9d24e1c37fec7e1619cbd02f978325eb917034e731d9fb5bb7a9b69364736f6c63430008160033",
  "linkReferences": {},
  "deployedLinkReferences": {}
}