{
  "_format": "hh-sol-artifact-1",
  "contractName": "TroveManager",
  "sourceName": "contracts/core/TroveManager.sol",
  "abi": [
    {
      "inputs": [
        {
          "internalType": "address",
          "name": "_vineCore",
          "type": "address"
        },
        {
          "internalType": "address",
          "name": "_gasPoolAddress",
          "type": "address"
        },
        {
          "internalType": "address",
          "name": "_debtTokenAddress",
          "type": "address"
        },
        {
          "internalType": "address",
          "name": "_borrowerOperationsAddress",
          "type": "address"
        },
        {
          "internalType": "address",
          "name": "_vault",
          "type": "address"
        },
        {
          "internalType": "address",
          "name": "_liquidationManager",
          "type": "address"
        },
        {
          "internalType": "uint256",
          "name": "_gasCompensation",
          "type": "uint256"
        }
      ],
      "stateMutability": "nonpayable",
      "type": "constructor"
    },
    {
      "inputs": [
        {
          "internalType": "address",
          "name": "target",
          "type": "address"
        }
      ],
      "name": "AddressEmptyCode",
      "type": "error"
    },
    {
      "inputs": [
        {
          "internalType": "address",
          "name": "account",
          "type": "address"
        }
      ],
      "name": "AddressInsufficientBalance",
      "type": "error"
    },
    {
      "inputs": [],
      "name": "FailedInnerCall",
      "type": "error"
    },
    {
      "inputs": [],
      "name": "MathOverflowedMulDiv",
      "type": "error"
    },
    {
      "inputs": [
        {
          "internalType": "address",
          "name": "token",
          "type": "address"
        }
      ],
      "name": "SafeERC20FailedOperation",
      "type": "error"
    },
    {
      "anonymous": false,
      "inputs": [
        {
          "indexed": false,
          "internalType": "uint256",
          "name": "_baseRate",
          "type": "uint256"
        }
      ],
      "name": "BaseRateUpdated",
      "type": "event"
    },
    {
      "anonymous": false,
      "inputs": [
        {
          "indexed": false,
          "internalType": "address",
          "name": "_to",
          "type": "address"
        },
        {
          "indexed": false,
          "internalType": "uint256",
          "name": "_amount",
          "type": "uint256"
        }
      ],
      "name": "CollateralSent",
      "type": "event"
    },
    {
      "anonymous": false,
      "inputs": [
        {
          "indexed": false,
          "internalType": "uint256",
          "name": "_L_collateral",
          "type": "uint256"
        },
        {
          "indexed": false,
          "internalType": "uint256",
          "name": "_L_debt",
          "type": "uint256"
        }
      ],
      "name": "LTermsUpdated",
      "type": "event"
    },
    {
      "anonymous": false,
      "inputs": [
        {
          "indexed": false,
          "internalType": "uint256",
          "name": "_lastFeeOpTime",
          "type": "uint256"
        }
      ],
      "name": "LastFeeOpTimeUpdated",
      "type": "event"
    },
    {
      "anonymous": false,
      "inputs": [
        {
          "indexed": false,
          "internalType": "uint256",
          "name": "_attemptedDebtAmount",
          "type": "uint256"
        },
        {
          "indexed": false,
          "internalType": "uint256",
          "name": "_actualDebtAmount",
          "type": "uint256"
        },
        {
          "indexed": false,
          "internalType": "uint256",
          "name": "_collateralSent",
          "type": "uint256"
        },
        {
          "indexed": false,
          "internalType": "uint256",
          "name": "_collateralFee",
          "type": "uint256"
        }
      ],
      "name": "Redemption",
      "type": "event"
    },
    {
      "anonymous": false,
      "inputs": [
        {
          "indexed": true,
          "internalType": "address",
          "name": "account",
          "type": "address"
        },
        {
          "indexed": true,
          "internalType": "address",
          "name": "recipient",
          "type": "address"
        },
        {
          "indexed": false,
          "internalType": "uint256",
          "name": "claimed",
          "type": "uint256"
        }
      ],
      "name": "RewardClaimed",
      "type": "event"
    },
    {
      "anonymous": false,
      "inputs": [
        {
          "indexed": false,
          "internalType": "uint256",
          "name": "_totalStakesSnapshot",
          "type": "uint256"
        },
        {
          "indexed": false,
          "internalType": "uint256",
          "name": "_totalCollateralSnapshot",
          "type": "uint256"
        }
      ],
      "name": "SystemSnapshotsUpdated",
      "type": "event"
    },
    {
      "anonymous": false,
      "inputs": [
        {
          "indexed": false,
          "internalType": "uint256",
          "name": "_newTotalStakes",
          "type": "uint256"
        }
      ],
      "name": "TotalStakesUpdated",
      "type": "event"
    },
    {
      "anonymous": false,
      "inputs": [
        {
          "indexed": false,
          "internalType": "address",
          "name": "_borrower",
          "type": "address"
        },
        {
          "indexed": false,
          "internalType": "uint256",
          "name": "_newIndex",
          "type": "uint256"
        }
      ],
      "name": "TroveIndexUpdated",
      "type": "event"
    },
    {
      "anonymous": false,
      "inputs": [
        {
          "indexed": false,
          "internalType": "uint256",
          "name": "_L_collateral",
          "type": "uint256"
        },
        {
          "indexed": false,
          "internalType": "uint256",
          "name": "_L_debt",
          "type": "uint256"
        }
      ],
      "name": "TroveSnapshotsUpdated",
      "type": "event"
    },
    {
      "anonymous": false,
      "inputs": [
        {
          "indexed": true,
          "internalType": "address",
          "name": "_borrower",
          "type": "address"
        },
        {
          "indexed": false,
          "internalType": "uint256",
          "name": "_debt",
          "type": "uint256"
        },
        {
          "indexed": false,
          "internalType": "uint256",
          "name": "_coll",
          "type": "uint256"
        },
        {
          "indexed": false,
          "internalType": "uint256",
          "name": "_stake",
          "type": "uint256"
        },
        {
          "indexed": false,
          "internalType": "enum TroveManager.TroveManagerOperation",
          "name": "_operation",
          "type": "uint8"
        }
      ],
      "name": "TroveUpdated",
      "type": "event"
    },
    {
      "inputs": [],
      "name": "BOOTSTRAP_PERIOD",
      "outputs": [
        {
          "internalType": "uint256",
          "name": "",
          "type": "uint256"
        }
      ],
      "stateMutability": "view",
      "type": "function"
    },
    {
      "inputs": [],
      "name": "CCR",
      "outputs": [
        {
          "internalType": "uint256",
          "name": "",
          "type": "uint256"
        }
      ],
      "stateMutability": "view",
      "type": "function"
    },
    {
      "inputs": [],
      "name": "DEBT_GAS_COMPENSATION",
      "outputs": [
        {
          "internalType": "uint256",
          "name": "",
          "type": "uint256"
        }
      ],
      "stateMutability": "view",
      "type": "function"
    },
    {
      "inputs": [],
      "name": "DECIMAL_PRECISION",
      "outputs": [
        {
          "internalType": "uint256",
          "name": "",
          "type": "uint256"
        }
      ],
      "stateMutability": "view",
      "type": "function"
    },
    {
      "inputs": [],
      "name": "L_collateral",
      "outputs": [
        {
          "internalType": "uint256",
          "name": "",
          "type": "uint256"
        }
      ],
      "stateMutability": "view",
      "type": "function"
    },
    {
      "inputs": [],
      "name": "L_debt",
      "outputs": [
        {
          "internalType": "uint256",
          "name": "",
          "type": "uint256"
        }
      ],
      "stateMutability": "view",
      "type": "function"
    },
    {
      "inputs": [],
      "name": "MAX_INTEREST_RATE_IN_BPS",
      "outputs": [
        {
          "internalType": "uint256",
          "name": "",
          "type": "uint256"
        }
      ],
      "stateMutability": "view",
      "type": "function"
    },
    {
      "inputs": [],
      "name": "MCR",
      "outputs": [
        {
          "internalType": "uint256",
          "name": "",
          "type": "uint256"
        }
      ],
      "stateMutability": "view",
      "type": "function"
    },
    {
      "inputs": [],
      "name": "PERCENT_DIVISOR",
      "outputs": [
        {
          "internalType": "uint256",
          "name": "",
          "type": "uint256"
        }
      ],
      "stateMutability": "view",
      "type": "function"
    },
    {
      "inputs": [],
      "name": "SUNSETTING_INTEREST_RATE",
      "outputs": [
        {
          "internalType": "uint256",
          "name": "",
          "type": "uint256"
        }
      ],
      "stateMutability": "view",
      "type": "function"
    },
    {
      "inputs": [],
      "name": "VINE_CORE",
      "outputs": [
        {
          "internalType": "contract IVineCore",
          "name": "",
          "type": "address"
        }
      ],
      "stateMutability": "view",
      "type": "function"
    },
    {
      "inputs": [
        {
          "internalType": "address",
          "name": "",
          "type": "address"
        }
      ],
      "name": "accountLatestMint",
      "outputs": [
        {
          "internalType": "uint32",
          "name": "amount",
          "type": "uint32"
        },
        {
          "internalType": "uint32",
          "name": "week",
          "type": "uint32"
        },
        {
          "internalType": "uint32",
          "name": "day",
          "type": "uint32"
        }
      ],
      "stateMutability": "view",
      "type": "function"
    },
    {
      "inputs": [],
      "name": "activeInterestIndex",
      "outputs": [
        {
          "internalType": "uint256",
          "name": "",
          "type": "uint256"
        }
      ],
      "stateMutability": "view",
      "type": "function"
    },
    {
      "inputs": [
        {
          "internalType": "address",
          "name": "borrower",
          "type": "address"
        },
        {
          "internalType": "uint256",
          "name": "collSurplus",
          "type": "uint256"
        }
      ],
      "name": "addCollateralSurplus",
      "outputs": [],
      "stateMutability": "nonpayable",
      "type": "function"
    },
    {
      "inputs": [
        {
          "internalType": "address",
          "name": "_borrower",
          "type": "address"
        }
      ],
      "name": "applyPendingRewards",
      "outputs": [
        {
          "internalType": "uint256",
          "name": "coll",
          "type": "uint256"
        },
        {
          "internalType": "uint256",
          "name": "debt",
          "type": "uint256"
        }
      ],
      "stateMutability": "nonpayable",
      "type": "function"
    },
    {
      "inputs": [],
      "name": "baseRate",
      "outputs": [
        {
          "internalType": "uint256",
          "name": "",
          "type": "uint256"
        }
      ],
      "stateMutability": "view",
      "type": "function"
    },
    {
      "inputs": [],
      "name": "borrowerOperationsAddress",
      "outputs": [
        {
          "internalType": "address",
          "name": "",
          "type": "address"
        }
      ],
      "stateMutability": "view",
      "type": "function"
    },
    {
      "inputs": [],
      "name": "borrowingFeeFloor",
      "outputs": [
        {
          "internalType": "uint256",
          "name": "",
          "type": "uint256"
        }
      ],
      "stateMutability": "view",
      "type": "function"
    },
    {
      "inputs": [
        {
          "internalType": "address",
          "name": "_receiver",
          "type": "address"
        }
      ],
      "name": "claimCollateral",
      "outputs": [],
      "stateMutability": "nonpayable",
      "type": "function"
    },
    {
      "inputs": [
        {
          "internalType": "address",
          "name": "receiver",
          "type": "address"
        }
      ],
      "name": "claimReward",
      "outputs": [
        {
          "internalType": "uint256",
          "name": "",
          "type": "uint256"
        }
      ],
      "stateMutability": "nonpayable",
      "type": "function"
    },
    {
      "inputs": [
        {
          "internalType": "address",
          "name": "account",
          "type": "address"
        }
      ],
      "name": "claimableReward",
      "outputs": [
        {
          "internalType": "uint256",
          "name": "",
          "type": "uint256"
        }
      ],
      "stateMutability": "view",
      "type": "function"
    },
    {
      "inputs": [
        {
          "internalType": "address",
          "name": "_borrower",
          "type": "address"
        },
        {
          "internalType": "address",
          "name": "_receiver",
          "type": "address"
        },
        {
          "internalType": "uint256",
          "name": "collAmount",
          "type": "uint256"
        },
        {
          "internalType": "uint256",
          "name": "debtAmount",
          "type": "uint256"
        }
      ],
      "name": "closeTrove",
      "outputs": [],
      "stateMutability": "nonpayable",
      "type": "function"
    },
    {
      "inputs": [
        {
          "internalType": "address",
          "name": "_borrower",
          "type": "address"
        }
      ],
      "name": "closeTroveByLiquidation",
      "outputs": [],
      "stateMutability": "nonpayable",
      "type": "function"
    },
    {
      "inputs": [],
      "name": "collateralToken",
      "outputs": [
        {
          "internalType": "contract IERC20",
          "name": "",
          "type": "address"
        }
      ],
      "stateMutability": "view",
      "type": "function"
    },
    {
      "inputs": [],
      "name": "collectInterests",
      "outputs": [],
      "stateMutability": "nonpayable",
      "type": "function"
    },
    {
      "inputs": [
        {
          "internalType": "uint256",
          "name": "",
          "type": "uint256"
        }
      ],
      "name": "dailyMintReward",
      "outputs": [
        {
          "internalType": "uint256",
          "name": "",
          "type": "uint256"
        }
      ],
      "stateMutability": "view",
      "type": "function"
    },
    {
      "inputs": [],
      "name": "debtToken",
      "outputs": [
        {
          "internalType": "contract IDebtToken",
          "name": "",
          "type": "address"
        }
      ],
      "stateMutability": "view",
      "type": "function"
    },
    {
      "inputs": [
        {
          "internalType": "uint256",
          "name": "_debt",
          "type": "uint256"
        }
      ],
      "name": "decayBaseRateAndGetBorrowingFee",
      "outputs": [
        {
          "internalType": "uint256",
          "name": "",
          "type": "uint256"
        }
      ],
      "stateMutability": "nonpayable",
      "type": "function"
    },
    {
      "inputs": [
        {
          "internalType": "address",
          "name": "account",
          "type": "address"
        },
        {
          "internalType": "uint256",
          "name": "debt",
          "type": "uint256"
        },
        {
          "internalType": "uint256",
          "name": "coll",
          "type": "uint256"
        }
      ],
      "name": "decreaseDebtAndSendCollateral",
      "outputs": [],
      "stateMutability": "nonpayable",
      "type": "function"
    },
    {
      "inputs": [],
      "name": "defaultedCollateral",
      "outputs": [
        {
          "internalType": "uint256",
          "name": "",
          "type": "uint256"
        }
      ],
      "stateMutability": "view",
      "type": "function"
    },
    {
      "inputs": [],
      "name": "defaultedDebt",
      "outputs": [
        {
          "internalType": "uint256",
          "name": "",
          "type": "uint256"
        }
      ],
      "stateMutability": "view",
      "type": "function"
    },
    {
      "inputs": [],
      "name": "emissionId",
      "outputs": [
        {
          "internalType": "uint16",
          "name": "debt",
          "type": "uint16"
        },
        {
          "internalType": "uint16",
          "name": "minting",
          "type": "uint16"
        }
      ],
      "stateMutability": "view",
      "type": "function"
    },
    {
      "inputs": [],
      "name": "fetchPrice",
      "outputs": [
        {
          "internalType": "uint256",
          "name": "",
          "type": "uint256"
        }
      ],
      "stateMutability": "nonpayable",
      "type": "function"
    },
    {
      "inputs": [
        {
          "internalType": "address",
          "name": "_liquidator",
          "type": "address"
        },
        {
          "internalType": "uint256",
          "name": "_debt",
          "type": "uint256"
        },
        {
          "internalType": "uint256",
          "name": "_coll",
          "type": "uint256"
        },
        {
          "internalType": "uint256",
          "name": "_collSurplus",
          "type": "uint256"
        },
        {
          "internalType": "uint256",
          "name": "_debtGasComp",
          "type": "uint256"
        },
        {
          "internalType": "uint256",
          "name": "_collGasComp",
          "type": "uint256"
        }
      ],
      "name": "finalizeLiquidation",
      "outputs": [],
      "stateMutability": "nonpayable",
      "type": "function"
    },
    {
      "inputs": [
        {
          "internalType": "uint256",
          "name": "_debt",
          "type": "uint256"
        }
      ],
      "name": "getBorrowingFee",
      "outputs": [
        {
          "internalType": "uint256",
          "name": "",
          "type": "uint256"
        }
      ],
      "stateMutability": "view",
      "type": "function"
    },
    {
      "inputs": [
        {
          "internalType": "uint256",
          "name": "_debt",
          "type": "uint256"
        }
      ],
      "name": "getBorrowingFeeWithDecay",
      "outputs": [
        {
          "internalType": "uint256",
          "name": "",
          "type": "uint256"
        }
      ],
      "stateMutability": "view",
      "type": "function"
    },
    {
      "inputs": [],
      "name": "getBorrowingRate",
      "outputs": [
        {
          "internalType": "uint256",
          "name": "",
          "type": "uint256"
        }
      ],
      "stateMutability": "view",
      "type": "function"
    },
    {
      "inputs": [],
      "name": "getBorrowingRateWithDecay",
      "outputs": [
        {
          "internalType": "uint256",
          "name": "",
          "type": "uint256"
        }
      ],
      "stateMutability": "view",
      "type": "function"
    },
    {
      "inputs": [
        {
          "internalType": "address",
          "name": "_borrower",
          "type": "address"
        },
        {
          "internalType": "uint256",
          "name": "_price",
          "type": "uint256"
        }
      ],
      "name": "getCurrentICR",
      "outputs": [
        {
          "internalType": "uint256",
          "name": "",
          "type": "uint256"
        }
      ],
      "stateMutability": "view",
      "type": "function"
    },
    {
      "inputs": [
        {
          "internalType": "address",
          "name": "_borrower",
          "type": "address"
        }
      ],
      "name": "getEntireDebtAndColl",
      "outputs": [
        {
          "internalType": "uint256",
          "name": "debt",
          "type": "uint256"
        },
        {
          "internalType": "uint256",
          "name": "coll",
          "type": "uint256"
        },
        {
          "internalType": "uint256",
          "name": "pendingDebtReward",
          "type": "uint256"
        },
        {
          "internalType": "uint256",
          "name": "pendingCollateralReward",
          "type": "uint256"
        }
      ],
      "stateMutability": "view",
      "type": "function"
    },
    {
      "inputs": [],
      "name": "getEntireSystemBalances",
      "outputs": [
        {
          "internalType": "uint256",
          "name": "",
          "type": "uint256"
        },
        {
          "internalType": "uint256",
          "name": "",
          "type": "uint256"
        },
        {
          "internalType": "uint256",
          "name": "",
          "type": "uint256"
        }
      ],
      "stateMutability": "nonpayable",
      "type": "function"
    },
    {
      "inputs": [],
      "name": "getEntireSystemColl",
      "outputs": [
        {
          "internalType": "uint256",
          "name": "",
          "type": "uint256"
        }
      ],
      "stateMutability": "view",
      "type": "function"
    },
    {
      "inputs": [],
      "name": "getEntireSystemDebt",
      "outputs": [
        {
          "internalType": "uint256",
          "name": "",
          "type": "uint256"
        }
      ],
      "stateMutability": "view",
      "type": "function"
    },
    {
      "inputs": [
        {
          "internalType": "address",
          "name": "_borrower",
          "type": "address"
        }
      ],
      "name": "getNominalICR",
      "outputs": [
        {
          "internalType": "uint256",
          "name": "",
          "type": "uint256"
        }
      ],
      "stateMutability": "view",
      "type": "function"
    },
    {
      "inputs": [
        {
          "internalType": "address",
          "name": "_borrower",
          "type": "address"
        }
      ],
      "name": "getPendingCollAndDebtRewards",
      "outputs": [
        {
          "internalType": "uint256",
          "name": "",
          "type": "uint256"
        },
        {
          "internalType": "uint256",
          "name": "",
          "type": "uint256"
        }
      ],
      "stateMutability": "view",
      "type": "function"
    },
    {
      "inputs": [
        {
          "internalType": "uint256",
          "name": "_collateralDrawn",
          "type": "uint256"
        }
      ],
      "name": "getRedemptionFeeWithDecay",
      "outputs": [
        {
          "internalType": "uint256",
          "name": "",
          "type": "uint256"
        }
      ],
      "stateMutability": "view",
      "type": "function"
    },
    {
      "inputs": [],
      "name": "getRedemptionRate",
      "outputs": [
        {
          "internalType": "uint256",
          "name": "",
          "type": "uint256"
        }
      ],
      "stateMutability": "view",
      "type": "function"
    },
    {
      "inputs": [],
      "name": "getRedemptionRateWithDecay",
      "outputs": [
        {
          "internalType": "uint256",
          "name": "",
          "type": "uint256"
        }
      ],
      "stateMutability": "view",
      "type": "function"
    },
    {
      "inputs": [],
      "name": "getTotalActiveCollateral",
      "outputs": [
        {
          "internalType": "uint256",
          "name": "",
          "type": "uint256"
        }
      ],
      "stateMutability": "view",
      "type": "function"
    },
    {
      "inputs": [],
      "name": "getTotalActiveDebt",
      "outputs": [
        {
          "internalType": "uint256",
          "name": "",
          "type": "uint256"
        }
      ],
      "stateMutability": "view",
      "type": "function"
    },
    {
      "inputs": [
        {
          "internalType": "uint256",
          "name": "week",
          "type": "uint256"
        }
      ],
      "name": "getTotalMints",
      "outputs": [
        {
          "internalType": "uint32[7]",
          "name": "",
          "type": "uint32[7]"
        }
      ],
      "stateMutability": "view",
      "type": "function"
    },
    {
      "inputs": [
        {
          "internalType": "address",
          "name": "_borrower",
          "type": "address"
        }
      ],
      "name": "getTrove",
      "outputs": [
        {
          "components": [
            {
              "internalType": "uint256",
              "name": "debt",
              "type": "uint256"
            },
            {
              "internalType": "uint256",
              "name": "coll",
              "type": "uint256"
            },
            {
              "internalType": "uint256",
              "name": "stake",
              "type": "uint256"
            },
            {
              "internalType": "enum TroveManager.Status",
              "name": "status",
              "type": "uint8"
            },
            {
              "internalType": "uint128",
              "name": "arrayIndex",
              "type": "uint128"
            },
            {
              "internalType": "uint256",
              "name": "activeInterestIndex",
              "type": "uint256"
            }
          ],
          "internalType": "struct TroveManager.Trove",
          "name": "",
          "type": "tuple"
        }
      ],
      "stateMutability": "view",
      "type": "function"
    },
    {
      "inputs": [
        {
          "internalType": "address",
          "name": "_borrower",
          "type": "address"
        }
      ],
      "name": "getTroveCollAndDebt",
      "outputs": [
        {
          "internalType": "uint256",
          "name": "coll",
          "type": "uint256"
        },
        {
          "internalType": "uint256",
          "name": "debt",
          "type": "uint256"
        }
      ],
      "stateMutability": "view",
      "type": "function"
    },
    {
      "inputs": [
        {
          "internalType": "uint256",
          "name": "_index",
          "type": "uint256"
        }
      ],
      "name": "getTroveFromTroveOwnersArray",
      "outputs": [
        {
          "internalType": "address",
          "name": "",
          "type": "address"
        }
      ],
      "stateMutability": "view",
      "type": "function"
    },
    {
      "inputs": [],
      "name": "getTroveOwnersCount",
      "outputs": [
        {
          "internalType": "uint256",
          "name": "",
          "type": "uint256"
        }
      ],
      "stateMutability": "view",
      "type": "function"
    },
    {
      "inputs": [
        {
          "internalType": "address",
          "name": "_borrower",
          "type": "address"
        }
      ],
      "name": "getTroveStake",
      "outputs": [
        {
          "internalType": "uint256",
          "name": "",
          "type": "uint256"
        }
      ],
      "stateMutability": "view",
      "type": "function"
    },
    {
      "inputs": [
        {
          "internalType": "address",
          "name": "_borrower",
          "type": "address"
        }
      ],
      "name": "getTroveStatus",
      "outputs": [
        {
          "internalType": "uint256",
          "name": "",
          "type": "uint256"
        }
      ],
      "stateMutability": "view",
      "type": "function"
    },
    {
      "inputs": [],
      "name": "getWeek",
      "outputs": [
        {
          "internalType": "uint256",
          "name": "week",
          "type": "uint256"
        }
      ],
      "stateMutability": "view",
      "type": "function"
    },
    {
      "inputs": [],
      "name": "getWeekAndDay",
      "outputs": [
        {
          "internalType": "uint256",
          "name": "",
          "type": "uint256"
        },
        {
          "internalType": "uint256",
          "name": "",
          "type": "uint256"
        }
      ],
      "stateMutability": "view",
      "type": "function"
    },
    {
      "inputs": [],
      "name": "guardian",
      "outputs": [
        {
          "internalType": "address",
          "name": "",
          "type": "address"
        }
      ],
      "stateMutability": "view",
      "type": "function"
    },
    {
      "inputs": [
        {
          "internalType": "address",
          "name": "_borrower",
          "type": "address"
        }
      ],
      "name": "hasPendingRewards",
      "outputs": [
        {
          "internalType": "bool",
          "name": "",
          "type": "bool"
        }
      ],
      "stateMutability": "view",
      "type": "function"
    },
    {
      "inputs": [],
      "name": "interestPayable",
      "outputs": [
        {
          "internalType": "uint256",
          "name": "",
          "type": "uint256"
        }
      ],
      "stateMutability": "view",
      "type": "function"
    },
    {
      "inputs": [],
      "name": "interestRate",
      "outputs": [
        {
          "internalType": "uint256",
          "name": "",
          "type": "uint256"
        }
      ],
      "stateMutability": "view",
      "type": "function"
    },
    {
      "inputs": [],
      "name": "lastActiveIndexUpdate",
      "outputs": [
        {
          "internalType": "uint256",
          "name": "",
          "type": "uint256"
        }
      ],
      "stateMutability": "view",
      "type": "function"
    },
    {
      "inputs": [],
      "name": "lastCollateralError_Redistribution",
      "outputs": [
        {
          "internalType": "uint256",
          "name": "",
          "type": "uint256"
        }
      ],
      "stateMutability": "view",
      "type": "function"
    },
    {
      "inputs": [],
      "name": "lastDebtError_Redistribution",
      "outputs": [
        {
          "internalType": "uint256",
          "name": "",
          "type": "uint256"
        }
      ],
      "stateMutability": "view",
      "type": "function"
    },
    {
      "inputs": [],
      "name": "lastFeeOperationTime",
      "outputs": [
        {
          "internalType": "uint256",
          "name": "",
          "type": "uint256"
        }
      ],
      "stateMutability": "view",
      "type": "function"
    },
    {
      "inputs": [],
      "name": "lastUpdate",
      "outputs": [
        {
          "internalType": "uint32",
          "name": "",
          "type": "uint32"
        }
      ],
      "stateMutability": "view",
      "type": "function"
    },
    {
      "inputs": [],
      "name": "liquidationManager",
      "outputs": [
        {
          "internalType": "address",
          "name": "",
          "type": "address"
        }
      ],
      "stateMutability": "view",
      "type": "function"
    },
    {
      "inputs": [],
      "name": "loadPrice",
      "outputs": [
        {
          "internalType": "uint256",
          "name": "",
          "type": "uint256"
        }
      ],
      "stateMutability": "view",
      "type": "function"
    },
    {
      "inputs": [
        {
          "internalType": "address",
          "name": "",
          "type": "address"
        }
      ],
      "name": "lookers",
      "outputs": [
        {
          "internalType": "bool",
          "name": "",
          "type": "bool"
        }
      ],
      "stateMutability": "view",
      "type": "function"
    },
    {
      "inputs": [],
      "name": "lpChecker",
      "outputs": [
        {
          "internalType": "contract ILpChecker",
          "name": "",
          "type": "address"
        }
      ],
      "stateMutability": "view",
      "type": "function"
    },
    {
      "inputs": [],
      "name": "maxBorrowingFee",
      "outputs": [
        {
          "internalType": "uint256",
          "name": "",
          "type": "uint256"
        }
      ],
      "stateMutability": "view",
      "type": "function"
    },
    {
      "inputs": [],
      "name": "maxRedemptionFee",
      "outputs": [
        {
          "internalType": "uint256",
          "name": "",
          "type": "uint256"
        }
      ],
      "stateMutability": "view",
      "type": "function"
    },
    {
      "inputs": [],
      "name": "maxSystemDebt",
      "outputs": [
        {
          "internalType": "uint256",
          "name": "",
          "type": "uint256"
        }
      ],
      "stateMutability": "view",
      "type": "function"
    },
    {
      "inputs": [],
      "name": "minuteDecayFactor",
      "outputs": [
        {
          "internalType": "uint256",
          "name": "",
          "type": "uint256"
        }
      ],
      "stateMutability": "view",
      "type": "function"
    },
    {
      "inputs": [
        {
          "internalType": "uint256",
          "name": "_debt",
          "type": "uint256"
        },
        {
          "internalType": "uint256",
          "name": "_collateral",
          "type": "uint256"
        }
      ],
      "name": "movePendingTroveRewardsToActiveBalances",
      "outputs": [],
      "stateMutability": "nonpayable",
      "type": "function"
    },
    {
      "inputs": [
        {
          "internalType": "uint256[]",
          "name": "_assignedIds",
          "type": "uint256[]"
        }
      ],
      "name": "notifyRegisteredId",
      "outputs": [
        {
          "internalType": "bool",
          "name": "",
          "type": "bool"
        }
      ],
      "stateMutability": "nonpayable",
      "type": "function"
    },
    {
      "inputs": [
        {
          "internalType": "address",
          "name": "_borrower",
          "type": "address"
        },
        {
          "internalType": "uint256",
          "name": "_collateralAmount",
          "type": "uint256"
        },
        {
          "internalType": "uint256",
          "name": "_compositeDebt",
          "type": "uint256"
        },
        {
          "internalType": "uint256",
          "name": "NICR",
          "type": "uint256"
        },
        {
          "internalType": "address",
          "name": "_upperHint",
          "type": "address"
        },
        {
          "internalType": "address",
          "name": "_lowerHint",
          "type": "address"
        },
        {
          "internalType": "bool",
          "name": "_isRecoveryMode",
          "type": "bool"
        }
      ],
      "name": "openTrove",
      "outputs": [
        {
          "internalType": "uint256",
          "name": "stake",
          "type": "uint256"
        },
        {
          "internalType": "uint256",
          "name": "arrayIndex",
          "type": "uint256"
        }
      ],
      "stateMutability": "nonpayable",
      "type": "function"
    },
    {
      "inputs": [],
      "name": "owner",
      "outputs": [
        {
          "internalType": "address",
          "name": "",
          "type": "address"
        }
      ],
      "stateMutability": "view",
      "type": "function"
    },
    {
      "inputs": [],
      "name": "paused",
      "outputs": [
        {
          "internalType": "bool",
          "name": "",
          "type": "bool"
        }
      ],
      "stateMutability": "view",
      "type": "function"
    },
    {
      "inputs": [],
      "name": "periodFinish",
      "outputs": [
        {
          "internalType": "uint32",
          "name": "",
          "type": "uint32"
        }
      ],
      "stateMutability": "view",
      "type": "function"
    },
    {
      "inputs": [],
      "name": "priceFeed",
      "outputs": [
        {
          "internalType": "contract IPriceFeed",
          "name": "",
          "type": "address"
        }
      ],
      "stateMutability": "view",
      "type": "function"
    },
    {
      "inputs": [
        {
          "internalType": "uint256",
          "name": "_debtAmount",
          "type": "uint256"
        },
        {
          "internalType": "address",
          "name": "_firstRedemptionHint",
          "type": "address"
        },
        {
          "internalType": "address",
          "name": "_upperPartialRedemptionHint",
          "type": "address"
        },
        {
          "internalType": "address",
          "name": "_lowerPartialRedemptionHint",
          "type": "address"
        },
        {
          "internalType": "uint256",
          "name": "_partialRedemptionHintNICR",
          "type": "uint256"
        },
        {
          "internalType": "uint256",
          "name": "_maxIterations",
          "type": "uint256"
        },
        {
          "internalType": "uint256",
          "name": "_maxFeePercentage",
          "type": "uint256"
        }
      ],
      "name": "redeemCollateral",
      "outputs": [],
      "stateMutability": "nonpayable",
      "type": "function"
    },
    {
      "inputs": [],
      "name": "redemptionFeeFloor",
      "outputs": [
        {
          "internalType": "uint256",
          "name": "",
          "type": "uint256"
        }
      ],
      "stateMutability": "view",
      "type": "function"
    },
    {
      "inputs": [],
      "name": "rewardIntegral",
      "outputs": [
        {
          "internalType": "uint256",
          "name": "",
          "type": "uint256"
        }
      ],
      "stateMutability": "view",
      "type": "function"
    },
    {
      "inputs": [
        {
          "internalType": "address",
          "name": "",
          "type": "address"
        }
      ],
      "name": "rewardIntegralFor",
      "outputs": [
        {
          "internalType": "uint256",
          "name": "",
          "type": "uint256"
        }
      ],
      "stateMutability": "view",
      "type": "function"
    },
    {
      "inputs": [],
      "name": "rewardRate",
      "outputs": [
        {
          "internalType": "uint128",
          "name": "",
          "type": "uint128"
        }
      ],
      "stateMutability": "view",
      "type": "function"
    },
    {
      "inputs": [
        {
          "internalType": "address",
          "name": "",
          "type": "address"
        }
      ],
      "name": "rewardSnapshots",
      "outputs": [
        {
          "internalType": "uint256",
          "name": "collateral",
          "type": "uint256"
        },
        {
          "internalType": "uint256",
          "name": "debt",
          "type": "uint256"
        }
      ],
      "stateMutability": "view",
      "type": "function"
    },
    {
      "inputs": [
        {
          "internalType": "address",
          "name": "_priceFeedAddress",
          "type": "address"
        },
        {
          "internalType": "address",
          "name": "_sortedTrovesAddress",
          "type": "address"
        },
        {
          "internalType": "address",
          "name": "_collateralToken",
          "type": "address"
        }
      ],
      "name": "setAddresses",
      "outputs": [],
      "stateMutability": "nonpayable",
      "type": "function"
    },
    {
      "inputs": [
        {
          "internalType": "address[]",
          "name": "_lookers",
          "type": "address[]"
        },
        {
          "internalType": "bool[]",
          "name": "_bools",
          "type": "bool[]"
        }
      ],
      "name": "setLookers",
      "outputs": [],
      "stateMutability": "nonpayable",
      "type": "function"
    },
    {
      "inputs": [
        {
          "internalType": "uint256",
          "name": "_minuteDecayFactor",
          "type": "uint256"
        },
        {
          "internalType": "uint256",
          "name": "_redemptionFeeFloor",
          "type": "uint256"
        },
        {
          "internalType": "uint256",
          "name": "_maxRedemptionFee",
          "type": "uint256"
        },
        {
          "internalType": "uint256",
          "name": "_borrowingFeeFloor",
          "type": "uint256"
        },
        {
          "internalType": "uint256",
          "name": "_maxBorrowingFee",
          "type": "uint256"
        },
        {
          "internalType": "uint256",
          "name": "_interestRateInBPS",
          "type": "uint256"
        },
        {
          "internalType": "uint256",
          "name": "_maxSystemDebt",
          "type": "uint256"
        },
        {
          "internalType": "uint256",
          "name": "_MCR",
          "type": "uint256"
        }
      ],
      "name": "setParameters",
      "outputs": [],
      "stateMutability": "nonpayable",
      "type": "function"
    },
    {
      "inputs": [
        {
          "internalType": "bool",
          "name": "_paused",
          "type": "bool"
        }
      ],
      "name": "setPaused",
      "outputs": [],
      "stateMutability": "nonpayable",
      "type": "function"
    },
    {
      "inputs": [
        {
          "internalType": "address",
          "name": "_priceFeedAddress",
          "type": "address"
        },
        {
          "internalType": "address",
          "name": "_lpChecker",
          "type": "address"
        }
      ],
      "name": "setPriceFeed",
      "outputs": [],
      "stateMutability": "nonpayable",
      "type": "function"
    },
    {
      "inputs": [],
      "name": "sortedTroves",
      "outputs": [
        {
          "internalType": "contract ISortedTroves",
          "name": "",
          "type": "address"
        }
      ],
      "stateMutability": "view",
      "type": "function"
    },
    {
      "inputs": [],
      "name": "startSunset",
      "outputs": [],
      "stateMutability": "nonpayable",
      "type": "function"
    },
    {
      "inputs": [
        {
          "internalType": "address",
          "name": "account",
          "type": "address"
        }
      ],
      "name": "storePendingReward",
      "outputs": [
        {
          "internalType": "uint256",
          "name": "",
          "type": "uint256"
        }
      ],
      "stateMutability": "nonpayable",
      "type": "function"
    },
    {
      "inputs": [],
      "name": "sunsetting",
      "outputs": [
        {
          "internalType": "bool",
          "name": "",
          "type": "bool"
        }
      ],
      "stateMutability": "view",
      "type": "function"
    },
    {
      "inputs": [
        {
          "internalType": "address",
          "name": "",
          "type": "address"
        }
      ],
      "name": "surplusBalances",
      "outputs": [
        {
          "internalType": "uint256",
          "name": "",
          "type": "uint256"
        }
      ],
      "stateMutability": "view",
      "type": "function"
    },
    {
      "inputs": [],
      "name": "systemDeploymentTime",
      "outputs": [
        {
          "internalType": "uint256",
          "name": "",
          "type": "uint256"
        }
      ],
      "stateMutability": "view",
      "type": "function"
    },
    {
      "inputs": [],
      "name": "totalCollateralSnapshot",
      "outputs": [
        {
          "internalType": "uint256",
          "name": "",
          "type": "uint256"
        }
      ],
      "stateMutability": "view",
      "type": "function"
    },
    {
      "inputs": [],
      "name": "totalStakes",
      "outputs": [
        {
          "internalType": "uint256",
          "name": "",
          "type": "uint256"
        }
      ],
      "stateMutability": "view",
      "type": "function"
    },
    {
      "inputs": [],
      "name": "totalStakesSnapshot",
      "outputs": [
        {
          "internalType": "uint256",
          "name": "",
          "type": "uint256"
        }
      ],
      "stateMutability": "view",
      "type": "function"
    },
    {
      "inputs": [],
      "name": "updateBalances",
      "outputs": [],
      "stateMutability": "nonpayable",
      "type": "function"
    },
    {
      "inputs": [
        {
          "internalType": "bool",
          "name": "_isRecoveryMode",
          "type": "bool"
        },
        {
          "internalType": "bool",
          "name": "_isDebtIncrease",
          "type": "bool"
        },
        {
          "internalType": "uint256",
          "name": "_debtChange",
          "type": "uint256"
        },
        {
          "internalType": "uint256",
          "name": "_netDebtChange",
          "type": "uint256"
        },
        {
          "internalType": "bool",
          "name": "_isCollIncrease",
          "type": "bool"
        },
        {
          "internalType": "uint256",
          "name": "_collChange",
          "type": "uint256"
        },
        {
          "internalType": "address",
          "name": "_upperHint",
          "type": "address"
        },
        {
          "internalType": "address",
          "name": "_lowerHint",
          "type": "address"
        },
        {
          "internalType": "address",
          "name": "_borrower",
          "type": "address"
        },
        {
          "internalType": "address",
          "name": "_receiver",
          "type": "address"
        }
      ],
      "name": "updateTroveFromAdjustment",
      "outputs": [
        {
          "internalType": "uint256",
          "name": "",
          "type": "uint256"
        },
        {
          "internalType": "uint256",
          "name": "",
          "type": "uint256"
        },
        {
          "internalType": "uint256",
          "name": "",
          "type": "uint256"
        }
      ],
      "stateMutability": "nonpayable",
      "type": "function"
    },
    {
      "inputs": [],
      "name": "vault",
      "outputs": [
        {
          "internalType": "contract IVineVault",
          "name": "",
          "type": "address"
        }
      ],
      "stateMutability": "view",
      "type": "function"
    },
    {
      "inputs": [
        {
          "internalType": "address",
          "name": "claimant",
          "type": "address"
        },
        {
          "internalType": "address",
          "name": "",
          "type": "address"
        }
      ],
      "name": "vaultClaimReward",
      "outputs": [
        {
          "internalType": "uint256",
          "name": "",
          "type": "uint256"
        }
      ],
      "stateMutability": "nonpayable",
      "type": "function"
    }
  ],
  "bytecode": "0x6101806040523480156200001257600080fd5b5060405162006200380380620062008339810160408190526200003591620000fd565b60808190526001600160a01b03871660a0819052604080516378e9792560e01b815290518992916378e979259160048083019260209291908290030181865afa15801562000087573d6000803e3d6000fd5b505050506040513d601f19601f82011682018060405250810190620000ad919062000189565b60c05250506001600160a01b03948516610120529284166101405290831660e052821661016052166101005250620001a3565b80516001600160a01b0381168114620000f857600080fd5b919050565b600080600080600080600060e0888a0312156200011957600080fd5b6200012488620000e0565b96506200013460208901620000e0565b95506200014460408901620000e0565b94506200015460608901620000e0565b93506200016460808901620000e0565b92506200017460a08901620000e0565b915060c0880151905092959891949750929550565b6000602082840312156200019c57600080fd5b5051919050565b60805160a05160c05160e05161010051610120516101405161016051615f02620002fe60003960008181610c7c015281816117d501528181612e4001528181613336015281816150cd0152615216015260008181610c5501528181611b820152818161256901528181612a230152818161327901528181613fdb015281816140610152614ed40152600081816132a60152614f010152600081816105700152613585015260008181610a0001528181611cf401528181612466015281816133b70152818161416d015261448d015260008181610cec01528181611ed10152818161502a015261507201526000818161086501528181610d6101528181610e61015281816113c7015281816116f6015281816119de01528181611bb101528181611d7a01528181611f1601526129170152600081816106e501528181614363015281816143e00152818161441f0152614fc20152615f026000f3fe608060405234801561001057600080fd5b50600436106104b95760003560e01c806301c799fc146104be5780630b076557146104e65780630f8490df146105075780630fdb11cf1461050f5780631289fefb146105255780631673c79a1461052f57806316c38b3c146105585780631ef3a04c1461056b5780631f68f20a1461059f57806320d17d7b146105a857806321e37801146105b157806325019ee9146105c4578063292527b0146105d75780632b11551a1461060a5780632b2b2bac146106125780632d587e10146106255780632f5c83a81461062e57806331c7a2611461063757806333d53b591461064057806334ba3c7114610649578063363bf9641461065c5780634056d9fc1461066f578063452a9320146106785780634763637114610680578063477d66cf146106b35780634820fe56146106c65780634870dd9a146106ce57806349eefeee146106d65780634ba4a28b146106e05780634cb653b7146107075780635733d58f1461071a5780635a1c03ec146107295780635bbe8aad146107315780635c975abb14610744578063631203b01461075657806364cee2601461076957806366ca4a211461077c5780636f3fe40414610784578063720fbe2c1461078c578063741bef1a1461079557806376e11286146107a8578063789c6b93146107bb578063794e5724146107ce578063795d26c3146107d75780637a83a34e146107df5780637b0a47ee146107e75780637c3a00fd146108125780637e95d6641461081b578063807d138d146108245780638140d0771461082d5780638235b2841461084d57806382d61d161461086057806386d6f8ab14610887578063874d6d811461089a578063887105d3146108a25780638ae10c9e146108aa5780638bbb1de8146108bd5780638da5cb5b146108c65780638e415ea8146108ce57806391245f9f146108e15780639484fb8e146108ea57806396660b18146108f757806396d711ff146109005780639ed7254214610909578063a20baee614610912578063a5713dcd14610921578063ae91875414610941578063b0d8e18114610954578063b2016bd414610967578063b2f29d7b1461097a578063b4997a1f1461098d578063b49c6f8214610996578063b7f8cf9b146109fb578063b91af97c14610a22578063bc006c3814610a45578063bcd3752614610a4e578063bd28c0f414610a61578063be2c377b14610a81578063bf9befb114610a8a578063c046371114610a93578063c35bc55014610abf578063c52861f214610ac9578063c9a4cbf114610ad1578063ce1f332c14610ae4578063d128080c14610aed578063d12ae84114610af5578063d279c19114610b08578063d293c71014610b1b578063d30612e114610b2e578063d380a37c14610b36578063d38b055814610b3f578063d5b3563514610b48578063d9a7244414610b5b578063e0b7a2d814610b6e578063e2ac77b014610b81578063e47cf0c314610b94578063e9186c9414610b9d578063e950342514610bb0578063ea23a27a14610bc3578063eb3007fd14610bd6578063ebe2b12b14610be9578063ec38a05d14610c00578063f058203814610c22578063f36b242514610c35578063f67a17de14610c3d578063f8d8989814610c50578063fbfa77cf14610c77575b600080fd5b6104c6610c9e565b604080519384526020840192909252908201526060015b60405180910390f35b6104f96104f436600461552b565b610cc6565b6040516104dd929190615548565b6104f9610ce3565b610517610d4d565b6040519081526020016104dd565b61052d610e5f565b005b6104f961053d36600461552b565b62020025602052600090815260409020805460019091015482565b61052d610566366004615564565b610f74565b6105927f000000000000000000000000000000000000000000000000000000000000000081565b6040516104dd9190615581565b61051760115481565b610517601e5481565b6105176105bf36600461552b565b611011565b61052d6105d236600461552b565b61109b565b6105fa6105e536600461552b565b60236020526000908152604090205460ff1681565b60405190151581526020016104dd565b6105176110e3565b6104f961062036600461552b565b6110f5565b610517600e5481565b610517600b5481565b61051760095481565b61051760165481565b61052d610657366004615595565b61115d565b61052d61066a3660046155ea565b61134c565b610517600a5481565b6105926113c3565b6004546106989061ffff808216916201000090041682565b6040805161ffff9384168152929091166020830152016104dd565b6105176106c1366004615635565b611447565b601a54610517565b61051760c881565b6202002654610517565b6105177f000000000000000000000000000000000000000000000000000000000000000081565b6104f961071536600461564e565b611460565b6105176718fae27693b4000081565b6105176116e2565b6105fa61073f3660046156c9565b6117c8565b6010546105fa90610100900460ff1681565b610517610764366004615635565b61193a565b61051761077736600461552b565b611947565b6105176119b8565b61052d6119ca565b610517600f5481565b600054610592906001600160a01b031681565b61052d6107b636600461573d565b6119dc565b61052d6107c9366004615776565b611abc565b61051760055481565b610517611af7565b61052d611b4b565b6020546107fa906001600160801b031681565b6040516001600160801b0390911681526020016104dd565b610517600c5481565b61051760075481565b61051760145481565b61051761083b36600461552b565b60216020526000908152604090205481565b61052d61085b36600461552b565b611c89565b6105927f000000000000000000000000000000000000000000000000000000000000000081565b61052d610895366004615883565b611d78565b610517611ec6565b610517611f00565b600254610592906001600160a01b031681565b610517600d5481565b610592611f12565b6104c66108dc366004615944565b611f72565b61051760085481565b6010546105fa9060ff1681565b610517601c5481565b61051760155481565b61051760195481565b610517670de0b6b3a764000081565b61093461092f366004615635565b612169565b6040516104dd91906159f9565b600354610592906001600160a01b031681565b61051761096236600461552b565b6121e8565b600154610592906001600160a01b031681565b610517610988366004615635565b61225d565b610517601f5481565b6109d46109a436600461552b565b620200226020526000908152604090205463ffffffff80821691600160201b8104821691600160401b9091041683565b6040805163ffffffff948516815292841660208401529216918101919091526060016104dd565b6105927f000000000000000000000000000000000000000000000000000000000000000081565b610a35610a3036600461552b565b612285565b6040516104dd9493929190615a30565b61051760065481565b61052d610a5c366004615a4b565b61235f565b610a74610a6f36600461552b565b612ac3565b6040516104dd9190615acf565b610517601d5481565b61051760135481565b602054610aaa90600160801b900463ffffffff1681565b60405163ffffffff90911681526020016104dd565b6105176212750081565b610517612bb9565b61052d610adf366004615b3b565b612bcb565b61051761019081565b610517612c61565b6104f9610b0336600461552b565b612ca5565b610517610b1636600461552b565b612e15565b610517610b29366004615776565b612f04565b610517612f8d565b61051760125481565b61051760185481565b610517610b56366004615635565b612fc1565b610592610b69366004615635565b612fd4565b610517610b7c366004615635565b613006565b6105fa610b8f36600461552b565b61301e565b61051760175481565b61052d610bab366004615b81565b613085565b610517610bbe36600461552b565b6130a1565b61052d610bd1366004615bb6565b6131d9565b61052d610be4366004615c02565b613317565b602054610aaa90600160a01b900463ffffffff1681565b610517610c0e36600461552b565b620200246020526000908152604090205481565b610517610c3036600461573d565b613329565b610517613370565b610517610c4b36600461552b565b61337d565b6105927f000000000000000000000000000000000000000000000000000000000000000081565b6105927f000000000000000000000000000000000000000000000000000000000000000081565b6000806000610cab611f00565b610cb3611af7565b610cbb610d4d565b925092509250909192565b600080610cd16133ac565b610cda83613409565b91509150915091565b60008080610d117f000000000000000000000000000000000000000000000000000000000000000042615c3a565b90506000610d2262093a8083615c63565b9050600062015180610d3762093a8085615c77565b610d419190615c63565b91959194509092505050565b600080546001600160a01b031680610de4577f00000000000000000000000000000000000000000000000000000000000000006001600160a01b031663741bef1a6040518163ffffffff1660e01b8152600401602060405180830381865afa158015610dbd573d6000803e3d6000fd5b505050506040513d601f19601f82011682018060405250810190610de19190615c8b565b90505b600154604051635670bcc760e11b81526001600160a01b038381169263ace1798e92610e169290911690600401615581565b6020604051808303816000875af1158015610e35573d6000803e3d6000fd5b505050506040513d601f19601f82011682018060405250810190610e599190615ca8565b91505090565b7f00000000000000000000000000000000000000000000000000000000000000006001600160a01b0316638da5cb5b6040518163ffffffff1660e01b8152600401602060405180830381865afa158015610ebd573d6000803e3d6000fd5b505050506040513d601f19601f82011682018060405250810190610ee19190615c8b565b6001600160a01b0316336001600160a01b031614610f1a5760405162461bcd60e51b8152600401610f1190615cc1565b60405180910390fd5b6010805460ff19166001179055610f2f613516565b50610f406301e13380612710615ce5565b610f57676765c793fa10079d601b1b611388615ce5565b610f619190615c63565b600c5542600e5560006007819055600b55565b808015610f995750610f846113c3565b6001600160a01b0316336001600160a01b0316145b80610fbc5750610fa7611f12565b6001600160a01b0316336001600160a01b0316145b610ff75760405162461bcd60e51b815260206004820152600c60248201526b155b985d5d1a1bdc9a5e995960a21b6044820152606401610f11565b601080549115156101000261ff0019909216919091179055565b600081336001600160a01b038216148061103a57503360009081526023602052604090205460ff165b8061104457503330145b6110605760405162461bcd60e51b8152600401610f1190615cfc565b6001600160a01b038316600090815262020023602052604090206003015460ff16600481111561109257611092615ab9565b91505b50919050565b6110a361357a565b6001600160a01b03811660009081526202002360205260409020546110c7826135af565b6110d28260036135fe565b6110df8282601f546138aa565b5050565b60006110f0601154613940565b905090565b60008082336001600160a01b038216148061111f57503360009081526023602052604090205460ff165b8061112957503330145b6111455760405162461bcd60e51b8152600401610f1190615cfc565b61114e84612285565b50909450909250505b50915091565b60105460ff16156111805760405162461bcd60e51b8152600401610f1190615d18565b6718fae27693b4000081111580156111a057506714d1120d7b1600008110155b6111d25760405162461bcd60e51b815260206004820152600360248201526226a1a960e91b6044820152606401610f11565b60065415611227576111e2611f12565b6001600160a01b0316336001600160a01b0316146112275760405162461bcd60e51b81526020600482015260026024820152614f4f60f01b6044820152606401610f11565b670d8f91d067414d8888101580156112475750670de07829b2adec288811155b61125057600080fd5b8587111580156112685750670de0b6b3a76400008611155b61127157600080fd5b8385111580156112895750670de0b6b3a76400008411155b61129257600080fd5b61129a61395b565b506006889055600787905560088690556009859055600a849055600b8290556101908311156112f05760405162461bcd60e51b8152602060048201526002602482015261494d60f01b6044820152606401610f11565b60006113026301e13380612710615ce5565b61131785676765c793fa10079d601b1b615ce5565b6113219190615c63565b9050600c54811461133f57611334613516565b5042600e55600c8190555b5060055550505050505050565b6003546001600160a01b03161561136257600080fd5b600080546001600160a01b039485166001600160a01b03199182161790915560038054938516938216939093179092556001805491909316911617905542600f8190556010805460ff19169055676765c793fa10079d601b1b600d55600e55565b60007f00000000000000000000000000000000000000000000000000000000000000006001600160a01b031663452a93206040518163ffffffff1660e01b8152600401602060405180830381865afa158015611423573d6000803e3d6000fd5b505050506040513d601f19601f820116820180604052508101906110f09190615c8b565b600061145a6114546119b8565b8361399c565b92915050565b6010546000908190610100900460ff16156114a25760405162461bcd60e51b8152602060048201526002602482015261043560f41b6044820152606401610f11565b6114aa6133ac565b60105460ff16156114ba57600080fd5b601b546001600160a01b038a16600090815262020023602052604090206001600382015460ff1660048111156114f2576114f2615ab9565b036115245760405162461bcd60e51b8152602060048201526002602482015261544160f01b6044820152606401610f11565b60038101805460ff1916600190811790915581018a90558881556000611548613516565b60048301819055905061155a8c6139bb565b61156382613a37565b6003546040516346f7cf8760e01b81529196506001600160a01b0316906346f7cf879061159a908f908d908d908d90600401615d34565b600060405180830381600087803b1580156115b457600080fd5b505af11580156115c8573d6000803e3d6000fd5b50505050620200268c9080600181540180825580915050600190039060005260206000200160009091909190916101000a8154816001600160a01b0302191690836001600160a01b031602179055506001620200268054905061162b9190615c3a565b600383018054610100600160881b0319166101006001600160801b03841602179055935061165b8c600085613a7e565b8561166a5761166a8c8b613a96565b8a601a546116789190615d5f565b601a5560006116878b85615d5f565b9050600b54601e548261169a9190615d5f565b11156116cd5760405162461bcd60e51b815260206004820152600260248201526121a960f11b6044820152606401610f11565b601b5550929a91995090975050505050505050565b600080546001600160a01b031680611779577f00000000000000000000000000000000000000000000000000000000000000006001600160a01b031663741bef1a6040518163ffffffff1660e01b8152600401602060405180830381865afa158015611752573d6000803e3d6000fd5b505050506040513d601f19601f820116820180604052508101906117769190615c8b565b90505b600154604051633445bf3560e21b81526001600160a01b038381169263d116fcd4926117ab9290911690600401615581565b602060405180830381865afa158015610e35573d6000803e3d6000fd5b6000336001600160a01b037f000000000000000000000000000000000000000000000000000000000000000016146117ff57600080fd5b60045461ffff16156118385760405162461bcd60e51b8152602060048201526002602482015261414160f01b6044820152606401610f11565b816002811461186e5760405162461bcd60e51b8152602060048201526002602482015261494360f01b6044820152606401610f11565b60405180604001604052808585600081811061188c5761188c615d72565b9050602002013561ffff168152602001858560018181106118af576118af615d72565b61ffff6020918202939093013583169093525082516004805494909301518216620100000263ffffffff199094169116179190911790556118f362093a8042615c63565b6118fe906001615d5f565b61190b9062093a80615ce5565b6020805463ffffffff92909216600160a01b0263ffffffff60a01b199092169190911790555060019392505050565b600061145a611454613370565b600081336001600160a01b038216148061197057503360009081526023602052604090205460ff165b8061197a57503330145b6119965760405162461bcd60e51b8152600401610f1190615cfc565b50506001600160a01b0316600090815262020023602052604090206002015490565b60006110f06119c5613d43565b613d93565b6119d261357a565b6119da613dae565b565b7f00000000000000000000000000000000000000000000000000000000000000006001600160a01b0316638da5cb5b6040518163ffffffff1660e01b8152600401602060405180830381865afa158015611a3a573d6000803e3d6000fd5b505050506040513d601f19601f82011682018060405250810190611a5e9190615c8b565b6001600160a01b0316336001600160a01b031614611a8e5760405162461bcd60e51b8152600401610f1190615cc1565b600080546001600160a01b039384166001600160a01b03199182161790915560028054929093169116179055565b611ac461357a565b6001600160a01b038216600090815262020024602052604081208054839290611aee908490615d5f565b90915550505050565b601b5460009081611b06613dc5565b9150508015611b37576000611b278383676765c793fa10079d601b1b613e32565b9050611b338184615d5f565b9250505b601e54611b449083615d5f565b9250505090565b601c5480611b805760405162461bcd60e51b81526020600482015260026024820152614e4360f01b6044820152606401610f11565b7f00000000000000000000000000000000000000000000000000000000000000006001600160a01b03166340c10f197f00000000000000000000000000000000000000000000000000000000000000006001600160a01b031663b3f006746040518163ffffffff1660e01b8152600401602060405180830381865afa158015611c0d573d6000803e3d6000fd5b505050506040513d601f19601f82011682018060405250810190611c319190615c8b565b836040518363ffffffff1660e01b8152600401611c4f929190615d88565b600060405180830381600087803b158015611c6957600080fd5b505af1158015611c7d573d6000803e3d6000fd5b50506000601c55505050565b33600090815262020024602052604090205480611ca557600080fd5b3360009081526202002460205260408120556001546001600160a01b031673eeeeeeeeeeeeeeeeeeeeeeeeeeeeeeeeeeeeeeee03611d6157604051633186e69160e21b81526001600160a01b037f0000000000000000000000000000000000000000000000000000000000000000169063c61b9a4490611d2b9085908590600401615d88565b600060405180830381600087803b158015611d4557600080fd5b505af1158015611d59573d6000803e3d6000fd5b505050505050565b6001546110df906001600160a01b03168383613ef6565b7f00000000000000000000000000000000000000000000000000000000000000006001600160a01b0316638da5cb5b6040518163ffffffff1660e01b8152600401602060405180830381865afa158015611dd6573d6000803e3d6000fd5b505050506040513d601f19601f82011682018060405250810190611dfa9190615c8b565b6001600160a01b0316336001600160a01b031614611e2a5760405162461bcd60e51b8152600401610f1190615cc1565b8051825114611e3857600080fd5b60005b82518160ff161015611ec157818160ff1681518110611e5c57611e5c615d72565b602002602001015160236000858460ff1681518110611e7d57611e7d615d72565b6020908102919091018101516001600160a01b03168252810191909152604001600020805460ff191691151591909117905580611eb981615da1565b915050611e3b565b505050565b600062093a80611ef67f000000000000000000000000000000000000000000000000000000000000000042615c3a565b6110f09190615c63565b6000601d54601a546110f09190615d5f565b60007f00000000000000000000000000000000000000000000000000000000000000006001600160a01b0316638da5cb5b6040518163ffffffff1660e01b8152600401602060405180830381865afa158015611423573d6000803e3d6000fd5b6000806000611f7f6133ac565b8880611f8857508b5b15611fc557601054610100900460ff1615611fa257600080fd5b60105460ff1615611fc55760405162461bcd60e51b8152600401610f1190615d18565b6001600160a01b038516600090815262020023602052604090206001600382015460ff166004811115611ffa57611ffa615ab9565b146120175760405162461bcd60e51b8152600401610f1190615dc0565b80548c1561206a578d156120505761202f8c82615d5f565b90508e61204057612040878d613a96565b61204b868d8f613f4e565b612066565b61205a8c82615c3a565b9050612066868e61404a565b8082555b60018201548a156120bb578b1561209d576120858b82615d5f565b90508a601a546120959190615d5f565b601a556120b3565b6120a78b82615c3a565b90506120b3878c6140df565b600183018190555b60006120c782846141a4565b9050600360009054906101000a90046001600160a01b03166001600160a01b0316632be212608a838e8e6040518563ffffffff1660e01b81526004016121109493929190615d34565b600060405180830381600087803b15801561212a57600080fd5b505af115801561213e573d6000803e3d6000fd5b50505050600061214d85613a37565b9297509295509093505050509a509a509a975050505050505050565b6121716154b1565b620100238261ffff811061218757612187615d72565b6040805160e0810191829052929190910190600790826000855b82829054906101000a900463ffffffff1663ffffffff16815260200190600401906020826003010492830192600103820291508084116121a1575094979650505050505050565b600081336001600160a01b038216148061221157503360009081526023602052604090205460ff165b8061221b57503330145b6122375760405162461bcd60e51b8152600401610f1190615cfc565b600080612243856110f5565b91509150600061225383836141a4565b9695505050505050565b60006122676133ac565b600061227161395b565b905061109261227f82613d93565b8461399c565b600080808084336001600160a01b03821614806122b157503360009081526023602052604090205460ff165b806122bb57503330145b6122d75760405162461bcd60e51b8152600401610f1190615cfc565b6001600160a01b0386166000908152620200236020526040902080546001820154909650945061230687612ca5565b6004830154909550909350801561233d576000612321613dc5565b5090508161232f828a615ce5565b6123399190615c63565b9750505b6123478588615d5f565b96506123538487615d5f565b95505050509193509193565b6000600360009054906101000a90046001600160a01b031690506123c160405180610100016040528060008152602001600081526020016000815260200160008152602001600081526020016000815260200160008152602001600081525090565b60075483101580156123d557506008548311155b6124065760405162461bcd60e51b815260206004820152600260248201526126a360f11b6044820152606401610f11565b62127500600f546124179190615d5f565b42101561244b5760405162461bcd60e51b8152602060048201526002602482015261042560f41b6044820152606401610f11565b612453610d4d565b8160c001818152505060006005549050807f00000000000000000000000000000000000000000000000000000000000000006001600160a01b031663b620115d6040518163ffffffff1660e01b81526004016020604051808303816000875af11580156124c4573d6000803e3d6000fd5b505050506040513d601f19601f820116820180604052508101906124e89190615ca8565b101561251b5760405162461bcd60e51b8152602060048201526002602482015261434d60f01b6044820152606401610f11565b60008a116125505760405162461bcd60e51b815260206004820152600260248201526120bd60f11b6044820152606401610f11565b6040516370a0823160e01b81528a906001600160a01b037f000000000000000000000000000000000000000000000000000000000000000016906370a082319061259e903390600401615581565b602060405180830381865afa1580156125bb573d6000803e3d6000fd5b505050506040513d601f19601f820116820180604052508101906125df9190615ca8565b10156126125760405162461bcd60e51b815260206004820152600260248201526124a160f11b6044820152606401610f11565b61261a613dae565b612622611af7565b60e083015289825260c08201516000906126409085908c90856141da565b1561264c57508861274e565b836001600160a01b0316634d6228316040518163ffffffff1660e01b8152600401602060405180830381865afa15801561268a573d6000803e3d6000fd5b505050506040513d601f19601f820116820180604052508101906126ae9190615c8b565b90505b6001600160a01b038116158015906126d55750816126d3828560c00151612f04565b105b1561274e57604051632dc9c0eb60e21b81526001600160a01b0385169063b72703ac90612706908490600401615581565b602060405180830381865afa158015612723573d6000803e3d6000fd5b505050506040513d601f19601f820116820180604052508101906127479190615c8b565b90506126b1565b8560000361275c5760001995505b6001600160a01b038116158015906127745750825115155b80156127805750600086115b15612883578561278f81615ddc565b9650506000846001600160a01b031663b72703ac836040518263ffffffff1660e01b81526004016127c09190615581565b602060405180830381865afa1580156127dd573d6000803e3d6000fd5b505050506040513d601f19601f820116820180604052508101906128019190615c8b565b905061280c82613409565b50506000612827868487600001518860c001518f8f8f614315565b905080604001511561283a575050612883565b8051602086015161284b9190615d5f565b60208087019190915281015160408601516128669190615d5f565b6040860152805185516128799190615c3a565b855250905061275c565b60008360400151116128bc5760405162461bcd60e51b8152602060048201526002602482015261554160f01b6044820152606401610f11565b6128d383604001518460c001518560e001516145b8565b5060105460ff166128f8576128f36128e96110e3565b846040015161463a565b6128fb565b60005b606084018190526040840151612912919087614668565b6129a17f00000000000000000000000000000000000000000000000000000000000000006001600160a01b031663b3f006746040518163ffffffff1660e01b8152600401602060405180830381865afa158015612973573d6000803e3d6000fd5b505050506040513d601f19601f820116820180604052508101906129979190615c8b565b84606001516140df565b826060015183604001516129b59190615c3a565b8360800181815250507f43a3f4082a4dbc33d78e317d2497d3a730bc7fc3574159dcea1056e62e5d9ad88b8460200151856040015186606001516040516129ff9493929190615a30565b60405180910390a16020830151604051632770a7eb60e21b81526001600160a01b037f00000000000000000000000000000000000000000000000000000000000000001691639dc29fac91612a58913391600401615d88565b600060405180830381600087803b158015612a7257600080fd5b505af1158015612a86573d6000803e3d6000fd5b5050506020840151601b54612a9b9250615c3a565b601b556080830151612aae9033906140df565b612ab66146d9565b5050505050505050505050565b612acb6154cf565b81336001600160a01b0382161480612af257503360009081526023602052604090205460ff165b80612afc57503330145b612b185760405162461bcd60e51b8152600401610f1190615cfc565b6001600160a01b0383166000908152620200236020908152604091829020825160c081018452815481526001820154928101929092526002810154928201929092526003820154909190606083019060ff166004811115612b7b57612b7b615ab9565b6004811115612b8c57612b8c615ab9565b8152600382015461010090046001600160801b031660208201526004909101546040909101529392505050565b60006110f0612bc6613d43565b613940565b612bd36133ac565b60016001600160a01b038516600090815262020023602052604090206003015460ff166004811115612c0757612c07615ab9565b14612c245760405162461bcd60e51b8152600401610f1190615dc0565b612c2d846135af565b612c388460026135fe565b80601b54612c469190615c3a565b601b55612c5383836140df565b612c5b6146d9565b50505050565b601b5460009081612c70613dc5565b9150508015611095576000612c918383676765c793fa10079d601b1b613e32565b9050612c9d8184615d5f565b949350505050565b60008082336001600160a01b0382161480612ccf57503360009081526023602052604090205460ff165b80612cd957503330145b612cf55760405162461bcd60e51b8152600401610f1190615cfc565b6001600160a01b038416600090815262020025602090815260408083208151808301909252805480835260019091015492820192909252601654909291612d3b91615c3a565b905060008260200151601754612d519190615c3a565b9050612d5d8183615d5f565b1580612d9b575060016001600160a01b038816600090815262020023602052604090206003015460ff166004811115612d9857612d98615ab9565b14155b15612daf5760008095509550505050611157565b6001600160a01b0387166000908152620200236020526040902060020154670de0b6b3a7640000612de08483615ce5565b612dea9190615c63565b670de0b6b3a7640000612dfd8484615ce5565b612e079190615c63565b965096505050505050915091565b600080612e2133614731565b90508015612ebe576040516335e97f1f60e11b81526001600160a01b037f00000000000000000000000000000000000000000000000000000000000000001690636bd2fe3e90612e7990339087908690600401615df3565b6020604051808303816000875af1158015612e98573d6000803e3d6000fd5b505050506040513d601f19601f82011682018060405250810190612ebc9190615e17565b505b6040518181526001600160a01b0384169033907f0aa4d283470c904c551d18bb894d37e17674920f3261a7f854be501e25f421b79060200160405180910390a392915050565b6000806000612f12856110f5565b9092509050336001600160a01b0386161480612f3d57503360009081526023602052604090205460ff165b80612f4757503330145b15612f64576000612f5983838761491f565b935061145a92505050565b6000612f6e6116e2565b90506000612f7d84848461491f565b90506005548110612f5957600080fd5b612f9d6301e13380612710615ce5565b612fb4676765c793fa10079d601b1b611388615ce5565b612fbe9190615c63565b81565b600061145a612fce612bb9565b8361463a565b6000620200268281548110612feb57612feb615d72565b6000918252602090912001546001600160a01b031692915050565b60248161ffff811061301757600080fd5b0154905081565b600060016001600160a01b038316600090815262020023602052604090206003015460ff16600481111561305457613054615ab9565b1461306157506000919050565b506016546001600160a01b0390911660009081526202002560205260409020541090565b61308d61357a565b613097838361404a565b611ec183826140df565b6001600160a01b03811660009081526022602090815260408220549054600160a01b900463ffffffff16428111156130d65750425b6020546000906130f390600160801b900463ffffffff1683615c3a565b601f54909150811561314b57601b548015613149576020548190613120906001600160801b031685615ce5565b61313290670de0b6b3a7640000615ce5565b61313c9190615c63565b6131469083615d5f565b91505b505b6001600160a01b038616600090815260216020526040902054808211156131bb57670de0b6b3a764000061317f8284615c3a565b6001600160a01b03891660009081526202002360205260409020546131a49190615ce5565b6131ae9190615c63565b6131b89086615d5f565b94505b6131c487614950565b6131ce9086615d5f565b979650505050505050565b6131e161357a565b6131eb8585614a72565b601a548315613206576131fe8482615c3a565b601a81905590505b601354601455601d546132198383615c3a565b6132239190615d5f565b60158190556014546040517f51bf4c63ec3cba9d03d43238abbdd979dd91bd16d9895c74ceea9118c7baaf609261325a9291615548565b60405180910390a1604051631062c15f60e11b81526001600160a01b037f000000000000000000000000000000000000000000000000000000000000000016906320c582be906132d2907f0000000000000000000000000000000000000000000000000000000000000000908b908890600401615df3565b600060405180830381600087803b1580156132ec57600080fd5b505af1158015613300573d6000803e3d6000fd5b5050505061330e87836140df565b50505050505050565b61331f61357a565b6110df8282614bec565b6000336001600160a01b037f0000000000000000000000000000000000000000000000000000000000000000161461336057600080fd5b61336983614731565b9392505050565b60006110f0601154613d93565b60008061338983614731565b6001600160a01b0390931660009081526022602052604090208390555090919050565b336001600160a01b037f000000000000000000000000000000000000000000000000000000000000000016146119da5760405162461bcd60e51b815260206004820152600260248201526121a160f11b6044820152606401610f11565b6001600160a01b0381166000908152620200236020526040812081906001600382015460ff16600481111561344057613440615ab9565b03611157576004810154601b546000613457613516565b84546001860154975095509050848184101561348c57836134788388615ce5565b6134829190615c63565b6004860183905595505b6016546001600160a01b038916600090815262020025602052604090205410156134f6576000806134bc8a612ca5565b90925090506134cb828a615d5f565b6001880181905598506134de8189615d5f565b97506134e98a6139bb565b6134f38183614bec565b50505b858114613501578585555b61350c888285613a7e565b5050505050915091565b6000806000613523613dc5565b9092509050801561109557601b5460006135498284676765c793fa10079d601b1b613e32565b90506135558183615d5f565b601b55601c54613566908290615d5f565b601c555050600d82905542600e5550919050565b336001600160a01b037f000000000000000000000000000000000000000000000000000000000000000016146119da57600080fd5b6001600160a01b03811660009081526202002360205260409020600201546013546135db908290615c3a565b601355506001600160a01b03166000908152620200236020526040812060020155565b62020026546001600160a01b0383166000908152620200236020526040902060038101805484919060ff1916600183600481111561363e5761363e615ab9565b021790555060006001808301829055818355600483018290556003546001600160a01b03878116845262020025602052604084208481558301939093559190911690831180156136ef57506001816001600160a01b031663de8fa4316040518163ffffffff1660e01b8152600401602060405180830381865afa1580156136c9573d6000803e3d6000fd5b505050506040513d601f19601f820116820180604052508101906136ed9190615ca8565b115b156137fd57600382015461010090046001600160801b0316600062020026613718600187615c3a565b8154811061372857613728615d72565b6000918252602090912001546202002680546001600160a01b03909216925082916001600160801b03851690811061376257613762615d72565b600091825260208083209190910180546001600160a01b0319166001600160a01b039485161790559183168082526202002383526040918290206003018054610100600160881b0319166101006001600160801b038816908102919091179091558251918252928101929092527f02b04ae5f7be9ca7c103293a2aa15f3c339d15d6eda53b721fef7b0e609c831a910160405180910390a150505b6202002680548061381057613810615e34565b600082815260209020810160001990810180546001600160a01b0319169055019055604051631484968760e11b81526001600160a01b038216906329092d0e9061385e908890600401615581565b600060405180830381600087803b15801561387857600080fd5b505af115801561388c573d6000803e3d6000fd5b50505060039092018054610100600160881b03191690555050505050565b6001600160a01b03831660009081526021602052604090205480821115612c5b57670de0b6b3a76400006138de8284615c3a565b6138e89085615ce5565b6138f29190615c63565b6001600160a01b0385166000908152602260205260408120805490919061391a908490615d5f565b90915550506001600160a01b038416600090815260216020526040902082905550505050565b600061145a826007546139539190615d5f565b600854614c49565b600080613966613d43565b6011819055604051818152909150600080516020615ead8339815191529060200160405180910390a1613997614c5f565b919050565b6000670de0b6b3a76400006139b18385615ce5565b6133699190615c63565b60165460175460408051808201825283815260208082018481526001600160a01b038716600090815262020025909252908390209151825551600190910155517fc437f324d85e369394148dd9d62f98f534b382e01ed3dd2eb98138fb6d3ab49a90613a2a9084908490615548565b60405180910390a1505050565b600080613a478360010154614cb5565b60028401805490829055601354919250906000908390613a68908490615c3a565b613a729190615d5f565b60135550909392505050565b6000613a8982614cfc565b9050612c5b8484836138aa565b6000613aab68056bc75e2d6310000083615c63565b9050600080613ab8610ce3565b9150915082620100238361ffff8110613ad357613ad3615d72565b018260078110613ae557613ae5615d72565b600891828204019190066004028282829054906101000a900463ffffffff16613b0e9190615e4a565b82546101009290920a63ffffffff8181021990931691831602179091556001600160a01b0387166000908152620200226020908152604091829020825160608101845290548085168252600160201b8104851692820192909252600160401b90910490921690820181905290915082148015613b93575082816020015163ffffffff16145b15613bdc578051613ba5908590615e4a565b6001600160a01b03871660009081526202002260205260409020805463ffffffff191663ffffffff92909216919091179055611d59565b805163ffffffff1615613cbc57600062010023826020015163ffffffff1661ffff8110613c0b57613c0b615d72565b01826040015163ffffffff1660078110613c2757613c27615d72565b600891828204019190066004029054906101000a900463ffffffff1663ffffffff16826000015163ffffffff166024846020015163ffffffff1661ffff8110613c7257613c72615d72565b0154613c7e9190615ce5565b613c889190615c63565b6001600160a01b038816600090815260226020526040812080549293508392909190613cb5908490615d5f565b9091555050505b6040805160608101825263ffffffff808716825285811660208084019182528683168486019081526001600160a01b038c1660009081526202002290925294902092518354915194518316600160401b0263ffffffff60401b19958416600160201b026001600160401b031990931691909316171792909216919091179055505050505050565b600080603c60125442613d569190615c3a565b613d609190615c63565b90506000613d7060065483614db8565b9050670de0b6b3a764000081601154613d899190615ce5565b611b449190615c63565b600061145a82600954613da69190615d5f565b600a54614c49565b613db9601b54614cfc565b50613dc2613516565b50565b600e546000908190428103613de0575050600d549160009150565b600c54600d5493508015613e2c576000613dfa8342615c3a565b9050613e068282615ce5565b9350613e1e8585676765c793fa10079d601b1b613e32565b613e289086615d5f565b9450505b50509091565b6000838302816000198587098281108382030391505080600003613e6957838281613e5f57613e5f615c4d565b0492505050613369565b808411613e895760405163227bc15360e01b815260040160405180910390fd5b6000848688096000868103871696879004966002600389028118808a02820302808a02820302808a02820302808a02820302808a02820302808a02909103029181900381900460010186841190950394909402919094039290920491909117919091029150509392505050565b611ec183846001600160a01b031663a9059cbb8585604051602401613f1c929190615d88565b604051602081830303815290604052915060e01b6020820180516001600160e01b038381831617835250505050614e63565b600082601b54613f5e9190615d5f565b9050600b54601e5482613f719190615d5f565b1115613fbf5760405162461bcd60e51b815260206004820152601d60248201527f436f6c6c61746572616c2064656274206c696d697420726561636865640000006044820152606401610f11565b601b8190556040516340c10f1960e01b81526001600160a01b037f000000000000000000000000000000000000000000000000000000000000000016906340c10f19906140129087908690600401615d88565b600060405180830381600087803b15801561402c57600080fd5b505af1158015614040573d6000803e3d6000fd5b5050505050505050565b604051632770a7eb60e21b81526001600160a01b037f00000000000000000000000000000000000000000000000000000000000000001690639dc29fac906140989085908590600401615d88565b600060405180830381600087803b1580156140b257600080fd5b505af11580156140c6573d6000803e3d6000fd5b5050505080601b546140d89190615c3a565b601b555050565b80156110df5780601a546140f39190615c3a565b601a556040517f342693d2465f6f44931e41128424a0227e0cbc69d1c3917a839e6de71696d44c906141289084908490615d88565b60405180910390a16001546001600160a01b031673eeeeeeeeeeeeeeeeeeeeeeeeeeeeeeeeeeeeeeee03611d6157604051633186e69160e21b81526001600160a01b037f0000000000000000000000000000000000000000000000000000000000000000169063c61b9a4490611d2b9085908590600401615d88565b600081156141d157816141c068056bc75e2d6310000085615ce5565b6141ca9190615c63565b905061145a565b5060001961145a565b60006001600160a01b038416158061425c5750604051630bb7c8fd60e31b81526001600160a01b03861690635dbe47e890614219908790600401615581565b602060405180830381865afa158015614236573d6000803e3d6000fd5b505050506040513d601f19601f8201168201806040525081019061425a9190615e17565b155b8061426f57508161426d8585612f04565b105b1561427c57506000612c9d565b60405163765e015960e01b81526000906001600160a01b0387169063765e0159906142ab908890600401615581565b602060405180830381865afa1580156142c8573d6000803e3d6000fd5b505050506040513d601f19601f820116820180604052508101906142ec9190615c8b565b90506001600160a01b038116158061225357508261430a8286612f04565b109695505050505050565b61433b604051806060016040528060008152602001600081526020016000151581525090565b6001600160a01b03871660009081526202002360205260409020805461438d908890614388907f000000000000000000000000000000000000000000000000000000000000000090615c3a565b614c49565b80835286906143a590670de0b6b3a764000090615ce5565b6143af9190615c63565b6020830152815181546000916143c491615c3a565b90506000836020015183600101546143dc9190615c3a565b90507f000000000000000000000000000000000000000000000000000000000000000082036144495761440e8a6135af565b6144198a60046135fe565b6144448a7f000000000000000000000000000000000000000000000000000000000000000083614ebd565b6145aa565b600061445582846141a4565b9050600081871161446f5761446a8783615c3a565b614479565b6144798288615c3a565b90506601c6bf5263400081118061451857507f00000000000000000000000000000000000000000000000000000000000000006001600160a01b031663969c24526040518163ffffffff1660e01b8152600401602060405180830381865afa1580156144e9573d6000803e3d6000fd5b505050506040513d601f19601f8201168201806040525081019061450d9190615ca8565b61451685614fbb565b105b1561452f57505060016040850152506131ce915050565b5060405163015f109360e51b81526001600160a01b038d1690632be2126090614562908e9085908d908d90600401615d34565b600060405180830381600087803b15801561457c57600080fd5b505af1158015614590573d6000803e3d6000fd5b50505083855550600184018290556145a784613a37565b50505b505050979650505050505050565b6000806145c3613d43565b90506000836145d28688615ce5565b6145dc9190615c63565b905060006145eb600283615c63565b6145f59084615d5f565b905061460981670de0b6b3a7640000614c49565b6011819055604051818152909150600080516020615ead8339815191529060200160405180910390a1612253614c5f565b600080670de0b6b3a76400006146508486615ce5565b61465a9190615c63565b905082811061336957600080fd5b60008261467d670de0b6b3a764000086615ce5565b6146879190615c63565b905081811115612c5b5760405162461bcd60e51b815260206004820152601d60248201527f4665652065786365656465642070726f7669646564206d6178696d756d0000006044820152606401610f11565b62020026546000036119da57676765c793fa10079d601b1b600d5542600e5560006013819055601481905560158190556016819055601781905560188190556019819055601a819055601b819055601d819055601e55565b60045460009061ffff1661476c5760405162461bcd60e51b8152602060048201526002602482015261524160f01b6044820152606401610f11565b600061477783613409565b6001600160a01b038516600090815260226020526040902054909250905080156147b5576001600160a01b0384166000908152602260205260408120555b60006147c085614950565b905080156147fd576147d28183615d5f565b6001600160a01b0386166000908152620200226020526040902080546001600160601b031916905591505b60025460405163cba1e33960e01b8152600481018590526001600160a01b0387811660248301529091169063cba1e33990604401602060405180830381865afa15801561484e573d6000803e3d6000fd5b505050506040513d601f19601f820116820180604052508101906148729190615e17565b1561487f57509392505050565b600254604080516325bc73c760e21b815290516103e8926001600160a01b0316916396f1cf1c9160048083019260209291908290030181865afa1580156148ca573d6000803e3d6000fd5b505050506040513d601f19601f820116820180604052508101906148ee9190615ca8565b6148fa906103e8615c3a565b6149049084615ce5565b61490e9190615c63565b95945050505050565b505050919050565b60008215614947576000836149348487615ce5565b61493e9190615c63565b91506133699050565b50600019613369565b6001600160a01b038116600090815262020022602090815260408083208151606081018352905463ffffffff808216808452600160201b8304821695840195909552600160401b90910416918101919091529015611095576000806149b3610ce3565b9150915080836040015163ffffffff161415806149da575081836020015163ffffffff1614155b156149175762010023836020015163ffffffff1661ffff81106149ff576149ff615d72565b01836040015163ffffffff1660078110614a1b57614a1b615d72565b600891828204019190066004029054906101000a900463ffffffff1663ffffffff16836000015163ffffffff166024856020015163ffffffff1661ffff8110614a6657614a66615d72565b01546149049190615ce5565b81600003614a7e575050565b601854600090614a96670de0b6b3a764000084615ce5565b614aa09190615d5f565b90506000601954670de0b6b3a764000085614abb9190615ce5565b614ac59190615d5f565b6013549091506000614ad78285615c63565b90506000614ae58385615c63565b9050614af18383615ce5565b614afb9086615c3a565b601855614b088382615ce5565b614b129085615c3a565b601955601654600090614b26908490615d5f565b9050600082601754614b389190615d5f565b601683905560178190556040519091507f9f8bc8ab0daf5bceef75ecfd2085d1fcc6548c657ea970d9a23a60610d0737e390614b779084908490615548565b60405180910390a188601b6000828254614b919190615c3a565b9250508190555088601e6000828254614baa9190615d5f565b9250508190555087601d6000828254614bc39190615d5f565b9250508190555087601a6000828254614bdc9190615c3a565b9091555050505050505050505050565b81601e6000828254614bfe9190615c3a565b9250508190555081601b6000828254614c179190615d5f565b9250508190555080601d6000828254614c309190615c3a565b9250508190555080601a6000828254611aee9190615d5f565b6000818310614c585781613369565b5090919050565b600060125442614c6f9190615c3a565b9050603c8110613dc2574260128190556040519081527f860f8d2f0c74dd487e89e2883e3b25b8159ce1e1b3433a291cba7b82c508f3bc9060200160405180910390a150565b6015546000908190808203614ccc57839150614cf5565b60145480614cdc57614cdc615e67565b81614ce78287615ce5565b614cf19190615c63565b9250505b5092915050565b602054600090600160a01b900463ffffffff168042811115614d1b5750425b602054600090614d3890600160801b900463ffffffff1683615c3a565b601f54945090508015614daf576020805463ffffffff60801b1916600160801b63ffffffff8516021790558415614daf576020548590614d81906001600160801b031683615ce5565b614d9390670de0b6b3a7640000615ce5565b614d9d9190615c63565b614da79085615d5f565b601f81905593505b61491783614fe7565b6000631f540500821115614dce57631f54050091505b81600003614de55750670de0b6b3a764000061145a565b670de0b6b3a764000083835b6001811115614e5957614e05600282615c77565b600003614e2a57614e16828361538b565b9150614e23600282615c63565b9050614df1565b614e34828461538b565b9250614e40828361538b565b91506002614e4f600183615c3a565b614e239190615c63565b612253828461538b565b6000614e786001600160a01b038416836153c2565b90508051600014158015614e9d575080806020019051810190614e9b9190615e17565b155b15611ec15782604051635274afe760e01b8152600401610f119190615581565b604051632770a7eb60e21b81526001600160a01b037f00000000000000000000000000000000000000000000000000000000000000001690639dc29fac90614f2b907f0000000000000000000000000000000000000000000000000000000000000000908690600401615d88565b600060405180830381600087803b158015614f4557600080fd5b505af1158015614f59573d6000803e3d6000fd5b5050505081601b54614f6b9190615c3a565b601b556001600160a01b038316600090815262020024602052604081208054839290614f98908490615d5f565b9250508190555080601a6000828254614fb19190615c3a565b9091555050505050565b600061145a7f000000000000000000000000000000000000000000000000000000000000000083615c3a565b6040805180820190915260045461ffff80821680845262010000909204166020830152600003615015575050565b600061501f611ec6565b905062093a8061504f7f000000000000000000000000000000000000000000000000000000000000000085615c3a565b6150599190615c63565b81101561506557505050565b6000600162093a806150977f000000000000000000000000000000000000000000000000000000000000000087615c3a565b6150a19190615c63565b6150ab9190615c3a565b835160405163378cbf7560e01b815261ffff90911660048201529091506000907f00000000000000000000000000000000000000000000000000000000000000006001600160a01b03169063378cbf75906024016020604051808303816000875af115801561511e573d6000803e3d6000fd5b505050506040513d601f19601f820116820180604052508101906151429190615ca8565b90508442101561517f5760006151584287615c3a565b602054909150615171906001600160801b031682615ce5565b61517b9083615d5f565b9150505b61518c62093a8082615c63565b6020805463ffffffff42908116600160801b026001600160a01b03199092166001600160801b0394909416939093171790556151cc9062093a8090615d5f565b6020805463ffffffff92909216600160a01b0263ffffffff60a01b1990921691909117815584015160405163378cbf7560e01b815261ffff90911660048201526001600160a01b037f0000000000000000000000000000000000000000000000000000000000000000169063378cbf75906024016020604051808303816000875af115801561525f573d6000803e3d6000fd5b505050506040513d601f19601f820116820180604052508101906152839190615ca8565b9050600060248361ffff811061529b5761529b615d72565b015490508015615362576000620100238461ffff81106152bd576152bd615d72565b6040805160e0810191829052929190910190600790826000855b82829054906101000a900463ffffffff1663ffffffff16815260200190600401906020826003010492830192600103820291508084116152d75790505050505050905060005b600781101561535f5781816007811061533857615338615d72565b602002015163ffffffff16600003615357576153548385615d5f565b93505b60010161531d565b50505b61536d600783615c63565b60248561ffff811061538157615381615d72565b0155505050505050565b6000806153988385615ce5565b9050670de0b6b3a76400006153ae600282615c63565b6153b89083615d5f565b612c9d9190615c63565b60606133698383600084600080856001600160a01b031684866040516153e89190615e7d565b60006040518083038185875af1925050503d8060008114615425576040519150601f19603f3d011682016040523d82523d6000602084013e61542a565b606091505b509150915061225386838360608261544a5761544582615488565b613369565b815115801561546157506001600160a01b0384163b155b156154815783604051639996b31560e01b8152600401610f119190615581565b5080613369565b8051156154985780518082602001fd5b604051630a12f52160e11b815260040160405180910390fd5b6040518060e001604052806007906020820280368337509192915050565b6040518060c001604052806000815260200160008152602001600081526020016000600481111561550257615502615ab9565b815260006020820181905260409091015290565b6001600160a01b0381168114613dc257600080fd5b60006020828403121561553d57600080fd5b813561336981615516565b918252602082015260400190565b8015158114613dc257600080fd5b60006020828403121561557657600080fd5b813561336981615556565b6001600160a01b0391909116815260200190565b600080600080600080600080610100898b0312156155b257600080fd5b505086359860208801359850604088013597606081013597506080810135965060a0810135955060c0810135945060e0013592509050565b6000806000606084860312156155ff57600080fd5b833561560a81615516565b9250602084013561561a81615516565b9150604084013561562a81615516565b809150509250925092565b60006020828403121561564757600080fd5b5035919050565b600080600080600080600060e0888a03121561566957600080fd5b873561567481615516565b9650602088013595506040880135945060608801359350608088013561569981615516565b925060a08801356156a981615516565b915060c08801356156b981615556565b8091505092959891949750929550565b600080602083850312156156dc57600080fd5b82356001600160401b03808211156156f357600080fd5b818501915085601f83011261570757600080fd5b81358181111561571657600080fd5b8660208260051b850101111561572b57600080fd5b60209290920196919550909350505050565b6000806040838503121561575057600080fd5b823561575b81615516565b9150602083013561576b81615516565b809150509250929050565b6000806040838503121561578957600080fd5b823561579481615516565b946020939093013593505050565b634e487b7160e01b600052604160045260246000fd5b604051601f8201601f191681016001600160401b03811182821017156157e0576157e06157a2565b604052919050565b60006001600160401b03821115615801576158016157a2565b5060051b60200190565b600082601f83011261581c57600080fd5b8135602061583161582c836157e8565b6157b8565b8083825260208201915060208460051b87010193508684111561585357600080fd5b602086015b8481101561587857803561586b81615556565b8352918301918301615858565b509695505050505050565b6000806040838503121561589657600080fd5b82356001600160401b03808211156158ad57600080fd5b818501915085601f8301126158c157600080fd5b813560206158d161582c836157e8565b82815260059290921b840181019181810190898411156158f057600080fd5b948201945b8386101561591757853561590881615516565b825294820194908201906158f5565b9650508601359250508082111561592d57600080fd5b5061593a8582860161580b565b9150509250929050565b6000806000806000806000806000806101408b8d03121561596457600080fd5b8a3561596f81615556565b995060208b013561597f81615556565b985060408b0135975060608b0135965060808b013561599d81615556565b955060a08b0135945060c08b01356159b481615516565b935060e08b01356159c481615516565b92506101008b01356159d581615516565b91506101208b01356159e681615516565b809150509295989b9194979a5092959850565b60e08101818360005b6007811015615a2757815163ffffffff16835260209283019290910190600101615a02565b50505092915050565b93845260208401929092526040830152606082015260800190565b600080600080600080600060e0888a031215615a6657600080fd5b873596506020880135615a7881615516565b95506040880135615a8881615516565b94506060880135615a9881615516565b9699959850939660808101359560a0820135955060c0909101359350915050565b634e487b7160e01b600052602160045260246000fd5b600060c082019050825182526020830151602083015260408301516040830152606083015160058110615b1257634e487b7160e01b600052602160045260246000fd5b60608301526080838101516001600160801b03169083015260a092830151929091019190915290565b60008060008060808587031215615b5157600080fd5b8435615b5c81615516565b93506020850135615b6c81615516565b93969395505050506040820135916060013590565b600080600060608486031215615b9657600080fd5b8335615ba181615516565b95602085013595506040909401359392505050565b60008060008060008060c08789031215615bcf57600080fd5b8635615bda81615516565b9860208801359850604088013597606081013597506080810135965060a00135945092505050565b60008060408385031215615c1557600080fd5b50508035926020909101359150565b634e487b7160e01b600052601160045260246000fd5b8181038181111561145a5761145a615c24565b634e487b7160e01b600052601260045260246000fd5b600082615c7257615c72615c4d565b500490565b600082615c8657615c86615c4d565b500690565b600060208284031215615c9d57600080fd5b815161336981615516565b600060208284031215615cba57600080fd5b5051919050565b6020808252600a908201526927b7363c9037bbb732b960b11b604082015260600190565b808202811582820484141761145a5761145a615c24565b6020808252600290820152614e4160f01b604082015260600190565b602080825260029082015261435360f01b604082015260600190565b6001600160a01b03948516815260208101939093529083166040830152909116606082015260800190565b8082018082111561145a5761145a615c24565b634e487b7160e01b600052603260045260246000fd5b6001600160a01b03929092168252602082015260400190565b600060ff821660ff8103615db757615db7615c24565b60010192915050565b602080825260029082015261544560f01b604082015260600190565b600081615deb57615deb615c24565b506000190190565b6001600160a01b039384168152919092166020820152604081019190915260600190565b600060208284031215615e2957600080fd5b815161336981615556565b634e487b7160e01b600052603160045260246000fd5b63ffffffff818116838216019080821115614cf557614cf5615c24565b634e487b7160e01b600052600160045260246000fd5b6000825160005b81811015615e9e5760208186018101518583015201615e84565b50600092019182525091905056fec454ee9b76c52f782a256af821b857ca6e125d1e3333bcede402fec2bed9600ca2646970667358221220e555cdcc90d8c3b242024a1d4f59d35a51203fcfc3214a479280156c9474546364736f6c63430008160033",
  "linkReferences": {},
  "deployedLinkReferences": {}
}