{
  "_format": "hh-sol-artifact-1",
  "contractName": "VineCore",
  "sourceName": "contracts/core/VineCore.sol",
  "abi": [
    {
      "inputs": [
        {
          "internalType": "address",
          "name": "_owner",
          "type": "address"
        },
        {
          "internalType": "address",
          "name": "_guardian",
          "type": "address"
        },
        {
          "internalType": "address",
          "name": "_priceFeed",
          "type": "address"
        },
        {
          "internalType": "address",
          "name": "_feeReceiver",
          "type": "address"
        }
      ],
      "stateMutability": "nonpayable",
      "type": "constructor"
    },
    {
      "anonymous": false,
      "inputs": [
        {
          "indexed": false,
          "internalType": "address",
          "name": "feeReceiver",
          "type": "address"
        }
      ],
      "name": "FeeReceiverSet",
      "type": "event"
    },
    {
      "anonymous": false,
      "inputs": [
        {
          "indexed": false,
          "internalType": "address",
          "name": "guardian",
          "type": "address"
        }
      ],
      "name": "GuardianSet",
      "type": "event"
    },
    {
      "anonymous": false,
      "inputs": [
        {
          "indexed": false,
          "internalType": "address",
          "name": "oldOwner",
          "type": "address"
        },
        {
          "indexed": false,
          "internalType": "address",
          "name": "owner",
          "type": "address"
        }
      ],
      "name": "NewOwnerAccepted",
      "type": "event"
    },
    {
      "anonymous": false,
      "inputs": [
        {
          "indexed": false,
          "internalType": "address",
          "name": "owner",
          "type": "address"
        },
        {
          "indexed": false,
          "internalType": "address",
          "name": "pendingOwner",
          "type": "address"
        },
        {
          "indexed": false,
          "internalType": "uint256",
          "name": "deadline",
          "type": "uint256"
        }
      ],
      "name": "NewOwnerCommitted",
      "type": "event"
    },
    {
      "anonymous": false,
      "inputs": [
        {
          "indexed": false,
          "internalType": "address",
          "name": "owner",
          "type": "address"
        },
        {
          "indexed": false,
          "internalType": "address",
          "name": "revokedOwner",
          "type": "address"
        }
      ],
      "name": "NewOwnerRevoked",
      "type": "event"
    },
    {
      "anonymous": false,
      "inputs": [],
      "name": "Paused",
      "type": "event"
    },
    {
      "anonymous": false,
      "inputs": [
        {
          "indexed": false,
          "internalType": "address",
          "name": "priceFeed",
          "type": "address"
        }
      ],
      "name": "PriceFeedSet",
      "type": "event"
    },
    {
      "anonymous": false,
      "inputs": [],
      "name": "Unpaused",
      "type": "event"
    },
    {
      "inputs": [],
      "name": "OWNERSHIP_TRANSFER_DELAY",
      "outputs": [
        {
          "internalType": "uint256",
          "name": "",
          "type": "uint256"
        }
      ],
      "stateMutability": "view",
      "type": "function"
    },
    {
      "inputs": [],
      "name": "acceptTransferOwnership",
      "outputs": [],
      "stateMutability": "nonpayable",
      "type": "function"
    },
    {
      "inputs": [
        {
          "internalType": "address",
          "name": "newOwner",
          "type": "address"
        }
      ],
      "name": "commitTransferOwnership",
      "outputs": [],
      "stateMutability": "nonpayable",
      "type": "function"
    },
    {
      "inputs": [],
      "name": "feeReceiver",
      "outputs": [
        {
          "internalType": "address",
          "name": "",
          "type": "address"
        }
      ],
      "stateMutability": "view",
      "type": "function"
    },
    {
      "inputs": [],
      "name": "guardian",
      "outputs": [
        {
          "internalType": "address",
          "name": "",
          "type": "address"
        }
      ],
      "stateMutability": "view",
      "type": "function"
    },
    {
      "inputs": [],
      "name": "owner",
      "outputs": [
        {
          "internalType": "address",
          "name": "",
          "type": "address"
        }
      ],
      "stateMutability": "view",
      "type": "function"
    },
    {
      "inputs": [],
      "name": "ownershipTransferDeadline",
      "outputs": [
        {
          "internalType": "uint256",
          "name": "",
          "type": "uint256"
        }
      ],
      "stateMutability": "view",
      "type": "function"
    },
    {
      "inputs": [],
      "name": "paused",
      "outputs": [
        {
          "internalType": "bool",
          "name": "",
          "type": "bool"
        }
      ],
      "stateMutability": "view",
      "type": "function"
    },
    {
      "inputs": [],
      "name": "pendingOwner",
      "outputs": [
        {
          "internalType": "address",
          "name": "",
          "type": "address"
        }
      ],
      "stateMutability": "view",
      "type": "function"
    },
    {
      "inputs": [],
      "name": "priceFeed",
      "outputs": [
        {
          "internalType": "address",
          "name": "",
          "type": "address"
        }
      ],
      "stateMutability": "view",
      "type": "function"
    },
    {
      "inputs": [],
      "name": "revokeTransferOwnership",
      "outputs": [],
      "stateMutability": "nonpayable",
      "type": "function"
    },
    {
      "inputs": [
        {
          "internalType": "address",
          "name": "_feeReceiver",
          "type": "address"
        }
      ],
      "name": "setFeeReceiver",
      "outputs": [],
      "stateMutability": "nonpayable",
      "type": "function"
    },
    {
      "inputs": [
        {
          "internalType": "address",
          "name": "_guardian",
          "type": "address"
        }
      ],
      "name": "setGuardian",
      "outputs": [],
      "stateMutability": "nonpayable",
      "type": "function"
    },
    {
      "inputs": [
        {
          "internalType": "bool",
          "name": "_paused",
          "type": "bool"
        }
      ],
      "name": "setPaused",
      "outputs": [],
      "stateMutability": "nonpayable",
      "type": "function"
    },
    {
      "inputs": [
        {
          "internalType": "address",
          "name": "_priceFeed",
          "type": "address"
        }
      ],
      "name": "setPriceFeed",
      "outputs": [],
      "stateMutability": "nonpayable",
      "type": "function"
    },
    {
      "inputs": [],
      "name": "startTime",
      "outputs": [
        {
          "internalType": "uint256",
          "name": "",
          "type": "uint256"
        }
      ],
      "stateMutability": "view",
      "type": "function"
    }
  ],
  "bytecode": "0x60a060405234801561001057600080fd5b506040516109ea3803806109ea83398101604081905261002f9161016f565b600280546001600160a01b0319166001600160a01b03861617905561005762093a80426101c3565b6100649062093a806101e5565b608052600580546001600160a01b038086166001600160a01b0319928316179092556001805485841690831617905560008054928416929091169190911790556040517fe6c09ffe4572dc9ceaa5ddde4ae41befa655d6fdfe8052077af0970f700e942e906100d4908590610210565b60405180910390a17f40d8738b990e6ff9a2f56f11247e657a1e7070472260b020a4fc3ab1844787bd8260405161010b9190610210565b60405180910390a17fbdf37c276f641820b141429d245add2552b4118c0866e5a78638e3de5ef18d9d816040516101429190610210565b60405180910390a150505050610224565b80516001600160a01b038116811461016a57600080fd5b919050565b6000806000806080858703121561018557600080fd5b61018e85610153565b935061019c60208601610153565b92506101aa60408601610153565b91506101b860608601610153565b905092959194509250565b6000826101e057634e487b7160e01b600052601260045260246000fd5b500490565b808202811582820484141761020a57634e487b7160e01b600052601160045260246000fd5b92915050565b6001600160a01b0391909116815260200190565b6080516107ab61023f600039600061018701526107ab6000f3fe608060405234801561001057600080fd5b50600436106100d05760003560e01c806315112f11146100d557806316c38b3c146100f1578063452a9320146101065780635c975abb146101265780636cd550cd1461014a578063724e78da14610152578063741bef1a146101655780637433ae7a1461017857806378e97925146101825780637b371107146101a95780638a0dac4a146101b15780638da5cb5b146101c4578063b3f00674146101d7578063e1cebf0b146101ea578063e30c3978146101fd578063efdcd97414610210575b600080fd5b6100de60045481565b6040519081526020015b60405180910390f35b6101046100ff3660046106aa565b610223565b005b600554610119906001600160a01b031681565b6040516100e891906106d3565b60055461013a90600160a01b900460ff1681565b60405190151581526020016100e8565b610104610309565b6101046101603660046106e7565b61038f565b600154610119906001600160a01b031681565b6100de6203f48081565b6100de7f000000000000000000000000000000000000000000000000000000000000000081565b61010461040f565b6101046101bf3660046106e7565b610515565b600254610119906001600160a01b031681565b600054610119906001600160a01b031681565b6101046101f83660046106e7565b61058a565b600354610119906001600160a01b031681565b61010461021e3660046106e7565b610635565b80801561023a57506005546001600160a01b031633145b8061024f57506002546001600160a01b031633145b61028f5760405162461bcd60e51b815260206004820152600c60248201526b155b985d5d1a1bdc9a5e995960a21b60448201526064015b60405180910390fd5b6005805482158015600160a01b0260ff60a01b19909216919091179091556102dd576040517f9e87fac88ff661f02d44f95383c817fece4bce600a3dab7a54406878b965e75290600090a150565b6040517fa45f47fdea8a1efdd9029a5691c7f759c32b7c698632b563573e155625d1693390600090a150565b6002546001600160a01b031633146103335760405162461bcd60e51b815260040161028690610710565b6003546040517fd6176b30539d20b54c946c7ca9dca5950b2f1090fc2bfc55cc77a4025a8a78ae916103709133916001600160a01b031690610734565b60405180910390a1600380546001600160a01b03191690556000600455565b6002546001600160a01b031633146103b95760405162461bcd60e51b815260040161028690610710565b600180546001600160a01b0319166001600160a01b0383161790556040517f40d8738b990e6ff9a2f56f11247e657a1e7070472260b020a4fc3ab1844787bd906104049083906106d3565b60405180910390a150565b6003546001600160a01b0316331461045a5760405162461bcd60e51b815260206004820152600e60248201526d27b7363c903732bb9037bbb732b960911b6044820152606401610286565b6004544210156104a25760405162461bcd60e51b8152602060048201526013602482015272111958591b1a5b99481b9bdd081c185cdcd959606a1b6044820152606401610286565b6002546040517f5cd6b24c0149d980c82592262b3a81294b39f8f6e3c004126aaf0828c787d554916104e1916001600160a01b03909116903390610734565b60405180910390a160038054600280546001600160a01b03199081166001600160a01b038416179091551690556000600455565b6002546001600160a01b0316331461053f5760405162461bcd60e51b815260040161028690610710565b600580546001600160a01b0319166001600160a01b0383161790556040517fe6c09ffe4572dc9ceaa5ddde4ae41befa655d6fdfe8052077af0970f700e942e906104049083906106d3565b6002546001600160a01b031633146105b45760405162461bcd60e51b815260040161028690610710565b600380546001600160a01b0319166001600160a01b0383161790556105dc6203f4804261074e565b6004557f4c743940588d40b308f73f5275a4e608b25c5374f40e4839fb00467e238acfac338261060f6203f4804261074e565b604080516001600160a01b03948516815293909216602084015290820152606001610404565b6002546001600160a01b0316331461065f5760405162461bcd60e51b815260040161028690610710565b600080546001600160a01b0319166001600160a01b0383161790556040517fbdf37c276f641820b141429d245add2552b4118c0866e5a78638e3de5ef18d9d906104049083906106d3565b6000602082840312156106bc57600080fd5b813580151581146106cc57600080fd5b9392505050565b6001600160a01b0391909116815260200190565b6000602082840312156106f957600080fd5b81356001600160a01b03811681146106cc57600080fd5b6020808252600a908201526927b7363c9037bbb732b960b11b604082015260600190565b6001600160a01b0392831681529116602082015260400190565b8082018082111561076f57634e487b7160e01b600052601160045260246000fd5b9291505056fea26469706673582212207762188aba480a06790ed82964a6644dd91f3a85398529ebc60de7d37507b83e64736f6c63430008160033",
  "linkReferences": {},
  "deployedLinkReferences": {}
}